:100000000C9457030C94F74B0C94CC4B0C94A14BD1
:100010000C94764B0C944B4B0C94204B0C94F54A5F
:100020000C94CA4A0C9488030C9488030C9488039B
:100030000C9488030C9488030C9488030C94880314
:100040000C9488030C9488030C9488030C94880304
:100050000C9488030C9488030C9488030C94804AB5
:100060000C9488030C94484D0C941E4D0C948803FA
:100070000C9488030C9488030C9488030C948803D4
:100080000C9488030C9488030C9488030C948803C4
:100090000C94F44C0C94CA4C0C9488030C94724D40
:1000A0000C9488030C9488030C9488030C948803A4
:1000B0000C9488030C9488030C9488030C94880394
:1000C0000C9488030C9488030C9488030C94A04C23
:1000D0000C94764C0C9488030C944C4C0C94224C4D
:1000E0000C94880305A84CCDB2D44EB93836A90279
:1000F0000C50B9918688083CA6AAAA2ABE00000026
:10010000803F07634236B79BD8A71A39685618AEA6
:10011000BAAB558C1D3CB7CC5763BD6DEDFD753E3C
:10012000F6177231BF000000803F08000000BE9249
:100130002449123EABAAAA2ABECDCCCC4C3E00002C
:100140000080BEABAAAAAA3E00000000BF000000CB
:10015000803F0000000000084178D3BB4387D113E3
:100160003D190E3CC3BD4282AD2B3E68EC8276BE8B
:10017000D98FE1A93E4C80EFFFBE01C4FF7F3F0055
:10018000000000000C94A7410C94A61B0C9455147D
:100190000C944F110C948D440C9449260C943B3FC5
:1001A0000C9436050C94FA440C94DD270C94070447
:1001B0000C9477050C94BB3C0C94BB410C9498397F
:1001C0000C94A3270C94123E0C94853F0C94E047AA
:1001D0000C9427040C94C0360C94AD1B0C94DF5780
:1001E0000C941F040C9431470C942C040C94F917B4
:1001F0000C943C280C94F3100C94DC570C94D657B8
:100200000C9493250C943F440C94043E0C94F949AF
:100210000C941C050C941E3C0C942F390C940D4529
:100220000C9476140C9401260C940B3E0C94E2571B
:100230000C9459450C9495050C940B040C941839A6
:100240000C942F060C94FF170C94EC030C94C857D5
:100250000C94DA360C9484250C94A33E0C94513EF5
:100260000C9426050C94FB220C94B1450C94A72504
:100270000C9498250C9467140C949D390C945F147D
:100280000C9403420C9436250C94BD390C94FC0458
:100290000C94E6220C9458480C9479140C94D026B3
:1002A0000C942F280C94C5140C9403050C942F4A1D
:1002B0000C9407180C94973D0C946A140C9490239A
:1002C0000C94FD170C9413450C94EA080C94CD443F
:1002D0000C9429230C94D5440C9451450C948A45D4
:1002E0000C9423040C941D3A0C94D33E0C94EB3BD9
:1002F0000C9411040C944D250C943E3E0C94923FAA
:100300000C94CD390C942D040C9473140C94174454
:100310000C9446230C9474470C948B050C944A055A
:100320000C9438140C947F250C9406270C947D258E
:100330000C946E250C94F4360C9461360C948E1447
:100340000C945C250C94253D0C9473450C94BE27AD
:100350000C948F0E0C9493410C94BA3D0C948B3EEC
:100360000C94F2220C9428370C946B410C943B4A69
:100370000C9485140C9482140C9433060C94EE1097
:100380000C94B7430C944F440C94F03C0C94ED390E
:100390000C94DD250C9409450C94FD050C94683FE4
:1003A0000C9491250C9404490C94A6360C94354A6F
:1003B0000C9436460C948B140C9489390C943104AB
:1003C0000C94D2140C9431250C9464140C9497471B
:1003D0000C94F6030C94F2250C942B3F0C9481059D
:1003E0000C94203A0C9411180C942E050C9433277D
:1003F0000C94E53F0C948D0E0C94B2250C945A3F4E
:100400000C94ED440C9446490C9444390C945007D8
:100410000C940B180C94CE220C94FB170C946D14B6
:100420000C9402150C9405450C94D5450C94AA1413
:100430000C945A3D0C948F480C94C3450C94FD3990
:100440000C9427420C94A91B0C9412050C947F1455
:100450000C9488140C94E13E0C9472070C94803F29
:100460000C9463050C9488400C942F430C94AD3984
:100470000C94A8460C949D080C942C210C94F7170E
:100480000C9401040C9472260C94F1100C945A14E0
:100490000C94D9570C945C3E0C94104F0C94FE03B2
:1004A0000C94384A0C94A5250C947C140C941904D3
:1004B0000C94EB140C9408050C9441070C94320630
:1004C0000C94513C0C94B0280C94C5400C94A1455C
:1004D0000C940F470C942E0C0C9419450C94074364
:1004E0000C943E4A0C94D3570C940E370C94C625AA
:1004F0000C9442370C944C400C94B7420C947A39CB
:100500000C9440050C94D1440C9415040C94E63BD7
:100510000C94DF410C9443410C94DD390C94554507
:100520000C9470140C94F5170C942B440C94863C8A
:100530000C940D3A0C9464070C94733E0C947F4316
:100540000C9454050C9492260C94BB3E0C946D05AF
:100550000C9436490C94FA030C94F2030C94324A2E
:100560004552524F523A204E6F2063616C6C62616B
:10057000636B20617661696C61626C6520666F7285
:10058000207061636B6574204944200000002100E5
:10059000240027002A002D00300033000101000054
:1005A000040107010A0100002200250028002B0099
:1005B0002E003100340002010000050108010B018A
:1005C000000020002300260029002C002F0032000C
:1005D00000010000030106010901050505050705E5
:1005E00008080808020202020A0A080804040404AF
:1005F00001010101010101010303030303030303DB
:10060000040707070C0C0C0C0C0C0C0C0202020269
:1006100006060606060606060B0B0B0B0B0B0B0B52
:100620000102102020080810204010204080020104
:1006300002010804020101020408102040808040E9
:1006400020100804020180040201804020100804E8
:100650000201080402010102040810204080010286
:1006600004081020408000000A0B02090C0D0E083F
:10067000070304010000000000000000000000006B
:10068000000000000000000000000000000000006A
:100690000000121110000000000000000000000027
:1006A000000000000000000000000000104F1124B6
:1006B0001FBECFEFD1E2DEBFCDBF00E00CBF13E025
:1006C000A0E0B2E0EAE8F3ED00E00BBF02C0079063
:1006D0000D92A63FB107D9F728E1A6EFB3E001C01C
:1006E0001D92A735B207E1F713E0C7E5D3E000E0BC
:1006F00006C021970109802FFE010E946368C6355C
:10070000D10780E00807A9F70E942C520C94C36916
:100710000C940000CF93DF93EC019A01AB01E889C0
:10072000F98982E08083211581EE38074105510562
:1007300081F160E079E08DE390E00E9483632150D5
:100740003109410951095695479537952795EC850B
:10075000FD851082EE85FF852083188EEC89FD894A
:1007600086E08083EA89FB89808180618083EA89D1
:10077000FB89808188608083EA89FB898081806829
:100780008083EA89FB8980818F7D8083DF91CF918F
:100790000895E889F989108220E1D9CF815082310A
:1007A00008F05AC0E82FF0E08827E652FC4F8F4F40
:1007B0000C946368FA03FE03EC03F203F6032C04C3
:1007C000010407040B041104150419041F04230475
:1007D0002C0427042D043104809180008F778093AE
:1007E00080000895809180008F7DF9CF80918000F6
:1007F000877FF5CF84B58F7784BD089584B58F7DCD
:10080000FBCF8091B0008F778093B00008958091E6
:10081000B0008F7DF9CF809190008F77809390000A
:100820000895809190008F7DF9CF80919000877F0F
:10083000F5CF8091A0008F778093A00008958091DC
:10084000A0008F7DF9CF8091A000877FF5CF8091A8
:1008500020018F77809320010895809120018F7D62
:10086000F9CF80912001877FF5CFCF93DF93282F99
:1008700030E0F901EA59F94F8491F901E05EF94F4E
:10088000D491F901E652FA4FC491CC23A1F0811121
:100890000E94CE03EC2FF0E0EE0FFF1FE054FA4F62
:1008A000A591B491EC91ED2381E090E009F480E012
:1008B000DF91CF91089580E090E0FACF1F93CF931E
:1008C000DF93282F30E0F901EA59F94F8491F901BB
:1008D000E05EF94FD491F901E652FA4FC491CC236E
:1008E000A9F0162F81110E94CE03EC2FF0E0EE0F3D
:1008F000FF1FEA55FA4FA591B4918FB7F894EC9188
:10090000111108C0D095DE23DC938FBFDF91CF910A
:100910001F910895DE2BF8CFCF93DF9390E0FC0179
:10092000E05EF94F249186529A4FFC01849188230E
:10093000C9F090E0880F991FFC01E457FA4FA59188
:10094000B491FC01EA55FA4FC591D49161110DC0E3
:100950009FB7F8948C91209582238C9388812823CB
:1009600028839FBFDF91CF910895623051F49FB7E4
:10097000F8943C91822F809583238C93E8812E2BD1
:10098000EFCF8FB7F894EC912E2B2C938FBFEACF3B
:10099000CF93DF93EC0161E08DE20E948C042097FD
:1009A00031F460E08DE2DF91CF910C945E04CF3F93
:1009B000D10511F461E0F6CFE3E9F6E0E491E1500E
:1009C000E23108F0B2C0F0E08827E651FB4F8F4FCC
:1009D0000C946368FC040305080512051C059505C5
:1009E00026052E05360540054A05540563056D05A7
:1009F0009505770581058B0584B5806884BDC7BDE5
:100A0000DF91CF91089584B5806284BDC8BDF8CFD1
:100A100080918000806880938000D0938900C0938B
:100A20008800EECF80918000806280938000D09318
:100A30008B00C0938A00E4CF80918000886080930F
:100A40008000D0938D00C0938C00DACF8091B000ED
:100A500080688093B000C093B300D2CF8091B00083
:100A600080628093B000C093B400CACF80919000A0
:100A7000806880939000D0939900C0939800C0CF75
:100A800080919000806280939000D0939B00C093EF
:100A90009A00B6CF80919000886080939000D093A8
:100AA0009D00C0939C00ACCF8091A0008068809393
:100AB000A0008091A0008F7B8093A000D093A9001C
:100AC000C093A8009DCF8091A00080628093A00079
:100AD000D093AB00C093AA0093CF8091A000886010
:100AE0008093A000D093AD00C093AC0089CF8091DB
:100AF0002001806880932001D0932901C0932801B0
:100B00007FCF80912001806280932001D0932B01C0
:100B1000C0932A0175CF80912001886080932001C5
:100B2000D0932D01C0932C016BCFC038D1050CF0B0
:100B300041CF37CF3FB7F89480917F0690918006E0
:100B4000A0918106B091820626B5A89B05C02F3FD3
:100B500019F00196A11DB11D3FBFBA2FA92F982FE3
:100B60008827BC01CD01620F711D811D911D42E0DE
:100B7000660F771F881F991F4A95D1F708958F92A6
:100B80009F92AF92BF92CF92DF92EF92FF924B0172
:100B90005C010E949A056B017C010E949A056C1908
:100BA0007D098E099F09683E734081059105A8F370
:100BB00021E0821A9108A108B10888EEC80E83E0EE
:100BC000D81EE11CF11C81149104A104B10429F781
:100BD000FF90EF90DF90CF90BF90AF909F908F905D
:100BE00008952FB7F89460917B0670917C068091F0
:100BF0007D0690917E062FBF0895CF93DF9382E00C
:100C00000E943504EC0183E00E94350420912D04FC
:100C100030912E04C817D907F9F42F5F3F4F309356
:100C20002E0420932D0460912D0470912E04072E24
:100C3000000C880B990B0E94D56420E030E040E264
:100C400050E40E942B640E949D647093750560932C
:100C50007405DF91CF91089521503109E0CF80E9EB
:100C600091E008950895AF92BF92CF92DF92EF92F4
:100C7000FF920F931F93CF93DF936C017B018B0146
:100C8000040F151FEB015E01AE18BF08C017D10796
:100C900059F06991D601ED91FC910190F081E02D20
:100CA000C6011995892B79F7C501DF91CF911F9165
:100CB0000F91FF90EF90DF90CF90BF90AF9008958D
:100CC000CF93DF9300D000D01F921F92CDB7DEB735
:100CD00020EF29832AEA2A8328E02B8323E02C8330
:100CE0006D838E839F8385E5888748E050E0BE0151
:100CF0006F5F7F4F80EE96E00E94330628960FB616
:100D0000F894DEBF0FBECDBFDF91CF910895CF9392
:100D1000DF9300D000D000D0CDB7DEB720EF29831D
:100D20002AEA2A8329E02B8328E02C838D839E8363
:100D30006F83788785E5898749E050E0BE016F5F62
:100D40007F4F80EE96E00E94330629960FB6F89406
:100D5000DEBF0FBECDBFDF91CF910895CF93DF935C
:100D600000D000D000D0CDB7DEB720EF29832AEA2B
:100D70002A8329E02B832DE02C8321E02D838E8391
:100D80009F83288785E5898749E050E0BE016F5F32
:100D90007F4F80EE96E00E94330629960FB6F894B6
:100DA000DEBF0FBECDBFDF91CF910895CF93DF930C
:100DB000CDB7DEB72C970FB6F894DEBF0FBECDBF10
:100DC00090EF99839AEA9A839CE09B839AE09C83B4
:100DD0008D831E826F83788749875A871B8685E5B6
:100DE0008C874CE050E0BE016F5F7F4F80EE96E055
:100DF0000E9433062C960FB6F894DEBF0FBECDBF0F
:100E0000DF91CF910895CF93DF9300D000D01F9250
:100E1000CDB7DEB720EF29832AEA2A8327E02B8388
:100E200025E02C838D839E8385E58F8347E050E00A
:100E3000BE016F5F7F4F80EE96E00E9433062796DB
:100E40000FB6F894DEBF0FBECDBFDF91CF910895EE
:100E5000FC01A089B1898C91A689B78982FD0FC058
:100E60009C91818D8F5F8F73228D821749F0A18DA8
:100E7000AE0FBF2FB11D5D969C93818F08958C910D
:100E80000895FC01538D448D252F30E0842F90E090
:100E9000821B930B541710F0CF9608950197089575
:100EA000FC01918D828D981761F0A28DAE0FBF2F3E
:100EB000B11D5D968C91928D9F5F9F73928F90E094
:100EC00008958FEF9FEF0895FC01918D828D981703
:100ED00031F0828DE80FF11D858D90E008958FEF40
:100EE0009FEF0895FC01918D228D892F90E0805C09
:100EF0009F4F821B91098F7399270895FF920F933B
:100F00001F93CF93DF931092D90611E003E072E0B4
:100F1000F72ECFEFDFEF80EE96E00E9472071816F3
:100F200019060CF0BAC080EE96E00E94500790912E
:100F3000D70691111BC0803F09F03FC01093D70620
:100F40008091D906882339F380919F06823809F46D
:100F500090C0E0F5E0EAF6E0813809F47FC0109235
:100F6000D7061092D8061092D906D5CF913041F409
:100F70008A3A19F4F092D706E3CF1092D706E0CF61
:100F8000923041F48132C8F70093D70681508093A4
:100F9000D806D6CF2091D806921778F4803F69F30F
:100FA0008A3A59F3853549F3E92FF0E0ED57F94FC7
:100FB000818F9F5F9093D706C3CF2091D80692135D
:100FC000DCCF8535D1F61093D906BACF8438D9F065
:100FD000853829F68091A10690E0982F88272091E6
:100FE000A006820F911D9093DD068093DC06809110
:100FF000A206811105C01092DE061092DF06AFCF67
:101000001093DE06FACF8091A2068E3008F0A7CFAB
:101010002091A106422F50E0542F44272091A00692
:1010200030E02F5F3F4F240F351F90E04091A30623
:10103000880F991F41110CC0FC01ED57F94F8081B9
:1010400091812817390709F08ACFD183C08387CFD0
:101050008D57994FFC013183208381CF8191868FF9
:1010600086E0E43BF807D1F71092D3061093DA0636
:1010700076CF8091A0068093D6068091A20690E05C
:10108000982F88272091A106820F911D9093D50655
:101090008093D4061093DB0662CFDF91CF911F912E
:1010A0000F91FF90089580EE96E00E94720721E074
:1010B000892B09F420E0822F08958DE797E00E94A4
:1010C000720721E0892B09F420E0822F08958AE13C
:1010D00098E00E94720721E0892B09F420E0822F1A
:1010E000089587EB98E00E94720721E0892B09F4AC
:1010F00020E0822F0895FC01A48DA80FB92FB11D07
:10110000A35ABF4F2C91848D90E001968F7399273D
:10111000848FA689B7892C93A089B1898C9183701B
:1011200080648C93938D848D981306C00288F38914
:10113000E02D80818F7D80830895EF92FF920F9341
:101140001F93CF93DF93EC0181E0888F9B8D8C8D73
:1011500098131AC0E889F989808185FF15C09FB767
:10116000F894EE89FF896083E889F989808183702A
:10117000806480839FBF81E090E0DF91CF911F91D9
:101180000F91FF90EF900895F62E0B8D10E00F5FFA
:101190001F4F0F731127E02E8C8D8E110CC00FB6D0
:1011A00007FCFACFE889F989808185FFF5CFCE0168
:1011B0000E947B08F1CFEB8DEC0FFD2FF11DE35A60
:1011C000FF4FF0829FB7F8940B8FEA89FB898081EB
:1011D0008062CFCFCF93DF93EC01888D8823B9F065
:1011E000AA89BB89E889F9898C9185FD03C0808132
:1011F00086FD0DC00FB607FCF7CF8C9185FFF2CFAF
:10120000808185FFEDCFCE010E947B08E9CFDF9181
:10121000CF91089580E090E0892B29F00E94710819
:1012200081110E94000080E090E0892B29F00E944B
:10123000670881110E94000080E090E0892B29F06E
:101240000E945D0881110E94000080E090E0892BDF
:1012500029F00E94530881110C94000008952091F8
:101260007804260F3327331F21323105ECF4209107
:101270009C04FC0190E080E0243069F082E0089555
:10128000A09178042191AC01485A5B4FA40FB52F6F
:10129000B11D2C930196861798F380917804680FFE
:1012A0006093780480E0089581E0089508958FEFB9
:1012B0009FEF08958FEF9FEF08958091510490E084
:1012C0009195819591090895CF93DF93CB01EA0120
:1012D000642F0E942F09CE01DF91CF910895CF9303
:1012E000DF931F92CDB7DEB7698361E0CE0101962F
:1012F0000E942F0981E090E00F90DF91CF91089537
:1013000090E080E00895FA0180818150982F9F3FFE
:10131000C9F0292F30E0FB01E20FF31F40814E3767
:1013200011F09150F4CF8F3F69F0482F50E0FB014E
:10133000E40FF51F90819E3719F4281B2083282F76
:101340008150F1CF0895CF92DF92EF92FF920F93E9
:101350001F93CF93DF931F92CDB7DEB78C016B0144
:10136000DB018D919C91F801E15FFD4F7F018F3F83
:10137000910508F474C08FEF80836801F80180E064
:1013800091919E3709F066C0D7018C9346E753E0F0
:10139000B801C8010E948309209158093091590968
:1013A000C80182509F4FE0E0D6014D916D01E427C6
:1013B000E20FF32FF11DE0818A179B07A9F7D801EF
:1013C000A350BE4F1C92D7018C91D801A250BE4FA2
:1013D0008C938EEF11968C931196EC938EEFF82EE2
:1013E0006801B5EECB1ABDEFDB0AF6018081918171
:1013F000B80164507E4FDC01ED91FC910280F381D5
:10140000E02D44E050E01995F601808191814F2D47
:1014100050E0DC01ED91FC910280F381E02DB801F8
:101420001995F60180819181B8017E5FDC01ED9113
:10143000FC910280F381E02D42E050E019958F2D60
:101440000F90DF91CF911F910F91FF90EF90DF9060
:10145000CF9008958F5F8E3F09F092CF97CF982F4E
:101460008FEF8083F80180E0891728F421912E37CF
:1014700019F5D7018C93F60180818983AE014F5F06
:101480005F4FB801C8010E948309D6012D913C919C
:101490004091580950915909D80180E03327BD0186
:1014A000601B710B6217730748F4ED91E827E40F96
:1014B000F52FF11D8081F3CF8F5FD6CFF801E35078
:1014C000FE4F1082F7019081F801E250FE4F9083A9
:1014D000D6019C913196908331968083FC9080CF89
:1014E0000F931F93FC01828D938D009781F481E00F
:1014F0000081118122813381448155816681778108
:10150000041715072607370769F080E00BC001971D
:10151000E1F781E04081518162817381452B462B47
:10152000472B99F71F910F910895CF93DF93EC010B
:101530000E94700A811106C08D8991E08927DF9190
:10154000CF91089580E0FBCFCF92DF92EF92FF9290
:101550000F931F93CF93DF93EC0169017A018E857E
:101560009F85998B888B7B8B6A8B198F088FCC8298
:10157000DD82EE82FF820E94F105688779878A8783
:101580009B87CD28CE28CF2821F48A899B899F87E5
:101590008E87188219821A821B821B8E1A8E1F8ACE
:1015A0001E8A1D8A8E859F85DF91CF911F910F9195
:1015B000FF90EF90DF90CF9008950F931F9310E06E
:1015C00000E020E030E0A9010E94A40A1F910F91E1
:1015D0000895CF92DF92EF92FF920F931F93CF93D4
:1015E000DF93EC0188810E9435048C010E94F10593
:1015F000288939892017310731F06A8B7B8B8C8BD6
:101600009D8B198B088BCA88DB88EC88FD886C1948
:101610007D098E099F09CA80DB80EC80FD806C15F6
:101620007D058E059F0530F08E859F859D878C8773
:101630001F870E872C853D858E859F852817390746
:1016400081F04A855B8542305105A1F48E819F81EE
:10165000A885B9850196A11DB11D8E839F83A8879A
:10166000B987DF91CF911F910F91FF90EF90DF909D
:10167000CF9008954115510531F42130310589F796
:10168000892B21F3EECF4130510559F7232B49F730
:10169000019739F7DBCFFC0184859585892B31F4DF
:1016A00081E0268537852130310509F080E00895F5
:1016B000FC0184859585019729F481E0268537858D
:1016C000232B09F080E008958F929F92AF92BF92F2
:1016D000CF92DF92EF92FF920F931F93CF93DF93FE
:1016E000FC012085211110C060E070E0CB01DF918A
:1016F000CF911F910F91FF90EF90DF90CF90BF900F
:10170000AF909F908F900895EC010E94F10529857C
:101710002111EACF8C809D80AE80BF800881198125
:101720002A813B816B017C01C818D908EA08FB08B3
:10173000C016D106E206F306B8F6080D191D2A1DDB
:101740003B1D68017901C61AD70AE80AF90AC701E0
:10175000B601CDCFCF92DF92EF92FF921F93CF933E
:10176000DF93FC01108511110AC010E0812FDF9179
:10177000CF911F91FF90EF90DF90CF900895EC01F3
:101780008185882319F018861986F0CF0E94F1050B
:10179000CC80DD80EE80FF806C197D098E099F0969
:1017A000C880D980EA80FB806C157D058E059F0579
:1017B00050F7DBCFCF93DF93EC01488359836A83E3
:1017C0007B830E94F1056C837D838E839F8381E000
:1017D00088871986DF91CF91089561E08EE20C949D
:1017E0005E040F931F93CF93DF9320914C042F5FE0
:1017F000322F377030934C0420FF2BC020E831FD8E
:101800002064347009F02062205FFC01EC01239613
:1018100000E011E06485662329F070E0C8010E94B1
:101820004F686F5F6187322F369F030E30E0311DA6
:101830001124311110C01682662311F061506187A6
:101840003196EC17FD0731F7DF91CF911F910F9182
:10185000089520E0D4CF31503683EECF4F925F927F
:101860007F928F929F92AF92BF92CF92DF92EF9230
:10187000FF920F931F93CF93DF932C01EB010E94F4
:101880009A05F20127853089621B730B6A30710556
:10189000B0F3F8948A819B81181619060CF0CBC11D
:1018A000E881F98105B1016075B17E7F75B9BA84AF
:1018B0008F812B2D281B822F2F834F85042E000C08
:1018C000550BAA81BB81ED84DC84CE84E394D39450
:1018D000C3949E81388599848B84118120E0F32EF6
:1018E000622F322F3181112788943111380F08F47B
:1018F0003FEF81958894E0FC130F17958894E1FCE5
:10190000130F17958894E2FC130F17958894E3FC46
:10191000130F17958894E4FC130F17958894E5FC32
:10192000130F17958894E6FC130F17958894E7FC1E
:10193000130F17958894232FE110212F8B0D122F51
:10194000002C05B900C017FF75B930812227889493
:1019500000C000C0002C75B93111390F00C0002C37
:1019600005B900C016FF75B908F43FEF919588944A
:1019700000C000C0002C75B9D0FC230F00C0002CA3
:1019800005B900C015FF75B927958894D1FC230FC0
:1019900000C000C0002C75B92795889400C0002CA9
:1019A00005B900C014FF75B9D2FC230F27958894A0
:1019B00000C000C0002C75B9D3FC230F00C0002C60
:1019C00005B900C013FF75B927958894D4FC230F7F
:1019D00000C000C0002C75B92795889400C0002C69
:1019E00005B900C012FF75B9D5FC230F279588945F
:1019F00000C000C0002C75B9D6FC230F00C0002C1D
:101A000005B900C011FF75B927958894D7FC230F3D
:101A100000C000C0002C75B92795889400C0002C28
:101A200005B900C010FF75B9132FD110122F990DF1
:101A300000C000C0002C75B900C000C0002C05B962
:101A400000C017FF75B932812227889400C000C0FA
:101A5000002C75B931113F0D00C0002C05B900C034
:101A600016FF75B908F43FEFE40FF51F00C000C082
:101A7000002C75B9C0FC230F00C0002C05B900C0B4
:101A800015FF75B927958894C1FC230F00C000C0CD
:101A9000002C75B92795889400C0002C05B900C0AA
:101AA00014FF75B9C2FC230F2795889400C000C0AD
:101AB000002C75B9C3FC230F00C0002C05B900C071
:101AC00013FF75B927958894C4FC230F00C000C08C
:101AD000002C75B92795889400C0002C05B900C06A
:101AE00012FF75B9C5FC230F2795889400C000C06C
:101AF000002C75B9C6FC230F00C0002C05B900C02E
:101B000011FF75B927958894C7FC230F00C000C04A
:101B1000002C75B92795889400C0002C05B900C029
:101B200010FF75B9132FC110122FF19400C000C01F
:101B3000002C75B9F80C00C000C005B900C017FF33
:101B400075B931812227889400C000C0002C75B976
:101B50003111380F00C0002C05B900C016FF75B94F
:101B600008F43FEF8195889400C000C0002C75B93F
:101B7000E0FC230F00C0002C05B900C015FF75B9AB
:101B800027958894E1FC230F00C000C0002C75B994
:101B90002795889400C0002C05B900C014FF75B9C2
:101BA000E2FC230F2795889400C000C0002C75B973
:101BB000E3FC230F00C0002C05B900C013FF75B96A
:101BC00027958894E4FC230F00C000C0002C75B951
:101BD0002795889400C0002C05B900C012FF75B984
:101BE000E5FC230F2795889400C000C0002C75B930
:101BF000E6FC230F00C0002C05B900C011FF75B929
:101C000027958894E7FC230F00C000C0002C75B90D
:101C10002795889400C0002C05B900C010FF75B945
:101C2000132FE110122F8B0D00C000C0002C75B9CE
:101C3000119709F086CE4A815B8120EE31E0DA010E
:101C40000E946B68DC01CB01F4E0B695A7959795EF
:101C50008795FA95D1F730E020E0B901EAE94E9F87
:101C6000040E611D5E9F600D711D1124650F711DB5
:101C7000860F971FA11DB11D893E43E09407A10562
:101C8000B10508F434C0885E9340A109B10942E06F
:101C9000B695A795979587954A95D1F747E0849F84
:101CA000080E211D949F200D311D1124290F311D77
:101CB00060914B0470E0860F971F820F931F409135
:101CC0007B0650917C0660917D0670917E06292FDF
:101CD0003327420F531F611D711D40937B065093A4
:101CE0007C0660937D0670937E0680934B04789407
:101CF0000E949A05F201708B6787DF91CF911F9147
:101D00000F91FF90EF90DF90CF90BF90AF909F909A
:101D10008F907F905F904F900895209A08954F92F2
:101D20005F927F928F929F92AF92BF92CF92DF92FB
:101D3000EF92FF920F931F93CF93DF932C01EB0150
:101D40000E949A05F20127853089621B730B6A3065
:101D50007105B0F3F8948A819B81181619060CF06E
:101D6000CBC1E881F98105B1006875B17F7775B99C
:101D7000BA848F812B2D281B822F2F834F85042E11
:101D8000000C550BAA81BB81ED84DC84CE84E394E6
:101D9000D394C3949E81388599848B84118120E0EB
:101DA000F32E622F322F3181112788943111380F91
:101DB00008F43FEF81958894E0FC130F1795889401
:101DC000E1FC130F17958894E2FC130F1795889484
:101DD000E3FC130F17958894E4FC130F1795889470
:101DE000E5FC130F17958894E6FC130F179588945C
:101DF000E7FC130F17958894232FE110212F8B0DEB
:101E0000122F002C05B900C017FF75B930812227A9
:101E1000889400C000C0002C75B93111390F00C082
:101E2000002C05B900C016FF75B908F43FEF919575
:101E3000889400C000C0002C75B9D0FC230F00C0EE
:101E4000002C05B900C015FF75B927958894D1FC01
:101E5000230F00C000C0002C75B92795889400C0DE
:101E6000002C05B900C014FF75B9D2FC230F2795CB
:101E7000889400C000C0002C75B9D3FC230F00C0AB
:101E8000002C05B900C013FF75B927958894D4FCC0
:101E9000230F00C000C0002C75B92795889400C09E
:101EA000002C05B900C012FF75B9D5FC230F27958A
:101EB000889400C000C0002C75B9D6FC230F00C068
:101EC000002C05B900C011FF75B927958894D7FC7F
:101ED000230F00C000C0002C75B92795889400C05E
:101EE000002C05B900C010FF75B9132FD110122FA7
:101EF000990D00C000C0002C75B900C000C0002CB6
:101F000005B900C017FF75B932812227889400C037
:101F100000C0002C75B931113F0D00C0002C05B96F
:101F200000C016FF75B908F43FEFE40FF51F00C0BD
:101F300000C0002C75B9C0FC230F00C0002C05B9EF
:101F400000C015FF75B927958894C1FC230F00C008
:101F500000C0002C75B92795889400C0002C05B9E5
:101F600000C014FF75B9C2FC230F2795889400C0E8
:101F700000C0002C75B9C3FC230F00C0002C05B9AC
:101F800000C013FF75B927958894C4FC230F00C0C7
:101F900000C0002C75B92795889400C0002C05B9A5
:101FA00000C012FF75B9C5FC230F2795889400C0A7
:101FB00000C0002C75B9C6FC230F00C0002C05B969
:101FC00000C011FF75B927958894C7FC230F00C086
:101FD00000C0002C75B92795889400C0002C05B965
:101FE00000C010FF75B9132FC110122FF19400C05B
:101FF00000C0002C75B9F80C00C000C005B900C0C5
:1020000017FF75B931812227889400C000C0002CC9
:1020100075B93111380F00C0002C05B900C016FF8A
:1020200075B908F43FEF8195889400C000C0002C7A
:1020300075B9E0FC230F00C0002C05B900C015FFE6
:1020400075B927958894E1FC230F00C000C0002CCF
:1020500075B92795889400C0002C05B900C014FFFD
:1020600075B9E2FC230F2795889400C000C0002CAE
:1020700075B9E3FC230F00C0002C05B900C013FFA5
:1020800075B927958894E4FC230F00C000C0002C8C
:1020900075B92795889400C0002C05B900C012FFBF
:1020A00075B9E5FC230F2795889400C000C0002C6B
:1020B00075B9E6FC230F00C0002C05B900C011FF64
:1020C00075B927958894E7FC230F00C000C0002C49
:1020D00075B92795889400C0002C05B900C010FF81
:1020E00075B9132FE110122F8B0D00C000C0002C0A
:1020F00075B9119709F086CE4A815B8120EE31E0F7
:10210000DA010E946B68DC01CB01F4E0B695A7957B
:1021100097958795FA95D1F730E020E0B901EAE983
:102120004E9F040E611D5E9F600D711D1124650F91
:10213000711D860F971FA11DB11D893E43E09407B5
:10214000A105B10508F434C0885E9340A109B10926
:1021500042E0B695A795979587954A95D1F747E0C0
:10216000849F080E211D949F200D311D1124290FDD
:10217000311D60914B0470E0860F971F820F931FF3
:1021800040917B0650917C0660917D0670917E06A1
:10219000292F3327420F531F611D711D40937B066A
:1021A00050937C0660937D0670937E0680934B046B
:1021B00078940E949A05F201708B6787DF91CF9126
:1021C0001F910F91FF90EF90DF90CF90BF90AF9055
:1021D0009F908F907F905F904F90089581E090E066
:1021E0000895279A08956F927F928F92CF92DF92EF
:1021F000EF92FF920F931F93CF93DF93CDB7DEB78C
:1022000062970FB6F894DEBF0FBECDBF6C017A01A6
:102210003801822EDC011C962C91CA0157FF04C0A4
:1022200088279927841B950B7A8369839C838B83EA
:102230009E838D836D867E868F86213049F5CE0103
:1022400001960E94F10B83E0888B1A8A198AF7FEA7
:1022500002C08DEF888BD601ED91FC910684F78545
:10226000E02DBE016F5F7F4FC601199562960FB6D4
:10227000F894DEBF0FBECDBFDF91CF911F910F91BC
:10228000FF90EF90DF90CF908F907F906F900895A8
:102290001C861B861A86198618861F82D4CFEF9259
:1022A000FF920F931F93CF93DF93CDB7DEB7629763
:1022B0000FB6F894DEBF0FBECDBF7C01DC011C96CB
:1022C0008C917A8369835C834B835E834D830D8716
:1022D0001E872F878130F9F4CE0101960E94F10B01
:1022E000188A1A8A198AD701ED91FC910684F7851C
:1022F000E02DBE016F5F7F4FC701199562960FB643
:10230000F894DEBF0FBECDBFDF91CF911F910F912B
:10231000FF90EF9008951C861B861A8619861886F2
:102320001F82DECF64E070E080916F0590917005B0
:102330000E9460060C947E0764E070E00C946006D6
:102340009091490280914802890F27E0280F20933D
:10235000521880935118909326180895CF93DF93C5
:102360001F921F92CDB7DEB7E5E4F4E01182108230
:10237000828393839EE494831582A5EAB9E01C923C
:10238000218111962C93119712968C931297838129
:1023900013968C93139714969C93149780E015963C
:1023A0008C93159786E090E09A838983BE016F5FD6
:1023B0007F4FCD010E94A3090F900F90DF91CF9125
:1023C0000895CF93DF931F921F92CDB7DEB7209170
:1023D0006005211103C083319105B9F510923C04C9
:1023E00010923B0490933E0480933D048B30910502
:1023F00019F08437910571F480911C0290E090935C
:10240000400480933F048091190290E0909342042D
:102410008093410487E790E09093440480934304C1
:10242000EBE3F4E0A6ECBBE081918D9384E0E5342E
:10243000F807D1F78AE090E09A838983BE016F5F45
:102440007F4F86EC9BE00E94A3090F900F90DF91D5
:10245000CF9108958DE890E00E949C118EE890E065
:102460000E949C118FE890E00E949C1180E990E00E
:102470000E949C1181E990E00E949C1182E990E009
:102480000E949C1183E990E00E949C1184E990E0F5
:102490000C949C11909134029923F9F0882389F0CF
:1024A0008091730690916E06992379F0811109C08D
:1024B000E0913502F0E0E855FD4F808161E0811147
:1024C00001C060E081E20C945E048823D1F3E091C6
:1024D0003502F0E0E855FD4FF0CF0895CF93DF933C
:1024E00090913402992309F447C08823F9F0D091E0
:1024F0006E06C0917306DD23B9F1C11109C0E091E8
:102500003502F0E0E855FD4F808161E0811101C0A6
:1025100060E087E20E945E04D11112C0CC2351F02A
:10252000E0913502F0E0E855FD4F11C060E087E230
:102530000E945E0460E083E20E945E0460E00FC0DF
:10254000C111F8CFE0913502F0E0E855FD4F8081F0
:10255000882381F361E083E20E945E0461E086E209
:10256000DF91CF910C945E04CC2391F2E09135027F
:10257000F0E0E855FD4FC8CFDF91CF91089560910D
:10258000570E062E000C770B8BE490E00E94870616
:102590006091570E062E000C770B8EE790E00E949C
:1025A00087066091570E062E000C770B8FE790E0A0
:1025B0000E9487066091570E062E000C770B82E270
:1025C00090E00E9487066091570E062E000C770B54
:1025D0008CE390E00E9487066091570E062E000C57
:1025E000770B82E090E00E9487066091570E062EDE
:1025F000000C770B85E290E00E9487066091570EF1
:10260000062E000C770B86E290E00E948706609110
:10261000570E062E000C770B87E290E00E9487068B
:102620006091570E062E000C770B83E290E00E941B
:1026300087066091570E062E000C770B84E290E01F
:102640000E9487066091570E062E000C770B83E0E0
:1026500090E00E9487066091570E062E000C770BC3
:1026600081E090E00E9487066091570E062E000CD4
:10267000770B8FE090E00E9487066091570E062E40
:10268000000C770B80E190E00E9487066091570E66
:10269000062E000C770B6A50710980E990E00E94C9
:1026A00087066091570E062E000C770B6A50710951
:1026B0008DE890E00E9487066091570E062E000C70
:1026C000770B6A5071098FE890E00E94870660914D
:1026D000570E062E000C770B6A50710983E990E0C3
:1026E0000E9487066091570E062E000C770B6A50E9
:1026F00071098EE890E00E9487066091570E062EC1
:10270000000C770B6A50710980E990E00E948706FF
:102710006091570E062E000C770B6A50710982E902
:1027200090E00E9487066091570E062E000C770BF2
:102730006A50710985E590E00E9487066091570E06
:10274000062E000C770B6A50710981E990E00C9419
:1027500087068CE390E00E949C1181E08093330215
:102760008093320280930302089520912A0222234B
:10277000C9F020912E022223A9F0209104022223E5
:1027800021F020916E06222369F020912B043091D4
:102790002C042817390769F090932C0480932B049C
:1027A0000C94C80410922C0410922B0490E080E04A
:1027B000F7CF089581E080933F0280933E0280939B
:1027C0003D02089580917606811107C0E6E7F5E0A5
:1027D000119285E0EE39F807D9F7089560E084E0BA
:1027E0000E945E0460E085E00E945E0460E086E096
:1027F0000E945E0460E087E00E945E0460E088E082
:102800000E945E0460E089E00E945E041092000471
:1028100008951F93CF93DF93962FA82FB0E06AE01F
:10282000813021F062E0823009F465E0983100F5F2
:10283000E92FF0E08827E05EFB4E8F4F0C94636831
:1028400002153814641467146A146D147014731428
:10285000761479147C147F148214851488148B14D4
:102860008E14AA14C514D214EB1455145A145F1400
:1028700030E094E6892F880F880F880F55E5782F70
:10288000759F070E70E0711D1124E92FE074692F08
:10289000607297FD1DC1E11107C16111B6C0872F9C
:1028A0008095972F782F80E0B4C030911A029091D4
:1028B0001D02E0CF3091190290911C02DBCF3091C4
:1028C000180290911B02D6CF3FEF94EFD3CF3FEF8A
:1028D00090E0D0CF3FEF95E0CDCF3FEF9AE0CACF69
:1028E0003FEF9FE0C7CF3FEF94E1C4CF3FEF90E2CF
:1028F000C1CF3FEF90E4BECF3FEF90E6BBCF38E7CC
:1029000090E7B8CF3FEF90E8B5CF3FEF91E9B2CF76
:102910003FEF90EAAFCF3FEF90ECACCFFD01E4503A
:10292000FC4F8081882319F0803609F01082A8506E
:10293000BC4F8C918F5F8C930E942F68911108C0BF
:102940008081811104C080E680831C9201C01082C6
:10295000908126C0FD01E450FC4F8081803221F03F
:10296000803C11F080E28083A850BC4F8C918F5F37
:102970008C930E942F689111EBCF8081803211F4EB
:1029800080ECE2CF80E28083E3CFA850BC4F8C91F3
:1029900082598F3010F080EA8C939C9191509C93D7
:1029A0003FEF68CFFD01E850FC4F80818F5F80834F
:1029B0000E942F68ED01C450DC4F911109C088813D
:1029C00090E005966FEF70E00E944F688883108258
:1029D000988130E84FCFED01C850DC4F88818F5F80
:1029E00088830E942F68FD01E450FC4F9111B0CF05
:1029F000808190E005966FEF70E00E944F688083C1
:102A00001882A6CF492F392F35CF95E5970F80E053
:102A10007BEA3F3F09F422C0332309F47AC03095A2
:102A200050E0332329F0339F512D112431115F5F82
:102A3000352F3095739F070E70E0711D692F639FCE
:102A4000060E60E0611D962F682F639F060E60E002
:102A5000611D862F1124750F950F850F4F3FD9F0FB
:102A600030E0442321F0449F312D09F03F5F3323B0
:102A700009F453C0739F070E70E0711D492F439FE7
:102A8000040E40E0411D942F682F639F060E60E006
:102A9000611D862F1124692F211102C0672F792F04
:102AA000DF91CF911F91089561110CC0582F1AEA40
:102AB000519F050E50E0511D11248BEA851B9AEAA7
:102AC000970FF0CE80E0972F9095872F70E0A1CFE1
:102AD000E11112C061110CC0582F6AEA569F050E11
:102AE00050E0511D11249BEA951B85E5850FEECF23
:102AF000872F809590E08DCF611106C095E5970FE7
:102B00008BEA871B792FF6CF9AEA970F80E0852F03
:102B1000F8CF8FEF9FEF7FEFA1CF80E090E070E0E4
:102B2000BACF0F931F93CF93DF93D0E0C0E0809193
:102B30001F028C171D06A1F09CF08E01000F111FC3
:102B40000C0F1D1F0B501B4F20E04FEF60E082E089
:102B50000E940914F8016083718382832196E7CF74
:102B6000DF91CF911F910F910895AF92BF92DF92A5
:102B7000EF92FF920F931F93CF93DF9360E08EE26B
:102B80000E945E048091760681116BC0C09152183C
:102B9000E0902618D0903002C750CE19D110C8E26C
:102BA00010E000E0D0E0F12C0C171D0724F145E9FE
:102BB000E42E43E1F42E05E31FE051E0A52E54E09E
:102BC000B52EC501815094408C179D070CF049C06B
:102BD00070E060E0C7010E94DD0A70E060E0C801BB
:102BE0000E94DD0AF50111925F01FCE1EF0EF11C7C
:102BF000045E1F4FE6CFDD2051F180914802F801BD
:102C00008431F9F0883201F5EA5DFC4F80818E0D48
:102C10009F2D911D01975C01AA0CBB1C8A0D9B1D69
:102C20009C0122563A4F590120E04FEF60E081E0CD
:102C30000E940914F5016083718382830F5F1F4F27
:102C4000B3CFE250FD4FE2CFEA52FD4FDFCFC701D5
:102C5000800F911F5C01AA0CBB1CA80EB91E950128
:102C6000E0CF80910202882321F080912618809382
:102C700025188091780690917906009739F4209173
:102C80000702211103C021E02093070220912B02AB
:102C9000222369F00E949115DF91CF911F910F912E
:102CA000FF90EF90DF90BF90AF900C94A91320910C
:102CB0007206222379F3892B69F3EECFCF92DF924C
:102CC000EF92FF920F931F93CF93DF9381E0809356
:102CD0007106D0E0C0E080912618C82ED12CCC150A
:102CE000DD059CF48E01000F111F0C0F1D1F0256F5
:102CF0001A4F20E04FEF65E180E00E940914F801CF
:102D00006083718382832196E6CFC0915218C750A9
:102D1000C81BF12CE12CD0E0EC16FD06FCF035EFE1
:102D2000E32E34E0F32ED0E0C0E080911F028C1738
:102D30001D06D9F1D4F18091F404882339F121E002
:102D40004FEF67E182E00E940914F701608371830D
:102D500082832196F3E0EF0EF11CE7CFC6018E0DC2
:102D60009F1D8C01000F111F080F191F02561A4FCB
:102D700020E04FEF66E181E00E940914F8016083D2
:102D800071838283FFEFEF1AFF0AC6CF8E01000F17
:102D9000111F0C0F1D1F0B501B4F20E04FEF67E161
:102DA00082E00E940914F801D1CF84E790E0DF911E
:102DB000CF911F910F91FF90EF90DF90CF900C94E7
:102DC000E111EF92FF920F931F93CF93DF93109235
:102DD0007106D0E0C0E08E01000F111F0C0F1D1F07
:102DE00002561A4F20E04FEF60E080E00E94091485
:102DF000F8016083718382832196C733D10559F727
:102E000095EFE92E94E0F92ED0E0C0E08091F40433
:102E10008823C1F021E04FEF60E082E00E940914B6
:102E2000F7016083718382832196F3E0EF0EF11C3A
:102E3000C332D10559F7DF91CF911F910F91FF90C8
:102E4000EF9008958E01000F111F0C0F1D1F0B50E6
:102E50001B4F20E04FEF60E082E00E940914F80170
:102E6000E0CF0F931F93CF93DF93D0E0C0E080912A
:102E700026188C171D06A1F09CF08E01000F111F63
:102E80000C0F1D1F02561A4F20E04FEF60E080E04C
:102E90000E940914F8016083718382832196E7CF31
:102EA0001092590610925806DF91CF911F910F9101
:102EB00008950E9431170E94EE1310923918109253
:102EC0003A1840913B1850913C1870E060E081E363
:102ED00098E10E94DA0B10922F181092301840914E
:102EE00000025091010270E060E087E298E10E94E8
:102EF000DA0B409124025091250270E060E085EFEA
:102F000097E10E94DA0B4CE251E060E070E08BE266
:102F10009FE00E94DA0B10927306109274061092D2
:102F2000700681E08093020210926F060E94B51530
:102F30000E94DA1380913B0290913C02853C27E08D
:102F4000920739F0853E27E0920769F0803C974070
:102F5000B9F48091260290E090933C1880933B183E
:102F600088E592E009C08091470290E090933C1878
:102F700080933B1886E990E09093010280930002D1
:102F800090E080E00E94B51310924E0410924D0420
:102F900080917506882321F0109275060E94E21335
:102FA00080917206882351F01092720685E090E0BD
:102FB0000E94AE118EE690E00C94E1110895982FD6
:102FC000442329F1693048F5E62FF0E08827E451E1
:102FD000F84E8F4F0C9463680718F517F717F91719
:102FE000FB17FD17FF1711180B188AE008958DE0E5
:102FF000089588E0089584E1089580E1089593306C
:1030000071F0E92FF0E0EA55FD4F80810895992392
:1030100021F0933030F081E008958EE0089586E14C
:10302000089583E00895EF92FF920F931F93CF933B
:10303000DF93082FE0906C06F0906D0641E06E2D56
:1030400083E00E94DF17182FC0915118D0E00023B1
:1030500009F446C080916E06811104C08091730608
:103060008823C9F1E114F10421F087E0E816F104A6
:1030700081F48091350212E0823059F020F48130E1
:1030800019F111E006C019E0833019F01DE0843019
:10309000C1F7809152188C171D06D9F1D4F17E0129
:1030A000EE0CFF1CEC0EFD1EF701E256FA4F7F01FD
:1030B00020E04FEF612F83E00E940914F701608345
:1030C000718382832196E5CF14E197E0E916F1043C
:1030D00001F313E0DECF809172068823D1F2F9CF9D
:1030E000809152188C171D06A1F09CF08E01000FE4
:1030F000111F0C0F1D1F02561A4F20E04FEF60E00A
:1031000083E00E940914F801608371838283219611
:10311000E7CFDF91CF911F910F91FF90EF9008952E
:10312000853608F084E62FEF829FC001112464E603
:1031300070E00E944F68CB0108959F92AF92BF92BA
:10314000CF92DF92EF92FF920F931F93CF93DF9373
:10315000EC01809128020E9490187C01982EC0906A
:103160002618D12CCE018C199D09FC01EA58FA4F82
:103170002081E2121FC04CE1489F9001499F300D11
:103180001124C9018B569C4E5C01B70177270E9420
:10319000DD0A6091330270E086E594E00E943B68AE
:1031A0009B0150E040E005E110E070E060E0C50107
:1031B0000E94A40A80910602811157C0CE01019697
:1031C0008C199D09FC01EA58FA4F208192121FC008
:1031D0004CE1489F9001499F300D1124C9018B5645
:1031E0009C4E5C01B70177270E94DD0A6091330293
:1031F00070E086E594E00E943B689B0150E040E06F
:1032000005E110E070E060E0C5010E94A40ACC1660
:10321000DD06BCF1C0915218C850DD0BCC19DD0998
:10322000FE01EA58FA4F808198121FC02CE12C9FB2
:10323000C0012D9F900D1124EC01CB56DC4EB7013F
:103240007727CE010E94DD0A6091330270E086E5A7
:1032500094E00E943B689B0150E040E005E110E0F3
:1032600070E060E0CE010E94A40ADF91CF911F912F
:103270000F91FF90EF90DF90CF90BF90AF909F9015
:1032800008952197CBCF2F923F924F925F926F92EA
:103290007F928F929F92AF92BF92CF92DF92EF92E6
:1032A000FF920F931F93CF93DF9300D01F921F9233
:1032B000CDB7DEB7809128020E9490189D838C8341
:1032C0005090261840902002450C80912102850DD7
:1032D0008A8380912202850D898380912302850D46
:1032E0008B83A42CB12CE52CF12CC5018E199F09E0
:1032F000FC01EA58FA4F208121111AC04CE1489F85
:103300009001499F300D1124C9018B5C904F6C01D5
:1033100070E060E00E94DD0A04E110E022ED30E0A0
:1033200040E050E06C817D817727C6010E94A40AAD
:103330009A81C92ED12CC6018E199F09FC01EA5829
:10334000FA4F208121111AC04CE1489F9001499FFA
:10335000300D1124C9018B5C904F4C0170E060E08E
:103360000E94DD0A04E110E022ED30E040E050E090
:103370006C817D817727C4010E94A40A9981692EFE
:10338000712CC3018E199F09FC01EA58FA4F208164
:1033900021111AC04CE1489F9001499F300D112422
:1033A000C9018B5C904F4C0170E060E00E94DD0A27
:1033B00004E110E022ED30E040E050E06C817D81DE
:1033C0007727C4010E94A40A9B81292E312CC101B8
:1033D0008E199F09FC01EA58FA4F208121111AC069
:1033E0004CE1489F9001499F300D1124C9018B5C2D
:1033F000904F4C0170E060E00E94DD0A04E110E0B3
:1034000022ED30E040E050E06C817D817727C401FF
:103410000E94A40A80910602811146C19FEFA91A59
:10342000B90AC5018E199F09FC01EA58FA4F20819B
:1034300021111AC04CE1489F9001499F300D112481
:10344000C9018B5C904F5C0170E060E00E94DD0A76
:1034500004E110E022ED30E040E050E06C817D813D
:103460007727C5010E94A40A8091521888505414ED
:1034700010F48FEF840D90E08E199F09FC01EA583B
:10348000FA4F208121111AC04CE1489F9001499FB9
:10349000300D1124C9018B5C904F5C0170E060E03D
:1034A0000E94DD0A04E110E022ED30E040E050E04F
:1034B0006C817D817727C5010E94A40A9FEFC91AFC
:1034C000D90AC6018E199F09FC01EA58FA4F2081DA
:1034D00021111AC04CE1489F9001499F300D1124E1
:1034E000C9018B5C904F6C0170E060E00E94DD0AC6
:1034F00004E110E022ED30E040E050E06C817D819D
:103500007727C6010E94A40A9A8180915218885098
:10351000591610F48A81815090E08E199F09FC01A0
:10352000EA58FA4F208121111AC04CE1489F9001BE
:10353000499F300D1124C9018B5C904F6C0170E0E4
:1035400060E00E94DD0A04E110E022ED30E040E09E
:1035500050E06C817D817727C6010E94A40A9FEF0D
:10356000691A790AC3018E199F09FC01EA58FA4FBA
:10357000208121111AC04CE1489F9001499F300DD4
:103580001124C9018B5C904F6C0170E060E00E94D7
:10359000DD0A04E110E022ED30E040E050E06C8113
:1035A0007D817727C6010E94A40A99812091521833
:1035B0002850591610F42981215030E02E193F0966
:1035C000F901EA58FA4F808181111BC04CE1429FFA
:1035D000C001439F900D11249C012B5C304F690169
:1035E00070E060E0C9010E94DD0A04E110E022ED14
:1035F00030E040E050E06C817D817727C6010E9479
:10360000A40A3FEF231A330A91012E193F09F90149
:10361000EA58FA4F808181111BC04CE1429FC001E2
:10362000439F900D11249C012B5C304F690170E089
:1036300060E0C9010E94DD0A04E110E022ED30E003
:1036400040E050E06C817D817727C6010E94A40A8A
:103650003B81209152182850531610F42B81215091
:1036600030E02E193F09F901EA58FA4F80818111A3
:103670001BC04CE1429FC001439F900D11249C014F
:103680002B5C304F790170E060E0C9010E94DD0AD7
:103690006C817D81772704E110E022ED30E040E08D
:1036A00050E0C7010E94A40A0F900F900F900F9056
:1036B0000F90DF91CF911F910F91FF90EF90DF90CE
:1036C000CF90BF90AF909F908F907F906F905F90C2
:1036D0004F903F902F900895FF920F931F93CF9399
:1036E000DF93182F809129020E949018082F409193
:1036F000050260916C0680E00E94DF17F82E812F92
:1037000090E0209158063091590628173907C4F0E7
:10371000409149024217130689F084F0EC01CC0F66
:10372000DD1FC80FD91FC256DA4F20E0402F6F2D82
:1037300080E00E940914688379838A831F5FDFCF4A
:10374000DF91CF911F910F91FF90089590E080E05D
:103750000895FC018585968508950F931F93CF9357
:10376000DF9300D0CDB7DEB7AB0119821A821B827E
:10377000DC01ED91FC910190F081E02D00E010E082
:1037800020E0BE016F5F7F4F19950F900F900F9053
:10379000DF91CF911F910F910895FC0188E992E08C
:1037A00091838083138212828FEF86838783808741
:1037B00081878287838781E08487168615861582B4
:1037C00014828091600690916106892B21F4F09318
:1037D0006106E0936006A091F603B091F70310979D
:1037E00021F01596FC93EE931497F093F703E09372
:1037F000F60308958F929F92AF92BF92CF92DF927D
:10380000EF92FF92CF93C42F9B01AC010E94B5634E
:103810006B017C016C2F70E090E080E00E94D3642B
:103820004B015C0120E030E040E85FE3C701B601F6
:103830000E94216487FF16C0A5019401C701B6014B
:103840000E94316620E030E040E05FE30E94C46502
:10385000CF91FF90EF90DF90CF90BF90AF909F906F
:103860008F900895A701960160E070E080E090E4F9
:103870000E94B463A50194010E9431669F7720E005
:1038800030E040E05FE30E94C4659B01AC0160E072
:1038900070E080E89FE30E94B463DACF60E08EE2DC
:1038A0000C945E04AB018B300CF08AE08A3B0CF484
:1038B0008AEB682F880F770B80E190E00C94D60696
:1038C00080916F059091700520916D0565E070E025
:1038D000211102C066E070E00E9460066091560E01
:1038E000062E000C770B80916F05909170050E9459
:1038F000870680916F05909170050E94AE060E9428
:103900007E0740E25EE460E070E089E59EE00E94B0
:10391000DA0B81E08093DF060895DF92EF92FF9249
:103920000F931F93CF93DF937C01D62EC42F4B3080
:103930000CF0CAE0CA3B0CF4CAEB0C2E000CDD0BF9
:103940002223E9F06AEB7FEFC7010E948706C701D7
:103950000E94AE06A801BE01C7010E94D60665E01E
:1039600070E0D11002C066E070E0C701DF91CF9136
:103970001F910F91FF90EF90DF900C946006BE01B5
:10398000C7010E948706C7010E94AE06E8CF0F93C9
:103990001F938091580E8A3BE9F0809144029091E8
:1039A0004502853091057CF5109245021092440243
:1039B000809144029091450297FD019695958795D7
:1039C00082538093580E8093550E082E000C990B4D
:1039D0000E94030780917706811112C080917506BD
:1039E00081110EC080E490E00E949C1110E000E084
:1039F00020E04091580E60E080E490E00E948D1C31
:103A00001F910F910895059790934502809344026A
:103A1000CFCF0F931F93809144029091450280363F
:103A2000910594F184E690E09093450280934402DE
:103A3000809144029091450297FD01969595879556
:103A400082538093580E8093550E80917706811192
:103A500012C08091750681110EC080E490E00E9432
:103A60009C1110E000E020E04091580E60E080E4FE
:103A700090E00E948D1C8091580E082E000C990B2E
:103A80001F910F910C9403070596CECF0F931F93B0
:103A900080914202909143028530910514F5109275
:103AA00043021092420280E490E00E949C114091F7
:103AB000580E4A5010E000E020E060E080E490E022
:103AC0000E948D1C809142029091430297FD0196C5
:103AD0009595879582538093570E1F910F910C9463
:103AE000BF1205979093430280934202EBCF0F934E
:103AF0001F938091420290914302803691051CF100
:103B000084E690E0909343028093420280E490E048
:103B10000E949C1110E000E020E04091570E60E010
:103B200080E490E00E948D1C8091420290914302BB
:103B300097FD01969595879582538093570E1F9117
:103B40000F910C94BF12059690934302809342020A
:103B5000EBCF0F931F93CF9380916E06882309F4C8
:103B600049C080913B0290913C02853E9740A1F470
:103B700080913502853080F487E899E00E94640BDB
:103B8000C091570E683E73408105910558F56EE16E
:103B900070E08C2F0E94521C80916C0690916D06F3
:103BA0008330910509F488C010F58130910509F43E
:103BB00071C0029709F477C08BE999E00E94640B09
:103BC000C091570E683873418105910508F04BC0CC
:103BD00010E000E020E04C2F60E08BE090E00E94DD
:103BE0008D1C08C087E899E00E94640BD2CF07972C
:103BF000029710F780916C0690916D0683309105C5
:103C000009F4ABC008F061C08130910509F48FC0A0
:103C1000029709F497C080913B0290913C02853C49
:103C2000974009F07DC084E690E00E949C1183E6F5
:103C300090E00E949C1180913B0290913C02853E55
:103C4000974021F48BE990E00E949C1188E490E079
:103C50000E949C1181E690E00E949C1182E690E017
:103C60000E949C1136C08BE999E00E94640B10E021
:103C700000E0603177428105910530F420E04C2F5F
:103C800060E087E490E0ABCF20E04C2F60E08AE07A
:103C900090E0A5CF10E000E020E04091570E60E0FA
:103CA00085E390E09CCF10E000E020E04091570ECB
:103CB00060E088E390E093CF10E000E020E04091E6
:103CC000570E60E08BE390E08ACF0797029708F0E9
:103CD000A2CF80913204882309F45FC080913B0217
:103CE00090913C02853C27E0920741F0853E27E019
:103CF0009207F1F1803C974009F04DC08AE490E0D2
:103D00000E949C1189E490E00E949C114091570E02
:103D1000465F10E000E020E060E089E490E039C018
:103D200080E690E00E949C118FE590E082CF83E3D3
:103D300090E00E949C1184E390E00E949C1185E336
:103D400090E08ECF86E390E00E949C1187E390E0A4
:103D50000E949C1188E390E083CF89E390E00E9469
:103D60009C118AE390E00E949C118BE390E078CF55
:103D70008EE690E00E949C118FE690E00E949C11DC
:103D80004091570E465F10E000E020E060E08FE6D3
:103D900090E00E948D1C1092320410923304109215
:103DA0003004CF911F910F9108950F931F930E949C
:103DB000A91D80913B0290913C02853C27E092072F
:103DC00009F052C085E290E00E949C1186E290E0EA
:103DD0000E949C1110E000E020E04091570E60E04E
:103DE00082E090E00E948D1C80913B0290913C0209
:103DF000853C974009F049C020E04091570E60E0B3
:103E000087E290E00E948D1C80917306811129C089
:103E10004091570E80913B0290913C02853C27E0F7
:103E2000920739F0853E27E0920719F0803C9740D1
:103E3000A9F510E000E020E061E08BE490E00E9452
:103E40008D1C20E04091570E61E08EE790E00E94CB
:103E50008D1C20E04091570E60E08FE790E00E94BB
:103E60008D1C1F910F910895803C974039F483E099
:103E700090E00E949C1181E090E0AACF8FE090E05A
:103E80000E949C1180E190E0A3CF10E000E020E0D0
:103E90004091570E60E083E290E0B4CF10E000E084
:103EA00020E061E082E290E0DACF0E94A91DE1E922
:103EB000F9E01086118684E090E00E94E111EBE1C8
:103EC000F8E11086118610926E061092310410925D
:103ED0003404EFE0FEE010861186E9E1FEE0108692
:103EE000118680E00E9413180E944E1C81E080938E
:103EF000690680E00E946E1280E00E944A12EBE99F
:103F0000F9E010861186EDE2FEE010861186E3E20C
:103F1000FEE01086118608950F931F9381E090E0D4
:103F2000909379068093780610926806109267063F
:103F300080917206882329F180913B0290913C0286
:103F4000803C27E0920719F0853C974071F440E0EF
:103F500050E0BA0185EF97E10E94DA0B40E050E0B3
:103F6000BA018BEF9EE00E94DA0B0E94D51E84E01E
:103F700090E00E94AE118DE690E01F910F910C949D
:103F8000E11185E090E00E94AE118EE690E00E9483
:103F9000E1118BE490E00E949C118EE790E00E947A
:103FA0009C118FE790E00E949C1184E290E00E94B7
:103FB0009C1180913B0290913C02853C27E0920746
:103FC000F1F0853E27E0920769F1803C9740A1F42B
:103FD00010E000E020E04091570E60E081E090E0CA
:103FE0000E948D1C00ED17E021E04091570E61E02A
:103FF00083E090E00E948D1C1F910F91089510E0C6
:1040000000E020E04091570E60E085E290E00E94E1
:104010008D1C08EB1BE021E04091570E61E086E229
:1040200090E0E8CF10E000E020E04091570E60E023
:104030008FE090E00E948D1C00E516E421E04091A5
:10404000570E61E080E190E00E948D1C40E556E44F
:1040500060E070E087E899E01F910F910C94DA0B13
:104060006091570E062E000C770B8CE290E00E94B8
:1040700087061092730680E00E946E121092490E1D
:1040800010924A0E80E00E944A1280913B02909169
:104090003C02803C27E0920719F0853C974011F4E0
:1040A0000E94B515109272060E94A91380913B02DE
:1040B00090913C02853C27E0920739F0853E27E04D
:1040C000920751F1803C974061F485E595E090932B
:1040D0003A02809339028CE291E090933802809307
:1040E00037020E94DA130E948C1F80E00E9413188E
:1040F0000E944E1C1092170E1092180E1092210E54
:104100001092220E409124025091250270E060E04E
:1041100085EF97E10C94DA0B8CE291E090933A02F0
:1041200080933902DACF8F929F92AF92BF92CF9253
:10413000DF92EF92FF920F931F93CF93DF93CDB750
:10414000DEB7C054D1090FB6F894DEBF0FBECDBFA5
:1041500080E4E4E5F2E0DE01119601900D928A958B
:10416000E1F710E000E088248A94982C5401C801FB
:104170000E943B6394012827D501C9018F709927BC
:10418000AA27BB27880F991F880F991F41E050E08D
:104190004C0F5D1F840F951FFC01C080D180E28011
:1041A000F38034E0B694A794979487943A95D1F726
:1041B000C824D924EA24FB24C8010E943B6390E070
:1041C00044E0959587954A95E1F7092E000CAA0BD6
:1041D000BB0B8C259D25AE25BF258F709927AA275F
:1041E000BB27880F991F880F991F21E030E02C0F03
:1041F0003D1F820F931FFC0180809180A280B380BD
:1042000064E0F694E794D794C7946A95D1F78C2428
:104210009D24AE24BF2480949094A094B0940F5F0A
:104220001F4F0C3FFFE01F0709F0A1CFC501B401EC
:10423000C05CDF4F0FB6F894DEBF0FBECDBFDF917D
:10424000CF911F910F91FF90EF90DF90CF90BF9093
:10425000AF909F908F9008950E94BE69FB010190DE
:104260000020E9F73197AF01461B570BDC01ED91B8
:10427000FC910280F381E02D19948F929F92AF926E
:10428000BF92EF92FF920F931F93CF93DF93CDB71F
:10429000DEB7A1970FB6F894DEBF0FBECDBF7C018D
:1042A000FA01CB0119A2223008F42AE08E010F5D39
:1042B0001F4F822E912CB12CA12CBF01A50194017E
:1042C0000E948363F901CA016A300CF5605DD80170
:1042D0006E938D01232B242B252B79F790E080E022
:1042E000109721F0BD01C7010E942E21A1960FB6A3
:1042F000F894DEBF0FBECDBFDF91CF911F910F911C
:10430000FF90EF90BF90AF909F908F900895695C61
:10431000DECF0F931F93CF93DF93EC010E942E21EA
:104320008C0169E873E0CE010E942E21800F911F5D
:10433000DF91CF911F910F9108951F93CF93DF933A
:1043400085ED8093BC008091540490915504A09118
:104350005604B09157040796A11DB11D23E0B695F0
:10436000A795979587952A95D1F72091BC0024FDB4
:1043700003C010929C0452C04091540450915504C3
:104380006091560470915704452B462B472B69F3D7
:104390000097A105B10541F02AE22A95F1F700C086
:1043A0000197A109B109E1CF80915304C1E0C09305
:1043B0005204882399F1D091B8001091BA008091ED
:1043C000BC008A7B8093BC0060E084E10E945E04B4
:1043D00060E085E10E945E0410929C04C0939E04FC
:1043E00010929D0461E084E10E945E0461E085E139
:1043F0000E945E048091B9008E7F8093B900809105
:10440000B9008D7F8093B90088E48093B80085E47B
:104410008093BC001093BA00D093B800DF91CF9185
:104420001F9108952EEFDC01E22F1D92EA95E9F726
:10443000FC01E250FF4FDF011D922A95E9F7EC5F86
:10444000FE4F10828F5E9D4FFC01108211821282FE
:10445000138208950F931F93CF93DF93EC018C0188
:10446000055E1D4FD8018D919C91DC01ED91FC9171
:104470000084F185E02D1995892B59F0F801808190
:104480009181DC01ED91FC910284F385E02D199579
:10449000E9CFCE010E941222FE01E65EFD4FCD5F04
:1044A000DD4F88818083DF91CF911F910F91089517
:1044B0008F929F92AF92BF92CF92DF92EF92FF9234
:1044C0000F931F93CF93DF93EC017B018A016C0163
:1044D0008FEEC81A8DEFD80AF60180819181A281F2
:1044E000B381892B8A2B8B2B61F4D8018C9181119C
:1044F0003DC0FE01EE5FFD4F1082CD5FDD4F81E0DC
:1045000063C00E94F105F60180809180A280B38093
:10451000681979098A099B09FE01EB5EFD4F8080CD
:104520009180A280B380681579058A059B05E8F221
:104530003A978081882339F06CE873E03297808164
:1045400091810E948921FE01EE5FFD4F108232961B
:1045500011821082CD5FDD4F8DEF8883D6011D92D1
:104560001D921D921C92139780E0CDC08E010C5FAE
:104570001D4FD801ED91FC911197E730F10508F03E
:1045800060C18827E953FD4D8F4F0C946368CE229C
:10459000E622F222FB22292346239023F701808181
:1045A0008E3759F481E090E08D939C930E94F10541
:1045B000F6016083718382839383FE01EE5FFD4F7A
:1045C0001082CD5FDD4F83E08883CECFD7018C9101
:1045D000FE01E25FFD4F808382E090E0F80191836D
:1045E0008083EBCFD7018C91FE01E05FFD4F80838C
:1045F00083E090E0F3CFD7018C919FEF980F9E3F1F
:1046000048F4FE01E45FFD4F80833196108284E020
:1046100090E0E4CF7E01F2E0EF0EFF1ED7011C9286
:10462000F801118210828FEFFE01ED5FFD4F808354
:1046300038968081882339F060EA73E03297808170
:1046400091810E948921CE010E941222D7018C9172
:104650005AC0DE01A35FBD4F8C91FE01E45FFD4FA8
:104660009081891708F0A9CFF7012081FE01E80F9A
:10467000F11DE250FF4F20838F5F8C9398139DCFE5
:1046800085E090E0D8018D939C9397CFFE01E45F85
:10469000FD4F20816091580970915909AE01425037
:1046A0005F4FDA0180E030E0FD01E41BF50BE2171B
:1046B000F30738F4ED91E827E60FF72FF11D80811D
:1046C000F3CFF7019081981303C086E090E0DACF32
:1046D0007E01B2E0EB0EFB1EF7011082D8011D92A5
:1046E0001C923196108238968081882339F065EBD0
:1046F00073E03297808191810E948921CE010E94CE
:104700001222F7018081DF91CF911F910F91FF90CD
:10471000EF90DF90CF90BF90AF909F908F900895D3
:104720001D921C92F7018081813809F073C0FE014F
:10473000E05FFD4F80818F3F79F0AE0142505F4FC7
:104740002EE7FA01E80FF11D9081992319F02083DB
:10475000890FF7CF8EE780838E01045F1D4FD8014C
:104760008C91FE01EE5FFD4F808382E03196808365
:1047700033962081318121153105A1F07E01B2EF00
:10478000EB1ABDEFFB0AF7018081369790818917FC
:1047900080F490E0880F991F820F931FDC01ED9148
:1047A000FC911995F6011082118212821382D801B0
:1047B0004ECFFE01E55FFD4F8081882399F35E01B6
:1047C000B7EFAB1ABDEFBB0AF50180809180C0E660
:1047D000D5E0FE016491662359F0D401ED91FC917E
:1047E0000190F081E02DC40119952196892B89F75C
:1047F000F501C081D181D7014C9150E070E060E0BB
:104800002AE0CE010E943D2169E873E0CE010E94BA
:104810002E21C8CF8E010E5F1D4FF80110828EEF42
:104820003196808338968081882339F066EC73E076
:104830003297808191810E948921CE010E941222AB
:10484000B6CFFE01E55FFD4F80818823A1F16DEDBC
:1048500073E07E01B7EFEB1ABDEFFB0AF701808131
:1048600091810E942E21D701AD90BC90F801C080AB
:10487000D1800D2C000CEE08FF082AE0B701A6013C
:10488000F7FE11C0D501ED91FC910190F081E02D72
:104890006DE2C501199544275527BA014C195D09E8
:1048A0006E097F092AE0C5010E943D2169E873E095
:1048B000C5010E942E21CE010E941222F801118210
:1048C00010827BCE8F929F92AF92BF92CF92DF9257
:1048D000EF92FF920F931F93CF93DF931F921F923C
:1048E000CDB7DEB78C0119828FEF8A83680125EE80
:1048F000C21A2DEFD20AD6018D919C91DC01ED9167
:10490000FC910084F185E02D1995F801E75EFD4FDB
:104910007F01892B09F449C081E089834801FDEFBB
:104920008F1A9F0A580126EEA21A2DEFB20AD6015D
:104930008D919C91DC01ED91FC910084F185E02D3D
:104940001995892B09F1F60180819181DC01ED91A6
:10495000FC910284F385E02D19958A83AE014F5FA7
:104960005F4FBE016E5F7F4FC8010E945822F70162
:104970008083D4018C91F50180838330C1F287FF5D
:1049800003C0C8010E942A22F70180810F900F9076
:10499000DF91CF911F910F91FF90EF90DF90CF901B
:1049A000BF90AF909F908F900895AE014F5F5F4F83
:1049B000BE016E5F7F4FC8010E945822D7018C93C1
:1049C000F801ED5FFD4F808177968083D8CF8F927D
:1049D0009F92AF92BF92CF92DF92EF92FF92CF93CE
:1049E000DF936B017C01EA0120E030E0A9010E9425
:1049F0002164882309F469C120E030E040E85FE3E6
:104A0000C701B6010E942164882309F45EC1FE013A
:104A10003297EE31F10508F058C18827ED5EFA4D66
:104A20008F4F0C946368312536254D255C256E2506
:104A30007D257F258425912593259825A525A725C6
:104A4000B225C625DD25F2250126492672269226A5
:104A5000D02606273327A327BE27DD272F283C286B
:104A6000B028A7019601C701B601A4C0A70196010D
:104A700060E070E080E89FE30E94B4639B01AC01BA
:104A80000E94C4659B01AC0160E070E080E89FE398
:104A90000E94B4636B017C0118C142E0C701B601FA
:104AA000DF91CF91FF90EF90DF90CF90BF90AF90CC
:104AB0009F908F900C94FA1B20E030E040E450E48B
:104AC000C701B601DF91CF91FF90EF90DF90CF90BB
:104AD000BF90AF909F908F900C943166A701960184
:104AE00060E070E080E89FE30E94B46320E030E083
:104AF00040E450E40E943166C5CF43E0CFCF20E0D0
:104B000030E040E850E4DCCFA701960160E070E0BF
:104B100080E89FE30E94B46320E030E040E850E486
:104B2000E9CF44E0BBCF20E030E040EA50E4C8CF1A
:104B3000A701960160E070E080E89FE30E94B46303
:104B400020E030E040EA50E4D5CF45E0A7CF2BEDA0
:104B50003FE049EC5FE3C701B6010E94C4650E94D3
:104B6000266490CF2BED3FE049EC5FE3C701B6012F
:104B70000E94C465DF91CF91FF90EF90DF90CF90BE
:104B8000BF90AF909F908F900C9481662BED3FE08B
:104B900049E450E4C701B6010E94C4650E9426643E
:104BA00020E030E040E85FE30E94B46320E030E0C2
:104BB00040E05FEB0E94C4656DCF20E030E040E84C
:104BC0005FE3C701B6010E94B46320E030E040E239
:104BD00051E40E94C4659B01AC0160E070E080E09C
:104BE00090E470CF20E030E040E251ECC701B60124
:104BF0000E94C4659B01AC0160E070E080E090E43D
:104C000079CFA7019601C701B6010E94B5634B0198
:104C10005C0120E030E040E85FE30E94B4636B0198
:104C20007C0120E030E040E85FE3C501B4010E9470
:104C3000216487FF15C020E030E040E251E4C70165
:104C4000B6010E94C4659B01AC0160E070E080E0A9
:104C500090E40E94316620E030E040E05FE3AACFBC
:104C600020E030E040E251ECC701B6010E94C4658B
:104C70009B01AC0160E070E080E090E40E9431664E
:104C80009B01AC0160E070E080E090E40E94B463BE
:104C9000E2CFA7019601C701B6010E94C4659B013E
:104CA000AC0160E070E080E89FE30E94B4630E9482
:104CB0008F6620E030E040E85FE30E94B4636B0160
:104CC0007C01F7FAF094F7F8F094C701B601DF9190
:104CD000CF91FF90EF90DF90CF90BF90AF909F90DB
:104CE0008F90089520E030E040E85FE3C701B6010F
:104CF0000E94B4639B01AC010E94C4659B01AC019E
:104D000060E070E080E89FE30E94B463DF91CF91A0
:104D1000FF90EF90DF90CF90BF90AF909F908F90DB
:104D20000C948F66A7019601C701B6010E94B56376
:104D30006B017C0120E030E040E85FE30E942164E9
:104D400087FF11C0A7019601C701B6010E94C46583
:104D50009B01AC0160E070E080E89FE30E94B463D7
:104D60000E948F661DCF20E030E040E050E4C70194
:104D7000B6010E94B4639B01AC010E94C4659B0113
:104D8000AC0160E070E080E89FE30E94B4630E94A1
:104D90008F6620E030E040E85FE30E94B5635BCFC0
:104DA00020E030E040E85FE3C701B6010E94B46351
:104DB0004B015C0120E030E040E251E40E94C46518
:104DC0009B01AC0160E070E080E090E40E943166FD
:104DD0006B017C0127E636E646EE5DE3C501B401D2
:104DE0000E94B4632BED3FE049EC50E40E94C4659F
:104DF00027E636E646EE5EE30E942B640E9481665B
:104E00009B01AC01C701B6019058D4CE20E030E040
:104E100040E251ECC701B6010E94C4659B01AC01A0
:104E200060E070E080E090E40E9431664B015C013C
:104E30002AE939E949E95DE3C701B6010E94B46393
:104E40002BED3FE049EC50E40E94C4652AE939E9C2
:104E500049E95EE30E942B640E9481669B01AC01DC
:104E6000C501B40167C0A7019601C701B6010E9440
:104E7000B56320E030E040E85FE30E94B4636B017B
:104E80007C0127E636E646EE5DE30E94B4632BED37
:104E90003FE049EC50E40E94C46527E636E646EE62
:104EA0005EE30E942B640E9481664B015C0120E05E
:104EB00030E040E85FE3C701B6010E94B56320E03F
:104EC00030E040E85FE30E94216487FF19C020E0E2
:104ED00030E040E251E4C701B6010E94C4659B0185
:104EE000AC0160E070E080E090E40E94316620E078
:104EF00030E040E05FEB0E94C465A50194015ACE0A
:104F000020E030E040E251ECC701B6010E94C465E8
:104F10009B01AC0160E070E080E090E40E943166AB
:104F20009B01AC01C501B4010E94C46520E030E0E2
:104F300040E05FE30E94C46520E030E040E85FE3CA
:104F40000E94B563A7CD20EB36EE4CE250E4C701DA
:104F5000B6010E94C46520E63DEC49ED5FE30E9486
:104F6000B4634B015C01A7019601C701B6010E9421
:104F7000C4659B01AC01C501B4011CCE20E030E04A
:104F800040E85FE3C701B6010E94B4636B017C0196
:104F900020EB36EE4CE250E40E94C46520E63DEC86
:104FA00049ED5FE30E94B5634B015C01A7019601E7
:104FB000C701B6010E94C46551CFA7019601C70180
:104FC000B6010E94B5636B017C0120E030E040E84F
:104FD0005FE30E94216487FF1DC020E030E040E0D5
:104FE0005FE3C701B6010E94C465A70196010E9454
:104FF000C4654B015C012FEF32E146E650E4C70186
:10500000B6010E94C4652FEF32E146E250E40E94EF
:10501000B463AFCF20E030E040E050E4C701B60118
:105020000E94B4636B017C0120E030E040E05FE36C
:105030000E94C465A70196010E94C4654B015C01F2
:105040002FEF32E146E650E4C701B6010E94C46585
:105050002FEF32E146E250E40E94B563FFCEA70194
:10506000960160E070E080E89FE30E94B4634EE147
:1050700050E00E94E72406CD2CE83EE24AEB5EE3D6
:10508000C701B6010E94216487FF0BC020E030E019
:1050900042EF50E4C701B6010E94C4659B01AC0118
:1050A000E2CC2CE83EE24AE35FE3C701B6010E948E
:1050B000216487FF19C029EE32EA4BE05FE3C701A4
:1050C000B6010E94B4636B017C0120E030E042EF46
:1050D00050E40E94C465A70196010E94C46520E0C7
:1050E00030E040E45FE32CCF2FE23AEB48E65FE3A9
:1050F000C701B6010E94216487FF19C02DE534E77E
:1051000041E55FE3C701B6010E94B4636B017C0116
:1051100020E030E042EF50E40E94C465A701960110
:105120000E94C46520E030E040E75FE309CF27E15B
:105130003DE544E75FE3C701B6010E94B4636B013C
:105140007C0120E030E042EF50E40E94C465A701FA
:1051500096010E94C46520E030E04CE75FE3F0CEAA
:10516000A7019601C701B6010E94B5634B015C011E
:1051700020E030E040E05FE3C701B6010E94216417
:1051800087FF07C04DE150E0C501B4010E94E7244C
:1051900062CD20E030E040E85FE3C501B4010E9449
:1051A000B4634EE150E00E94E72420E030E040E0AC
:1051B0005FE30E94C46520E030E040E05FE3C0CEE2
:1051C0002F923F924F925F926F927F928F929F9217
:1051D000AF92BF92CF92DF92EF92FF920F931F9305
:1051E000CF93DF93CDB7DEB762970FB6F894DEBFEB
:1051F0000FBECDBF3C01DC0154968C9154978111B8
:10520000BBC01C962D903C90512C412C60E070E06E
:10521000CB0121E0D30158960D90BC91A02DBA8B03
:10522000A98BAB2B09F48CC0222309F489C0F301AC
:105230006087718782879387858981116FC0D301C9
:1052400004811581268137810D871E872F87388B32
:10525000828D938D009709F4A9C0019709F4FAC0D3
:10526000F3010288F389E02DFA83E9830D851E8519
:105270002F853889012B022B032B09F441C1D3015F
:1052800050960D911C9151970E171F0709F438C1C4
:105290006D917D918D919C910E94D3646B017C01F5
:1052A0006D857E858F8598890E94D3649B01AC01B2
:1052B000C701B6010E942B644B015C01B801012EAD
:1052C000000C880B990B0E94D5646B017C01E9816D
:1052D000FA8149895A89C501B401E017F1070CF434
:1052E000F5C00E94E7244B015C0169817A81601B53
:1052F000710B072E000C880B990B0E94D564A50139
:1053000094010E94C465A70196010E94B5630E94A2
:105310009D64D3011F967C936E931E97C3010E94D8
:10532000700A882369F0D30156968D919C91823042
:10533000910509F4F1C008F0E9C0019709F4FBC038
:10534000F3018685978562960FB6F894DEBF0FBE8F
:10535000CDBFDF91CF911F910F91FF90EF90DF9024
:10536000CF90BF90AF909F908F907F906F905F9005
:105370004F903F902F9008950E94F105F301008512
:105380001185228533851B012C01201A310A420A1E
:10539000530AC484D584F12CE12C21E02C143D0463
:1053A0004E045F0408F036CF20E034CF0081118135
:1053B0002281338109871A872B873C87A9019A01AB
:1053C0004B833C83520198014B815C8160E070E02B
:1053D00080E090E04B82BC825101CB80DC80E12CEC
:1053E000F12C00E010E00E947268F9010D851E8525
:1053F0002F85388948015901C12CD12C76019F0194
:1054000089829A82AB82BC82CD82DE82EF82F8866C
:105410005401CB80DC80E12CF12C00E010E00E94F4
:10542000846874F489859A85AB85BC85820D931D4B
:10543000A41DB51DF30180839183A283B38310CF94
:105440000D851E852F8538890D931D932D933C93D3
:10545000139706CF008111812281338109871A8732
:105460002B873C87A9019A014B833C835201410160
:10547000C12CD12C760198014B815C8160E070E0F9
:1054800080E090E029829A824B82BC82CD82DE82CB
:10549000EF82F8865101CB80DC80E12CF12C00E01A
:1054A00010E00E947B68A0E00E948D6851F04CF0F3
:1054B00089859A85AB85BC8582199309A409B509AC
:1054C000B9CF1082118212821382CACE0E94E724C1
:1054D0004B015C01B80129813A81621B730B072ED5
:1054E000000C880B990B0E94D564A50194010E94C1
:1054F000C4659B01AC01C701B6010E94B46307CF2C
:1055000009811A81F3011787068708CF8430910536
:10551000C1F0059709F014CFD3015A968D919C9153
:105520005B970097C1F0019709F00ACF5B961C9238
:105530001E925A9705CFF3011082118212821382B4
:10554000FFCEF30184819581A681B7818083918309
:10555000A283B383F5CE81E090E0F301938F828F35
:10556000EFCE5F926F927F928F929F92AF92BF9297
:10557000CF92DF92EF92FF920F931F93CF93DF931F
:1055800050903302852C912CB4010E944F686B011E
:105590008091070281114BC18091251890E00E94F3
:1055A0009D1880914F049091500420912F02222346
:1055B00009F4E5C001969093500480934F048091C4
:1055C0004F0490915004843091050CF4DAC010928D
:1055D000500410924F04E0902618E0914F04F0918F
:1055E0005004E05EFD4FC081CE0DC0932518D0E081
:1055F000809128020E9490185C01F12CCE018E1936
:105600009F09FC01EA58FA4F208121111DC04CE18D
:10561000489F9001499F300D1124C9018B5C904F28
:105620003C0170E060E00E94DD0A82ED90E0B40190
:105630000E943B689B0150E040E004E110E0B501AE
:105640007727C3010E94A40A80910602811155C0E8
:10565000CE0101968E199F09FC01EA58FA4F20816C
:1056600021111EC04CE1489F9001499F300D11242B
:10567000C9018B5C904F3C0170E060E00E94DD0A44
:10568000652D70E082ED90E00E943B689B0150E048
:1056900040E004E110E0B5017727C3010E94A40AAD
:1056A000EC16FD060CF476C0C0915218C850DD0B04
:1056B000CE19DF09FE01EA58FA4F808181111DC021
:1056C0002CE12C9FC0012D9F900D1124EC01CB5C8F
:1056D000D04F70E060E0CE010E94DD0A82ED90E0E4
:1056E000B4010E943B689B0150E040E0B501772780
:1056F00004E110E0CE010E94A40A80913F028823B9
:1057000009F45FC08FEF97E10E94700A882309F4C3
:1057100043C010923F02A6010D2C000C660B770BC4
:1057200085EF97E10E94DA0BD0923A02C0923902DB
:1057300083E290E090934E0480934D0480916E0636
:10574000811178C080917306811174C080917206B6
:10575000811170C080914D0490914E04DF91CF91E2
:105760001F910F91FF90EF90DF90CF90BF90AF907F
:105770009F908F907F906F905F900C94B5130197DE
:105780001ACF97FF28CF83E090E090935004809346
:105790004F0421CF21978CCF8FEF97E10E94E02813
:1057A000AC01990F660B770B85EF97E10E94DA0B3E
:1057B0008FEF97E10E94E02890933A02809339029C
:1057C000B7CF80917406882349F18FEF97E10E944B
:1057D000700A882319F010927406B0CF8FEF97E10A
:1057E0000E94E028AC01990F660B770B85EF97E1DB
:1057F0000E94DA0B8FEF97E10E94E02890933A0223
:105800008093390280914D0490914E0401978F301E
:1058100091050CF08FCF8FE090E08CCFA601DD0CCE
:10582000660B770B85EF97E10E94DA0B87CF10921A
:105830000702B7CEDF91CF911F910F91FF90EF90AC
:10584000DF90CF90BF90AF909F908F907F906F90A0
:105850005F900895FF920F931F93CF93DF93EC0116
:105860008BE29FE00E94AA0B882309F475C0809107
:105870003D02882309F48BC08FE09FE00E94700AEC
:10588000882309F46FC010923D02AE010D2E000C6A
:10589000660B770B8BE29FE00E94DA0BD093380205
:1058A000C0933702809127020E949018F82E4091F1
:1058B000310260916C0682E00E94DF17682F8091B0
:1058C0002B02C0912904D0912A0490912F02992390
:1058D00009F492C081112DC08091F4048E01000F53
:1058E000111F882309F47DC021E04F2D82E00E9422
:1058F00009140C0F1D1FF801EB50FB4F60837183DF
:10590000828380911F028150990B209711F0CE0164
:105910000197EC01CC0FDD1FC80FD91FCB50DB4F17
:1059200020E04FEF60E082E00E94091468837983F1
:105930008A838091290490912A04019690932A04E5
:105940008093290420911F022817190609F024F4D6
:1059500010922A0410922904DF91CF911F910F9188
:10596000FF9008958FE09FE00E94E028AC01990F1E
:10597000660B770B8BE29FE00E94DA0B8FE09FE0D3
:105980000E94E02890933802809337028BCF809159
:105990006F06882349F08FE09FE00E94700A8823F9
:1059A00009F310926F067ECFD0933802C09337026E
:1059B00080913302823018F0853080F02497AE0158
:1059C0001C161D0614F041E050E0052E000C660B7D
:1059D000770B8BE29FE00E94DA0B64CFC81BD109E2
:1059E000EECF0C0F1D1F0B501B4F20E04F2D82E000
:1059F0000E940914F80182CF811127C08091F4041C
:105A00008E01000F111F8823A1F121E04F2D82E0AC
:105A10000E9409140C0F1D1FF801EB50FB4F60830F
:105A20007183828380911F028150990BC817D90717
:105A30005CF120E04FEF60E082E00E940914609387
:105A4000F5047093F6048093F704809129049091F3
:105A50002A04019790932A048093290497FF7CCF0E
:105A600080911F028150990B90932A0480932904FE
:105A700073CF0C0F1D1F0B501B4F20E04F2D82E0EA
:105A80000E940914F801CBCF2196CE01880F991FEF
:105A9000C80FD91FCB50DB4F20E04FEF60E082E012
:105AA0000E940914688379838A83CFCF2F923F9213
:105AB0004F925F926F927F928F929F92AF92BF921E
:105AC000CF92DF92EF92FF920F931F93CF93DF93CA
:105AD000EC01809128020E9490184C0185EF97E11B
