:100000000C94EF040C9420050C9420050C9420050E
:100010000C9420050C9420050C9420050C942005CC
:100020000C9420050C9420050C9420050C942005BC
:100030000C9420050C9420050C9420050C942005AC
:100040000C9420050C9420050C9420050C9420059C
:100050000C9420050C9420050C9420050C942E8300
:100060000C9420050C94F9870C94CF870C942005F0
:100070000C9420050C9420050C9420050C9420056C
:100080000C9420050C9420050C9420050C9420055C
:100090000C94A5870C947B870C9420050C942388E2
:1000A0000C9420050C9420050C9420050C9420053C
:1000B0000C9420050C9420050C9420050C9420052C
:1000C0000C9420050C9420050C9420050C94518769
:1000D0000C9427870C9420050C94FD860C94D386F1
:1000E0000C94200505A84CCDB2D44EB93836A902DF
:1000F0000C50B9918688083CA6AAAA2ABE00000026
:10010000803F07634236B79BD8A71A39685618AEA6
:10011000BAAB558C1D3CB7CC5763BD6DEDFD753E3C
:10012000F6177231BF000000803F08000000BE9249
:100130002449123EABAAAA2ABECDCCCC4C3E00002C
:100140000080BEABAAAAAA3E00000000BF000000CB
:10015000803F0000000000084178D3BB4387D113E3
:100160003D190E3CC3BD4282AD2B3E68EC8276BE8B
:10017000D98FE1A93E4C80EFFFBE01C4FF7F3F0055
:10018000000000000C94C3290C94E5760C940472D2
:100190000C9417240C94C5210C94C0110C94147D5C
:1001A0000C94A67D0C9471760C94342D0C946C30C8
:1001B0000C9493220C94CA1A0C944C130C94F113C3
:1001C0000C9432130C9476760C94F81B0C94587D96
:1001D0000C9430200C941B1F0C940E7D0C94D8763C
:1001E0000C9443170C944D1E0C94DB2B0C94DB1ECB
:1001F0000C949E930C94461A0C9478520C94431BC6
:100200000C94BB740C9481310C9444150C94767C42
:100210000C9400720C940F7C0C947B7D0C94942AAB
:100220000C94E42E0C9418310C941B720C949C606A
:100230000C94DB290C94A8740C94A7120C94EF7402
:100240000C948D230C94A8510C9441770C9472213A
:100250000C94332C0C94AF1E0C946C850C942505D7
:100260000C944E750C94FC110C94267D0C94BA13CE
:100270000C9412620C9410780C9433120C94404736
:100280000C94A0730C9434440C94F0790C941D7766
:100290000C9429720C9455250C949E7C0C94C419D2
:1002A0000C94D51B0C949A2C0C94397D0C94B02C86
:1002B0000C944A2D0C9431300C94BF760C9425721A
:1002C0000C94397C0C94D2720C9463850C94481273
:1002D0000C94E4460C94EF250C94AB290C94B226B4
:1002E0000C94B22F0C9498740C94B2770C94A87C54
:1002F0000C94807C0C94322F0C9473130C94A11BDF
:100300000C94A2100C9485270C94582E0C948D7686
:100310000C94B7850C9489440C94D5190C946160A5
:100320000C94641D0C941D2C0C943C730C94551C63
:100330000C94182F0C947A140C94887D0C94737D73
:100340000C944A750C94947C0C941C7D0C94B01401
:100350000C9446780C949A2E0C942D720C94201EBA
:100360000C940D720C9432720C94C1220C943A15B8
:100370000C9429050C94DB150C94177D0C943277A2
:100380000C9497270C946E130C9489770C94851D0C
:100390000C94337D0C943F310C942B150C945D7CA4
:1003A0000C9475610C94B92D0C94A01A0C9489527C
:1003B0000C94E8600C941D790C94C52B0C94F22CD1
:1003C0000C942F7D0C9437720C9409120C94A9276D
:1003D0000C94A61D0C9495130C94F11E0C94E461DE
:1003E0000C94C8180C94C7800C944A1A0C941C1DC9
:1003F0000C94E7760C944B230C94E3780C94E91B53
:100400000C944B750C94E31D0C94D1760C94991EAE
:100410000C9433250C94E1230C94797D0C947C7915
:100420000C94057D0C9426270C9414310C94AE7614
:100430000C94417C0C94141B0C943E2B0C94845211
:100440000C94921A0C94537D0C94ED730C946814D4
:100450000C94F2760C94287D0C94DC1C0C943214D1
:100460000C947B290C942A260C94247D0C94A913BB
:100470000C94FB1C0C9478130C944A730C94EA9023
:100480000C94CA2E0C947D220C94F47C0C94E923D9
:100490000C94F8710C9442160C94F2710C94117235
:1004A0000C94232E0C9433720C9451750C94FB7C99
:1004B0000C94DC2C0C94207D0C946F1F0C948A7C83
:1004C0000C9401150C94497C0C94F31B0C9422059C
:1004D0000C94A7300C94FE2E0C942C7D0C946E2F53
:1004E0000C9496120C94021C0C94842C0C946E2682
:1004F0000C9495230C9475270C94C0900C949974CB
:100500000C94EE1B0C949C760C94BD160C94671CFA
:100510000C94D3720C94F62F0C94912B0C94D277EC
:100520000C94C4760C942F130C9467220C946F795E
:100530000C94DF1B0C949E140C9446190C94317D82
:100540000C94D01C0C9437150C9493290C940186B0
:100550000C9444140C9407720C94B02E0C945D27E8
:100560000C945D120C9489130C9479230C947E5294
:100570000C94D9230C94A71F0C9406140C94E42813
:100580000C94C62C0C949A850C94117D0C948C14AC
:100590000C94007D0C943B7D0C94271E0C941C3114
:1005A0000C94DD250C94C51E0C9487440C94257C7A
:1005B0000C94C2740C9484440C94C2140C94357D35
:1005C0000C94E3140C94EF220C94732B0C94381CB1
:1005D0000C94E4110C94227D0C9400220C94D172A2
:1005E0000C9428140C94CB130C94F5230C94537C8A
:1005F0000C94677C0C942F7C0C9439240C943E75DD
:100600000C94451F0C9491230C942A270C94287366
:100610000C94B8120C9473780C9477250C94D01B1E
:100620000C9490260C942E610C94721B0C9442280E
:100630000C9422270C94D1110C94D4260C94BE90C7
:100640000C9445270C94D3760C94D42F0C941E1242
:100650000C94EC900C9403120C94C9170C94F115A3
:100660000C94CE2A0C94082D0C94B6610C9417723D
:100670000C94AF2B0C941F720C94E8900C940D15F5
:100680000C94EE2D0C941E7D0C944C260C94842E10
:100690000C9417140C94842D0C941E2D0C94FC7146
:1006A0000C94BD760C94E0900C94E51A0C94832382
:1006B0000C945D130C94CE720C94EE900C942D144B
:1006C0000C9406770C944C2F0C945A7D0C94DA1BE6
:1006D0000C941D230C94C5140C94E41B0C94CC12A4
:1006E0000C94BB250C9456140C943F850C94CE238B
:1006F0000C94902F0C94E0130C946E2C0C943E1CD4
:100700000C94DF750C941F210C941B7C0C943F1DE2
:100710000C94FD1B0C9485240C94F12B0C945785A0
:100720000C94CD240C940A7D0C9419730C946E2EA9
:100730000C94E5230C94167C0C94991A0C941A7D55
:100740000C94072C0C94FE780C94151C0C944A18ED
:100750000C9411250C94731E0C94A91C0C94EF247A
:100760000C9499250C94F415B80B0000B80B0000FC
:10077000AC0D0000AC0D0000A00F0000001C120A20
:10078000041F160D02110C07010A0704000A121CAF
:10079000040D161F02070C110104070A01020304CD
:1007A00005060708090A0B0C0D0E0F101112131481
:1007B00015161718191A1B1C1D1E1F202122232471
:1007C00025262728010203040506070809000A0B4D
:1007D0000C0D0E0F10111200131415161718191AFC
:1007E0001B001C1D1E1F20212223240001020304C4
:1007F000050000000000060708090A0000000000CC
:100800000B0C0D0E0F00000000001011121314004D
:1008100000000000010203000000000000000405C9
:1008200006000000000000000708090000000000AA
:1008300000000A0B0C0000000000000030750000F2
:10084000983A0000102700004C1D000070170000AF
:10085000000000006410B71DC8206E3BAC30D926E4
:100860009041DC76F4516B6B5861B24D3C71055090
:100870002083B8ED44930FF0E8A3D6D68CB361CBB8
:10088000B0C2649BD4D2D38678E20AA01CF2BDBD6C
:100890004552524F523A204E6F2063616C6C626138
:1008A000636B20617661696C61626C6520666F7252
:1008B000207061636B6574204944200000002100B2
:1008C000240027002A002D00300033000101000021
:1008D000040107010A0100002200250028002B0066
:1008E0002E003100340002010000050108010B0157
:1008F000000020002300260029002C002F003200D9
:1009000000010000030106010901050505050705B1
:1009100008080808020202020A0A0808040404047B
:1009200001010101010101010303030303030303A7
:10093000040707070C0C0C0C0C0C0C0C0202020236
:1009400006060606060606060B0B0B0B0B0B0B0B1F
:1009500001021020200808102040102040800201D1
:1009600002010804020101020408102040808040B6
:1009700020100804020180040201804020100804B5
:100980000201080402010102040810204080010253
:1009900004081020408000000A0B02090C0D0E080C
:1009A0000703040100000000000000000000000038
:1009B0000000000000000000000000000000000037
:1009C00000001211100000000000000000000000F4
:1009D0000000000000000000000000009E931124B1
:1009E0001FBECFEFD1E2DEBFCDBF00E00CBF13E0F2
:1009F000A0E0B2E0E6E7FBE401E00BBF02C0079035
:100A00000D92A835B107D9F729E1A8E5B3E001C0F7
:100A10001D92A63FB207E1F714E0CFEED4E000E06C
:100A200006C021970109802FFE010E9459A4CE3EE5
:100A3000D10780E00807A9F70E94A5970C94B9A5F3
:100A40000C94000090E080E00895FC018585968577
:100A500008950F931F93CF93DF9300D0CDB7DEB7E8
:100A6000AB0119821A821B82DC01ED91FC9101908D
:100A7000F081E02D00E010E020E0BE016F5F7F4FCD
:100A800019950F900F900F90DF91CF911F910F91BB
:100A90000895FC0140813181932F341708F4942F7D
:100AA0002281822F291708F4892F8823C1F0962FDD
:100AB000682F70E080E00E9431A4469FC001479FEC
:100AC000900D11249083369FC001379F900D112403
:100AD0009183269FC001279F900D11249283089532
:100AE0008091640490916504892B91F08091FC05BC
:100AF0009091FD050197029758F460914108062EE8
:100B0000000C770B80916204909163040E94947AA8
:100B100088E40C942A498091FC059091FD05019789
:100B2000029708F0A2C160914208062E000C770BD4
:100B30008FE390E00E94947A60914208062E000CA8
:100B4000770B80E490E00E94947A60914208062E30
:100B5000000C770B83E490E00E94947A6091420845
:100B6000062E000C770B84E490E00E94947A60914A
:100B70004208062E000C770B89E491E00E94947ADB
:100B800060914208062E000C770B8BE490E00E94E7
:100B9000947A60914208062E000C770B8EE790E065
:100BA0000E94947A60914208062E000C770B8FE722
:100BB00090E00E94947A60914208062E000C770B18
:100BC00082E090E00E94947A80910406909105065C
:100BD0000397D9F460914208062E000C770B85E24A
:100BE00090E00E94947A60914208062E000C770BE8
:100BF00086E290E00E94947A60914208062E000CF2
:100C0000770B87E290E00E94947A8091040690919D
:100C100005060297029748F460914208062E000CE0
:100C2000770B83E290E00E94947A80910406909181
:100C30000506029791F460914208062E000C770B8E
:100C400083E090E00E94947A60914208062E000CA6
:100C5000770B81E090E00E94947A80910406909155
:100C600005060497029708F0C6C060914208062E58
:100C7000000C770B80E691E00E94947A6091420824
:100C8000062E000C770B80911502681B710982E11A
:100C900090E00E94947A60914208062E000C770B37
:100CA00080911502681B710983E190E00E94947A9B
:100CB00060914208062E000C770B80911502681B8C
:100CC000710984E190E00E94947A60914208062EB6
:100CD000000C770B80911502681B710985E190E08B
:100CE0000E94947A60914208062E000C770B809146
:100CF0001502681B710986E190E00E94947A609168
:100D00004208062E000C770B8FE090E00E94947A48
:100D100060914208062E000C770B80E190E00E9463
:100D2000947A60914208062E000C770B8CE591E0D6
:100D30000E94947A60914208062E000C770B80E99D
:100D400091E00E94947A60914208062E000C770B85
:100D5000645171098DE890E00E94947A6091420894
:100D6000062E000C770B645171098FE890E00E9409
:100D7000947A60914208062E000C770B6451710939
:100D800083E990E00E94947A60914208062E000C5C
:100D9000770B645171098EE890E00E94947A60911B
:100DA0004208062E000C770B6451710980E990E02F
:100DB0000E94947A60914208062E000C770B6451D1
:100DC000710982E990E00E94947A60914208062EAF
:100DD000000C770B6451710984E990E00E94947AC9
:100DE00060914208062E000C770B6451710981E96D
:100DF00090E00E94947A8091C603882349F0609124
:100E00004208062E000C770B8EE491E00E94947A43
:100E100080917A0490917B04019749F46091420893
:100E2000062E000C770B82E390E00E94947A80916A
:100E30007A0490917B04029749F460914208062E4F
:100E4000000C770B87E390E00E94947A80917A04FB
:100E500090917B04039749F460914208062E000CA0
:100E6000770B87E491E00E94947A88E40C942A49F5
:100E7000FF920F931F93CF93DF93EC01F62E08811F
:100E80001981C8010E944BA0F81621F06F2DC801EE
:100E90000E9453A0CE01DF91CF911F910F91FF903F
:100EA00008950E94F25D0E9440621092490D1092D6
:100EB0004A0D1092C8031092C70310929303109228
:100EC00092031092BF0381E0809307020E940A54AC
:100ED0000E94465080910406909105060297029761
:100EE00008F44EC0809144028093621786E990E036
:100EF0009093030280930202109260171092611780
:100F00004091621750E070E060E088E597E10E9450
:100F1000A58E1092300E1092310E40910202509127
:100F2000030270E060E088E29EE00E94A58E40919E
:100F3000110250E070E060E086E297E10E94A58E29
:100F40004CE251E060E070E082E59EE00E94A58EF8
:100F50000E94F14B109294038091CB03882321F0DF
:100F60001092CB030E94D85380911804882379F003
:100F7000109218048AE00E94044986E70C94E04A23
:100F800080912F028093621788E592E0B1CF089597
:100F900080912302882349F081E020910C0E30914A
:100FA0000D0E232B19F080E0089581E008950F9332
:100FB0001F93CF93DF9300D000D0CDB7DEB78FEF74
:100FC0009FEFDC0189839A83AB83BC8310E000E050
:100FD0001E830D83BE016B5F7F4FCE0101960E9481
:100FE000B88EBE016A5F7F4FCE0101960E94B88E17
:100FF0000F5F1F4F0632110559F78AE190E09E837B
:101000008D83BE016B5F7F4FCE0101960E94B88E2B
:10101000BE016A5F7F4FCE0101960E94B88E8CE0C0
:1010200090E09E838D83BE016B5F7F4FCE01019662
:101030000E94B88EBE016A5F7F4FCE0101960E946A
:10104000B88E69817A818B819C816095709580953D
:10105000909526960FB6F894DEBF0FBECDBFDF91F8
:10106000CF911F910F910895EF92FF920F931F93CD
:10107000CF93DF9300D000D0CDB7DEB70E94D70763
:1010800069837A838B839C83CE0101967C010CEF6C
:101090001FE01E830D83F70161917F01CE0105964C
:1010A0000E9438070F5F1F4F0115F0E11F0789F7F6
:1010B00026960FB6F894DEBF0FBECDBFDF91CF915D
:1010C0001F910F91FF90EF9008952F923F924F92B2
:1010D0005F926F927F928F929F92AF92BF92CF92C8
:1010E000DF92EF92FF920F931F93CF93DF93CDB7D1
:1010F000DEB76D970FB6F894DEBF0FBECDBF309050
:101100007604809120029091210228EE33E0B9010B
:101110000E9431A4C62E80911E0290911F02B90137
:101120000E9431A4D62E80911C0290911D02B9011B
:101130000E9431A4E62E80911A0290911B02B901FF
:101140000E9431A4F62E8091180290911902B901E3
:101150000E9431A4662E80912B02772473948823F9
:1011600011F0F2E07F2E80912A0299249394882333
:1011700011F0E2E09E2E8091290288248394882336
:1011800011F072E0872E80912802AA24A39488236C
:1011900011F062E0A62E80912702BB24B39488232D
:1011A00011F052E0B52E8091260261E0811162E0DB
:1011B0008091690401E0811102E080917C049091AA
:1011C0007D0412E0019709F011E080912502B2E060
:1011D000811101C0B1E080912402A2E0811101C01F
:1011E000A1E080916F0442E0242E811102C02224EC
:1011F00023948091230232E0432E811102C04424C3
:10120000439480912202811181C032E03D8F809110
:101210003D02853608F07DC0882309F47CC090919A
:101220003E0272E0911101C071E090913F0252E0E4
:10123000911101C051E09091400242E0911101C032
:1012400041E090914102992309F467C092E0209116
:10125000420255245394222311F022E0522E209171
:10126000740430917504215031092330310508F0A0
:1012700056C02D593D4FF901208179828A829B8287
:10128000AC82BD826E830F8338861987BA87AB879D
:101290002C86FD8DFD878E87CF86D88AE98AFA8ACB
:1012A0006B8A7C8B5D8B4E8B9F8B588E298F4A8EE1
:1012B000CE0101967C010CE010E01C8F0B8FF70132
:1012C00061917F01CE014B960E9438070F5F1F4F3F
:1012D0000632110591F70E9434086D960FB6F89406
:1012E000DEBF0FBECDBFDF91CF911F910F91FF9059
:1012F000EF90DF90CF90BF90AF909F908F907F90B6
:101300006F905F904F903F902F90089581E08D8F68
:101310007ECF84E684CF81E082CF91E098CF24E035
:10132000ACCF0F931F93CF93DF931F921F92CDB734
:10133000DEB70CE010E01A83098360E0CE0101966D
:101340000E9438070F5F1F4F06321105A1F70E9458
:1013500034080F900F90DF91CF911F910F91089556
:10136000EF92FF920F931F93CF93DF93CDB7DEB72A
:101370002E970FB6F894DEBF0FBECDBF80916A04E2
:1013800092E0811101C091E02091700430917104CC
:1013900083E02130310529F084E02230310509F065
:1013A00082E0209146022983209145022A832091E0
:1013B0002E022B839C83909139029D83909137025A
:1013C0009E83909135029F8390913A0298879091E5
:1013D00038029987909136029A8790916B049B8787
:1013E0008C87CE0101967C0110E000E01E870D87FE
:1013F000F70161917F01CE010D960E9438070F5FC2
:101400001F4F0C30110591F70E9434082E960FB62D
:10141000F894DEBF0FBECDBFDF91CF911F910F912A
:10142000FF90EF9008950F931F93CF93DF931F9238
:101430001F92CDB7DEB710E000E01A83098360E0A9
:10144000CE0101960E9438070F5F1F4F0C30110527
:10145000A1F70E9434080F900F90DF91CF911F9158
:101460000F9108958091FC059091FD0501970297D9
:1014700038F480914408082E000C990B0C94207AC3
:1014800008958091FC059091FD050197029798F4CD
:101490008091640490916504892B59F080916204D5
:1014A00090916304843F21E0920718F064E00E9469
:1014B000457A0E94E87A10921604109217046091FF
:1014C00062047091630489E80E94BA4A8BE80C9424
:1014D000E04A8091640490916504892B09F445C029
:1014E0008091620490916304843F21E09207E8F1C7
:1014F00021E0209317042091FC053091FD05215037
:10150000310922303105F8F420917D0365E0211185
:1015100001C066E00E94457A60914108062E000CE9
:10152000770B80916204909163040E94947A61E049
:1015300080916204909163040E946C7A0E94E87A20
:1015400081E08093630640E25EE460E070E085E461
:1015500098E00E94A58E609162047091630488E80F
:101560000E94BA4A8BE80C94E04A0895CF93DF9327
:10157000C0916204D09163042197C43F81E0D807F1
:1015800030F4C0916404D0916504CD50DE4F809159
:101590001704882351F00E94410AD0936304C0933A
:1015A0006204DF91CF910C94690AD0936304C093D5
:1015B000620489E8DF91CF910C94E04ACF93DF93E6
:1015C000C0916204D091630421968091640490914B
:1015D00065048D509E4F8C179D0710F4C4EFD1E029
:1015E00080911704882351F00E94410AD09363042C
:1015F000C0936204DF91CF910C94690AD093630485
:10160000C093620489E8DF91CF910C94E04A209165
:10161000FC053091FD05215031092230310518F4C7
:1016200064E00C94457A0895CF92DF92EF92FF9296
:101630000F931F93CF93DF936C01F62E8091FC05DF
:101640009091FD058230910549F54B301CF14AE03F
:10165000C42F440FDD0B222361F16AEB7FEFC6013B
:101660000E94947A6E2DC6010E946C7AA801BE0178
:10167000C6010E94BB7A65E0F11001C066E0C601B8
:10168000DF91CF911F910F91FF90EF90DF90CF905E
:101690000C94457A4A3BE4F64AEBDACF0197C1F263
:1016A000DF91CF911F910F91FF90EF90DF90CF903E
:1016B0000895BE01C6010E94947A6E2DC6010E9453
:1016C0006C7AD9CFEF920F931F93CF93C82F81E0FD
:1016D00090E090935F0480935E0410926E041092E9
:1016E0006D040E94C807811121C080910406909169
:1016F00005060297029770F440E050E0BA0186E2D6
:1017000097E10E94A58E40E050E0BA0184E19EE09E
:101710000E94A58E0E94765089E00E94044985E7C8
:10172000CF911F910F91EF900C94E04AC11106C028
:101730008AE00E94044986E70E94E04A8BE490E038
:101740000E94070B8EE790E00E94070B8FE790E066
:101750000E94070B8CE591E00E94070B80E991E065
:101760000E94070B80910406909105068330910535
:10177000D9F18530910509F4B1C0029709F049C04B
:10178000EE24E39410E000E020E04091420860E0A5
:101790008BE791E00E94140B08ED1EE021E04091E0
:1017A000420861E08CE791E00E94140B80917A047A
:1017B00090917B048230910509F4F4C08330910547
:1017C00009F4FAC0019759F4EE24E39404E813E015
:1017D00021E040E061E082E390E00E94140BCF91B1
:1017E0001F910F91EF900895EE24E39410E000E034
:1017F00020E04091420860E085E290E00E94140BF6
:1018000008EB1BE021E04091420861E086E290E0B5
:10181000CBCF80917A0490917B0440914208CC23F5
:1018200089F10197F9F44E51EE24E39410E000E0C1
:1018300020E060E08FE090E00E94140B40914208AD
:10184000485200E516E421E061E080E190E00E946A
:10185000140B40E556E460E070E085EA98E00E94F1
:10186000A58EA4CFEE24E39410E000E020E060E039
:101870008FE090E00E94140B00E516E421E0409117
:101880004208E2CF0197D1F44E51EE24E39410E0E8
:1018900000E020E060E081E090E00E94140B4091C5
:1018A0004208485204EF11E021E061E080E190E05D
:1018B0000E94140B40E050E0BA01CFCFEE24E39435
:1018C00010E000E020E060E081E090E00E94140B76
:1018D00004EF11E021E040914208E7CF4091420837
:1018E00080917A0490917B04019709F04BC04E518E
:1018F000EE24E39410E000E020E060E081E090E07E
:101900000E94140B40914208485204EF11E021E07C
:1019100061E080E190E00E94140B809104069091B8
:101920000506059739F68091120281110BC080914E
:101930007A0490917B04009711F0069719F481E0E6
:101940008093C6038091C603882361F0EE24E3945C
:1019500000ED17E021E04091420861E08EE491E063
:101960000E94140B8091C903882309F4A3CFEE24AD
:10197000E39410E000E020E04091420860E082E65D
:1019800091E096CFEE24E39410E000E020E060E0E8
:1019900081E090E00E94140B04EF11E021E04091FF
:1019A0004208B6CFEE24E39404E813E021E040E0DF
:1019B00061E087E390E011CFEE24E39404E813E0C4
:1019C00021E040E061E087E491E007CFEF920F93E0
:1019D0001F93809144088A3B21F180913D0285301C
:1019E000F0F510923D0280913D022CE3829FC001F0
:1019F000112464E670E00E9445A484EC860F809375
:101A00004408809340082091FC053091FD05215049
:101A100031092230310528F4082E000C990B0E9460
:101A2000207A80911504811114C08091CB0381111B
:101A300010C080E490E00E94070BEE24E39410E0D5
:101A400000E020E04091440860E080E490E00E94E3
:101A5000140B88E41F910F91EF900C942A49855044
:101A600080933D02C0CFEF920F931F9380913D0270
:101A70008036F0F184E680933D0280913D022CE3B4
:101A8000829FC001112464E670E00E9445A46C535B
:101A9000609344086093400880911504811114C03C
:101AA0008091CB03811110C080E490E00E94070B6D
:101AB000EE24E39410E000E020E04091440860E070
:101AC00080E490E00E94140B8091FC059091FD054C
:101AD0000197029738F480914408082E000C990B66
:101AE0000E94207A88E41F910F91EF900C942A496C
:101AF0008B5FC1CFEF920F931F9380913B02853094
:101B000038F510923B0280E490E00E94070B409170
:101B1000440880911502481BEE24E39410E000E095
:101B200020E060E080E490E00E94140B80913B0292
:101B30002CE3829FC001112464E670E00E9445A45A
:101B40006C53609341081F910F91EF900C947005B6
:101B5000855080933B02EACFEF920F931F938091C1
:101B60003B02803640F184E680933B0280E490E0C3
:101B70000E94070B4091440880911502481BEE24F7
:101B8000E39410E000E020E060E080E490E00E9458
:101B9000140B80913B022CE3829FC001112464E668
:101BA00070E00E9445A46C53609341081F910F910F
:101BB000EF900C9470058B5F80933B02EACFEF921D
:101BC0000F931F9380913C02853038F510923C02B0
:101BD00080E490E00E94070B409144088091150238
:101BE000481BEE24E39410E000E020E060E080E495
:101BF00090E00E94140B80913C022CE3829FC00174
:101C0000112464E670E00E9445A46C53609342087E
:101C10001F910F91EF900C948B05855080933C029F
:101C2000EACFEF920F931F9380913C02803628F108
:101C300084E680933C0280E490E00E94070BEE244F
:101C4000E39410E000E020E04091420860E080E48E
:101C500090E00E94140B80913C022CE3829FC00113
:101C6000112464E670E00E9445A46C53609342081E
:101C70001F910F91EF900C948B058B5F80933C022A
:101C8000EACF0F931F93CF93DF9300D000D0CDB74F
:101C9000DEB7122F202F0E94AD7C69837A838B835D
:101CA000BE016C5F7F4FCE0101960E946D8D6D81EC
:101CB0007C81111102C06C817D818E8126960FB6C8
:101CC000F894DEBF0FBECDBFDF91CF911F910F9172
:101CD00008952F923F924F925F926F927F928F92D0
:101CE0009F92AF92BF92CF92DF92EF92FF920F93AB
:101CF0001F93CF93DF93CDB7DEB760970FB6F894FD
:101D0000DEBF0FBECDBF8091FC059091FD05019710
:101D1000029710F40E94E87A89E198E00E94758E9B
:101D2000882309F447C180916104882309F442C1E2
:101D300081E090E00E94B47FBC01990F880B990B61
:101D40000E942E9F20E030E543EC57E40E9446A11C
:101D50006093E7077093E8078093E9079093EA0799
:101D600084E090E00E94B47FBC01990F880B990B2E
:101D70000E942E9F9B01AC01609128087091290858
:101D800080912A0890912B080E948D9F6093EB0709
:101D90007093EC078093ED079093EE0782E090E05C
:101DA0000E94B47FBC0181708093350861FB882755
:101DB00080F980933408E3E076956795EA95E1F73A
:101DC00090E080E00E942C9F2FE632E143E85BE345
:101DD0000E948D9F6093EF077093F0078093F10747
:101DE0009093F20783E090E00E94B47FBC01990FCA
:101DF000880B990B0E942E9F9B01AC0160912C08CF
:101E000070912D0880912E0890912F080E948D9F2F
:101E10006093F7077093F8078093F9079093FA0798
:101E20002091E7073091E8074091E9075091EA07D0
:101E30006091EF077091F0078091F1079091F207A0
:101E40000E94D5A06093F3077093F4078093F50781
:101E50009093F6072091EB073091EC074091ED0746
:101E60005091EE070E948D9F6B017C01C092FF078D
:101E7000D0920008E0920108F09202082DEC3CECB0
:101E80004CE45FE3609103087091040880910508B9
:101E9000909106080E948D9F4B015C012DEC3CEC5B
:101EA0004CE45EE3C701B6010E948D9F9B01AC012B
:101EB000C501B4010E94D5A0609303087093040883
:101EC00080930508909306080E9422836B017C0191
:101ED0008091110890911208A0911308B0911408F4
:101EE000A7019601281B390B4A0B5B0BCA01B901EC
:101EF000609315087093160880931708909318083C
:101F00000E942C9F2091EB073091EC074091ED0748
:101F10005091EE070E948D9F20E03AEB4BE55AE48A
:101F20000E9446A12091FB073091FC074091FD07DC
:101F30005091FE070E94D5A06093FB077093FC07A9
:101F40008093FD079093FE07C0921108D09212086B
:101F5000E0921308F09214086091320870913308EF
:101F600085E090E00E94187E609130087091310801
:101F700090E080E00E94187E80915A0490E00196E3
:101F800064E170E00E9445A480935A048091190492
:101F900081118BC080919503811187C00E94048FAD
:101FA00040910B0850910C0870E060E089E198E0E6
:101FB0000E94A58E8DED97E00E94758E882309F40E
:101FC00043C08EE580937C0080917A00806480938A
:101FD0007A0080917A0086FDFCCF209178003091C4
:101FE000790050E040E065EA77E681E190E00E9408
:101FF00093A0CA01B9016B5F7F4F8F4F9F4F2AE0BB
:1020000030E040E050E00E9493A0CA01B9010E9474
:102010002E9F6093B3077093B4078093B507909396
:10202000B60720911A04222329F00E94BFA18DE84F
:102030000E94BA4A4091CF075091D00770E060E00B
:102040008DED97E00E94A58E83EC98E00E94478971
:10205000882319F11091D10A1123F9F080912B0DE9
:10206000882391F080911904882311F40C9455422F
:102070004091230D5091240D6091250D7091260DF6
:1020800083E29DE00E94A58E123011F40C9463311E
:10209000F0F5113011F40C945D42809119048823FD
:1020A00011F40C948A420C94813110920D08109214
:1020B0000E0810920F081092100810920708109244
:1020C00008081092090810920A0880915D0488237C
:1020D00009F466CF80915E0490915F04892B09F426
:1020E0005FCF1092600410925D0481E090E09093C5
:1020F0006E0480936D0488E70E94E04A8CE10E94A0
:10210000E04A70E060E08EE80E94BA4A49CF14309D
:1021100011F40C94AF31153009F0BFCF8091190440
:10212000882311F40C948A42A1ECB9E0ECECF3E0C2
:102130008D91819333E0E13EF307D1F786E90E9468
:102140002A49ABCF109219041092950310922B0DCF
:1021500010922C0D0E94294C0E94DF7D81E080931B
:1021600095038CE891E00E94070BEE24E39410E0C5
:1021700000E020E04091420860E08CE891E00E949D
:10218000140B83E00E9404498091C80381110E94CE
:10219000DD638091CA03882351F080911504811179
:1021A00006C08091CB03811102C00E949C5D80918A
:1021B0007C0490917D04019709F070C082E08093C7
:1021C00066032091A40D3091A50D232B09F064C066
:1021D0008093670380911202882309F463C082E030
:1021E00080936803809104069091050683309105E1
:1021F00009F45AC08530910509F45AC0029709F0D4
:1022000055C081E08093690380917D03882309F4A0
:1022100051C082E08093710380913402882309F4D5
:102220004BC082E080936D0380915E0490915F04C7
:10223000892B09F443C082E080936A0380911402E1
:1022400080936B0380917A0490917B048330910595
:1022500009F48EC0A8F581309105E1F1029709F4E7
:1022600085C081E080936C0310927B0410927A0405
:102270008091240281110E941A9380912502882363
:1022800061F180911504882341F181E080939003EE
:1022900080E00E94DF5C21C081E09ACF81E08093E2
:1022A000660396CF81E09CCF82E0ACCF83E0AACFDB
:1022B00084E0A8CF81E0AECF81E0B4CF81E0BCCF95
:1022C0008530910509F458C008F454C0069749F6C2
:1022D00087E001C082E080936C030E947C5F809164
:1022E0001504811102C01092070280913D02809373
:1022F0006E0380913C0280936F03809144088A3B77
:10230000E9F582E08093700384E0809310048FE607
:1023100080930F04E1E1F4E083E0DF011D928A95F0
:10232000E9F7E6E6F3E0A3ECB8E081918D9323E0D2
:10233000E237F207D1F78CE090E09A83898346E098
:10234000BE016F5F7F4F83EC98E00E94CC89809143
:102350001804882339F00E94C807811103C089E05E
:102360000E94044985E00E94044997CE83E0B3CFE0
:1023700084E0B1CF85E0AFCF86E0ADCF81E0C2CFC2
:102380001092950381E08093190440E45FE160E0DE
:1023900070E083E29DE00E94A58E8FE80E94E04AF3
:1023A0007CCE81E08093600480915E0490915F0414
:1023B000019731F080E00E94620B87E70E94E04ABB
:1023C00086E00E94E04A69CE1092600480915E042B
:1023D00090915F04892B49F081E090E090936E0426
:1023E00080936D0488E70E94E04A87E00E94E04AFB
:1023F00085E10E94E04A51CE81E0809313028FE78D
:102400000E94E04A4ACE1092130280E80E94E04AFD
:1024100044CE84E091E00E94070B85E091E00E94A9
:10242000070BEE24E39410E000E020E04091420826
:1024300060E084E091E00E94140B2FCE85E091E0F3
:102440000E94070B84E091E00E94070BEE24E394C6
:1024500010E000E020E04091420860E085E091E07B
:102460000E94140B1ACE87E391E00E94070B88E3C9
:1024700091E00E94070BEE24E39410E000E020E0DE
:102480004091420860E088E391E00E94140B05CE81
:1024900087E391E00E94070B88E391E00E94070B1D
:1024A000EE24E39410E000E020E04091420860E078
:1024B00087E391E00E94140BF0CD80912A028823DB
:1024C000E1F088E990E00E94070B87E990E00E9424
:1024D000070BEE24E39410E000E020E04091420876
:1024E00060E088E990E00E94140B10922A0286E4D2
:1024F0000E9404490E94F64AD0CD88E990E00E94EB
:10250000070B87E990E00E94070BEE24E39410E0AC
:1025100000E020E04091420860E087E990E00E94FE
:10252000140B81E080932A0287E4E2CF85E990E0F2
:102530000E94070BEE24E39410E000E020E04091BD
:10254000420860E085E990E00E94140BA6CD86E980
:1025500090E00E94070BEE24E39410E000E020E0FE
:102560004091420860E086E990E00E94140B95CD0E
:102570008091C803811191CD40914208809115024C
:10258000481BEE24E39410E000E020E060E086E1E8
:1025900090E00E94140B81CD8091C80381117DCD04
:1025A000809114028330D9F1A8F4813041F1823056
:1025B00009F073CD4091420880911502481BEE242A
:1025C000E39410E000E020E061E083E190E00E940D
:1025D000140B63CD843099F1853009F05ECD4091C4
:1025E000420880911502481BEE24E39410E000E0BD
:1025F00020E061E086E190E00E94140B4ECD409116
:10260000420880911502481BEE24E39410E000E09C
:1026100020E061E082E190E00E94140B3ECD409109
:10262000420880911502481BEE24E39410E000E07C
:1026300020E061E084E190E00E94140B2ECD4091F7
:10264000420880911502481BEE24E39410E000E05C
:1026500020E061E085E190E00E94140B1ECD0E9415
:10266000DF7D1BCD66E082E190E00E94457A66E066
:1026700083E190E00E94457A66E084E190E00E9468
:10268000457A66E085E190E00E94457A66E086E161
:1026900090E00E94457A01CD80E490E00E94070B13
:1026A000EE24E39410E000E020E04091420860E076
:1026B00080E490E00E94140BF0CC8BEF90E00E943D
:1026C000070BEE24E39410E000E020E04091420884
:1026D00060E08BEF90E00E94140BDFCC8BEF90E07A
:1026E0000E94070BDACC8CEF90E00E94070BD5CC50
:1026F0008CEF90E00E94070BEE24E39410E000E0E2
:1027000020E04091420860E08CEF90E00E94140BC2
:10271000C4CCE12C10E000E020E04091420860E0F1
:1027200084E490E00E94140BB8CCE12C10E000E0AF
:1027300020E04091420860E083E490E00E94140BA6
:1027400020E04091420860E08FE390E00E94140B8B
:10275000A4CC81E190E00E94070BEE24E39410E00A
:1027600000E020E04091420860E081E190E00E94BA
:10277000140B93CC8EE591E00E94070BEE24E394BA
:1027800010E000E020E04091420860E08EE591E03A
:102790000E94140B82CC8CE491E00E94070B89E428
:1027A00091E00E94070BEE24E39410E000E020E0AB
:1027B0004091420860E089E491E00E94140B6DCCE6
:1027C0008CE491E00E94070BEE24E39410E000E01B
:1027D00020E04091420860E08CE491E00E94140BFC
:1027E0005CCC8CE491E00E94070B8DE491E00E94A8
:1027F000070BEE24E39410E000E020E04091420853
:1028000060E08DE491E00E94140B47CC8DE891E0EC
:102810000E94070BEE24E39410E000E020E04091DA
:10282000420860E08DE891E00E94140B36CC81EB09
:1028300090E00E94070BEE24E39410E000E020E01B
:102840004091420860E081EB90E00E94140B25CC9F
:102850008EE890E00E94070B20CC80E990E00E9477
:10286000070B1BCC8DE890E00E94070B40914208BB
:102870004451EE24E39410E000E020E060E08DE8B5
:1028800090E00E94140B09CC8FE890E00E94070BA7
:10289000409142084451EE24E39410E000E020E02F
:1028A00060E08FE890E00E94140BF7CB83E990E0A2
:1028B0000E94070B409142084451EE24E39410E03B
:1028C00000E020E060E083E990E00E94140BE5CB9B
:1028D0008EE890E00E94070B409142084451EE249C
:1028E000E39410E000E020E061E08EE890E00E94D8
:1028F000140BD3CB80E990E00E94070B4091420873
:102900004451EE24E39410E000E020E061E080E92F
:1029100090E00E94140BC1CB82E990E00E94070B6B
:10292000409142084451EE24E39410E000E020E09E
:1029300060E082E990E00E94140BAFCB84E990E064
:102940000E94070B409142084451EE24E39410E0AA
:1029500000E020E060E084E990E00E94140B9DCB51
:1029600081E990E00E94070B409142084451EE2417
:10297000E39410E000E020E060E081E990E00E9454
:10298000140B8BCB0E94294C88CBE12C10E000E08B
:1029900020E04091420860E085E791E00E94140B3E
:1029A00080911702882309F478CB80913402882320
:1029B00009F473CB4EE551E060E070E08EE69DE0F7
:1029C0000E94A58E6ACBE12C10E000E020E040914F
:1029D000420860E08AE591E00E94140B80911702A2
:1029E000882309F45ACB80913402882309F455CB0B
:1029F0004CE251E060E070E08EE69DE00E94A58E22
:102A00004CCBE12C10E000E020E04091420860E077
:102A100089E591E00E94140B40CBE12C10E000E02E
:102A200020E04091420860E08BE591E00E94140BA9
:102A300080911702882309F430CB809134028823D7
:102A400009F42BCB48EC50E060E070E08EE69DE0AE
:102A50000E94A58E22CBE12C10E000E020E0409106
:102A6000420860E086E491E00E94140B16CB0E94BD
:102A70005A4C13CB80915C04882309F40ECB0E943E
:102A8000CE4E0E94E94B09CB80917A0490917B0451
:102A90008130910509F489C0029709F489C08091B9
:102AA0000406909105068330910509F45DC08530D8
:102AB000910509F477C0029709F061C08091140272
:102AC000853009F44EC08AE090E00E94070B87E44D
:102AD00090E00E94070B80E891E00E94070B89E4D8
:102AE00090E00E94070B8AE490E00E94070B81E0CF
:102AF0008093C9030E94194C8091040690910506A9
:102B0000059709F0CACA8091C603882321F08EE494
:102B100091E00E94070B8FE090E00E94070B80E19C
:102B200090E00E94070BEE24E39410E000E020E028
:102B30004091420860E08FE891E00E94140B04ECA1
:102B400019E021E04091420861E087E390E00E94B3
:102B5000140BA60170E060E089E19DE00E94A58E63
:102B60009CCA88E891E0B9CF8BE090E00E94070B07
:102B700087E490E00E94070B8AE090E0AECF81E806
:102B800091E00E94070B82E891E00E94070B83E826
:102B900091E00E94070B8FE690E00E94070B8EE603
:102BA00090E0A3CF84E891E0F4CF85E390E09DCF5F
:102BB0008BE390E09ACF80910406909105060597EB
:102BC00009F46BCA0E94194CEE24E39404EC19E05A
:102BD00021E04091420861E08BE691E00E94140BF5
:102BE0005CCA0E94194C59CA0E94194C8091150464
:102BF000882309F452CA40914208809104069091BA
:102C00000506EE24E39410E000E020E060E0059784
:102C1000A1F582E691E00E94140B00ED17E021E09F
:102C20004091420861E080E190E00E94140B8091A5
:102C3000C603882341F021E04091420861E08EE420
:102C400091E00E94140B1092210D1092220D40E091
:102C500050E0BA0188E597E10E94A58E40E050E07F
:102C6000BA0186E297E10E94A58E40E050E0BA01E9
:102C700082E59EE00E94A58E10CA8CE691E00E943B
:102C8000140B0BCA8091FC059091FD05019749F446
:102C900080917A0490917B04039719F481E00E945B
:102CA0005D9E0E944E578823D9F00E940A540E94CC
:102CB000D85380910406909105060497029780F4FA
:102CC00044E650E0609142088FE090E00E94C47DAD
:102CD00044E650E06091420880E190E00E94C47DAB
:102CE00080915E0490915F040197F1F480917A04E1
:102CF00090917B04892BC1F082E390E00E94070B46
:102D000087E390E00E94070B87E491E00E94070BA5
:102D1000EE24E39410E000E020E04091420860E0FF
:102D200086E090E00E94140B10927B0410927A04CB
:102D3000EE24E39410E000E020E04091420860E0DF
:102D400088E290E00E94140B8091240281110E947D
:102D50001A9380912502882351F0809115048823CD
:102D600031F081E08093900380E00E94DF5C0E945C
:102D70007C5F8AE00E94E04A90C98091FC059091B6
:102D8000FD05019749F480917A0490917B040397A3
:102D900019F481E00E945D9E80915E0490915F0431
:102DA000019709F040C080917A0490917B040197CB
:102DB000D1F182E390E00E94070B87E390E00E944C
:102DC000070B87E491E00E94070BEE24E39410E0E8
:102DD00000E020E04091420860E080E390E00E9443
:102DE000140B04E813E021E040E061E082E390E0AE
:102DF0000E94140B80910406909105060497029797
:102E000090F4609142086E5144E650E08FE090E00B
:102E10000E94C47D60914208685244E650E080E11F
:102E200090E00E94C47D81E090E090937B048093C9
:102E30007A04EE24E39410E000E020E040914208A0
:102E400060E088E290E00E94140B809124028823C5
:102E500031F00E940A540E94D8530E941A93809124
:102E60002502882351F080911504882331F081E0F8
:102E70008093900380E00E94DF5C0E947C5F8BE087
:102E80000E94E04A0AC98091FC059091FD050197D6
:102E900049F480917A0490917B04039719F481E0BE
:102EA0000E945D9E0E944E578823D9F00E940A54CA
:102EB0000E94D853809104069091050604970297CA
:102EC00080F444E650E0609142088FE090E00E9478
:102ED000C47D44E650E06091420880E190E00E94A9
:102EE000C47D80915E0490915F04019739F58091D3
:102EF0007A0490917B04029709F182E390E00E94AA
:102F0000070B87E390E00E94070B87E491E00E94A3
:102F1000070BEE24E39410E000E020E0409142082B
:102F200060E085E490E00E94140B04E813E021E0E7
:102F300040E061E087E390E00E94140B82E090E0C3
:102F400090937B0480937A04EE24E39410E000E0F5
:102F500020E04091420860E088E290E00E94140B7B
:102F60008091240281110E941A9380912502882366
:102F700051F080911504882331F081E08093900313
:102F800080E00E94DF5C0E947C5F8CE00E94E04A4F
:102F900084C80E944E578823D9F00E940A540E9488
:102FA000D85380910406909105060497029780F407
:102FB00044E650E0609142088FE090E00E94C47DBA
:102FC00044E650E06091420880E190E00E94C47DB8
:102FD00080915E0490915F04019739F580917A04A5
:102FE00090917B04039709F182E390E00E94070B24
:102FF00087E390E00E94070B87E491E00E94070BB3
:10300000EE24E39410E000E020E04091420860E00C
:1030100086E490E00E94140B04E813E021E040E015
:1030200061E087E491E00E94140B83E090E09093CC
:103030007B0480937A04EE24E39410E000E020E027
:103040004091420860E088E290E00E94140B809179
:10305000FC059091FD05019719F480E00E945D9EAA
:103060008091240281110E941A9380912502882365
:1030700051F080911504882331F081E08093900312
:1030800080E00E94DF5C0E947C5F8DE00E94E04A4D
:103090000C944D108091FC059091FD05019749F429
:1030A00080917A0490917B04039719F481E00E9447
:1030B0005D9E0E944E578823D9F00E940A540E94B8
:1030C000D85380910406909105060497029780F4E6
:1030D00044E650E0609142088FE090E00E94C47D99
:1030E00044E650E06091420880E190E00E94C47D97
:1030F00080915E0490915F040197F1F480917A04CD
:1031000090917B040497C1F082E390E00E94070B4A
:1031100087E390E00E94070B87E491E00E94070B91
:10312000EE24E39410E000E020E04091420860E0EB
:1031300086E090E00E94140B84E090E090937B0482
:1031400080937A04EE24E39410E000E020E04091C4
:10315000420860E088E290E00E94140B8091240213
:1031600081110E941A9380912502882351F0809149
:103170001504882331F081E08093900380E00E9461
:10318000DF5C0E947C5F8EE00E94E04A0C944D1050
:103190008091FC059091FD05019749F480917A0496
:1031A00090917B04039719F481E00E945D9E0E9438
:1031B0004E578823D9F00E940A540E94D853809118
:1031C0000406909105060497029780F444E650E0C7
:1031D000609142088FE090E00E94C47D44E650E098
:1031E0006091420880E190E00E94C47D80915E047D
:1031F00090915F040197F1F480917A0490917B049F
:103200000597C1F082E390E00E94070B87E390E00E
:103210000E94070B87E491E00E94070BEE24E394E1
:1032200010E000E020E04091420860E086E090E09D
:103230000E94140B85E090E090937B0480937A04C5
:10324000EE24E39410E000E020E04091420860E0CA
:1032500088E290E00E94140B8091240281110E9468
:103260001A9380912502882351F0809115048823B8
:1032700031F081E08093900380E00E94DF5C0E9447
:103280007C5F8FE00E94E04A0C944D108091FC0519
:103290009091FD05019749F480917A0490917B0407
:1032A000039719F481E00E945D9E0E944E57882387
:1032B000D9F00E940A540E94D8538091040690913C
:1032C00005060497029780F444E650E060914208B6
:1032D0008FE090E00E94C47D44E650E06091420897
:1032E00080E190E00E94C47D80915E0490915F0433
:1032F0000197F1F480917A0490917B040697C1F0D4
:1033000082E390E00E94070B87E390E00E94070BA6
:1033100087E491E00E94070BEE24E39410E000E0C4
:1033200020E04091420860E086E090E00E94140BAB
:1033300086E090E090937B0480937A04EE24E394FB
:1033400010E000E020E04091420860E088E290E078
:103350000E94140B8091240281110E941A93809183
:103360002502882351F080911504882331F081E0F3
:103370008093900380E00E94DF5C0E947C5F80E18C
:103380000E942A490C944D10EE24E39410E000E0D2
:1033900020E04091420860E088E290E00E94140B37
:1033A00081E10E94E04A0C944D108091700490914C
:1033B00071048130910561F148F0029709F448C029
:1033C0000E94084B0E94154B0C944D1081E090E038
:1033D000909371048093700481E991E00E94070B3F
:1033E00082E991E00E94070B88E791E00E94070BB9
:1033F000EE24E39410E000E020E04091420860E019
:1034000081E991E00E94140B8DE60E940449D8CF17
:1034100082E090E0909371048093700481E991E0E0
:103420000E94070B82E991E00E94070B88E791E078
:103430000E94070BEE24E39410E000E020E04091AE
:10344000420860E082E991E00E94140B8EE6DDCF35
:10345000109271041092700481E991E00E94070BB0
:1034600082E991E00E94070B88E791E00E94070B38
:10347000EE24E39410E000E020E04091420860E098
:1034800088E791E00E94140B8CE6BFCF0E943F5466
:103490000C944D1083E591E00E94070B82E390E0CD
:1034A0000E94070B88E591E00E94070BEE24E3944D
:1034B00010E000E020E04091420860E087E591E004
:1034C0000E94140B80917A0490917B040197C9F4B7
:1034D00020E04091420860E083E591E00E94140BF7
:1034E00081E08093C70340E050E0BA0184E69DE0AC
:1034F0000E94A58E0E94E94B82E10E94E04A0C9452
:103500004D101092350D1092360D10923F0D109205
:10351000400D42E350E060E070E08DE29DE00E94EB
:10352000A58EDECF0E94DD6385E10E94E04A0C9407
:103530004D100E94E94B89E10E94E04A0C944D1025
:1035400020910F0290910E0280910D02409104068D
:10355000509105064250510942305105A0F02930E2
:1035600018F42F5F20930F02993018F49F5F909307
:103570000E02863018F48F5F80930D028AE10E945C
:10358000E04A0C944D102F5F20930F029F5F9093A1
:103590000E02F1CF409142088091040690910506F9
:1035A0000497EE24E39410E000E020E061E002974D
:1035B00030F48AE691E00E94140B0C944D108CE3D9
:1035C00090E00E94140B0C944D1081E08093140243
:1035D00080915C04882319F18091620D882351F059
:1035E000ECE3F8E045915591659174918AE59DE091
:1035F0000E94A58E8091040690910506049702977B
:1036000070F46091140270E088E99AE30E9431A49A
:10361000AB0170E060E08CE497E10E94A58E8CE144
:103620000E94E04A0C944D1082E080931402809135
:103630005C04882319F18091620D882351F0E0E445
:10364000F8E045915591659174918AE59DE00E945D
:10365000A58E80910406909105060497029770F458
:103660006091140270E088E99AE30E9431A4AB01F2
:1036700070E060E08CE497E10E94A58E8DE10E94ED
:10368000E04A0C944D1083E08093140280915C0416
:10369000882319F18091620D882351F0E4E4F8E069
:1036A00045915591659174918AE59DE00E94A58EA2
:1036B00080910406909105060497029770F460913A
:1036C000140270E088E99AE30E9431A4AB0170E033
:1036D00060E08CE497E10E94A58E8EE10E94E04AB2
:1036E0000C944D1084E08093140280915C04882334
:1036F00019F18091620D882351F0E8E4F8E04591DA
:103700005591659174918AE59DE00E94A58E809106
:103710000406909105060497029770F460911402D4
:1037200070E088E99AE30E9431A4AB0170E060E0A8
:103730008CE497E10E94A58E8FE10E94E04A0C94F0
:103740004D1085E08093140280915C04882319F168
:103750008091620D882351F0ECE4F8E04591559199
:10376000659174918AE59DE00E94A58E8091040682
:10377000909105060497029770F46091140270E02E
:1037800088E99AE30E9431A4AB0170E060E08CE428
:1037900097E10E94A58E80E20E94E04A0C944D10B1
:1037A00081E00E94C2920C944D1082E00E94C2926D
:1037B0000C944D1083E00E94C2920C944D1084E052
:1037C0000E94C2920C944D1085E00E94C2920C940B
:1037D0004D1081E00E946A920C944D1082E00E948C
:1037E0006A920C944D1083E00E946A920C944D10E2
:1037F00084E00E946A920C944D1085E00E946A92C7
:103800000C944D1081E080935B0480915C048823CC
:1038100011F40C944D108091C50381110C944D103E
:1038200081E08093C5030C944D1081E080935B048C
:1038300080915C04882311F40C944D108091C50391
:1038400081110C944D104091420880910406909192
:103850000506E12C10E000E020E061E0029729F489
:1038600089E891E00E94140BDBCF82E690E0FACF6A
:1038700010925B041092C5030C944D1080915B0470
:10388000882351F08091040690910506029751F427
:1038900089E891E00E94070B10925B041092C50327
:1038A0000C944D1082E690E0F5CF81E08093C30345
:1038B00090915C04992311F40C944D109091C403E1
:1038C00091110C944D108093C4030C944D1081E021
:1038D0008093C30390915C04992311F40C944D10D0
:1038E0009091C40391110C944D108093C403809166
:1038F00014028530D9F08091040690910506039753
:1039000011F583E690E00E94070B409142088091F8
:10391000040690910506E12C10E000E020E061E053
:103920000297A1F489E891E00E94140BE12C10E0C9
:1039300000E020E04091420861E088E490E00E94CD
:10394000140B0C944D108EE791E0DDCF82E690E0F1
:10395000EBCF8091C303882319F188E490E00E94A3
:10396000070B809114028530D9F080910406909164
:1039700005060297D9F489E891E00E94070B40916F
:1039800042088091040690910506E12C10E000E0C9
:1039900020E061E0039769F483E690E00E94140B55
:1039A0001092C3031092C4030C944D1082E690E071
:1039B000E4CF8FE791E0F2CF10927904109278046F
:1039C0001092B7081092B8088091FC059091FD05FF
:1039D000019721F08AE490E00E94070BE12C10E0AF
:1039E00000E020E04091420860E08AE490E00E941C
:1039F000140B0C944D1081E090E090937904809327
:103A000078041092B7081092B8088091FC05909144
:103A1000FD05019721F08EE690E00E94070BE12C56
:103A200010E000E020E04091420860E08EE690E087
:103A30000E94140B0C944D1010927904109278048B
:103A40001092B7081092B8088091FC059091FD057E
:103A5000019741F089E490E00E94070B8AE490E02E
:103A60000E94070BE12C10E000E020E040914208AA
:103A700060E08AE490E00E94140B0C944D1081E009
:103A800090E090937904809378041092B708109294
:103A9000B8088091FC059091FD05019741F08FE6F3
:103AA00090E00E94070B8EE690E00E94070BE12C4D
:103AB00010E000E020E04091420860E08EE690E0F7
:103AC0000E94140B0C944D1082E090E090937904C6
:103AD000809378048091FC059091FD05019741F059
:103AE0008AE490E00E94070B89E490E00E94070BB3
:103AF000E12C10E000E020E04091420860E089E421
:103B000090E00E94140B0C944D1082E090E0909392
:103B10007904809378048091FC059091FD050197CC
:103B200041F08EE690E00E94070B8FE690E00E9445
:103B3000070BE12C10E000E020E04091420860E03B
:103B40008FE690E00E94140B0C944D1082E090E000
:103B5000909379048093780480912B028823C1F09C
:103B60000E94CF9E28E030E040E050E00E9493A009
:103B70009B01AC01295F3F4F4F4F5F4FA8EEB3E071
:103B80000E94B2A0AB01BC018FEA98E00E94A58E12
:103B90008091FC059091FD05019741F08AE490E049
:103BA0000E94070B89E490E00E94070BE12C10E0D3
:103BB00000E020E04091420860E089E490E00E944B
:103BC000140B0C944D1082E090E090937904809354
:103BD000780480912B028823C1F00E94CF9E28E0B8
:103BE00030E040E050E00E9493A09B01AC01295FCF
:103BF0003F4F4F4F5F4FA8EEB3E00E94B2A0AB0122
:103C0000BC018FEA98E00E94A58E8091FC059091FE
:103C1000FD05019741F08EE690E00E94070B8FE6CC
:103C200090E00E94070BE12C10E000E020E04091C2
:103C3000420860E08FE690E00E94140B0C944D1057
:103C400081E0809368040E949F910C944D1088E25B
:103C500090E00E94070BEE24E39410E000E020E0E7
:103C60004091420860E088E290E00E94140B88E5F1
:103C700090E00E94070B85E690E00E94070B89E523
:103C800090E00E94070B20E04091420860E089E547
:103C900090E00E94140B0C944D1088E290E00E947A
:103CA000070BEE24E39410E000E020E0409142088E
:103CB00060E088E290E00E94140B89E590E00E94A9
:103CC000070B85E690E00E94070B88E590E00E94D4
:103CD000070B20E04091420860E088E590E00E94F8
:103CE000140B0C944D1088E290E00E94070BEE2418
:103CF000E39410E000E020E04091420860E088E2B8
:103D000090E00E94140B89E590E00E94070B88E583
:103D100090E00E94070B85E690E00E94070B20E0F0
:103D20004091420860E085E690E00E94140B0C94FC
:103D30004D108AE990E00E94070B89E990E00E940B
:103D4000070BEE24E39410E000E020E040914208ED
:103D500060E089E990E00E94140B0C944D108AE910
:103D600090E00E94070B89E990E00E94070BEE2487
:103D7000E39410E000E020E04091420860E08AE92E
:103D800090E00E94140B0C944D1081E591E00E948C
:103D9000070B82E591E00E94070BEE24E39410E00C
:103DA00000E020E04091420860E081E591E00E945F
:103DB000140B0C944D1082E591E00E94070B81E5F5
:103DC00091E00E94070BEE24E39410E000E020E075
:103DD0004091420860E082E591E00E94140B0C944F
:103DE0004D1080E490E00E94070BEE24E39410E075
:103DF00000E020E04091420860E080E490E00E9412
:103E0000140B8CE690E00E94070B8AE690E00E947B
:103E1000070B8BE690E00E94070B8AE491E00E947A
:103E2000070B20E04091420860E08BE690E00E94A2
:103E3000140B0C944D1080E490E00E94070BEE24CC
:103E4000E39410E000E020E04091420860E080E46C
:103E500090E00E94140B8CE690E00E94070B8AE62B
:103E600090E00E94070B8BE690E00E94070B8AE42B
:103E700091E00E94070B20E04091420860E08AE652
:103E800090E00E94140B0C944D1080E490E00E948E
:103E9000070BEE24E39410E000E020E0409142089C
:103EA00060E080E490E00E94140B8CE690E00E94B9
:103EB000070B8AE690E00E94070B8BE690E00E94D9
:103EC000070B8AE491E00E94070B20E04091420832
:103ED00060E08CE690E00E94140B0C944D1080E49E
:103EE00090E00E94070BEE24E39410E000E020E055
:103EF0004091420860E080E490E00E94140B8CE660
:103F000090E00E94070B8AE690E00E94070B8BE688
:103F100090E00E94070B8AE491E00E94070B20E0EA
:103F20004091420860E08AE491E00E94140B809185
:103F3000D80D9091D90D892B29F48BE00E9404496A
:103F40000C944D108CE00E9404490C944D1080E4B8
:103F500090E00E94070BEE24E39410E000E020E0E4
:103F60004091420860E080E490E00E94140B809150
:103F70001602811126C081E08093160280933402DC
:103F800088E690E00E94070B86E690E00E94070B0F
:103F900087E690E00E94070B20E04091420860E035
:103FA00086E690E00E94140B86E10E9404494AEFE5
:103FB00050E060E070E08EE69DE00E94A58E0C94DB
:103FC0004D108091170281112AC081E08093170261
:103FD0008093340288E690E00E94070B86E690E02A
:103FE0000E94070B87E690E00E94070BEE24E39403
:103FF00010E000E020E04091420860E088E690E0B8
:104000000E94140B88E10E9404494AEF50E060E0EE
:1040100070E08EE69DE00E94A58E0C944D101092EB
:1040200017021092160288E690E00E94070B86E6BF
:1040300090E00E94070B87E690E00E94070BEE24B9
:10404000E39410E000E020E04091420860E087E661
:1040500090E00E94140B87E10E9404490C944D10DB
:1040600080E490E00E94070BEE24E39410E000E06F
:1040700020E04091420860E080E490E00E94140B50
:1040800080917404909175048230910509F46DC09B
:104090008330910509F494C0019789F181E090E0A3
:1040A0009093750480937404809316021092170203
:1040B0008093340288E690E00E94070B86E690E049
:1040C0000E94070B87E690E00E94070B8BE491E0CB
:1040D0000E94070B20E04091420860E086E690E0F5
:1040E0000E94140B86E10E9404494AEF50E060E010
:1040F00070E08EE69DE00E94A58E0C944D1082E04B
:1041000090E0909375048093740481E0809316028C
:10411000809317028093340288E690E00E94070B98
:1041200086E690E00E94070B87E690E00E94070B6E
:104130008BE491E00E94070BEE24E39410E000E092
:1041400020E04091420860E088E690E00E94140B75
:1041500088E10E9404494AEF50E060E070E08EE69A
:104160009DE00E94A58E0C944D1083E090E090930A
:10417000750480937404109216021092170288E658
:1041800090E00E94070B86E690E00E94070B87E60E
:1041900090E00E94070B8BE491E00E94070BEE2455
:1041A000E39410E000E020E04091420860E087E600
:1041B00090E00E94140B87E10E9404490C944D107A
:1041C00084E090E0909375048093740481E0809380
:1041D0001602809317022091D80D3091D90D232B10
:1041E00059F58093340288E690E00E94070B86E63A
:1041F00090E00E94070B87E690E00E94070B8BE49B
:1042000091E00E94070BEE24E39410E000E020E030
:104210004091420860E08BE491E00E94140B89E138
:104220000E9404494AEF50E060E070E08EE69DE0B5
:104230000E94A58E0C944D1010923402D4CF809120
:104240002802882339F1109228028CE290E00E9423
:10425000070B85E590E00E94070B84E590E00E9443
:10426000070BEE24E39410E000E020E040914208C8
:1042700060E08CE290E00E94140B20E04091420844
:1042800060E085E590E00E94140B82E20E94044900
:104290000C944D1081E0809328028DE390E00E9401
:1042A000070B84E590E00E94070B85E590E00E94F3
:1042B000070BEE24E39410E000E020E04091420878
:1042C00060E08DE390E00E94140B20E040914208F2
:1042D00060E084E590E00E94140B83E20E940449B0
:1042E0000C944D1080912902882339F110922902F3
:1042F00080E490E00E94070BEE24E39410E000E0DD
:1043000020E04091420860E080E490E00E94140BBD
:1043100086E590E00E94070B87E590E00E94070B7E
:1043200020E04091420860E087E590E00E94140B95
:1043300084E20E9404490C944D1081E0809329028C
:104340008FE390E00E94070BEE24E39410E000E07E
:1043500020E04091420860E08FE390E00E94140B5F
:1043600086E590E00E94070B87E590E00E94070B2E
:1043700020E04091420860E086E590E00E94140B46
:1043800085E20E9404490C944D10809122028823FA
:10439000D9F0109222028BE590E00E94070B8AE58B
:1043A00090E00E94070BEE24E39410E000E020E090
:1043B0004091420860E08BE590E00E94140B87E298
:1043C0000E9404490C944D1081E0809322028BE5F9
:1043D00090E00E94070B8AE590E00E94070BEE2414
:1043E000E39410E000E020E04091420860E08AE5BC
:1043F00090E00E94140B86E20E9404490C944D1038
:1044000080E790E00E94070B81E790E00E94070B95
:1044100082E790E00E94070B83E790E00E94070B81
:104420009091240280912502409142089923A9F09D
:104430008823D9F11092240210922502EE24E394ED
:1044400010E000E020E060E080E790E00E94140BC4
:104450008DE10E9404490C944D10811112C081E03D
:1044600080932502EE24E39410E000E020E060E079
:1044700082E790E00E94140B8BE10E9404490C94A7
:104480004D1081E08093240210922502EE24E394E3
:1044900010E000E020E060E083E790E00E94140B71
:1044A0008CE10E9404490C944D1081E08093250218
:1044B000EE24E39410E000E020E060E081E790E08B
:1044C0000E94140B8AE10E9404490C944D108DE562
:1044D00090E00E94070B8CE590E00E94070BEE2411
:1044E000E39410E000E020E04091420860E08DE5B8
:1044F00090E00E94140B0C944D108DE590E00E940A
:10450000070B8CE590E00E94070BEE24E39410E08B
:1045100000E020E04091420860E08CE590E00E94DD
:10452000140B0C944D108FE390E00E94070BEE24C7
:10453000E39410E000E020E04091420860E08FE367
:1045400090E00E94140B85EF90E00E94070B86EF2D
:1045500090E00E94070B87EF90E00E94070B88EF26
:1045600090E00E94070B89EF90E00E94070B20E08B
:104570004091420860E085EF90E00E94140B0C949B
:104580004D108FE390E00E94070BEE24E39410E0BF
:1045900000E020E04091420860E08FE390E00E945C
:1045A000140B85EF90E00E94070B86EF90E00E94CD
:1045B000070B87EF90E00E94070B88EF90E00E94C6
:1045C000070B89EF90E00E94070B20E04091420822
:1045D00060E086EF90E00E94140B0C944D108FE386
:1045E00090E00E94070BEE24E39410E000E020E04E
:1045F0004091420860E08FE390E00E94140B85EF49
:1046000090E00E94070B86EF90E00E94070B87EF77
:1046100090E00E94070B88EF90E00E94070B89EF63
:1046200090E00E94070B20E04091420860E087EF95
:1046300090E00E94140B0C944D108FE390E00E94C8
:10464000070BEE24E39410E000E020E040914208E4
:1046500060E08FE390E00E94140B85EF90E00E94F1
:10466000070B86EF90E00E94070B87EF90E00E9417
:10467000070B88EF90E00E94070B89EF90E00E9403
:10468000070B20E04091420860E088EF90E00E9434
:10469000140B0C944D108FE390E00E94070BEE2456
:1046A000E39410E000E020E04091420860E08FE3F6
:1046B00090E00E94140B85EF90E00E94070B86EFBC
:1046C00090E00E94070B87EF90E00E94070B88EFB5
:1046D00090E00E94070B89EF90E00E94070B20E01A
:1046E0004091420860E089EF90E00E94140B0C9426
:1046F0004D1080911704882311F40C944D100E94E2
:104700007A0D0C944D1080911704882311F40C94A9
:104710004D100E94AC0D0C944D100E94DF0D0C94B6
:104720004D100E94110E0C944D1020917D0380912C
:10473000FC059091FD050197029728F5809164048E
:1047400090916504211110C021E020937D03892BF5
:1047500011F40C944D1065E0809162049091630413
:104760000E94457A0C944D1010927D03892B11F410
:104770000C944D1066E080916204909163040E9455
:10478000457A0C944D10211105C081E080937D0382
:104790000C944D1010927D030C944D1080914408A0
:1047A000809340088AEB809344080E94320A0C945C
:1047B0004D1080914008809344080E94320A0C9466
:1047C0004D100E94E60C0C944D100E94330D0C9479
:1047D0004D1080911704882321F00E94410A0C9407
:1047E0004D100E94690A0C944D108CE291E00E94D9
:1047F000070B8DE291E00E94070B8EE291E00E9490
:10480000070B8FE291E00E94070B80E391E00E948A
:10481000070BEE24E39410E000E020E04091420812
:1048200060E08CE291E00E94140B0C944D108CE23D
:1048300091E00E94070B8DE291E00E94070B8EE24F
:1048400091E00E94070B8FE291E00E94070B80E34A
:1048500091E00E94070BEE24E39410E000E020E0DA
:104860004091420860E08DE291E00E94140B0C94AC
:104870004D10809143088A3B39F180913D0285308B
:1048800008F03FC010923D0280913D023CE3839FBF
:10489000C001112464E670E00E9445A484EC860FF8
:1048A0008093430880934008809344082091FC053E
:1048B0003091FD05215031092230310528F4082EB0
:1048C000000C990B0E94207A80911504811114C06C
:1048D0008091CB03811110C080E490E00E94070B0F
:1048E000EE24E39410E000E020E04091430860E013
:1048F00080E490E00E94140B84E10E9404490C942F
:104900004D10855080933D02BFCF80913D0280368F
:1049100008F441C084E680933D0280913D024CE35F
:10492000849FC001112464E670E00E9445A46C538A
:10493000609343086093400880911504811114C06E
:104940008091CB03811110C080E490E00E94070B9E
:10495000EE24E39410E000E020E04091430860E0A2
:1049600080E490E00E94140B8091430880934408F7
:104970002091FC053091FD0521503109223031058F
:1049800028F4082E000C990B0E94207A83E10E94E3
:1049900004490C944D108B5FBECF8CE291E00E94D5
:1049A000070B8DE291E00E94070B8EE291E00E94DE
:1049B000070B8FE291E00E94070B80E391E00E94D9
:1049C000070BEE24E39410E000E020E04091420861
:1049D00060E08EE291E00E94140B0C944D108CE28A
:1049E00091E00E94070B8DE291E00E94070B8EE29E
:1049F00091E00E94070B8FE291E00E94070B80E399
:104A000091E00E94070BEE24E39410E000E020E028
:104A10004091420860E08FE291E00E94140B0C94F8
:104A20004D108CE291E00E94070B8DE291E00E9414
:104A3000070B8EE291E00E94070B8FE291E00E944B
:104A4000070B80E391E00E94070BEE24E39410E053
:104A500000E020E04091420860E080E391E00E94A5
:104A6000140B0C944D1081E391E00E94070B82E33C
:104A700091E00E94070B83E391E00E94070B84E31F
:104A800091E00E94070B85E391E00E94070BEE2462
:104A9000E39410E000E020E04091420860E081E310
:104AA00091E00E94140B0C944D1081E391E00E9460
:104AB000070B82E391E00E94070B83E391E00E94E1
:104AC000070B84E391E00E94070B85E391E00E94CD
:104AD000070BEE24E39410E000E020E04091420850
:104AE00060E082E391E00E94140B0C944D1081E38E
:104AF00091E00E94070B82E391E00E94070B83E3A1
:104B000091E00E94070B84E391E00E94070B85E38C
:104B100091E00E94070BEE24E39410E000E020E017
:104B20004091420860E083E391E00E94140B0C94F2
:104B30004D1081E391E00E94070B82E391E00E9417
:104B4000070B83E391E00E94070B84E391E00E944E
:104B5000070B85E391E00E94070BEE24E39410E03D
:104B600000E020E04091420860E084E391E00E9490
:104B7000140B0C944D1081E391E00E94070B82E32B
:104B800091E00E94070B83E391E00E94070B84E30E
:104B900091E00E94070B85E391E00E94070BEE2451
:104BA000E39410E000E020E04091420860E085E3FB
:104BB00091E00E94140B0C944D1086E391E00E944A
:104BC000070BEE24E39410E000E020E0409142085F
:104BD00060E086E391E00E94140B0C944D108091EC
:104BE0002B028823D9F010922B028CE790E00E94D0
:104BF000070B8DE790E00E94070BEE24E39410E092
:104C000000E020E04091420860E08DE790E00E94E3
:104C1000140B80E30E9404490C944D1081E08093B2
:104C20002B028CE790E00E94070B8DE790E00E943A
:104C3000070BEE24E39410E000E020E040914208EE
:104C400060E08CE790E00E94140B8FE20E94044920
:104C50000C944D1081E191E00E94070B85E191E0F9
:104C60000E94070B83E191E00E94070B82E191E033
:104C70000E94070B84E191E00E94070BEE24E3946D
:104C800010E000E020E04091420860E081E191E026
:104C90000E94140B0C944D1082E191E00E94070BCE
:104CA00081E191E00E94070B85E191E00E94070BF2
:104CB00083E191E00E94070B84E191E00E94070BE1
:104CC000EE24E39410E000E020E04091420860E030
:104CD00082E191E00E94140B0C944D1083E191E06D
:104CE0000E94070B81E191E00E94070B82E191E0B5
:104CF0000E94070B84E191E00E94070B85E191E09F
:104D00000E94070BEE24E39410E000E020E04091C5
:104D1000420860E083E191E00E94140B0C944D1076
:104D200084E191E00E94070B85E191E00E94070B6E
:104D300083E191E00E94070B81E191E00E94070B63
:104D400082E191E00E94070BEE24E39410E000E082
:104D500020E04091420860E084E191E00E94140B61
:104D60000C944D1085E191E00E94070B83E191E0E6
:104D70000E94070B81E191E00E94070B82E191E024
:104D80000E94070B84E191E00E94070BEE24E3945C
:104D900010E000E020E04091420860E085E191E011
:104DA0000E94140B0C944D1080917C0490917D0412
:104DB000019719F510927D0410927C0486E191E030
:104DC0000E94070B87E191E00E94070BEE24E39419
:104DD00010E000E020E04091420860E086E191E0D0
:104DE0000E94140B85E60E94044980E50E94044954
:104DF00081E80E94E04A0C944D1081E090E090938D
:104E00007D0480937C0487E191E00E94070B86E19A
:104E100091E00E94070BEE24E39410E000E020E014
:104E20004091420860E087E191E00E94140B86E621
:104E30000E94044981E50E94044982E80E94E04AF8
:104E40000C944D100E94215D0C944D100E949C5DAD
:104E50000C944D109091350280913602923048F0BA
:104E60008E3F38F09150909335020E94215D0C9452
:104E70004D1091E090933502823020F08150809364
:104E80003602F3CF90933602F0CF909137028091A3
:104E90003802923030F08E3F20F0915090933702DC
:104EA000E4CF91E090933702823020F081508093DC
:104EB0003802DBCF90933802D8CF9091390280919D
:104EC0003A02923030F08E3F20F0915090933902A8
:104ED000CCCF91E090933902823020F081508093C2
:104EE0003A02C3CF90933A02C0CF80913A028E3FEC
:104EF00010F48F5FF4CF809139028D3F20F48F5FE3
:104F000080933902B2CF8EEFFBCF809138028E3F73
:104F100010F48F5FCCCF809137028D3F20F48F5FEC
:104F200080933702A2CF8EEF80933702C0CF80915B
:104F300036028E3F10F48F5FA2CF809135028D3FF5
:104F400020F48F5F8093350290CF8EEF80933502EF
:104F500096CF80915A03823051F1833009F44BC0CF
:104F6000813009F06BC082E080935A0389E790E0BA
:104F70000E94070B8AE790E00E94070B8BE790E006
:104F80000E94070B8AE791E00E94070BEE24E3944E
:104F900010E000E020E04091420860E08BE790E004
:104FA0000E94140B8CE20E9404490C944D1083E083
:104FB00080935A0389E790E00E94070B8AE790E00C
:104FC0000E94070B8BE790E00E94070B8AE791E0B5
:104FD0000E94070BEE24E39410E000E020E04091F3
:104FE000420860E08AE791E00E94140B8DE20E9483
:104FF00004490C944D1010925A0389E790E00E94E6
:10500000070B8AE790E00E94070B8BE790E00E9475
:10501000070B8AE791E00E94070BEE24E39410E06F
:1050200000E020E04091420860E089E790E00E94C3
:10503000140B8AE20E9404490C944D1081E0809385
:105040005A0389E790E00E94070B8AE790E00E94EC
:10505000070B8BE790E00E94070B8AE791E00E9424
:10506000070BEE24E39410E000E020E040914208BA
:1050700060E08AE790E00E94140B8BE20E940449F2
:105080000C944D1080915A038230D1F1833009F491
:1050900057C0813009F074C0809132028436F0F438
:1050A0008B35D0F084E6809332020E940A548EE25F
:1050B0000E9404498FE390E00E94070BEE24E394E2
:1050C00010E000E020E04091420860E08FE390E0D3
:1050D0000E94140B0C944D10865FE5CF80E490E0A5
:1050E0000E94070BEE24E39410E000E020E04091E2
:1050F000420860E080E490E00E94140B0C944D1094
:1051000080913102843650F78B35C0F084E680936D
:1051100031028EE20E9404498FE390E00E94070B67
:10512000EE24E39410E000E020E04091420860E0CB
:105130008FE390E00E94140B0C944D10865FE7CF34
:1051400080910102843650F68B35C0F084E680935E
:1051500001028EE20E9404498FE390E00E94070B57
:10516000EE24E39410E000E020E04091420860E08B
:105170008FE390E00E94140B0C944D10865FE7CFF4
:1051800080913302843608F0A9CF8B35D8F084E6BD
:105190008093330280E00E94DF5C8EE20E9404492B
:1051A0008FE390E00E94070BEE24E39410E000E010
:1051B00020E04091420860E08FE390E00E94140BF1
:1051C0000C944D10865FE4CF80915A03823051F1E8
:1051D000833009F449C0813009F068C080913202FF
:1051E000882309F47BCF8A30C8F4109232020E94DF
:1051F0000A548EE20E9404498FE390E00E94070B5C
:10520000EE24E39410E000E020E04091420860E0EA
:105210008FE390E00E94140B0C944D108A50809301
:105220003202E5CF80913102882309F457CF8A30CA
:10523000B8F4109231028EE20E9404498FE390E0AC
:105240000E94070BEE24E39410E000E020E0409180
:10525000420860E08FE390E00E94140B0C944D1024
:105260008A5080933102E7CF80910102882309F4AC
:1052700035CF8A30B8F4109201028EE20E940449C0
:105280008FE390E00E94070BEE24E39410E000E02F
:1052900020E04091420860E08FE390E00E94140B10
:1052A0000C944D108A5080930102E7CF8091330215
:1052B000882309F413CF8A30D0F41092330280E0AF
:1052C0000E94DF5C8EE20E9404498FE390E00E941E
:1052D000070BEE24E39410E000E020E04091420848
:1052E00060E08FE390E00E94140B0C944D108A5004
:1052F00080933302E4CF992311F40C948A428BE813
:1053000090E00E94070BEE24E39410E000E020E020
:105310004091420860E08BE890E00E94140B0E94EC
:1053200091090C944D10992311F40C948A428CE845
:1053300090E00E94070BEE24E39410E000E020E0F0
:105340004091420860E08CE890E00E94140B0E94BB
:1053500065080C944D10992311F40C948A428BE843
:1053600090E00E94070BEE24E39410E000E020E0C0
:105370004091420860E08BE890E00E94140B0E948C
:10538000130A0C944D10992311F40C948A428CE862
:1053900090E00E94070BEE24E39410E000E020E090
:1053A0004091420860E08CE890E00E94140B0E945B
:1053B000B0090C944D1085E891E00E94070B85E838
:1053C00090E00E94070B86E891E00E94070B86E8B8
:1053D00090E00E94070B87E890E00E94070B88E8A6
:1053E00090E00E94070B80912E02883109F46EC074
:1053F000E0F48C30A9F1873109F451C083E2809345
:105400002E0289E080932C0285E080932D02EE2409
:10541000E39410E000E020E04091420860E085E87D
:1054200090E00E94140B81E430C0833209F465C01F
:10543000843221F78CE080932E029FE090932C021F
:1054400080932D02EE24E39410E000E020E04091F0
:10545000420860E088E890E00E94140B83E415C0E5
:1054600097E190932E0280932C0288E080932D0286
:10547000EE24E39410E000E020E04091420860E078
:1054800087E890E00E94140B8EE30E9404490E947A
:10549000154B0E949C5D0E94215D0C944D1088E18B
:1054A00080932E028CE080932C0288E080932D0262
:1054B000EE24E39410E000E020E04091420860E038
:1054C00086E890E00E94140B8FE3DFCF8AE180939F
:1054D0002E028CE080932C0288E080932D02EE2433
:1054E000E39410E000E020E04091420860E086E8AC
:1054F00091E00E94140B80E4C8CF84E280932E02D6
:1055000089E080932C0285E080932D02EE24E394C1
:1055100010E000E020E04091420860E085E891E082
:105520000E94140B82E4B1CF80E890E00E94070B48
:1055300081E890E00E94070B809146028F30B9F01D
:105540008FE08093460288E280932F0282E280936C
:105550004402EE24E39410E000E020E04091420891
:1055600060E080E890E00E94140B8CE38ECF8DE029
:10557000809346028EE280932F0288E28093440259
:10558000EE24E39410E000E020E04091420860E067
:1055900081E890E00E94140B8DE377CF82E890E0E1
:1055A0000E94070B80E591E00E94070B83E890E0E2
:1055B0000E94070B84E890E00E94070B809145024F
:1055C0008432B1F18832B1F0843109F044C08CE00A
:1055D000809345020E940A54EE24E39410E000E018
:1055E00020E04091420860E084E890E00E94140BC3
:1055F0008BE312C084E2809345020E940A54EE2499
:10560000E39410E000E020E04091420860E080E593
:1056100091E00E94140B89E30E9404490E94154BFB
:105620000E94F64A0E949C5D0E94215D0C944D10E0
:1056300084E1809345020E940A54EE24E39410E032
:1056400000E020E04091420860E083E890E00E94A2
:10565000140B8AE3E1CF88E2809345020E940A544A
:10566000EE24E39410E000E020E04091420860E086
:1056700082E890E00E94140B88E3CECF89E890E0A6
:105680000E94070B8AE890E00E94070B80916A0451
:105690008823C1F010926A04EE24E39410E000E045
:1056A00020E04091420860E089E890E00E94140BFD
:1056B00086E30E9404498091CA03882311F40C9464
:1056C0004D10D3CB81E080936A04EE24E39410E084
:1056D00000E020E04091420860E08AE890E00E940B
:1056E000140B87E3E6CF84E490E00E94070BEE24DE
:1056F000E39410E000E020E04091420860E084E4A0
:1057000090E00E94140B84EF90E00E94070B20E0D1
:105710004091420860E084EF90E00E94140B0C94EA
:105720004D1084E490E00E94070BEE24E39410E017
:1057300000E020E04091420860E084E490E00E94B4
:10574000140B83EF90E00E94070B20E04091420889
:1057500060E083EF90E00E94140B0C944D108CE9F4
:1057600090E00E94070B8DE990E00E94070BEE2469
:10577000E39410E000E020E04091420860E08DE911
:1057800090E00E94140B0C944D108CE990E00E9464
:10579000070B8DE990E00E94070BEE24E39410E0E4
:1057A00000E020E04091420860E08CE990E00E9437
:1057B000140B0C944D1080EB90E00E94070B8FEAC5
:1057C00090E00E94070BEE24E39410E000E020E05C
:1057D0004091420860E080EB90E00E94140B0C9432
:1057E0004D108FEA90E00E94070B80EB90E00E9442
:1057F000070BEE24E39410E000E020E04091420823
:1058000060E08FEA90E00E94140B0C944D108FE939
:1058100090E00E94070B8EE990E00E94070BEE24B7
:10582000E39410E000E020E04091420860E08EE95F
:1058300090E00E94140B0C944D108FE990E00E94B0
:10584000070B8EE990E00E94070BEE24E39410E032
:1058500000E020E04091420860E08FE990E00E9483
:10586000140B0C944D1080916F048823D9F0109282
:105870006F0480E191E00E94070B8FE091E00E94AD
:10588000070BEE24E39410E000E020E04091420892
:1058900060E080E191E00E94140B8AE50E940449D7
:1058A0000C944D1081E080936F048FE091E00E9492
:1058B000070B80E191E00E94070BEE24E39410E0D7
:1058C00000E020E04091420860E08FE091E00E941B
:1058D000140B89E50E9404490C944D1088E191E075
:1058E0000E94070B8DE191E00E94070BEE24E394E8
:1058F00010E000E020E04091420860E088E191E0A3
:105900000E94140B0C944D1089E191E00E94070B4A
:105910008EE191E00E94070BEE24E39410E000E09A
:1059200020E04091420860E089E191E00E94140B80
:105930000C944D108AE191E00E94070B8FE191E0F9
:105940000E94070BEE24E39410E000E020E0409179
:10595000420860E08AE191E00E94140B0C944D1023
:105960008BE191E00E94070B80E291E00E94070B1F
:10597000EE24E39410E000E020E04091420860E073
:105980008BE191E00E94140B0C944D108CE191E09E
:105990000E94070B81E291E00E94070BEE24E39442
:1059A00010E000E020E04091420860E08CE191E0EE
:1059B0000E94140B0C944D108DE191E00E94070B96
:1059C00088E191E00E94070BEE24E39410E000E0F0
:1059D00020E04091420860E08DE191E00E94140BCC
:1059E0000C944D108EE191E00E94070B89E191E04B
:1059F0000E94070BEE24E39410E000E020E04091C9
:105A0000420860E08EE191E00E94140B0C944D106E
:105A10008FE191E00E94070B8AE191E00E94070B61
:105A2000EE24E39410E000E020E04091420860E0C2
:105A30008FE191E00E94140B0C944D1080E291E0F4
:105A40000E94070B8BE191E00E94070BEE24E39488
:105A500010E000E020E04091420860E080E291E048
:105A60000E94140B0C944D1081E291E00E94070BF0
:105A70008CE191E00E94070BEE24E39410E000E03B
:105A800020E04091420860E081E291E00E94140B26
:105A90000C944D1080913E028823E9F010923E0252
:105AA00087E291E00E94070B82E291E00E94070BDF
:105AB000EE24E39410E000E020E04091420860E032
:105AC00087E291E00E94140B80E60E9404490E9444
:105AD000E44A0C944D1081E080933E0282E291E012
