:100000000C944A050C947B050C947B050C947B05A1
:100010000C947B050C947B050C947B050C947B0560
:100020000C947B050C947B050C947B050C947B0550
:100030000C947B050C947B050C947B050C947B0540
:100040000C947B050C947B050C947B050C947B0530
:100050000C947B050C947B050C947B050C94228EF0
:100060000C947B050C94928F0C94688F0C947B05F8
:100070000C947B050C947B050C947B050C947B0500
:100080000C947B050C947B050C947B050C947B05F0
:100090000C943E8F0C94148F0C947B050C94BC8FA5
:1000A0000C947B050C947B050C947B050C947B05D0
:1000B0000C947B050C947B050C947B050C947B05C0
:1000C0000C947B050C947B050C947B050C94EA8EB8
:1000D0000C94C08E0C947B050C94968E0C946C8EB4
:1000E0000C947B0505A84CCDB2D44EB93836A90284
:1000F0000C50B9918688083CA6AAAA2ABE00000026
:10010000803F07634236B79BD8A71A39685618AEA6
:10011000BAAB558C1D3CB7CC5763BD6DEDFD753E3C
:10012000F6177231BF000000803F08000000BE9249
:100130002449123EABAAAA2ABECDCCCC4C3E00002C
:100140000080BEABAAAAAA3E00000000BF000000CB
:10015000803F0000000000084178D3BB4387D113E3
:100160003D190E3CC3BD4282AD2B3E68EC8276BE8B
:10017000D98FE1A93E4C80EFFFBE01C4FF7F3F0055
:10018000000000000C94B32B0C94101F0C944382BD
:100190000C94D7390C94A81B0C94212E0C949769BD
:1001A0000C9404310C94B21B0C94DC790C94A15D7A
:1001B0000C94E4850C9457310C941B3A0C94943BAA
:1001C0000C9405690C944F5D0C944D1E0C94FF5DCE
:1001D0000C94487A0C94068D0C9480050C947B6AE0
:1001E0000C9424820C9455260C94177B0C94683044
:1001F0000C94B07E0C94AE260C94B5390C94072761
:100200000C94C8250C94781F0C946F4B0C945F8150
:100210000C94C5500C94E1280C94EE850C94121C9F
:100220000C94B12D0C944C1F0C9465820C94BD332E
:100230000C9499250C948C800C94CA680C94601DC5
:100240000C9421820C94617E0C94F7250C94033954
:100250000C94867C0C949A820C94CE790C949779A9
:100260000C94035C0C948A5E0C94C01E0C947F7FEB
:100270000C9425250C941D7E0C94895D0C945D5D79
:100280000C94079E0C94101E0C94C81D0C94B63050
:100290000C9491350C94A9790C9459270C94827C78
:1002A0000C943C280C9467310C940F220C942D3044
:1002B0000C942C4E0C942D2F0C94592C0C94562EDF
:1002C0000C94DF2D0C946B5E0C94C4790C94CB854C
:1002D0000C94A5790C946C1F0C9482300C94D53A34
:1002E0000C94BB5D0C94535D0C940D2E0C94D27940
:1002F0000C949A3A0C946D800C945D330C94D9371D
:100300000C94A17E0C94F01B0C94CC1F0C94BE3664
:100310000C9438820C945D860C9426260C945280A2
:100320000C941F6A0C94911D0C94D07B0C94B37A9E
:100330000C940F990C945F3A0C94FA7B0C941286EF
:100340000C9424360C94EF5D0C949D270C94474A32
:100350000C94F6850C94112D0C94AC790C94D43635
:100360000C94D91E0C94DA850C94CA790C944F2FF6
:100370000C949C300C94EB800C94382E0C94A43785
:100380000C94C21F0C9408310C941A1D0C94711D0E
:100390000C94D01F0C9479310C94251F0C94C15EE1
:1003A0000C948F280C94417F0C941B300C94337E5A
:1003B0000C942C7E0C94D91D0C94DF7C0C944F254E
:1003C0000C94861E0C942A820C944B990C941582E2
:1003D0000C941E250C94103B0C94FF270C94FB2CC2
:1003E0000C94F9390C94D3350C949D790C94AC1C75
:1003F0000C9433990C94E61F0C9482260C940B8277
:100400000C940B7E0C94508D0C944D820C94863879
:100410000C94AE1B0C944B5D0C94522E0C94FD1B53
:100420000C94AE5E0C942D240C94DE800C944199B7
:100430000C94832D0C94B6790C940C310C94712F80
:100440000C94B28C0C942E820C94561D0C948B310F
:100450000C947C5E0C947D260C941E5E0C94E35DE3
:100460000C942C820C947C360C9497290C94C632F4
:100470000C94277C0C94DA240C943D990C946739E5
:100480000C94E98C0C9432820C945D1B0C94E9352D
:100490000C9473350C94C51B0C94C1380C94BE1C81
:1004A0000C94C5260C94925E0C94272D0C94897C98
:1004B0000C94E27F0C945F260C942E7E0C94942C6A
:1004C0000C943A370C94F71B0C9430820C948C7E6D
:1004D0000C94FF1D0C94A7350C946B200C948B820C
:1004E0000C94662E0C94F37B0C94B5280C94B034C9
:1004F0000C94DE690C9433390C94567E0C94475D51
:100500000C94ED380C9494230C9400370C945535CE
:100510000C94E57D0C94767C0C9427310C944B82E2
:100520000C94E07D0C941A820C9443280C94427E27
:100530000C94B57F0C949B1C0C946C4B0C94757EA6
:100540000C945F5E0C9420350C94271C0C94A71E11
:100550000C94725D0C948D820C94FE1E0C94840598
:100560000C9473260C943F990C94A41F0C94088649
:100570000C943C1C0C94C17A0C9469280C94511C6A
:100580000C94EA360C941C860C94882E0C94EE1D68
:100590000C94FC7D0C941E820C94837C0C944D5D19
:1005A0000C9424320C944A380C949B390C94547E4D
:1005B0000C940E380C94D81B0C94D17B0C948D3376
:1005C0000C94211E0C9435860C94497A0C947D056C
:1005D0000C94407E0C94D1500C949C240C94835E1B
:1005E0000C9441820C94B52F0C940B290C943B99DC
:1005F0000C94D6500C945B1D0C94BC790C946E2614
:100600000C94B01B0C943C820C94647B0C94EB5DBA
:100610000C940B2F0C94552D0C9411990C94477E2F
:100620000C94341D0C948C3B0C94585D0C946A8291
:100630000C94495D0C94F9200C94B8820C94E91F39
:100640000C94172E0C94261E0C943A270C94278297
:100650000C94457A0C94AA1B0C9445820C94763425
:100660000C9464260C94A5330C947A270C9466366B
:100670000C9449820C94FE850C946A250C94368265
:100680000C94E07B0C94714B0C946D5C0C947D1D70
:100690000C94221F0C94F92F0C948A1C0C945386F2
:1006A0000C94C4850C94A8360C94C2270C94516900
:1006B0000C94D6240C94932F0C94B41B0C94DD2E24
:1006C0000C946E2A0C94CB280C9481390C94498696
:1006D0000C9469260C94AC1B0C94907A0C943A36CA
:1006E0000C9419240C9435290C94292E0C946C82AA
:1006F0000C948E8C0C9419390C94C0790C944D394F
:100700000C94F87E0C9494220C94D63B0C94B21A60
:100710000C9492360C9468380C944D6A0C945A26BA
:100720000C94D04D0C94905D0C94A1790C945A2E9D
:100730000C94A21D0C94D0850C94BB8C0C94C15DC0
:100740000C94252E0C94E75C0C9478260C943D3A7E
:100750000C94D7380C946F370C94BD350C940482EC
:100760000C942B860C94CB500C94217F0C9410820B
:100770000C94981F0C94903B0C94F35D0C9487267A
:100780000C94451D0C942C380C945F290C94AA2EC3
:100790000C943F310C9475330C94D8790C94A68C3E
:1007A0000C9434820C94EF4F0C94F95D0C943F86BA
:1007B0000C943F820C94171D0C944A7A0C94D72FFA
:1007C0000C94AD890C949F7A0C9414230C9487217B
:1007D0000C94B31D0C94B2790C94655E0C94503655
:1007E0000C94E75D0C94062C0C94D7790C94455D21
:1007F000B80BB80BAC0DAC0DA00F00010203040543
:10080000060708090A0B0C0D0E0001020304050679
:100810000708090A0B0C0E0D0C0B0A090807060540
:1008200004030201000C0B0A090807060504030271
:100830000100001C120A041F160D02110C07010A08
:100840000704000A121C040D161F02070C110104F4
:10085000070A0102030405060708090A0B0C0D0E1E
:100860000F101112131415161718191A1B1C1D1E20
:100870001F20212223242526272801020304050600
:10088000070809000A0B0C0D0E0F101112001314AB
:1008900015161718191A1B001C1D1E1F20212223B4
:1008A00024000102030405000000000006070809F7
:1008B0000A00000000000B0C0D0E0F0000000000ED
:1008C00010111213140000000000010203000000C8
:1008D00000000000040506000000000000000708FA
:1008E00009000000000000000A0B0C0000000000DE
:1008F00000003D0064016501660167013075983AAA
:1009000010274C1D7017000000006410B71DC82090
:100910006E3BAC30D9269041DC76F4516B6B58615C
:10092000B24D3C7105502083B8ED44930FF0E8A31D
:10093000D6D68CB361CBB0C2649BD4D2D38678E2D6
:100940000AA01CF2BDBD4552524F523A204E6F20B4
:1009500063616C6C6261636B20617661696C61627A
:100960006C6520666F72207061636B65742049440A
:10097000200000002100240027002A002D00300064
:10098000330001010000040107010A0100002200F8
:10099000250028002B002E00310034000201000049
:1009A000050108010B01000020002300260029009A
:1009B0002C002F0032000001000003010601090194
:1009C00005050505070508080808020202020A0ACB
:1009D00008080404040401010101010101010303E9
:1009E000030303030303040707070C0C0C0C0C0C94
:1009F0000C0C0202020206060606060606060B0B91
:100A00000B0B0B0B0B0B01021020200808102040D1
:100A100010204080020102010804020101020408C2
:100A20001020408080402010080402018004020150
:100A30008040201008040201080402010102040899
:100A400010204080010204081020408000000A0BA2
:100A500002090C0D0E08070304010000000000004D
:100A60000000000000000000000000000000000086
:100A70000000000000000000121110000000000043
:100A80000000000000000000000000000000000066
:100A90000000079E11241FBECFEFD1E2DEBFCDBF05
:100AA00000E00CBF13E0A0E0B2E0E4EEF1E601E00C
:100AB0000BBF02C007900D92AE34B107D9F729E100
:100AC000AEE4B3E001C01D92AA31B207E1F715E030
:100AD000CAE4D5E000E006C021970109802FFE019D
:100AE0000E9490AFC934D10780E00807A9F70E949F
:100AF00047A20C94F0B00C94000090E080E00895C0
:100B0000FC018585968508950F931F93CF93DF93FE
:100B100000D0CDB7DEB7AB0119821A821B82DC018F
:100B2000ED91FC910190F081E02D00E010E020E0DB
:100B3000BE016F5F7F4F19950F900F900F90DF915F
:100B4000CF911F910F910895FC0140813181932F26
:100B5000341708F4942F2281822F291708F4892F43
:100B60008823C1F0962F682F70E080E00E9468AF64
:100B7000469FC001479F900D11249083369FC0016E
:100B8000379F900D11249183269FC001279F900DC0
:100B90001124928308958091790490917A04892B8D
:100BA00091F080911506909116060197039758F4DD
:100BB00060912307062E000C770B809177049091AB
:100BC00078040E9409838BE20C9459538091150696
:100BD000909116060197039708F0B4C1609124071D
:100BE000062E000C770B8CE390E00E940983609145
:100BF0002407062E000C770B89E491E00E940983FC
:100C000060912407062E000C770B8BE490E00E9485
:100C1000098360912407062E000C770B8EE790E085
:100C20000E94098360912407062E000C770B8BE647
:100C300091E00E94098360912407062E000C770B37
:100C40008FE790E00E94098360912407062E000C34
:100C5000770B83EB90E00E94098360912407062EB6
:100C6000000C770B82E090E00E94098380911D06C2
:100C700090911E06609124078230910509F412C1FB
:100C8000039709F462C1062E000C770B8091930440
:100C900090919404029709F067C16E51710981E047
:100CA00090E00E94098360912407062E000C770BC8
:100CB0006E5171098FE090E00E94098360912407D2
:100CC000062E000C770B6852710980E190E00E94BB
:100CD000098360912407062E000C770B6E51710971
:100CE0008DE991E00E94098360912407062E000C93
:100CF000770B6852710985E991E00E940983609140
:100D00002407062E000C770B8CE591E00E940983E6
:100D100060912407062E000C770B82EA91E00E9476
:100D2000098360912407062E000C770B80E991E07F
:100D30000E94098360912407062E000C770B6451F2
:100D4000710980E691E00E94098360912407062ED4
:100D5000000C770B6451710982E190E00E940983D5
:100D600060912407062E000C770B6451710983E112
:100D700090E00E94098360912407062E000C770BF7
:100D80006451710984E190E00E9409836091240715
:100D9000062E000C770B6451710985E190E00E94EA
:100DA000098360912407062E000C770B64517109AA
:100DB00086E190E00E94098360912407062E000CD2
:100DC000770B645171098DE890E00E94098360916E
:100DD0002407062E000C770B645171098FE890E010
:100DE0000E94098360912407062E000C770B645142
:100DF000710983E990E00E94098360912407062E1F
:100E0000000C770B645171098EE890E00E94098311
:100E100060912407062E000C770B6451710980E95C
:100E200090E00E94098360912407062E000C770B46
:100E30006451710982E990E00E940983609124075E
:100E4000062E000C770B6451710984E990E00E9432
:100E5000098360912407062E000C770B64517109F9
:100E600081E990E00E94098360912407062E000C1E
:100E7000770B8AE691E00E94098360912407062E91
:100E8000000C770B89E691E00E9409838091C003F2
:100E90008823C1F060912407062E000C770B8EE4A6
:100EA00091E00EC0062E000C770B8BE791E00E94BC
:100EB000098360912407062E000C770B8CE791E0E4
:100EC0000E9409838091930490919404823091054B
:100ED00009F46FC08330910509F4A0C0019709F4AB
:100EE00087C080911304882369F160912407062E3E
:100EF000000C770B82E690E00E9409836091240742
:100F0000062E000C770B8FE791E00E940983609119
:100F10002407062E000C770B89E891E00E940983D4
:100F200060912407062E000C770B83E690E00E9468
:100F3000098360912407062E000C770B88E490E06B
:100F40000E9409838BE20C945953062E000C770BF8
:100F500085E290E00E94098360912407062E000C30
:100F6000770B86E290E0ACCF81E090E00E940983AD
:100F700060912407062E000C770B8FE090E00E9412
:100F8000098360912407062E000C770B80E190E026
:100F90000E94098360912407062E000C770B8DE9CF
:100FA00091E00E94098360912407062E000C770BC4
:100FB000A2CE60912407062E000C770B82E390E00E
:100FC0000E94098360912407062E000C770B84E5AC
:100FD00091E00E94098380911304882309F4B2CF21
:100FE00060912407062E000C770B84E390E0A8CFD5
:100FF00060912407062E000C770B87E390E00E9497
:10100000098380911304882309F49CCF60912407FD
:10101000062E000C770B8AE390E092CF60912407B4
:10102000062E000C770B87E491E08ACFFF920F9396
:101030001F93CF93DF93EC01F62E08811981C8012D
:101040000E948EABF81621F06F2DC8010E9496AB5E
:10105000CE01DF91CF911F910F91FF9008950E94D3
:101060005E660E94A96A10922D0C10922E0C1092AE
:1010700012041092BC031092BF031092BD03109291
:10108000BE0381E0809307020E94485B0E946B5A76
:1010900080911D0690911E060297029708F446C0A3
:1010A000809143028093561586E990E09093030265
:1010B000809302024091561550E070E060E08CE4AD
:1010C00095E10E946B98409102025091030270E0FA
:1010D00060E08CE09DE00E946B984091100250E02F
:1010E00070E060E086E395E10E946B984CE251E08D
:1010F00060E070E086E39DE00E946B980E94675676
:1011000010928A038091C303882321F01092C303B5
:101110000E94185B80911104882379F010921104C9
:1011200088E00E94555383E30C94595580912E0218
:101130008093561588E592E0B9CF089580912002FA
:10114000882349F081E02091F00C3091F10C232BA1
:1011500019F080E0089581E008950F931F93CF93D5
:10116000DF9300D000D0CDB7DEB78FEF9FEFDC016B
:1011700089839A83AB83BC8310E000E01E830D83D8
:10118000BE016B5F7F4FCE0101960E947E98BE012B
:101190006A5F7F4FCE0101960E947E980F5F1F4FBE
:1011A0000932110559F78BE190E09E838D83BE01D2
:1011B0006B5F7F4FCE0101960E947E98BE016A5FF1
:1011C0007F4FCE0101960E947E988EE090E09E8334
:1011D0008D83BE016B5F7F4FCE0101960E947E988A
:1011E000BE016A5F7F4FCE0101960E947E986981A1
:1011F0007A818B819C8160957095809590952696DB
:101200000FB6F894DEBF0FBECDBFDF91CF911F9117
:101210000F910895EF92FF920F931F93CF93DF9357
:1012200000D000D0CDB7DEB70E94AD0869837A83C5
:101230008B839C83CE0101967C010CEF1FE01E8303
:101240000D83F70161917F01CE0105960E9416087A
:101250000F5F1F4F0115F0E11F0789F726960FB6A4
:10126000F894DEBF0FBECDBFDF91CF911F910F91DC
:10127000FF90EF9008952F923F924F925F926F925E
:101280007F928F929F92AF92BF92CF92DF92EF9216
:10129000FF920F931F93CF93DF93CDB7DEB76F9776
:1012A0000FB6F894DEBF0FBECDBF609128076C5318
:1012B000770B809126079B01281B310987FD339509
:1012C00044E6429FC001439F900D11240E947CAFD1
:1012D000262F362F20908F0480911D0290911E02A0
:1012E000E8EEF3E0BF010E9468AFC62E80911B02BA
:1012F00090911C02BF010E9468AFD62E8091190206
:1013000090911A02BF010E9468AFE62E80911702E9
:1013100090911802BF010E9468AFF62E80911502CD
:1013200090911602BF010E9468AF662E809129023B
:1013300077247394882311F0F2E07F2E80912802A5
:1013400088248394882311F0E2E08E2E8091270276
:1013500099249394882311F072E0972E80912602AD
:10136000AA24A394882311F062E0A62E809125027E
:10137000BB24B394882311F052E0B52E809124024F
:1013800061E0811162E08091230201E0811102E0BD
:1013900080917E0411E0811112E08091950490917A
:1013A0009604B2E0019709F0B1E080912202A2E038
:1013B000811101C0A1E080912102882309F496C027
:1013C00082E08E8F80918604882309F492C0E2E047
:1013D000EF8F8091200242E0342E811102C033242D
:1013E000339480911F0272E0811171E081E0820FDD
:1013F000353608F085E690913D0252E0911101C02A
:1014000051E090913E0242E0911101C041E0909183
:101410003F02992309F470C092E02091400232E02B
:10142000532E211102C0552453942091410244248B
:101430004394222311F022E0422E20918D0430911A
:101440008E04215031092530310508F057C02E593E
:101450003D4FF901208179828A829B82AC82BD82D4
:101460006E830F8318872986BA87AB87FE8DFC872A
:101470003F8D3D877E878F87C88AD98AEA8AFB8A13
:101480006C8A5D8B4E8B9F8B588E498E2A8F3B8E3C
:10149000CE0101967C010EE010E01D8F0C8FF7014C
:1014A00061917F01CE014C960E9416080F5F1F4F7D
:1014B0000932110591F70E940A096F960FB6F89448
:1014C000DEBF0FBECDBFDF91CF911F910F91FF9077
:1014D000EF90DF90CF90BF90AF909F908F907F90D4
:1014E0006F905F904F903F902F90089591E09E8F66
:1014F00069CFF1E0FF8F6DCF91E08FCF24E0ABCFCC
:101500000F931F93CF93DF931F921F92CDB7DEB738
:101510000EE010E01A83098360E0CE0101960E947C
:1015200016080F5F1F4F09321105A1F70E940A0923
:101530000F900F90DF91CF911F910F910895EF922F
:10154000FF920F931F93CF93DF93CDB7DEB76097D2
:101550000FB6F894DEBF0FBECDBF80917F0432E09E
:10156000813009F031E080912A0293E0813021F04E
:1015700094E0823009F092E0409187045091880411
:1015800083E04130510529F084E04230510509F0F3
:1015900082E020918004222309F445C022E040919A
:1015A00045024983409144024A8340912D024B8376
:1015B0003C83309138023D83309136023E83309136
:1015C00034023F83309139023887309137023987AE
:1015D000309135023A87309181043B879C878D8713
:1015E0002E87CE0101967C0110E000E0188B0F875A
:1015F000F70161917F01CE010F960E9416080F5FDF
:101600001F4F0E30110591F70E940A0960960FB620
:10161000F894DEBF0FBECDBFDF91CF911F910F9128
:10162000FF90EF90089521E0BACF0F931F93CF93CF
:10163000DF931F921F92CDB7DEB710E000E01A8350
:10164000098360E0CE0101960E9416080F5F1F4FCC
:101650000E301105A1F70E940A090F900F90DF913B
:10166000CF911F910F910895209114048091150638
:101670009091160601970397C0F480917904909198
:101680007A04211107C021E02093140465E0892B1E
:1016900031F4089510921404892BD9F366E08091F7
:1016A0007704909178040C948F81211104C081E01B
:1016B00080931404089510921404EBCF80911506C2
:1016C000909116060197039798F480917904909170
:1016D0007A04892B59F08091770490917804843FA3
:1016E00021E0920718F064E00E948F810E9412842A
:1016F000109215041092160460917704709178048A
:1017000085E40C9433558091790490917A04892B67
:1017100009F464C08091770490917804843F21E0BB
:10172000920708F45BC021E020931604209115066F
:101730003091160622303105A1F12330310519F020
:1017400021303105F9F42091140465E0211101C024
:1017500066E00E948F8160912307062E000C770BB4
:1017600080917704909178040E94098361E08091D0
:101770007704909178040E946B830E94128481E028
:101780008093800640E25EE460E070E089E297E0EA
:101790000E946B98609177047091780484E40C94B3
:1017A00033552091140465E0211101C066E00E94C8
:1017B0008F8160912307062E000C770B80917704B0
:1017C000909178040E94098350E040E061E08091AC
:1017D0007704909178040E94D682CFCF0895CF935A
:1017E000DF93C0917704D09178042197C43F81E0C2
:1017F000D80730F4C0917904D0917A04CD50DE4FEF
:1018000080911604882351F00E945E0BD0937804D7
:10181000C0937704DF91CF910C94830BD09378041D
:10182000C0937704BE0185E4DF91CF910C943355CA
:10183000CF93DF93C0917704D09178042196809163
:10184000790490917A048D509E4F8C179D0710F467
:10185000C4EFD1E080911604882351F00E945E0B02
:10186000D0937804C0937704DF91CF910C94830BCD
:10187000D0937804C0937704BE0185E4DF91CF91C3
:101880000C943355209115063091160621503109DC
:101890002330310518F464E00C948F810895CF92C1
:1018A000DF92EF92FF920F931F93CF93DF936C0120
:1018B000F62EC42F14160CF4C0E0CA3B0CF4CAEB8D
:1018C00080911506909116068230910589F183303A
:1018D000910519F0019709F047C00C2E000CDD0BA3
:1018E000222379F06AEB7FEFC6010E9409836E2DF7
:1018F000C6010E946B83A801BE01C6010E94378306
:1019000008C0BE01C6010E9409836E2DC6010E9457
:101910006B8365E0F11001C066E0C601DF91CF91F5
:101920001F910F91FF90EF90DF90CF900C948F81DB
:101930000C2E000CDD0B222361F06AEB7FEFC60159
:101940000E94098350E040E06E2DC6010E94D682BD
:10195000D2CFBE01C6010E94098350E040E06E2D47
:10196000C6010E94D682D5CFDF91CF911F910F91F2
:10197000FF90EF90DF90CF900895EF920F931F9319
:10198000CF93C82F81E090E09093190480931804BE
:101990001092850410928404109287071092880791
:1019A0000E949E08811121C080911D0690911E0603
:1019B0000297029770F440E050E0BA0186E395E1A7
:1019C0000E946B9840E050E0BA0188EF9CE00E94D2
:1019D0006B980E94945687E00E94555382E3CF9102
:1019E0001F910F91EF900C945955C11106C088E0DA
:1019F0000E94555383E30E94595580918B04909126
:101A00008C04059741F480913302882321F061E032
:101A10008DE20E9462858BE490E00E94420C8EE78A
:101A200090E00E94420C8FE790E00E94420C83E21B
:101A300090E00E94420C8CE591E00E94420C80E90B
:101A400091E00E94420C82EA91E00E94420C809157
:101A50001D0690911E0683309105B9F185309105E0
:101A600009F4ADC0029709F045C0EE24E39410E0FC
:101A700000E020E04091240760E08BE791E00E94C5
:101A80004F0C08ED1EE021E04091240761E08CE757
:101A900091E00E944F0C80919304909194048230C5
:101AA000910509F415C18330910509F422C101970C
:101AB00009F01AC1EE24E39404E813E021E0409118
:101AC000240761E087E390E00DC1EE24E39410E089
:101AD00000E020E04091240760E085E290E00E9471
:101AE0004F0C08ED1EE021E04091240761E086E202
:101AF00090E0CFCF8091930490919404409124077B
:101B0000CC2389F10297F9F44E51EE24E39410E0CE
:101B100000E020E060E08FE090E00E944F0C4091F8
:101B20002407485200E516E421E061E080E190E0FE
:101B30000E944F0C40E556E460E070E083E997E0D6
:101B40000E946B98A8CFEE24E39410E000E020E020
:101B500060E08FE090E00E944F0C00E516E421E089
:101B600040912407E2CF0297D1F44E51EE24E39442
:101B700010E000E020E060E081E090E00E944F0C87
:101B800040912407485204EF11E021E061E080E138
:101B900090E00E944F0C40E050E0BA01CFCFEE241D
:101BA000E39410E000E020E060E081E090E00E943B
:101BB0004F0C04EF11E021E040912407E7CF809122
:101BC00093049091940420911202211127C0009750
:101BD00011F581E08093C003EE24E39410E000E06F
:101BE00020E04091240760E081E090E00E944F0CEB
:101BF00004EF11E021E04091240761E085E991E0E4
:101C00000E944F0C00ED17E021E04091240761E0B5
:101C10008EE491E0BECF87309105D9F21092C003D7
:101C200040912407CC2369F10297D9F44E51EE2458
:101C3000E39410E000E020E060E08DE991E00E9494
:101C40004F0C40912407485200E117E221E061E087
:101C500085E991E00E944F0C40E157E260E070E0BE
:101C60006DCFEE24E39410E000E020E060E08DE929
:101C700091E00E944F0C00E117E221E0409124071F
:101C8000E6CF0297A9F44E51EE24E39410E000E071
:101C900020E060E081E090E00E944F0C409124073A
:101CA000485204EF11E021E061E085E991E071CF55
:101CB000EE24E39410E000E020E060E081E090E0BA
:101CC0000E944F0C04EF11E021E040912407ECCF7B
:101CD000EE24E39404E813E021E04091240761E05E
:101CE00082E390E00E944F0CCF911F910F91EF90F3
:101CF0000895EE24E39404E813E021E040912407E2
:101D000061E087E491E0EECFEF920F931F93809113
:101D10003A02853020F510923A0280E490E00E9469
:101D2000420CEE24E39410E000E020E0409127070D
:101D300060E080E490E00E944F0C80913A0226E43B
:101D4000829FC001112464E670E00E947CAF66545B
:101D5000609323071F910F91EF900C94CB05855052
:101D600080933A02EACFEF920F931F9380913A0249
:101D7000803628F184E680933A0280E490E00E9465
:101D8000420CEE24E39410E000E020E040912707AD
:101D900060E080E490E00E944F0C80913A0226E4DB
:101DA000829FC001112464E670E00E947CAF6654FB
:101DB000609323071F910F91EF900C94CB058B5FDD
:101DC00080933A02EACFEF920F931F9380913B02E8
:101DD000853020F510923B0280E490E00E94420C96
:101DE000EE24E39410E000E020E04091270760E05B
:101DF00080E490E00E944F0C80913B0226E4829F99
:101E0000C001112464E670E00E947CAF66546093C8
:101E100024071F910F91EF900C94E6058550809355
:101E20003B02EACFEF920F931F9380913B028036E3
:101E300028F184E680933B0280E490E00E94420C0B
:101E4000EE24E39410E000E020E04091240760E0FD
:101E500080E490E00E944F0C80913B0226E4829F38
:101E6000C001112464E670E00E947CAF6654609368
:101E700024071F910F91EF900C94E6058B5F8093E0
:101E80003B02EACFEF920F931F93CF93C82F80911D
:101E90001506909116060197039738F4809127074D
:101EA000082E000C990B0E942285C1111FC0809141
:101EB0001704811114C08091C303811110C080E404
:101EC00090E00E94420CEE24E39410E000E020E059
:101ED0004091240760E080E490E00E944F0C8BE288
:101EE000CF911F910F91EF900C945953CF911F9167
:101EF0000F91EF90089520912807822F8C53990B12
:101F0000AC0180912707082E000C990B84179507C8
:101F1000F1F080913C028530B0F410923C02309197
:101F20003C02349FC001359F900D11246CE97FEF76
:101F30000E947CAF2C53620F6093270760932507A4
:101F400080E00C94420F855080933C02E8CF0895C6
:101F500080912707882319F180913C028036E8F0B0
:101F600084E680933C0220912807822F8C53990BA2
:101F7000AC0130913C02349FC001359F900D11247B
:101F80006CE97FEF0E947CAF2C53620F60932707B0
:101F90006093250780E00C94420F8B5FE2CF089599
:101FA0000F931F93CF93DF9300D000D0CDB7DEB750
:101FB000122F202F0E94BD8169837A838B83BE01FB
:101FC0006C5F7F4FCE0101960E9429976D817C81C5
:101FD000111102C06C817D818E8126960FB6F89416
:101FE000DEBF0FBECDBFDF91CF911F910F9108953E
:101FF0000F9300E021E00E94D00F0F9108952F92DF
:102000003F924F925F926F927F928F929F92AF9288
:10201000BF92CF92DF92EF92FF920F931F93CF93D5
:10202000DF93CDB7DEB72D970FB6F894DEBF0FBEA6
:10203000CDBF80E00E941C6160904B15860D8983A6
:1020400081E00E941C6180904B15880D8B8382E09B
:102050000E941C61A0904B158A0D8D8383E00E9425
:102060001C61C0904B158C0D8F838091621583503D
:102070008B87809187039091440211E09C3009F096
:1020800015E090914502891708F069C18FE797E044
:102090000E943B98882309F462C1809145022091F7
:1020A00087032987E22FF0E090918004992309F4B7
:1020B00021C18D3009F01BC1EB5DF74FE491F0E0D9
:1020C0007F01EE0CFF1CEE0DFF1DAF01495A5A4F68
:1020D0007A0100E020E04FEF64E180E00E94D00F41
:1020E000F701608371838283F9812F2F30E04B8168
:1020F000842E912C5D81A52EB12C8F81C82ED12CE0
:102100009B85E92EF12C898565E00E945CAFF90181
:10211000EE0FFF1FFD87EC873401660C771C25014D
:10212000440C551C1601220C331CA701440F551FEB
:102130005A87498791114CC2E20FF31FE95AFA4FAF
:10214000FD87EC8720E04FEF612F81E00E94D00FE8
:10215000EC85FD856083718382839301280D391D91
:10216000295A3A4F3D872C8720E04FEF612F81E0BD
:102170000E94D00FEC85FD8560837183828392017C
:102180002A0D3B1D295A3A4F3D872C8720E04FEFFF
:10219000612F81E00E94D00FEC85FD856083718303
:1021A000828391012C0D3D1D295A3A4F3D872C8782
:1021B00020E04FEF612F81E00E94D00FEC85FD857C
:1021C00060837183828329853A852E0D3F1D295AAC
:1021D0003A4F3A87298720E04FEF61E081E00E9483
:1021E000D00FE985FA8560837183828380918704AB
:1021F00090918804892B09F485C020E04FEF65E0B9
:1022000084E00E94D00F60939704709398048093A9
:10221000990420E04FEF65E084E00E94D00F6093C6
:102220009A0470939B0480939C0420E04FEF6BE032
:1022300084E00E94D00F60939D0470939E0480936D
:102240009F0420E04FEF6BE084E00E94D00F60938A
:10225000A0047093A1048093A20420E04FEF6FE0EC
:1022600084E00E94D00F6093A3047093A404809331
:10227000A50420E04FEF6FE084E00E94D00F609350
:10228000A6047093A7048093A804F09142022F2F14
:102290002150330BC901880F991F280F391F295668
:1022A0003B4F3A87298720E04FEF6FE084E00E94A0
:1022B000D00FE985FA85608371838283F0914202B1
:1022C0002F2F30E0C901880F991F280F391F295679
:1022D0003B4F3A87298720E04FEF6BE084E00E9474
:1022E000D00FE985FA8560837183828323C0EA5E1B
:1022F000F74FE4CE8D3019F4E75FF74FDFCEE650AD
:10230000F84FDCCEA59A739A809102018860809381
:10231000020180910201806180930201809102019B
:1023200080628093020180910201806480930201A7
:102330002C9A2D9A809187038F5F809387039091C9
:102340004502891332C210928707109288074EE126
:1023500050E060E070E085E797E00E946B98909114
:10236000860380914502981708F05EC285E797E0E2
:102370000E943B98882309F457C280914502F0914E
:102380008603F987EF2FF0E090918004992309F4F8
:1023900016C28D3009F010C2EB5DF74FE491815009
:1023A000990B8E1B91097C01EE0CFF1C8E0D9F1D5D
:1023B0009C01295A3A4F790100E020E04FEF60E09C
:1023C00080E00E94D00FF701608371838283F981DE
:1023D0002F2F30E04B81842E912C5D81A52EB12CC6
:1023E0008F81C82ED12C9B85E92EF12C898565E043
:1023F0000E945CAFF901EE0FFF1FFD87EC873401EF
:10240000660C771C2501440C551C1601220C331C4C
:10241000A701440F551F5A8749879111F9C3E20F4D
:10242000F31FE95AFA4FFD87EC8720E04FEF612F49
:1024300081E00E94D00FEC85FD85608371838283EB
:102440009301280D391D295A3A4F3D872C8720E0EA
:102450004FEF612F81E00E94D00FEC85FD856083F6
:102460007183828392012A0D3B1D295A3A4F3D8781
:102470002C8720E04FEF612F81E00E94D00FEC8588
:10248000FD8560837183828391012C0D3D1D295A46
:102490003A4F3D872C8720E04FEF612F81E00E946B
:1024A000D00FEC85FD8560837183828329853A8511
:1024B0002E0D3F1D295A3A4F3A87298720E04FEFCA
:1024C00061E081E00E94D00FE985FA856083718325
:1024D00082838091870490918804892B09F477C1C5
:1024E00020E04FEF65E084E00E94D00F60939704F6
:1024F000709398048093990420E04FEF65E084E0A6
:102500000E94D00F60939A0470939B0480939C0464
:1025100020E04FEF6BE084E00E94D00F60939D04B9
:1025200070939E0480939F0420E04FEF6BE084E063
:102530000E94D00F6093A0047093A1048093A20422
:1025400020E04FEF6FE084E00E94D00F6093A3047F
:102550007093A4048093A50420E04FEF6FE084E023
:102560000E94D00F6093A6047093A7048093A804E0
:10257000809142028150990B9C01220F331F280F3A
:10258000391F29563B4F3A87298720E04FEF6FE0EC
:1025900084E00E94D00FE985FA856083718382838D
:1025A0008091420290E09C01220F331F280F391FB7
:1025B00029563B4F3A87298720E04FEF6BE084E0B4
:1025C0000E94D00FE985FA8560837183828317C1E9
:1025D0004C855D85420F531F495A5A4F5D874C8782
:1025E00000E020E04FEF60E081E00E94D00FEC853A
:1025F000FD856083718382839301280D391D295ADB
:102600003A4F3D872C8720E04FEF60E081E00E9449
:10261000D00FEC85FD8560837183828392012A0D42
:102620003B1D295A3A4F3D872C8720E04FEF60E051
:1026300081E00E94D00FEC85FD85608371838283E9
:1026400091012C0D3D1D295A3A4F3D872C8720E0E2
:102650004FEF60E081E00E94D00FEC85FD85608344
:102660007183828329853A852E0D3F1D295A3A4F61
:102670003A87298720E04FEF60E081E00E94D00F89
:10268000E985FA85608371838283809187049091C4
:102690008804892B09F470C020E04FEF60E084E0EB
:1026A0000E94D00F609397047093980480939904CC
:1026B00020E04FEF60E084E00E94D00F60939A0426
:1026C00070939B0480939C0420E04FEF60E084E0D3
:1026D0000E94D00F60939D0470939E0480939F048A
:1026E00020E04FEF60E084E00E94D00F6093A004F0
:1026F0007093A1048093A20420E04FEF60E084E097
:102700000E94D00F6093A3047093A4048093A50447
:1027100020E04FEF60E084E00E94D00F6093A604B9
:102720007093A7048093A804809142028150990B72
:102730009C01220F331F280F391F29563B4F3A8720
:10274000298720E04FEF60E084E00E94D00FE98508
:10275000FA856083718382838091420290E09C01BC
:10276000220F331F280F391F29563B4F3A872987DD
:1027700020E04FEF60E0B2CDA59873988091020100
:10278000877F80930201809102018F7E80930201F6
:10279000809102018F7D80930201809102018F7BE5
:1027A000809302012C982D98C5CD4EE150E060E059
:1027B00070E08FE797E0D1CDEA5EF74FEFCD8D3037
:1027C00019F4E75FF74FEACDE650F84FE7CDA59A49
:1027D000739A8091020188608093020180910201C6
:1027E00080618093020180910201806280930201E6
:1027F000809102018064809302012C9A2D9A80912D
:1028000086038F5F80938603909145028913EDC202
:1028100010927D0710927E074EE150E060E070E07C
:102820008BE697E00E946B9880910002882309F460
:10283000D6C18BE697E00E943B98882309F4CFC16C
:10284000F0910002F9872981622E712C1301220C6C
:10285000331CC101860D971DAC01495A5A4F7A01AC
:1028600000E020E04F2F612F81E00E94D00FF701A0
:10287000608371838283FB818F2E912C9401220FC0
:10288000331F3A832983C901880D991DAC01495A28
:102890005A4F7A0120E04985612F81E00E94D00FD4
:1028A000F701608371838283FD81AF2EB12C950186
:1028B000220F331F3C832B83C9018A0D9B1DAC0162
:1028C000495A5A4F7A0120E04985612F81E00E94E0
:1028D000D00FF701608371838283FF81CF2ED12CCB
:1028E0009601220F331F3E832D83C9018C0D9D1D40
:1028F000AC01495A5A4F7A0120E04985612F81E0A5
:102900000E94D00FF701608371838283FB854F2E75
:10291000512C9201220F331F38872F83C901840D58
:10292000951DAC01495A5A4F7A0120E0498561E072
:1029300081E00E94D00FF7016083718382838091D0
:10294000870490918804892B09F475C020E049859B
:1029500065E084E00E94D00F609397047093980420
:102960008093990420E0498565E084E00E94D00FBF
:1029700060939A0470939B0480939C0420E04985A3
:102980006BE084E00E94D00F60939D0470939E04DE
:1029900080939F0420E049856BE084E00E94D00F83
:1029A0006093A0047093A1048093A20420E0498561
:1029B0006FE084E00E94D00F6093A3047093A4049E
:1029C0008093A50420E049856FE084E00E94D00F49
:1029D0006093A6047093A7048093A8048091420298
:1029E0008150990B7C01EE0CFF1C8E0D9F1D9C01EC
:1029F00029563B4F790120E049856FE084E00E9431
:102A0000D00FF701608371838283E0904202F12C42
:102A1000C701880F991FE80EF91E970129563B4FF1
:102A2000790120E049856BE084E00E94D00FF70136
:102A300060837183828380912D02893108F0DCC12B
:102A4000873108F0DCC165E18C3009F067E0F09176
:102A5000190DFB8780912802882309F4D2C18FEFDA
:102A600090E02985821B910970E00E947CAFF60FEF
:102A7000FB878091180D4B858417B8F0042F10E068
:102A800080917F047801EE0CFF1C813009F0C0C1F9
:102A90000E0D1F1D09561B4F4FEF65E082E00E948F
:102AA000F80FF80160837183828380912802882364
:102AB00009F4BDC18091190DFB858F17E8F42F2F04
:102AC0002150330BB9018091180D82171306A4F021
:102AD0007901EE0CFF1CE60EF71EA70149565B4F6D
:102AE0007A0100E020E04FEF60E082E00E94D00F2A
:102AF000F701608371838283F985F150F0930002BE
:102B0000F111A6C110927307109274079101260D5E
:102B1000371D295A3A4F3A87298700E020E04FEFC6
:102B200060E081E00E94D00FE985FA8560837183BF
:102B3000828329813A81280D391D295A3A4F3A83D7
:102B4000298320E04FEF60E081E00E94D00FE9810F
:102B5000FA816083718382832B813C812A0D3B1D26
:102B6000295A3A4F3A83298320E04FEF60E081E011
:102B70000E94D00FE981FA816083718382832D8165
:102B80003E812C0D3D1D295A3A4F3A83298320E07E
:102B90004FEF60E081E00E94D00FE981FA8160830D
:102BA000718382832F813885240D351D295A3A4F30
:102BB0003A83298320E04FEF60E081E00E94D00F4C
:102BC000E981FA816083718382830E94A96A0E94ED
:102BD000F45A8AE60E94555381E0809383042D962F
:102BE0000FB6F894DEBF0FBECDBFDF91CF911F911E
:102BF0000F91FF90EF90DF90CF90BF90AF909F909C
:102C00008F907F906F905F904F903F902F9008959E
:102C10004C855D85420F531F495A5A4F5D874C873B
:102C200000E020E04FEF60E081E00E94D00FEC85F3
:102C3000FD856083718382839301280D391D295A94
:102C40003A4F3D872C8720E04FEF60E081E00E9403
:102C5000D00FEC85FD8560837183828392012A0DFC
:102C60003B1D295A3A4F3D872C8720E04FEF60E00B
:102C700081E00E94D00FEC85FD85608371838283A3
:102C800091012C0D3D1D295A3A4F3D872C8720E09C
:102C90004FEF60E081E00E94D00FEC85FD856083FE
:102CA0007183828329853A852E0D3F1D295A3A4F1B
:102CB0003A87298720E04FEF60E081E00E94D00F43
:102CC000E985FA856083718382838091870490917E
:102CD0008804892B09F470C020E04FEF60E084E0A5
:102CE0000E94D00F60939704709398048093990486
:102CF00020E04FEF60E084E00E94D00F60939A04E0
:102D000070939B0480939C0420E04FEF60E084E08C
:102D10000E94D00F60939D0470939E0480939F0443
:102D200020E04FEF60E084E00E94D00F6093A004A9
:102D30007093A1048093A20420E04FEF60E084E050
:102D40000E94D00F6093A3047093A4048093A50401
:102D500020E04FEF60E084E00E94D00F6093A60473
:102D60007093A7048093A804809142028150990B2C
:102D70009C01220F331F280F391F29563B4F3A87DA
:102D8000298720E04FEF60E084E00E94D00FE985C2
:102D9000FA856083718382838091420290E09C0176
:102DA000220F331F280F391F29563B4F3A87298797
:102DB00020E04FEF60E003CCA5987398809102016A
:102DC000877F80930201809102018F7E80930201B0
:102DD000809102018F7D80930201809102018F7B9F
:102DE000809302012C982D980ACD4EE150E060E0CE
:102DF00070E085E797E016CD8A3109F027CE69E0CB
:102E000026CE89850E945CAF3B85380F3B8731CE4B
:102E1000E00EF11E970129563B4F790100E020E0BA
:102E20004FEF65E082E00E94D00FF7013BCE80912A
:102E3000180DFB85F81708F05FCEEF2EF12C2FEF61
:102E4000E21AF20AC701880F991FE80EF91E45CE53
:102E500045E050E060E070E08BE697E02D960FB61D
:102E6000F894DEBF0FBECDBFDF91CF911F910F91C0
:102E7000FF90EF90DF90CF90BF90AF909F908F909A
:102E80007F906F905F904F903F902F900C946B9835
:102E90004F925F926F927F928F929F92AF92BF926A
:102EA000CF92DF92EF92FF920F931F93CF93DF9316
:102EB00000D000D000D01F921F92CDB7DEB7809116
:102EC0001506909116060197039710F40E9412843C
:102ED00080918304882309F486C28CEF96E00E94D7
:102EE0003B98882309F435C280918204882309F431
:102EF00030C281E090E00E949A88BC01990F880B53
:102F0000990B0E9471AA20E030E543EC57E40E943F
:102F100089AC6093CA067093CB068093CC069093DD
:102F2000CD0684E090E00E949A88BC01990F880B3E
:102F3000990B0E9471AA9B01AC01609115077091D9
:102F4000160780911707909118070E94D0AA6093E6
:102F5000CE067093CF068093D0069093D10682E080
:102F600090E00E949A88BC0181708093220761FBE7
:102F7000882780F980932107A3E076956795AA9525
:102F8000E1F790E080E00E946FAA2FE632E143E88B
:102F90005BE30E94D0AA6093D2067093D30680931D
:102FA000D4069093D50683E090E00E949A88BC01F5
:102FB000990F880B990B0E9471AA9B01AC0160913B
:102FC000190770911A0780911B0790911C070E94A6
:102FD000D0AA6093DA067093DB068093DC069093A8
:102FE000DD062091CA063091CB064091CC06509167
:102FF000CD066091D2067091D3068091D40690914F
:10300000D5060E9418AC6093D6067093D7068093BD
:10301000D8069093D9062091CE063091CF064091E4
:10302000D0065091D1060E94D0AA6B017C01C092BB
:10303000E206D092E306E092E406F092E5062DEC7B
:103040003CEC4CE45FE36091E6067091E70680910A
:10305000E8069091E9060E94D0AA4B015C012DEC94
:103060003CEC4CE45EE3C701B6010E94D0AA9B0190
:10307000AC01C501B4010E9418AC6093E6067093E0
:10308000E7068093E8069093E9060E940C8C6B019A
:103090007C018091F4069091F506A091F606B0911E
:1030A000F706A7019601281B390B4A0B5B0BCA01D7
:1030B000B9016093F8067093F9068093FA0690932D
:1030C000FB060E946FAA2091CE063091CF06409158
:1030D000D0065091D1060E94D0AA20E03AEB4BE5F1
:1030E0005AE40E9489AC2091DE063091DF064091BF
:1030F000E0065091E1060E9418AC6093DE067093E2
:10310000DF068093E0069093E106C092F406D09229
:10311000F506E092F606F092F70660911F077091AF
:10312000200785E090E00E94FE8660911D07709167
:103130001E0790E080E00E94FE868091510390E09F
:10314000019664E170E00E947CAF8093510380910E
:103150001A048111BAC180918B038111B6C1C0904C
:10316000E606D090E706E090E806F090E9060E94B7
:103170000C8C688779878A879B874090EA065090F5
:10318000EB066090EC067090ED0629E23CE54FE816
:103190005EE3C301B2010E9417AC4B015C012DEC50
:1031A0003CEC4CE45EE3C301B2010E9418AC2B017D
:1031B0003C01A5019401C701B6010E946AAA87FDDE
:1031C00009C0A3019201C701B6010E9469AD18169A
:1031D0000CF03BC18091F0069091F106A091F206AF
:1031E000B091F306892B8A2B8B2B61F48885998506
:1031F000AA85BB858093F0069093F106A093F20612
:10320000B093F3068091F0069091F106A091F2063A
:10321000B091F306288539854A855B85281B390BD3
:103220004A0B5B0BDA01C90180359105A105B10597
:1032300008F468C0C092EA06D092EB06E092EC0671
:10324000F092ED0626E636E646E25FE3C701B601F8
:103250000E9469AD1816FCF411E010935F03809191
:103260001804909119040197D1F080E00E94BD0CE0
:103270001093500381E20E9459558BE00E945955EA
:1032800084E30E94595548EE53E060E070E086E028
:1032900097E00E946B9880915F03882399F1809159
:1032A000180490911904892B69F1A3019201C701B7
:1032B000B6010E9469AD1816ACF480911304811117
:1032C0000C94324986E097E00E94F597672B682BB3
:1032D000692B41F485E08093130281E08093B80369
:1032E0000E94659BA5019401C701B6010E946AAACC
:1032F00087FF08C080911304882321F00E940059A1
:103300000E945F568091510381110DC020E030E092
:1033100048EC52E4C701B6010E94D0AA0E94FBAC5F
:103320008AE40E9433558091180490911904892BE6
:1033300021F080915F03811191C010925003409160
:10334000EE065091EF0670E060E08CEF96E00E9490
:103350006B9880EC96E00E943B98882309F443C068
:103360008EE580937C0080917A00806480937A005F
:1033700080917A0086FDFCCF209178003091790011
:1033800050E040E065EA77E681E190E00E94D6AB4C
:10339000CA01B9016B5F7F4F8F4F9F4F2AE030E02A
:1033A00040E050E00E94D6ABCA01B9010E9471AA68
:1033B000609396067093970680939806909399066B
:1033C00020911C04222329F00E94FBAC89E40E9476
:1033D00033554091B2065091B30670E060E080EC46
:1033E00096E00E946B9881EB97E00E94E090882322
:1033F00021F11091BF09112301F180910F0C882355
:1034000091F080911A04882311F40C943E49409164
:10341000070C5091080C6091090C70910A0C87E020
:103420009CE00E946B98123011F40C94B83B08F0A9
:103430007EC0113011F40C94464980911A048823FF
:1034400011F40C9473490C94D63B1092F006109230
:10345000F1061092F2061092F30654CF26E636E6F5
:1034600046E25FE3C701B6010E946AAA18160CF48F
:1034700066CF80911304882321F00E9400590E9496
:103480005F5610925F038091180490911904892B64
:1034900059F01092500381E090E09093850480935E
:1034A000840485E30E9459551092F0061092F106AB
:1034B0001092F2061092F306C092EA06D092EB0642
:1034C000E092EC06F092ED063ACF1092F0061092E0
:1034D000F1061092F2061092F3061092EA0610928C
:1034E000EB061092EC061092ED06809150038823B3
:1034F00009F425CF8091180490911904892B09F4BF
:103500001ECF10925F031092500381E090E09093E1
:1035100085048093840485E30E9459558DE10E94BF
:10352000595570E060E08AE40E94335508CF1430AA
:1035300011F40C94063C153009F07FCF80911A04E9
:10354000882311F40C947349AFEAB8E0E4ECF3E09B
:103550008D91819333E0E93DF307D1F782E50E9435
:1035600059536BCF0E9413580E944E85DD24D3948B
:10357000D0928B0310921A0410920F0C1092100C20
:103580008CE891E00E94420CEE24E39410E000E00D
:1035900020E04091240760E08CE891E00E944F0C0D
:1035A000609183046D2570E082E00E942F5380912A
:1035B000120481110E944C6C8091C203882351F047
:1035C00080911704811106C08091C303811102C04C
:1035D0000E941C668091950490919604019709F0D1
:1035E0005AC082E0809360032091880C3091890C4E
:1035F000232B09F04EC08093610380911D069091AA
:103600001E068330910509F44AC08530910509F4FE
:103610004AC0029709F045C081E08093630380911E
:103620001202882309F441C082E0809362038091F2
:103630001404882309F43BC082E080936B038091DB
:1036400033028823B1F182E08093670380911804EC
:1036500090911904892B79F182E080936403809121
:10366000130280936503E0919304F09194043197E1
:1036700081E0E730F10510F58827EE5BF44E8F4FBF
:103680000C9490AF5D1BA81BAA1BAC1BAE1BB01B00
:10369000B21B81E0B0CF81E080936003ACCF82E0C9
:1036A000BCCF83E0BACF84E0B8CF81E0BECF81E069
:1036B000C4CF81E0C9CF81E0D0CF82E080936603A0
:1036C00080911704811102C01092070280913C0280
:1036D0008093680380913B02809369038091270760
:1036E0008A3B11F0FF24F394F0926A0383E0809305
:1036F0000C0494E090930B04EDE0F4E0DF011D92E4
:103700008A95E9F7E0E6F3E0A1EBB7E08CE693E019
:1037100021912D938E179F07D9F78CE090E09A8323
:10372000898346E0BE016F5F7F4F81EB97E00E9487
:10373000659180911104882339F00E949E088111BF
:1037400003C087E00E94555384E00E94555375CE14
:1037500083E0B4CF84E0B2CF85E0B0CF86E0AECFD7
:1037600087E0ACCF88E0AACF10928B0381E08093F2
:103770001A0440E45FE160E070E087E09CE00E94B2
:103780006B988BE40E94595558CE81E080935F037B
:103790008091180490911904019731F080E00E9403
:1037A000BD0C84E30E94595585E00E94595545CED1
:1037B00010925F038091180490911904892B49F0AD
:1037C00081E090E0909385048093840485E30E94D7
:1037D000595586E00E94595587E10E9459552DCED2
:1037E00081E0809314028BE30E94595526CE1092FB
:1037F00014028CE30E94595520CE84E091E00E948F
:10380000420C85E091E00E94420CEE24E39410E02B
:1038100000E020E04091240760E084E091E00E9415
:103820004F0C0BCE85E091E00E94420C84E091E0C9
:103830000E94420CEE24E39410E000E020E040916E
:10384000240760E085E091E00E944F0CF6CD87E30D
:1038500091E00E94420C88E391E00E94420CEE2429
:10386000E39410E000E020E04091240760E088E36A
:1038700091E00E944F0CE1CD87E391E00E94420C61
:1038800088E391E00E94420CEE24E39410E000E013
:1038900020E04091240760E087E391E00E944F0C14
:1038A000CCCD809126028823E1F088E990E00E9447
:1038B000420C87E990E00E94420CEE24E39410E071
:1038C00000E020E04091240760E088E990E00E9459
:1038D0004F0C109226028FE30E9455530E946F55A1
:1038E000ACCD88E990E00E94420C87E990E00E940C
:1038F000420CEE24E39410E000E020E04091240725
:1039000060E087E990E00E944F0C81E080932602FE
:1039100080E4E2CF85E990E00E94420CEE24E3943B
:1039200010E000E020E04091240760E085E990E0AD
:103930000E944F0C82CD86E990E00E94420CEE245A
:10394000E39410E000E020E04091240760E086E985
:1039500090E00E944F0C71CD8091120481116DCDC9
:10396000409124074451EE24E39410E000E020E06D
:1039700060E086E190E00E944F0C5FCD80911204E0
:1039800081115BCD809113028330A9F198F48130CD
:1039900021F1823009F051CD409124074451EE24A9
:1039A000E39410E000E020E061E083E190E00E9419
:1039B0004F0C43CD843069F1853009F03ECD409104
:1039C00024074451EE24E39410E000E020E061E09D
:1039D00086E190E00E944F0C30CD40912407445185
:1039E000EE24E39410E000E020E061E082E190E06A
:1039F0000E944F0C22CD409124074451EE24E394C1
:103A000010E000E020E061E084E190E00E944F0CD3
:103A100014CD409124074451EE24E39410E000E0DB
:103A200020E061E085E190E00E944F0C06CD0E940D
:103A30004E8503CD66E082E190E00E948F8166E0D2
:103A400083E190E00E948F8166E084E190E00E9433
:103A50008F8166E085E190E00E948F8166E086E1DB
:103A600090E00E948F81E9CC80E490E00E94420CBB
:103A7000EE24E39410E000E020E04091240760E0B1
:103A800080E490E00E944F0CD8CC8BEF90E00E9435
:103A9000420CEE24E39410E000E020E04091240783
:103AA00060E08BEF90E00E944F0CC7CC8BEF90E072
:103AB0000E94420CC2CC8CEF90E00E94420CBDCC24
:103AC0008CEF90E00E94420CEE24E39410E000E0C2
:103AD00020E04091240760E08CEF90E00E944F0CC2
:103AE000ACCCE12C10E000E020E04091240760E045
:103AF00084E490E00E944F0CA0CCE12C10E000E0A8
:103B000020E04091240760E083E490E00E944F0CA5
:103B100020E04091240760E08FE390E00E944F0C8A
:103B20008CCC81E190E00E94420CEE24E39410E002
:103B300000E020E04091240760E081E190E00E94F5
:103B40004F0C7BCC8EE591E00E94420CEE24E39476
:103B500010E000E020E04091240760E08EE591E075
:103B60000E944F0C6ACC8CE491E00E94420C89E4E4
:103B700091E00E94420CEE24E39410E000E020E08B
:103B80004091240760E089E491E00E944F0C55CCFD
:103B90008CE491E00E94420CEE24E39410E000E0FB
:103BA00020E04091240760E08CE491E00E944F0CFB
:103BB00044CC8CE491E00E94420C8DE491E00E94A0
:103BC000420CEE24E39410E000E020E04091240752
:103BD00060E08DE491E00E944F0C2FCC8DE891E0E5
:103BE0000E94420CEE24E39410E000E020E04091BB
:103BF000240760E08DE891E00E944F0C1ECC81EB21
:103C000090E00E94420CEE24E39410E000E020E0FB
:103C10004091240760E081EB90E00E944F0C0DCCB6
:103C200086E991E00E94420CEE24E39410E000E06B
:103C300020E04091240760E086E991E00E944F0C6B
:103C4000FCCB80E990E00E94420CF7CB0E94135815
:103C50008091150690911606029769F40091240749
:103C6000045125E030E041E06EE870E08DE890E03E
:103C70000E949A83E2CB8DE890E00E94420C409132
:103C800024074451EE24E39410E000E020E060E0DB
:103C90008DE890E00E944F0CD0CB8091150690915A
:103CA0001606029769F400912407045125E030E0DC
:103CB00041E060E970E08FE890E00E949A8311C0D3
:103CC0008FE890E00E94420C409124074451EE247A
:103CD000E39410E000E020E060E08FE890E00E94D4
:103CE0004F0C8DE890E00E94420C8EE890E00E941C
:103CF000420C81E990E00E94420C82E990E00E942F
:103D0000420C84E990E00E94420C97CB809115060A
:103D100090911606029759F400912407045125E06A
:103D200030E041E060E970E083E990E0C6CF83E9EC
:103D300090E00E94420C409124074451EE24E39409
:103D400010E000E020E060E083E990E0C8CF8091DF
:103D5000150690911606029709F46FCB8EE890E055
:103D60000E94420C409124074451EE24E39410E059
:103D700000E020E061E08EE890E00E944F0C5DCB17
:103D80008091150690911606029709F456CB80E9AA
:103D900090E00E94420C409124074451EE24E394A9
:103DA00010E000E020E061E080E990E00E944F0C2C
:103DB00044CB8091150690911606029769F4009104
:103DC0002407045125E030E041E06EE870E082E92C
:103DD00090E00E949A8331CB82E990E00E94420CED
:103DE000409124074451EE24E39410E000E020E0E9
:103DF00060E082E990E00E944F0C1FCB84E990E0E4
:103E00000E94420C409124074451EE24E39410E0B8
:103E100000E020E060E084E990E00E944F0C0DCBD0
:103E200081E990E00E94420C409124074451EE2425
:103E3000E39410E000E020E060E081E990E00E947F
:103E40004F0CFBCA0E941358F8CA40912407809176
:103E50002902E12C10E000E020E060E08823C9F0B6
:103E60008BE991E00E944F0C80918B0490918C041F
:103E7000029709F0E2CA80913302882309F4DDCA6F
:103E80004EE551E060E070E082E59CE00E946B98B6
:103E9000D4CA85E791E0E6CFE12C10E000E020E015
:103EA0004091240760E08AE591E00E944F0C8091E8
:103EB0008B0490918C04029709F0BFCA8091330261
:103EC000882309F4BACA4CE251E060E070E082E570
:103ED0009CE00E946B98B1CAE12C10E000E020E069
:103EE0004091240760E089E591E00E944F0CA5CA4B
:103EF000E12C10E000E020E04091240760E08BE539
:103F000091E00E944F0C80918B0490918C04029759
:103F100009F093CA80913302882309F48ECA48ECD1
:103F200050E060E070E082E59CE00E946B9885CAFA
:103F3000E12C10E000E020E04091240760E086E4FE
:103F400091E00E944F0C79CA9091130481E0CA94C9
:103F5000CD2869F48093B803992331F09091BB0385
:103F6000911102C08093BB030E94659B66CA809337
:103F7000B9039923C9F39091BA039111F5CF8093B6
:103F8000BA03F2CF80911304882309F456CA0E9421
:103F900000590E945F5651CAC6010E945B574DCA24
:103FA00080911D0690911E06059709F446CA0E944D
:103FB0004B57EE24E39404EC19E021E040912407F0
:103FC00061E08BE691E00E944F0C37CA0E94735A61
:103FD00034CA80911506909116060197029748F40D
:103FE0008091930490919404039719F481E00E94C6
:103FF00099A90E94C55E8823D9F00E94485B0E945F
:10400000185B80911D0690911E060497029780F41C
:1040100044E650E0609124078FE090E00E94FD8329
:1040200044E650E06091240780E190E00E94FD8327
:1040300080911804909119040197F1F480919304F0
:1040400090919404892BC1F082E390E00E94420C8D
:1040500087E390E00E94420C87E491E00E94420CCA
:10406000EE24E39410E000E020E04091240760E0BB
:1040700086E090E00E944F0C1092940410929304FA
:1040800080915303882371F0EE24E39410E000E064
:1040900020E04091240760E088E290E00E944F0C0D
:1040A000109253038091210281110E94839D80917F
:1040B0002202882351F080911704882331F081E097
:1040C0008093880380E00E944E650E94E5678BE044
:1040D0000E945955B2C98091150690911606019714
:1040E000029748F48091930490919404039719F4F3
:1040F00081E00E9499A98091180490911904019778
:1041000009F041C080919304909194040297D9F1F1
:1041100082E390E00E94420C87E390E00E94420C10
:1041200087E491E00E94420CEE24E39410E000E06A
:1041300020E04091240760E080E390E00E944F0C73
:104140000CEB12E021E04091240761E082E390E073
:104150000E944F0C80911D0690911E0604970297B5
:1041600090F4609124076E5144E650E08FE090E0B7
:104170000E94FD8360912407685244E650E080E18C
:1041800090E00E94FD8382E090E0909394048093FD
:10419000930480915303882371F0EE24E39410E09C
:1041A00000E020E04091240760E088E290E00E9477
:1041B0004F0C1092530380912102882331F00E940A
:1041C000485B0E94185B0E94839D80912202882395
:1041D00051F080911704882331F081E080938803A7
:1041E00080E00E944E650E94E5678DE00E9459556F
:1041F00024C980911506909116060197029748F4FC
:104200008091930490919404039719F481E00E94A3
:1042100099A90E94C55E8823D9F00E94485B0E943C
:10422000185B80911D0690911E060497029780F4FA
:1042300044E650E0609124078FE090E00E94FD8307
:1042400044E650E06091240780E190E00E94FD8305
:104250008091180490911904019741F5809193047D
:1042600090919404019711F182E390E00E94420C36
:1042700087E390E00E94420C87E491E00E94420CA8
:10428000EE24E39410E000E020E04091240760E099
:1042900085E490E00E944F0C00ED17E021E0409192
:1042A000240761E087E390E00E944F0C81E090E0FA
:1042B000909394048093930480915303882371F026
:1042C000EE24E39410E000E020E04091240760E059
:1042D00088E290E00E944F0C1092530380912102DB
:1042E00081110E94839D80912202882351F0809148
:1042F0001704882331F081E08093880380E00E94D6
:104300004E650E94E5678CE00E94595596C80E9450
:10431000C55E8823D9F00E94485B0E94185B80919B
:104320001D0690911E060497029780F444E650E023
:10433000609124078FE090E00E94FD8344E650E006
:104340006091240780E190E00E94FD838091180431
:1043500090911904019741F58091930490919404F0
:10436000039711F182E390E00E94420C87E390E012
:104370000E94420C87E491E00E94420CEE24E394F8
:1043800010E000E020E04091240760E086E490E047
:104390000E944F0C02EE14E021E04091240761E0FE
:1043A00087E491E00E944F0C83E090E090939404A6
:1043B0008093930480915303882371F0EE24E39457
:1043C00010E000E020E04091240760E088E290E007
:1043D0000E944F0C1092530380911506909116067F
:1043E0000197029718F480E00E9499A98091210218
:1043F00081110E94839D80912202882351F0809137
:104400001704882331F081E08093880380E00E94C4
:104410004E650E94E5678EE00E9459550EC8809156
:104420001506909116060197029748F4809193041F
:1044300090919404039719F481E00E9499A90E9435
:10444000C55E8823D9F00E94485B0E94185B80916A
:104450001D0690911E060497029780F444E650E0F2
:10446000609124078FE090E00E94FD8344E650E0D5
:104470006091240780E190E00E94FD838091180400
:10448000909119040197F1F4809193049091940410
:104490000497C1F082E390E00E94420C87E390E031
:1044A0000E94420C87E491E00E94420CEE24E394C7
:1044B00010E000E020E04091240760E086E090E01A
:1044C0000E944F0C84E090E09093940480939304B6
:1044D00080915303882371F0EE24E39410E000E010
:1044E00020E04091240760E088E290E00E944F0CB9
:1044F000109253038091210281110E94839D80912B
:104500002202882351F080911704882331F081E042
:104510008093880380E00E944E650E94E5678FE0EB
:104520000E9459550C941D1A8091150690911606FB
:104530000197029748F48091930490919404039713
:1045400019F481E00E9499A90E94C55E8823D9F0E0
:104550000E94485B0E94185B80911D0690911E0688
:104560000497029780F444E650E0609124078FE0BE
:1045700090E00E94FD8344E650E06091240780E1D2
:1045800090E00E94FD838091180490911904019796
:10459000C1F482E390E00E94420C87E390E00E9425
:1045A000420C87E491E00E94420CEE24E39410E078
:1045B00000E020E04091240760E087E991E00E945C
:1045C0004F0C85E090E09093940480939304809145
:1045D0005303882371F0EE24E39410E000E020E020
:1045E0004091240760E088E290E00E944F0C109216
:1045F00053038091210281110E94839D80912202A8
:10460000882351F080911704882331F081E0809352
:10461000880380E00E944E650E94E567B60180E154
:104620000E9433550C941D1A809115069091160620
:104630000197029748F48091930490919404039712
:1046400019F481E00E9499A90E94C55E8823D9F0DF
:104650000E94485B0E94185B80911D0690911E0687
:104660000497029780F444E650E0609124078FE0BD
:1046700090E00E94FD8344E650E06091240780E1D1
:1046800090E00E94FD838091180490911904019795
:10469000C1F482E390E00E94420C87E390E00E9424
:1046A000420C87E491E00E94420CEE24E39410E077
:1046B00000E020E04091240760E088E991E00E945A
:1046C0004F0C86E090E09093940480939304809143
:1046D0005303882371F0EE24E39410E000E020E01F
:1046E0004091240760E088E290E00E944F0C109215
:1046F00053038091210281110E94839D80912202A7
:10470000882351F080911704882331F081E0809351
:10471000880380E00E944E650E94E567B60181E152
:104720000E9433550C941D1A80911506909116061F
:104730000197029748F48091930490919404039711
:1047400019F481E00E9499A90E94C55E8823D9F0DE
:104750000E94485B0E94185B80911D0690911E0686
:104760000497029780F444E650E0609124078FE0BC
:1047700090E00E94FD8344E650E06091240780E1D0
:1047800090E00E94FD838091180490911904019794
:10479000F1F480919304909194040797C1F082E31F
:1047A00090E00E94420C87E390E00E94420C87E474
:1047B00091E00E94420CEE24E39410E000E020E03F
:1047C0004091240760E086E090E00E944F0C87E073
:1047D00090E09093940480939304809153038823F2
:1047E00071F0EE24E39410E000E020E04091240713
:1047F00060E088E290E00E944F0C10925303809199
:10480000210281110E94839D80912202882351F010
:1048100080911704882331F081E08093880380E041
:104820000E944E650E94E56782E10E9459530C94F4
:104830001D1AEE24E39410E000E020E040912407EC
:1048400060E088E290E00E944F0C81E08093530387
:1048500083E10E9459550C941D1A80918704909110
:1048600088048130910551F1029709F447C081E035
:1048700090E0909388048093870481E991E00E94FE
:10488000420C82E991E00E94420C88E791E00E948C
:10489000420CEE24E39410E000E020E04091240775
:1048A00060E081E991E00E944F0C86E60E9455533A
:1048B0000E9481550E948E550C941D1A82E090E052
:1048C000909388048093870481E991E00E94420CD0
:1048D00082E991E00E94420C88E791E00E94420C3C
:1048E000EE24E39410E000E020E04091240760E033
:1048F00082E991E00E944F0C87E6D8CF109288049D
:104900001092870481E991E00E94420C82E991E0D3
:104910000E94420C88E791E00E94420CEE24E3944E
:1049200010E000E020E04091240760E088E791E09B
:104930000E944F0C85E6BACF8091270291E089272B
:10494000809327028823C9F080EA91E00E94420CFC
:1049500081EA91E00E94420CEE24E39410E000E032
:1049600020E04091240760E081EA91E00E944F0C32
:104970008EE30E9455530C941D1A80EA91E00E9428
:10498000420C81EA91E00E94420CEE24E39410E094
:1049900000E020E04091240760E080EA91E00E947E
:1049A0004F0C8DE30E9455530C941D1A0E94825B9C
:1049B0000C941D1A83E591E00E94420C82E390E082
:1049C0000E94420C88E591E00E94420CEE24E394A0
:1049D00010E000E020E04091240760E087E591E0EE
:1049E0000E944F0C80919304909194040297C9F413
:1049F00020E04091240760E083E591E00E944F0CA5
:104A000081E08093BC0340E050E0BA0188E49CE080
:104A10000E946B980E945F5684E10E9459550C9445
:104A20001D1A1092230C1092240C42E350E060E017
:104A300070E081E19CE00E946B98E2CF0E945F569B
:104A40008BE10E9459550C941D1A209111029091EE
:104A50000E0280910D0240911D0650911E0642509B
:104A6000510942305105A0F0293018F42F5F2093EE
:104A70001102993018F49F5F90930E02863018F45B
:104A80008F5F80930D028CE10E9459550C941D1A82
:104A90002F5F209311029F5F90930E02F1CF409100
:104AA000240780911D0690911E060497EE24E3943E
:104AB00010E000E020E061E0029730F48AE691E047
:104AC0000E944F0C0C941D1A8CE390E00E944F0C36
:104AD0000C941D1A81E080931302809113048823A3
:104AE00019F18091460C882351F0ECEFF8E04591E4
:104AF000549170E060E08EE39CE00E946B9880919E
:104B00001D0690911E060497029770F4609113029F
:104B100070E088E99AE30E9468AFAB0170E060E062
:104B200080E495E10E946B988DE10E9459550C94A8
:104B30001D1A82E08093130280911304882319F1D7
:104B40008091460C882351F0EEEFF8E045915491A6
:104B500070E060E08EE39CE00E946B9880911D06FF
:104B600090911E060497029770F46091130270E012
:104B700088E99AE30E9468AFAB0170E060E080E4EE
:104B800095E10E946B988EE10E9459550C941D1A74
:104B900083E08093130280911304882319F180919C
:104BA000460C882351F0E0E0F9E04591549170E023
:104BB00060E08EE39CE00E946B9880911D069091CE
:104BC0001E060497029770F46091130270E088E962
:104BD0009AE30E9468AFAB0170E060E080E495E189
:104BE0000E946B988FE10E9459550C941D1A84E025
:104BF0008093130280911304882319F18091460C4D
:104C0000882351F0E2E0F9E04591549170E060E0D2
:104C10008EE39CE00E946B9880911D0690911E0689
:104C20000497029770F46091130270E088E99AE3A8
:104C30000E9468AFAB0170E060E080E495E10E9403
:104C40006B9880E20E9459550C941D1A85E0809360
:104C5000130280911304882319F18091460C882354
:104C600051F0E4E0F9E04591549170E060E08EE3AA
:104C70009CE00E946B9880911D0690911E060497FF
:104C8000029770F46091130270E088E99AE30E9441
:104C900068AFAB0170E060E080E495E10E946B9842
:104CA00081E20E9459550C941D1A81E00E940D9BCF
:104CB0000C941D1A82E00E940D9B0C941D1A83E037
:104CC0000E940D9B0C941D1A84E00E940D9B0C9475
:104CD0001D1A85E00E940D9B0C941D1A81E00E9414
:104CE000B59A0C941D1A82E00E94B59A0C941D1A74
:104CF00083E00E94B59A0C941D1A84E00E94B59A34
:104D00000C941D1A85E00E94B59A0C941D1A81E03E
:104D10008093B80380911304882311F40C941D1A16
:104D20008091BB0381110C941D1A4091240780913E
:104D30001D0690911E06E12C10E000E020E061E0ED
:104D4000029749F489E891E00E944F0C81E080933A
:104D5000BB030C941D1A82E690E0F6CF8091B80355
:104D6000882351F080911D0690911E06029751F400
:104D700089E891E00E94420C1092B8031092BB03A4
:104D80000C941D1A82E690E0F5CF81E08093B90380
:104D900090911304992311F40C941D1A9091BA0365
:104DA00091110C941D1A8093BA03809113028530DF
:104DB000D9F080911D0690911E06039711F583E6A8
:104DC00090E00E94420C4091240780911D06909132
:104DD0001E06E12C10E000E020E061E00297A1F463
:104DE00089E891E00E944F0CE12C10E000E020E007
:104DF0004091240761E088E490E00E944F0C0C94FD
:104E00001D1A8EE791E0DDCF82E690E0EBCF809136
:104E1000B903882319F188E490E00E94420C809144
:104E200013028530D9F080911D0690911E060297DD
:104E3000D9F489E891E00E94420C409124078091C6
:104E40001D0690911E06E12C10E000E020E061E0DC
:104E5000039769F483E690E00E944F0C1092B90327
:104E60001092BA030C941D1A82E690E0E4CF8FE70B
:104E700091E0F2CF10929204109291041092A50743
:104E80001092A6078091150690911606039721F4BB
:104E90008AE490E00E94420CE12C10E000E020E067
:104EA0004091240760E08AE490E00E944F0C0C944B
:104EB0001D1A81E090E090939204809391041092E7
:104EC000A5071092A60780911506909116060397E4
:104ED00021F48EE690E00E94420CE12C10E000E00C
:104EE00020E04091240760E08EE690E00E944F0CA5
:104EF0000C941D1A10929204109291041092A5071E
:104F00001092A6078091150690911606039741F41A
:104F100089E490E00E94420C8AE490E00E94420CF6
:104F2000E12C10E000E020E04091240760E08AE4FA
:104F300090E00E944F0C0C941D1A81E090E0909339
:104F40009204809391041092A5071092A607809175
:104F5000150690911606039741F48FE690E00E94A3
:104F6000420C8EE690E00E94420CE12C10E000E042
:104F700020E04091240760E08EE690E00E944F0C14
:104F80000C941D1A82E090E0909392048093910417
:104F9000809129028823C1F00E9412AA28E030E003
:104FA00040E050E00E94D6AB9B01AC01295F3F4F2F
:104FB0004F4F5F4FA8EEB3E00E94F5ABAB01BC01D1
:104FC0008DE997E00E946B988091150690911606E6
:104FD000039741F48AE490E00E94420C89E490E057
:104FE0000E94420CE12C10E000E020E040912407F8
:104FF00060E089E490E00E944F0C0C941D1A82E05E
:1050000090E09093920480939104809129028823E8
:10501000C1F00E9412AA28E030E040E050E00E9477
:10502000D6AB9B01AC01295F3F4F4F4F5F4FA8EEBE
:10503000B3E00E94F5ABAB01BC018DE997E00E94A3
:105040006B988091150690911606039741F48EE6B1
:1050500090E00E94420C8FE690E00E94420CE12C0E
:1050600010E000E020E04091240760E08FE690E04F
:105070000E944F0C0C941D1A81E080937D040E94C5
:10508000F2990C941D1A88E290E00E94420CEE24E2
:10509000E39410E000E020E04091240760E088E223
:1050A00090E00E944F0C88E590E00E94420C85E65B
:1050B00090E00E94420C89E590E00E94420C20E0C2
:1050C0004091240760E089E590E00E944F0C0C9429
:1050D0001D1A88E290E00E94420CEE24E39410E056
:1050E00000E020E04091240760E088E290E00E9428
:1050F0004F0C89E590E00E94420C85E690E00E940A
:10510000420C88E590E00E94420C20E04091240788
:1051100060E088E590E00E944F0C0C941D1A88E234
:1051200090E00E94420CEE24E39410E000E020E0C6
:105130004091240760E088E290E00E944F0C89E5EE
:1051400090E00E94420C88E590E00E94420C85E6C7
:1051500090E00E94420C20E04091240760E085E648
:1051600090E00E944F0C0C941D1A8AE990E00E9476
:10517000420C89E990E00E94420CEE24E39410E096
:1051800000E020E04091240760E089E990E00E947F
:105190004F0C0C941D1A8AE990E00E94420C89E998
:1051A00090E00E94420CEE24E39410E000E020E046
:1051B0004091240760E08AE990E00E944F0C0C9433
:1051C0001D1A80E490E00E94420CEE24E39410E06B
:1051D00000E020E04091240760E080E490E00E943D
:1051E0004F0C8CE690E00E94420C8AE690E00E9410
:1051F000420C8BE690E00E94420C8AE491E00E940F
:10520000420C20E04091240760E08BE690E00E9491
:105210004F0C0C941D1A80E490E00E94420CEE2486
:10522000E39410E000E020E04091240760E080E497
:1052300090E00E944F0C8CE690E00E94420C8AE6BF
:1052400090E00E94420C8BE690E00E94420C8AE4BF
:1052500091E00E94420C20E04091240760E08AE641
:1052600090E00E944F0C0C941D1A80E490E00E9484
:10527000420CEE24E39410E000E020E0409124078B
:1052800060E080E490E00E944F0C8CE690E00E9489
:10529000420C8AE690E00E94420C8BE690E00E946D
:1052A000420C8AE491E00E94420C20E040912407E5
:1052B00060E08CE690E00E944F0C0C941D1A80E494
:1052C00090E00E94420CEE24E39410E000E020E025
:1052D0004091240760E080E490E00E944F0C8CE64F
:1052E00090E00E94420C8AE690E00E94420C8BE61D
:1052F00090E00E94420C8AE491E00E94420C20E07F
:105300004091240760E08AE491E00E944F0C809174
:10531000BC0C9091BD0C892B29F489E00E94555357
:105320000C941D1A8AE00E9455530C941D1A80E4B7
:1053300090E00E94420CEE24E39410E000E020E0B4
:105340004091240760E080E490E00E944F0C80913F
:105350008B0490918C048330910509F45BC08530F7
:10536000910509F48AC0019771F582E090E090936D
:105370008C0480938B0481E08093330288E690E074
:105380000E94420C86E690E00E94420C87E690E084
:105390000E94420C8CE991E00E94420C20E0409176
:1053A000240760E088E690E00E944F0C85E10E94AF
:1053B00055534AEF50E060E070E082E59CE00E94C7
:1053C0006B980C941D1A83E090E090938C0480936A
:1053D0008B0488E690E00E94420C86E690E00E94F2
:1053E000420C87E690E00E94420C8CE991E00E941A
:1053F000420CEE24E39410E000E020E0409124070A
:1054000060E087E690E00E944F0C84E10E945553D3
:105410000C941D1A85E090E090938C0480938B048B
:105420008091BC0C9091BD0C892B21F581E080937B
:10543000330288E690E00E94420C86E690E00E94EB
:10544000420C87E690E00E94420C8CE991E00E94B9
:10545000420CEE24E39410E000E020E040912407A9
:1054600060E08CE991E00E944F0C87E10E94555367
:105470000C941D1A10923302DCCF81E090E09093DF
:105480008C0480938B048093330288E690E00E9422
:10549000420C86E690E00E94420C87E690E00E9473
:1054A000420C8CE991E00E94420CEE24E39410E05F
:1054B00000E020E04091240760E086E690E00E9452
:1054C0004F0C83E10E9455534AEF50E060E070E0DA
:1054D00082E59CE00E946B980C941D1A80E490E099
:1054E0000E94420CEE24E39410E000E020E04091A2
:1054F000240760E080E490E00E944F0C80918D04CE
:1055000090918E048230910509F4C0C0E0F50197B6
:1055100009F482C081E090E090938E0480938D0422
:1055200090938C0480938B048093330288E690E000
:105530000E94420C86E690E00E94420C87E690E0D2
:105540000E94420C8BE491E00E94420C8CE991E0B5
:105550000E94420CEE24E39410E000E020E0409131
:10556000240760E086E690E00E944F0C83E10E94F1
:1055700055534AEF50E060E070E082E59CE00E9405
:105580006B980C941D1A8330910509F4AEC00597F1
:1055900009F684E090E090938E0480938D0482E07D
:1055A00090E090938C0480938B048091BC0C90913C
:1055B000BD0C892B09F0D4C081E08093330288E6CA
:1055C00090E00E94420C86E690E00E94420C87E642
:1055D00090E00E94420C8BE491E00E94420C8CE926
:1055E00091E00E94420CEE24E39410E000E020E001
:1055F0004091240760E08BE491E00E944F0C86E12B
:105600000E9455534AEF50E060E070E082E59CE074
:105610000E946B980C941D1A82E090E090938E0487
:1056200080938D0490938C0480938B0481E080930D
:10563000330288E690E00E94420C86E690E00E94E9
:10564000420C87E690E00E94420C8BE491E00E94BD
:10565000420C8CE991E00E94420CEE24E39410E0AD
:1056600000E020E04091240760E088E690E00E949E
:105670004F0C85E10E9455534AEF50E060E070E026
:1056800082E59CE00E946B980C941D1A83E090E0E8
:1056900090938E0480938D0490938C0480938B045C
:1056A00088E690E00E94420C86E690E00E94420C60
:1056B00087E690E00E94420C8BE491E00E94420C4D
:1056C0008CE991E00E94420CEE24E39410E000E0AB
:1056D00020E04091240760E087E690E00E944F0CB4
:1056E00084E10E9455530C941D1A85E090E090933C
:1056F0008E0480938D0490938C0480938B0480910E
:10570000BC0C9091BD0C892B41F581E08093330254
:1057100088E690E00E94420C86E690E00E94420CEF
:1057200087E690E00E94420C8BE491E00E94420CDC
:105730008CE991E00E94420CEE24E39410E000E03A
:1057400020E04091240760E08CE991E00E944F0C3A
:1057500087E10E9455530C941D1A10923302D8CF42
:10576000109233022CCF80912502882339F11092B8
:1057700025028CE290E00E94420C85E590E00E94B8
:10578000420C84E590E00E94420CEE24E39410E089
:1057900000E020E04091240760E08CE290E00E946D
:1057A0004F0C20E04091240760E085E590E00E94E6
:1057B0004F0C80E20E9455530C941D1A81E0809397
:1057C00025028DE390E00E94420C84E590E00E9467
:1057D000420C85E590E00E94420CEE24E39410E038
:1057E00000E020E04091240760E08DE390E00E941B
:1057F0004F0C20E04091240760E084E590E00E9497
:105800004F0C81E20E9455530C941D1A809128027E
:10581000882339F11092280280E490E00E94420C23
:10582000EE24E39410E000E020E04091240760E0E3
:1058300080E490E00E944F0C86E590E00E94420CCC
:1058400087E590E00E94420C20E04091240760E050
:1058500087E590E00E944F0C82E20E9455530C9421
:105860001D1A81E0809328028FE390E00E94420C91
:10587000EE24E39410E000E020E04091240760E093
:105880008FE390E00E944F0C86E590E00E94420C6E
:1058900087E590E00E94420C20E04091240760E000
:1058A00086E590E00E944F0C83E20E9455530C94D1
:1058B0001D1A80911F028823D9F010921F028BE5D8
:1058C00090E00E94420C8AE590E00E94420CEE2497
:1058D000E39410E000E020E04091240760E08BE5D5
:1058E00090E00E944F0C85E20E9455530C941D1AC3
:1058F00081E080931F028BE590E00E94420C8AE5D4
:1059000090E00E94420CEE24E39410E000E020E0DE
:105910004091240760E08AE590E00E944F0C84E209
:105920000E9455530C941D1A80E790E00E94420C8F
:1059300081E790E00E94420C82E790E00E94420CD6
:1059400083E790E00E94420C90912102409124074D
:10595000809122029923A9F08823D9F11092210283
:1059600010922202EE24E39410E000E020E060E0D8
:1059700080E790E00E944F0C8BE10E9455530C94FD
:105980001D1A811112C081E080932202EE24E3945B
:1059900010E000E020E060E082E790E00E944F0C21
:1059A00089E10E9455530C941D1A81E080932102D5
:1059B00010922202EE24E39410E000E020E060E088
:1059C00083E790E00E944F0C8AE10E9455530C94AB
:1059D0001D1A81E080932202EE24E39410E000E09F
:1059E00020E060E081E790E00E944F0C88E10E9497
:1059F00055530C941D1A8DE590E00E94420C8CE5E5
:105A000090E00E94420CEE24E39410E000E020E0DD
:105A10004091240760E08DE590E00E944F0C0C94CB
:105A20001D1A8DE590E00E94420C8CE590E00E94EA
:105A3000420CEE24E39410E000E020E040912407C3
:105A400060E08CE590E00E944F0C0C941D1A8FE3EF
:105A500090E00E94420CEE24E39410E000E020E08D
:105A60004091240760E08FE390E00E944F0C85EFA7
:105A700090E00E94420C86EF90E00E94420C87EF7B
:105A800090E00E94420C88EF90E00E94420C89EF67
:105A900090E00E94420C20E04091240760E085EFF6
:105AA00090E00E944F0C0C941D1A8FE390E00E942E
:105AB000420CEE24E39410E000E020E04091240743
:105AC00060E08FE390E00E944F0C85EF90E00E9431
:105AD000420C86EF90E00E94420C87EF90E00E941B
