:100000000C94B2060C94E3060C94E3060C94E306FD
:100010000C94E3060C94E3060C94E3060C94E306BC
:100020000C94E3060C94E3060C94E3060C94E306AC
:100030000C94E3060C94E3060C94E3060C94E3069C
:100040000C94E3060C94E3060C94E3060C94E3068C
:100050000C94E3060C94E3060C94E3060C94FB7BEF
:100060000C94E3060C947D6B0C94536B0C94E30698
:100070000C94E3060C94E3060C94E3060C94E3065C
:100080000C94E3060C94E3060C94E3060C94E3064C
:100090000C94296B0C94FF6A0C94E3060C949C114D
:1000A0000C94E3060C94E3060C94E3060C94E3062C
:1000B0000C94E3060C94E3060C94E3060C94E3061C
:1000C0000C94E3060C94E3060C94E3060C94D56AB6
:1000D0000C94AB6A0C94E3060C94816A0C94576AF6
:1000E0000C94E30605A84CCDB2D44EB93836A9021B
:1000F0000C50B9918688083CA6AAAA2ABE00000026
:10010000803F07634236B79BD8A71A39685618AEA6
:10011000BAAB558C1D3CB7CC5763BD6DEDFD753E3C
:10012000F6177231BF000000803F08000000BE9249
:100130002449123EABAAAA2ABECDCCCC4C3E00002C
:100140000080BEABAAAAAA3E00000000BF000000CB
:10015000803F0000000000084178D3BB4387D113E3
:100160003D190E3CC3BD4282AD2B3E68EC8276BE8B
:10017000D98FE1A93E4C80EFFFBE01C4FF7F3F0055
:10018000000000000C94E3780C9464940C94A48414
:100190000C94C7560C9431070C9441680C94C59D7F
:1001A0000C948A870C94E4950C94CA570C94A897E5
:1001B0000C945B580C949D990C9407870C94C690F2
:1001C0000C942A710C940B790C94C58D0C94C92B4A
:1001D0000C94C4550C94C5850C94DE550C94C066E3
:1001E0000C94E38E0C94895B0C94048D0C946655EE
:1001F0000C94A8560C947A940C941A950C943F7411
:100200000C9423850C9436840C94CF8D0C946A66E0
:100210000C9412850C945F9E0C94F5820C94079EAE
:100220000C94C6A10C94D6090C94BE940C944B5516
:100230000C9431740C948E8C0C9477590C94CA964F
:100240000C947C660C94FD970C9445090C941C84CA
:100250000C9457A30C9478A00C9455540C94C48E11
:100260000C94C2930C9409570C9495080C94BF9F5E
:100270000C94F7780C9496970C945FA30C94927856
:100280000C947B820C940AA20C94D29A0C94E08574
:100290000C948A830C94D0950C9487080C94650771
:1002A0000C94878C0C94DC090C948B5B0C94E32CE1
:1002B0000C94A6880C94EC0C0C9434A10C948074CF
:1002C0000C9428960C94E49E0C943E560C94EB6689
:1002D0000C94A6660C94A8960C941A9B0C94EB684C
:1002E0000C945C550C94DE8D0C94E3720C94507459
:1002F0000C94DF080C94378B0C941C900C94938412
:100300000C948D8B0C94ED780C940E070C94E6866F
:100310000C94A6780C9406960C9414680C9447845C
:100320000C945D560C944E9F0C94DD080C9433563F
:100330000C94918D0C94A0670C94FF720C947E86A3
:100340000C947F840C94FE590C9485820C94DA866C
:100350000C94668F0C9436A00C945A960C94B48925
:100360000C94AE560C944EA10C94CC680C94B584AD
:100370000C943A640C941C930C9400740C94489D57
:100380000C94728E0C9416740C9403870C94778BD7
:100390000C94A2A20C94E9720C94D6720C940C7476
:1003A0000C94DE670C9476950C94BE690C94ED8DDC
:1003B0000C9431980C9454740C94A19F0C94C472B6
:1003C0000C94A0980C94FF550C949B550C9432906F
:1003D0000C9443080C9438070C94D9090C94247499
:1003E0000C94D4910C94759E0C94AC950C94D48D73
:1003F0000C94A4A00C94ED720C94D1630C945C74D6
:100400000C94920A0C947F820C94152C0C94329DBF
:100410000C94D3820C947C780C94CE720C94627DF4
:100420000C94D8950C9462A00C94AE7C0C945B66F2
:100430000C940E970C945A550C949E640C94F28D67
:100440000C943F660C9458840C94DB9D0C94FB72C6
:100450000C94F2980C941C9D0C94F1720C94EB8605
:100460000C94F9B30C94CA8D0C94D58C0C942F89F0
:100470000C9433740C94338D0C9407860C94F98B84
:100480000C9488780C948D660C94EC960C9482A154
:100490000C94499E0C94AA850C9417640C948AA31E
:1004A0000C94F0840C94E6A00C94AF740C94CA8461
:1004B0000C9400A10C94CF740C9444560C94837843
:1004C0000C94DF540C94D4780C94E88D0C94BAA05E
:1004D0000C94D4660C945E740C948E2B0C94D47192
:1004E0000C9467A20C945E9D0C9468A10C94069DDC
:1004F0000C9411740C94E0090C94B65B0C94365671
:100500000C9459080C94D98D0C9415790C9405739E
:100510000C9427740C9457670C94198E0C94B25554
:100520000C9443740C9428850C942A820C945B865A
:100530000C9430650C94BE830C948B860C9452976B
:100540000C948B660C945E550C94DF720C9486961A
:100550000C945B2C0C942B740C9417980C9462558F
:100560000C9492660C940F070C94DB080C949CA3DB
:100570000C94029B0C94FD820C94339E0C944B8B38
:100580000C940C070C94618B0C94E3970C940499D5
:100590000C944E740C94CA780C946F930C948EA0A7
:1005A0000C94B3660C94EC580C9430970C947290A5
:1005B0000C94F68F0C94DD9F0C9451830C945D8108
:1005C0000C943D740C947D820C945B080C94E09820
:1005D0000C944CA00C947F5A0C9439740C941E0704
:1005E0000C9481820C94D2720C946C550C94A22CB5
:1005F0000C94B1680C942D860C948B080C94FD938C
:100600000C94AB560C94E1550C941A860C94B6A33A
:100610000C9452740C9490820C94DDA20C94AA8FCA
:100620000C948A710C9401790C9458550C94F772BF
:100630000C94A4A10C9445570C94005B0C943A566E
:100640000C94112D0C94A1660C94D0A30C947D985D
:100650000C94AE860C943F8C0C94DB840C94308EFE
:100660000C945D840C941D9E0C9487820C94438C96
:100670000C94FE900C94959C0C94EAA30C944890D6
:100680000C94338A0C942E740C9489850C942074E9
:100690000C9436710C94B6550C9409730C943F71FC
:1006A0000C94B5660C94E89C0C9431860C949A5B7F
:1006B0000C9485980C945BA30C94EC940C94AF9ED2
:1006C0000C9492950C9419880C94B8980C946055DD
:1006D0000C94EB560C940D070C949C900C94A58EE6
:1006E0000C9405740C94FB9F0C9435740C948E95AB
:1006F0000C9412710C9427570C94ED820C9485087D
:100700000C9400670C9462840C94E38D0C943C83ED
:100710000C94259C0C9448640C94C08D0C94F15559
:100720000C9448950C943F2D0C940F670C94A37473
:100730000C94D0980C944A740C94EB640C94F19D36
:100740000C943F9A0C94C0780C94BB860C94628DE8
:100750000C94B28A0C9480950C94329B0C949C78E7
:100760000C9481980C94D4950C9494070C941AA131
:100770000C94B6780C94EB9B0C946D710C943D69C1
:100780000C9441740C940D560C9427830C945A7459
:100790000C94199F0C9412830C9404730C94D972CA
:1007A0000C94AE780C94CA9C0C948A950C94266494
:1007B0000C9401850C942CA20C94A38F0C94AC8304
:1007C0000C943B740C9473840C949B830C944A6932
:1007D0000C94925B0C94D0A00C9489080C94839F89
:1007E0000C9490940C949F660C94298F0C94BA8C62
:1007F0000C9444660C94D08F0C9474970C941984C8
:100800000C94E8A10C9430560C9480670C9483826D
:100810000C94068F0C94C95B0C9484550C94D808E6
:100820000C944F850C94AF9D0C94CA720C94415655
:100830000C94EA9A0C947D080C9437740C94C08242
:100840000C94999D5761726E696E673A2043616C92
:1008500063756C61746564206D7573696320636F83
:10086000756E74206578636565647320343039363D
:100870003B205344206361726420636F7272757011
:1008800074696F6E206C696B656C792100010203DD
:100890000405060708090A0B0C0D0E0F10111213A0
:1008A0001415161718191A1B1C1D1E1F2021222390
:1008B0002425262728010203040506070809000A43
:1008C0000B0C0D0E0F10111200131415161718191A
:1008D0001A1B001C1D1E1F202122232400010203BD
:1008E00004050000000000060708090A00000000D7
:1008F000000B0C0D0E0F000000000010111213145D
:1009000000000000000102030000000000000004DD
:1009100005060000000000000007080900000000B4
:100920000000000A0B0C00000000000000001C1278
:100930000A041F160D02110C07010A0704000A120F
:100940001C040D161F02070C110104070A00010206
:10095000030405060708090A0B0C0D0E000102032B
:100960000405060708090A0B0C0E0D0C0B0A0908F2
:1009700007060504030201000C0B0A090807060517
:100980000403020100417474656E7561746F722016
:1009900053796E6320456E6400417474656E7561B1
:1009A000746F722053796E632053746172740041C6
:1009B0007474656E7561746F722053796E636872BA
:1009C0006F6E697A65640047657474696E6720505C
:1009D00061636B20507265666572656E6365730056
:1009E00047657474696E6720536D6F6B6520507234
:1009F00065666572656E636573004E6F2041756450
:100A0000696F20446576696365005573696E672078
:100A10005741562054726967676572005761726E5C
:100A2000696E673A205253505F53595354454D5F96
:100A3000494E464F206E6F74207265636569766516
:100A40006421005573696E672047505374617220AA
:100A5000417564696F00436F6E66696775726520E2
:100A6000506F776572204D6574657200556E6162D6
:100A70006C6520746F2066696E6420706F77657294
:100A8000206D6F6E69746F72696E67206465766938
:100A90006365206F6E206932632E20506F77657218
:100AA000206D65746572206665617475726573206A
:100AB00077696C6C2062652064697361626C65643F
:100AC0002E00496E697420706F776572206D6574B1
:100AD00065722E2E2E004552524F523A204E6F20F4
:100AE00063616C6C6261636B20617661696C6162E9
:100AF0006C6520666F72207061636B657420494479
:100B00002000000000006410B71DC8206E3BAC3010
:100B1000D9269041DC76F4516B6B5861B24D3C7133
:100B200005502083B8ED44930FF0E8A3D6D68CB3DC
:100B300061CBB0C2649BD4D2D38678E20AA01CF207
:100B4000BDBD57616E642053796E6320456E6400AD
:100B500057616E642053796E632053746172740020
:100B600057616E642053796E6368726F6E697A653F
:100B70006400526563762E2057616E6420536D6F5A
:100B80006B6520507265667300526563762E205740
:100B9000616E6420436F6E6669672050726566738C
:100BA00000536176696E6720536D6F6B65205072DC
:100BB00065666572656E63657300536176696E671D
:100BC0002057616E6420507265666572656E63655C
:100BD0007300536176696E67205061636B205072B9
:100BE00065666572656E63657300526563762E2077
:100BF000536D6F6B6520436F6E6669670052656366
:100C0000762E2057616E6420436F6E6669670052CE
:100C10006563762E205061636B20436F6E66696753
:100C200000B80BB80BAC0DAC0DA00F3075983A1096
:100C3000274C1D70173D00640165016601670100C6
:100C4000002100240027002A002D0030003300017D
:100C5000010000040107010A01000022002500280C
:100C6000002B002E003100340002010000050108B5
:100C7000010B01000020002300260029002C002F7A
:100C8000003200000100000301060109010505050D
:100C900005070508080808020202020A0A080804F3
:100CA0000404040101010101010101030303030321
:100CB000030303040707070C0C0C0C0C0C0C0C02B0
:100CC00002020206060606060606060B0B0B0B0BB7
:100CD0000B0B0B01021020200808102040102040B0
:100CE00080020102010804020101020408102040F0
:100CF000808040201008040201800402018040200E
:100D00001008040201080402010102040810204036
:100D100080010204081020408000000A0B02090C28
:100D20000D0E080703040100000000000000000091
:100D300000000000000000000000000000000000B3
:100D40000000000000121110000000000000000070
:100D50000000000000000000000000000000000093
:100D6000F9B3AE7C11241FBECFEFD1E2DEBFCDBF01
:100D700000E00CBF13E0A0E0B2E0E0E6FFE701E036
:100D80000BBF02C007900D92AA34B107D9F729E131
:100D9000AAE4B3E001C01D92A237B207E1F716E062
:100DA000C1EBD6E000E006C021970109802FFE01CB
:100DB0000E9408BAC03BD10780E00807A9F70E944B
:100DC000B27C0C949EBF0C9400002091FE04260F70
:100DD0003327331F21323105ECF420916F07FC01DA
:100DE00090E080E0243069F082E00895A091FE0454
:100DF0002191AC0144525B4FA40FB52FB11D2C9330
:100E00000196861798F38091FE04680F6093FE04A4
:100E100080E0089581E00895089508950895E0918F
:100E2000280780912707E81730F4F0E0E75DF84FD6
:100E3000808190E008958FEF9FEF089590912807AB
:100E4000809127072FEF3FEF981748F4E92FF0E044
:100E5000E75DF84F208130E09F5F90932807C9013C
:100E600008958091270790912807891B990B089571
:100E7000CF92DF92EF92FF920F931F93CF93DF9366
:100E80007C01CB018A0120919707222389F0EB0195
:100E90006B01C40ED51ECC15DD0569F06991D70133
:100EA000ED91FC910190F081E02DC7011995F3CFF0
:100EB000642F0E94E506C801DF91CF911F910F9129
:100EC000FF90EF90DF90CF900895CF93DF931F9224
:100ED000CDB7DEB76983209197072223F9F02091DF
:100EE0009507203258F021E030E0FC013383228363
:100EF00090E080E00F90DF91CF9108958091960768
:100F0000E82FF0E0EB58F84F998190838F5F809342
:100F100096078093950781E090E0ECCF61E0CE01E9
:100F200001960E94E506F7CF90E080E00895FC016D
:100F300020893189848595852817390741F481E016
:100F400042895389268537854217530709F080E087
:100F50000895FC01208931898685978528173907EE
:100F600041F481E04289538924853585421753072E
:100F700009F080E00895AF92BF92CF92DF92EF9296
:100F8000FF920F931F93CF93DF9300D0CDB7DEB7BF
:100F90005A0119821A821B82882361F18B01E1E0D8
:100FA000F0E0E82EF12CD8012D918D012223F1F0F3
:100FB0006F01B1E0CB1AD108D501AC0DBD1D4C912C
:100FC0004423A1F030E02F5F3F4FD7010E94C5B905
:100FD000A42FB0E011969B01AC010E9490B9A1E052
:100FE000B0E0AC0FBD1FAC0DBD1D8C933196E4304D
:100FF000F105C9F669817A818B810F900F900F906E
:10100000DF91CF911F910F91FF90EF90DF90CF90E4
:10101000BF90AF900895FC0187E992E091838083AF
:10102000138212828FEF86838783808781878287EE
:10103000838781E0848785871786168680E797E116
:10104000918B808B83E090E0938B828B158A148A3E
:10105000158214828091D9049091DA04892B21F4AD
:10106000F093DA04E093D904A091D704B091D804A6
:10107000109721F01596FC93EE931497F093D804F3
:10108000E093D704089581E090E00895982F6830A8
:10109000F0F4E62FF0E08827EF5AF74F8F4F0C94CB
:1010A00008BA5B0895087D088508590887088908EB
:1010B0008B088CE10895933020F4913040F085E066
:1010C0000895933031F09430D1F381E0089584E1B4
:1010D000089580919D078F5F853068F4982F9370F5
:1010E00051F080939D0780919D07813071F082308F
:1010F00061F38DE0089581E0F4CF8091A007909195
:10110000A1070397A1F483E008958BE0089589E196
:10111000089588E10895923031F0943021F09111D2
:1011200008C08DE108958FE1089583E108958FE06F
:1011300008958EE108950F931F93CF93DF9320912D
:10114000D6042F5F322F37703093D60420FF2BC088
:1011500020E831FD2064347009F02062205FFC013A
:10116000EC01239600E011E06785662329F070E02A
:10117000C8010E94F4B96F5F6187822F869F080EB5
:1011800080E0811D1124811110C01682662311F0A8
:10119000615061873196EC17FD0731F7DF91CF91F0
:1011A0001F910F91089520E0D4CF81508683EECF18
:1011B00080E991E00895209A0895279A08956F9202
:1011C0007F928F92CF92DF92EF92FF920F931F93B5
:1011D000CF93DF93CDB7DEB762970FB6F894DEBF3B
:1011E0000FBECDBF8C016B017A01822FA801475F32
:1011F0005F4FB8016A5F7F4F0E94BB073B01882E9B
:10120000D8011C962C91C701F7FE04C088279927A6
:101210008E199F09DA82C9829C838B839E838D837A
:10122000688A798A8A8A213049F5CE0101960E941E
:101230009B0883E08D871F861E86F7FE02C08DEF18
:101240008D87D801ED91FC910088F189E02DBE01D8
:101250006F5F7F4FC801199562960FB6F894DEBF95
:101260000FBECDBFDF91CF911F910F91FF90EF90F7
:10127000DF90CF908F907F906F9008951C861B8693
:101280001A86198618861F82D4CFCF92DF92EF92EA
:10129000FF920F931F93CF93DF93CDB7DEB7629783
:1012A0000FB6F894DEBF0FBECDBF8C016B017A0183
:1012B000822FA801475F5F4FB8016A5F7F4F0E948E
:1012C000BB079B01482FD8011C968C91DA82C982FA
:1012D000FC82EB82FE82ED82288B398B4A8B813037
:1012E00009F5CE0101960E949B081D861F861E8669
:1012F000D801ED91FC910088F189E02DBE016F5F6E
:101300007F4FC801199562960FB6F894DEBF0FBEE5
:10131000CDBFDF91CF911F910F91FF90EF90DF90A4
:10132000CF9008951C861B861A86198618861F8200
:10133000DCCF843008F080E090914802E82FF0E0A4
:1013400080911902882399F0943259F0983261F013
:10135000943121F0E75BF64F84910895EB5BF64FF3
:10136000FBCFEF5BF64FF8CFE35CF64FF5CF94324F
:1013700051F0983259F0943119F0E75CF64FECCF08
:10138000EB5CF64FE9CFEF5CF64FE6CFE35DF64F4F
:10139000E3CF853608F084E62FEF829FC001112449
:1013A00064E670E00E94F4B9862F089590E080E032
:1013B0000895FC0164870895FC01848590E00895F8
:1013C000FC018685978508950F931F93CF93DF9334
:1013D000EC018C01055E1D4FD8018D919C91DC01C3
:1013E000ED91FC910084F185E02D1995892B59F040
:1013F000F80180819181DC01ED91FC910284F385FB
:10140000E02D1995E9CFCE010E946470FE01E65EE1
:10141000FD4FCD5FDD4F88818083DF91CF911F919C
:101420000F91089510926F0781E080936E071092DC
:10143000490761E084E10E94DE7761E085E10E9476
:10144000DE77E9EBF0E080818E7F808380818D7F85
:10145000808388E48093B80085E48093BC0008957D
:10146000CF92DF92EF92FF920F931F93CF93DF9370
:10147000EC0188810E94B5778C010E94EF7B2C895A
:101480003D892017310731F06E8B7F8B888F998FC4
:101490001D8B0C8BCE88DF88E88CF98C6C197D094C
:1014A0008E099F09CA80DB80EC80FD806C157D056C
:1014B0008E059F0530F08A899B89998B888B1B8BC1
:1014C0000A8B288939898A899B892817390781F0ED
:1014D0004A855B8542305105A1F48E819F81A885A4
:1014E000B9850196A11DB11D8E839F83A887B987F9
:1014F000DF91CF911F910F91FF90EF90DF90CF90F0
:1015000008954115510531F42130310589F7892BB2
:1015100021F3EECF4130510559F7232B49F70197BD
:1015200039F7DBCF4F925F927F928F929F92AF926B
:10153000BF92CF92DF92EF92FF920F931F93CF93C0
:10154000DF932C01EB010E941A79F2012689378979
:10155000621B730B6A307105B0F3F8948A819B812A
:10156000181619060CF0CDC1E881F98165B1862EF7
:10157000689480F835B13E7F35B9DA848F812D2D9E
:10158000281B822F2F834C85042E000C550BAA811B
:10159000BB817889FF84E9887F5FF394E3949E811F
:1015A0009884B984AB841181C12C6C2D0C2D2C2D09
:1015B0002181112788942111280F08F42FEF81959C
:1015C000889470FD120F1795889471FD120F17956E
:1015D000889472FD120F1795889473FD120F17955A
:1015E000889474FD120F1795889475FD120F179546
:1015F000889476FD120F1795889477FD120F179532
:101600008894622F7111612F8D0D162F002C85B8D3
:1016100000C017FF35B920816627889400C000C03C
:10162000002C35B92111290F00C0002C85B800C04D
:1016300016FF35B908F42FEF9195889400C000C0CB
:10164000002C35B9F0FC620F00C0002C85B800C03A
:1016500015FF35B967958894F1FC620F00C000C092
:10166000002C35B96795889400C0002C85B800C05F
:1016700014FF35B9F2FC620F6795889400C000C072
:10168000002C35B9F3FC620F00C0002C85B800C0F7
:1016900013FF35B967958894F4FC620F00C000C051
:1016A000002C35B96795889400C0002C85B800C01F
:1016B00012FF35B9F5FC620F6795889400C000C031
:1016C000002C35B9F6FC620F00C0002C85B800C0B4
:1016D00011FF35B967958894F7FC620F00C000C010
:1016E000002C35B96795889400C0002C85B800C0DF
:1016F00010FF35B9122FF110162F9B0D00C000C03E
:10170000002C35B900C000C0002C85B800C017FF00
:1017100035B922816627889400C000C0002C35B9F5
:101720002111290D00C0002C85B800C016FF35B965
:1017300008F42FEFE40FF51F00C000C0002C35B9EE
:10174000E0FC620F00C0002C85B800C015FF35B961
:1017500067958894E1FC620F00C000C0002C35B989
:101760006795889400C0002C85B800C014FF35B977
:10177000E2FC620F6795889400C000C0002C35B968
:10178000E3FC620F00C0002C85B800C013FF35B920
:1017900067958894E4FC620F00C000C0002C35B946
:1017A0006795889400C0002C85B800C012FF35B939
:1017B000E5FC620F6795889400C000C0002C35B925
:1017C000E6FC620F00C0002C85B800C011FF35B9DF
:1017D00067958894E7FC620F00C000C0002C35B903
:1017E0006795889400C0002C85B800C010FF35B9FB
:1017F000122FE110162F919400C000C0002C35B9B3
:101800009A0C00C000C085B800C017FF35B921810F
:101810006627889400C000C0002C35B92111280F1C
:1018200000C0002C85B800C016FF35B908F42FEFB2
:101830008195889400C000C0002C35B970FD620FFE
:1018400000C0002C85B800C015FF35B96795889495
:1018500071FD620F00C000C0002C35B967958894F7
:1018600000C0002C85B800C014FF35B972FD620FAE
:101870006795889400C000C0002C35B973FD620FD5
:1018800000C0002C85B800C013FF35B96795889457
:1018900074FD620F00C000C0002C35B967958894B4
:1018A00000C0002C85B800C012FF35B975FD620F6D
:1018B0006795889400C000C0002C35B976FD620F92
:1018C00000C0002C85B800C011FF35B96795889419
:1018D00077FD620F00C000C0002C35B96795889471
:1018E00000C0002C85B800C010FF35B9122F71114F
:1018F000162F8D0D00C000C0002C35B9119709F0CE
:1019000086CEEA81FB812EE130E0DF010E9410BA31
:1019100030E020E0A901AAE9EA9F0E0E411DFA9FDE
:10192000400D511D11244F0F511DDC01CB01840FBF
:10193000951FA11DB11D893E43E09407A105B10586
:1019400008F434C0885E9340A109B10942E0B6951D
:10195000A795979587954A95D1F747E0849F080EFC
:10196000211D949F200D311D1124290F311D6091DF
:10197000D50470E0860F971F820F931F40912307B5
:10198000509124076091250770912607292F33274E
:10199000420F531F611D711D40932307509324076D
:1019A00060932507709326078093D50478940E944E
:1019B0001A79F201778B668BDF91CF911F910F918E
:1019C000FF90EF90DF90CF90BF90AF909F908F905F
:1019D0007F905F904F9008954F925F927F928F9289
:1019E0009F92AF92BF92CF92DF92EF92FF920F93AE
:1019F0001F93CF93DF932C01EB010E941A79F20120
:101A000026893789621B730B6A307105B0F3F8942D
:101A10008A819B81181619060CF0CDC1E881F981E5
:101A200065B1862E689487F835B13F7735B9DA8489
:101A30008F812D2D281B822F2F834C85042E000C87
:101A4000550BAA81BB817889FF84E9887F5FF39475
:101A5000E3949E819884B984AB841181C12C6C2D50
:101A60000C2D2C2D2181112788942111280F08F489
:101A70002FEF8195889470FD120F1795889471FD52
:101A8000120F1795889472FD120F1795889473FDA5
:101A9000120F1795889474FD120F1795889475FD91
:101AA000120F1795889476FD120F1795889477FD7D
:101AB000120F17958894622F7111612F8D0D162FBB
:101AC000002C85B800C017FF35B92081662788949F
:101AD00000C000C0002C35B92111290F00C0002C16
:101AE00085B800C016FF35B908F42FEF919588949A
:101AF00000C000C0002C35B9F0FC620F00C0002C03
:101B000085B800C015FF35B967958894F1FC620F60
:101B100000C000C0002C35B96795889400C0002C27
:101B200085B800C014FF35B9F2FC620F6795889440
:101B300000C000C0002C35B9F3FC620F00C0002CBF
:101B400085B800C013FF35B967958894F4FC620F1F
:101B500000C000C0002C35B96795889400C0002CE7
:101B600085B800C012FF35B9F5FC620F67958894FF
:101B700000C000C0002C35B9F6FC620F00C0002C7C
:101B800085B800C011FF35B967958894F7FC620FDE
:101B900000C000C0002C35B96795889400C0002CA7
:101BA00085B800C010FF35B9122FF110162F9B0D0C
:101BB00000C000C0002C35B900C000C0002C85B8A2
:101BC00000C017FF35B922816627889400C000C085
:101BD000002C35B92111290D00C0002C85B800C09A
:101BE00016FF35B908F42FEFE40FF51F00C000C051
:101BF000002C35B9E0FC620F00C0002C85B800C095
:101C000015FF35B967958894E1FC620F00C000C0EC
:101C1000002C35B96795889400C0002C85B800C0A9
:101C200014FF35B9E2FC620F6795889400C000C0CC
:101C3000002C35B9E3FC620F00C0002C85B800C051
:101C400013FF35B967958894E4FC620F00C000C0AB
:101C5000002C35B96795889400C0002C85B800C069
:101C600012FF35B9E5FC620F6795889400C000C08B
:101C7000002C35B9E6FC620F00C0002C85B800C00E
:101C800011FF35B967958894E7FC620F00C000C06A
:101C9000002C35B96795889400C0002C85B800C029
:101CA00010FF35B9122FE110162F919400C000C01B
:101CB000002C35B99A0C00C000C085B800C017FFD1
:101CC00035B921816627889400C000C0002C35B941
:101CD0002111280F00C0002C85B800C016FF35B9AF
:101CE00008F42FEF8195889400C000C0002C35B90E
:101CF00070FD620F00C0002C85B800C015FF35B91B
:101D00006795889471FD620F00C000C0002C35B942
:101D10006795889400C0002C85B800C014FF35B9C1
:101D200072FD620F6795889400C000C0002C35B921
:101D300073FD620F00C0002C85B800C013FF35B9D9
:101D40006795889474FD620F00C000C0002C35B9FF
:101D50006795889400C0002C85B800C012FF35B983
:101D600075FD620F6795889400C000C0002C35B9DE
:101D700076FD620F00C0002C85B800C011FF35B998
:101D80006795889477FD620F00C000C0002C35B9BC
:101D90006795889400C0002C85B800C010FF35B945
:101DA000122F7111162F8D0D00C000C0002C35B9F7
:101DB000119709F086CEEA81FB812EE130E0DF0148
:101DC0000E9410BA30E020E0A901AAE9EA9F0E0EB5
:101DD000411DFA9F400D511D11244F0F511DDC0173
:101DE000CB01840F951FA11DB11D893E43E09407CF
:101DF000A105B10508F434C0885E9340A109B1097A
:101E000042E0B695A795979587954A95D1F747E013
:101E1000849F080E211D949F200D311D1124290F30
:101E2000311D6091D50470E0860F971F820F931FBC
:101E30004091230750912407609125077091260750
:101E4000292F3327420F531F611D711D4093230714
:101E50005093240760932507709326078093D50439
:101E600078940E941A79F201778B668BDF91CF917B
:101E70001F910F91FF90EF90DF90CF90BF90AF90A8
:101E80009F908F907F905F904F9008950F931F9336
:101E9000CF93DF9300D000D0CDB7DEB78FEF9FEFA9
:101EA000DC0189839A83AB83BC8310E000E01E834E
:101EB0000D83BE016B5F7F4FCE0101960E94A76B21
:101EC000BE016A5F7F4FCE0101960E94A76B0F5F34
:101ED0001F4F0D32110559F789E190E09E838D83E4
:101EE000BE016B5F7F4FCE0101960E94A76BBE01C2
:101EF0006A5F7F4FCE0101960E94A76B84E190E05C
:101F00009E838D83BE016B5F7F4FCE0101960E9441
:101F1000A76BBE016A5F7F4FCE0101960E94A76B3F
:101F200069817A818B819C8160957095809590956F
:101F300026960FB6F894DEBF0FBECDBFDF91CF91CE
:101F40001F910F910895FF920F931F93CF93DF93EB
:101F5000EC01F62E08811981C8010E945BB9F816C0
:101F600021F06F2DC8010E9463B9CE01DF91CF919E
:101F70001F910F91FF900895EF92FF920F931F937F
:101F8000CF93DF9300D000D0CDB7DEB70E94460FCD
:101F900069837A838B839C83CE0101967C010CEF4D
:101FA0001FE01E830D83F70161917F01CE0105962D
:101FB0000E94A30F0F5F1F4F0115F0E11F0789F764
:101FC00026960FB6F894DEBF0FBECDBFDF91CF913E
:101FD0001F910F91FF90EF9008958F929F92AF9273
:101FE000BF92CF92DF92EF92FF920F931F93CF9306
:101FF000DF931F921F92CDB7DEB78C0119828FEF4E
:102000008A83680125EEC21A2DEFD20AD6018D917E
:102010009C91DC01ED91FC910084F185E02D1995F6
:10202000F801E75EFD4F7F01892B09F449C081E08B
:1020300089834801FDEF8F1A9F0A580126EEA21AE4
:102040002DEFB20AD6018D919C91DC01ED91FC91AE
:102050000084F185E02D1995892B09F1F601808125
:102060009181DC01ED91FC910284F385E02D1995BD
:102070008A83AE014F5F5F4FBE016E5F7F4FC80125
:102080000E949C70F7018083D4018C91F5018083BC
:102090008330C1F218161CF0C8010E94E409F70150
:1020A00080810F900F90DF91CF911F910F91FF9042
:1020B000EF90DF90CF90BF90AF909F908F9008955A
:1020C000AE014F5F5F4FBE016E5F7F4FC8010E9440
:1020D0009C70D7018C93F801ED5FFD4F808177965E
:1020E0008083D8CFBF92CF92DF92EF92FF920F936F
:1020F0001F93CF93DF931F92CDB7DEB78C016B0197
:10210000B42EDB018D919C91F801E15FFD4F7F01C1
:102110008F3F910508F475C08FEF80836801F80147
:1021200080E091919E3709F067C0D7018C9347EA10
:1021300052E0B801C8010E947C7040917C0A509125
:102140007D0A980122503F4F80E0D601ED916D014C
:10215000E827E40FF52FF11D80812A173B07A9F727
:10216000F801E350FE4FB082F7019081F801E25090
:10217000FE4F90839EEF31969083319680838EEF51
:10218000F82E6801B5EECB1ABDEFDB0AF6018081AF
:102190009181B80164507E4FDC01ED91FC91028089
:1021A000F381E02D44E050E01995F60180819181A2
:1021B0004F2D50E0DC01ED91FC910280F381E02D88
:1021C000B8011995F60180819181B8017E5FDC012B
:1021D000ED91FC910280F381E02D42E050E01995F1
:1021E0008F2D0F90DF91CF911F910F91FF90EF9066
:1021F000DF90CF90BF9008958F5F8E3F09F091CF11
:1022000096CF982F8FEF8083F80180E0891728F40C
:1022100021912E3719F5F7018083D6018C9189839E
:10222000AE014F5F5F4FB801C8010E947C70F6019C
:102230002081318140917C0A50917D0AD80180E053
:102240003327BD01601B710B6217730748F4ED91D2
:10225000E827E40FF52FF11D8081F3CF8F5FD6CFF4
:10226000F801E350FE4FB082D7019C9131969083E4
:10227000F6019081F801E150FE4F90833196808302
:10228000D601FC907ECFCF93DF9391E09093DB0457
:102290008823B9F0C091B800D091BA008091BC00F9
:1022A0008A7B8093BC0060E084E10E94DE7760E07E
:1022B00085E10E94DE770E94120AD093BA00C09393
:1022C000B800DF91CF91089585ED8093BC00809197
:1022D000710790917207A0917307B09174070796E8
:1022E000A11DB11D23E0B695A795979587952A95D1
:1022F000D1F72091BC0024FD03C010926F07089510
:102300004091710750917207609173077091740743
:10231000452B462B472B69F30097A105B10541F0EA
:102320002AE22A95F1F700C00197A109B109E1CF8E
:10233000809170070C9443111F920F920FB60F9269
:1023400011240BB60F922F933F934F935F936F938C
:102350007F938F939F93AF93BF93EF93FF9380915E
:10236000B900887F803609F44DC008F040C088323B
:1023700009F4A9C028F5803109F49DC0C8F4882368
:1023800009F4FBC0883009F496C0FF91EF91BF912A
:10239000AF919F918F917F916F915F914F913F91FD
:1023A0002F910F900BBE0F900FBE0F901F9018959E
:1023B000883109F488C0803241F780936D0714C0DA
:1023C000803409F49DC040F48033B9F38833E9F6D2
:1023D00080936D0785ECB0C0803509F485C08835E1
:1023E00009F496C0883489F60E946411CECF8839EA
:1023F00009F48CC038F5883729F050F4883611F08C
:10240000803719F683E080936F071092220557C03A
:10241000883809F47BC0803919F0803809F0B5CFCD
:1024200080912205803208F071C0E091220581E0A0
:102430008E0F809322058091BB00F0E0EE5FFA4F93
:1024400080833DC0803B39F0E0F4803A09F479C0E4
:10245000883A09F09ACF84E080936F071092FF04C6
:102460001092FE04E091FC04F091FD041995809116
:10247000FE0481110FC081E08093FE041092DC0401
:1024800009C0803C09F4A6CF883C09F4A3CF883B5F
:1024900009F07BCFE091FF0481E08E0F8093FF0471
:1024A000F0E0E452FB4F80818093BB009091FF04E9
:1024B0008091FE0429C080914A078093BB0085EC7F
:1024C0008093BC0062CF90916C0780916B07981746
:1024D00058F5E0916C0781E08E0F80936C07F0E077
:1024E000E55BF84F8081E9CFE0916C0781E08E0FCA
:1024F00080936C078091BB00F0E0E55BF84F808330
:1025000090916C0780916B079817C8F285E8D8CF37
:10251000E0916C0781E08E0F80936C078091BB0087
:10252000F0E0E55BF84F808380916E0781115CCF0E
:1025300081E08093490784EA8093BC0010926F0782
:1025400024CF85EC8093BC0010926F078091220508
:10255000803230F4E0912205F0E0EE5FFA4F108215
:102560006091220570E0E0910005F091010582E0A4
:1025700095E019951092220508CF10926D0734CF7F
:102580008F929F92AF92BF92CF92DF92EF92FF9283
:102590000F931F93CF93DF93FC012085211110C06F
:1025A00060E070E0CB01DF91CF911F910F91FF9020
:1025B000EF90DF90CF90BF90AF909F908F90089555
:1025C000EC010E94EF7B29852111EACF8C809D8050
:1025D000AE80BF80088119812A813B816B017C011B
:1025E000C818D908EA08FB08C016D106E206F306A7
:1025F000B8F6080D191D2A1D3B1D68017901C61A80
:10260000D70AE80AF90AC701B601CDCFCF92DF9207
:10261000EF92FF921F93CF93DF93FC01108511116E
:102620000AC010E0812FDF91CF911F91FF90EF90B2
:10263000DF90CF900895EC018185882319F01886EA
:102640001986F0CF0E94EF7BCC80DD80EE80FF808A
:102650006C197D098E099F09C880D980EA80FB80AA
:102660006C157D058E059F0550F7DBCFCF93DF936B
:10267000EC01488359836A837B830E94EF7B6C83E0
:102680007D838E839F8381E088871986DF91CF9138
:1026900008950F931F93CF93DF93EC010E94EF7B7C
:1026A0008B019C018C819D81AE81BF8148815981C4
:1026B0006A817B81081B190B2A0B3B0B041715073A
:1026C0002607370738F4CE01DF91CF911F910F9184
:1026D0000C943613840F951FA61FB71F8C839D8300
:1026E000AE83BF8381E088871986DF91CF911F91E8
:1026F0000F910895DC01FB016C9111964C9111979B
:1027000012967C91262F220F220F220F95E5822F01
:10271000899F080E80E0811D1124562F5074362F9A
:10272000307267FD60C0511149C0311106C0982F49
:102730009095282F892F90E004C025E5280F90E080
:102740008BEA4F3FF1F0442309F46CC0409530E030
:10275000442329F0449F312D112441113F5F432F21
:102760004095849F080E80E0811D249F020E20E08A
:10277000211D949F090E90E0911D1124830F230FBA
:10278000930F7F3FB9F030E0772321F0779F312D11
:1027900009F03F5F332309F449C0839F080E80E0AE
:1027A000811D239F020E20E0211D939F090E90E0C2
:1027B000911D1124808321839283089531110DC0CE
:1027C000922F2AEA929F090E90E0911D11242BEA84
:1027D000291B922F2AEA280FADCF90E0282F2095B1
:1027E000982F80E0AECF511111C031110BC0922F44
:1027F0008AEA989F090E90E0911D11242BEA291B6B
:102800009B5AEFCF982F909520E09BCF311106C0B7
:1028100025E5280F9BEA981B822FF6CF2AEA280F7E
:1028200030E0F9CF9FEF2FEF8FEFABCF90E020E0BC
:1028300080E0C0CFAF92BF92CF92DF92EF92FF9233
:102840000F931F93CF93DF938CE499E10E940613BB
:10285000882309F410C1D0908A0A80918D0A909142
:102860008E0AA0918F0AB091900A892B8A2B8B2B0C
:10287000D9F00E941A790091D1041091D2042091CC
:10288000D3043091D404601B710B820B930B009125
:102890008D0A10918E0A20918F0A3091900A60174C
:1028A000710782079307C8F20E941A796093D104D6
:1028B0007093D2048093D3049093D404E091950A4A
:1028C000F091960A309759F04091910A5091920AEE
:1028D0006091930A7091940A8D2D1995D82EC0910C
:1028E000D904D091DA0481EBE82E84E0F82E870138
:1028F000209749F184E0013D180729F18D8588234F
:10290000F1F0E881F981A284B3840680F781E02D9B
:10291000CE011995BC01CE01F5011995F8019183FD
:10292000808380918B0A90918C0A8436910508F4FB
:102930001C860C80DD81C02D0E5F1F4FD9CFF801A2
:1029400011821082EECFC091D904D091DA0400E157
:1029500010E02097A9F08D85882361F04E855F8572
:102960006A817B81E881F9810280F381E02D2D2D40
:10297000CE0119950C80DD81C02D0150110949F758
:10298000C091D904D091DA042097C9F0F1EDEF1687
:10299000F4E0FF06A1F08D85882351F0F7016081F6
:1029A0007181E881F9810484F585E02DCE011995C6
:1029B0000C80DD81C02DF2E0EF0EF11CE5CF80919F
:1029C000AF049091B0049C012F5F3F4F3093B0044F
:1029D0002093AF0449970CF440C00E94EF7B009114
:1029E000AB041091AC042091AD043091AE046B01A6
:1029F0007C01C01AD10AE20AF30AA7019601211547
:102A000031054105510521F421E030E040E050E07E
:102A1000E091AF04F091B00488EE93E0E89FB0013C
:102A2000E99F700DF89F700D1124072E000C880B84
:102A3000990B0E94A3B930938C0A20938B0A1092B1
:102A4000B0041092AF040E94EF7B6093AB047093CC
:102A5000AC048093AD049093AE044091080250E022
:102A600070E060E08CE499E10E94361380912305C8
:102A7000811110922305DF91CF911F910F91FF904B
:102A8000EF90DF90CF90BF90AF900895CF93DF93FA
:102A90001F921F92CDB7DEB7E3EAF3E021E0208377
:102AA00081836283738394E09483E7E9FAE020836F
:102AB000818362837383948385E090E09A83898322
:102AC00041E0BE016F5F7F4FCF010E9472100F90F7
:102AD0000F90DF91CF91089570E060E00C9446155F
:102AE000CF93DF931F921F92CDB7DEB7EBE7F3E0F2
:102AF00021E0208381836283738394E09483E8EBF5
:102B0000FCE02083818362837383948385E090E07B
:102B10009A83898341E0BE016F5F7F4FCF010E949E
:102B200072100F900F90DF91CF91089570E060E0E8
:102B30000C947015E4E2F0E180914502808380916D
:102B40004402818380914302828380914202838385
:102B5000809141028483089580914802843251F02B
:102B6000883221F0843141F48AE001C087E080930B
:102B70000402089585E0FBCF8FE0F9CF8091120227
:102B800090911302892B21F088E08093030208952D
:102B90001092030208959091490280914802890F92
:102BA00027E0280F209357199093401980935619C6
:102BB000809111022091330540911202509113022D
:102BC000452BA9F0909103023FEF390F3093460255
:102BD00090930E11980F8FEF890F80930D119093A2
:102BE0000C118FEF820F890F80930B1108951092B3
:102BF000460210920E119FEF980F90930D11809343
:102C00000C11820F8150F0CF81E080932C028093D1
:102C10002B0280930A0208958823D1F180912E021D
:102C20008823A1F180918F0690918A06992361F003
:102C300081110CC0E0912F02F0E0ED5DFF4E80812C
:102C4000882351F05F9A0CC0882331F0E0912F0265
:102C5000F0E0E35AFD4FF3CF809188068111F2CF67
:102C600080912E028823A9F080918F0690918A0688
:102C7000992389F0811111C0E0912F02F0E0ED5D00
:102C8000FF4E8081882379F0449A08955F98E8CFB9
:102C90005F9844980895882331F0E0912F02F0E086
:102CA000E35AFD4FEECF809188068111EDCF089554
:102CB0008823D1F180912E028823A1F180918F0683
:102CC00090918A06992361F081110CC0E0912F0246
:102CD000F0E0ED5DFF4E8081882351F0429A0CC0F8
:102CE000882331F0E0912F02F0E0E35AFD4FF3CF5B
:102CF000809188068111F2CF80912E028823A9F05D
:102D000080918F0690918A06992389F0811111C0D4
:102D1000E0912F02F0E0ED5DFF4E8081882379F095
:102D2000A29A08954298E8CF4298A29808958823DD
:102D300031F0E0912F02F0E0E35AFD4FEECF8091A9
:102D400088068111EDCF089580911B02882349F0F8
:102D500081E02091CB103091CC10232B19F080E032
:102D6000089581E0089580919505909196050297C8
:102D700049F480911602882331F081E09091480255
:102D80009C3009F480E00895E82FF0E0809148023B
:102D9000843259F0883261F0843121F0EB5FF64FD4
:102DA00084910895E352F74FFBCFEB54F74FF8CFE0
:102DB000E357F74FF5CF8823D1F080918A06882317
:102DC00041F0E0912F02F0E0ED5DFF4E8081811136
:102DD00008C080918F06811104C080918E068823DF
:102DE00031F080910B01886080930B0108958091F0
:102DF0000B01877FF9CF10924F1010925010109254
:102E00004B0380917D0690917E06059721F460E04A
:102E10008DE20C94DE7790E080E00C94487820916D
:102E20007D0630917E0623303105C9F0253031050D
:102E3000C1F090911C02992391F0882381F02230F7
:102E4000310521F490918A06992349F090914B0322
:102E5000981739F080934B0390E00C9448780C94C9
:102E6000FB160895BF92CF92DF92EF92FF920F93DD
:102E70001F93CF93DF93EC0180911A020E94C9093E
:102E8000B82EF0903F19E09040198BE299E10E9432
:102E90000613882309F4A3C1FE188F2D0E94C416BF
:102EA000E82E80913702882309F456C085E080938C
:102EB000080285E099E10E94F36B882389F0109263
:102EC0003702D0933302C0933202AE0170E060E06B
:102ED0008BE299E10E9436138CE380934D031AC074
:102EE00085E099E10E945D6C9093330280933202F9
:102EF000AC0170E060E08BE299E10E9436138091B2
:102F00004D038F5F8F3030F180934D0380914D03DF
:102F10008D3310F780918A0681110CC080918F0645
:102F2000811108C080918E06811104C080914D03EB
:102F30000E940F1780912C0290914802943209F45C
:102F40008CC0983219F0943109F0F4C0823008F046
:102F500087C0E5C08FE0D8CF809190068823B1F17B
:102F600085E08093080285E099E10E94F36B882355
:102F700019F010929006CECF85E099E10E945D6C29
:102F80009093330280933202AC0170E060E08BE2F8
:102F900099E10E9436132091320230913302293296
:102FA000310568F080914D03843220F08150809388
:102FB0004D0305C02536310510F08031B8F78091FA
:102FC0004D038F3008F0A6CF8FE087CFD093330228
:102FD000C093320280912C0290914802943211F0F9
:102FE000983221F58230E8F0282F30E0AE01421B04
:102FF000530B2C173D0711F450E040E0909109026B
:103000008B5F911101C085E08093080280910802D6
:103010008B3018F08AE0809308024115510591F039
:1030200013C085E080930802AE01F0CF95E0909345
:103030000802823080F090E0AE01481B590B8C17DB
:103040009D0711F441E050E070E060E08BE299E10F
:103050000E9436135FCFAE01E0CF823008F457C034
:1030600090E08C179D0709F462C0C81BD90B0E9421
:10307000B3168111B4C0EF2DF0E0EF5AF94F808103
:1030800081111BC0EE20C9F0809109028823A9F0AC
:1030900029E1F29EC00111249C012B5C3E4E690186
:1030A00060E0C9010E94926E9E0150E040E004E1A0
:1030B00010E06B2DC6010E945F6E8091150288237F
:1030C00009F497C0809148028432D1F1883209F422
:1030D00090C090919006843109F04CC091110DC0C0
:1030E00080913702811109C080918E06811105C03F
:1030F00080918706882309F482C092E29F15C0F16F
:1031000081EF8F0D853008F078C089E04AC080914A
:103110003702811109C080919006811105C0CE014E
:10312000880F991FC80FD91F209709F0A0CFC1E0C1
:10313000D0E09DCF823008F093CFCC0FDD1FF4CFCD
:103140008091900681110DC080913702811109C0D4
:1031500080918E06811105C080918706882309F42D
:103160004EC037E28BE1F316E1F083E1F81243C081
:103170008FE017C091110CC080913702811108C0F7
:1031800080918E06811104C0809187068823B9F151
:1031900020E22F1508F4B9CF83EF8F0D873088F523
:1031A00085E02091190290913F19222309F454C01F
:1031B000E11029C020917803281728F52F5F20936C
:1031C000780320913F198091490290E08796281753
:1031D000190629F024F08091401980933F19DF915E
:1031E000CF911F910F91FF90EF90DF90CF90BF9004
:1031F000089580E0D6CF85E1D4CF8BE0D2CF83E0B5
:10320000D0CF87E0CECF10927803C92FE11020C035
:1032100020914019EC2EF12C822F90E087968E158C
:103220009F057CF28C2F821B0E94C416882319F004
:10323000C0933F19C6CF8091490290E08796E81667
:10324000F90621F48091401980933F19CF5FE0CFB8
:103250009F5F90933F19B5CFE11012C02091780382
:10326000281770F42F5F2093780390913F19809175
:103270004019981708F0B3CF80914902895DADCF0E
:1032800010927803C92FE11010C0809140198C175B
:1032900060F73C2F381B832F0E94C416882319F037
:1032A000C0933F19E2CFC150F0CF915090933F1996
:1032B000DCCF81E080933702809336028093350221
:1032C00008958091A0079091A1078230910528F080
:1032D0008430910568F0059711F18CE291E09093AC
:1032E000330280933202909331028093300208952A
:1032F00060911D0270911E0290E080E00E943CB837
:1033000026E636E646EA5FE30E949DB80E9422BBAD
:1033100070933302609332028CE291E0E4CF88EC48
:1033200090E09093330280933202F6CFDF92EF92D7
:10333000FF920F931F93CF93DF9381E5E82E86E0F2
:10334000F82E0EE413E0D0E0C0E0DD24D394F701C2
:1033500011927F0160E0CE01835E9A4E0E94926ED0
:1033600060E0CE018B5C9E4E0E94926EF801D1927D
:103370008F016996C83EF3E0DF0749F7DF91CF91EF
:103380001F910F91FF90EF90DF90089580912C0294
:10339000811103C081E080932C0280912C028A303D
:1033A00018F089E080932C0280912B02811103C0D8
:1033B00081E080932B0280912B028A3018F089E003
:1033C00080932B0280910A02811103C081E08093D7
:1033D0000A0280910A02873018F086E080930A0280
:1033E00008952F923F924F925F926F927F928F92A9
:1033F0009F92AF92BF92CF92DF92EF92FF920F9384
:103400001F93CF93DF93CDB7DEB76B970FB6F894CA
:10341000DEBF0FBECDBF6091590F6C53770B80910B
:10342000570F9B01281B310987FD339544E6429FC6
:10343000C001439F900D11240E94F4B9262F362F0E
:1034400040903B058091200290912102E8EEF3E04C
:10345000BF010E94E0B9C62E809122029091230202
:10346000BF010E94E0B9D62E8091240290912502DE
:10347000BF010E94E0B9E62E8091260290912702BA
:10348000BF010E94E0B9F62E809128029091290296
:10349000BF010E94E0B9662E80912A0277247394BE
:1034A000882311F0A2E07A2E809119028824839457
:1034B000882311F0F2E08F2E8091170299249394C3
:1034C000882311F0E2E09E2E80911502AA24A39495
:1034D000882311F072E0A72E80912E02BB24B394B2
:1034E000882311F062E0B62E80911F0261E0811105
:1034F00062E080912D0201E0811102E0809192054D
:1035000012E0811101C011E080913D0590913E05CE
:10351000B2E0019709F0B1E080913505A2E0811198
:1035200001C0A1E080911B0252E0552E811102C022
:10353000552453948091180242E0342E882311F0D0
:103540003324339481E0820F353608F085E690917C
:10355000410222242394992311F092E0292E909184
:10356000420271E0911172E09091430251E0911199
:1035700052E09091440241E0911142E09091450265
:10358000911156C091E020913605309137052150B8
:1035900031092530310508F04DC02C5A3D4FF90155
:1035A000208179828A829B82AC82BD826E830F8366
:1035B00018874986BA87AB873C868D87CE86DF869B
:1035C000E88AF98A6A8A2B8A7C8B5D8B4E8B9F8B6B
:1035D000288F598ECE0101967C0104E110E01B8FEB
:1035E0000A8FF70161917F01CE014A960E94A30FD5
:1035F0000F5F1F4F0D32110591F70E94BC0F6B96A4
:103600000FB6F894DEBF0FBECDBFDF91CF911F91F3
:103610000F91FF90EF90DF90CF90BF90AF909F9071
:103620008F907F906F905F904F903F902F90089574
:1036300092E0A9CF24E0B5CF0F931F93CF93DF93F0
:103640001F921F92CDB7DEB704E110E01A83098301
:103650006FEFCE0101960E94A30F0F5F1F4F0D3237
:103660001105A1F70E94BC0F0F900F90DF91CF9131
:103670001F910F910895EF92FF920F931F93CF9395
:10368000DF93CDB7DEB766970FB6F894DEBF0FBEF7
:10369000CDBF8091340552E0813009F051E0809136
:1036A0000F0293E0813021F094E0823009F092E043
:1036B000209112023091130282E02115310529F088
:1036C00083E02130310509F084E02091320542E0A9
:1036D000211101C041E02091310532E0211101C0EA
:1036E00031E020911602211153C021E0609149027E
:1036F0006983609148026A83609111026B835C83E5
:1037000050913C025D8350913A025E8350913802A1
:103710005F8350913D02588750913B0259875091E9
:1037200039025A8750910E025B8750911A025C87CA
:10373000509110025D87509114025E8750913305BD
:103740005F87988B898B4A8B3B8B2C8BCE010196A4
:103750007C0110E000E01E8B0D8BF70161917F0171
:10376000CE0145960E94A30F0F5F1F4F0431110534
:1037700091F70E94BC0F66960FB6F894DEBF0FBE9D
:10378000CDBFDF91CF911F910F91FF90EF900895E2
:1037900022E0ACCF0F931F93CF93DF931F921F9222
:1037A000CDB7DEB710E000E01A8309836FEFCE01DA
:1037B00001960E94A30F0F5F1F4F04311105A1F75F
:1037C0000E94BC0F0F900F90DF91CF911F910F912E
:1037D0000895209184068091980790919907019708
:1037E0000397C0F480917F0690918006211107C055
:1037F00021E02093840665E0892B31F4089510922E
:103800008406892BD9F366E0809181069091820627
:103810000C944173211104C081E0809384060895C3
:1038200010928406EBCF80919807909199070197A9
:10383000039798F480917F0690918006892B59F028
:103840008091810690918206843F21E0920718F0D2
:1038500064E00E9441730E942C76109283061092BD
:10386000850661E070E085E20E9446156091810660
:103870007091820688E40C94701580917F06909177
:103880008006892B09F470C0809181069091820690
:10389000843F21E0920708F467C021E02093850669
:1038A00020919807309199072230310509F43FC0E3
:1038B0002330310519F021303105F9F420918406C7
:1038C00065E0211101C066E00E9441736091540FD0
:1038D000062E000C770B80918106909182060E9443
:1038E000457561E080918106909182060E94737512
:1038F0000E942C7681E08093030840E157E260E06B
:1039000070E08AE59FE00E9436138091850661E0B1
:1039100070E0882311F062E070E085E20E944615B5
:10392000609181067091820687E40C947015209155
:10393000840665E0211101C066E00E944173609138
:10394000540F062E000C770B809181069091820611
:103950000E94457550E040E061E0809181069091C1
:1039600082060E941275C4CF0895CF93DF93C09151
:103970008106D09182062197C43F81E0D80730F4B8
:10398000C0917F06D0918006CD50DE4F8091850694
:10399000882351F00E94131CD0938206C0938106A5
:1039A000DF91CF910C943D1CD0938206C093810689
:1039B000BE0188E4DF91CF910C947015CF93DF9313
:1039C000C0918106D0918206219680917F069091C8
:1039D00080068D509E4F8C179D0710F4C4EFD1E0E8
:1039E00080918506882351F00E94131CD093820693
:1039F000C0938106DF91CF910C943D1CD093820639
:103A0000C0938106BE0188E4DF91CF910C947015BC
:103A100020919807309199072150310923303105C1
:103A200018F464E00C94417308958FE891E00E94CB
:103A3000081D87E390E00E94081D8BE691E00E943C
:103A4000081D8CE691E00C94081D8DE890E00E9422
:103A5000081D8EE890E00E94081D8FE890E00E940B
:103A6000081D80E990E00E94081D81E990E00E9415
:103A7000081D82E990E00E94081D83E990E00E9401
:103A8000081D84E990E00E94081D809195059091A1
:103A90009605059721F483EA91E00E94081D809124
:103AA000950590919605069721F484EA91E00E948D
:103AB000081D89E491E00E94081D8CE491E00E94B9
:103AC000081D80918706811106C08091970690910C
:103AD0009806892B11F40C94151D0895CF92DF924E
:103AE000EF92FF920F931F93CF93DF936C01F62E0B
:103AF000C42F14160CF4C0E0CA3B0CF4CAEB80913E
:103B00009807909199078230910591F18330910542
:103B100019F0019709F048C00C2E000CDD0B222390
:103B200081F06AEB7FEFC6010E9445756E2DC601DC
:103B30000E94737520E0A801BE01C6010E940D73AA
:103B400008C0BE01C6010E9445756E2DC6010E94C7
:103B5000737565E0F11001C066E0C601DF91CF9199
:103B60001F910F91FF90EF90DF90CF900C944173D5
:103B70000C2E000CDD0B222361F06AEB7FEFC601F7
:103B80000E94457550E040E06E2DC6010E941275FE
:103B9000D1CFBE01C6010E94457550E040E06E2DB8
:103BA000C6010E941275D5CFDF91CF911F910F9161
:103BB000FF90EF90DF90CF900895EF920F931F93B7
:103BC000CF93DF93EC01809195059091960581301C
:103BD000910509F4A7C0029709F4A1C08091A0073C
:103BE0009091A1078330910509F478C08530910543
:103BF00009F492C0029709F07CC080912F028530B1
:103C000009F461C08AE090E00E94081D87E490E01A
:103C10000E94081D80E891E00E94081D89E490E060
:103C20000E94081D8AE490E00E94081D81E08093B4
:103C300087060E94151D8091A0079091A107059706
:103C4000E1F580918F05882321F08EE491E00E94B8
:103C5000081D81E090E00E94081D85E991E00E9426
:103C6000081DEE24E39410E000E020E04091550FA1
:103C700060E08FE891E00E946E1D04EC19E021E005
:103C80004091550F61E087E390E00E946E1D8091A6
:103C90007D0690917E06059711F40E94FB16AE01F9
:103CA00070E060E082EF9FE00E94361381E0809335
:103CB000900680938C0680938B06DF91CF911F91A5
:103CC0000F91EF90089588E891E00E94081D8BE81D
:103CD00091E00E94081D8AE891E09ECF8BE090E081
:103CE0000E94081D87E490E00E94081D8AE090E091
:103CF00093CF81E891E00E94081D82E891E00E9444
:103D0000081D83E891E00E94081D8FE690E00E9464
:103D1000081D8EE690E088CF82E891E0F4CF85E33D
:103D200090E082CF8BE390E07FCFCF92DF92EF9253
:103D30000F931F93CF93DF9368EE73E00E94E0B977
:103D4000EB016B0184EBC80ED11CCB018D549F4F4E
:103D50000E94081DC6010E94081DCE018B549F4F72
:103D60000E94081DEE24E39410E000E020E0409162
:103D7000550F60E0C6010E946E1DDF91CF911F912B
:103D80000F91EF90DF90CF9008958330B9F198F4C0
:103D9000823009F442C08091280290912902885E05
:103DA0009340803D27E0920708F446C09093290293
:103DB0008093280212C0843091F0853061F78091A1
:103DC000200290912102885E9340803D27E0920777
:103DD00098F190932102809320020C94951E80917B
:103DE000220290912302885E9340803D27E0920753
:103DF00018F19093230280932202EFCF8091240246
:103E000090912502885E9340803D27E09207A0F0C4
:103E10009093250280932402E0CF80912602909116
:103E20002702885E9340803D27E0920728F0909318
:103E3000270280932602D1CF08958330B9F198F4F8
:103E4000823009F442C08091280290912902885161
:103E50009C4F81362AEE920708F046C090932902C3
:103E60008093280212C0843091F0853061F78091F0
:103E700020029091210288519C4F81362AEE9207B0
:103E800098F590932102809320020C94951E8091C6
:103E900022029091230288519C4F81362AEE92078C
:103EA00018F59093230280932202EFCF8091240291
:103EB0009091250288519C4F81362AEE9207A0F4FA
:103EC0009093250280932402E0CF80912602909166
:103ED000270288519C4F81362AEE920728F490934E
:103EE000270280932602D1CF0895EF920F931F935C
:103EF0000E94151D1092870680919306882309F46D
:103F000071C04091550F8091A0079091A107EE24B8
:103F1000E39410E000E020E060E0059709F05EC067
:103F200082E691E00E946E1D809195059091960524
:103F3000029709F04BC04091550F485204EF11E031
:103F400021E061E085E991E00E946E1D80918F057E
:103F5000882361F0EE24E39400ED17E021E0409126
:103F6000550F61E08EE491E00E946E1D1092900664
:103F700010928B060E9459191092FA0F1092FB0FA3
:103F800040E050E0BA0181E499E10E94361340E03C
:103F900050E0BA018BE299E10E94361340E050E014
:103FA000BA018BE291E10E94361380917D069091D7
:103FB0007E060597B9F480911C02882399F061E090
:103FC0008DE21F910F91EF900C94DE77EE24E39435
:103FD00000ED17E021E04091550FB3CF8CE691E062
:103FE0000E946E1D1F910F91EF900895EF920F9315
:103FF0001F9380919005882331F080E691E00E9424
:10400000081D10929005809195059091960582303B
:10401000910509F4BAC18330910509F4E6C101970D
:1040200009F4CBC18091A0079091A10720912F02A4
:10403000253009F43FC120917A06222309F428C1D2
:104040004091550FE12C10E000E020E060E083306B
:104050009105A1F08530910509F413C1029709F08B
:1040600009C18DE791E00E946E1D0AEF10E021E08A
:104070004091550F61E08FE791E00CC084E690E03D
:104080000E946E1D04E619E121E04091550F61E0A8
:1040900083E690E00E946E1D81E080932705809169
:1040A0002605882309F403C18091A0079091A107F8
:1040B0004091550FE12C10E000E020E060E08330FB
:1040C000910509F0E8C084E690E00E946E1D04E6C8
:1040D00019E121E04091550F61E088E490E00E94F1
:1040E0006E1D81E0809325058091A0079091A10726
:1040F00004970297F8F480912F028530D8F48AEC67
:104100009FE00E94C0122091950530919605683B72
:104110007B408105910508F074C16091550F2230F4
:10412000310509F06CC1685244E650E080E190E04E
:104130000E9405768091950590919605059759F412
:10414000E12C04E610E021E04091550F60E083EAA5
:1041500091E00E946E1D80919505909196050697BD
:1041600059F4E12C04E610E021E04091550F60E0A5
:1041700084EA91E00E946E1D81E080938A0687E0C8
:104180000E9496158091A0079091A107049702972D
:1041900070F460912F0270E088E99AE30E94E0B920
:1041A000AB0170E060E085E399E10E9436138091F5
:1041B0002A02882309F18091930590919405029732
:1041C000D9F40E94CFB728E030E040E050E00E94F0
:1041D00071B9695F7F4F8F4F9F4F28EE33E0629F29
:1041E000A001639F500D729F500D112470E060E09C
:1041F00084ED9FE00E94361380E00E945816809163
:104200009505909196050297A1F0E0912F02E1505B
:10421000FF0BEE0FFF1FE55DF34F4591549170E0EA
:1042200060E083E390E10E94361310923110109207
:10423000321010924F10109250108FEF0E940F17F3
:10424000109218101092191042E350E060E070E0F4
:1042500086E090E10E94361381E08093890648E968
:104260005AE360E070E08EED9FE01F910F91EF90B8
:104270000C9436138BE990E00E946E1D03E111E06F
:10428000F6CE8FE491E00E946E1D08EC10E0EFCEB8
:104290001092270504CF059739F48FE491E00E942E
:1042A0006E1D0CE211E015CF85E090E0F8CF109282
:1042B00025051ACF4091550FE12C10E000E020E0D9
:1042C00060E08330910509F445C08530910509F41B
:1042D00047C0029709F041C087E891E00E946E1D37
:1042E00080917A06882309F449C08091A0079091B3
:1042F000A10721E0209327054091550FE12C823042
:10430000910589F504EA16E061E089E891E00E94F0
:104310006E1D80912605882351F28091A00790910F
:10432000A10721E0209325054091550FE12C0CEBCE
:1043300012E08330910529F10CE211E021E00297AF
:1043400001F504EA16E021E061E089E891E00E94CD
:104350006E1DCACE81E690E0C1CF8BE990E0BECF62
:104360008FE491E0BBCF0CE211E0039711F40CEB6A
:1043700012E021E061E082E690E0C9CF10922705CB
:10438000C8CF61E088E490E0E2CF85E390E00E944E
:10439000081DE12C10E000E020E04091550F60E0A6
:1043A00083E390E00E946E1D02E513E021E040915E
:1043B000550F61E084E390E0CACF8BE390E00E9468
:1043C000081DE12C10E000E020E04091550F60E076
:1043D00089E390E00E946E1D08EE13E021E0409119
:1043E000550F61E08AE390E0B2CFE12C10E000E0ED
:1043F00020E04091550F60E086E491E0A8CF625044
:1044000093CE8AEC9FE02230310541F40E94C01225
:104410002091550F2852AB01622F88CE0E94C01206
:104420002091550F2250F7CFEF920F931F93409199
:10443000550F8091950590919605EE24E39410E038
:1044400000E020E060E0029751F583E591E00E94F2
:104450006E1D81E080938F06809195059091960561
:104460000297D9F548EB5BE060E070E08DE390E106
:104470000E9436138091A0079091A107029702979E
:1044800040F48CE291E090933102809330020E94DC
:10449000961986E11F910F91EF900C94961588E67E
:1044A00091E00E946E1D8091A0079091A107049752
:1044B000029740F420E04091550F61E089E691E0D9
:1044C0000E946E1DEE24E39410E000E020E0409195
:1044D000550F60E085E591E0BACF40EA5FE060E02B
:1044E00070E08DE390E10E94361310920E1010924E
:1044F0000F10109218101092191042E350E060E073
:1045000070E086E090E1B4CFEF920F931F9380911B
:104510009505909196058230910509F47CC0833011
:104520009105A9F1019709F47DC08091A0079091B0
:10453000A10720912F02253009F455C08330910541
:1045400071F08530910509F44BC0029709F045C020
:104550008DE791E00E94081D8FE791E006C084E698
:1045600090E00E94081D83E690E00E94081D809163
:104570002A02882321F089E090E00E94081D88E447
:1045800090E00E94081D82E690E00E94081D809144
:10459000930590919405009709F44BC0019709F495
:1045A00068C010922705109225058091950590917D
:1045B0009605059721F483EA91E00E94081D8091F9
:1045C000950590919605069709F071C084EA91E0EF
:1045D0001F910F91EF900C94081D80E690E0BACFE8
:1045E0008FE491E0B7CF8330910561F0853091057C
:1045F00079F0029751F487E891E00E94081D89E85C
:1046000091E0B3CF81E690E0B0CF8BE990E0ADCF01
:104610008FE491E0AACF83E390E00E94081D84E339
:1046200090E0B3CF89E390E00E94081D8AE390E018
:10463000ACCF82E090E090939405809393058091B5
:10464000980790919907039741F48AE490E00E94BB
:10465000081D89E490E00E94081DE12C10E000E0B4
:1046600020E04091550F60E089E490E00E946E1DCB
:1046700098CF82E090E09093940580939305809189
:10468000980790919907039741F48EE690E00E9475
:10469000081D8FE690E00E94081DE12C10E000E06C
:1046A00020E04091550F60E08FE690E0DFCF1F9152
:1046B0000F91EF9008950F931F93CF93DF9300D046
:1046C00000D0CDB7DEB7122F242F462F682FCE0192
:1046D00001960E94B373BE016C5F7F4FCE010196BD
:1046E0000E947A136D817C81111102C06C817D81E1
:1046F0008E8126960FB6F894DEBF0FBECDBFDF9138
:10470000CF911F910F9108950F931F93CF93DF9334
:1047100010E0809148021817D0F4C09140192C2F56
:10472000210F3327331FC901E901CC0FDD1FC80F4B
:10473000D91FC956DA4F00E020E04FEF60E081E07A
:104740000E945B23688379838A831F5FE2CFDF91B6
:10475000CF911F910F910C9496192F923F924F92E7
:104760005F926F927F928F929F92AF92BF92CF9201
:10477000DF92EF92FF920F931F93CF93DF9380917D
:104780001A020E94C909C82F80911602D5E0882319
:1047900031F06091950581E00E944608D82F80E0B5
:1047A0000E94990920904019280E81E00E949909E1
:1047B00030904019380E82E00E94990940904019CB
:1047C000480E83E00E94990920914019582E520EFC
:1047D00080919505909196050497039708F4D5E08C
:1047E00090901702A22CB12CC32CD12CE42CF12CCC
:1047F000652C712C911038C14501880C991C8A0CCC
:104800009B1C940129563A4F490100E020E04C2FAF
:104810006D2F81E00E945B23F401608371838283AA
:104820004601880C991C8C0C9D1C940129563A4F0A
:10483000490120E04C2F6D2F81E00E945B23F401A1
:104840006083718382834701880C991C8E0C9F1CA6
:10485000940129563A4F490120E04C2F6D2F81E0F9
:104860000E945B23F4016083718382834301880C7F
:10487000991C860C971C940129563A4F490120E057
:104880004C2F6D2F81E00E945B23F40160837183C4
:104890008283809118028111C9C0C50101965C0113
:1048A000AA0CBB1CA80EB91E950129563A4F5901F6
:1048B00020E04C2F6D2F81E00E945B23F501608387
:1048C0007183828380914019821508F4C2C02090C0
:1048D0005719F8EF2F0EA22CB12CC501880F991F84
:1048E000A80EB91E950129563A4F590100E020E063
:1048F0004C2F6D2F81E00E945B23F5016083718353
:104900008283C60101966C01CC0CDD1CC80ED91E39
:10491000960129563A4F690120E04C2F6D2F81E016
:104920000E945B23F601608371838283809140192A
:10493000831508F490C080915719885090E06C015D
:10494000CC0CDD1C8C0D9D1D9C0129563A4F690134
:1049500000E020E04C2F6D2F81E00E945B23F601E8
:10496000608371838283C70101967C01EE0CFF1C7A
:10497000E80EF91E970129563A4F790120E04C2F95
:104980006D2F81E00E945B23F70160837183828336
:1049900080914019841508F461C08091571988509E
:1049A00090E07C01EE0CFF1C8E0D9F1D9C01295692
:1049B0003A4F790100E020E04C2F6D2F81E00E94FA
:1049C0005B23F701608371838283C30101963C01FD
:1049D000660C771C680E791E930129563A4F3901EF
:1049E00020E04C2F6D2F81E00E945B23F301608358
:1049F0007183828380914019851598F180915719B0
:104A0000885090E07C01EE0CFF1C8E0D9F1D9C01D8
:104A100029563A4F790100E020E04C2F6D2F81E0BC
:104A20000E945B23F701608371838283DF91CF91C2
:104A30001F910F91FF90EF90DF90CF90BF90AF90BC
:104A40009F908F907F906F905F904F903F902F90AE
:104A500008952A9440CF8FEF830D70CF8FEF840D90
:104A60009FCF8FEF850DCDCF822F90E0F501E81B12
:104A7000F90BEF5AF94F20812223C1F0F601E81B10
:104A8000F90BEF5AF94F2081222381F0F701E81B3F
:104A9000F90BEF5AF94F2081222341F0F301E81B73
:104AA000F90BEF5AF94F80818111DBC10E949619F1
:104AB00060911D0270911E0290E080E00E943CB85F
:104AC00020E030E040EC5FE30E949DB80E9422BBF2
:104AD0009B01AC0180914019B501681B7109D9E1B6
:104AE000D69FC001D79F900D112401E010E06C2FDC
:104AF0008B5C9E4E0E945F6E60911D0270911E0243
:104B000090E080E00E943CB820E030E040EC5FE3C1
:104B10000E949DB80E9422BB9B01AC01809140196C
:104B2000B601681B7109D69FC001D79F900D112453
:104B30006C2F8B5C9E4E0E945F6E60911D02709187
:104B40001E0290E080E00E943CB820E030E040ECA3
:104B50005FE30E949DB80E9422BB9B01AC01809143
:104B60004019B701681B7109D69FC001D79F900DEE
:104B700011246C2F8B5C9E4E0E945F6E60911D0213
:104B800070911E0290E080E00E943CB820E030E08E
:104B900040EC5FE30E949DB80E9422BB9B01AC01E8
:104BA00080914019B301681B7109D69FC001D79F3E
:104BB000900D11246C2F8B5C9E4E0E945F6E809135
:104BC0001802811133CF992031F160911D0270914B
:104BD0001E0290E080E00E943CB820E030E040EC13
:104BE0005FE30E949DB80E9422BB9B01AC01FFEFD6
:104BF000AF1ABF0A80914019A81AB10869E16A9DED
:104C0000C0016B9D900D112401E010E06C2F8B5CB6
:104C10009E4E0E945F6ED0914019D21508F423C1B8
:104C20002090571928EF220E992009F446C0609170
:104C30001D0270911E0290E080E00E943CB820E0CE
:104C400030E040EC5FE30E949DB80E9422BB9B01D4
:104C5000AC01822D8D1B990B5C01D9E1DA9DC0015D
:104C6000DB9D900D112401E010E06C2F8B5C9E4EBB
:104C70000E945F6E60911D0270911E0290E080E0C4
:104C80000E943CB820E030E040EC5FE30E949DB819
:104C90000E9422BB9B01AC019FEFC91AD90A8091E7
:104CA0004019C81AD108DC9DC001DD9D900D11246A
:104CB0006C2F8B5C9E4E0E945F6ED0914019D31575
:104CC00008F4D3C030905719E8EF3E0E992009F44C
:104CD00046C060911D0270911E0290E080E00E942B
:104CE0003CB820E030E040EC5FE30E949DB80E94B9
:104CF00022BB9B01AC01832D8D1B990BBC01D9E11B
:104D0000D69FC001D79F900D112401E010E06C2FB9
:104D10008B5C9E4E0E945F6E60911D0270911E0220
:104D200090E080E00E943CB820E030E040EC5FE39F
:104D30000E949DB80E9422BB9B01AC019FEFE91A23
:104D4000F90A80914019E81AF108DE9DC001DF9D43
:104D5000900D11246C2F8B5C9E4E0E945F6ED09143
:104D60004019D41508F483C040905719E8EF4E0E4F
:104D7000992009F446C060911D0270911E0290E0D6
:104D800080E00E943CB820E030E040EC5FE30E940D
:104D90009DB80E9422BB9B01AC01842D8D1B990BF9
:104DA000BC01D9E1D69FC001D79F900D112401E02D
:104DB00010E06C2F8B5C9E4E0E945F6E60911D0216
:104DC00070911E0290E080E00E943CB820E030E04C
:104DD00040EC5FE30E949DB80E9422BB9B01AC01A6
:104DE0009FEF691A790A80914019681A7108D69D57
:104DF000C001D79D900D11246C2F8B5C9E4E0E949C
:104E00005F6ED0914019D515A0F150905719E8EF79
:104E10005E0E992009F40ACE60911D0270911E0267
:104E200090E080E00E943CB820E030E040EC5FE39E
:104E30000E949DB80E9422BB252D2D1B330BA9017A
:104E400029E1249FF001259FF00D112401E010E0DD
:104E50009B01AC016C2FCF018B5C9E4E0E945F6E5C
:104E6000E5CD912CACCE2A94DFCE3A942FCF4A9444
:104E70007FCF5A94CECF4F925F926F927F92AF9234
:104E8000BF92CF92DF92EF92FF920F931F93CF9337
:104E9000DF93C82F80911A020E94C909F82E0E9440
:104EA000C619AC2EB12C80911702811158C0650132
:104EB000CC0CDD1CCA0CDB1CC60189569A4F6C0158
:104EC00000E020E04FEF60E081E00E945B23F6010C
:104ED0006083718382838091180281112FC0FFEF5C
:104EE000AF1ABF0A7501EE0CFF1CEA0CFB1CC701D0
:104EF00089569A4F7C0120E04FEF60E081E00E94EC
:104F00005B23F701608371838283809140198C1742
:104F100020F1C0915719C850D0E0CE01880F991FD9
:104F2000C80FD91FC956DA4F00E020E04FEF60E00C
:104F300081E00E945B23688379838A83DF91CF912C
:104F40001F910F91FF90EF90DF90CF90BF90AF90A7
:104F50007F906F905F904F900895C150DDCF80910A
:104F600040199501281B3109F901EF5AF94F808149
:104F70008F113DC0D9E1D29FC001D39F900D112464
:104F80006F2D835E9A4E0E94926E60911D02709109
:104F90001E0290E080E00E943CB820E030E040EC4F
:104FA0005FE30E949DB82B013C0160912C0270E0F0
:104FB00090E080E00E943EB89B01AC01C301B201C9
:104FC0000E94B0BA0E9422BB9B01AC0180914019A3
:104FD000B501681B7109D69FC001D79F900D1124A0
:104FE00001E010E060E0835E9A4E0E945F6E809167
:104FF00018028111A3CF6501FFEFCF1ADF0A80915C
:1050000040199601281B3109F901EF5AF94F8081A7
:105010008F113CC0D9E1D29FC001D39F900D1124C4
:105020006F2D835E9A4E0E94926E60911D02709168
:105030001E0290E080E00E943CB820E030E040ECAE
:105040005FE30E949DB82B013C0160912C0270E04F
:1050500090E080E00E943EB89B01AC01C301B20128
:105060000E94B0BA0E9422BB9B01AC018091401902
:10507000C81AD108DC9DC001DD9D900D112401E00E
:1050800010E060E0835E9A4E0E945F6E809140194E
:1050900090E0C1508A159B051CF0C0915719C8506B
:1050A000D0E09E01281B390BF901EF5AF94F80819E
:1050B0008F1144CF19E1129FC001139F900D11244D
:1050C0006F2D835E9A4E0E94926E60911D027091C8
:1050D0001E0290E080E00E943CB820E030E040EC0E
:1050E0005FE30E949DB86B017C0160912C0270E02F
:1050F00090E080E00E943EB89B01AC01C701B60180
:105100000E94B0BA0E9422BB9B01AC018091401961
:10511000C81BD1091C9FC0011D9F900D112401E0E7
:1051200010E060E0835E9A4E0E945F6E07CF8F9220
:105130009F92AF92BF92DF92EF92FF920F931F93D5
:10514000CF93DF93EC0185E0809308020E94C6199B
:105150008BE299E10E940613882309F4D5C060917F
:105160002C0270E0CE010E94E0B9EB018091370281
:10517000882309F4E9C085E099E10E94F36B882354
:1051800009F4CEC010923702AE0170E060E08BE20D
:1051900099E10E943613D0933302C093320283E226
:1051A00080934D0380918A0681110CC080918F06F7
:1051B000811108C080918E06811104C080914D0339
:1051C0000E940F170E94B31681119EC080910202A7
:1051D0008111EAC080910902882321F080913F1952
:1051E0000E943B27809176038F5F843008F0DFC0F8
:1051F00080937603809176030E949909C0914019AB
:10520000C80FC0933F1980910902882309F47CC01C
:1052100080911A020E94C909182F8091160245E058
:10522000D42E882331F06091950581E00E944608D4
:10523000D82E809148028C3011F430E2D32EAC2E5F
:10524000B12C7501EE0CFF1CEA0CFB1CC701895642
:105250009A4F7C0100E020E0412F6D2D81E00E94FB
:105260005B23F70160837183828380914019F5018C
:10527000E81BF109EF5AF94F108380911802811150
:1052800043C07501FFEFEF1AFF0A4701880C991C14
:105290008E0C9F1CC40189569A4F4C0120E0412F6F
:1052A0006D2D81E00E945B23F40160837183828312
:1052B0008091401990E0F701E81BF90BEF5AF94F84
:1052C0001083C1508A159B051CF0C0915719C85016
:1052D000D0E07E01EE0CFF1CEC0EFD1EC7018956CE
:1052E0009A4F7C0100E020E0412F6D2D81E00E946B
:1052F0005B23F70160837183828380914019C81B0F
:10530000D109CF5AD94F1883DF91CF911F910F91B7
:10531000FF90EF90DF90BF90AF909F908F90089597
:1053200085E099E10E945D6CAC0170E060E08BE289
:1053300099E10E94361385E099E10E945D6C90939B
:105340003302809332022BCF80919006882321F183
:1053500085E099E10E94F36B882319F01092900682
:1053600021CF85E099E10E945D6CAC0170E060E0C6
:105370008BE299E10E94361385E099E10E945D6C11
:10538000909333028093320280914D0381508F308D
:1053900008F006CF8FE004CFAB0170E060E08BE255
:1053A00099E10E943613FECE109202021BCF10929A
:1053B000760320CFDF92EF92FF920F931F93CF934C
:1053C000DF938091160215E0882331F060919505F6
:1053D00081E00E944608182F809148028C3009F421
:1053E00010E28091A0079091A10702970297B0F177
:1053F000D0E0C0E08C2F0E94C416882319F1FE0172
:10540000EF5AF94FD0808C2F0E94C416909140190A
:10541000292F280F3327331FC90101977C01EE0C78
:10542000FF1C8E0D9F1DFC01E956FA4F7F0100E025
:1054300020E04D2D612F81E00E945B23F701608306
:10544000718382832196C832D105A1F6DF91CF9175
:105450001F910F91FF90EF90DF900895F12C8091B4
:105460004802F81698F78F2D90E0C0914019C80FA8
:10547000D92FD11D9E01220F331FC20FD31FC95632
:10548000DA4F8F5A994F00E020E0FC014081612FF4
:1054900081E00E945B23688379838A83F394DFCF62
:1054A000EF92FF920F931F93CF93DF93C82F8091BA
:1054B0000E020E94C909182F80913105D4E188237A
:1054C00031F06091950580E00E944608D82F8091C8
:1054D0008606082E000C990BEC2FF0E08E179F0724
:1054E0008CF12091490228171906F9F0F4F0809107
:1054F00032058823F9F02D30D1F4E858F64FE491C5
:10550000F0E07F01EE0CFF1CEE0DFF1DCF01895670
:105510009A4F7C0100E020E0412F6D2F80E00E9437
:105520005B23F701608371838283CF5FD0CFE7591C
:10553000F64FE5CF2D3019F4E45AF64FE0CFE35B98
:10554000F64FDDCFDF91CF911F910F91FF90EF903C
:105550000895EF92FF920F931F93CF93DF93809163
:10556000090281115BC180911602D5E0882331F0D8
:105570006091950584E00E944608D82F809114021E
:105580000E94C909C82F10914C0380918E06882370
:1055900009F4B1C0112309F474C0A59A739A8091DB
:1055A00002018860809302018091020180618093F2
:1055B00002018091020180628093020180910201C8
:1055C00080648093020180911202909113020097EF
:1055D00009F424C1D0E00197A1F500E020E04C2FB0
:1055E00065E084E00E945B236093EB037093EC031F
:1055F0008093ED0320E04C2F65E084E00E945B2364
:105600006093EE037093EF038093F00320E04C2F40
:105610006BE084E00E945B236093F1037093F203DC
:105620008093F30320E04C2F6BE084E00E945B2327
:105630006093F4037093F5038093F60320E04C2FFE
:10564000C9C08D2F90E0209146022150330B821764
:1056500093070CF0E3C07C01EE0CFF1CE80EF91E72
:10566000C70185519C4F7C0100E020E04C2F65E094
:1056700084E00E945B23F701608371838283DF5F94
:10568000E0CFA598739880910201877F80930201F3
:10569000809102018F7E80930201809102018F7DB3
:1056A00080930201809102018F7B8093020180919F
:1056B000120290911302892B09F4B0C0812F90E05F
:1056C000209146022150330B821793070CF0A6C09D
:1056D000EC01CC0FDD1FC80FD91FC551DC4F00E016
:1056E00020E04FEF60E084E00E945B2368837983D1
:1056F0008A831F5FE3CF183008F090C0E12FF0E0FD
:105700008827EA57F44D8F4F0C9408BA8E2BC92B7B
:10571000152C5B2CA22CE32C112D3F2DA5987398F2
:1057200080910201877F80930201809102018F7E28
:1057300080930201809102018F7D8093020180910C
:1057400002018F7B809302018091120290911302DB
:10575000892B09F463C010E0812F90E0209146026C
:105760002150330B821793070CF058C0EC01CC0F7B
:10577000DD1FC80FD91FC551DC4F00E020E04FEFFF
:1057800060E084E00E945B23688379838A831F5FE3
:10579000E3CFA598739880910201877F80930201DF
:1057A000809102018F7E80930201809102018062CC
:1057B00080930201809102018064809302018091B4
:1057C000120290911302009749F100E020E04C2F63
:1057D000019771F46FE084E00E945B236093F7030C
:1057E0007093F8038093F90320E04C2F6FE00DC015
:1057F0006D2F84E00E945B236093F7037093F8039E
:105800008093F90320E04C2F6D2F84E00E945B23EE
:105810006093FA037093FB038093FC03DF91CF91B5
:105820001F910F91FF90EF900895A5987398809124
:10583000020188608093020180910201806180935F
:105840000201809102018062809302018091020135
:10585000806480930201809112029091130200975C
:10586000E9F200E020E04C2F0197B9F46BE084E00E
:105870000E945B236093F1037093F2038093F30320
:1058800020E04C2F6BE084E00E945B236093F403E4
:105890007093F5038093F603C1CF6D2F84E00E94CF
:1058A0005B236093F1037093F2038093F30320E092
:1058B0004C2F6D2FE8CFA59A739A809102018860D2
:1058C00080930201809102018061809302018091A6
:1058D00002018062809302018091020180648093C2
:1058E00002018091120290911302009709F496CF61
:1058F00000E020E04C2F0197B9F465E084E00E94BD
:105900005B236093EB037093EC038093ED0320E043
:105910004C2F65E084E00E945B236093EE0370935C
:10592000EF038093F0037ACF6D2F84E00E945B2316
:105930006093EB037093EC038093ED0320E04C2F16
:105940006D2FE8CFA59A739A8091020188608093A9
:105950000201809102018061809302018091020125
:105960008062809302018091020180648093020131
:105970008091120290911302009709F44FCF10E02A
:10598000019709F42ACE812F90E020914602215000
:10599000330B821793070CF041CF7C01EE0CFF1CF8
:1059A000E80EF91EC70185519C4F7C0100E020E004
:1059B0004C2F6D2F84E00E945B23F701608371837D
:1059C00082831F5FE0CFA59A739A8091020188605D
:1059D0008093020180910201806180930201809195
:1059E00002018F7D80930201809102018F7B809361
:1059F00002018091120290911302892B09F40ECFBB
:105A000000E020E04FEF60E084E00E945B236093C1
:105A1000F7037093F8038093F90320E04FEF60E001
:105A2000F4CEA59A739A80910201877F8093020138
:105A3000809102018F7E80930201809102018F7D0F
:105A400080930201809102018F7B809302018091FB
:105A5000120290911302892B09F4E0CE00E020E0BD
:105A60004FEF60E084E00E945B236093F10370934A
:105A7000F2038093F30320E04FEF60E004CFA5989A
:105A8000739880910201877F8093020180910201C7
:105A90008F7E80930201809102018F7D80930201AD
:105AA000809102018F7B809302018091120290917C
:105AB0001302892B09F4B2CE00E020E04FEF60E042
:105AC00084E00E945B236093EB037093EC0380936C
:105AD000ED0320E04FEF60E01DCFEF92FF920F93B8
