:100000000C94BD040C94EE040C94EE040C94EE04D9
:100010000C94EE040C94EE040C94EE040C94EE0498
:100020000C94EE040C94EE040C94EE040C94EE0488
:100030000C94EE040C94EE040C94EE040C94EE0478
:100040000C94EE040C94EE040C94EE040C94EE0468
:100050000C94EE040C94EE040C94EE040C94EC6AF4
:100060000C94EE040C945C6C0C94326C0C94EE04C6
:100070000C94EE040C94EE040C94EE040C94EE0438
:100080000C94EE040C94EE040C94EE040C94EE0428
:100090000C94086C0C94DE6B0C94EE040C94866C3F
:1000A0000C94EE040C94EE040C94EE040C94EE0408
:1000B0000C94EE040C94EE040C94EE040C94EE04F8
:1000C0000C94EE040C94EE040C94EE040C94B46BBB
:1000D0000C948A6B0C94EE040C94606B0C94366B4D
:1000E0000C94EE0405A84CCDB2D44EB93836A90212
:1000F0000C50B9918688083CA6AAAA2ABE00000026
:10010000803F07634236B79BD8A71A39685618AEA6
:10011000BAAB558C1D3CB7CC5763BD6DEDFD753E3C
:10012000F6177231BF000000803F08000000BE9249
:100130002449123EABAAAA2ABECDCCCC4C3E00002C
:100140000080BEABAAAAAA3E00000000BF000000CB
:10015000803F0000000000084178D3BB4387D113E3
:100160003D190E3CC3BD4282AD2B3E68EC8276BE8B
:10017000D98FE1A93E4C80EFFFBE01C4FF7F3F0055
:10018000000000000C94005E0C94FC580C94D627E0
:100190000C942C6A0C94AF680C94593A0C945C61E2
:1001A0000C940C2F0C9418380C94AA310C94F67CF7
:1001B0000C9417390C9405650C94FC420C94F33F95
:1001C0000C9402280C9407300C94D53F0C94B56223
:1001D0000C94AB2C0C943C300C9454320C946E3335
:1001E0000C9443560C9427560C9453400C9478313D
:1001F0000C94FA3B0C947E260C94DE310C941B3943
:100200000C9494620C9439630C947A640C94B32D1E
:100210000C94FC400C940C6A0C94D6300C94615EE7
:100220000C943E2D0C941D6A0C944C560C94D130B9
:100230000C94D0420C94636A0C947A3E0C94F02691
:100240000C947B730C9458440C9495280C941031A6
:100250000C94EC270C9483730C947D680C94486A7E
:100260000C94B9630C941A560C941B420C944B27B3
:100270000C940D390C94033B0C94E7270C94AE3D81
:100280000C9431560C94C2300C949E2B0C94F24377
:100290000C94226A0C9427400C941B6A0C945156BF
:1002A0000C949C260C944C3C0C94A9300C94213258
:1002B0000C941D2F0C9487680C9441050C94153AEE
:1002C0000C94B3300C94886A0C94A4050C94EF2819
:1002D0000C94D1320C942C330C946A410C948E37CC
:1002E0000C9498260C9424280C94A3620C944868CF
:1002F0000C9453310C9491680C945F2B0C94B8308F
:100300000C9445050C94FE690C9491730C9424652F
:100310000C94D8620C94C5270C94F8580C94C462C1
:100320000C948F730C94AF050C94BD3C0C94CD369B
:100330000C945A680C94723B0C9460430C94EA370A
:100340000C94483C0C941E560C9478620C945F39C3
:100350000C94A03F0C941F6A0C9479280C9442339F
:100360000C942B560C94DB260C9416560C941444C7
:100370000C9417640C9457280C946B320C94DF6225
:100380000C94A5680C948B730C94623E0C94F369E6
:100390000C9424630C9435280C9412430C94196A21
:1003A0000C94503C0C9480410C943D400C9471573B
:1003B0000C94153B0C943F360C94B1260C94303FB2
:1003C0000C9402340C9412610C942E290C94E34585
:1003D0000C940D630C94D83B0C9495400C944629D6
:1003E0000C9428410C94B5380C94503B0C9450421A
:1003F0000C94A1450C9422300C9440680C942C6809
:100400000C9454410C9402330C9456300C946B3C75
:100410000C9413290C94FD050C943C590C94992EC2
:100420000C94A4300C949B680C94C6620C941C57DA
:100430000C94F5600C9408060C94E6410C94D832A8
:100440000C947E280C94C2350C949F5B0C94286A03
:100450000C943A290C947D380C94156A0C94136A08
:100460000C943E050C948A300C946B260C94DD2879
:100470000C94DD2F0C943D320C9493440C94D0409A
:100480000C949D5B0C94C6260C9419570C944D64E7
:100490000C944A3E0C9409450C94F3390C943F5645
:1004A0000C94EC620C94B63B0C947A430C94EC588C
:1004B0000C949D3A0C949B3C0C94D8330C94682873
:1004C0000C94A7280C9441250C9469400C940F2897
:1004D0000C9416290C94E13A0C9415360C941D6872
:1004E0000C9484330C947A450C94E6400C940129C6
:1004F0000C94C2270C9422290C9494260C943E410F
:100500000C9409390C9452290C9470300C940B06FD
:100510000C94F1270C94B9380C94CE440C94E95700
:100520000C9439560C94CB280C949A600C94373A5E
:100530000C94266A0C94246A0C94CB340C94116AA3
:100540000C94D0430C94AE430C9412410C94366836
:100550000C94EE620C9485420C9483650C94F85EC6
:100560000C9476650C9446280C94232C0C94114022
:100570000C94AE300C94BA420C9450680C94086AF7
:100580000C9490630C94C7600C94692B0C944643B4
:100590000C9479730C946E680C94833C0C943D39E4
:1005A0000C94F7650C9401390C94AB390C94935767
:1005B0000C9411390C9422310C94E9300C940F6A8C
:1005C0000C94323E0C94353D0C9422680C94CB6212
:1005D0000C94EF300C9447560C9412560C94BD308A
:1005E0000C94B32B0C9436580C94D62F0C94035EB9
:1005F0000C9460370C94055E0C9446380C94F958B2
:100600000C94F9690C9485570C94BF3A0C942156BC
:100610000C94EA640C9429270C94F63E0C942A6AF4
:100620000C9476450C9434370C94176A0C947B3AEE
:100630000C9462570C94992B0C944D560C943644A0
:100640000C946F6A0C94F6380C947F400C94AE3383
:100650000C943A340C947D620C9496410C940C5694
:100660000C94B9280C943A270C9420060C94BE6084
:100670000C944A370C94D9630C9435560C942C4343
:100680000C94262E0C94DA620C941A3E0C94872F4C
:100690000C9492360C94CF3C0C9464680C94AB3C54
:1006A0000C945F270C94036A0C9458330C945A26CC
:1006B0000C94AC410C94F9620C9483280C94BC37D4
:1006C0000C948D730C9448630C947F540C94944355
:1006D0000C9423060C94E6420C94B2600C94CC303B
:1006E0000C94BD380C94882B0C94C7300C94CF2FED
:1006F0000C9416680C943F310C949E320C947E45F9
:100700000C94943BB80B0000B80B0000AC0D00003B
:10071000AC0D0000A00F000030750000983A0000FA
:10072000102700004C1D000070170000001C120A6A
:10073000041F160D02110C07010A0704000A121CFF
:10074000040D161F02070C110104070A010203041D
:1007500005060708090A0B0C0D0E0F1011121314D1
:1007600015161718191A1B1C1D1E1F2021222324C1
:1007700025262728010203040506070809000A0B9D
:100780000C0D0E0F10111200131415161718191A4C
:100790001B001C1D1E1F2021222324000102030414
:1007A000050000000000060708090A00000000001C
:1007B0000B0C0D0E0F00000000001011121314009E
:1007C000000000000102030000000000000004051A
:1007D00006000000000000000708090000000000FB
:1007E00000000A0B0C0000000000000000000000E8
:1007F0006410B71DC8206E3BAC30D9269041DC7622
:10080000F4516B6B5861B24D3C7105502083B8EDCB
:1008100044930FF0E8A3D6D68CB361CBB0C2649BEF
:10082000D4D2D38678E20AA01CF2BDBD4552524F05
:10083000523A204E6F2063616C6C6261636B206181
:100840007661696C61626C6520666F7220706163AD
:100850006B6574204944200000002100240027001B
:100860002A002D00300033000101000004010701BF
:100870000A0100002200250028002B002E00310074
:10088000340002010000050108010B0100002000F6
:100890002300260029002C002F0032000001000058
:1008A00003010601090105050505070508080808F3
:1008B000020202020A0A08080404040401010101F8
:1008C00001010101030303030303030304070707F3
:1008D0000C0C0C0C0C0C0C0C020202020606060698
:1008E000060606060B0B0B0B0B0B0B0B0102102065
:1008F0002008081020401020408002010201080456
:1009000002010102040810204080804020100804E9
:100910000201800402018040201008040201080442
:100920000201010204081020408001020408102086
:10093000408000000A0B02090C0D0E080703040199
:1009400000000000000000000000000000000000A7
:100950000000000000000000000000000000121174
:100960001000000000000000000000000000000077
:100970000000000000000000F67C11241FBECFEF35
:10098000D1E2DEBFCDBF00E00CBF13E0A0E0B2E0DB
:10099000E2EFF1E201E00BBF02C007900D92A63337
:1009A000B107D9F728E1A6E3B3E001C01D92AC3945
:1009B000B207E1F714E0CDEBD4E000E006C02197E8
:1009C0000109802FFE010E94978FCC3BD10780E068
:1009D0000807A9F70E94CA7F0C94F7900C940000B6
:1009E00081E080930A0280930902809308020895AF
:1009F000E82FF0E080914102843259F0883261F0B2
:100A0000843121F0EC53F84F84910895E456F84F67
:100A1000FBCFEC58F84FF8CFE45BF84FF5CFA59833
:100A20007398E2E0F1E08081877F808380818F7E10
:100A3000808380818F7D808380818F7B80831092F3
:100A40006A03089580912002882349F081E0209173
:100A5000540C3091550C232B19F080E0089581E05F
:100A60000895853608F084E62FEF829FC001112497
:100A700064E670E00E94838F862F089590E080E006
:100A80000895FC018585968508950F931F93CF9354
:100A9000DF9300D0CDB7DEB7AB0119821A821B827B
:100AA000DC01ED91FC910190F081E02D00E010E07F
:100AB00020E0BE016F5F7F4F19950F900F900F9050
:100AC000DF91CF911F910F910895CF93DF9380E72E
:100AD0009CE00E94D272882309F4FCC080910B0232
:100AE0008111C6C0E0916A038091C7038823D9F0C1
:100AF000EE2351F1A59A739A809102018860809348
:100B000002018091020180618093020180910201C3
:100B100080628093020180910201806480930201CF
:100B200010926A0337C0E830A8F5F0E08827E45651
:100B3000FA4F8F4F0C94978FA405AF05FD0508065B
:100B400008060B0620062306A598739880910201DB
:100B5000877F80930201809102018F7E66C0A598F5
:100B6000739880910201877F809302018091020136
:100B70008F7E809302018091020180628093020146
:100B80008091020180648093020180916A038F5FEB
:100B900080936A03C0910002D091010260910D021E
:100BA00070E0CE010E946F8F20910A0280912D0487
:100BB00090912E040297029708F46DC0222309F445
:100BC0005AC084E795E10E94756FBE01645D7E4F57
:100BD000681B790B8091C703882331F06091000274
:100BE00070910102660F771FAB0170E060E080E753
:100BF0009CE0DF91CF910C940273A598739880913B
:100C00000201886080930201809102018061B1CF6E
:100C1000A59A739AF4CFA59A739A8091020188607D
:100C20008093020180910201806180930201809192
:100C300002018F7D80930201809102018F7BA3CFFF
:100C4000A59A739A83CFA598739880910201877FA4
:100C500080930201809102018F7E80930201809136
:100C600002018F7D80930201809102018F7B56CF1C
:100C70000E940F058FCF80916F03882309F4AACFBC
:100C800084E795E10E94756F609100027091010206
:100C9000680F791F9FCF222359F084E795E10E94C6
:100CA000756F60910002709101026A517440F0CF3B
:100CB00080916F03882309F48DCF84E795E10E942A
:100CC000756F9C01CE0166E070E00E946F8F620F2D
:100CD000731F80CFDF91CF9108950F931F93CF9310
:100CE000DF930CE913E0D0E0C0E0F80111928F012E
:100CF00070E060E0CE0180509F4E0E94696F70E00E
:100D000060E0CE018056934F0E94696F6C96C036AA
:100D1000F4E0DF0751F7DF91CF911F910F91089514
:100D2000CF92DF92FF920F931F93CF93DF93C82F41
:100D300080912E020E943105F82ECC2ED12C80916C
:100D40009B159601281B3109F901E456FC4F80815F
:100D5000F81228C06F2D70E0DCE1D29FC001D39F54
:100D6000900D112480509F4E0E94696F60910E0279
:100D700070E086E594E00E946F8F9B0150E040E0B8
:100D800080919B15B601681B7109D69FC001D79F42
:100D9000900D112405E110E070E060E080509F4E5E
:100DA0000E94306F80911F0281116DC086010F5F1C
:100DB0001F4F80919B159801281B3109F901E456BA
:100DC000FC4F8081F81227C06F2D70E0DCE1D29FCC
:100DD000C001D39F900D112480509F4E0E94696FD7
:100DE00060910E0270E086E594E00E946F8F9B0197
:100DF00050E040E080919B15081B1109D09FC00175
:100E0000D19F900D112405E110E070E060E080506A
:100E10009F4E0E94306F80919B158C17E0F1C0911E
:100E2000B215C850D0E09E01281B3109F901E456E3
:100E3000FC4F8081F81227C06F2D70E01CE1129FDB
:100E4000C001139F900D112480509F4E0E94696F26
:100E500060910E0270E086E594E00E946F8F9B0126
:100E600050E040E080919B15C81BD1091C9FC00138
:100E70001D9F900D112405E110E070E060E08050AE
:100E80009F4E0E94306FDF91CF911F910F91FF9085
:100E9000DF90CF900895C150C5CFFF920F931F935D
:100EA000CF93DF93EC0180912E020E943105082F31
:100EB0008AE695E10E94D272882309F424C28091C7
:100EC0009A1590919B15891B0E94F804182F809108
:100ED0000A02882309F4A2C036E0F32EF0922C0215
:100EE00084E795E10E94FC6E882361F110920A026A
:100EF000D0930302C093020280912702882331F02D
:100F000080914102843269F08832A1F4AE0170E030
:100F100060E08AE695E10E9402738CE3809370039F
:100F200040C01111F3CF89E08C9FA0018D9F500D1F
:100F30001124EDCF1111EACF80911102AE01481BAF
:100F40005109E5CF84E795E10E94756FAC0190935C
:100F500003028093020280912702882379F0809116
:100F60004102843249F0883249F0111107C0809162
:100F70001102481B510902C01123E9F170E060E041
:100F80008AE695E10E940273809170038F5F8E3133
:100F900008F442C080937003809170038D3308F091
:100FA000BCCF8091D00381110CC08091CF038111FF
:100FB00008C08091C703811104C0809170030E9412
:100FC000817680910E02682F70E0909141029432F8
:100FD00009F4F6C0983219F0943109F05DC18230FD
:100FE00008F0F0C0CE010E946F8FEB01CC0FDD1F27
:100FF000C60FD71FFBC029E0249FC001259F900D7D
:101000001124813B24E0920728F0F49EC001F59E54
:10101000900D1124AC01B2CF8EE1BCCF80916F0353
:10102000882309F451C086E080932C0284E795E17F
:101030000E94FC6E882319F010926F03B2CF84E7F0
:1010400095E10E94756FAC019093030280930202B8
:1010500080912702882379F080914102843249F0FF
:10106000883249F0111107C080911102481B5109C3
:1010700002C01123A9F070E060E08AE695E10E94C9
:101080000273209102023091030229323105A8F047
:1010900080917003843260F08150809370030DC0A2
:1010A00029E0249FC001259F900D1124AC01E3CFBE
:1010B0002536310510F0803178F7809170038F303C
:1010C00008F06FCF8FE02ACFD0930302C0930202C3
:1010D00080910E0290914102943219F0983209F0F9
:1010E00041C08230D0F1AE01481B510920910B0262
:1010F000222399F08A5F80932C024115510519F043
:10110000C417D50710F441E050E080912C028B30D9
:1011100068F08AE080932C0209C086E080932C025C
:101120004115510509F059C141E050E08091270275
:10113000882339F1943219F1983219F1111121C033
:101140008091110290E020910202309103028217F7
:10115000930770F5481B590B14C086E080932C024E
:10116000AE01D3CF26E020932C02AE018230F0F204
:10117000481B5109C9F2C417D507B0F2D7CF1123C4
:1011800019F070E060E017C08091110290E02091AA
:101190000202309103028217930750F4481B590B47
:1011A00029E0249FC001259F900D1124AC01E9CFB7
:1011B00040E050E0BA018AE695E10E940273F1CE68
:1011C000823018F0C61BD70B11C0CE010E946F8F62
:1011D000EB0180910A02811109C080916F03811196
:1011E00005C0CB01880F991FC80FD91F209711F494
:1011F000C1E0D0E040919A1580919B15481B550B9A
:10120000FA01E456FC4F908180912702209126023A
:10121000222309F47EC0911127C0882311F01123E5
:1012200019F11CE1149FC001159F900D112470E06D
:1012300060E08056934F0E94696F9E0150E040E04D
:10124000602F70E090919A1580919B15A92FA81B93
:10125000BB0B1A9FC0011B9F900D112404E110E0ED
:101260008056934F0E94306F80919A158F5F8093C4
:101270009A15482F50E0909127029923E9F1209187
:10128000420230E0295D3F4F241735077CF48091FE
:101290009B1580939A1537C0823008F093CFCE010A
:1012A0000E946F8FEB01CC0FDD1FA0CF9091110238
:1012B00020910202309103029217130620F19091BF
:1012C0004102983201F190919B15891B0E94F8040C
:1012D000811119C0C0919A15C832A8F480919B154C
:1012E000BC2FB81B8B2F0E94F804882319F0C093E1
:1012F0009A1509C0CF5FF0CF8091B2158750990B36
:101300004817590724F6DF91CF911F910F91FF9055
:101310000895911126C0882311F0112311F11CE1C9
:10132000149FC001159F900D112470E060E080565D
:10133000934F0E94696F9E0150E040E0602F70E083
:10134000E0919A1580919B15E81BFF0B1E9FC00131
:101350001F9F900D112404E110E08056934F0E94CE
:10136000306F80919A15815080939A1590919B15BA
:1013700020912702222351F1891720F48091420203
:10138000895D87CF409111022091020230910302C2
:101390004217130608F4B7CF20914102283209F40E
:1013A000B2CF891B0E94F8048111ADCFC0919A156C
:1013B00080919B158C1708F0A6CF2C2F281B822F0D
:1013C0000E94F804811193CFC150F2CF891708F021
:1013D0009ACF8091B21588505CCFC417D50708F416
:1013E00092CEA4CE80915F03811154C080912104DC
:1013F00090912204892B09F44DC080911F04909193
:101400002004843F21E0920708F444C021E02093A7
:1014100061032091B6053091B70521503109223082
:101420003105F8F42091600365E0211101C066E008
:101430000E944C666091D206062E000C770B8091BC
:101440001F04909120040E949B6661E080911F041C
:10145000909120040E9473660E94EF6681E0809361
:101460001C0640E25EE460E070E086ED96E00E94DB
:10147000027360911F047091200486E80E942A750F
:1014800089E80E94507560911F04709120048AE2DF
:101490000C949F730895FF920F931F93CF93DF9344
:1014A000EC01F62E08811981C8010E94938BF81671
:1014B00021F06F2DC8010E949B8BCE01DF91CF914F
:1014C0001F910F91FF900895843008F080E0909173
:1014D0004102E82FF0E080912602882399F09432AF
:1014E00059F0983261F0943121F0E85BF84F849123
:1014F0000895EC5BF84FFBCFE05CF84FF8CFE45C6D
:10150000F84FF5CF943251F0983259F0943119F0E8
:10151000E85CF84FECCFEC5CF84FE9CFE05DF84FBA
:10152000E6CFE45DF84FE3CF5F926F927F928F92A8
:101530009F92AF92BF92CF92DF92EF92FF920F9362
:101540001F93CF93DF9380912E020E943105D82FF5
:1015500080E00E94640A00919B15582E500E81E095
:101560000E94640A60909B15680E82E00E94640AE3
:10157000C0919B15C80F83E00E94640A90919B154F
:10158000782E790E852C912C9401291B3109F901B3
:10159000E456FC4F8081811122C01CE1129FC001E2
:1015A000139F900D112470E060E08056934F0E94CD
:1015B000696F6D2F70E080919B159401281B310994
:1015C000129FC001139F900D112404E110E022ED41
:1015D00030E040E050E08056934F0E94306FA62CE0
:1015E000B12C80919B159501281B3109F901E45616
:1015F000FC4F8081811122C01CE1129FC001139F0A
:10160000900D112470E060E08056934F0E94696F46
:101610006D2F70E080919B159501281B3109129F59
:10162000C001139F900D112404E110E022ED30E081
:1016300040E050E08056934F0E94306FCC2ED12C6A
:1016400080919B159601281B3109F901E456FC4F46
:101650008081811122C01CE1129FC001139F900D57
:10166000112470E060E08056934F0E94696F6D2FE7
:1016700070E080919B159601281B3109129FC001D3
:10168000139F900D112404E110E022ED30E040E0C2
:1016900050E08056934F0E94306FE72CF12C8091E0
:1016A0009B159701281B3109F901E456FC4F8081F5
:1016B000811122C01CE1129FC001139F900D1124C3
:1016C00070E060E08056934F0E94696F6D2F70E06C
:1016D00080919B159701281B3109129FC001139F10
:1016E000900D112404E110E022ED30E040E050E0E4
:1016F0008056934F0E94306F80911F0281118FC1DD
:101700008FEF881A980A80919B159401281B310944
:10171000F901E456FC4F8081811121C01CE1129F28
:10172000C001139F900D112470E060E08056934F2C
:101730000E94696F6D2F70E080919B15881A910847
:10174000189DC001199D900D112404E110E022EDB7
:1017500030E040E050E08056934F0E94306F80911F
:101760009B150091B2150850851510F40FEF050D6B
:1017700010E09801281B3109F901E456FC4F8081E3
:10178000811122C09CE1992E929EC001939E900DE2
:10179000112470E060E08056934F0E94696F6D2FB6
:1017A00070E080919B15081B1109909EC001919ECD
:1017B000900D112404E110E022ED30E040E050E013
:1017C0008056934F0E94306F8FEFA81AB80A80910D
:1017D0009B159501281B3109F901E456FC4F8081C6
:1017E000811121C01CE1129FC001139F900D112493
:1017F00070E060E08056934F0E94696F6D2F70E03B
:1018000080919B15A81AB1081A9DC0011B9D900DCF
:10181000112404E110E022ED30E040E050E0805679
:10182000934F0E94306F90919B158091B215885014
:10183000961510F48FEF860D082F10E09801291BE4
:101840003109F901E456FC4F8081811122C08CE1FD
:10185000B82EB29EC001B39E900D112470E060E0DE
:101860008056934F0E94696F6D2F70E080919B1599
:10187000081B1109B09EC001B19E900D112404E116
:1018800010E022ED30E040E050E08056934F0E949F
:10189000306F8FEFC81AD80A80919B159601281BCC
:1018A0003109F901E456FC4F8081811121C01CE10E
:1018B000129FC001139F900D112470E060E08056CC
:1018C000934F0E94696F6D2F70E080919B15C81A2D
:1018D000D1081C9DC0011D9D900D112404E110E054
:1018E00022ED30E040E050E08056934F0E94306F90
:1018F00080919B158C1708F4A2C0C091B215C850F6
:101900000C2F10E09801281B3109F901E456FC4F17
:101910008081811121C0CCE1C29FC001C39F900D85
:10192000112470E060E08056934F0E94696F6D2F24
:1019300070E080919B15081B1109C09FC001C19FD9
:10194000900D112404E110E022ED30E040E050E081
:101950008056934F0E94306F8FEFE81AF80A8091FB
:101960009B159701281B3109F901E456FC4F808132
:10197000811121C0CCE1C29FC001C39F900D1124F1
:1019800070E060E08056934F0E94696F6D2F70E0A9
:1019900080919B15E81AF108CE9DC001CF9D900D56
:1019A000112404E110E022ED30E040E050E08056E8
:1019B000934F0E94306F80919B150091B215085093
:1019C000871510F40FEF070D10E09801281B31095F
:1019D000F901E456FC4F8081811121C0CCE1C29F06
:1019E000C001C39F900D112470E060E08056934FBA
:1019F0000E94696F6D2F70E080919B15081B110983
:101A0000C09FC001C19F900D112404E110E022EDA0
:101A100030E040E050E08056934F0E94306FDF91FD
:101A2000CF911F910F91FF90EF90DF90CF90BF90DB
:101A3000AF909F908F907F906F905F900895C1506E
:101A40005FCFAF92BF92DF92EF92FF920F931F93FF
:101A5000CF93DF93EC0186E080932C028AE695E138
:101A60000E94D272882309F44DC160910E0270E089
:101A7000CE010E946F8F7B01809104028111F4C01E
:101A800080919A150E949006809171038F5F843037
:101A900008F0EDC080937103809171030E94640A85
:101AA000D0919B15C82FCD0FC0939A1580912E020F
:101AB0000E943105D82EAC2EB12C95012D1B310979
:101AC000F901E456FC4F8081811128C0DCE1D29FEE
:101AD000C001D39F900D112470E060E08056934FB9
:101AE0000E94696F60910E0270E082ED90E00E94AA
:101AF0006F8F9B0150E040E06D2D70E080919B1551
:101B0000F501E81BF109DE9FC001DF9F900D112454
:101B100004E110E08056934F0E94306F80911F02C5
:101B200081116EC085010F5F1F4F80919B15980139
:101B3000281B3109F901E456FC4F8081811127C02F
:101B4000DCE1D29FC001D39F900D112470E060E0D2
:101B50008056934F0E94696F60910E0270E082ED93
:101B600090E00E946F8F9B0150E040E06D2D70E08F
:101B700080919B15081B1109D09FC001D19F900D2A
:101B8000112404E110E08056934F0E94306F809141
:101B90009B158C1708F46EC0C091B215C850D0E0E8
:101BA0009E01281B3109F901E456FC4F8081811107
:101BB00027C01CE1129FC001139F900D112470E0FB
:101BC00060E08056934F0E94696F60910E0270E052
:101BD00082ED90E00E946F8F9B0150E040E06D2D00
:101BE00070E080919B15C81BD1091C9FC0011D9FEF
:101BF000900D112404E110E08056934F0E94306F45
:101C000080910A02882309F44CC084E795E10E9480
:101C1000FC6E882389F110920A02A70170E060E04F
:101C20008AE695E10E940273F0920302E0920202BA
:101C300083E2809370038091D003811163C080910F
:101C4000CF0381115FC08091C70381115BC0809178
:101C50007003DF91CF911F910F91FF90EF90DF9074
:101C6000BF90AF900C948176109204020DCF109229
:101C7000710312CFC15093CF84E795E10E94756F35
:101C8000AC01990F660B770B8AE695E10E9402730F
:101C900084E795E10E94756F90930302809302029E
:101CA000C7CF80916F03882329F184E795E10E94D3
:101CB000FC6E882319F010926F03BDCF84E795E185
:101CC0000E94756FAC01990F660B770B8AE695E160
:101CD0000E94027384E795E10E94756F909303025E
:101CE000809302028091700381508F3008F0A1CF61
:101CF0008FE09FCFA70170E060E08AE695E10E9447
:101D0000027399CFDF91CF911F910F91FF90EF90C8
:101D1000DF90BF90AF90089580912D0490912E0494
:101D20000297029768F485E595E09093030280930B
:101D300002028CE291E090930702809306020895DC
:101D40008CE291E09093030280930202F4CF0F9310
:101D50001F93CF93DF9300D000D0CDB7DEB78FEFC6
:101D60009FEFDC0189839A83AB83BC8310E000E0A2
:101D70001E830D83BE016B5F7F4FCE0101960E94D3
:101D80001573BE016A5F7F4FCE0101960E941573E5
:101D90000F5F1F4F0532110559F78AE190E09E83CE
:101DA0008D83BE016B5F7F4FCE0101960E9415733C
:101DB000BE016A5F7F4FCE0101960E9415738BE0D2
:101DC00090E09E838D83BE016B5F7F4FCE010196B5
:101DD0000E941573BE016A5F7F4FCE0101960E947B
:101DE000157369817A818B819C816095709580954E
:101DF000909526960FB6F894DEBF0FBECDBFDF914B
:101E0000CF911F910F910895EF92FF920F931F931F
:101E1000CF93DF9300D000D0CDB7DEB70E94A70EDE
:101E200069837A838B839C83CE0101967C010CEFBE
:101E30001FE01E830D83F70161917F01CE0105969E
:101E40000E944B0A0F5F1F4F0115F0E11F0789F732
:101E500026960FB6F894DEBF0FBECDBFDF91CF91AF
:101E60001F910F91FF90EF9008950F931F93CF93C1
:101E7000DF931F921F92CDB7DEB70BE010E01A83FD
:101E8000098360E0CE0101960E944B0A0F5F1F4F4D
:101E900005321105A1F70E94040F0F900F90DF91FA
:101EA000CF911F910F9108950F931F93CF93DF93BD
:101EB0001F921F92CDB7DEB710E000E01A830983AE
:101EC00060E0CE0101960E944B0A0F5F1F4F0B305E
:101ED0001105A1F70E94040F0F900F90DF91CF9191
:101EE0001F910F9108958091B6059091B7050197C4
:101EF000029738F48091D506082E000C990B0C94AB
:101F0000276608952091B6053091B7052150310913
:101F10002230310518F464E00C944C660895CF9299
:101F2000DF92EF92FF920F931F93CF93DF936C0199
:101F3000F62E8091B6059091B7058230910549F54E
:101F40004B301CF14AE0C42F440FDD0B222361F11A
:101F50006AEB7FEFC6010E949B666E2DC6010E9450
:101F60007366A801BE01C6010E94C26665E0F11059
:101F700001C066E0C601DF91CF911F910F91FF90E4
:101F8000EF90DF90CF900C944C664A3BE4F64AEB1E
:101F9000DACF0197C1F2DF91CF911F910F91FF909E
:101FA000EF90DF90CF900895BE01C6010E949B661E
:101FB0006E2DC6010E947366D9CFEF920F931F93C7
:101FC00081E090E09093D2038093D1031092290492
:101FD000109228040E942205811126C080912D04B0
:101FE00090912E0402970297A0F48091350490916D
:101FF0003604019771F040E050E0BA018AE695E1BD
:102000000E94027340E050E0BA018CE59CE00E941F
:1020100002730E94527789E00E94C57383E71F9183
:102020000F91EF900C9450758AE00E94C57384E77D
:102030000E9450758BE490E00E94820F8EE790E042
:102040000E94820F8FE790E00E94820F8CE591E062
:102050000E94820F80912D0490912E048230910570
:1020600009F444C0039709F473C04091D3068091EA
:10207000350490913604019709F07FC04E51EE244B
:10208000E39410E000E020E060E08FE090E00E9448
:102090008F0F4091D306485200E516E421E061E03D
:1020A00080E190E00E948F0F80912D0490912E048A
:1020B000059799F480910B0281110FC04091D306CE
:1020C00080912304480FEE24E39400ED17E021E013
:1020D00061E08EE491E00E948F0F40E556E460E0FD
:1020E00070E08EE197E00E94027316C0EE24E39444
:1020F00010E000E020E04091D30660E081E090E055
:102100000E948F0F00ED17E021E04091D30661E0BF
:1021100083E090E00E948F0F809135049091360407
:1021200082309105D1F18330910509F440C00197C7
:1021300059F4EE24E39404E813E021E040E061E088
:1021400082E390E00E948F0F1F910F91EF9008950E
:10215000EE24E39410E000E020E04091D30660E03C
:1021600085E290E00E948F0F08EB1BE021E0409198
:10217000D30661E086E290E0CDCFEE24E39410E058
:1021800000E020E060E08FE090E00E948F0F00E52B
:1021900016E421E04091D30682CFEE24E39404E8D4
:1021A00013E021E040E061E087E390E0CBCFEE2454
:1021B000E39404E813E021E040E061E087E491E08B
:1021C000C1CFEF920F931F938091D5068A3B21F1E7
:1021D000809139028530F0F51092390280913902F0
:1021E0002CE3829FC001112464E670E00E94838F7B
:1021F00084EC860F8093D5068093D1062091B60596
:102200003091B705215031092230310528F4082ECC
:10221000000C990B0E9427668091D503811114C090
:102220008091D603811110C080E490E00E94820F5B
:10223000EE24E39410E000E020E04091D50660E059
:1022400080E490E00E948F0F86E41F910F91EF9041
:102250000C94C973855080933902C0CFEF920F93CD
:102260001F93809139028036F0F184E68093390221
:10227000809139022CE3829FC001112464E670E052
:102280000E94838F6C536093D5066093D106809132
:10229000D503811114C08091D603811110C080E450
:1022A00090E00E94820FEE24E39410E000E020E032
:1022B0004091D50660E080E490E00E948F0F80910D
:1022C000B6059091B7050197029738F48091D5062D
:1022D000082E000C990B0E94276686E41F910F912F
:1022E000EF900C94C9738B5FC1CF1F93CF93DF9393
:1022F00000D000D0CDB7DEB7122F0E94C569698328
:102300007A838B83BE016C5F7F4FCE0101960E9462
:10231000C1716D817C81111102C06C817D818E81C2
:1023200026960FB6F894DEBF0FBECDBFDF91CF91DA
:102330001F910895FF920F931F93CF93DF93F82E71
:102340000091350410913604602F84E00E94677379
:10235000D82FF092C803C091B115FF2099F1809158
:10236000D003811104C08091CF03882329F1012B70
:1023700051F4E0910F02E150D1E0E53020F4F0E0BB
:10238000EA58FD4FD0818091B215C817A0F58C2F67
:1023900090E08C01000F111F080F191F04501B4FF4
:1023A00020E04FEF6D2F84E00E947511F8016083EB
:1023B00071838283CF5FE7CF8091C703882319F3AE
:1023C000D3E0E1CF8091B215C817A8F48C2F90E02C
:1023D0008C01000F111F080F191F04501B4F20E024
:1023E0004FEF60E084E00E947511F8016083718313
:1023F0008283CF5FE7CFDF91CF911F910F91FF9045
:102400000895EF920F931F930E949D768091D003C1
:10241000882309F44CC08091D303811123C080919B
:102420003504909136048230910509F4AAC08330B6
:102430009105C1F0019709F49AC082E397E00E94E8
:102440008C72683873418105910508F077C0E12CE2
:1024500010E000E020E04091D30660E08BE090E0E7
:102460000E948F0F80912D0490912E040497029763
:10247000F0F480910F028530D0F48EE197E00E9455
:102480008C722091350430913604683E734081058A
:10249000910508F080C06091D3062130310509F420
:1024A00068524EE150E080E190E00E949F6A1092F5
:1024B000D303109230071092310789E00E945075C3
:1024C00010929815109299151092D0031092CB0388
:1024D0001092CA031092A40B1092A50B1092AE0B8F
:1024E0001092AF0B80E00E949A110E94B46A81E0C2
:1024F0008093C90380E00E94267680E00E94FF75E9
:1025000080E00E94D87510923A0710923B07109213
:10251000CC0B1092CD0B1092C20B1092C30B80917A
:102520002D0490912E040297029708F447C08AE682
:1025300091E01F910F91EF900C94820F82E397E04E
:102540000E948C72E12C10E000E020E060317742C4
:102550008105910530F44091D30660E087E490E076
:102560007FCF4091D30660E08AE090E079CFE12C04
:1025700010E000E020E04091D30660E085E390E0C9
:102580006FCFE12C10E000E020E04091D30660E046
:102590008BE390E065CF8EE197E02130310541F487
:1025A0000E948C722091D3062852AB01622F7BCF00
:1025B0000E948C72AB016091D30675CF8CE390E0E2
:1025C000B8CF0F931F93CF93809127048823F9F0FE
:1025D000C0912A0280911002C817C8F4809110029D
:1025E000C817A8F48C2F90E08C01000F111F080F62
:1025F000191F075C1B4F20E04FEF60E083E00E9453
:102600007511F801608371838283CF5FE7CFCF912B
:102610001F910F910895CF92DF92EF92FF920F9347
:102620001F93CF93DF93EC0186E99CE00E94D27266
:10263000882309F409C280910802882341F18AE7BE
:102640009CE00E94FC6E882389F110920802AE0182
:1026500070E060E086E99CE00E940273D09307027C
:10266000C093060260910E02623008F42BC1643000
:1026700009F41CC108F051C0623009F41DC1633077
:1026800009F41AC1209709F455C0219750C08091D0
:10269000C603882301F10E94E1128AE79CE00E94B0
:1026A000FC6E882319F01092C603DCCF8AE79CE009
:1026B0000E94756FAC01990F660B770B86E99CE061
:1026C0000E9402738AE79CE00E94756F9093070254
:1026D00080930602C7CFD0930702C0930602809171
:1026E0000E02823008F400C2853090F0CE010497CB
:1026F000009709F4FCC1C817D90708F4F8C1EC0128
:10270000AE0170E060E086E99CE00E940273AACF0F
:102710009E01281B3109C901EBCF653009F4C6C001
:10272000663009F0AFCFC430D10520F02497C23015
:10273000D10510F4C2E0D0E010912D02812F0E944B
:102740003105D82EE0903504F090360480912102B6
:1027500063E0882329F06E2D82E00E946773682F62
:1027600080912D0490912E04059741F4EF2831F4C7
:10277000812F86950E943105D82E68E080910B024A
:10278000C090C50390912602992309F4B5C0811128
:1027900030C0EC2C0C2C000CFF0880912604870123
:1027A000000F111F882309F493C021E04D2D82E012
:1027B0000E947511F801EE0DFF1DE75CFB4F608371
:1027C00071838283C1108FC080912A028150990B3E
:1027D0008C01000F111F080F191F075C1B4F20E011
:1027E0004FEF60E082E00E947511F8016083718311
:1027F00082838091C5038F5F8093C50320912A0255
:10280000082E000C990B2817190609F014F41092E1
:10281000C50310912704112309F416C10091100279
:10282000D0902A02D01608F00FC180912D020E948C
:102830003105682FED2CF12C8091C403082E000C7B
:10284000990B8E159F0514F4D092C4032091C403F4
:1028500080912D0490912E04059709F0EFC080918E
:10286000350490913604892B09F0E8C016951D0DAA
:10287000422F022E000C550B1417150609F0A4F474
:102880009091BB059F5F953008F090C0892F8370B1
:1028900009F48CC09093BB058091BB05813009F48D
:1028A00089C0823009F4CCC089E085C0C330D1052D
:1028B00008F440CF23973BCFC230D10508F43ACF7C
:1028C000229735CF70E0CE010E946F8FEB012FCFA2
:1028D0000E0D1F1D075C1B4F20E04D2D82E00E9456
:1028E0007511F8016CCFF1E0EF1AF1088701000FC4
:1028F000111F0E0D1F1D71CF81112AC00C2DCC0C84
:10290000110B809126047801EE0CFF1C882369F1DD
:1029100021E04D2D82E00E947511F701E00FF11FBB
:10292000E75CFB4F60837183828380912A02815030
:10293000990B0817190734F120E04FEF60E082E0AF
:102940000E9475116093390470933A0480933B049C
:102950008091C50381508093C50387FF5ACF809132
:102960002A0281508093C50354CFE00EF11E9701D7
:10297000275C3B4F790120E04D2D82E00E947511CC
:10298000F701D0CFC80101968C01000F111F080F6D
:10299000191F075C1B4F20E04FEF60E082E00E94B0
:1029A0007511F801608371838283D2CF81E08093B7
:1029B000BB0572CF88E090912602992309F44DC09F
:1029C00010E0A89770F590910B0291112AC0022E89
:1029D000000C330BA901440F551F240F351FE901CB
:1029E000C75CDB4F0E946B72688379838A83809116
:1029F000C403082E000C990BE816F90609F4C80167
:102A00000197EC01CC0FDD1FC80FD91FC75CDB4F4E
:102A100020E04FEF60E083E00E94751168837983C6
:102A20008A838091C4038F5F282F082E000C330BFC
:102A3000201731073CF48093C40306C080E0BBCF6D
:102A400081E0B9CFD092C403DF91CF911F910F9154
:102A5000FF90EF90DF90CF9008956E9778F590916A
:102A60000B0291112BC0022E000C330BA901440F55
:102A7000551F240F351FE901C75CDB4F0E946B72A5
:102A8000688379838A838091C403082E000C990B94
:102A9000402F4150550B84179507FCF0E701CC0FF0
:102AA000DD1FCE0DDF1DC75CDB4F20E04FEF60E088
:102AB00083E00E947511688379838A838091C403BF
:102AC0008150282F082E000C330B2E153F050CF0DB
:102AD000B2CF01500093C403B7CF0196EC01CC0FE5
:102AE000DD1FC80FD91FDFCF209709F009CEC1E045
:102AF000D0E006CE1F93CF93DF9310E080912A029F
:102B00001817A0F4812F90E0EC01CC0FDD1FC80F47
:102B1000D91FC75CDB4F20E04FEF60E082E00E94EE
:102B20007511688379838A831F5FE8CFDF91CF9126
:102B30001F910895CF92DF92EF92FF920F931F9310
:102B4000CF93DF9380910B01877F80930B011092CD
:102B500068151092691580919B03811164C0C09122
:102B6000B21580919B1590912702C750C81B9111F7
:102B7000C8E210E000E00C1710F140E0E42E41E163
:102B8000F42E00EA1CE053E7C52E53E0D52ED0E02A
:102B9000CD1709F448C070E060E0C7010E94696F7A
:102BA00070E060E0C8010E94696FF60111926F0148
:102BB000DF5FFCE1EF0EF11C045E1F4FE9CF809157
:102BC0002702882309F1802F0E94F80490919B1519
:102BD000292F280F3327331FC90101977C01EE0CE1
:102BE000FF1C8E0D9F1DFC01E450FB4F7F0120E078
:102BF0004FEF60E081E00E947511F70160837183FF
:102C000082830F5F1F4FB7CFE0909B15C8018E0DD9
:102C1000911D7C01EE0CFF1CE80EF91E970124505B
:102C20003B4F7901E4CF80910502882321F0809108
:102C30009B1580939A158091D1039091D2030097B0
:102C400039F420910402211103C021E020930402F1
:102C500020910B02222371F00E947A150E94E1124A
:102C6000DF91CF911F910F91FF90EF90DF90CF9068
:102C70000C9473762091C703222371F3892B61F39F
:102C8000EFCFEF920F931F9380917203811103C0D6
:102C90008BE50E94C57385E10E9450751092B80BB8
:102CA0001092B90B83EB90E00E94820F84E591E0D3
:102CB0000E94820F8091350490913604019759F15A
:102CC0004091D30680912D0490912E040497EE2418
:102CD000E39410E000E020E060E0029708F062C0BA
:102CE00083E691E00E948F0F80912D0490912E0435
:102CF0000497029720F489E691E00E94820FEE2467
:102D0000E39410E000E020E04091D30660E084EB23
:102D100090E00E948F0F1092CF0380E00E942676F1
:102D200080E00E94FF7580E00E94D87580912D049C
:102D300090912E040297029740F48091350490916F
:102D40003604019711F00E949A151092C7038091E2
:102D50002302882321F00E9473760E948C0E0E9429
:102D6000F0040E94DD0F80E00E949A110E94B46A74
:102D70001092A40B1092A50B1092AE0B1092AF0BF9
:102D80008091350490913604019779F040911102B9
:102D900050E070E060E08AE695E11F910F91EF90BE
:102DA0000C94027386E591E09DCF1F910F91EF90F7
:102DB0000895FF920F931F93CF93DF93182F809165
:102DC0002F020E943105F82E809122020DE0882307
:102DD00031F06091350480E00E946773082F212F45
:102DE00030E080916D03082E000C990B8217930739
:102DF000C4F0409142024817190689F084F0E901B5
:102E0000CC0FDD1FC20FD31FC450DB4F20E04F2D6E
:102E1000602F80E00E947511688379838A831F5F29
:102E2000DECFDF91CF911F910F91FF9008952F92E8
:102E30003F924F925F926F927F928F929F92AF924A
:102E4000BF92CF92DF92EF92FF920F931F93CF9397
:102E5000DF9380910502882399F0109205028091FA
:102E60002D0490912E040297029708F4EAC08091F5
:102E70009B1590912602992309F4E1C080939A153D
:102E80000E9422059091CF038111DFC02091D103D0
:102E90003091D203232B09F4D8C080916E038111A5
:102EA000D4C09111D5C08091C70381112EC08091EB
:102EB0002D0490912E0410920A021092080221E033
:102EC0002093C7030297029708F03AC18091350416
:102ED00090913604019709F433C10E949A1540E09D
:102EE00050E0BA018AE695E10E94027340E050E0AA
:102EF000BA018CE59CE00E9402730E94527789E03F
:102F00000E94C57383E70E9450752091350430916B
:102F1000360480912D0490912E040297029708F4B4
:102F200024C12130310541F0809111022AE0829FB5
:102F3000C00111240E944D0780913F02EEE08E9F58
:102F4000C00111240E940B138CE59CE00E94D272F8
:102F5000882309F4FAC080E00E949A110E94B46AA2
:102F60004AE154E060E070E08CE59CE00E9402736E
:102F70008DE20E9481766091350470913604613053
:102F8000710509F0E8C380912102882309F4E3C3A5
:102F90008091D1039091D203019759F480916815E3
:102FA000811107C040E050E0BA0180E695E10E943F
:102FB000027380E695E10E94D272882309F401C36E
:102FC000E0919B152090B21589EF280E2E1A809162
:102FD000D1039091D203892B09F006C350916F035E
:102FE000552309F401C393E0E99FF0011124E45053
:102FF000FB4F90E080E06EEF921509F4D6C240815D
:10300000469F040E40E0411D40833181369F030EF0
:1030100030E0311D31832281269F020E20E0211DE8
:1030200022831124811108C04111BDC23111BBC2DC
:1030300081E0211101C080E09F5F3396DDCF8E5F7C
:103040001DCF83E0809371031BCF992309F4FDC149
:103050008091C703811136C010920A0210920802B3
:1030600080912D0490912E040297029708F0B4C02D
:103070008091350490913604019709F4ADC00E9407
:103080009A150E946D0640E050E0BA018AE695E18B
:103090000E94027340E050E0BA018CE59CE00E947F
:1030A000027380912302882341F080914202815073
:1030B00080936D0380E00E94D91681E08093C7035E
:1030C0000E94527780912504811109C080913504B6
:1030D00090913604019719F081E00E9426768EECDB
:1030E0009BE00E94D272882309F4DFC04091D3068E
:1030F0008091350490913604EE24E39410E000E0D2
:1031000020E0019709F06DC061E084E591E00E9444
:103110008F0F80910F024091190250911A02833053
:1031200009F4B7C008F0A8C04091170250911802E6
:10313000823009F4AEC04091150250911602A9C028
:1031400044EF51E060E070E0D4CE8CE59CE00E945A
:103150008C726D3072408105910508F009CF81E0D5
:103160000E949A110E94617303CF2130310521F032
:103170008EE49CE00E94210D80913F022EE0829F10
:10318000C00111240E940B138CE59CE00E94D272B6
:10319000882379F04DE052E060E070E08CE59CE03F
:1031A0000E94027380E00E949A110E94B46A8FE02C
:1031B000E0CE8CE59CE00E948C7266307140810507
:1031C000910508F0D8CE83E20E94817681E00E94CA
:1031D0009A110E946173CFCE44EF51E060E070E03D
:1031E0005CCF60E082EB90E00E948F0F0E94178A14
:1031F00024E030E040E050E00E94DB8B623031F1AF
:10320000633069F0613069F5EE24E39408E710E07B
:1032100021E04091D30660E084E691E00AC0EE240C
:10322000E39408E710E021E04091D30660E086E6F1
:1032300091E00E948F0FEE24E39408EE13E021E06A
:103240004091D30661E083EB90E061CFEE24E394FC
:1032500008E710E021E04091D30660E085E691E0C8
:10326000E8CFEE24E39408E710E021E04091D30694
:1032700060E08DE390E0DDCF40911B0250911C0295
:10328000843039F040911D0250911E02853009F0C2
:1032900052CF70E060E080EB9BE00E94027380916F
:1032A0002504811102C00E94267680912D04909100
:1032B0002E040297029708F46FC0809123028111B7
:1032C0005BC080911102FAE08F9FC00111240E941F
:1032D0004D078EE10E94817680913F02EEE08E9F45
:1032E000C00111240E940B138091B80B8823D1F1E7
:1032F00080913504909136040197A1F180912504C5
:10330000882319F081E00E94267681E00E94FF75F3
:1033100081E00E94D8758CE99BE00E94D2728823DC
:1033200009F479C01092A40B1092A50B42E350E06F
:1033300060E070E086EA9BE00E94027380912402C4
:10334000882339F081E00E949A1180912402811132
:1033500007C08091C803811103C081E00E949A11C7
:103360000E94617380EB9BE00E94D272882309F473
:1033700002CE0E944116FFCD80916D03181654F4C1
:10338000809111022AE0829FC00111240E944D0702
:103390008FE0A0CF80E09ECF80913F02FEE08F9F24
:1033A000C00111240E940B138CE59CE00E94D27294
:1033B0008823A9F04DE052E060E070E08CE59CE0ED
:1033C0000E940273C0E08C2F0E94640A90919B15AA
:1033D000890F0E949006CF5FC430A9F785CF8CE596
:1033E0009CE00E948C72663071408105910508F066
:1033F0007BCF80912302811106C08FE00E948176ED
:103400000E94940A71CF80916D031816B4F380E086
:103410000E94817669CF86EA9BE00E94D27288235F
:1034200009F493CF1092AE0B1092AF0B42E350E031
:1034300060E070E08CE99BE00E94027380912402BE
:10344000882309F486CF80E07ECF609102027091DC
:10345000030280910902882309F465C010920902D1
:1034600080912D0490912E0402970297D8F584E75D
:1034700095E10E94696F05E110E028EB3BE040E038
:1034800050E06AE174E084E795E10E94306F60915A
:103490000602709107028AE79CE00E94696F6091C2
:1034A000290270E028EB3BE040E050E08AE79CE036
:1034B0000E94306F8091020290910302C091060237
:1034C000D091070220912D0430912E042250310911
:1034D0002230310508F064C00E94210DCE010E9407
:1034E0000B1349CD84E795E10E94696F6091110249
:1034F00070E009E010E020E737E140E050E084E7C9
:1035000095E10E94306F60910602709107028AE790
:103510009CE00E94696F60913F0270E020E737E114
:1035200040E050E0C3CF80916E03882319F21092DF
:103530006E0384E795E10E94696F609106027091C5
:1035400007028AE79CE00E94696F80912D049091A8
:103550002E040297029798F404E110E024EC39E07D
:1035600040E050E065E575E084E795E10E94306F4A
:1035700024EC39E040E050E06CE271E097CF08E0E5
:1035800010E024E039E240E050E06CE271E084E7D2
:1035900095E10E94306F24E039E240E050E0ECCF4A
:1035A0000E944D079BCF852F47CD4EE150E060E054
:1035B00070E0811199C010926815109269151092EF
:1035C0006F03DF91CF911F910F91FF90EF90DF90EC
:1035D000CF90BF90AF909F908F907F906F905F90B3
:1035E0004F903F902F90089580912102A3E03A2EB2
:1035F000882331F06091350481E00E946773382E92
:103600008091D003882309F44BC0E0910F02E2506F
:10361000C9E7E43020F4F0E0EE58FD4FC081D8E275
:1036200010E000E04C2E512C712C612C021508F09A
:1036300049C0CD2ED12CF12CE12CC414D504E604C4
:10364000F7049CF4530142018C189D08AE08BF0892
:1036500041F00E94178AA50194010E94DB8B4B0167
:103660005C01C80CD91CEA1CFB1CA0909B15A00E89
:10367000B12EB11CC501880F991FA80EB91EF50106
:10368000E450FB4F5F0120E04C2D632D81E00E9450
:103690007511F5016083718382830F5F1F4FC6CF61
:1036A0008091C70381110BC08091CF03811107C0A6
:1036B0008091CE03C9E7D2E3882309F4B1CFC9E2F0
:1036C000D4E1AECFD23331F5C93721F50E94178A44
:1036D0002FE130E040E050E00E94DB8BAB01BC0109
:1036E0004A5B5F4F6F4F7F4F80E695E1DF91CF914F
:1036F0001F910F91FF90EF90DF90CF90BF90AF9010
:103700009F908F907F906F905F904F903F902F9001
:103710000C94027380910F0240E550E060E070E08D
:10372000833011F358F44AE550E060E070E08230F5
:10373000D9F244E650E060E070E0D6CF46E450E0D5
:1037400060E070E0843081F24CE350E060E070E0D3
:10375000853051F2EECF80910B02882309F431CFEE
:1037600080912102E3E07E2E882321F081E00E94F7
:103770006773782E809141028C3011F479E1772EB5
:103780003090B21580919B1590912702F9EF3F0E72
:10379000381A992311F068E2362E80912D04909109
:1037A0002E040297029708F420C133E7E32E33E09A
:1037B000F32EC0E0D1E14CE9A42E43E0B42E50EA50
:1037C000852E5CE0952ED12CC12C442443946C2C86
:1037D000C31408F0F6CEC4010E94216F882341F182
:1037E000F7014082C4010E94756F582EF501808355
:1037F00080912702882309F4DDC08C2D0E94F804F3
:1038000000919B15080F1127111F01501109C801C4
:10381000880F991F080F191F04501B4F20E0452DDA
:10382000672D81E00E947511F801608371838283A6
:1038300080912E020E943105582EC4010E94FC6E18
:10384000882309F44EC0F5018081851508F449C02C
:10385000F7018081882309F444C0F5015082F70103
:103860001082652D70E0CE010E94696F8091410247
:103870002091020230910302843229F0883219F03B
:10388000843109F09DC0C901880F991F280F391F85
:1038900050E040E005E110E070E060E0CE010E9401
:1038A000306F80912702882309F48DC0862D0E94F5
:1038B000F80400919B15080F1127111F01501109E1
:1038C000C801880F991F080F191F04501B4F20E0D3
:1038D000452D672D81E00E947511F8016083718389
:1038E0008283CE010E94216F882351F1F7018081EC
:1038F000811126C0CE010E94756F582EF50180837C
:1039000080912702882309F464C0862D0E94F80460
:1039100000919B15080F1127111F01501109C801B3
:10392000880F991F080F191F04501B4F20E0452DC9
:10393000672D81E00E947511F80160837183828395
:10394000CE010E94FC6E882339F1F701808181113C
:1039500023C0F5011082F70140828091270288235D
:10396000F1F1862D0E94F80400919B15080F112794
:10397000111F01501109C801880F991F080F191F45
:1039800004501B4F20E04FEF60E081E00E94751172
:10399000F801608371838283FFEFCF1ADF0A2FEF74
:1039A000E21AF20A6C968FEFA81AB80A9CE1890E07
:1039B000911C0DCF00919B150C0D1D2D111D27CFB6
:1039C000220F331F65CF00919B150C0D1D2D111D6E
:1039D00077CF00919B150C0D1D2D111DA0CF0091CF
:1039E0009B150C0D1D2D111DC6CF912C7CE1672E52
:1039F00088248394C92DD0E08091B2158750990B0B
:103A000020919B15821B9109C817D9070CF0D9CDBD
:103A1000969C70011124F701E056F34F6F01CF011E
:103A20000E94216F882311F1FE01ED58FC4F808226
:103A3000C6010E94756FB82E00919B150C0F1D2FAB
:103A4000111DC801880F991F080F191F04501B4F23
:103A500020E04B2D672D81E00E947511F8016083F5
:103A600071838283FE01E456FC4FB08280912E0266
:103A70000E943105B82EC6010E94FC6E882331F1E8
:103A8000CE0184569C4F6C01FC0180818B15F0F0B7
:103A9000FE01ED58FC4F80818823C1F000919B15F9
:103AA0000C0F1D2F111DC801880F991F080F191F1A
:103AB00004501B4F20E04B2D672D81E00E947511B3
:103AC000F801608371838283F601B0828701005020
:103AD0001F4EC8010E94216F882389F1C8010E94EE
:103AE000756F582ECE018D589C4F6C01FE01E45627
:103AF000FC4F5F01FDE1F51508F44CC070E060E09B
:103B0000C8010E94696FE0909B15EC0EFD2EF11C20
:103B1000C701880F991FE80EF91EC70184509B4FFB
:103B20007C0120E04FEF60E081E00E947511F70119
:103B3000608371838283F5011082F6018082C8015F
:103B40000E94FC6E882321F18E010D581C4FF80154
:103B5000808181111DC0E0909B15EC0EFD2EF11CA3
:103B6000C701880F991FE80EF91EC70184509B4FAB
:103B70007C0120E04FEF60E081E00E947511F701C9
:103B8000608371838283C456DC4F1882F80180827F
:103B9000939430CFE0909B15EC0EFD2EF11CC701E5
:103BA000880F991FE80EF91EC70184509B4F7C01B6
:103BB00020E0452D672D81E00E947511F70160839B
:103BC00071838283F5015082F6011082B8CFEF92A3
:103BD000FF921F93CF93DF9381E08093D40310E093
:103BE000809142021817A0F4812F90E0EC01CC0FD5
:103BF000DD1FC80FD91FC450DB4F20E04FEF66E137
:103C000080E00E947511688379838A831F5FE8CF03
:103C10001091B215175080919B15181BF12CE12CB7
:103C2000E116C8F4C0919B15C7018C0F911DEC01E2
:103C3000CC0FDD1FC80FD91FC450DB4F20E04FEF62
:103C400067E181E00E947511688379838A838FEF31
:103C5000E81AF80AE5CF10E080912A02181718F543
:103C6000E12EF12C80912604E701CC0FDD1F882383
:103C700079F021E04FEF68E182E00E947511CE0DEE
:103C8000DF1DC75CDB4F688379838A831F5FE4CFC6
:103C9000CE0DDF1DC75CDB4F20E04FEF68E182E017
:103CA0000E947511F0CF8AE7DF91CF911F91FF90AD
:103CB000EF900C945075EF92FF920F931F93CF9358
:103CC000DF931092D403D0E0C0E08E01000F111FEB
:103CD0000C0F1D1F04501B4F20E04FEF60E080E0F1
:103CE0000E947511F8016083718382832196C73326
:103CF000D10559F710E080912A02181718F5E12E26
:103D0000F12C80912604E701CC0FDD1F882379F088
:103D100021E04FEF60E082E00E947511CE0DDF1DC3
:103D2000C75CDB4F688379838A831F5FE4CFCE0D46
:103D3000DF1DC75CDB4F20E04FEF60E082E00E94B8
:103D40007511F0CFDF91CF911F910F91FF90EF9000
:103D500008951F93CF93DF9310E0809142021817CC
:103D6000A0F4812F90E0EC01CC0FDD1FC80FD91F0C
:103D7000C450DB4F20E04FEF60E080E00E947511FF
:103D8000688379838A831F5FE8CF10926D03DF9188
:103D9000CF911F910895EF920F931F93CF93DF93CD
:103DA0008CE995E10E94D272882309F428C1209100
:103DB0006D03822F022E000C990B309142023817AE
:103DC000190609F03CF40E94A91E10926D0310E040
:103DD00000E05AC080916C038111F9CF80912D04CD
:103DE00090912E040497029768F521112BC08091C1
:103DF0000A02811127C080916F03811123C0809135
:103E0000C70381111FC08091D00381111BC0809115
:103E1000CF03811117C080916B03811113C081E022
:103E200080936B0380E691E00E94820FEE24E3947E
:103E300008E715E021E04091D30661E080E691E0DB
:103E40000E948F0FC0916D038C2F0E94D916809114
:103E50002D0490912E040497029788F48091C70353
:103E600081110DC0809142028150990B2C2F0C2E94
:103E7000000C330B0EE511E02817390711F010E0A4
:103E800000E0CF5FC0936D038091CF03882359F08A
:103E900080916B03882339F066E080E691E00E9410
:103EA0004C6610926B03C091A615D0E020910A02D7
:103EB00080912D0490912E0402970297A0F5222361
:103EC00049F084E795E10E94756FCA51D440C80F4C
:103ED000D91F04C080916F038111F3CF8091C70374
:103EE000882389F0C091A61585E0C89FE0011124C0
:103EF00080916B03882339F066E080E691E00E94B0
:103F00004C6610926B0380910C02823048F0843032
:103F100009F458C028F5823091F1833009F448C083
:103F200090E080E035C0222329F084E795E10E94EB
:103F3000756FCDCF80916F03882381F284E795E17F
:103F40000E94756FC80FD91F80916B03882331F2CF
:103F500010926B0366E080E691E00E944C66BECF53
:103F60008530D1F18630E1F680912D0490912E04B8
:103F70000497029708F440C082E390E009C0809162
:103F80002D0490912E040497029780F585E090E02F
:103F90000C0F1D1F081B190BA80170E060E08CE9D5
:103FA00095E1DF91CF911F910F91EF900C940273E7
:103FB00080912D0490912E0404970297B8F084E12B
:103FC00090E0E6CF80912D0490912E040497029703
:103FD00098F48FE090E0DCCF80912D0490912E0436
:103FE0000497029730F489E190E0D2CF8AE090E024
:103FF000CFCF88E290E0CCCF8EE190E0C9CFDF91C7
:10400000CF911F910F91EF9008950E94A91E0E94D9
:104010000F051092B80B1092B90B1092CF031092AB
:10402000CE0310926F0310926E031092C60381E0CC
:10403000809305020E949A150E94F00480912D043D
:1040400090912E040297029708F455C08091400287
:104050008093A61586E990E0909301028093000278
:104060001092A4151092A5154091A61550E070E08D
:1040700060E08CE995E10E9402731092780C109236
:10408000790C409100025091010270E060E080E7FD
:104090009CE00E9402738091350490913604019750
:1040A00049F04091110250E070E060E08AE695E14D
:1040B0000E9402734CE251E060E070E086E99CE00F
:1040C0000E94027380E00E948176109270038091BA
:1040D000D603882321F01092D6030E946D068091AA
:1040E000C703882379F01092C7038AE00E94C57342
:1040F00084E70C94507580912B028093A61588E577
:1041000092E0AACF0895EF920F931F93CF93DF937E
:1041100086E49CE00E94467184EF96E00E9446711E
:1041200084E09CE00E94467180E39CE00E9446711E
:104130008EEE9BE00E94467188ED9BE00E944671E6
:104140008AE19CE00E94467184EF96E00E94A8718B
:10415000882309F47DC08DE390E00E94820F84E6FD
:1041600091E00E94820F85E691E00E94820F86E630
:1041700091E00E94820F87E691E00E94820F8EE319
:1041800090E00E94820F88E290E00E94820F82E419
:1041900090E00E94820F84E490E00E94820FEE245F
:1041A000E39410E000E020E04091D30660E08EE36D
:1041B00090E00E948F0F0E94178A24E030E040E0D8
:1041C00050E00E94DB8B623009F4A8C0633071F0CC
:1041D000613009F0AEC0EE24E39408E710E021E07E
:1041E0004091D30660E084E691E00AC0EE24E394B7
:1041F00008E710E021E04091D30660E086E691E018
:104200000E948F0F8091D1039091D203019709F002
:104210009BC0EE24E39410E000E020E04091D30640
:1042200060E082E490E00E948F0F80912D049091D5
:104230002E04059769F44091D30680912304480F1A
:1042400000ED17E021E061E08EE491E00E948F0F25
:1042500084EF96E00E94B5718823A9F188E290E08E
:104260000E94820F8CE290E00E94820FEE24E39481
:1042700010E000E020E04091D30660E088E290E0AA
:104280000E948F0F20E04091D30660E08CE290E026
:104290000E948F0F8091D1039091D203019709F072
:1042A0005AC020E04091D30660E082E490E00E9492
:1042B0008F0F80912D0490912E04059721F48EE4A8
:1042C00091E00E94820F80910B02209102073091B1
:1042D0000307232B09F046C0811184C181E080933C
:1042E0000B0286E50E94C5730E947A150E94E112B6
:1042F00080910B02811176C180912D0490912E0442
:104300000297029748F486E69CE00E948C72643F14
:10431000714081059105A8F52C9A34C0EE24E394F0
:1043200008E710E021E04091D30660E085E691E0E7
:1043300067CFEE24E39408E710E021E04091D30634
:1043400060E08DE390E05CCF8091D403811180CF59
:10435000109205027DCF8091D4038111B4CF1092C9
:104360000502B1CF882341F210920B0287E50E942B
:10437000C5738091D403882309F4BACF0E94E71D46
:10438000B7CF2C9880911302882351F086E69CE0E9
:104390000E948C72643F71408105910508F023C131
:1043A0002D9A86E69CE00E94D272882309F18091C2
:1043B0006A0C90916B0CA0916C0CB0916D0C4091BB
:1043C000660C5091670C6091680C7091690C840FB9
:1043D000951FA61FB71F80936A0C90936B0CA09338
:1043E0006C0CB0936D0C81E080936E0C10926F0C8E
:1043F00084E09CE00E94B571811106C084E09CE0DD
:104400000E94A871882371F18FE390E00E94820FCF
:1044100080E490E00E94820F86E590E00E94820F87
:1044200087E590E00E94820F80912602882309F49C
:10443000DCC010922602EE24E39410E000E020E0BD
:104440004091D30660E080E490E00E948F0F20E06E
:104450004091D30660E087E590E00E948F0F86E2EE
:104460000E94C57388ED9BE00E94B571811106C062
:1044700088ED9BE00E94A871882351F185E590E0CA
:104480000E94820F84E590E00E94820F80912502B5
:10449000882309F4C3C0109225028CE290E00E94A8
:1044A000820FEE24E39410E000E020E04091D30678
:1044B00060E08CE290E00E948F0F20E04091D306F4
:1044C00060E085E590E00E948F0F84E20E94C57352
:1044D0008AE19CE00E94B571811106C08AE19CE0EE
:1044E0000E94A871882329F180E590E00E94820F44
:1044F00081E590E00E94820F2091280C3091290CD8
:1045000080913002232B09F0A6C0811112C08BE0EC
:104510000E94C57381E080933002EE24E39410E0A2
:1045200000E020E04091D30660E080E590E00E944A
:104530008F0F80E39CE00E94B571811106C080E37B
:104540009CE00E94A871882391F084E490E00E948E
:10455000820FEE24E39410E000E020E04091D306C7
:1045600060E084E490E00E948F0F10922404809118
:104570002002882339F186E49CE00E94B571811104
:1045800006C086E49CE00E94A8718823D9F00E94AE
:104590002205882309F472C08091D1039091D2033F
:1045A000892B81F488E290E00E94820FEE24E3944C
:1045B00010E000E020E04091D30660E088E290E067
:1045C0000E948F0F8091D1039091D203009709F43C
:1045D00064C0019709F488C1DF91CF911F910F91B9
:1045E000EF9008952C982D98DCCE81E080932602E0
:1045F000EE24E39410E000E020E04091D30660E078
:104600008FE390E00E948F0F20E04091D30660E09E
:1046100086E590E00E948F0F87E222CF81E08093B1
:1046200025028DE390E00E94820FEE24E39410E0D7
:1046300000E020E04091D30660E08DE390E00E942E
:104640008F0F20E04091D30660E084E590E00E9467
:104650008F0F85E23BCF882309F46BCF8CE00E945B
:10466000C57310923002EE24E39410E000E020E0E5
:104670004091D30660E081E590E059CF87E791E073
:104680000E94820FEE24E39410E000E020E04091CD
:10469000D30660E087E791E093CFC0913704D091D3
:1046A00038048EEE9BE00E94B571219709F084C01A
:1046B000811106C08EEE9BE00E94A871882361F1F3
:1046C00080912D0490912E040497029780F481E646
:1046D00091E00E94820FEE24E39410E000E020E0DD
:1046E0004091D30660E081E691E00E948F0F8091B7
:1046F00069032091FC0B3091FD0B232B09F050C076
:10470000882319F084E50E94C5738091680388238B
:1047100019F081E80E9450758091D60381115CCF19
:104720008091D503811158CF8091D403811154CF4A
:1047300080912D0490912E0420912404211182C097
:1047400020913E0C30913F0C232B09F05CC0049764
:10475000029708F041CF82E090E090932E0480937E
:104760002D0490932C0480932B048DE00E94C5733C
:1047700082E70E945075EE24E39410E000E020E010
:104780004091D30660E08DE490E00E948F0F0E947C
:104790008C0EDF91CF911F910F91EF900C9405201B
:1047A000882319F085E50E94C573809168038823EA
:1047B00009F4B2CF82E8AECF811107C08EEE9BE044
:1047C0000E94A871882309F4A7CF80912D049091AD
:1047D0002E040497029780F481E691E00E94820FF4
:1047E000EE24E39410E000E020E04091D30660E086
:1047F00081E691E00E948F0F82E090E0909329047F
:104800008093280489CF0297029708F0E5CE84E0D0
:1048100090E090932E0480932D0490932C04809329
:104820002B048FE00E94C57380E70E945075EE2430
:10483000E39410E000E020E04091D30660E08EE5D4
:1048400090E0A3CFC0912B04D0912C04C330D105AC
:10485000C1F0C530D10529F1C230D10591F50297DB
:1048600009F495CF8DE00E94C573D0932E04C093B8
:104870002D04D0932C04C0932B0482E70E94507522
:1048800086CF039709F483CF8EE00E94C573D0933F
:104890002E04C0932D04D0932C04C0932B0481E7E5
:1048A000EDCF059709F473CF80E10E94C573D093D3
:1048B0002E04C0932D04D0932C04C0932B048FE6B8
:1048C000DDCFC817D90709F462CF8FE00E94C57306
:1048D00084E090E090932E0480932D0490932C0418
:1048E00080932B0480E7CACF8EEE9BE00E94A871D4
:1048F000811107C08EEE9BE00E94B571882309F4F8
:104900006BCE81E090E090932904809328048091FD
:104910002D0490912E040497029708F05DCE81E655
:1049200091E00E94820FEE24E39410E000E020E08A
:104930004091D30660E081E691E00E948F0F4CCE5B
:104940006F927F928F929F92AF92BF92CF92DF929F
:10495000EF92FF920F931F93CF93DF9300D000D07D
:104960001F92CDB7DEB78091B6059091B70501973C
:10497000029710F40E94EF668AE097E00E94D272DC
:104980008823A1F18EE580937C0080917A00806479
:1049900080937A0080917A0086FDFCCF2091780088
:1049A00030917900809168038823C1F050E040E0A5
:1049B00065EA77E681E190E00E94DB8BCA01B901EC
:1049C0006B5F7F4F8F4F9F4F2AE030E040E050E019
:1049D0000E94DB8BB9018BE80E942A7548E853E1FD
:1049E00060E070E08AE097E00E9402738CE397E059
:1049F0000E94A66D882319F110914A091123F9F03C
:104A000080919A0B882391F080916903882311F497
:104A10000C948B534091920B5091930B6091940B9B
:104A20007091950B82E99BE00E940273123011F4A1
:104A30000C94C54560F4113011F40C94935380919B
:104A40006903882311F40C94C0530C94E34514308B
:104A500011F40C940B46153091F78091690388236B
:104A600011F40C94C053AAE3B8E0E7EDF3E08D91A4
:104A7000819333E0EC3EF307D1F783E90E94C973D9
:104A8000DECF109269031092720310929A0B10926B
:104A90009B0B0E948D750E94C47581E08093720308
:104AA00083E00E94C5738091CF0381110E9441165B
:104AB0008091D403882351F08091D503811106C0E1
:104AC0008091D603811102C00E945B1E8091370441
:104AD00090913804019709F078C082E080934403F4
:104AE0002091FC0B3091FD0B232B09F06CC08093BF
:104AF000450380910B02882309F46BC082E0809308
:104B0000460380912D0490912E048330910509F481
:104B100062C08530910509F462C0029709F05DC05A
:104B200081E08093470380911F049091200490932B
:104B300051038093500380916003882309F451C08E
:104B400082E08093520380913002882309F44BC0A5
:104B500082E080934B038091D1039091D203892B03
:104B600009F443C082E08093480380910F02809350
:104B7000490380913504909136048330910509F4FE
:104B800091C0A8F581309105E1F1029709F488C040
:104B900081E080934A03109236041092350480918C
:104BA000210281110E941B7C8091D50390912202E9
:104BB000992351F1882341F181E080936C0380E0D7
:104BC0000E94D91621C081E092CF81E080934403F6
:104BD0008ECF81E094CF82E0A4CF83E0A2CF84E0A7
:104BE000A0CF81E0AECF81E0B4CF81E0BCCF8530F3
:104BF000910509F45BC008F457C0069749F687E0B1
:104C000001C082E080934A038091D503811102C0E4
:104C1000109205028091390280934C0380913802F2
:104C200080934D038091370280934E038091D50687
:104C30008A3BF1F582E080934F0384E080931A046D
:104C400080E780931904EBE1F4E083E0DF011D923B
:104C50008A95E9F7E4E4F3E0ACE3B7E083E593E0B9
:104C600021912D938E179F07D9F78FE090E09A83BB
:104C7000898346E0BE016F5F7F4F8CE397E00E941F
:104C80002B6E8091C703882339F00E942205811181
:104C900003C089E00E94C57385E00E94C573CFCE32
:104CA00083E0B0CF84E0AECF85E0ACCF86E0AACF82
:104CB00081E0C1CF1092720381E08093690340E4E8
:104CC0005FE160E070E082E99BE00E9402738CE8A3
:104CD0000E945075B4CE8091D1039091D203019778
:104CE00049F082E090E0909329048093280485E7BE
:104CF0000E94507586E00E945075A1CE8091D1032C
:104D00009091D203892B49F081E090E0909329049F
:104D10008093280486E70E94507587E00E945075B2
:104D200085E10E9450758BCE8DE70E94507587CE2D
:104D30008EE70E94507583CE84E091E00E94820F3E
:104D400085E091E00E94820FEE24E39410E000E001
:104D500020E04091D30660E084E091E00E948F0F54
:104D60006ECE85E091E00E94820F84E091E00E9487
:104D7000820FEE24E39410E000E020E04091D3069F
:104D800060E085E091E00E948F0F59CE87E391E0CB
:104D90000E94820F88E391E00E94820FEE24E39448
:104DA00010E000E020E04091D30660E088E391E06D
:104DB0000E948F0F44CE87E391E00E94820F88E328
:104DC00091E00E94820FEE24E39410E000E020E0E6
:104DD0004091D30660E087E391E00E948F0F2FCED1
:104DE000809127028823D1F088E990E00E94820F09
:104DF00087E990E00E94820FEE24E39410E000E047
:104E000020E04091D30660E088E990E00E948F0F97
:104E10001092270288E40E94C57311CE88E990E0C1
:104E20000E94820F87E990E00E94820FEE24E394B3
:104E300010E000E020E04091D30660E087E990E0D8
:104E40000E948F0F81E08093270289E40E94C5733E
:104E5000F6CD85E990E00E94820FEE24E39410E005
:104E600000E020E04091D30660E085E990E00E94F8
:104E70008F0FE5CD86E990E00E94820FEE24E39447
:104E800010E000E020E04091D30660E086E990E089
:104E90000E948F0FD4CD8091CF038111D0CD40914E
:104EA000D30680911202481BEE24E39410E000E048
:104EB00020E060E086E190E00E948F0FC0CD8091FD
:104EC000CF038111BCCD80910F028330D9F1A8F4BA
:104ED000813041F1823009F0B2CD4091D30680910A
:104EE0001202481BEE24E39410E000E020E061E0B1
:104EF00083E190E00E948F0FA2CD843099F185303C
:104F000009F09DCD4091D30680911202481BEE24FA
:104F1000E39410E000E020E061E086E190E00E9490
:104F20008F0F8DCD4091D30680911202481BEE2445
:104F3000E39410E000E020E061E082E190E00E9474
:104F40008F0F7DCD4091D30680911202481BEE2435
:104F5000E39410E000E020E061E084E190E00E9452
:104F60008F0F6DCD4091D30680911202481BEE2425
:104F7000E39410E000E020E061E085E190E00E9431
:104F80008F0F5DCD0E94C4755ACD80E490E00E94E1
:104F9000820FEE24E39410E000E020E04091D3067D
:104FA00060E080E490E00E948F0F49CD8BEF90E0AD
:104FB0000E94820FEE24E39410E000E020E0409194
:104FC000D30660E08BEF90E00E948F0F38CD8BEF1F
:104FD00090E00E94820F33CD8CEF90E00E94820F10
:104FE0002ECD8CEF90E00E94820FEE24E39410E02F
:104FF00000E020E04091D30660E08CEF90E00E945A
:105000008F0F1DCDEE24E39410E000E020E04091EE
:10501000D30660E084E490E00E948F0F10CDEE2470
:10502000E39410E000E020E04091D30660E083E4E8
:1050300090E00E948F0F20E04091D30660E08FE364
:1050400090E00E948F0FFBCC81E190E00E94820FE4
:10505000EE24E39410E000E020E04091D30660E00D
:1050600081E190E00E948F0FEACC8EE591E00E94F2
:10507000820FEE24E39410E000E020E04091D3069C
:1050800060E08EE591E00E948F0FD9CC89E491E039
:105090000E94820FEE24E39410E000E020E04091B3
:1050A000D30660E089E491E00E948F0FC8CC8CE4C5
:1050B00091E00E94820FEE24E39410E000E020E0F3
:1050C0004091D30660E08CE491E00E948F0FB7CC52
:1050D00081EB90E00E94820FEE24E39410E000E068
:1050E00020E04091D30660E081EB90E00E948F0FBA
:1050F000A6CC8EE890E00E94820FA1CC80E990E0DF
:105100000E94820F9CCC8DE890E00E94820F40911B
:10511000D3064451EE24E39410E000E020E060E088
:105120008DE890E00E948F0F8ACC8FE890E00E947B
:10513000820F4091D3064451EE24E39410E000E046
:1051400020E060E08FE890E00E948F0F78CC83E948
:1051500090E00E94820F4091D3064451EE24E394E4
:1051600010E000E020E060E083E990E00E948F0F13
:1051700066CC8EE890E00E94820F4091D3064451A5
:10518000EE24E39410E000E020E061E08EE890E09F
:105190000E948F0F54CC80E990E00E94820F4091D2
:1051A000D3064451EE24E39410E000E020E061E0F7
:1051B00080E990E00E948F0F42CC82E990E00E944B
:1051C000820F4091D3064451EE24E39410E000E0B6
:1051D00020E060E082E990E00E948F0F30CC84E90B
:1051E00090E00E94820F4091D3064451EE24E39454
:1051F00010E000E020E060E084E990E00E948F0F82
:105200001ECC81E990E00E94820F4091D306445168
:10521000EE24E39410E000E020E060E081E990E01B
:105220000E948F0F0CCC0E948D7509CCE12C10E0F0
:1052300000E020E04091D30660E085E791E00E9425
:105240008F0FFDCBE12C10E000E020E04091D30671
:1052500060E08AE591E00E948F0FF1CBE12C10E035
:1052600000E020E04091D30660E089E591E00E94F3
:105270008F0FE5CBE12C10E000E020E04091D30659
:1052800060E08BE591E00E948F0FD9CBE12C10E01C
:1052900000E020E04091D30660E086E491E00E94C7
:1052A0008F0FCDCB80916B03882331F010926B036D
:1052B00080E691E00E94820F80913504909136043F
:1052C0008230910509F4C4C18330910509F4D8C135
:1052D000019709F4A5C180912D0490912E0440916D
:1052E000D3068330910549F44A50E12C10E000E0E8
:1052F00020E060E086E090E009C0E12C10E000E0F2
:1053000020E060E00597B1F78FE491E00E948F0FF5
:1053100080912D0490912E0420910F02213030F0C5
:10532000253008F4ABC0253009F419C180912D0453
:1053300090912E0404970297F8F480910F02853023
:10534000D8F48EE197E00E948C7220913504309160
:105350003604683B7B408105910508F09DC1609152
:10536000D3062130310509F095C1685244E650E07A
:1053700080E190E00E949F6A81E08093D00388E002
:105380000E945075109298151092991580912D04D5
:1053900090912E040497029770F460910F0270E0D0
:1053A00084E991E10E946F8FAB0170E060E080E9D9
:1053B00095E10E94027380912802882309F180916F
:1053C0003304909134040297D9F40E94178A28E09C
:1053D00030E040E050E00E94DB8B695F7F4F8F4FF1
:1053E0009F4F28EE33E0629FA001639F500D729F94
:1053F000500D112470E060E088E297E00E94027393
:1054000080E00E94267680913504909136040197C1
:10541000B1F0E0910F02E150FF0BEE0FFF1FEE0F16
:10542000FF1FE85EF84F459155916591749184ECAA
:105430009BE00E9402731092C20B1092C30B8FEF7D
:105440000E9481761092A40B1092A50B1092AE0BC5
:105450001092AF0B42E350E060E070E08CE99BE01B
:105460000E94027381E08093C90348E95AE360E037
:1054700070E082E397E00E940273E1CA2091CA03C0
:10548000222309F45AC04091D306E12C83309105C0
:10549000D1F504E619E121E061E083E690E00E94A5
:1054A0008F0F10E000E020E04091D30660E084E63A
:1054B00090E00E948F0F81E08093CD0380912D04B6
:1054C00090912E042091CB03222309F445C04091F2
:1054D000D306E12C8330910599F510E000E020E03F
:1054E00060E084E690E00E948F0F08EE13E021E078
:1054F0004091D30661E088E490E00E948F0F81E044
:105500008093CC0313CF059739F404EF11E021E029
:1055100061E08FE590E0CDCF08EE13E021E061E09F
:105520008FE590E00E948F0F10E000E020E04091B6
:10553000D30660E080E690E0BCCF1092CD03BECFF2
:105540000CEB12E021E00597A9F210E000E020E06A
:1055500060E085E090E0C7CF1092CC03E7CE8330C7
:105560009105C1F08530910501F1029709F04BC01A
:10557000E12C10E000E020E04091D30660E081E6FD
:1055800090E00E948F0F20E04091D30660E080E61B
:1055900090E009C0E12C10E000E020E04091D3064B
:1055A00060E084E690E00E948F0F8091CA03882318
:1055B000A1F181E08093CD03E12C0CEB12E021E01E
:1055C0004091D30661E082E690E00E948F0F8091C7
:1055D0002D0490912E042091CB03222309F4BCCFFB
:1055E00021E02093CC034091D306E12C08E710E0A2
:1055F000059719F00CEB12E021E061E088E490E0FF
:105600000E948F0F93CEE12C10E000E020E040914B
:10561000D30660E08BE990E0C6CF1092CD03D7CFE0
:1056200085E390E00E94820FE12C10E000E020E092
:105630004091D30660E083E390E00E948F0F0CED71
:1056400015E021E04091D30661E084E390E0D8CFFB
:105650008BE390E00E94820FE12C10E000E020E05C
:105660004091D30660E089E390E00E948F0F08EE3E
:1056700013E021E04091D30661E08AE390E0C0CFDF
:10568000E12C10E000E020E04091D30660E086E4E9
:1056900091E0B6CF62506ACE8EE197E021303105BD
:1056A00041F40E948C722091D3062852AB01622FE4
:1056B0005FCE0E948C722091D3062250F7CF80914A
:1056C000D003882309F4BBC90E9401120E9473769B
:1056D000B6C980913504909136048130910591F0DE
:1056E000029799F08BE090E00E94820F87E490E0AF
:1056F0000E94820F8AE090E00E94820F81E08093F6
:10570000D3039DC985E390E0F7CF8BE390E0F4CF1E
:105710008BE691E00E94820FEE24E39404EC19E002
:1057200021E04091D30661E08BE691E00E948F0F6B
:1057300086C98BE691E00E94820F81C98BE691E0D9
:105740000E94820F8CE691E00E94820FEE24E39487
:1057500010E000E020E04091D30660E08CE691E0AC
:105760000E948F0F6CC9809135049091360420916E
:10577000B6053091B7052130310529F4039719F4A6
:1057800081E00E942A888091350490913604019727
:1057900079F480912102882359F00E949A150E9481
:1057A0006D0640E050E0BA018AE695E10E9402737E
:1057B0008091D1039091D2030197F1F48091350447
:1057C00090913604892BC1F082E390E00E94820F11
:1057D00087E390E00E94820F87E491E00E94820FAD
:1057E000EE24E39410E000E020E04091D30660E076
:1057F00086E090E00E948F0F1092360410923504DC
:10580000EE24E39410E000E020E04091D30660E055
:1058100088E290E00E948F0F8091210281110E9406
:105820001B7C80912202882351F08091D50388232C
:1058300031F081E080936C0380E00E94D9168AE009
:105840000E945075FCC88091B6059091B7050197EC
:1058500049F48091350490913604039719F481E05E
:105860000E942A888091D1039091D203019709F078
:1058700040C080913504909136040197D1F182E3C4
:1058800090E00E94820F87E390E00E94820F87E4FD
:1058900091E00E94820FEE24E39410E000E020E00B
:1058A0004091D30660E080E390E00E948F0F04E80F
:1058B00013E021E040E061E082E390E00E948F0F7E
:1058C00080912D0490912E040497029790F460919A
:1058D000D3066E5144E650E08FE090E00E949F6A4C
:1058E0006091D306685244E650E080E190E00E9467
:1058F0009F6A81E090E09093360480933504EE2413
:10590000E39410E000E020E04091D30660E088E2FC
:1059100090E00E948F0F80912102882351F00E9415
:105920009A150E946D0610927215109273150E94BE
:105930001B7C80912202882351F08091D50388231B
:1059400031F081E080936C0380E00E94D9168BE0F7
:105950000E94507574C8809135049091360420914E
:10596000B6053091B7052130310529F4039719F4B4
:1059700081E00E942A888091350490913604019735
:1059800079F480912102882359F00E949A150E948F
:105990006D0640E050E0BA018AE695E10E9402738C
:1059A0008091D1039091D2030197F1F58091350454
:1059B000909136040297C1F182E390E00E94820F39
:1059C00087E390E00E94820F87E491E00E94820FBB
:1059D000EE24E39410E000E020E04091D30660E084
:1059E00085E490E00E948F0F04E813E021E040E09E
:1059F00061E087E390E00E948F0F80912D049091E9
:105A00002E040497029780F444E650E06091D30698
:105A10008FE090E00E949F6A44E650E06091D306D8
:105A200080E190E00E949F6A82E090E090933604CB
:105A300080933504EE24E39410E000E020E04091F0
:105A4000D30660E088E290E00E948F0F80912102EF
:105A500081110E941B7C80912202882351F0809149
:105A6000D503882331F081E080936C0380E00E94AD
:105A7000D9168CE00E9450750C941F258091350436
:105A800090913604019779F480912102882359F08E
:105A90000E949A150E946D0640E050E0BA018AE625
:105AA00095E10E9402738091D1039091D2030197F6
:105AB00039F58091350490913604039709F182E31A
:105AC00090E00E94820F87E390E00E94820F87E4BB
:105AD00091E00E94820FEE24E39410E000E020E0C9
