:100000000C9482060C94B3060C94B3060C94B306BD
:100010000C94B3060C94B3060C94B3060C94B3067C
:100020000C94B3060C94B3060C94B3060C94B3066C
:100030000C94B3060C94B3060C94B3060C94B3065C
:100040000C94B3060C94B3060C94B3060C94B3064C
:100050000C94B3060C94B3060C94B3060C941E7562
:100060000C94B3060C94CA640C94A0640C94B3066C
:100070000C94B3060C94B3060C94B3060C94B3061C
:100080000C94B3060C94B3060C94B3060C94B3060C
:100090000C9476640C944C640C94B3060C946C1120
:1000A0000C94B3060C94B3060C94B3060C94B306EC
:1000B0000C94B3060C94B3060C94B3060C94B306DC
:1000C0000C94B3060C94B3060C94B3060C942264FF
:1000D0000C94F8630C94B3060C94CE630C94A46354
:1000E0000C94B30605A84CCDB2D44EB93836A9024B
:1000F0000C50B9918688083CA6AAAA2ABE00000026
:10010000803F07634236B79BD8A71A39685618AEA6
:10011000BAAB558C1D3CB7CC5763BD6DEDFD753E3C
:10012000F6177231BF000000803F08000000BE9249
:100130002449123EABAAAA2ABECDCCCC4C3E00002C
:100140000080BEABAAAAAA3E00000000BF000000CB
:10015000803F0000000000084178D3BB4387D113E3
:100160003D190E3CC3BD4282AD2B3E68EC8276BE8B
:10017000D98FE1A93E4C80EFFFBE01C4FF7F3F0055
:10018000000000000C94D76A0C94B0820C945E813D
:100190000C948C540C94596D0C9485840C9480931D
:1001A0000C9464070C94DF950C9459080C949F7A76
:1001B0000C94E5850C94366C0C943A790C94486C4C
:1001C0000C948F880C94E9960C94EA710C948396A5
:1001D0000C94167C0C9440540C9435600C940807D5
:1001E0000C94F58F0C940D720C94088D0C94D05FC8
:1001F0000C94338B0C940C8A0C94047B0C94BB539E
:100200000C94127F0C94645D0C94092B0C94BD53D8
:100210000C9414600C9413080C9407830C94AC0990
:100220000C94B45F0C94AB800C9438830C9473786A
:100230000C9424940C94DF060C94716D0C9407605C
:100240000C94647C0C94888D0C94BA920C94F06D90
:100250000C9430910C94385E0C94BF530C94150997
:100260000C94EB540C94198C0C9453920C941192A2
:100270000C94EB8D0C9428AC0C9462AD0C94DB8D3B
:100280000C9459940C94FC6D0C94A6090C94357242
:100290000C941C6E0C94620A0C948C6D0C94D754C4
:1002A0000C94806D0C942B720C94955D0C945D8C69
:1002B0000C94B9530C94A3780C94D0920C94B089FC
:1002C0000C94A8080C9423540C947D5E0C948C8D93
:1002D0000C9479780C94118B0C94A88E0C943F7824
:1002E0000C94E8940C9484600C948E7A0C94F276BE
:1002F0000C94F15F0C946D540C94AE980C944A8F4E
:100300000C9457950C94E9820C94826D0C943C8863
:100310000C94BA6A0C94F3860C943A8A0C94FA53AF
:100320000C944A7C0C948E6D0C94A37B0C94BF624D
:100330000C94F6540C94C38D0C941A550C943B8C6D
:100340000C945F6A0C941F6C0C94B0090C94D671D9
:100350000C9411830C943E7B0C9462540C943D904D
:100360000C9454930C94C5950C946D950C943E6C20
:100370000C946A930C941B600C9410780C94AD0848
:100380000C9412780C94FC920C94658B0C94238240
:100390000C9465080C9402830C94688A0C94128067
:1003A0000C94227C0C94772A0C949B6D0C940F8EE9
:1003B0000C94AB080C94F67B0C9429080C940695CD
:1003C0000C94BA930C9425840C94502B0C941D8996
:1003D0000C940C830C94FB790C94C7960C94010735
:1003E0000C9441950C94E2880C94EB5D0C942C6C6D
:1003F0000C9412930C94927F0C949D6D0C94A49287
:100400000C94AA8A0C9428930C9452820C94DD06C6
:100410000C94D5910C94CA940C9446970C94B753B1
:100420000C94AF080C945B080C94FE540C9475600B
:100430000C941A780C94D9810C944F830C94EF840B
:100440000C94407C0C94A08A0C94A8710C948C6A37
:100450000C94F8820C94526D0C946C980C94BF2BF5
:100460000C949F6D0C941E5D0C9449600C943F9805
:100470000C94266C0C94E0710C9484890C94735445
:100480000C94CB7A0C945E6D0C94CB530C947B6DD6
:100490000C94E3530C94C2520C94EE8C0C94846D27
:1004A0000C9441620C948E780C94A76D0C94F471AA
:1004B0000C94F3910C9481970C949A890C94037288
:1004C0000C944D080C943D920C9483950C941881D7
:1004D0000C94B8780C9461960C94B38B0C942D9674
:1004E0000C949C710C94777D0C94228D0C94A16DCE
:1004F0000C9470540C943C2A0C9451850C94EF93FA
:100500000C9426620C94EA7B0C9428600C94AB8DBE
:100510000C94F3820C9433630C94786D0C94DD8FFF
:100520000C94776A0C94C1530C9411540C94EF8A78
:100530000C9416600C94AE8A0C94CA7B0C940B97A6
:100540000C94306C0C94C18A0C9465540C9435074F
:100550000C94AA530C940F7A0C9469540C94B661C1
:100560000C942D550C94C32A0C94AC940C94ED2B44
:100570000C94BB850C94F9950C9418780C946785B1
:100580000C9402600C946C7A0C94FD8D0C94257B79
:100590000C94976D0C94C2840C948A6D0C94987989
:1005A0000C94DF820C94DE060C941D860C94B95FCB
:1005B0000C94CC600C94836A0C943A6C0C94156186
:1005C0000C94C5530C948E940C944D6D0C94EF5474
:1005D0000C94216B0C94A18C0C94C9840C940D90F8
:1005E0000C9447960C94D9790C9497800C94BC7118
:1005F0000C944C6C0C94F78B0C94E4820C94AD81AD
:100600000C946D6D0C94E97C0C945F540C947E6D8D
:100610000C94AB6D0C9437980C94F5600C94906D21
:100620000C9455080C943B980C9414780C946062CC
:100630000C94BF770C94FD820C94EE820C94217282
:100640000C94746D0C94A3710C94207A0C94B26287
:100650000C94BC0C0C947D7A0C9469920C943E938F
:100660000C94F4810C94526C0C94AF950C94CD784E
:100670000C9460600C943B850C94D58B0C94A07BFF
:100680000C9427920C94875D0C94E6920C947F8CCA
:100690000C9413960C942B080C9491830C94918BCE
:1006A0000C9417790C9425900C94866D0C94E38A25
:1006B0000C94DB8A0C94446C0C9495790C941585FD
:1006C0000C94EF790C94E3830C9416780C94A59613
:1006D0000C9417720C9406790C94A47A0C94037EF3
:1006E0000C94886D0C94B28A0C94DF8A0C94236C61
:1006F0000C9491850C9452780C941C780C945708A7
:100700000C94908D0C94116C0C9499950C944E7CD7
:100710000C9481820C94176C0C94735D0C94B279D8
:100720000C94B2710C943D540C94A9090C948E7BDA
:100730000C94566C0C94C6710C94317A0C948961AB
:100740000C947C7B0C946C780C94577B0C94577AAB
:100750000C94F6900C94A96D0C94DF5F0C94CE7100
:100760000C94A6810C9453610C9415540C94677CE2
:100770000C94EE060C9446530C94C3790C94BC97DD
:100780000C9448840C941B6C0C94467A0C94006076
:100790000C94CD6D0C94DE790C94D4790C94B38CBC
:1007A0000C9402840C9428790C942A600C94912B5C
:1007B0000C94DC060C94D1750C94A0910C948C7E56
:1007C0000C94DA540C9462810C94DD540C94636D97
:1007D0000C94C4830C94516C0C943C8D0C94968AAC
:1007E0000C94DE895761726E696E673A2043616CC2
:1007F00063756C61746564206D7573696320636FE4
:10080000756E74206578636565647320343039369D
:100810003B205344206361726420636F7272757071
:1008200074696F6E206C696B656C7921000102033D
:100830000405060708090A0B0C0D0E0F1011121300
:100840001415161718191A1B1C1D1E1F20212223F0
:100850002425262728010203040506070809000AA3
:100860000B0C0D0E0F10111200131415161718197A
:100870001A1B001C1D1E1F2021222324000102031D
:1008800004050000000000060708090A0000000037
:10089000000B0C0D0E0F00000000001011121314BD
:1008A000000000000001020300000000000000043E
:1008B0000506000000000000000708090000000015
:1008C0000000000A0B0C00000000000000001C12D9
:1008D0000A041F160D02110C07010A0704000A1270
:1008E0001C040D161F02070C110104070A00010267
:1008F000030405060708090A0B0C0D0E000102038C
:100900000405060708090A0B0C0E0D0C0B0A090852
:1009100007060504030201000C0B0A090807060577
:100920000403020100417474656E7561746F722076
:1009300053796E6320456E6400417474656E756111
:10094000746F722053796E63205374617274004126
:100950007474656E7561746F722053796E6368721A
:100960006F6E697A65640047657474696E672050BC
:1009700061636B20507265666572656E63657300B6
:1009800047657474696E6720536D6F6B6520507294
:1009900065666572656E636573004E6F20417564B0
:1009A000696F20446576696365005573696E6720D9
:1009B0005741562054726967676572005761726EBD
:1009C000696E673A205253505F53595354454D5FF7
:1009D000494E464F206E6F74207265636569766577
:1009E0006421005573696E6720475053746172200B
:1009F000417564696F00436F6E6669677572652043
:100A0000506F776572204D6574657200556E616236
:100A10006C6520746F2066696E6420706F776572F4
:100A2000206D6F6E69746F72696E67206465766998
:100A30006365206F6E206932632E20506F77657278
:100A4000206D6574657220666561747572657320CA
:100A500077696C6C2062652064697361626C65649F
:100A60002E00496E697420706F776572206D657411
:100A700065722E2E2E004552524F523A204E6F2054
:100A800063616C6C6261636B20617661696C616249
:100A90006C6520666F72207061636B6574204944D9
:100AA0002000000000006410B71DC8206E3BAC3071
:100AB000D9269041DC76F4516B6B5861B24D3C7194
:100AC00005502083B8ED44930FF0E8A3D6D68CB33D
:100AD00061CBB0C2649BD4D2D38678E20AA01CF268
:100AE000BDBD57616E642053796E6320456E64000E
:100AF00057616E642053796E632053746172740081
:100B000057616E642053796E6368726F6E697A659F
:100B10006400526563762E2057616E6420536D6FBA
:100B20006B6520507265667300526563762E2057A0
:100B3000616E6420436F6E666967205072656673EC
:100B400000536176696E6720536D6F6B652050723C
:100B500065666572656E63657300536176696E677D
:100B60002057616E6420507265666572656E6365BC
:100B70007300536176696E67205061636B20507219
:100B800065666572656E63657300526563762E20D7
:100B9000536D6F6B6520436F6E66696700526563C6
:100BA000762E2057616E6420436F6E66696700522F
:100BB0006563762E205061636B20436F6E666967B4
:100BC00000B80BB80BAC0DAC0DA00F3075983A10F7
:100BD000274C1D70173D0064016501660167010027
:100BE000002100240027002A002D003000330001DE
:100BF000010000040107010A01000022002500286D
:100C0000002B002E00310034000201000005010815
:100C1000010B01000020002300260029002C002FDA
:100C2000003200000100000301060109010505056D
:100C300005070508080808020202020A0A08080453
:100C40000404040101010101010101030303030381
:100C5000030303040707070C0C0C0C0C0C0C0C0210
:100C600002020206060606060606060B0B0B0B0B17
:100C70000B0B0B0102102020080810204010204010
:100C80008002010201080402010102040810204050
:100C9000808040201008040201800402018040206E
:100CA0001008040201080402010102040810204097
:100CB00080010204081020408000000A0B02090C89
:100CC0000D0E0807030401000000000000000000F2
:100CD0000000000000000000000000000000000014
:100CE00000000000001211100000000000000000D1
:100CF00000000000000000000000000000000000F4
:100D000062ADD17511241FBECFEFD1E2DEBFCDBFE2
:100D100000E00CBF13E0A0E0B2E0ECE3F2E701E09A
:100D20000BBF02C007900D92A835B107D9F729E192
:100D3000A8E5B3E001C01D92AF37B207E1F716E0B6
:100D4000C1E8D6E000E006C021970109802FFE012E
:100D50000E9476B3C038D10780E00807A9F70E9447
:100D600015760C940CB90C9400002091DE04260F2B
:100D70003327331F21323105ECF420917607FC0133
:100D800090E080E0243069F082E00895A091DE04D4
:100D90002191AC0144545B4FA40FB52FB11D2C938E
:100DA0000196861798F38091DE04680F6093DE0445
:100DB00080E0089581E00895089508950895E091F0
:100DC0002F0780912E07E81730F4F0E0E05DF84F30
:100DD000808190E008958FEF9FEF089590912F0705
:100DE00080912E072FEF3FEF981748F4E92FF0E09E
:100DF000E05DF84F208130E09F5F90932F07C9019D
:100E0000089580912E0790912F07891B990B0895C3
:100E1000CF92DF92EF92FF920F931F93CF93DF93C6
:100E20007C01CB018A0120919E07222389F0EB01EE
:100E30006B01C40ED51ECC15DD0569F06991D70193
:100E4000ED91FC910190F081E02DC7011995F3CF50
:100E5000642F0E94B506C801DF91CF911F910F91B9
:100E6000FF90EF90DF90CF900895CF93DF931F9284
:100E7000CDB7DEB7698320919E072223F9F0209138
:100E80009C07203258F021E030E0FC0133832283BC
:100E900090E080E00F90DF91CF91089580919D07C1
:100EA000E82FF0E0E458F84F998190838F5F8093AA
:100EB0009D0780939C0781E090E0ECCF61E0CE013C
:100EC00001960E94B506F7CF90E080E00895FC01FE
:100ED00020893189848595852817390741F481E077
:100EE00042895389268537854217530709F080E0E8
:100EF0000895FC012089318986859785281739074F
:100F000041F481E04289538924853585421753078E
:100F100009F080E00895AF92BF92CF92DF92EF92F6
:100F2000FF920F931F93CF93DF9300D0CDB7DEB71F
:100F30005A0119821A821B82882361F18B01E1E038
:100F4000F0E0E82EF12CD8012D918D012223F1F053
:100F50006F01B1E0CB1AD108D501AC0DBD1D4C918C
:100F60004423A1F030E02F5F3F4FD7010E9433B3FD
:100F7000A42FB0E011969B01AC010E94FEB2A1E04B
:100F8000B0E0AC0FBD1FAC0DBD1D8C933196E430AD
:100F9000F105C9F669817A818B810F900F900F90CE
:100FA000DF91CF911F910F91FF90EF90DF90CF9045
:100FB000BF90AF900895FC0184E992E09183808313
:100FC000138212828FEF868387838087818782874F
:100FD000838781E0848785871786168680E797E177
:100FE000918B808B83E090E0938B828B158A148A9F
:100FF000158214828091730690917406892B21F4D6
:10100000F0937406E0937306A091B904B091BA040A
:10101000109721F01596FC93EE931497F093BA0471
:10102000E093B904089581E090E00895982F683026
:10103000F0F4E62FF0E08827EF5DF74F8F4F0C9428
:1010400076B32B0865084D08550829085708590834
:101050005B088CE10895933020F4913040F085E0F6
:101060000895933031F09430D1F381E0089584E114
:1010700008958091A4078F5F853068F4982F93704E
:1010800051F08093A4078091A407813071F08230E1
:1010900061F38DE0089581E0F4CF8091A7079091EE
:1010A000A8070397A1F483E008958BE0089589E1F0
:1010B000089588E10895923031F0943021F0911133
:1010C00008C08DE108958FE1089583E108958FE0D0
:1010D00008958EE108950F931F93CF93DF9320918E
:1010E000B8042F5F322F37703093B80420FF2BC025
:1010F00020E831FD2064347009F02062205FFC019B
:10110000EC01239600E011E06785662329F070E08A
:10111000C8010E9462B36F5F6187822F869F080EAD
:1011200080E0811D1124811110C01682662311F008
:10113000615061873196EC17FD0731F7DF91CF9150
:101140001F910F91089520E0D4CF81508683EECF78
:1011500080E991E00895209A0895279A08956F9262
:101160007F928F92CF92DF92EF92FF920F931F9315
:10117000CF93DF93CDB7DEB762970FB6F894DEBF9B
:101180000FBECDBF8C016B017A01822FA801475F92
:101190005F4FB8016A5F7F4F0E948B073B01882E2B
:1011A000D8011C962C91C701F7FE04C08827992707
:1011B0008E199F09DA82C9829C838B839E838D83DB
:1011C000688A798A8A8A213049F5CE0101960E947F
:1011D0006B0883E08D871F861E86F7FE02C08DEFA9
:1011E0008D87D801ED91FC910088F189E02DBE0139
:1011F0006F5F7F4FC801199562960FB6F894DEBFF6
:101200000FBECDBFDF91CF911F910F91FF90EF9057
:10121000DF90CF908F907F906F9008951C861B86F3
:101220001A86198618861F82D4CFCF92DF92EF924A
:10123000FF920F931F93CF93DF93CDB7DEB76297E3
:101240000FB6F894DEBF0FBECDBF8C016B017A01E3
:10125000822FA801475F5F4FB8016A5F7F4F0E94EE
:101260008B079B01482FD8011C968C91DA82C9828A
:10127000FC82EB82FE82ED82288B398B4A8B813097
:1012800009F5CE0101960E946B081D861F861E86F9
:10129000D801ED91FC910088F189E02DBE016F5FCE
:1012A0007F4FC801199562960FB6F894DEBF0FBE46
:1012B000CDBFDF91CF911F910F91FF90EF90DF9005
:1012C000CF9008951C861B861A86198618861F8261
:1012D000DCCF843008F080E090914502E82FF0E008
:1012E00080911502882399F0943259F0983261F078
:1012F000943121F0E751F74F84910895EB51F74F66
:10130000FBCFEF51F74FF8CFE352F74FF5CF9432C1
:1013100051F0983259F0943119F0E752F74FECCF71
:10132000EB52F74FE9CFEF52F74FE6CFE353F74FCA
:10133000E3CF853608F084E62FEF829FC0011124A9
:1013400064E670E00E9462B3862F089590E080E02A
:101350000895FC0164870895FC01848590E0089558
:10136000FC018685978508950F931F93CF93DF9394
:10137000EC018C01055E1D4FD8018D919C91DC0123
:10138000ED91FC910084F185E02D1995892B59F0A0
:10139000F80180819181DC01ED91FC910284F3855B
:1013A000E02D1995E9CFCE010E94B169FE01E65EFC
:1013B000FD4FCD5FDD4F88818083DF91CF911F91FD
:1013C0000F9108951092760781E08093750710922F
:1013D000500761E084E10E94FE7061E085E10E94B7
:1013E000FE70E9EBF0E080818E7F808380818D7FCD
:1013F000808388E48093B80085E48093BC000895DE
:10140000CF92DF92EF92FF920F931F93CF93DF93D0
:10141000EC0188810E94D5708C010E9412752C8984
:101420003D892017310731F06E8B7F8B888F998F24
:101430001D8B0C8BCE88DF88E88CF98C6C197D09AC
:101440008E099F09CA80DB80EC80FD806C157D05CC
:101450008E059F0530F08A899B89998B888B1B8B21
:101460000A8B288939898A899B892817390781F04D
:101470004A855B8542305105A1F48E819F81A88504
:10148000B9850196A11DB11D8E839F83A887B98759
:10149000DF91CF911F910F91FF90EF90DF90CF9050
:1014A00008954115510531F42130310589F7892B13
:1014B00021F3EECF4130510559F7232B49F701971E
:1014C00039F7DBCF4F925F927F928F929F92AF92CC
:1014D000BF92CF92DF92EF92FF920F931F93CF9321
:1014E000DF932C01EB010E943A72F20126893789C1
:1014F000621B730B6A307105B0F3F8948A819B818B
:10150000181619060CF0CDC1E881F98165B1862E57
:10151000689487F835B13F7735B9DA848F812D2DFE
:10152000281B822F2F834C85042E000C550BAA817B
:10153000BB817889FF84E9887F5FF394E3949E817F
:101540009884B984AB841181C12C6C2D0C2D2C2D69
:101550002181112788942111280F08F42FEF8195FC
:10156000889470FD120F1795889471FD120F1795CE
:10157000889472FD120F1795889473FD120F1795BA
:10158000889474FD120F1795889475FD120F1795A6
:10159000889476FD120F1795889477FD120F179592
:1015A0008894622F7111612F8D0D162F002C85B834
:1015B00000C017FF35B920816627889400C000C09D
:1015C000002C35B92111290F00C0002C85B800C0AE
:1015D00016FF35B908F42FEF9195889400C000C02C
:1015E000002C35B9F0FC620F00C0002C85B800C09B
:1015F00015FF35B967958894F1FC620F00C000C0F3
:10160000002C35B96795889400C0002C85B800C0BF
:1016100014FF35B9F2FC620F6795889400C000C0D2
:10162000002C35B9F3FC620F00C0002C85B800C057
:1016300013FF35B967958894F4FC620F00C000C0B1
:10164000002C35B96795889400C0002C85B800C07F
:1016500012FF35B9F5FC620F6795889400C000C091
:10166000002C35B9F6FC620F00C0002C85B800C014
:1016700011FF35B967958894F7FC620F00C000C070
:10168000002C35B96795889400C0002C85B800C03F
:1016900010FF35B9122FF110162F9B0D00C000C09E
:1016A000002C35B900C000C0002C85B800C017FF61
:1016B00035B922816627889400C000C0002C35B956
:1016C0002111290D00C0002C85B800C016FF35B9C6
:1016D00008F42FEFE40FF51F00C000C0002C35B94F
:1016E000E0FC620F00C0002C85B800C015FF35B9C2
:1016F00067958894E1FC620F00C000C0002C35B9EA
:101700006795889400C0002C85B800C014FF35B9D7
:10171000E2FC620F6795889400C000C0002C35B9C8
:10172000E3FC620F00C0002C85B800C013FF35B980
:1017300067958894E4FC620F00C000C0002C35B9A6
:101740006795889400C0002C85B800C012FF35B999
:10175000E5FC620F6795889400C000C0002C35B985
:10176000E6FC620F00C0002C85B800C011FF35B93F
:1017700067958894E7FC620F00C000C0002C35B963
:101780006795889400C0002C85B800C010FF35B95B
:10179000122FE110162F919400C000C0002C35B913
:1017A0009A0C00C000C085B800C017FF35B9218170
:1017B0006627889400C000C0002C35B92111280F7D
:1017C00000C0002C85B800C016FF35B908F42FEF13
:1017D0008195889400C000C0002C35B970FD620F5F
:1017E00000C0002C85B800C015FF35B967958894F6
:1017F00071FD620F00C000C0002C35B96795889458
:1018000000C0002C85B800C014FF35B972FD620F0E
:101810006795889400C000C0002C35B973FD620F35
:1018200000C0002C85B800C013FF35B967958894B7
:1018300074FD620F00C000C0002C35B96795889414
:1018400000C0002C85B800C012FF35B975FD620FCD
:101850006795889400C000C0002C35B976FD620FF2
:1018600000C0002C85B800C011FF35B96795889479
:1018700077FD620F00C000C0002C35B967958894D1
:1018800000C0002C85B800C010FF35B9122F7111AF
:10189000162F8D0D00C000C0002C35B9119709F02E
:1018A00086CEEA81FB812EE130E0DF010E947EB32B
:1018B00030E020E0A901AAE9EA9F0E0E411DFA9F3F
:1018C000400D511D11244F0F511DDC01CB01840F20
:1018D000951FA11DB11D893E43E09407A105B105E7
:1018E00008F434C0885E9340A109B10942E0B6957E
:1018F000A795979587954A95D1F747E0849F080E5D
:10190000211D949F200D311D1124290F311D60913F
:10191000B70470E0860F971F820F931F40912A072C
:1019200050912B0760912C0770912D07292F332799
:10193000420F531F611D711D40932A0750932B07BF
:1019400060932C0770932D078093B70478940E94BE
:101950003A72F201778B668BDF91CF911F910F91D5
:10196000FF90EF90DF90CF90BF90AF909F908F90BF
:101970007F905F904F9008954F925F927F928F92E9
:101980009F92AF92BF92CF92DF92EF92FF920F930E
:101990001F93CF93DF932C01EB010E943A72F20167
:1019A00026893789621B730B6A307105B0F3F8948E
:1019B0008A819B81181619060CF0CDC1E881F98146
:1019C00065B1862E689480F835B13E7F35B9DA84EA
:1019D0008F812D2D281B822F2F834C85042E000CE8
:1019E000550BAA81BB817889FF84E9887F5FF394D6
:1019F000E3949E819884B984AB841181C12C6C2DB1
:101A00000C2D2C2D2181112788942111280F08F4E9
:101A10002FEF8195889470FD120F1795889471FDB2
:101A2000120F1795889472FD120F1795889473FD05
:101A3000120F1795889474FD120F1795889475FDF1
:101A4000120F1795889476FD120F1795889477FDDD
:101A5000120F17958894622F7111612F8D0D162F1B
:101A6000002C85B800C017FF35B9208166278894FF
:101A700000C000C0002C35B92111290F00C0002C76
:101A800085B800C016FF35B908F42FEF91958894FA
:101A900000C000C0002C35B9F0FC620F00C0002C63
:101AA00085B800C015FF35B967958894F1FC620FC1
:101AB00000C000C0002C35B96795889400C0002C88
:101AC00085B800C014FF35B9F2FC620F67958894A1
:101AD00000C000C0002C35B9F3FC620F00C0002C20
:101AE00085B800C013FF35B967958894F4FC620F80
:101AF00000C000C0002C35B96795889400C0002C48
:101B000085B800C012FF35B9F5FC620F679588945F
:101B100000C000C0002C35B9F6FC620F00C0002CDC
:101B200085B800C011FF35B967958894F7FC620F3E
:101B300000C000C0002C35B96795889400C0002C07
:101B400085B800C010FF35B9122FF110162F9B0D6C
:101B500000C000C0002C35B900C000C0002C85B802
:101B600000C017FF35B922816627889400C000C0E5
:101B7000002C35B92111290D00C0002C85B800C0FA
:101B800016FF35B908F42FEFE40FF51F00C000C0B1
:101B9000002C35B9E0FC620F00C0002C85B800C0F5
:101BA00015FF35B967958894E1FC620F00C000C04D
:101BB000002C35B96795889400C0002C85B800C00A
:101BC00014FF35B9E2FC620F6795889400C000C02D
:101BD000002C35B9E3FC620F00C0002C85B800C0B2
:101BE00013FF35B967958894E4FC620F00C000C00C
:101BF000002C35B96795889400C0002C85B800C0CA
:101C000012FF35B9E5FC620F6795889400C000C0EB
:101C1000002C35B9E6FC620F00C0002C85B800C06E
:101C200011FF35B967958894E7FC620F00C000C0CA
:101C3000002C35B96795889400C0002C85B800C089
:101C400010FF35B9122FE110162F919400C000C07B
:101C5000002C35B99A0C00C000C085B800C017FF31
:101C600035B921816627889400C000C0002C35B9A1
:101C70002111280F00C0002C85B800C016FF35B90F
:101C800008F42FEF8195889400C000C0002C35B96E
:101C900070FD620F00C0002C85B800C015FF35B97B
:101CA0006795889471FD620F00C000C0002C35B9A3
:101CB0006795889400C0002C85B800C014FF35B922
:101CC00072FD620F6795889400C000C0002C35B982
:101CD00073FD620F00C0002C85B800C013FF35B93A
:101CE0006795889474FD620F00C000C0002C35B960
:101CF0006795889400C0002C85B800C012FF35B9E4
:101D000075FD620F6795889400C000C0002C35B93E
:101D100076FD620F00C0002C85B800C011FF35B9F8
:101D20006795889477FD620F00C000C0002C35B91C
:101D30006795889400C0002C85B800C010FF35B9A5
:101D4000122F7111162F8D0D00C000C0002C35B957
:101D5000119709F086CEEA81FB812EE130E0DF01A8
:101D60000E947EB330E020E0A901AAE9EA9F0E0EAE
:101D7000411DFA9F400D511D11244F0F511DDC01D3
:101D8000CB01840F951FA11DB11D893E43E094072F
:101D9000A105B10508F434C0885E9340A109B109DA
:101DA00042E0B695A795979587954A95D1F747E074
:101DB000849F080E211D949F200D311D1124290F91
:101DC000311D6091B70470E0860F971F820F931F3B
:101DD00040912A0750912B0760912C0770912D0795
:101DE000292F3327420F531F611D711D40932A076E
:101DF00050932B0760932C0770932D078093B704A3
:101E000078940E943A72F201778B668BDF91CF91C2
:101E10001F910F91FF90EF90DF90CF90BF90AF9008
:101E20009F908F907F905F904F9008950F931F9396
:101E3000CF93DF9300D000D0CDB7DEB78FEF9FEF09
:101E4000DC0189839A83AB83BC8310E000E01E83AE
:101E50000D83BE016B5F7F4FCE0101960E94F4643B
:101E6000BE016A5F7F4FCE0101960E94F4640F5F4E
:101E70001F4F0D32110559F78BE190E09E838D8342
:101E8000BE016B5F7F4FCE0101960E94F464BE01DC
:101E90006A5F7F4FCE0101960E94F46482E190E078
:101EA0009E838D83BE016B5F7F4FCE0101960E94A2
:101EB000F464BE016A5F7F4FCE0101960E94F46414
:101EC00069817A818B819C816095709580959095D0
:101ED00026960FB6F894DEBF0FBECDBFDF91CF912F
:101EE0001F910F910895FF920F931F93CF93DF934C
:101EF000EC01F62E08811981C8010E94C9B2F816BA
:101F000021F06F2DC8010E94D1B2CE01DF91CF9197
:101F10001F910F91FF900895EF92FF920F931F93DF
:101F2000CF93DF9300D000D0CDB7DEB70E94160F5D
:101F300069837A838B839C83CE0101967C010CEFAD
:101F40001FE01E830D83F70161917F01CE0105968D
:101F50000E94730F0F5F1F4F0115F0E11F0789F7F4
:101F600026960FB6F894DEBF0FBECDBFDF91CF919E
:101F70001F910F91FF90EF9008958F929F92AF92D3
:101F8000BF92CF92DF92EF92FF920F931F93CF9366
:101F9000DF931F921F92CDB7DEB78C0119828FEFAE
:101FA0008A83680125EEC21A2DEFD20AD6018D91DF
:101FB0009C91DC01ED91FC910084F185E02D199557
:101FC000F801E75EFD4F7F01892B09F449C081E0EC
:101FD00089834801FDEF8F1A9F0A580126EEA21A45
:101FE0002DEFB20AD6018D919C91DC01ED91FC910F
:101FF0000084F185E02D1995892B09F1F601808186
:102000009181DC01ED91FC910284F385E02D19951D
:102010008A83AE014F5F5F4FBE016E5F7F4FC80185
:102020000E94E969F7018083D4018C91F5018083D6
:102030008330C1F218161CF0C8010E94B409F701E0
:1020400080810F900F90DF91CF911F910F91FF90A2
:10205000EF90DF90CF90BF90AF909F908F900895BA
:10206000AE014F5F5F4FBE016E5F7F4FC8010E94A0
:10207000E969D7018C93F801ED5FFD4F8081779678
:102080008083D8CFBF92CF92DF92EF92FF920F93CF
:102090001F93CF93DF931F92CDB7DEB78C016B01F7
:1020A000B42EDB018D919C91F801E15FFD4F7F0122
:1020B0008F3F910508F475C08FEF80836801F801A8
:1020C00080E091919E3709F067C0D7018C9344EA74
:1020D00052E0B801C8010E94C9694091830A509139
:1020E000840A980122503F4F80E0D601ED916D01A6
:1020F000E827E40FF52FF11D80812A173B07A9F788
:10210000F801E350FE4FB082F7019081F801E250F0
:10211000FE4F90839EEF31969083319680838EEFB1
:10212000F82E6801B5EECB1ABDEFDB0AF60180810F
:102130009181B80164507E4FDC01ED91FC910280E9
:10214000F381E02D44E050E01995F6018081918102
:102150004F2D50E0DC01ED91FC910280F381E02DE8
:10216000B8011995F60180819181B8017E5FDC018B
:10217000ED91FC910280F381E02D42E050E0199551
:102180008F2D0F90DF91CF911F910F91FF90EF90C6
:10219000DF90CF90BF9008958F5F8E3F09F091CF71
:1021A00096CF982F8FEF8083F80180E0891728F46D
:1021B00021912E3719F5F7018083D6018C918983FF
:1021C000AE014F5F5F4FB801C8010E94C969F601B7
:1021D000208131814091830A5091840AD80180E0A6
:1021E0003327BD01601B710B6217730748F4ED9133
:1021F000E827E40FF52FF11D8081F3CF8F5FD6CF55
:10220000F801E350FE4FB082D7019C913196908344
:10221000F6019081F801E150FE4F90833196808362
:10222000D601FC907ECFCF93DF9391E09093BB04D7
:102230008823B9F0C091B800D091BA008091BC0059
:102240008A7B8093BC0060E084E10E94FE7060E0C5
:1022500085E10E94FE700E94E209D093BA00C0930B
:10226000B800DF91CF91089585ED8093BC008091F7
:10227000780790917907A0917A07B0917B0707962C
:10228000A11DB11D23E0B695A795979587952A9531
:10229000D1F72091BC0024FD03C010927607089569
:1022A000409178075091790760917A0770917B0788
:1022B000452B462B472B69F30097A105B10541F04B
:1022C0002AE22A95F1F700C00197A109B109E1CFEF
:1022D000809177070C9413111F920F920FB60F92F3
:1022E00011240BB60F922F933F934F935F936F93ED
:1022F0007F938F939F93AF93BF93EF93FF938091BF
:10230000B900887F803609F44DC008F040C088329B
:1023100009F4A9C028F5803109F49DC0C8F48823C8
:1023200009F4FBC0883009F496C0FF91EF91BF918A
:10233000AF919F918F917F916F915F914F913F915D
:102340002F910F900BBE0F900FBE0F901F901895FE
:10235000883109F488C0803241F78093740714C033
:10236000803409F49DC040F48033B9F38833E9F632
:102370008093740785ECB0C0803509F485C088353A
:1023800009F496C0883489F60E943411CECF88397A
:1023900009F48CC038F5883729F050F4883611F0EC
:1023A000803719F683E0809376071092020557C0B4
:1023B000883809F47BC0803919F0803809F0B5CF2E
:1023C00080910205803208F071C0E091020581E041
:1023D0008E0F809302058091BB00F0E0EE51FB4F21
:1023E00080833DC0803B39F0E0F4803A09F479C045
:1023F000883A09F09ACF84E0809376071092DF0440
:102400001092DE04E091DC04F091DD0419958091D6
:10241000DE0481110FC081E08093DE041092BC04C1
:1024200009C0803C09F4A6CF883C09F4A3CF883BBF
:1024300009F07BCFE091DF0481E08E0F8093DF0411
:10244000F0E0E454FB4F80818093BB009091DF0467
:102450008091DE0429C0809151078093BB0085ECF8
:102460008093BC0062CF9091730780917207981798
:1024700058F5E091730781E08E0F80937307F0E0C9
:10248000EE5AF84F8081E9CFE091730781E08E0F1B
:10249000809373078091BB00F0E0EE5AF84F808381
:1024A00090917307809172079817C8F285E8D8CF8A
:1024B000E091730781E08E0F809373078091BB00DA
:1024C000F0E0EE5AF84F80838091750781115CCF60
:1024D00081E08093500784EA8093BC0010927607D5
:1024E00024CF85EC8093BC00109276078091020582
:1024F000803230F4E0910205F0E0EE51FB4F1082A3
:102500006091020570E0E091E004F091E10482EE58
:1025100094E019951092020508CF1092740734CFF9
:102520008F929F92AF92BF92CF92DF92EF92FF92E3
:102530000F931F93CF93DF93FC012085211110C0CF
:1025400060E070E0CB01DF91CF911F910F91FF9080
:10255000EF90DF90CF90BF90AF909F908F900895B5
:10256000EC010E94127529852111EACF8C809D8093
:10257000AE80BF80088119812A813B816B017C017B
:10258000C818D908EA08FB08C016D106E206F30607
:10259000B8F6080D191D2A1D3B1D68017901C61AE0
:1025A000D70AE80AF90AC701B601CDCFCF92DF9268
:1025B000EF92FF921F93CF93DF93FC0110851111CF
:1025C0000AC010E0812FDF91CF911F91FF90EF9013
:1025D000DF90CF900895EC018185882319F018864B
:1025E0001986F0CF0E941275CC80DD80EE80FF80CE
:1025F0006C197D098E099F09C880D980EA80FB800B
:102600006C157D058E059F0550F7DBCFCF93DF93CB
:10261000EC01488359836A837B830E9412756C8323
:102620007D838E839F8381E088871986DF91CF9198
:1026300008950F931F93CF93DF93EC010E941275BF
:102640008B019C018C819D81AE81BF814881598124
:102650006A817B81081B190B2A0B3B0B041715079A
:102660002607370738F4CE01DF91CF911F910F91E4
:102670000C940613840F951FA61FB71F8C839D8390
:10268000AE83BF8381E088871986DF91CF911F9148
:102690000F910895DC01FB016C9111964C911197FB
:1026A00012967C91262F220F220F220F95E5822F62
:1026B000899F080E80E0811D1124562F5074362FFB
:1026C000307267FD60C0511149C0311106C0982FAA
:1026D0009095282F892F90E004C025E5280F90E0E1
:1026E0008BEA4F3FF1F0442309F46CC0409530E091
:1026F000442329F0449F312D112441113F5F432F82
:102700004095849F080E80E0811D249F020E20E0EA
:10271000211D949F090E90E0911D1124830F230F1A
:10272000930F7F3FB9F030E0772321F0779F312D71
:1027300009F03F5F332309F449C0839F080E80E00E
:10274000811D239F020E20E0211D939F090E90E022
:10275000911D1124808321839283089531110DC02E
:10276000922F2AEA929F090E90E0911D11242BEAE4
:10277000291B922F2AEA280FADCF90E0282F209511
:10278000982F80E0AECF511111C031110BC0922FA4
:102790008AEA989F090E90E0911D11242BEA291BCB
:1027A0009B5AEFCF982F909520E09BCF311106C018
:1027B00025E5280F9BEA981B822FF6CF2AEA280FDF
:1027C00030E0F9CF9FEF2FEF8FEFABCF90E020E01D
:1027D00080E0C0CFCF93DF931F921F92CDB7DEB7BB
:1027E000EFEAF3E021E0208381836283738394E046
:1027F0009483EEE9FAE02083818362837383948378
:1028000085E090E09A83898341E0BE016F5F7F4F4E
:10281000CF010E9442100F900F90DF91CF91089549
:1028200070E060E00C94EA13CF93DF931F921F9245
:10283000CDB7DEB7E9E8F3E021E02083818362834E
:10284000738394E09483EFEBFCE0208381836283C5
:102850007383948385E090E09A83898341E0BE018D
:102860006F5F7F4FCF010E9442100F900F90DF915A
:10287000CF91089570E060E00C941414E5E3F0E16A
:102880008091420280838091410281838091400245
:10289000828380913F02838380913E0284830895E6
:1028A00080914502843251F0883221F0843141F424
:1028B0008AE001C087E080930402089585E0FBCFA1
:1028C0008FE0F9CF8091110590911205892B21F0AD
:1028D00088E0809303020895109203020895909176
:1028E000460280914502890F27E0280F209368193E
:1028F000909351198093671980910F0220910F05D1
:102900004091110550911205452BA9F090910302B9
:102910003FEF390F3093430290931F11980F8FEFC1
:10292000890F80931E1190931D118FEF820F890FD5
:1029300080931C1108951092430210921F119FEF73
:10294000980F90931E1180931D11820F8150F0CF2C
:1029500081E08093280280932702809307020895E4
:102960008823D1F180912A028823A1F18091690600
:1029700090916406992361F081110CC0E0912B02C3
:10298000F0E0EC5CFF4E8081882351F05F9A0CC030
:10299000882331F0E0912B02F0E0E65AFD4FF3CFAF
:1029A000809162068111F2CF80912A028823A9F0DA
:1029B0008091690690916406992389F0811111C074
:1029C000E0912B02F0E0EC5CFF4E8081882379F0EF
:1029D000449A08955F98E8CF5F98449808958823B3
:1029E00031F0E0912B02F0E0E65AFD4FEECF8091FE
:1029F00062068111EDCF08958823D1F180912A02DA
:102A00008823A1F18091690690916406992361F071
:102A100081110CC0E0912B02F0E0EC5CFF4E808154
:102A2000882351F0429A0CC0882331F0E0912B02A8
:102A3000F0E0E65AFD4FF3CF809162068111F2CFAC
:102A400080912A028823A9F08091690690916406FA
:102A5000992389F0811111C0E0912B02F0E0EC5C28
:102A6000FF4E8081882379F0A29A08954298E8CF9A
:102A70004298A2980895882331F0E0912B02F0E06B
:102A8000E65AFD4FEECF809162068111EDCF089599
:102A900080911702882349F081E02091DC10309169
:102AA000DD10232B19F080E0089581E008958091D6
:102AB000700590917105029749F480911202882364
:102AC00031F081E0909145029C3009F480E0089556
:102AD000E82FF0E080914502843259F0883261F0AD
:102AE000843121F0EB55F74F84910895E358F74F67
:102AF000FBCFEB5AF74FF8CFE35DF74FF5CF8823C5
:102B0000D1F080916406882341F0E0912B02F0E03F
:102B1000EC5CFF4E8081811108C0809169068111B3
:102B200004C080916806882331F080910B01886091
:102B300080930B01089580910B01877FF9CF10924C
:102B40006010109261101092590380915706909175
:102B50005806059721F460E08DE20C94FE7090E039
:102B600080E00C946871209157063091580623300C
:102B70003105C9F025303105C1F090911802992333
:102B800091F0882381F02230310521F49091640680
:102B9000992349F090915903981739F0809359037C
:102BA00090E00C9468710C949F150895BF92CF9299
:102BB000DF92EF92FF920F931F93CF93DF93EC017D
:102BC000809116020E949909B82EF0905019E09059
:102BD00051198CE399E10E94D612882309F4A3C10C
:102BE000FE188F2D0E946815E82E809133028823ED
:102BF00009F456C085E08093340286E199E10E9491
:102C00004065882389F010923302D0932F02C0933D
:102C10002E02AE0170E060E08CE399E10E940613A1
:102C20008CE380935B031AC086E199E10E94AA6558
:102C300090932F0280932E02AC0170E060E08CE351
:102C400099E10E94061380915B038F5F8F3030F112
:102C500080935B0380915B038D3310F78091640652
:102C600081110CC080916906811108C080916806AD
:102C7000811104C080915B030E94B31580912802EA
:102C800090914502943209F48CC0983219F0943135
:102C900009F0F4C0823008F087C0E5C08FE0D8CFDB
:102CA00080916A068823B1F185E08093340286E141
:102CB00099E10E944065882319F010926A06CECFF0
:102CC00086E199E10E94AA6590932F0280932E02DB
:102CD000AC0170E060E08CE399E10E940613209162
:102CE0002E0230912F022932310568F080915B036A
:102CF000843220F0815080935B0305C02536310576
:102D000010F08031B8F780915B038F3008F0A6CFC8
:102D10008FE087CFD0932F02C0932E02809128029C
:102D200090914502943211F0983221F58230E8F00A
:102D3000282F30E0AE01421B530B2C173D0711F436
:102D400050E040E0909106028B5F911101C085E058
:102D500080933402809134028B3018F08AE08093A3
:102D600034024115510591F013C085E0809334027F
:102D7000AE01F0CF95E090933402823080F090E085
:102D8000AE01481B590B8C179D0711F441E050E030
:102D900070E060E08CE399E10E9406135FCFAE0122
:102DA000E0CF823008F457C090E08C179D0709F4FB
:102DB00062C0C81BD90B0E9457158111B4C0EF2DFA
:102DC000F0E0E45DF94F808181111BC0EE20C9F075
:102DD000809106028823A9F029E1F29EC001112406
:102DE0009C012A5B3E4E690160E0C9010E94DF67D9
:102DF0009E0150E040E004E110E06B2DC6010E940E
:102E0000AC6780911102882309F497C08091450234
:102E10008432D1F1883209F490C090916A068431ED
:102E200009F04CC091110DC080913302811109C08D
:102E300080916806811105C080916106882309F49C
:102E400082C092E29F15C0F181EF8F0D853008F0AE
:102E500078C089E04AC080913302811109C0809115
:102E60006A06811105C0CE01880F991FC80FD91FAE
:102E7000209709F0A0CFC1E0D0E09DCF823008F0CC
:102E800093CFCC0FDD1FF4CF80916A0681110DC066
:102E900080913302811109C080916806811105C0BB
:102EA00080916106882309F44EC037E28BE1F31666
:102EB000E1F083E1F81243C08FE017C091110CC01C
:102EC00080913302811108C080916806811104C08D
:102ED000809161068823B9F120E22F1508F4B9CF5B
:102EE00083EF8F0D873088F585E020911502909152
:102EF0005019222309F454C0E11029C020918603FF
:102F0000281728F52F5F2093860320915019809170
:102F1000460290E087962817190629F024F0809140
:102F2000511980935019DF91CF911F910F91FF900C
:102F3000EF90DF90CF90BF90089580E0D6CF85E1ED
:102F4000D4CF8BE0D2CF83E0D0CF87E0CECF10922A
:102F50008603C92FE11020C020915119EC2EF12CCD
:102F6000822F90E087968E159F057CF28C2F821B16
:102F70000E946815882319F0C0935019C6CF80911C
:102F8000460290E08796E816F90621F480915119DF
:102F900080935019CF5FE0CF9F5F90935019B5CFCA
:102FA000E11012C020918603281770F42F5F209340
:102FB00086039091501980915119981708F0B3CF5A
:102FC00080914602895DADCF10928603C92FE11032
:102FD00010C0809151198C1760F73C2F381B832F3C
:102FE0000E946815882319F0C0935019E2CFC15090
:102FF000F0CF915090935019DCCF81E08093330251
:10300000809332028093310208958091A7079091B6
:10301000A8078230910528F08430910568F0059763
:1030200011F18CE291E090932F0280932E02909305
:103030002D0280932C0208956091190270911A025A
:1030400090E080E00E94AAB126E636E646EA5FE319
:103050000E940BB20E9490B470932F0260932E02D4
:103060008CE291E0E4CF88EC90E090932F02809383
:103070002E02F6CFDF92EF92FF920F931F93CF9322
:10308000DF938CE2E82E86E0F82E0CE513E0D0E02A
:10309000C0E0DD24D394F70111927F0160E0CE01FE
:1030A000825D9A4E0E94DF6760E0CE018A5B9E4E91
:1030B0000E94DF67F801D1928F016996C83EF3E064
:1030C000DF0749F7DF91CF911F910F91FF90EF90AC
:1030D000DF90089580912802811103C081E08093E0
:1030E0002802809128028A3018F089E08093280213
:1030F00080912702811103C081E080932702809193
:1031000027028A3018F089E0809327028091070215
:10311000811103C081E0809307028091070287300C
:1031200018F086E08093070208952F923F924F9205
:103130005F926F927F928F929F92AF92BF92CF9247
:10314000DF92EF92FF920F931F93CF93DF93CDB750
:10315000DEB76F970FB6F894DEBF0FBECDBF60919C
:10316000600F6C53770B80915E0F9B01281B310918
:1031700087FD339544E6429FC001439F900D112483
:103180000E9462B3262F362F2090190580911C02D1
:1031900090911D02E8EEF3E0BF010E944EB3C62EEF
:1031A00080911E0290911F02BF010E944EB3D62E45
:1031B0008091200290912102BF010E944EB3E62E21
:1031C0008091220290912302BF010E944EB3F62EFD
:1031D0008091240290912502BF010E944EB3662E79
:1031E0008091260277247394882311F0F2E07F2ED9
:1031F0008091150288248394882311F0E2E08E2EBA
:103200008091130299249394882311F072E0972EF1
:1032100080911102AA24A394882311F062E0A62EC3
:1032200080912A02BB24B394882311F052E0B52E7A
:1032300080911B0261E0811162E08091290201E02E
:10324000811102E080916D0512E0811101C011E051
:1032500080911B0590911C05B2E0019709F0B1E047
:1032600080910D05A2E0811101C0A1E080911202C0
:10327000811193C081E08E8F80911305882309F41A
:103280008FC0E2E0EF8F8091170242E0342E81116F
:1032900002C0332433948091140272E0811171E0F2
:1032A00081E0820F353608F085E690913E0251E0CC
:1032B000911152E090913F0241E0911142E09091D2
:1032C0004002911170C091E0209141025524539425
:1032D000222311F032E0532E2091420244244394E1
:1032E000222311F022E0422E209114053091150581
:1032F000215031092530310508F057C02F5A3D4F74
:10330000F901208179828A829B82AC82BD826E83A0
:103310000F8318872986BA87AB87FE8DFC873F8D80
:103320003D877E878F87C88AD98AEA8AFB8A6C8A1A
:103330005D8B4E8B9F8B588E498E2A8F3B8ECE0194
:1033400001967C0102E110E01D8F0C8FF701619165
:103350007F01CE014C960E94730F0F5F1F4F0D32FD
:10336000110591F70E948C0F6F960FB6F894DEBF8F
:103370000FBECDBFDF91CF911F910F91FF90EF90C6
:10338000DF90CF90BF90AF909F908F907F906F9085
:103390005F904F903F902F90089592E09E8F6CCF5A
:1033A000F1E0FF8F70CF92E08FCF24E0ABCF0F938F
:1033B0001F93CF93DF931F921F92CDB7DEB702E129
:1033C00010E01A8309836FEFCE0101960E94730FFC
:1033D0000F5F1F4F0D321105A1F70E948C0F0F9048
:1033E0000F90DF91CF911F910F910895EF92FF926F
:1033F0000F931F93CF93DF93CDB7DEB764970FB6CC
:10340000F894DEBF0FBECDBF8091100532E0813051
:1034100009F031E080910D0293E0813021F094E0D9
:10342000823009F092E0409111055091120582E03E
:103430004115510529F083E04130510509F084E040
:1034400020910E05222309F451C022E0409146024A
:103450004983409145024A8340910F024B833C834C
:10346000309139023D83309137023E8330913502ED
:103470003F8330913A023887309138023987309152
:1034800036023A8730910C023B87309116023C8716
:1034900030910E023D87309110023E8730910F052A
:1034A0003F87988B898B2A8BCE0101967C0110E097
:1034B00000E01C8B0B8BF70161917F01CE014396DD
:1034C0000E94730F0F5F1F4F0231110591F70E9489
:1034D0008C0F64960FB6F894DEBF0FBECDBFDF91A0
:1034E000CF911F910F91FF90EF90089521E0AECF03
:1034F0000F931F93CF93DF931F921F92CDB7DEB729
:1035000010E000E01A8309836FEFCE0101960E945C
:10351000730F0F5F1F4F02311105A1F70E948C0F2F
:103520000F900F90DF91CF911F910F9108952091EF
:103530005E0680919F079091A00701970397C0F4C2
:103540008091590690915A06211107C021E02093DD
:103550005E0665E0892B31F4089510925E06892B92
:10356000D9F366E080915B0690915C060C948E6CBA
:10357000211104C081E080935E06089510925E06DA
:10358000EBCF80919F079091A0070197039798F444
:103590008091590690915A06892B59F080915B06CB
:1035A00090915C06843F21E0920718F064E00E944D
:1035B0008E6C0E94796F10925D0610925F0661E03A
:1035C00070E084E20E94EA1360915B0670915C06F1
:1035D00085E40C9414148091590690915A06892B15
:1035E00009F470C080915B0690915C06843F21E0F5
:1035F000920708F467C021E020935F0620919F079F
:103600003091A0072230310509F43FC02330310545
:1036100019F021303105F9F420915E0665E02111A1
:1036200001C066E00E948E6C60915B0F062E000C5C
:10363000770B80915B0690915C060E94926E61E030
:1036400080915B0690915C060E94C06E0E94796F2B
:1036500081E080930A0840E157E260E070E081E693
:103660009FE00E94061380915F0661E070E088236E
:1036700011F062E070E084E20E94EA1360915B0660
:1036800070915C0684E40C94141420915E0665E04D
:10369000211101C066E00E948E6C60915B0F062EC6
:1036A000000C770B80915B0690915C060E94926EF5
:1036B00050E040E061E080915B0690915C060E94E2
:1036C0005F6EC4CF0895CF93DF93C0915B06D09116
:1036D0005C062197C43F81E0D80730F4C0915906B9
:1036E000D0915A06CD50DE4F80915F06882351F06D
:1036F0000E94C11AD0935C06C0935B06DF91CF9104
:103700000C94EB1AD0935C06C0935B06BE0185E473
:10371000DF91CF910C941414CF93DF93C0915B068B
:10372000D0915C0621968091590690915A068D5051
:103730009E4F8C179D0710F4C4EFD1E080915F0677
:10374000882351F00E94C11AD0935C06C0935B0697
:10375000DF91CF910C94EB1AD0935C06C0935B067B
:10376000BE0185E4DF91CF910C94141420919F0742
:103770003091A007215031092330310518F464E05D
:103780000C948E6C08958FE891E00E94B61B87E33D
:1037900090E00E94B61B8BE691E00E94B61B8CE67F
:1037A00091E00C94B61B8DE890E00E94B61B8EE869
:1037B00090E00E94B61B8FE890E00E94B61B80E963
:1037C00090E00E94B61B81E990E00E94B61B82E95E
:1037D00090E00E94B61B83E990E00E94B61B84E94A
:1037E00090E00E94B61B809170059091710505973D
:1037F00021F483EA91E00E94B61B809170059091BC
:103800007105069721F484EA91E00E94B61B89E4D1
:1038100091E00E94B61B8CE491E00E94B61B80915F
:103820006106811106C08091700690917106892B06
:1038300011F40C94C31B0895CF92DF92EF92FF9284
:103840000F931F93CF93DF936C01F62EC42F1416A2
:103850000CF4C0E0CA3B0CF4CAEB80919F07909136
:10386000A0078230910591F18330910519F00197FD
:1038700009F048C00C2E000CDD0B222381F06AEB0E
:103880007FEFC6010E94926E6E2DC6010E94C06E2F
:1038900020E0A801BE01C6010E945A6C08C0BE010A
:1038A000C6010E94926E6E2DC6010E94C06E65E038
:1038B000F11001C066E0C601DF91CF911F910F9119
:1038C000FF90EF90DF90CF900C948E6C0C2E000C3C
:1038D000DD0B222361F06AEB7FEFC6010E94926E3E
:1038E00050E040E06E2DC6010E945F6ED1CFBE0158
:1038F000C6010E94926E50E040E06E2DC6010E940B
:103900005F6ED5CFDF91CF911F910F91FF90EF9018
:10391000DF90CF900895EF920F931F93CF93DF9393
:10392000EC0180917005909171058130910509F449
:10393000A7C0029709F4A1C08091A7079091A8079A
:103940008330910509F478C08530910509F492C05F
:10395000029709F07CC080912B02853009F461C088
:103960008AE090E00E94B61B87E490E00E94B61BBC
:1039700080E891E00E94B61B89E490E00E94B61BAB
:103980008AE490E00E94B61B81E0809361060E9469
:10399000C31B8091A7079091A8070597E1F5809137
:1039A0006A05882321F08EE491E00E94B61B81E035
:1039B00090E00E94B61B85E991E00E94B61BEE24C0
:1039C000E39410E000E020E040915C0F60E08FE8BD
:1039D00091E00E941C1C04EC19E021E040915C0F76
:1039E00061E087E390E00E941C1C80915706909153
:1039F0005806059711F40E949F15AE0170E060E033
:103A000083E090E10E94061381E080936A06809330
:103A1000660680936506DF91CF911F910F91EF901D
:103A2000089588E891E00E94B61B8BE891E00E941F
:103A3000B61B8AE891E09ECF8BE090E00E94B61B17
:103A400087E490E00E94B61B8AE090E093CF81E883
:103A500091E00E94B61B82E891E00E94B61B83E8C9
:103A600091E00E94B61B8FE690E00E94B61B8EE6A6
:103A700090E088CF82E891E0F4CF85E390E082CFB8
:103A80008BE390E07FCFCF92DF92EF920F931F9363
:103A9000CF93DF9368EE73E00E944EB3EB016B01AE
:103AA00084EBC80ED11CCB018D549F4F0E94B61BD6
:103AB000C6010E94B61BCE018B549F4F0E94B61BBD
:103AC000EE24E39410E000E020E040915C0F60E021
:103AD000C6010E941C1CDF91CF911F910F91EF90A6
:103AE000DF90CF9008958330B9F198F4823009F4D3
:103AF00042C08091240290912502885E9340803DCF
:103B000027E0920708F446C0909325028093240290
:103B100012C0843091F0853061F780911C02909141
:103B20001D02885E9340803D27E0920798F19093B4
:103B30001D0280931C020C94431D80911E029091E3
:103B40001F02885E9340803D27E0920718F1909312
:103B50001F0280931E02EFCF8091200290912102DC
:103B6000885E9340803D27E09207A0F09093210269
:103B700080932002E0CF8091220290912302885E00
:103B80009340803D27E0920728F090932302809392
:103B90002202D1CF08958330B9F198F4823009F42C
:103BA00042C0809124029091250288519C4F813619
:103BB0002AEE920708F046C09093250280932402D3
:103BC00012C0843091F0853061F780911C02909191
:103BD0001D0288519C4F81362AEE920798F59093EA
:103BE0001D0280931C020C94431D80911E02909133
:103BF0001F0288519C4F81362AEE920718F5909348
:103C00001F0280931E02EFCF80912002909121022B
:103C100088519C4F81362AEE9207A0F4909321029E
:103C200080932002E0CF809122029091230288515C
:103C30009C4F81362AEE920728F4909323028093BA
:103C40002202D1CF0895EF920F931F930E94C31BBE
:103C50001092610680916D06882309F471C040912D
:103C60005C0F8091A7079091A807EE24E39410E0E1
:103C700000E020E060E0059709F05EC082E691E098
:103C80000E941C1C8091700590917105029709F0AB
:103C90004BC040915C0F485204EF11E021E061E01D
:103CA00085E991E00E941C1C80916A05882361F0DF
:103CB000EE24E39400ED17E021E040915C0F61E019
:103CC0008EE491E00E941C1C10926A061092650618
:103CD0000E94FD1710920B1010920C1040E050E063
:103CE000BA0182E599E10E94061340E050E0BA0172
:103CF0008CE399E10E94061340E050E0BA018CE3A6
:103D000091E10E94061380915706909158060597FD
:103D1000B9F480911802882399F061E08DE21F9137
:103D20000F91EF900C94FE70EE24E39400ED17E0F9
:103D300021E040915C0FB3CF8CE691E00E941C1C07
:103D40001F910F91EF900895EF920F931F93809121
:103D50006B05882331F080E691E00E94B61B10923B
:103D60006B0580917005909171058230910509F481
:103D7000BAC18330910509F4E6C1019709F4CBC1BA
:103D80008091A7079091A80720912B02253009F474
:103D90003FC120915406222309F428C140915C0FB1
:103DA000E12C10E000E020E060E083309105A1F01C
:103DB0008530910509F413C1029709F009C18DE717
:103DC00091E00E941C1C0AEF10E021E040915C0F82
:103DD00061E08FE791E00CC084E690E00E941C1C3B
:103DE00004E619E121E040915C0F61E083E690E098
:103DF0000E941C1C81E080930505809104058823A6
:103E000009F403C18091A7079091A80740915C0F26
:103E1000E12C10E000E020E060E08330910509F043
:103E2000E8C084E690E00E941C1C04E619E121E051
:103E300040915C0F61E088E490E00E941C1C81E0EE
:103E4000809303058091A7079091A8070497029794
:103E5000F8F480912B028530D8F48BED9FE00E941E
:103E600090122091700530917105683B7B4081056F
:103E7000910508F074C160915C0F2230310509F0A2
:103E80006CC1685244E650E080E190E00E94526FBD
:103E90008091700590917105059759F4E12C04E625
:103EA00010E021E040915C0F60E083EA91E00E9425
:103EB0001C1C8091700590917105069759F4E12CB6
:103EC00004E610E021E040915C0F60E084EA91E0BC
:103ED0000E941C1C81E08093640687E00E943A14D3
:103EE0008091A7079091A8070497029770F46091BA
:103EF0002B0270E088E99AE30E944EB3AB0170E0B8
:103F000060E086E499E10E940613809126028823EE
:103F100009F180916E0590916F050297D9F40E9486
:103F20003DB128E030E040E050E00E94DFB2695F40
:103F30007F4F8F4F9F4F28EE33E0629FA001639F1A
:103F4000500D729F500D112470E060E085EE9FE0EF
:103F50000E94061380E00E94FC14809170059091ED
:103F600071050297A1F0E0912B02E150FF0BEE0FDB
:103F7000FF1FE553F44F4591549170E060E084E4F5
:103F800090E10E940613109242101092431010927A
:103F90006010109261108FEF0E94B31510922910DB
:103FA00010922A1042E350E060E070E087E190E177
:103FB0000E94061381E08093630648E95AE360E0BB
:103FC00070E08FEE9FE01F910F91EF900C9406131D
:103FD0008BE990E00E941C1C03E111E0F6CE8FE417
:103FE00091E00E941C1C08EC10E0EFCE1092050539
:103FF00004CF059739F48FE491E00E941C1C0CE279
:1040000011E015CF85E090E0F8CF109203051ACFAC
:1040100040915C0FE12C10E000E020E060E0833094
:10402000910509F445C08530910509F447C0029710
:1040300009F041C087E891E00E941C1C8091540661
:10404000882309F449C08091A7079091A80721E02F
:104050002093050540915C0FE12C8230910589F594
:1040600004EA16E061E089E891E00E941C1C80915E
:104070000405882351F28091A7079091A80721E0B9
:104080002093030540915C0FE12C0CEB12E0833090
:10409000910529F10CE211E021E0029701F504EA13
:1040A00016E021E061E089E891E00E941C1CCACE84
:1040B00081E690E0C1CF8BE990E0BECF8FE491E044
:1040C000BBCF0CE211E0039711F40CEB12E021E0FE
:1040D00061E082E690E0C9CF10920505C8CF61E0AB
:1040E00088E490E0E2CF85E390E00E94B61BE12CEB
:1040F00010E000E020E040915C0F60E083E390E09E
:104100000E941C1C02E513E021E040915C0F61E07D
:1041100084E390E0CACF8BE390E00E94B61BE12CD1
:1041200010E000E020E040915C0F60E089E390E067
:104130000E941C1C08EE13E021E040915C0F61E03E
:104140008AE390E0B2CFE12C10E000E020E0409163
:104150005C0F60E086E491E0A8CF625093CE8BEDD7
:104160009FE02230310541F40E94901220915C0FB3
:104170002852AB01622F88CE0E94901220915C0FD2
:104180002250F7CFEF920F931F9340915C0F8091D5
:10419000700590917105EE24E39410E000E020E0BA
:1041A00060E0029751F583E591E00E941C1C81E0DC
:1041B0008093690680917005909171050297D9F5F9
:1041C00048EB5BE060E070E08EE490E10E94061353
:1041D0008091A7079091A8070297029740F48CE27C
:1041E00091E090932D0280932C020E943A1886E170
:1041F0001F910F91EF900C943A1488E691E00E9481
:104200001C1C8091A7079091A8070497029740F47F
:1042100020E040915C0F61E089E691E00E941C1C67
:10422000EE24E39410E000E020E040915C0F60E0B9
:1042300085E591E0BACF40EA5FE060E070E08EE4AF
:1042400090E10E94061310921F10109220101092FD
:10425000291010922A1042E350E060E070E087E1FC
:1042600090E1B4CFEF920F931F93809170059091DE
:1042700071058230910509F47CC083309105A9F164
:10428000019709F47DC08091A7079091A80720911C
:104290002B02253009F455C08330910571F085302B
:1042A000910509F44BC0029709F045C08DE791E0F4
:1042B0000E94B61B8FE791E006C084E690E00E9462
:1042C000B61B83E690E00E94B61B809126028823ED
:1042D00021F089E090E00E94B61B88E490E00E9403
:1042E000B61B82E690E00E94B61B80916E0590910D
:1042F0006F05009709F44BC0019709F468C010924C
:104300000505109203058091700590917105059740
:1043100021F483EA91E00E94B61B80917005909190
:104320007105069709F071C084EA91E01F910F9121
:10433000EF900C94B61B80E690E0BACF8FE491E04A
:10434000B7CF8330910561F08530910579F0029700
:1043500051F487E891E00E94B61B89E891E0B3CF61
:1043600081E690E0B0CF8BE990E0ADCF8FE491E0B3
:10437000AACF83E390E00E94B61B84E390E0B3CF22
:1043800089E390E00E94B61B8AE390E0ACCF82E024
:1043900090E090936F0580936E0580919F079091B8
:1043A000A007039741F48AE490E00E94B61B89E4D9
:1043B00090E00E94B61BE12C10E000E020E040916C
:1043C0005C0F60E089E490E00E941C1C98CF82E0C2
:1043D00090E090936F0580936E0580919F07909178
:1043E000A007039741F48EE690E00E94B61B8FE68B
:1043F00090E00E94B61BE12C10E000E020E040912C
:104400005C0F60E08FE690E0DFCF1F910F91EF909F
:1044100008950F931F93CF93DF9300D000D0CDB7B3
:10442000DEB7122F242F462F682FCE0101960E944F
:10443000006DBE016C5F7F4FCE0101960E944A1352
:104440006D817C81111102C06C817D818E812696E7
:104450000FB6F894DEBF0FBECDBFDF91CF911F9195
:104460000F9108950F931F93CF93DF9310E08091E6
:1044700045021817D0F4C09151192C2F210F332762
:10448000331FC901E901CC0FDD1FC80FD91FCE585A
:10449000DA4F00E020E04FEF60E081E00E94092267
:1044A000688379838A831F5FE2CFDF91CF911F9169
:1044B0000F910C943A182F923F924F925F926F9205
:1044C0007F928F929F92AF92BF92CF92DF92EF92A4
:1044D000FF920F931F93CF93DF93809116020E9458
:1044E0009909C82F80911202D5E0882331F060919C
:1044F000700581E00E941608D82F80E00E946909AB
:1045000020905119280E81E00E94690930905119BC
:10451000380E82E00E94690940905119480E83E0EC
:104520000E94690920915119582E520E80917005F0
:10453000909171050497039708F4D5E090901302C9
:10454000A22CB12CC32CD12CE42CF12C652C712C79
:10455000911038C14501880C991C8A0C9B1C940150
:104560002E583A4F490100E020E04C2F6D2F81E09A
:104570000E940922F4016083718382834601880CC2
:10458000991C8C0C9D1C94012E583A4F490120E037
:104590004C2F6D2F81E00E940922F401608371830A
:1045A00082834701880C991C8E0C9F1C94012E5805
:1045B0003A4F490120E04C2F6D2F81E00E940922E3
:1045C000F4016083718382834301880C991C860CFB
:1045D000971C94012E583A4F490120E04C2F6D2F23
:1045E00081E00E940922F4016083718382838091BB
:1045F00014028111C9C0C50101965C01AA0CBB1C43
:10460000A80EB91E95012E583A4F590120E04C2FA3
:104610006D2F81E00E940922F501608371838283FE
:1046200080915119821508F4C2C020906819F8EFE2
:104630002F0EA22CB12CC501880F991FA80EB91EF0
:1046400095012E583A4F590100E020E04C2F6D2F74
:1046500081E00E940922F501608371838283C60193
:1046600001966C01CC0CDD1CC80ED91E96012E588B
:104670003A4F690120E04C2F6D2F81E00E94092202
:10468000F60160837183828380915119831508F448
:1046900090C080916819885090E06C01CC0CDD1CB2
:1046A0008C0D9D1D9C012E583A4F690100E020E0C1
:1046B0004C2F6D2F81E00E940922F60160837183E7
:1046C0008283C70101967C01EE0CFF1CE80EF91EE7
:1046D00097012E583A4F790120E04C2F6D2F81E041
:1046E0000E940922F70160837183828380915119AE
:1046F000841508F461C080916819885090E07C01AD
:10470000EE0CFF1C8E0D9F1D9C012E583A4F790117
:1047100000E020E04C2F6D2F81E00E940922F7017C
:10472000608371838283C30101963C01660C771C10
:10473000680E791E93012E583A4F390120E04C2F14
:104740006D2F81E00E940922F301608371838283CF
:1047500080915119851598F180916819885090E0E1
:104760007C01EE0CFF1C8E0D9F1D9C012E583A4FB4
:10477000790100E020E04C2F6D2F81E00E9409229A
:10478000F701608371838283DF91CF911F910F9135
:10479000FF90EF90DF90CF90BF90AF909F908F9061
:1047A0007F906F905F904F903F902F9008952A9444
:1047B00040CF8FEF830D70CF8FEF840D9FCF8FEFA2
:1047C000850DCDCF822F90E0F501E81BF90BE45D5C
:1047D000F94F20812223C1F0F601E81BF90BE45DBB
:1047E000F94F2081222381F0F701E81BF90BE45DEA
:1047F000F94F2081222341F0F301E81BF90BE45D1E
:10480000F94F80818111DBC10E943A186091190231
:1048100070911A0290E080E00E94AAB120E030E09E
:1048200040EC5FE30E940BB20E9490B49B01AC018C
:1048300080915119B501681B7109D9E1D69FC0015A
:10484000D79F900D112401E010E06C2F8A5B9E4EE3
:104850000E94AC676091190270911A0290E080E0AA
:104860000E94AAB120E030E040EC5FE30E940BB26E
:104870000E9490B49B01AC0180915119B601681B54
:104880007109D69FC001D79F900D11246C2F8A5BB0
:104890009E4E0E94AC676091190270911A0290E0DE
:1048A00080E00E94AAB120E030E040EC5FE30E948B
:1048B0000BB20E9490B49B01AC0180915119B701D9
:1048C000681B7109D69FC001D79F900D11246C2FD2
:1048D0008A5B9E4E0E94AC676091190270911A0229
:1048E00090E080E00E94AAB120E030E040EC5FE37D
:1048F0000E940BB20E9490B49B01AC0180915119AF
:10490000B301681B7109D69FC001D79F900D112478
:104910006C2F8A5B9E4E0E94AC67809114028111BD
:1049200033CF992031F16091190270911A0290E011
:1049300080E00E94AAB120E030E040EC5FE30E94FA
:104940000BB20E9490B49B01AC01FFEFAF1ABF0AFB
:1049500080915119A81AB10869E16A9DC0016B9D47
:10496000900D112401E010E06C2F8A5B9E4E0E9496
:10497000AC67D0915119D21508F423C12090681961
:1049800028EF220E992009F446C060911902709117
:104990001A0290E080E00E94AAB120E030E040ECF2
:1049A0005FE30E940BB20E9490B49B01AC01822D88
:1049B0008D1B990B5C01D9E1DA9DC001DB9D900D47
:1049C000112401E010E06C2F8A5B9E4E0E94AC67C0
:1049D0006091190270911A0290E080E00E94AAB1E1
:1049E00020E030E040EC5FE30E940BB20E9490B404
:1049F0009B01AC019FEFC91AD90A80915119C81ABD
:104A0000D108DC9DC001DD9D900D11246C2F8A5BC7
:104A10009E4E0E94AC67D0915119D31508F4D3C0B3
:104A200030906819E8EF3E0E992009F446C0609175
:104A3000190270911A0290E080E00E94AAB120E071
:104A400030E040EC5FE30E940BB20E9490B49B0107
:104A5000AC01832D8D1B990BBC01D9E1D69FC00100
:104A6000D79F900D112401E010E06C2F8A5B9E4EC1
:104A70000E94AC676091190270911A0290E080E088
:104A80000E94AAB120E030E040EC5FE30E940BB24C
:104A90000E9490B49B01AC019FEFE91AF90A809142
:104AA0005119E81AF108DE9DC001DF9D900D112417
:104AB0006C2F8A5B9E4E0E94AC67D0915119D41521
:104AC00008F483C040906819E8EF4E0E992009F46D
:104AD00046C06091190270911A0290E080E00E9435
:104AE000AAB120E030E040EC5FE30E940BB20E94EC
:104AF00090B49B01AC01842D8D1B990BBC01D9E1B5
:104B0000D69FC001D79F900D112401E010E06C2FBB
:104B10008A5B9E4E0E94AC676091190270911A02E6
:104B200090E080E00E94AAB120E030E040EC5FE33A
:104B30000E940BB20E9490B49B01AC019FEF691AD6
:104B4000790A80915119681A7108D69DC001D79DC4
:104B5000900D11246C2F8A5B9E4E0E94AC67D09101
:104B60005119D515A0F150906819E8EF5E0E992003
:104B700009F40ACE6091190270911A0290E080E067
:104B80000E94AAB120E030E040EC5FE30E940BB24B
:104B90000E9490B4252D2D1B330BA90129E1249FE0
:104BA000F001259FF00D112401E010E09B01AC0104
:104BB0006C2FCF018A5B9E4E0E94AC67E5CD912C95
:104BC000ACCE2A94DFCE3A942FCF4A947FCF5A941A
:104BD000CECF4F925F926F927F92AF92BF92CF9261
:104BE000DF92EF92FF920F931F93CF93DF93C82F23
:104BF000809116020E949909F82E0E946A18AC2E24
:104C0000B12C80911302811158C06501CC0CDD1CC0
:104C1000CA0CDB1CC6018E589A4F6C0100E020E0E4
:104C20004FEF60E081E00E940922F601608371830A
:104C300082838091140281112FC0FFEFAF1ABF0A47
:104C40007501EE0CFF1CEA0CFB1CC7018E589A4F35
:104C50007C0120E04FEF60E081E00E940922F70133
:104C6000608371838283809151198C1720F1C091E8
:104C70006819C850D0E0CE01880F991FC80FD91FFE
:104C8000CE58DA4F00E020E04FEF60E081E00E9474
:104C90000922688379838A83DF91CF911F910F91D5
:104CA000FF90EF90DF90CF90BF90AF907F906F908C
:104CB0005F904F900895C150DDCF809151199501BB
:104CC000281B3109F901E45DF94F80818F113DC046
:104CD000D9E1D29FC001D39F900D11246F2D825D29
:104CE0009A4E0E94DF676091190270911A0290E05B
:104CF00080E00E94AAB120E030E040EC5FE30E9437
:104D00000BB22B013C016091280270E090E080E042
:104D10000E94ACB19B01AC01C301B2010E941EB460
:104D20000E9490B49B01AC0180915119B501681BA0
:104D30007109D69FC001D79F900D112401E010E0AA
:104D400060E0825D9A4E0E94AC67809114028111EE
:104D5000A3CF6501FFEFCF1ADF0A809151199601A9
:104D6000281B3109F901E45DF94F80818F113CC0A6
:104D7000D9E1D29FC001D39F900D11246F2D825D88
:104D80009A4E0E94DF676091190270911A0290E0BA
:104D900080E00E94AAB120E030E040EC5FE30E9496
:104DA0000BB22B013C016091280270E090E080E0A2
:104DB0000E94ACB19B01AC01C301B2010E941EB4C0
:104DC0000E9490B49B01AC0180915119C81AD1087E
:104DD000DC9DC001DD9D900D112401E010E060E03C
:104DE000825D9A4E0E94AC678091511990E0C1504B
:104DF0008A159B051CF0C0916819C850D0E09E012F
:104E0000281B390BF901E45DF94F80818F1144CFE4
:104E100019E1129FC001139F900D11246F2D825D27
:104E20009A4E0E94DF676091190270911A0290E019
:104E300080E00E94AAB120E030E040EC5FE30E94F5
:104E40000BB26B017C016091280270E090E080E081
:104E50000E94ACB19B01AC01C701B6010E941EB417
:104E60000E9490B49B01AC0180915119C81BD109DB
:104E70001C9FC0011D9F900D112401E010E060E017
:104E8000825D9A4E0E94AC6707CF8F929F92AF923D
:104E9000BF92DF92EF92FF920F931F93CF93DF9316
:104EA000EC0185E0809334020E946A188CE399E15A
:104EB0000E94D612882309F4D5C06091280270E0C0
:104EC000CE010E944EB3EB0180913302882309F496
:104ED000E9C086E199E10E944065882309F4CEC0CB
:104EE00010923302AE0170E060E08CE399E10E9421
:104EF0000613D0932F02C0932E0283E280935B03AC
:104F00008091640681110CC080916906811108C0EE
:104F100080916806811104C080915B030E94B315E3
:104F20000E94571581119EC0809102028111EAC032
:104F300080910602882321F0809150190E94E92572
:104F4000809184038F5F843008F0DFC080938403F6
:104F5000809184030E946909C0915119C80FC093C0
:104F6000501980910602882309F47CC080911602B2
:104F70000E949909182F8091120245E0D42E8823AF
:104F800031F06091700581E00E941608D82E809162
:104F900045028C3011F430E2D32EAC2EB12C7501C9
:104FA000EE0CFF1CEA0CFB1CC7018E589A4F7C01CB
:104FB00000E020E0412F6D2D81E00E940922F701E1
:104FC00060837183828380915119F501E81BF10997
:104FD000E45DF94F108380911402811143C0750183
:104FE000FFEFEF1AFF0A4701880C991C8E0C9F1CDB
:104FF000C4018E589A4F4C0120E0412F6D2D81E065
:105000000E940922F4016083718382838091511987
:1050100090E0F701E81BF90BE45DF94F1083C150F4
:105020008A159B051CF0C0916819C850D0E07E011C
:10503000EE0CFF1CEC0EFD1EC7018E589A4F7C0132
:1050400000E020E0412F6D2D81E00E940922F70150
:1050500060837183828380915119C81BD109C45D1B
:10506000D94F1883DF91CF911F910F91FF90EF904F
:10507000DF90BF90AF909F908F90089586E199E167
:105080000E94AA65AC0170E060E08CE399E10E94A7
:10509000061386E199E10E94AA6590932F028093FE
:1050A0002E022BCF80916A06882321F186E199E1B7
:1050B0000E944065882319F010926A0621CF86E18C
:1050C00099E10E94AA65AC0170E060E08CE399E18F
:1050D0000E94061386E199E10E94AA6590932F022F
:1050E00080932E0280915B0381508F3008F006CFB1
:1050F0008FE004CFAB0170E060E08CE399E10E94A7
:105100000613FECE109202021BCF1092840320CF12
:10511000DF92EF92FF920F931F93CF93DF938091D3
:10512000120215E0882331F06091700581E00E9441
:105130001608182F809145028C3009F410E28091F6
:10514000A7079091A80702970297B0F1D0E0C0E0BE
:105150008C2F0E946815882319F1FE01E45DF94F38
:10516000D0808C2F0E94681590915119292F280FFB
:105170003327331FC90101977C01EE0CFF1C8E0DF4
:105180009F1DFC01EE58FA4F7F0100E020E04D2DFD
:10519000612F81E00E940922F7016083718382837D
:1051A0002196C832D105A1F6DF91CF911F910F91C1
:1051B000FF90EF90DF900895F12C80914502F81652
:1051C00098F78F2D90E0C0915119C80FD92FD11D9C
:1051D0009E01220F331FC20FD31FCE58DA4F845DBA
:1051E000994F00E020E0FC014081612F81E00E94A6
:1051F0000922688379838A83F394DFCFEF92FF9249
:105200000F931F93CF93DF93C82F80910C020E94BE
:105210009909182F80910D05D4E1882331F0609110
:10522000700580E00E941608D82F80916006082E35
:10523000000C990BEC2FF0E08E179F078CF120915A
:10524000460228171906F9F0F4F080910E0588231C
:10525000F9F02D30D1F4E85EF64FE491F0E07F01F3
:10526000EE0CFF1CEE0DFF1DCF018E589A4F7C01F6
:1052700000E020E0412F6D2F80E00E940922F7011D
:10528000608371838283CF5FD0CFE75FF64FE5CF36
:105290002D3019F4E450F74FE0CFE351F74FDDCF55
:1052A000DF91CF911F910F91FF90EF900895EF92B2
:1052B000FF920F931F93CF93DF938091060281118A
:1052C0005BC180911202D5E0882331F060917005B6
:1052D00084E00E941608D82F809110020E9499093C
:1052E000C82F10915A0380916806882309F4B1C031
:1052F000112309F474C0A59A739A80910201886001
:10530000809302018091020180618093020180916B
:105310000201806280930201809102018064809387
:1053200002018091110590911205009709F424C1A2
:10533000D0E00197A1F500E020E04C2F65E084E08B
:105340000E9409226093F7037093F8038093F90396
:1053500020E04C2F65E084E00E9409226093FA036C
:105360007093FB038093FC0320E04C2F6BE084E000
:105370000E9409226093FD037093FE038093FF0354
:1053800020E04C2F6BE084E00E940922609300042F
:10539000709301048093020420E04C2FC9C08D2F2C
:1053A00090E0209143022150330B821793070CF0B9
:1053B000E3C07C01EE0CFF1CE80EF91EC70189500A
:1053C0009C4F7C0100E020E04C2F65E084E00E94CF
:1053D0000922F701608371838283DF5FE0CFA598A4
:1053E000739880910201877F80930201809102016E
:1053F0008F7E80930201809102018F7D8093020154
:10540000809102018F7B8093020180911105909120
:105410001205892B09F4B0C0812F90E0209143023E
:105420002150330B821793070CF0A6C0EC01CC0F70
:10543000DD1FC80FD91FC950DC4F00E020E04FEF3F
:1054400060E084E00E940922688379838A831F5F79
:10545000E3CF183008F090C0E12FF0E08827EC5C33
:10546000F54D8F4F0C9476B33C2A772AC32A092B2B
:10547000502B912BBF2BED2BA59873988091020197
:10548000877F80930201809102018F7E80930201C9
:10549000809102018F7D80930201809102018F7BB8
:1054A000809302018091110590911205892B09F4D6
:1054B00063C010E0812F90E0209143022150330B14
:1054C000821793070CF058C0EC01CC0FDD1FC80FFA
:1054D000D91FC950DC4F00E020E04FEF60E084E0CE
:1054E0000E940922688379838A831F5FE3CFA5988E
:1054F000739880910201877F80930201809102015D
:105500008F7E80930201809102018062809302016C
:105510008091020180648093020180911105909135
:105520001205009749F100E020E04C2F019771F43B
:105530006FE084E00E9409226093030470930404E6
:105540008093050420E04C2F6FE00DC06D2F84E0A8
:105550000E9409226093030470930404809305045D
:1055600020E04C2F6D2F84E00E94092260930604F6
:105570007093070480930804DF91CF911F910F91DE
:10558000FF90EF900895A59873988091020188602C
:1055900080930201809102018061809302018091D9
:1055A00002018062809302018091020180648093F5
:1055B000020180911105909112050097E9F200E037
:1055C00020E04C2F0197B9F46BE084E00E9409229F
:1055D0006093FD037093FE038093FF0320E04C2F44
:1055E0006BE084E00E940922609300047093010440
:1055F00080930204C1CF6D2F84E00E940922609342
:10560000FD037093FE038093FF0320E04C2F6D2F6A
:10561000E8CFA59A739A8091020188608093020175
:105620008091020180618093020180910201806279
:105630008093020180910201806480930201809135
:10564000110590911205009709F496CF00E020E033
:105650004C2F0197B9F465E084E00E940922609321
:10566000F7037093F8038093F90320E04C2F65E073
:1056700084E00E9409226093FA037093FB038093F5
:10568000FC037ACF6D2F84E00E9409226093F70318
:105690007093F8038093F90320E04C2F6D2FE8CF2F
:1056A000A59A739A8091020188608093020180918B
:1056B00002018061809302018091020180628093E7
:1056C00002018091020180648093020180911105A2
:1056D00090911205009709F44FCF10E0019709F45B
:1056E0002ACE812F90E0209143022150330B821764
:1056F00093070CF041CF7C01EE0CFF1CE80EF91E65
:10570000C70189509C4F7C0100E020E04C2F6D2F99
:1057100084E00E940922F7016083718382831F5F06
:10572000E0CFA59A739A809102018860809302016C
:1057300080910201806180930201809102018F7D3E
:1057400080930201809102018F7B809302018091FE
:10575000110590911205892B09F40ECF00E020E08D
:105760004FEF60E084E00E9409226093030470938D
:1057700004048093050420E04FEF60E0F4CEA59A86
:10578000739A80910201877F8093020180910201C8
:105790008F7E80930201809102018F7D80930201B0
:1057A000809102018F7B809302018091110590917D
:1057B0001205892B09F4E0CE00E020E04FEF60E015
:1057C00084E00E9409226093FD037093FE0380939E
:1057D000FF0320E04FEF60E004CFA598739880911D
:1057E0000201877F80930201809102018F7E809366
:1057F0000201809102018F7D80930201809102015C
:105800008F7B809302018091110590911205892B65
:1058100009F4B2CE00E020E04FEF60E084E00E94A7
:1058200009226093F7037093F8038093F90320E053
:105830004FEF60E01DCFEF92FF920F93CF93DF9376
:1058400010926706D0E0C0E07E01EE0CFF1CEC0E6B
:10585000FD1EC7018E589A4F7C0100E020E04FEFFB
:1058600060E080E00E940922F701608371838283F7
:105870002196C733D10541F7F0901F1180911E1179
:105880008F15A8F08F2D90E0EC01CC0FDD1FC80F15
:10589000D91FC950DC4F00E020E04FEF60E082E00C
:1058A0000E940922688379838A83F394E7CFDF918A
:1058B000CF910F91FF90EF9008950F931F93CF9387
:1058C000DF93A598739880910201877F80930201EE
:1058D000809102018F7E80930201809102018F7D71
:1058E00080930201809102018F7B8093020180915D
:1058F0000602882311F02C982D9810925A0380915B
:10590000110590911205892BD1F18091060210E0CA
:1059100081111CC0812F90E0209143022150330B54
:105920008217930764F5EC01CC0FDD1FC80FD91F58
:10593000C950DC4F00E020E04FEF60E082E00E94C1
:105940000922688379838A831F5FE4CF80914302B1
:105950008117A8F0812F90E0EC01CC0FDD1FC80F5C
:10596000D91FC950DC4F00E020E04FEF60E082E03B
:105970000E940922688379838A831F5FE7CFDF91C2
:10598000CF911F910F910895EF920F931F93CF9393
:10599000DF9382E191E10E94D612882309F40AC1C3
:1059A000809106028111B8C02091A7073091A80705
:1059B00080916A052530310509F08FC0209170056E
:1059C000309171052115310521F02730310509F09D
:1059D00084C090916806911180C0909169069111E0
:1059E0007CC090916A06911178C0909161069111E6
:1059F00074C081110FC0EE24E39400ED17E021E0A4
:105A000040915C0F61E08EE491E00E941C1C81E0FB
:105A100080936A0580916A0581111DC08091A70756
:105A20009091A807059709F062C080916A068111DC
:105A300009C080916806811105C0809161068823A4
:105A400009F455C08091700590917105009719F087
:105A5000079709F04CC00E945D2C00910002109144
:105A600001026091270270E0C8010E944EB3EB0171
:105A70008091A7079091A8070297029708F474C035
:105A80008BED9FE00E94901220913302672B682BD0
:105A9000692B09F45FC0222309F44CC086E199E127
:105AA0000E94AA65E801C45DDE4FC81BD90B809136
:105AB0006806882331F0C0910002D0910102CC0F1A
:105AC000DD1FAE0170E060E082E191E1DF91CF91F6
:105AD0001F910F91EF900C940613882309F49ACF2D
