:100000000C944A050C947B050C947B050C947B05A1
:100010000C947B050C947B050C947B050C947B0560
:100020000C947B050C947B050C947B050C947B0550
:100030000C947B050C947B050C947B050C947B0540
:100040000C947B050C947B050C947B050C947B0530
:100050000C947B050C947B050C947B050C94828F8F
:100060000C947B050C94F2900C94C8900C947B0536
:100070000C947B050C947B050C947B050C947B0500
:100080000C947B050C947B050C947B050C947B05F0
:100090000C949E900C9474900C947B050C942F9768
:1000A0000C947B050C947B050C947B050C947B05D0
:1000B0000C947B050C947B050C947B050C947B05C0
:1000C0000C947B050C947B050C947B050C944A9056
:1000D0000C9420900C947B050C94F68F0C94CC8F90
:1000E0000C947B0505A84CCDB2D44EB93836A90284
:1000F0000C50B9918688083CA6AAAA2ABE00000026
:10010000803F07634236B79BD8A71A39685618AEA6
:10011000BAAB558C1D3CB7CC5763BD6DEDFD753E3C
:10012000F6177231BF000000803F08000000BE9249
:100130002449123EABAAAA2ABECDCCCC4C3E00002C
:100140000080BEABAAAAAA3E00000000BF000000CB
:10015000803F0000000000084178D3BB4387D113E3
:100160003D190E3CC3BD4282AD2B3E68EC8276BE8B
:10017000D98FE1A93E4C80EFFFBE01C4FF7F3F0055
:10018000000000000C9444810C947C850C94622D3A
:100190000C941D2D0C94DC820C94E37E0C9445355C
:1001A0000C94547D0C94512C0C944A340C949973F7
:1001B0000C9482320C9466240C94F89F0C94602565
:1001C0000C94A5330C94FE890C94FB260C941C8A89
:1001D0000C94A62D0C940B210C94952F0C940728AD
:1001E0000C942E7D0C94C4240C94BD890C94A31DF6
:1001F0000C948E990C940C810C94B2320C94A682BF
:100200000C942F360C94B6370C94B3830C94132DA6
:100210000C94319B0C9438300C9453810C94B4851D
:100220000C941A390C945B250C94142F0C940864CC
:100230000C94212D0C946A320C94131C0C945E7D4A
:100240000C94AA850C94B2340C94A61A0C94F73A28
:100250000C947E9B0C94C8340C94A89B0C947F2C1B
:100260000C948B270C946A290C94482E0C94DD274F
:100270000C9421240C94671F0C949D0A0C94BC3898
:100280000C9436260C945B350C94A41A0C94AE2E68
:100290000C94859B0C946A250C943F370C94BC9F5E
:1002A0000C941E7E0C94C11A0C9432810C94BF31B4
:1002B0000C94C67F0C944C800C9493280C94B08EB4
:1002C0000C940E9C0C947D050C94A2850C949022A9
:1002D0000C94252D0C94B1270C94DB2C0C94AC1AA7
:1002E0000C942F630C94D7810C946F250C94741E7E
:1002F0000C94370A0C94507D0C94F8380C94D51C4F
:100300000C94CE360C9485050C94FB9A0C948F8932
:100310000C9469810C94D1850C94A81A0C94F72B39
:100320000C94347D0C9488380C9451250C94D1890C
:100330000C94A01E0C9499260C94C7270C949E73C1
:100340000C94ED9B0C9452320C948F9A0C9454386C
:100350000C94DF070C94262E0C94EC9F0C946834BC
:100360000C941D310C94967E0C94237D0C949C81EE
:100370000C945A7D0C946A2E0C949D350C9438275D
:100380000C94EA1C0C942D9B0C94342D0C949E859B
:100390000C9409830C9403370C9479830C949785FF
:1003A0000C94D41A0C946E380C94F51F0C94AF1C5A
:1003B0000C94E89F0C949B850C94BC1D0C94419C60
:1003C0000C945C1C0C94B53A0C941F4C0C94CB858B
:1003D0000C94AA1A0C9499890C94D3850C94776484
:1003E0000C944D1B0C94AD2C0C94387D0C94169BE6
:1003F0000C94D02E0C94BE260C940D2C0C94C87D1D
:100400000C94411C0C94092D0C94C7890C94042E57
:100410000C941A240C94FB9B0C94522D0C94B3193D
:100420000C94899B0C94294C0C94997F0C947925FD
:100430000C94AC850C945A810C94498E0C94FF9BBF
:100440000C948D850C94E09F0C9449640C94B589B0
:100450000C94EF9A0C9424380C94AD3A0C94ED9AC9
:100460000C948D1C0C941A860C94B3810C94842DDE
:100470000C948C9B0C94128A0C9419350C94742552
:100480000C94EE9F0C94D6230C94313A0C94224C8D
:100490000C940F7E0C94E79B0C9494830C94599BC2
:1004A0000C94068E0C949E1C0C94FB1C0C946525DD
:1004B0000C94EB9A0C9493730C944B240C941E1E86
:1004C0000C9429230C948A890C94231B0C941534C6
:1004D0000C94B0850C9476260C946F7F0C942B7D35
:1004E0000C9486840C9488850C9468820C941284F5
:1004F0000C94819B0C94C41C0C94EA890C94BB72E0
:100500000C943A380C943F270C94597D0C94F6398E
:100510000C941B8E0C943F9B0C9450300C94213700
:100520000C9403260C94088A0C94D5850C94161C04
:100530000C9498230C94F3240C94562D0C9455266B
:100540000C94C97D0C94971B0C94F39A0C948735EA
:100550000C94F91A0C9483200C9455810C947B63B1
:100560000C945E390C949A320C94552B0C94A389FC
:100570000C94F22E0C94A81B0C948C2E0C94232C0F
:100580000C945C9B0C94C81E0C94A4A00C947B3718
:100590000C94C1850C94C9850C94F19A0C94211E7D
:1005A0000C94019B0C9483890C94069C0C94B33599
:1005B0000C94E21E0C9471350C94C7850C94427D0A
:1005C0000C94681E0C9423810C9477850C940C1E5B
:1005D0000C94AA250C94262F0C94C8810C949C345E
:1005E0000C94C77D0C94128E0C94159A0C9456257D
:1005F0000C94927F0C94DE340C9407810C9401309F
:100600000C947F7F0C9472300C94C5850C940584F7
:100610000C94B2850C947D810C94AF2F0C946B33A9
:100620000C9465270C94A5850C94CC370C94861BF0
:100630000C9431280C9484300C94481E0C947B81CB
:100640000C940E380C94A5640C94F8370C94F46256
:100650000C94B13A0C94407E0C945D370C94EA9F54
:100660000C94BA1B0C94491D0C94022B0C94B68567
:100670000C94327E0C948D730C947E250C94612F17
:100680000C94A8850C94254C0C947B9B0C9464369C
:100690000C94FD2F0C9426860C94C9350C94221DC5
:1006A0000C945B280C94BE9F0C94DF350C94D223E1
:1006B0000C9410220C9487050C94EC1A0C944C7D2D
:1006C0000C94C1630C941F7D0C94668E0C94AE85C3
:1006D0000C940C1D0C94AE1A0C94277D0C942E9C3B
:1006E0000C94DB890C9488810C9405300C94707FF9
:1006F0000C946D1C0C94521C0C9486340C94197D33
:100700000C943E7D0C94902B0C9480050C94D82D69
:100710000C94BB390C946E810C9499360C949021F6
:100720000C94F5350C94BA850C94CC1E0C94F7857A
:100730000C94AF2A0C9422250C947B2F0C94A23895
:100740000C94E51E0C9483250C948F9B0C946030C4
:100750000C9482050C94254B0C94C1250C94B885FF
:100760000C94571C0C9480390C9446860C94467D4E
:100770000C942F350C944E2D0C9448820C941D1D16
:100780000C94F31A0C94FA1D0C9467810C94D51DEB
:100790000C94301C0C943C390C94EE8D0C94381B4A
:1007A0000C9495240C9483850C94F57F0C94941EE2
:1007B0000C94AD890C94B01A0C945E1A0C941F82A0
:1007C0000C94F4890C9415230C94BE1E0C94F59A89
:1007D0000C940E1B0C94EA9B0C94D6380C9420308D
:1007E0000C94E2370C94821D0C94791C0C94B69EE8
:1007F000000102030405060708090A0B0C0D0E0090
:100800000102030405060708090A0B0C0E0D0C0B68
:100810000A090807060504030201000C0B0A09086F
:100820000706050403020100B80BB80BAC0DAC0DB4
:10083000A00F3075983A10274C1D70173D006401C9
:100840006501660167010102030405060708090A3C
:100850000B0C0D0E0F101112131415161718191A70
:100860001B1C1D1E1F2021222324252627280102B0
:1008700003040506070809000A0B0C0D0E0F1011E2
:100880001200131415161718191A1B001C1D1E1F11
:10089000202122232400010203040500000000009F
:1008A000060708090A00000000000B0C0D0E0F00DF
:1008B00000000000101112131400000000000102DB
:1008C0000300000000000000040506000000000016
:1008D0000000070809000000000000000A0B0C00DF
:1008E000000000000000001C120A041F160D021177
:1008F0000C07010A0704000A121C040D161F020748
:100900000C110104070A4552524F523A204E6F20F3
:1009100063616C6C6261636B20617661696C6162BA
:100920006C6520666F72207061636B65742049444A
:100930002000000000006410B71DC8206E3BAC30E2
:10094000D9269041DC76F4516B6B5861B24D3C7105
:1009500005502083B8ED44930FF0E8A3D6D68CB3AE
:1009600061CBB0C2649BD4D2D38678E20AA01CF2D9
:10097000BDBD00002100240027002A002D0030000A
:10098000330001010000040107010A0100002200F8
:10099000250028002B002E00310034000201000049
:1009A000050108010B01000020002300260029009A
:1009B0002C002F0032000001000003010601090194
:1009C00005050505070508080808020202020A0ACB
:1009D00008080404040401010101010101010303E9
:1009E000030303030303040707070C0C0C0C0C0C94
:1009F0000C0C0202020206060606060606060B0B91
:100A00000B0B0B0B0B0B01021020200808102040D1
:100A100010204080020102010804020101020408C2
:100A20001020408080402010080402018004020150
:100A30008040201008040201080402010102040899
:100A400010204080010204081020408000000A0BA2
:100A500002090C0D0E08070304010000000000004D
:100A60000000000000000000000000000000000086
:100A70000000000000000000121110000000000043
:100A80000000000000000000000000000000000066
:100A90000000A4A011241FBECFEFD1E2DEBFCDBF66
:100AA00000E00CBF13E0A0E0B2E0E8E7F6E601E00A
:100AB0000BBF02C007900D92A834B107D9F729E106
:100AC000A8E4B3E001C01D92A535B207E1F715E037
:100AD000CAE4D5E000E006C021970109802FFE019D
:100AE0000E9471ADC934D10780E00807A9F70E94C0
:100AF00054A40C943AB30C94000080E991E008955A
:100B0000209A089581E090E00895279A08954F92E1
:100B10005F927F928F929F92AF92BF92CF92DF921D
:100B2000EF92FF920F931F93CF93DF932C01EB0172
:100B30000E94988AF20126893789621B730B6A30FA
:100B40007105B0F3F8948A819B81181619060CF090
:100B5000CBC1E881F98105B1016075B17E7F75B9BE
:100B6000BA848F812B2D281B822F2F834C85042E36
:100B7000000C550BAA81BB81E888DF84C988E39407
:100B8000D394C3949E81388599848B84118120E00D
:100B9000F32E622F322F3181112788943111380FB3
:100BA00008F43FEF81958894E0FC130F1795889423
:100BB000E1FC130F17958894E2FC130F17958894A6
:100BC000E3FC130F17958894E4FC130F1795889492
:100BD000E5FC130F17958894E6FC130F179588947E
:100BE000E7FC130F17958894232FE110212F8B0D0D
:100BF000122F002C05B900C017FF75B930812227CC
:100C0000889400C000C0002C75B93111390F00C0A4
:100C1000002C05B900C016FF75B908F43FEF919597
:100C2000889400C000C0002C75B9D0FC230F00C010
:100C3000002C05B900C015FF75B927958894D1FC23
:100C4000230F00C000C0002C75B92795889400C000
:100C5000002C05B900C014FF75B9D2FC230F2795ED
:100C6000889400C000C0002C75B9D3FC230F00C0CD
:100C7000002C05B900C013FF75B927958894D4FCE2
:100C8000230F00C000C0002C75B92795889400C0C0
:100C9000002C05B900C012FF75B9D5FC230F2795AC
:100CA000889400C000C0002C75B9D6FC230F00C08A
:100CB000002C05B900C011FF75B927958894D7FCA1
:100CC000230F00C000C0002C75B92795889400C080
:100CD000002C05B900C010FF75B9132FD110122FC9
:100CE000990D00C000C0002C75B900C000C0002CD8
:100CF00005B900C017FF75B932812227889400C05A
:100D000000C0002C75B931113F0D00C0002C05B991
:100D100000C016FF75B908F43FEFE40FF51F00C0DF
:100D200000C0002C75B9C0FC230F00C0002C05B911
:100D300000C015FF75B927958894C1FC230F00C02A
:100D400000C0002C75B92795889400C0002C05B907
:100D500000C014FF75B9C2FC230F2795889400C00A
:100D600000C0002C75B9C3FC230F00C0002C05B9CE
:100D700000C013FF75B927958894C4FC230F00C0E9
:100D800000C0002C75B92795889400C0002C05B9C7
:100D900000C012FF75B9C5FC230F2795889400C0C9
:100DA00000C0002C75B9C6FC230F00C0002C05B98B
:100DB00000C011FF75B927958894C7FC230F00C0A8
:100DC00000C0002C75B92795889400C0002C05B987
:100DD00000C010FF75B9132FC110122FF19400C07D
:100DE00000C0002C75B9F80C00C000C005B900C0E7
:100DF00017FF75B931812227889400C000C0002CEC
:100E000075B93111380F00C0002C05B900C016FFAC
:100E100075B908F43FEF8195889400C000C0002C9C
:100E200075B9E0FC230F00C0002C05B900C015FF08
:100E300075B927958894E1FC230F00C000C0002CF1
:100E400075B92795889400C0002C05B900C014FF1F
:100E500075B9E2FC230F2795889400C000C0002CD0
:100E600075B9E3FC230F00C0002C05B900C013FFC7
:100E700075B927958894E4FC230F00C000C0002CAE
:100E800075B92795889400C0002C05B900C012FFE1
:100E900075B9E5FC230F2795889400C000C0002C8D
:100EA00075B9E6FC230F00C0002C05B900C011FF86
:100EB00075B927958894E7FC230F00C000C0002C6B
:100EC00075B92795889400C0002C05B900C010FFA3
:100ED00075B9132FE110122F8B0D00C000C0002C2C
:100EE00075B9119709F086CEEA81FB812EE130E0D9
:100EF000DF010E9479AD30E020E0A901AAE9EA9F74
:100F00000E0E411DFA9F400D511D11244F0F511D12
:100F1000DC01CB01840F951FA11DB11D893E43E06B
:100F20009407A105B10508F434C0885E9340A10977
:100F3000B10942E0B695A795979587954A95D1F75F
:100F400047E0849F080E211D949F200D311D112420
:100F5000290F311D6091320470E0860F971F820FB8
:100F6000931F409181065091820660918306709193
:100F70008406292F3327420F531F611D711D409393
:100F80008106509382066093830670938406809353
:100F9000320478940E94988AF201778B668BDF91F5
:100FA000CF911F910F91FF90EF90DF90CF90BF9066
:100FB000AF909F908F907F905F904F9008954F9249
:100FC0005F927F928F929F92AF92BF92CF92DF9269
:100FD000EF92FF920F931F93CF93DF932C01EB01BE
:100FE0000E94988AF20126893789621B730B6A3046
:100FF0007105B0F3F8948A819B81181619060CF0DC
:10100000CBC1E881F98105B1006875B17F7775B909
:10101000BA848F812B2D281B822F2F834C85042E81
:10102000000C550BAA81BB81E888DF84C988E39452
:10103000D394C3949E81388599848B84118120E058
:10104000F32E622F322F3181112788943111380FFE
:1010500008F43FEF81958894E0FC130F179588946E
:10106000E1FC130F17958894E2FC130F17958894F1
:10107000E3FC130F17958894E4FC130F17958894DD
:10108000E5FC130F17958894E6FC130F17958894C9
:10109000E7FC130F17958894232FE110212F8B0D58
:1010A000122F002C05B900C017FF75B93081222717
:1010B000889400C000C0002C75B93111390F00C0F0
:1010C000002C05B900C016FF75B908F43FEF9195E3
:1010D000889400C000C0002C75B9D0FC230F00C05C
:1010E000002C05B900C015FF75B927958894D1FC6F
:1010F000230F00C000C0002C75B92795889400C04C
:10110000002C05B900C014FF75B9D2FC230F279538
:10111000889400C000C0002C75B9D3FC230F00C018
:10112000002C05B900C013FF75B927958894D4FC2D
:10113000230F00C000C0002C75B92795889400C00B
:10114000002C05B900C012FF75B9D5FC230F2795F7
:10115000889400C000C0002C75B9D6FC230F00C0D5
:10116000002C05B900C011FF75B927958894D7FCEC
:10117000230F00C000C0002C75B92795889400C0CB
:10118000002C05B900C010FF75B9132FD110122F14
:10119000990D00C000C0002C75B900C000C0002C23
:1011A00005B900C017FF75B932812227889400C0A5
:1011B00000C0002C75B931113F0D00C0002C05B9DD
:1011C00000C016FF75B908F43FEFE40FF51F00C02B
:1011D00000C0002C75B9C0FC230F00C0002C05B95D
:1011E00000C015FF75B927958894C1FC230F00C076
:1011F00000C0002C75B92795889400C0002C05B953
:1012000000C014FF75B9C2FC230F2795889400C055
:1012100000C0002C75B9C3FC230F00C0002C05B919
:1012200000C013FF75B927958894C4FC230F00C034
:1012300000C0002C75B92795889400C0002C05B912
:1012400000C012FF75B9C5FC230F2795889400C014
:1012500000C0002C75B9C6FC230F00C0002C05B9D6
:1012600000C011FF75B927958894C7FC230F00C0F3
:1012700000C0002C75B92795889400C0002C05B9D2
:1012800000C010FF75B9132FC110122FF19400C0C8
:1012900000C0002C75B9F80C00C000C005B900C032
:1012A00017FF75B931812227889400C000C0002C37
:1012B00075B93111380F00C0002C05B900C016FFF8
:1012C00075B908F43FEF8195889400C000C0002CE8
:1012D00075B9E0FC230F00C0002C05B900C015FF54
:1012E00075B927958894E1FC230F00C000C0002C3D
:1012F00075B92795889400C0002C05B900C014FF6B
:1013000075B9E2FC230F2795889400C000C0002C1B
:1013100075B9E3FC230F00C0002C05B900C013FF12
:1013200075B927958894E4FC230F00C000C0002CF9
:1013300075B92795889400C0002C05B900C012FF2C
:1013400075B9E5FC230F2795889400C000C0002CD8
:1013500075B9E6FC230F00C0002C05B900C011FFD1
:1013600075B927958894E7FC230F00C000C0002CB6
:1013700075B92795889400C0002C05B900C010FFEE
:1013800075B9132FE110122F8B0D00C000C0002C77
:1013900075B9119709F086CEEA81FB812EE130E024
:1013A000DF010E9479AD30E020E0A901AAE9EA9FBF
:1013B0000E0E411DFA9F400D511D11244F0F511D5E
:1013C000DC01CB01840F951FA11DB11D893E43E0B7
:1013D0009407A105B10508F434C0885E9340A109C3
:1013E000B10942E0B695A795979587954A95D1F7AB
:1013F00047E0849F080E211D949F200D311D11246C
:10140000290F311D6091320470E0860F971F820F03
:10141000931F4091810650918206609183067091DE
:101420008406292F3327420F531F611D711D4093DE
:10143000810650938206609383067093840680939E
:10144000320478940E94988AF201778B668BDF9140
:10145000CF911F910F91FF90EF90DF90CF90BF90B1
:10146000AF909F908F907F905F904F9008956F9274
:101470007F928F92CF92DF92EF92FF920F931F9302
:10148000CF93DF93CDB7DEB762970FB6F894DEBF88
:101490000FBECDBF8C016B017A01822FA801475F7F
:1014A0005F4FB8016A5F7F4F0E942F7C3B01882EFF
:1014B000D8011C962C91C701F7FE04C088279927F4
:1014C0008E199F09DA82C9829C838B839E838D83C8
:1014D000688A798A8A8A213049F5CE0101960E946C
:1014E000FE9F83E08D871F861E86F7FE02C08DEF6C
:1014F0008D87D801ED91FC910088F189E02DBE0126
:101500006F5F7F4FC801199562960FB6F894DEBFE2
:101510000FBECDBFDF91CF911F910F91FF90EF9044
:10152000DF90CF908F907F906F9008951C861B86E0
:101530001A86198618861F82D4CFCF92DF92EF9237
:10154000FF920F931F93CF93DF93CDB7DEB76297D0
:101550000FB6F894DEBF0FBECDBF8C016B017A01D0
:10156000822FA801475F5F4FB8016A5F7F4F0E94DB
:101570002F7C9B01482FD8011C968C91DA82C9825E
:10158000FC82EB82FE82ED82288B398B4A8B813084
:1015900009F5CE0101960E94FE9F1D861F861E86BC
:1015A000D801ED91FC910088F189E02DBE016F5FBB
:1015B0007F4FC801199562960FB6F894DEBF0FBE33
:1015C000CDBFDF91CF911F910F91FF90EF90DF90F2
:1015D000CF9008951C861B861A86198618861F824E
:1015E000DCCFCF92DF92EF920F931F93CF93DF93D5
:1015F00068EE73E00E9449ADEB016B0184EBC80E0D
:10160000D11CCB018D549F4F0E940856C6010E94E9
:101610000856CE018B549F4F0E940856EE24E39447
:1016200010E000E020E040916D0760E0C6010E94FC
:101630006E56DF91CF911F910F91EF90DF90CF9079
:1016400008958330B9F198F4823009F442C0809152
:10165000140290911502885E9340803D27E0920726
:1016600008F446C0909315028093140212C084308F
:1016700091F0853061F780911C0290911D02885E87
:101680009340803D27E0920798F190931D0280934C
:101690001C020C94F10A80911A0290911B02885E40
:1016A0009340803D27E0920718F190931B028093AE
:1016B0001A02EFCF8091180290911902885E934030
:1016C000803D27E09207A0F09093190280931802C2
:1016D000E0CF8091160290911702885E9340803D82
:1016E00027E0920728F09093170280931602D1CF3B
:1016F00008958330B9F198F4823009F442C08091A2
:1017000014029091150288519C4F81362AEE92075F
:1017100008F046C0909315028093140212C08430E2
:1017200091F0853061F780911C0290911D028851E3
:101730009C4F81362AEE920798F590931D02809374
:101740001C020C94F10A80911A0290911B0288519C
:101750009C4F81362AEE920718F590931B028093D6
:101760001A02EFCF809118029091190288519C4F74
:1017700081362AEE9207A0F4909319028093180202
:10178000E0CF809116029091170288519C4F8136CC
:101790002AEE920728F49093170280931602D1CF75
:1017A0000895CF93DF931F921F92CDB7DEB7E0E984
:1017B000F3E021E0208381836283738394E0948348
:1017C000EAEFF7E02083818362837383948385E06B
:1017D00090E09A83898341E0BE016F5F7F4FCF0124
:1017E0000E945E960F900F90DF91CF91089570E068
:1017F00060E00C94D10BEF920F931F9384E490E080
:101800000E940856EE24E39410E000E020E04091AE
:101810006D0760E084E490E00E946E568091F904C8
:101820009091FA0483309105C9F18530910509F44E
:101830007DC0029709F056C083E090E09093FA04CF
:101840008093F90483E091E00E9408568EE590E0D1
:101850000E9408568EE490E00E9408568DE490E0C5
:101860000E94085620E040916D0760E08EE490E011
:101870000E946E568CE10E94F70B809181038111CA
:1018800079C080919604811175C080917F03811188
:1018900071C01F910F91EF900C94376C84E090E031
:1018A0009093FA048093F90483E091E00E94085633
:1018B0008EE590E00E9408568EE490E00E94085663
:1018C0008DE490E00E940856EE24E39410E000E0DE
:1018D00020E040916D0760E08EE590E00E946E563A
:1018E0008BE1C9CF85E090E09093FA048093F904EE
:1018F00083E091E00E9408568EE590E00E94085631
:101900008EE490E00E9408568DE490E00E94085614
:10191000EE24E39410E000E020E040916D0760E0E9
:1019200083E091E00E946E568AE1A5CF82E090E0CC
:101930009093FA048093F90483E091E00E940856A2
:101940008EE590E00E9408568EE490E00E940856D2
:101950008DE490E00E940856EE24E39410E000E04D
:1019600020E040916D0760E08DE490E00E946E56AB
:101970008DE181CF1F910F91EF9008952F923F92AB
:101980004F925F926F927F928F929F92AF92BF928F
:10199000CF92DF92EF92FF920F931F93CF93DF933B
:1019A000CDB7DEB72C970FB6F894DEBF0FBECDBF14
:1019B00080E00E94914E80909415880D898381E08B
:1019C0000E94914EA09094158A0D8B8382E00E9414
:1019D000914EC09094158C0D8D8383E00E94914EA2
:1019E000E09094158E0D89878091AB1583508A877E
:1019F000809184039091440211E09C3009F015E03D
:101A000090914502891708F069C188EC97E00E941F
:101A10001F99882309F462C180914502E0918403F3
:101A2000F0E09091F104992309F423C18D3009F07D
:101A30001DC1E55EF74FE491F0E09F01220F331FD7
:101A40002E0F3F1F29533A4F38872F8300E020E0A5
:101A50004FEF64E180E00E942D5CEF81F8856083A8
:101A600071838283F9812F2F30E04B81842E912C5A
:101A70005D81A52EB12C8985C82ED12C9A85E92EA1
:101A8000F12C8091840365E00E943DADF901EE0FD9
:101A9000FF1FFC87EB873401660C771C2501440C83
:101AA000551C1601220C331CA701440F551F5887E3
:101AB0004F8391114CC2E20FF31FE953FA4FFC8799
:101AC000EB8720E04FEF612F81E00E942D5CEB85DA
:101AD000FC856083718382839301280D391D29530E
:101AE0003A4F3C872B8720E04FEF612F81E00E9427
:101AF0002D5CEB85FC8560837183828392012A0DC6
:101B00003B1D29533A4F3C872B8720E04FEF612F35
:101B100081E00E942D5CEB85FC856083718382836C
:101B200091012C0D3D1D29533A4F3C872B8720E016
:101B30004FEF612F81E00E942D5CEB85FC85608377
:101B4000718382832F8138852E0D3F1D29533A4F93
:101B500038872F8320E04FEF61E081E00E942D5C09
:101B6000EF81F8856083718382838091F70490917F
:101B7000F804892B09F485C020E04FEF65E084E08C
:101B80000E942D5C609307057093080580930905FA
:101B900020E04FEF65E084E00E942D5C60930A0531
:101BA00070930B0580930C0520E04FEF6BE084E011
:101BB0000E942D5C60930D0570930E0580930F05B8
:101BC00020E04FEF6BE084E00E942D5C60931005F5
:101BD000709311058093120520E04FEF6FE084E0D1
:101BE0000E942D5C60931305709314058093150576
:101BF00020E04FEF6FE084E00E942D5C60931605BB
:101C00007093170580931805F09142022F2F2150F1
:101C1000330BC901880F991F280F391F295F3A4FCD
:101C200038872F8320E04FEF6FE084E00E942D5C27
:101C3000EF81F885608371838283F09142022F2FB8
:101C400030E0C901880F991F280F391F295F3A4FCB
:101C500038872F8320E04FEF6BE084E00E942D5CFB
:101C6000EF81F88560837183828323C0E45FF74F3F
:101C7000E2CE8D3019F4E150F84FDDCEE051F84F4F
:101C8000DACEA59A739A809102018860809302014E
:101C90008091020180618093020180910201806243
:101CA00080930201809102018064809302012C9A4A
:101CB0002D9A809184038F5F8093840390914502D5
:101CC000891332C21092D0071092D1074EE150E032
:101CD00060E070E08EEB97E00E944F999091830353
:101CE00080914502981708F05EC28EEB97E00E9443
:101CF0001F99882309F457C280914502E09183031C
:101D0000F0E09091F104992309F418C28D3009F0A4
:101D100012C2E55EF74FE4918150990B8E1B910939
:101D20009C01220F331F280F391F29533A4F388740
:101D30002F8300E020E04FEF60E080E00E942D5C08
:101D4000EF81F885608371838283F9812F2F30E0E2
:101D50004B81842E912C5D81A52EB12C8985C82EB6
:101D6000D12C9A85E92EF12C8091830365E00E94A5
:101D70003DADF901EE0FFF1FFC87EB873401660CC8
:101D8000771C2501440C551C1601220C331CA7019D
:101D9000440F551F58874F8391110BC4E20FF31F57
:101DA000E953FA4FFC87EB8720E04FEF612F81E08A
:101DB0000E942D5CEB85FC85608371838283930197
:101DC000280D391D29533A4F3C872B8720E04FEFD0
:101DD000612F81E00E942D5CEB85FC85608371831F
:101DE000828392012A0D3B1D29533A4F3C872B8752
:101DF00020E04FEF612F81E00E942D5CEB85FC8598
:101E000060837183828391012C0D3D1D29533A4FCC
:101E10003C872B8720E04FEF612F81E00E942D5CF3
:101E2000EB85FC856083718382832F8138852E0D3D
:101E30003F1D29533A4F38872F8320E04FEF61E051
:101E400081E00E942D5CEF81F8856083718382833D
:101E50008091F7049091F804892B09F477C120E070
:101E60004FEF65E084E00E942D5C6093070570935E
:101E700008058093090520E04FEF65E084E00E94AB
:101E80002D5C60930A0570930B0580930C0520E090
:101E90004FEF6BE084E00E942D5C60930D05709322
:101EA0000E0580930F0520E04FEF6BE084E00E9469
:101EB0002D5C60931005709311058093120520E04E
:101EC0004FEF6FE084E00E942D5C609313057093E8
:101ED00014058093150520E04FEF6FE084E00E9429
:101EE0002D5C6093160570931705809318058091FB
:101EF00042028150990B9C01220F331F280F391F7A
:101F0000295F3A4F38872F8320E04FEF6FE084E05E
:101F10000E942D5CEF81F8856083718382838091BC
:101F2000420290E09C01220F331F280F391F295FC6
:101F30003A4F38872F8320E04FEF6BE084E00E9418
:101F40002D5CEF81F88560837183828317C14B8597
:101F50005C85420F531F49535A4F5C874B8700E003
:101F600020E04FEF60E081E00E942D5CEB85FC8576
:101F70006083718382839301280D391D29533A4F61
:101F80003C872B8720E04FEF60E081E00E942D5CD2
:101F9000EB85FC8560837183828392012A0D3B1D52
:101FA00029533A4F3C872B8720E04FEF60E081E0D8
:101FB0000E942D5CEB85FC85608371838283910197
:101FC0002C0D3D1D29533A4F3C872B8720E04FEFC6
:101FD00060E081E00E942D5CEB85FC85608371836D
:101FE00082832F8138852E0D3F1D29533A4F388724
:101FF0002F8320E04FEF60E081E00E942D5CEF81B5
:10200000F8856083718382838091F7049091F8044E
:10201000892B09F470C020E04FEF60E084E00E945B
:102020002D5C60930705709308058093090520E0F7
:102030004FEF60E084E00E942D5C60930A0570938E
:102040000B0580930C0520E04FEF60E084E00E94D8
:102050002D5C60930D0570930E0580930F0520E0B5
:102060004FEF60E084E00E942D5C60931005709358
:1020700011058093120520E04FEF60E084E00E949C
:102080002D5C60931305709314058093150520E073
:102090004FEF60E084E00E942D5C60931605709322
:1020A000170580931805809142028150990B9C017D
:1020B000220F331F280F391F295F3A4F38872F838C
:1020C00020E04FEF60E084E00E942D5CEF81F88516
:1020D0006083718382838091420290E09C01220F91
:1020E000331F280F391F295F3A4F38872F8320E08D
:1020F0004FEF60E0B2CDA598739880910201877F81
:1021000080930201809102018F7E80930201809171
:1021100002018F7D80930201809102018F7B809369
:1021200002012C982D98C5CD4EE150E060E070E0A2
:1021300088EC97E0D1CDE45FF74FEDCD8D3019F409
:10214000E150F84FE8CDE051F84FE5CDA59A739AEC
:102150008091020188608093020180910201806178
:10216000809302018091020180628093020180913C
:1021700002018064809302012C9A2D9A809183033E
:102180008F5F80938303909145028913FFC2109261
:10219000C6071092C7074EE150E060E070E084EBA4
:1021A00097E00E944F9980910202882309F4E8C1C8
:1021B00084EB97E00E941F99882309F4E1C1F9811B
:1021C0008F2E912C2401440C551C9201280D391D91
:1021D00029533A4F3A83298300E020E040910202DC
:1021E000612F81E00E942D5CE981FA816083718317
:1021F0008283FB81AF2EB12C1501220C331C91017F
:102200002A0D3B1D29533A4F3A83298320E0409100
:102210000202612F81E00E942D5CE981FA816083D6
:1022200071838283FD81CF2ED12C9601220F331F23
:102230003A8329832C0D3D1D29533A4F3C832B8330
:1022400020E040910202612F81E00E942D5CEB8131
:10225000FC81608371838283F985EF2EF12C9701D5
:10226000220F331F3C832B832E0D3F1D29533A4FE2
:102270003E832D8320E040910202612F81E00E9485
:102280002D5CED81FE81608371838283FA856F2EE0
:10229000712C9301220F331F3E832D83260D371D92
:1022A00029533A4F38872F8320E04091020261E0A2
:1022B00081E00E942D5CEF81F885608371838283C9
:1022C0008091F7049091F804892B09F481C020E0F3
:1022D0004091020265E084E00E942D5C6093070556
:1022E000709308058093090520E04091020265E0A3
:1022F00084E00E942D5C60930A0570930B05809327
:102300000C0520E0409102026BE084E00E942D5C0D
:1023100060930D0570930E0580930F0520E04091AA
:1023200002026BE084E00E942D5C609310057093C4
:1023300011058093120520E0409102026FE084E0D5
:102340000E942D5C6093130570931405809315050E
:1023500020E0409102026FE084E00E942D5C6093D7
:1023600016057093170580931805F09142022F2FE0
:102370002150330BC901880F991F280F391F295F7E
:102380003A4F38872F8320E0409102026FE084E0CB
:102390000E942D5CEF81F885608371838283F091C8
:1023A00042022F2F30E0C901880F991F280F391FD3
:1023B000295F3A4F38872F8320E0409102026BE07B
:1023C00084E00E942D5CEF81F885608371838283B5
:1023D00080912D02893108F0E0C1873108F0E0C119
:1023E00065E18C3009F067E0809102021091620D86
:1023F00090912702992309F4D5C12FEF30E0A9016C
:10240000481B5109CA0170E00E945DAD160F809112
:10241000610D8117E0F0812F90E02091F004FC0124
:10242000EE0FFF1FF887EF83213009F0BFC1E80FDF
:10243000F91FE95FFA4FF887EF834FEF65E082E01D
:102440000E94A66CEF81F8856083718382838091FE
:102450002702882309F4BAC18091620D8117E8F43C
:10246000212F2150330B8091610D82171306ACF0A0
:10247000A901440F551F420F531F495F5A4F5887F8
:102480004F8300E020E04FEF60E082E00E942D5C8F
:10249000EF81F8856083718382838091020281508D
:1024A000809302028111A5C11092BC071092BD0752
:1024B0009201280D391D29533A4F38872F8300E0A8
:1024C00020E04FEF60E081E00E942D5CEF81F88515
:1024D00060837183828391012A0D3B1D29533A4FFA
:1024E00038872F8320E04FEF60E081E00E942D5C71
:1024F000EF81F88560837183828329813A812C0D75
:102500003D1D29533A4F3A83298320E04FEF60E085
:1025100081E00E942D5CE981FA816083718382836E
:102520002B813C812E0D3F1D29533A4F3A8329833D
:1025300020E04FEF60E081E00E942D5CE981FA81AC
:102540006083718382832D813E81260D371D29533F
:102550003A4F3A83298320E04FEF60E081E00E9408
:102560002D5CE981FA816083718382830E94156505
:102570000E944E6B88E60E94F70B81E08093F30483
:102580002C960FB6F894DEBF0FBECDBFDF91CF9172
:102590001F910F91FF90EF90DF90CF90BF90AF9081
:1025A0009F908F907F906F905F904F903F902F9073
:1025B00008954B855C85420F531F49535A4F5C87E2
:1025C0004B8700E020E04FEF60E081E00E942D5C4F
:1025D000EB85FC856083718382839301280D391D0F
:1025E00029533A4F3C872B8720E04FEF60E081E092
:1025F0000E942D5CEB85FC85608371838283920150
:102600002A0D3B1D29533A4F3C872B8720E04FEF83
:1026100060E081E00E942D5CEB85FC856083718326
:10262000828391012C0D3D1D29533A4F3C872B8706
:1026300020E04FEF60E081E00E942D5CEB85FC859F
:102640006083718382832F8138852E0D3F1D29532E
:102650003A4F38872F8320E04FEF60E081E00E94FF
:102660002D5CEF81F8856083718382838091F7040C
:102670009091F804892B09F470C020E04FEF60E0DE
:1026800084E00E942D5C6093070570930805809399
:10269000090520E04FEF60E084E00E942D5C60932C
:1026A0000A0570930B0580930C0520E04FEF60E066
:1026B00084E00E942D5C60930D0570930E0580935D
:1026C0000F0520E04FEF60E084E00E942D5C6093F6
:1026D0001005709311058093120520E04FEF60E024
:1026E00084E00E942D5C6093130570931405809321
:1026F000150520E04FEF60E084E00E942D5C6093C0
:102700001605709317058093180580914202815039
:10271000990B9C01220F331F280F391F295F3A4F55
:1027200038872F8320E04FEF60E084E00E942D5C2B
:10273000EF81F8856083718382838091420290E00B
:102740009C01220F331F280F391F295F3A4F38870A
:102750002F8320E04FEF60E0F1CBA5987398809134
:102760000201877F80930201809102018F7E809316
:102770000201809102018F7D80930201809102010C
:102780008F7B809302012C982D98F8CC4EE150E07D
:1027900060E070E08EEB97E004CD8A3109F023CE43
:1027A00069E022CE0E943DAD180F31CE2F813885D1
:1027B000280F391F295F3A4F38872F8300E020E028
:1027C0004FEF65E082E00E942D5C3CCE8091610D70
:1027D000181708F062CE212F30E02F5F3F4FC9015C
:1027E000880F991F280F391F295F3A4F38872F8389
:1027F00048CE45E050E060E070E084EB97E02C9636
:102800000FB6F894DEBF0FBECDBFDF91CF911F9101
:102810000F91FF90EF90DF90CF90BF90AF909F907F
:102820008F907F906F905F904F903F902F900C947F
:102830004F99CF93DF931F921F92CDB7DEB7609170
:10284000710730916F0741E040938A0380938B03B7
:1028500094E090938F0323E0E1E7F4E0DF01522F4F
:102860001D925A95E9F7883309F467C0C8F482319C
:1028700009F463C08B3209F489C0833009F081C048
:10288000E8E7F4E0ABE1BAE081918D9384E0E339CD
:10289000F807D1F78BE190E09A83898346E06AC01C
:1028A000813509F42CC1823509F439C1803509F02C
:1028B00068C06C53770B809105058093C4048091A8
:1028C000FF048093C50480918D068093C604FB01AC
:1028D000E31BF10937FDF39534E63E9FC0013F9FAE
:1028E000900D11240E945DAD6093C7048091280271
:1028F0008093CC04809123028093CD0480912202A6
:102900008093CF048091EF048093CE048091F604ED
:102910008093CB0480911F028093C9048091FD04B1
:102920009091FE048230910509F4D7C008F047C0A9
:10293000019709F44DC084E0D1C020913602209364
:102940008C039091370290938D0331E030931B0AF2
:1029500080931C0A20931D0A90931E0A80918E0377
:1029600080931F0A84E08093200A86E090E09A8397
:10297000898342E0BE016F5F7F4F8BE19AE00E9446
:102980005E960F900F90DF91CF91089550913C0289
:1029900050938C0330913B0230938D0320913A0287
:1029A00020938E0340931B0A80931C0A50931D0AA8
:1029B00030931E0A20931F0A9093200AD6CF8330AB
:1029C000910509F48EC0059709F0B5CF85E086C062
:1029D0004093C804809144028093D00480913602D1
:1029E0008093D104809137028093D2048091310288
:1029F0008093D304809127028093CA0480911E02A1
:102A00008093D404809126028093D5048091200283
:102A10008093E004809125028093D604809129025E
:102A20008093D8048091F7049091F8048130910547
:102A300009F45AC0029709F459C081E08093D70481
:102A400080912D028093D904809134028093DA041E
:102A5000809135028093DB04809130028093DC0406
:102A60008091F004813009F443C01092DD0480911C
:102A7000F2048093DE0480912A028130E1F18230F9
:102A8000E1F181E08093DF04809145028093E104CD
:102A90008091F1048093E204809138028093E304F2
:102AA000809139028093E404809132028093E5049E
:102AB000809121028093E604E4ECF4E0ABE1BAE01B
:102AC00087EE94E021912D938E179F07D9F783E22B
:102AD00090E09A83898343E04DCF82E08093C804DD
:102AE00079CF2093C80476CF82E0A8CF83E0A6CF29
:102AF0008093DD04BCCF82E0C5CF83E0C3CFEFEA93
:102B0000F4E0ABE1BAE081918D9354E0E33CF5074A
:102B1000D1F784E190E09A83898344E02BCF8091C0
:102B20003D0280939B0480913E0280939C0480919F
:102B30003F0280939D048091400280939E04809187
:102B4000410280939F0480911C0290911D0228EE07
:102B500033E0B9010E9449AD6093A00480911A024C
:102B600090911B02B9010E9449AD6093A10480912C
:102B7000180290911902B9010E9449AD6093A20414
:102B80008091160290911702B9010E9449AD60939D
:102B9000A3048091140290911502B9010E9449ADDD
:102BA0006093A4048091240280939A048091C304CA
:102BB000811119C04093A5041092A6041092A70495
:102BC0001092A8041092A9048EE18093AA0483E2D3
:102BD0008093AB0488E28093AC0482E38093AD04DD
:102BE0008CE38093AE04EAE9F4E0ABE1BAE08191D2
:102BF0008D9384E0EF3AF807D1F785E190E09A836E
:102C0000898345E0B7CECF93DF931F921F92CDB754
:102C1000DEB7E5E8F3E021E02083818362837383FC
:102C200094E09483EBE1FAE02083818362837383F1
:102C3000948385E090E09A83898341E0BE016F5FD1
:102C40007F4FCF010E945E960F900F90DF91CF9142
:102C5000089570E060E00C940316EF920F931F93B9
:102C600080917704882309F475C0809103059091C1
:102C700004058230910509F435C18330910509F4CA
:102C800044C0019709F438C180918D0690918E0659
:102C90008330910509F4D3C08530910509F41DC135
:102CA000029709F0EEC080911202853009F49BC0B2
:102CB00080EF97E00E94D9986838734181059105AB
:102CC00050F4E12C10E000E020E040916D0760E05E
:102CD00087E490E018C080EF97E00E94D998E12C3B
:102CE00010E000E020E0603177428105910530F48A
:102CF00040916D0760E08AE090E005C040916D076B
:102D000060E080E891E00E946E5680918D0690917F
:102D10008E0604970297F0F4809112028530D0F469
:102D20008CED97E00E94D99820910305309104051D
:102D3000683E73408105910508F0E8C060916D0719
:102D40002230310509F468524EE150E080E190E014
:102D50000E94B0870E946A591092EE071092EF0706
:102D600088E00E94291610929115109292151092E7
:102D700077041092490310924B031092620C109248
:102D8000630C10926C0C10926D0C80E00E94246811
:102D900080E00E94904F81E080937C0380E00E945D
:102DA0000D4F80E00E94C14E1092F8071092F90773
:102DB00010928F0C1092900C1092850C1092860C31
:102DC0001092C6071092C70780918D0690918E06CB
:102DD0000297029708F4ADC08AE691E01F910F9127
:102DE000EF900C94085680EF97E00E94D9986838CD
:102DF00073418105910550F4E12C10E000E020E0E2
:102E000040916D0760E088E891E07DCF80EF97E02A
:102E10000E94D998E12C10E000E020E06031774278
:102E20008105910530F440916D0760E08BE891E0F9
:102E30006ACF40916D0760E08AE891E064CF80EF4F
:102E400097E00E94D998683873418105910550F444
:102E5000E12C10E000E020E040916D0760E08BE0A5
:102E600090E051CF80EF97E00E94D998E12C10E0DC
:102E700000E020E0603177428105910508F038CF0D
:102E800024CF80EF97E00E94D9986838734181057C
:102E9000910550F4E12C10E000E020E040916D0736
:102EA00060E083E891E02FCF80EF97E00E94D9980F
:102EB000E12C10E000E020E06031774281059105CF
:102EC00030F440916D0760E082E891E01CCF4091C2
:102ED0006D0760E081E891E016CFE12C10E000E0A2
:102EE00020E0EFCFE12C10E000E020E040916D0702
:102EF00060E085E390E007CFE12C10E000E020E007
:102F000040916D0760E08BE390E0FDCE8CED97E0A3
:102F10002230310541F40E94D99820916D07285242
:102F2000AB01622F13CF0E94D998AB0160916D075E
:102F30000DCF8CE390E052CFEF920F931F93CF937E
:102F4000DF93EC0180910305909104058130910598
:102F500009F4A7C0029709F4A1C080918D06909151
:102F60008E068330910509F478C08530910509F407
:102F700092C0029709F07CC080911202853009F45A
:102F800061C08AE090E00E94085687E490E00E94C9
:102F9000085680E891E00E94085689E490E00E947B
:102FA00008568AE490E00E94085681E080937A03F4
:102FB0000E94155680918D0690918E060597E1F539
:102FC00080917603882321F08EE491E00E940856D8
:102FD00081E090E00E94085685E991E00E94085641
:102FE000EE24E39410E000E020E040916D0760E003
:102FF0008FE891E00E946E5604EC19E021E04091C8
:103000006D0761E087E390E00E946E568091FB04BB
:103010009091FC04059711F40E94B04FAE0170E04E
:1030200060E086E49CE00E944F9981E080938003F9
:1030300080937E0380937D03DF91CF911F910F9149
:10304000EF90089588E891E00E9408568BE891E09F
:103050000E9408568AE891E09ECF8BE090E00E94A3
:10306000085687E490E00E9408568AE090E093CFEB
:1030700081E891E00E94085682E891E00E9408569B
:1030800083E891E00E9408568FE690E00E9408567F
:103090008EE690E088CF82E891E0F4CF85E390E07F
:1030A00082CF8BE390E07FCFE8E7FCE080914102A4
:1030B000808380914002818380913F02828380914E
:1030C0003E02838380913D0284830895809144026F
:1030D000843251F0883221F0843141F48AE001C019
:1030E00087E080930102089585E0FBCF8FE0F9CF60
:1030F0008091F7049091F804892B21F088E0809367
:103100000002089510920002089590914502809166
:103110004402890F27E0280F2093AB159093941554
:103120008093AA1580912D022091F2044091F7041A
:103130005091F804452BA9F0909100023FEF390F10
:10314000309342029093620D980F8FEF890F809316
:10315000610D9093600D8FEF820F890F80935F0D4B
:103160000895109242021092620D9FEF980F909373
:10317000610D8093600D820F8150F0CFEF920F931D
:103180001F930E94155610927A038091960488230B
:1031900009F471C040916D0780918D0690918E0663
:1031A000EE24E39410E000E020E060E0059709F0F1
:1031B0005EC082E691E00E946E5680910305909178
:1031C0000405029709F04BC040916D07485204EF87
:1031D00011E021E061E085E991E00E946E56809166
:1031E0007603882361F0EE24E39400ED17E021E0FC
:1031F00040916D0761E08EE491E00E946E5610925E
:10320000800310927D030E940C5210924E0C10927B
:103210004F0C40E050E0BA0185E995E10E944F99DA
:1032200040E050E0BA018FE795E10E944F9940E0FD
:1032300050E0BA018FE79DE00E944F998091FB0416
:103240009091FC040597B9F480913302882399F09A
:1032500061E08DE21F910F91EF900C942189EE2493
:10326000E39400ED17E021E040916D07B3CF8CE6C9
:1032700091E00E946E561F910F91EF90089581E0AA
:1032800080931002809304028093030208952F928A
:103290003F924F925F926F927F928F929F92AF92E6
:1032A000BF92CF92DF92EF92FF920F931F93CF9333
:1032B000DF9300D000D000D01F92CDB7DEB7809151
:1032C0008506909186060197039710F40E94C587A2
:1032D0008AEF97E00E94D995882319F11091080A86
:1032E0001123F9F08091580C882391F08091C30448
:1032F000882311F40C94414A4091500C5091510C88
:103300006091520C7091530C80E59CE00E944F99A3
:10331000123011F40C94D93A60F4113011F40C9479
:10332000494A8091C304882311F40C94774A0C9481
:10333000F73A143011F40C94273B153091F7809133
:10334000C304882311F40C94774AA8EFB8E0EAE9A3
:10335000F4E08D91819334E0EF3AF307D1F782E501
:103360000E941914DECF0E9425560E940D89DD248B
:10337000D394D0924C031092C3041092580C109224
:10338000590C8CE891E00E940856EE24E39410E07A
:1033900000E020E040916D0760E08CE891E00E9441
:1033A0006E566091F3046D2570E082E00E94D10BAF
:1033B0008091760481110E94AC6B80917F038823F9
:1033C00051F080919604811106C080918103811192
:1033D00002C00E94D3648091050590910605019773
:1033E00009F05AC082E0809364042091D10C30919E
:1033F000D20C232B09F04EC08093650480918D067A
:1034000090918E068330910509F44AC0853091056C
:1034100009F44AC0029709F045C081E0809367042F
:1034200080911102882309F441C082E080936604F0
:1034300080919304882309F43BC082E080936E045A
:10344000809133028823B1F182E080936B048091F4
:10345000970490919804892B79F182E08093680415
:103460008091120280936904E0910305F0910405B4
:10347000319781E0E730F10510F58827ED5BF54ED7
:103480008F4F0C9471AD5E1AA41AA61AA81AAA1A24
:10349000AC1AAE1A81E0B0CF81E080936404ACCF67
:1034A00082E0BCCF83E0BACF84E0B8CF81E0BECF6A
:1034B00081E0C4CF81E0C9CF81E0D0CF82E08093AA
:1034C0006A0480919604811102C0109209028091D1
:1034D0003B0280936C04809170078A3B11F0FF24BB
:1034E000F394F0926D0483E08093700494E09093E1
:1034F0006F04E1E7F4E0DF011D928A95E9F7E4E665
:10350000F4E0AAEFB7E081918D9324E0EF36F20763
:10351000D1F78BE090E09A83898346E0BE016F5F2C
:103520007F4F8AEF97E00E945E9680917504882312
:1035300039F00E94594F811103C087E00E94F70BB8
:1035400084E00E94F70BEDCE83E0B9CF84E0B7CFE3
:1035500085E0B5CF86E0B3CF87E0B1CF88E0AFCFCD
:1035600010924C0381E08093C30440E45FE160E08B
:1035700070E080E59CE00E944F998BE40E94291640
:10358000D0CE81E0809304048091970490919804B8
:10359000019731F080E00E94876984E30E94291638
:1035A00085E00E942916BDCE1092040480919704F4
:1035B00090919804892B49F081E090E09093F50474
:1035C0008093F40485E30E94291686E00E94291660
:1035D00087E10E942916A5CE81E0809313028BE338
:1035E0000E9429169ECE109213028CE30E94291687
:1035F00098CE84E091E00E94085685E091E00E9418
:103600000856EE24E39410E000E020E040916D07BE
:1036100060E084E091E00E946E5683CE85E091E008
:103620000E94085684E091E00E940856EE24E3943C
:1036300010E000E020E040916D0760E085E091E05F
:103640000E946E566ECE87E391E00E94085688E392
:1036500091E00E940856EE24E39410E000E020E0A0
:1036600040916D0760E088E391E00E946E5659CE6C
:1036700087E391E00E94085688E391E00E94085693
:10368000EE24E39410E000E020E040916D0760E05C
:1036900087E391E00E946E5644CE809125028823F4
:1036A000E1F088E990E00E94085687E990E00E94E6
:1036B0000856EE24E39410E000E020E040916D070E
:1036C00060E088E990E00E946E56109225028DE33A
:1036D0000E94F70B0E94661824CE88E990E00E94B1
:1036E000085687E990E00E940856EE24E39410E023
:1036F00000E020E040916D0760E087E990E00E94E3
:103700006E5681E0809325028EE3E2CF85E990E05A
:103710000E940856EE24E39410E000E020E040917F
:103720006D0760E085E990E00E946E56FACD86E96B
:1037300090E00E940856EE24E39410E000E020E0C0
:1037400040916D0760E086E990E00E946E56E9CDF9
:10375000809176048111E5CD40916D074451EE24AE
:10376000E39410E000E020E060E086E190E00E9459
:103770006E56D7CD809176048111D3CD80911202FF
:103780008330A9F198F4813021F1823009F0C9CD5C
:1037900040916D074451EE24E39410E000E020E0F6
:1037A00061E083E190E00E946E56BBCD843069F108
:1037B000853009F0B6CD40916D074451EE24E39475
:1037C00010E000E020E061E086E190E00E946E56AB
:1037D000A8CD40916D074451EE24E39410E000E041
:1037E00020E061E082E190E00E946E569ACD409127
:1037F0006D074451EE24E39410E000E020E061E026
:1038000084E190E00E946E568CCD40916D0744514A
:10381000EE24E39410E000E020E061E085E190E038
:103820000E946E567ECD0E940D897BCD66E082E1BE
:1038300090E00E94FC8466E083E190E00E94FC84BA
:1038400066E084E190E00E94FC8466E085E190E01F
:103850000E94FC8466E086E190E00E94FC8461CDD9
:1038600080E490E00E940856EE24E39410E000E02B
:1038700020E040916D0760E080E490E00E946E5689
:1038800050CD8BEF90E00E940856EE24E39410E0B8
:1038900000E020E040916D0760E08BEF90E00E9437
:1038A0006E563FCD8BEF90E00E9408563ACD8CEFDC
:1038B00090E00E94085635CD8CEF90E00E940856AB
:1038C000EE24E39410E000E020E040916D0760E01A
:1038D0008CEF90E00E946E5624CDE12C10E000E0C9
:1038E00020E040916D0760E084E490E00E946E5615
:1038F00018CDE12C10E000E020E040916D0760E081
:1039000083E490E00E946E5620E040916D0760E0F5
:103910008FE390E00E946E5604CD81E190E00E941A
:103920000856EE24E39410E000E020E040916D079B
:1039300060E081E190E00E946E56F3CC8EE591E06C
:103940000E940856EE24E39410E000E020E040914D
:103950006D0760E08EE591E00E946E56E2CC8CE44B
:1039600091E00E94085689E491E00E940856EE24F6
:10397000E39410E000E020E040916D0760E089E40E
:1039800091E00E946E56CDCC8CE491E00E940856E6
:10399000EE24E39410E000E020E040916D0760E049
:1039A0008CE491E00E946E56BCCC8CE491E00E94C5
:1039B00008568DE491E00E940856EE24E39410E04E
:1039C00000E020E040916D0760E08DE491E00E940E
:1039D0006E56A7CC8DE891E00E940856EE24E39441
:1039E00010E000E020E040916D0760E08DE891E09C
:1039F0000E946E5696CC81EB90E00E940856EE2411
:103A0000E39410E000E020E040916D0760E081EB7E
:103A100090E00E946E5685CC86E991E00E9408569F
:103A2000EE24E39410E000E020E040916D0760E0B8
:103A300086E991E00E946E5674CC80E990E00E9485
:103A400008566FCC0E942556809185069091860677
:103A5000029769F400916D07045125E030E041E0E0
:103A60006EE870E08DE890E00E944D875ACC8DE8BA
:103A700090E00E94085640916D074451EE24E39473
:103A800010E000E020E060E08DE890E00E946E56DB
:103A900048CC8091850690918606029769F4009142
:103AA0006D07045125E030E041E060E970E08FE807
:103AB00090E00E944D8711C08FE890E00E94085668
:103AC00040916D074451EE24E39410E000E020E0C3
:103AD00060E08FE890E00E946E568DE890E00E94D2
:103AE00008568EE890E00E94085681E990E00E9416
:103AF000085682E990E00E94085684E990E00E940E
:103B000008560FCC8091850690918606029759F44D
:103B100000916D07045125E030E041E060E970E07C
:103B200083E990E0C6CF83E990E00E940856409177
:103B30006D074451EE24E39410E000E020E060E0E3
:103B400083E990E0C8CF8091850690918606029720
:103B500009F4E7CB8EE890E00E94085640916D078B
:103B60004451EE24E39410E000E020E061E08EE8B0
:103B700090E00E946E56D5CB809185069091860686
:103B8000029709F4CECB80E990E00E94085640915C
:103B90006D074451EE24E39410E000E020E061E082
:103BA00080E990E00E946E56BCCB80918506909192
:103BB0008606029769F400916D07045125E030E014
:103BC00041E06EE870E082E990E00E944D87A9CB69
:103BD00082E990E00E94085640916D074451EE241E
:103BE000E39410E000E020E060E082E990E00E94D1
:103BF0006E5697CB84E990E00E94085640916D077D
:103C00004451EE24E39410E000E020E060E084E919
:103C100090E00E946E5685CB81E990E00E940856A4
:103C200040916D074451EE24E39410E000E020E061
:103C300060E081E990E00E946E5673CB0E942556A9
:103C400070CB40916D0780912802E12C10E000E0DC
:103C500020E060E08823C9F08BE991E00E946E5675
:103C60008091FB049091FC04029709F05ACB80915B
:103C70003302882309F455CB4EE551E060E070E053
:103C80008BE99CE00E944F994CCB85E791E0E6CF11
:103C9000E12C10E000E020E040916D0760E08AE553
:103CA00091E00E946E568091FB049091FC04029773
:103CB00009F037CB80913302882309F432CB4CE2F0
:103CC00051E060E070E08BE99CE00E944F9929CBC5
:103CD000E12C10E000E020E040916D0760E089E514
:103CE00091E00E946E561DCBE12C10E000E020E038
:103CF00040916D0760E08BE591E00E946E568091E7
:103D0000FB049091FC04029709F00BCB80913302E5
:103D1000882309F406CB48EC50E060E070E08BE9C2
:103D20009CE00E944F99FDCAE12C10E000E020E0E9
:103D300040916D0760E086E491E00E946E56F1CA02
:103D40009091770481E0CA94CD2869F480934B0365
:103D5000992331F090914A03911102C080934A0354
:103D60000E94DC56DECA809349039923C9F39091DF
:103D700048039111F5CF80934803F2CF80917704E7
:103D8000882309F4CECA0E942D160E943F19C9CA81
:103D9000C6010E949C17C5CA80918D0690918E061F
:103DA000059709F4BECA0E941556EE24E39404EC6C
:103DB00019E021E040916D0761E08BE691E00E94FF
:103DC0006E56AFCA0E94BE18ACCA8091850690910B
:103DD00086060197029748F48091030590910405A7
:103DE000039719F481E00E94F3AB0E94684F882387
:103DF000D9F00E94726B0E94375280918D0690918B
:103E00008E060497029780F444E650E060916D07B7
:103E10008FE090E00E94B08744E650E060916D072B
:103E200080E190E00E94B08780919704909198047F
:103E30000197F1F48091030590910405892BC1F05D
:103E400082E390E00E94085687E390E00E940856C3
:103E500087E491E00E940856EE24E39410E000E02D
:103E600020E040916D0760E086E090E00E946E5691
:103E7000109204051092030580919603882371F037
:103E8000EE24E39410E000E020E040916D0760E054
:103E900088E290E00E946E56109296038091200274
:103EA00081110E94676180912102882351F08091E5
:103EB0009604882331F081E08093780380E00E94AB
:103EC000B6610E940F628BE00E9429162ACA809177
:103ED0008506909186060197029748F48091030524
:103EE00090910405039719F481E00E94F3AB80914F
:103EF000970490919804019709F041C080910305BF
:103F0000909104050297D9F182E390E00E9408564F
:103F100087E390E00E94085687E491E00E940856EB
:103F2000EE24E39410E000E020E040916D0760E0B3
:103F300080E390E00E946E560CEB12E021E040918D
:103F40006D0761E082E390E00E946E5680918D06DD
:103F500090918E060497029790F460916D076E51D0
:103F600044E650E08FE090E00E94B08760916D07DA
:103F7000685244E650E080E190E00E94B08782E021
:103F800090E0909304058093030580919603882325
:103F900071F0EE24E39410E000E020E040916D0722
:103FA00060E088E290E00E946E5610929603809145
:103FB0002002882331F00E94726B0E9437520E94C7
:103FC000676180912102882351F0809196048823B3
:103FD00031F081E08093780380E00E94B6610E9416
:103FE0000F628DE00E9429169CC9809185069091F0
:103FF00086060197029748F4809103059091040585
:10400000039719F481E00E94F3AB0E94684F882364
:10401000D9F00E94726B0E94375280918D06909168
:104020008E060497029780F444E650E060916D0795
:104030008FE090E00E94B08744E650E060916D0709
:1040400080E190E00E94B08780919704909198045D
:10405000019741F58091030590910405019711F1B5
:1040600082E390E00E94085687E390E00E940856A1
:1040700087E491E00E940856EE24E39410E000E00B
:1040800020E040916D0760E085E490E00E946E566C
:1040900000ED17E021E040916D0761E087E390E0DB
:1040A0000E946E5681E090E0909304058093030592
:1040B00080919603882371F0EE24E39410E000E0F1
:1040C00020E040916D0760E088E290E00E946E562B
:1040D000109296038091200281110E946761809165
:1040E0002102882351F080919604882331F081E0E9
:1040F0008093780380E00E94B6610E940F628CE09A
:104100000E9429160EC90E94684F8823D9F00E9488
:10411000726B0E94375280918D0690918E060497A3
:10412000029780F444E650E060916D078FE090E0E4
:104130000E94B08744E650E060916D0780E190E016
:104140000E94B0878091970490919804019741F55F
:104150008091030590910405039711F182E390E0AB
:104160000E94085687E390E00E94085687E491E099
:104170000E940856EE24E39410E000E020E0409115
:104180006D0760E086E490E00E946E5602EE14E057
:1041900021E040916D0761E087E491E00E946E5656
:1041A00083E090E09093040580930305809196034B
:1041B000882371F0EE24E39410E000E020E04091C9
:1041C0006D0760E088E290E00E946E5610929603C0
:1041D00080918506909186060197029718F480E0F9
:1041E0000E94F3AB8091200281110E94676180914F
:1041F0002102882351F080919604882331F081E0D8
:104200008093780380E00E94B6610E940F628EE086
:104210000E94291686C8809185069091860601978E
:10422000029748F48091030590910405039719F4CF
:1042300081E00E94F3AB0E94684F8823D9F00E946E
:10424000726B0E94375280918D0690918E06049772
:10425000029780F444E650E060916D078FE090E0B3
:104260000E94B08744E650E060916D0780E190E0E5
:104270000E94B08780919704909198040197F1F47F
:1042800080910305909104050497C1F082E390E0CA
:104290000E94085687E390E00E94085687E491E068
:1042A0000E940856EE24E39410E000E020E04091E4
:1042B0006D0760E086E090E00E946E5684E090E03A
:1042C000909304058093030580919603882371F0F1
:1042D000EE24E39410E000E020E040916D0760E000
:1042E00088E290E00E946E56109296038091200220
:1042F00081110E94676180912102882351F0809191
:104300009604882331F081E08093780380E00E9456
:10431000B6610E940F628FE00E9429160C949119D9
:1043200080918506909186060197029748F48091C6
:10433000030590910405039719F481E00E94F3AB03
:104340000E94684F8823D9F00E94726B0E943752F6
:1043500080918D0690918E060497029780F444E632
:1043600050E060916D078FE090E00E94B08744E6D6
:1043700050E060916D0780E190E00E94B0878091ED
:104380009704909198040197C1F482E390E00E9411
:10439000085687E390E00E94085687E491E00E9467
:1043A0000856EE24E39410E000E020E040916D0711
:1043B00060E087E991E00E946E5685E090E090937E
:1043C00004058093030580919603882371F0EE2401
:1043D000E39410E000E020E040916D0760E088E2A7
:1043E00090E00E946E5610929603809120028111F7
:1043F0000E94676180912102882351F08091960488
:10440000882331F081E08093780380E00E94B661D8
:104410000E940F62B60180E10E9403160C9491196C
:1044200080918506909186060197029748F48091C5
:10443000030590910405039719F481E00E94F3AB02
:104440000E94684F8823D9F00E94726B0E943752F5
:1044500080918D0690918E060497029780F444E631
:1044600050E060916D078FE090E00E94B08744E6D5
:1044700050E060916D0780E190E00E94B0878091EC
:104480009704909198040197C1F482E390E00E9410
:10449000085687E390E00E94085687E491E00E9466
:1044A0000856EE24E39410E000E020E040916D0710
:1044B00060E088E991E00E946E5686E090E090937B
:1044C00004058093030580919603882371F0EE2400
:1044D000E39410E000E020E040916D0760E088E2A6
:1044E00090E00E946E5610929603809120028111F6
:1044F0000E94676180912102882351F08091960487
:10450000882331F081E08093780380E00E94B661D7
:104510000E940F62B60181E10E9403160C9491196A
:1045200080918506909186060197029748F48091C4
:10453000030590910405039719F481E00E94F3AB01
:104540000E94684F8823D9F00E94726B0E943752F4
:1045500080918D0690918E060497029780F444E630
:1045600050E060916D078FE090E00E94B08744E6D4
:1045700050E060916D0780E190E00E94B0878091EB
:104580009704909198040197F1F48091030590911C
:1045900004050797C1F082E390E00E94085687E384
:1045A00090E00E94085687E491E00E940856EE24AD
:1045B000E39410E000E020E040916D0760E086E0C9
:1045C00090E00E946E5687E090E0909304058093FF
:1045D000030580919603882371F0EE24E39410E0A4
:1045E00000E020E040916D0760E088E290E00E94EA
:1045F0006E56109296038091200281110E9467618D
:1046000080912102882351F080919604882331F013
:1046100081E08093780380E00E94B6610E940F627F
:1046200082E10E9419140C949119EE24E39410E095
:1046300000E020E040916D0760E088E290E00E9499
:104640006E5681E08093960383E10E9429160C94B4
:1046500091198091F7049091F8048130910551F1FE
:10466000029709F447C081E090E09093F8048093AA
:10467000F70481E991E00E94085682E991E00E94E6
:10468000085688E791E00E940856EE24E39410E073
:1046900000E020E040916D0760E081E991E00E9438
:1046A0006E5684E60E94F70B0E9478180E948518C7
:1046B0000C94911982E090E09093F8048093F704B1
:1046C00081E991E00E94085682E991E00E94085633
:1046D00088E791E00E940856EE24E39410E000E0A1
:1046E00020E040916D0760E082E991E00E946E5603
:1046F00085E6D8CF1092F8041092F70481E991E092
:104700000E94085682E991E00E94085688E791E0ED
:104710000E940856EE24E39410E000E020E040916F
:104720006D0760E088E791E00E946E5683E6BACF9D
:104730008091260291E08927809326028823C9F080
:1047400080EA91E00E94085681EA91E00E940856B2
:10475000EE24E39410E000E020E040916D0760E07B
:1047600081EA91E00E946E568CE30E94F70B0C9454
:10477000911980EA91E00E94085681EA91E00E9436
:104780000856EE24E39410E000E020E040916D072D
:1047900060E080EA91E00E946E568BE30E94F70B86
:1047A0000C9491190E94FA580C94911983E591E0A8
:1047B0000E94085682E390E00E94085688E591E046
:1047C0000E940856EE24E39410E000E020E04091BF
:1047D0006D0760E087E591E00E946E5680910305C9
:1047E000909104050297C9F420E040916D0760E0C4
:1047F00083E591E00E946E5681E080937B0340E068
:1048000050E0BA0181E99CE00E944F990E943F1953
:1048100084E10E9429160C94911910926C0C10924C
:104820006D0C42E350E060E070E08AE59CE00E949D
:104830004F99E2CF0E943F198BE10E9429160C94F8
:1048400091192091100290910402809103024091ED
:104850008D0650918E064250510942305105A0F00C
:10486000293018F42F5F20931002993018F49F5FBD
:1048700090930402863018F48F5F809303028CE1DA
:104880000E9429160C9491192F5F209310029F5FAC
:1048900090930402F1CF40916D0780918D06909125
:1048A0008E060497EE24E39410E000E020E061E03F
:1048B000029730F48AE691E00E946E560C949119AA
:1048C0008CE390E00E946E560C94911981E08093E5
:1048D000120280917704882319F180918F0C88232C
:1048E00051F0E2E3F8E04591549170E060E087E830
:1048F0009CE00E944F9980918D0690918E060497BE
:10490000029770F46091120270E088E99AE30E94C5
:1049100049ADAB0170E060E089E895E10E944F99F4
:104920008DE10E9429160C94911982E08093120265
:1049300080917704882319F180918F0C882351F09E
:10494000E4E3F8E04591549170E060E087E89CE092
:104950000E944F9980918D0690918E060497029740
:1049600070F46091120270E088E99AE30E9449AD08
:10497000AB0170E060E089E895E10E944F998EE11B
:104980000E9429160C94911983E080931202809161
:104990007704882319F180918F0C882351F0E6E386
:1049A000F8E04591549170E060E087E89CE00E9457
:1049B0004F9980918D0690918E060497029770F41E
:1049C0006091120270E088E99AE30E9449ADAB0160
:1049D00070E060E089E895E10E944F998FE10E94C4
:1049E00029160C94911984E0809312028091770427
:1049F000882319F180918F0C882351F0E8E3F8E0C7
:104A00004591549170E060E087E89CE00E944F99E6
:104A100080918D0690918E060497029770F46091B4
:104A2000120270E088E99AE30E9449ADAB0170E0A0
:104A300060E089E895E10E944F9980E20E94291682
:104A40000C94911985E08093120280917704882359
:104A500019F180918F0C882351F0EAE3F8E0459139
:104A6000549170E060E087E89CE00E944F9980914B
:104A70008D0690918E060497029770F46091120251
:104A800070E088E99AE30E9449ADAB0170E060E014
:104A900089E895E10E944F9981E20E9429160C94C1
:104AA000911981E00E94790B0C94911982E00E9487
:104AB000790B0C94911983E00E94790B0C94911955
:104AC00084E00E94790B0C94911985E00E94790B87
:104AD0000C94911981E00E94210B0C94911982E0B1
:104AE0000E94210B0C94911983E00E94210B0C94DD
:104AF000911984E00E94210B0C94911985E00E9489
:104B0000210B0C94911981E080934B0380917704E1
:104B1000882311F40C94911980914A0381110C940B
:104B2000911940916D0780918D0690918E06E12C30
:104B300010E000E020E061E0029749F489E891E0AC
:104B40000E946E5681E080934A030C94911982E68C
:104B500090E0F6CF80914B03882351F080918D0631
:104B600090918E06029751F489E891E00E940856D0
:104B700010924B0310924A030C94911982E690E034
:104B8000F5CF81E08093490390917704992311F444
:104B90000C9491199091480391110C949119809360
:104BA0004803809112028530D9F080918D06909152
:104BB0008E06039711F583E690E00E940856409117
:104BC0006D0780918D0690918E06E12C10E000E03B
:104BD00020E061E00297A1F489E891E00E946E561E
:104BE000E12C10E000E020E040916D0761E088E4F6
:104BF00090E00E946E560C9491198EE791E0DDCF03
:104C000082E690E0EBCF80914903882319F188E494
:104C100090E00E940856809112028530D9F0809170
:104C20008D0690918E060297D9F489E891E00E9452
:104C3000085640916D0780918D0690918E06E12C6B
:104C400010E000E020E061E0039769F483E690E083
:104C50000E946E5610924903109248030C949119C9
:104C600082E690E0E4CF8FE791E0F2CF1092020568
:104C7000109201051092EE071092EF0780918506C1
:104C800090918606039721F48AE490E00E940856EA
:104C9000E12C10E000E020E040916D0760E08AE444
:104CA00090E00E946E560C94911981E090E09093F0
:104CB0000205809301051092EE071092EF07809194
:104CC000850690918606039721F48EE690E00E9477
:104CD0000856E12C10E000E020E040916D0760E014
:104CE0008EE690E00E946E560C9491191092020587
:104CF000109201051092EE071092EF078091850641
:104D000090918606039741F489E490E00E9408564A
:104D10008AE490E00E940856E12C10E000E020E0D8
:104D200040916D0760E08AE490E00E946E560C941A
:104D3000911981E090E09093020580930105109213
:104D4000EE071092EF0780918506909186060397F3
:104D500041F48FE690E00E9408568EE690E00E94B3
:104D60000856E12C10E000E020E040916D0760E083
:104D70008EE690E00E946E560C94911982E090E0CD
:104D80009093020580930105809128028823C1F049
:104D90000E946CAC28E030E040E050E00E94DAACC9
:104DA0009B01AC01295F3F4F4F4F5F4FA8EEB3E02F
:104DB0000E94F9ACAB01BC0186EE97E00E944F99CE
:104DC0008091850690918606039741F48AE490E0ED
:104DD0000E94085689E490E00E940856E12C10E0F9
:104DE00000E020E040916D0760E089E490E00E94DF
:104DF0006E560C94911982E090E090930205809396
:104E00000105809128028823C1F00E946CAC28E043
:104E100030E040E050E00E94DAAC9B01AC01295F39
:104E20003F4F4F4F5F4FA8EEB3E00E94F9ACAB018C
:104E3000BC0186EE97E00E944F9980918506909183
:104E40008606039741F48EE690E00E9408568FE6AE
:104E500090E00E940856E12C10E000E020E0409134
:104E60006D0760E08FE690E00E946E560C949119F9
:104E700081E08093EE040E94FB0B0C94911988E270
:104E800090E00E940856EE24E39410E000E020E059
:104E900040916D0760E088E290E00E946E5688E5E0
:104EA00090E00E94085685E690E00E94085689E549
:104EB00090E00E94085620E040916D0760E089E58F
:104EC00090E00E946E560C94911988E290E00E9446
:104ED0000856EE24E39410E000E020E040916D07D6
:104EE00060E088E290E00E946E5689E590E00E94C2
:104EF000085685E690E00E94085688E590E00E94FA
:104F0000085620E040916D0760E088E590E00E943F
:104F10006E560C94911988E290E00E940856EE2497
:104F2000E39410E000E020E040916D0760E088E24B
:104F300090E00E946E5689E590E00E94085688E550
:104F400090E00E94085685E690E00E94085620E016
:104F500040916D0760E085E690E00E946E560C94EB
:104F600091198AE990E00E94085689E990E00E9430
:104F70000856EE24E39410E000E020E040916D0735
:104F800060E089E990E00E946E560C9491198AE9DC
:104F900090E00E94085689E990E00E940856EE24AD
:104FA000E39410E000E020E040916D0760E08AE9C2
:104FB00090E00E946E560C94911980E490E00E945B
:104FC0000856EE24E39410E000E020E040916D07E5
:104FD00060E080E490E00E946E568CE690E00E94D3
:104FE00008568AE690E00E9408568BE690E00E9400
:104FF00008568AE491E00E94085620E040916D072F
:1050000060E08BE690E00E946E560C94911980E46B
:1050100090E00E940856EE24E39410E000E020E0C7
:1050200040916D0760E080E490E00E946E568CE64F
:1050300090E00E9408568AE690E00E9408568BE6AF
:1050400090E00E9408568AE491E00E94085620E011
:1050500040916D0760E08AE690E00E946E560C94E5
:10506000911980E490E00E940856EE24E39410E049
:1050700000E020E040916D0760E080E490E00E9455
:105080006E568CE690E00E9408568AE690E00E94F8
:1050900008568BE690E00E9408568AE491E00E9450
:1050A000085620E040916D0760E08CE690E00E9499
:1050B0006E560C94911980E490E00E940856EE24FC
:1050C000E39410E000E020E040916D0760E080E4B0
:1050D00090E00E946E568CE690E00E9408568AE6A8
:1050E00090E00E9408568BE690E00E9408568AE401
:1050F00091E00E94085620E040916D0760E08AE44C
:1051000091E00E946E568091050D9091060D892BBD
:1051100029F489E00E94F70B0C9491198AE00E940F
:10512000F70B0C94911980E490E00E940856EE244D
:10513000E39410E000E020E040916D0760E080E43F
:1051400090E00E946E568091FB049091FC048330A5
:10515000910509F45BC08530910509F48AC0019777
:1051600071F582E090E09093FC048093FB0481E071
:105170008093330288E690E00E94085686E690E02D
:105180000E94085687E690E00E9408568CE991E05C
:105190000E94085620E040916D0760E088E690E0AC
:1051A0000E946E5683E10E94F70B4AEF50E060E0E8
:1051B00070E08BE99CE00E944F990C94911983E078
:1051C00090E09093FC048093FB0488E690E00E94BA
:1051D000085686E690E00E94085687E690E00E9416
:1051E00008568CE991E00E940856EE24E39410E002
:1051F00000E020E040916D0760E087E690E00E94CB
:105200006E5682E10E94F70B0C94911985E090E0B4
:105210009093FC048093FB048091050D9091060D02
:10522000892B21F581E08093330288E690E00E948B
:10523000085686E690E00E94085687E690E00E94B5
:1052400008568CE991E00E940856EE24E39410E0A1
:1052500000E020E040916D0760E08CE991E00E9461
:105260006E5685E10E94F70B0C949119109233024F
:10527000DCCF81E090E09093FC048093FB0480936A
:10528000330288E690E00E94085686E690E00E948D
:10529000085687E690E00E9408568CE991E00E944B
:1052A0000856EE24E39410E000E020E040916D0702
:1052B00060E086E690E00E946E5681E10E94F70B66
:1052C0004AEF50E060E070E08BE99CE00E944F996B
:1052D0000C94911980E490E00E940856EE24E39427
:1052E00010E000E020E040916D0760E080E490E095
:1052F0000E946E568091FD049091FE0482309105CB
:1053000009F4C0C0E0F5019709F482C081E090E0A3
:105310009093FE048093FD049093FC048093FB041F
:105320008093330288E690E00E94085686E690E07B
:105330000E94085687E690E00E9408568BE491E0B0
:105340000E9408568CE991E00E940856EE24E394EE
:1053500010E000E020E040916D0760E086E690E01C
:105360000E946E5681E10E94F70B4AEF50E060E028
:1053700070E08BE99CE00E944F990C949119833066
:10538000910509F4AEC0059709F684E090E090938A
:10539000FE048093FD0482E090E09093FC048093EF
:1053A000FB048091050D9091060D892B09F0D4C066
:1053B00081E08093330288E690E00E94085686E6FA
:1053C00090E00E94085687E690E00E9408568BE421
:1053D00091E00E9408568CE991E00E940856EE2464
:1053E000E39410E000E020E040916D0760E08BE482
:1053F00091E00E946E5684E10E94F70B4AEF50E064
:1054000060E070E08BE99CE00E944F990C94911948
:1054100082E090E09093FE048093FD049093FC045E
:105420008093FB0481E08093330288E690E00E9441
:10543000085686E690E00E94085687E690E00E94B3
:1054400008568BE491E00E9408568CE991E00E9496
:105450000856EE24E39410E000E020E040916D0750
:1054600060E088E690E00E946E5683E10E94F70BB0
:105470004AEF50E060E070E08BE99CE00E944F99B9
:105480000C94911983E090E09093FE048093FD04C6
:105490009093FC048093FB0488E690E00E940856F9
:1054A00086E690E00E94085687E690E00E94085643
:1054B0008BE491E00E9408568CE991E00E94085626
:1054C000EE24E39410E000E020E040916D0760E0FE
:1054D00087E690E00E946E5682E10E94F70B0C94E2
:1054E000911985E090E09093FE048093FD049093E1
:1054F000FC048093FB048091050D9091060D892B8F
:1055000041F581E08093330288E690E00E940856DE
:1055100086E690E00E94085687E690E00E940856D2
:105520008BE491E00E9408568CE991E00E940856B5
:10553000EE24E39410E000E020E040916D0760E08D
:105540008CE991E00E946E5685E10E94F70B0C9465
:10555000911910923302D8CF109233022CCF809140
:105560002402882339F1109224028CE290E00E94F8
:10557000085685E590E00E94085684E590E00E9478
:105580000856EE24E39410E000E020E040916D071F
:1055900060E08CE290E00E946E5620E040916D0742
:1055A00060E085E590E00E946E568EE10E94F70B68
:1055B0000C94911981E0809324028DE390E00E9485
:1055C000085684E590E00E94085685E590E00E9428
:1055D0000856EE24E39410E000E020E040916D07CF
:1055E00060E08DE390E00E946E5620E040916D07F0
:1055F00060E084E590E00E946E568FE10E94F70B18
:105600000C94911980912702882339F11092270276
:1056100080E490E00E940856EE24E39410E000E05D
:1056200020E040916D0760E080E490E00E946E56BB
:1056300086E590E00E94085687E590E00E940856B3
:1056400020E040916D0760E087E590E00E946E5693
:1056500080E20E94F70B0C94911981E0809327025D
:105660008FE390E00E940856EE24E39410E000E0FF
:1056700020E040916D0760E08FE390E00E946E565D
:1056800086E590E00E94085687E590E00E94085663
:1056900020E040916D0760E086E590E00E946E5644
:1056A00081E20E94F70B0C94911980911E028823CD
:1056B000D9F010921E028BE590E00E9408568AE510
:1056C00090E00E940856EE24E39410E000E020E011
:1056D00040916D0760E08BE590E00E946E5683E29A
:1056E0000E94F70B0C94911981E080931E028BE5C8
:1056F00090E00E9408568AE590E00E940856EE2449
:10570000E39410E000E020E040916D0760E08AE55E
:1057100090E00E946E5682E20E94F70B0C94911961
:1057200080E790E00E94085681E790E00E940856CA
:1057300082E790E00E94085683E790E00E940856B6
:105740009091200240916D07809121029923A9F048
:105750008823D9F11092200210922102EE24E394C2
:1057600010E000E020E060E080E790E00E946E56EC
:1057700089E10E94F70B0C949119811112C081E00C
:1057800080932102EE24E39410E000E020E060E04A
:1057900082E790E00E946E5687E10E94F70B0C941E
:1057A000911981E08093200210922102EE24E3946B
:1057B00010E000E020E060E083E790E00E946E5699
:1057C00088E10E94F70B0C94911981E080932102EB
:1057D000EE24E39410E000E020E060E081E790E058
:1057E0000E946E5686E10E94F70B0C9491198DE58C
:1057F00090E00E9408568CE590E00E940856EE2446
:10580000E39410E000E020E040916D0760E08DE55A
:1058100090E00E946E560C9491198DE590E00E94E4
:1058200008568CE590E00E940856EE24E39410E0C0
:1058300000E020E040916D0760E08CE590E00E9480
:105840006E560C9491198FE390E00E940856EE2456
:10585000E39410E000E020E040916D0760E08FE30A
:1058600090E00E946E5685EF90E00E94085686EF09
:1058700090E00E94085687EF90E00E94085688EF5B
:1058800090E00E94085689EF90E00E94085620E0C0
:1058900040916D0760E085EF90E00E946E560C9499
:1058A00091198FE390E00E940856EE24E39410E0F3
:1058B00000E020E040916D0760E08FE390E00E94FF
:1058C0006E5685EF90E00E94085686EF90E00E94A9
:1058D000085687EF90E00E94085688EF90E00E94FB
:1058E000085689EF90E00E94085620E040916D072D
:1058F00060E086EF90E00E946E560C9491198FE361
:1059000090E00E940856EE24E39410E000E020E0CE
:1059100040916D0760E08FE390E00E946E5685EF46
:1059200090E00E94085686EF90E00E94085687EFAC
:1059300090E00E94085688EF90E00E94085689EF98
:1059400090E00E94085620E040916D0760E087EFEC
:1059500090E00E946E560C9491198FE390E00E94A3
:105960000856EE24E39410E000E020E040916D073B
:1059700060E08FE390E00E946E5685EF90E00E9419
:10598000085686EF90E00E94085687EF90E00E944C
:10599000085688EF90E00E94085689EF90E00E9438
:1059A000085620E040916D0760E088EF90E00E948B
:1059B0006E560C9491198FE390E00E940856EE24E5
:1059C000E39410E000E020E040916D0760E08FE399
:1059D00090E00E946E5685EF90E00E94085686EF98
:1059E00090E00E94085687EF90E00E94085688EFEA
:1059F00090E00E94085689EF90E00E94085620E04F
:105A000040916D0760E089EF90E00E946E560C9423
:105A1000911980919504882311F40C9491190E9496
:105A2000415A0C94911980919504882311F40C9497
:105A300091190E94705A0C9491190E94A05A0C94CA
:105A400091190E94CF5A0C9491190E94FA54809196
:105A5000930462E070E0811102C061E070E082E2D4
:105A60000E9403160C949119809170078A3B71F47F
:105A700080916E078093700761E070E08AE30E9476
:105A8000031680E00E94FF5A0C94911980936E07D0
:105A90008AEB8093700762E070E0F0CF0E94385B81
:105AA0000C9491190E94655B0C9491198091950456
:105AB000882321F00E9424550C9491190E94495585
:105AC0000C9491198CE291E00E9408568DE291E0CD
:105AD0000E9408568EE291E00E9408568FE291E003
