:100000000C9435030C9466030C9466030C946603FD
:100010000C9466030C9466030C9466030C946603BC
:100020000C9466030C9466030C9466030C946603AC
:100030000C9466030C9466030C9466030C9466039C
:100040000C9466030C9466030C9466030C9466038C
:100050000C9466030C9466030C9466030C94105184
:100060000C9466030C94F0460C94C6460C946603FC
:100070000C9466030C9466030C9466030C9466035C
:100080000C9466030C9466030C9466030C9466034C
:100090000C949C460C9472460C9466030C94734723
:1000A0000C9466030C9466030C9466030C9466032C
:1000B0000C9466030C9466030C9466030C9466031C
:1000C0000C9466030C9466030C9466030C9466030C
:1000D0000C9466030C9466030C9448460C941E46DC
:1000E0000C9466030C94E4300C946E230C949A12D6
:1000F0000C94CC0E0C94F74C0C94F51D0C945135CB
:100100000C945C4D0C942F4D0C945C370C94231183
:100110000C9493450C94F70E0C94EA4F0C94E13B2D
:100120000C94DA4F0C9405370C9479380C94E90E42
:100130000C941C320C94E8490C9400360C940B235C
:100140000C946F030C9434320C94C6220C94EE6120
:100150000C9448370C94F2320C944B3F0C94C5101D
:100160000C94D55E0C94A0380C941E500C94BA3BA1
:100170000C94FF220C94C7330C943C730C949A3269
:100180000C9418350C9452110C94AF5D0C944A41A8
:100190000C9439340C94C53F0C9415420C940A50BD
:1001A0000C94C6490C9413300C9413730C9496322F
:1001B0000C94D0490C94AD490C94BC490C94ED2F8F
:1001C0000C94664D0C948F380C94DB0E0C94D0413B
:1001D0000C9417360C94CC490C94E7490C948D730D
:1001E0000C94233F0C94CA3F0C9468730C94970EA4
:1001F0000C9476330C949D320C94271E0C94643529
:100200000C9491330C9441360C9440730C9433400D
:100210000C942C370C94ED330C948F360C94F06CBA
:100220000C949E0E0C9433370C9431320C942E3275
:100230000C94D6350C947B360C94394D0C9452505A
:100240000C94CB360C94D4490C9467360C94082348
:100250000C9493730C94B8370C942B300C9471421B
:100260000C9410420C946D410C94B9490C946B128F
:100270000C9434380C94FC220C94E44F0C94A1415F
:100280000C94014D0C94E2490C94F20F0C94C73F6E
:100290000C94C73B0C94B0350C9431210C94323043
:1002A0000C9470730C94760E0C945E3B0C94434D3E
:1002B0000C94A7490C94131E0C9438630C94CF2F04
:1002C0000C9470380C94EF0F0C943D120C94B011F8
:1002D0000C94970F0C94E3310C94A5320C94EA4CD7
:1002E0000C9405230C9445620C94D43B0C94C63FAB
:1002F0000C94FF1D0C946F340C941D1E0C941D4D1A
:100300000C94F24C0C94E9350C94AC330C948A3078
:100310000C9410400C94E60F0C94C14F0C94DA40EE
:100320000C942B350C94E0370C943A370C94A5348C
:100330000C94900E0C945A410C9425320C94543623
:100340000C94170F0C94AC310C945E230C944B411D
:100350000C94DE490C945A3F0C9426300C940030D7
:100360000C94AF360C9468030C94EC490C94D32F86
:100370000C9470370C94B1490C94633F0C94F322A5
:100380000C94543F0C94B9340C94E9360C940B73D0
:100390000C94A50E0C94DA490C9488370C94F9222D
:1003A0000C941F400C947A4D0C949D350C94134280
:1003B0000C946B030C946B320C94ED220C94C335AB
:1003C0000C94C4300C94B8300C9405350C94E90F9F
:1003D0000C94524D0C9441370C94F6220C94E52267
:1003E0000C94154D0C94573F0C943A730C942E3684
:1003F0000C94F12F0C94F7360C94A3360C946C3FAC
:100400000C94EA220C943E730C94DB360C94BB36AD
:100410000C94A0370C94C2490C9441400C94CB32FC
:100420000C9450380C94D21D0C945B330C947031A6
:100430000C948A350C94F3730C948F730C943833AA
:100440000C94DF110C9490320C9415370C942721E6
:100450000C94F2340C94EB1D0C943E350C948B737D
:100460000C9454340C9448620C9481110C944723DE
:100470000C942D230C9425370C94D05E0C94EE3004
:100480000C94254D0C9453100C940B4D0C94263168
:100490000C943C300C940E120C94CC370C94022328
:1004A0000C94FC370C94AA340C9413320C948D40A9
:1004B0000C94DF340C9491730C9413340C94D2424A
:1004C0000C94B5490C9415330C9418380C9477356A
:1004D0000C94F4100C948A100C9428100C94F022B4
:1004E0000C94EC0F0C940C320C94DA330C94CC3446
:1004F0000C94091E0C94E8220C948A340C94704DD0
:100500000C94844D0C9474410C9438730C94E30F48
:100510000C940E230C9400340C942634000021001B
:10052000240027002A002D003000330001010000C4
:10053000040107010A0100002200250028002B0009
:100540002E003100340002010000050108010B01FA
:10055000000020002300260029002C002F0032007C
:100560000001000003010601090105050505070555
:1005700008080808020202020A0A0808040404041F
:10058000010101010101010103030303030303034B
:10059000040707070C0C0C0C0C0C0C0C02020202DA
:1005A00006060606060606060B0B0B0B0B0B0B0BC3
:1005B0000102102020080810204010204080020175
:1005C000020108040201010204081020408080405A
:1005D0002010080402018004020180402010080459
:1005E00002010804020101020408102040800102F7
:1005F00004081020408000000A0B02090C0D0E08B0
:1006000007030401000000000000000000000000DB
:1006100000000000000000000000000000000000DA
:100620000000121110000000000000000000000097
:100630000000000000000000000000004552524F82
:10064000523A204E6F2063616C6C6261636B206173
:100650007661696C61626C6520666F72207061639F
:100660006B65742049442000F37311241FBECFEF43
:10067000D1E2DEBFCDBF00E00CBF13E0A0E0B2E0EE
:10068000EEE7F6EF00E00BBF02C007900D92AE3729
:10069000B107D9F72CE0AEE7B3E001C01D92A83155
:1006A000B207E1F713E0C5E3D3E000E006C021970D
:1006B0000109802FFE010E94047AC433D10780E033
:1006C0000807A9F70E9425540C943D7B0C94000068
:1006D00090E080E00895FC018585968508950F934C
:1006E0001F93CF93DF9300D0CDB7DEB7AB01198254
:1006F0001A821B82DC01ED91FC910190F081E02DCA
:1007000000E010E020E0BE016F5F7F4F19950F9071
:100710000F900F90DF91CF911F910F9108956091ED
:10072000E50B062E000C770B8FE390E00E94554AF4
:100730006091E50B062E000C770B80E490E00E94A0
:10074000554A6091E50B062E000C770B83E490E090
:100750000E94554A6091E50B062E000C770B84E44D
:1007600090E00E94554A6091E50B062E000C770B35
:10077000615071098EE890E00E94554A6091E50B46
:10078000062E000C770B6150710980E990E00E9401
:10079000554A6091E50B062E000C770B61507109EC
:1007A0008DE890E00E94554A6091E50B062E000C02
:1007B000770B615071098FE890E00E94554A609173
:1007C000E50B062E000C770B6150710983E990E070
:1007D0000E94554A6091E50B062E000C770B615084
:1007E000710981E990E00E94554A6091E50B062E5F
:1007F000000C770B6150710982E990E00E94554A24
:100800006091E50B062E000C770B6150710984E9AD
:1008100090E00E94554A6091E50B062E000C770B84
:1008200082E190E00E94554A6091E50B062E000C93
:10083000770B83E190E00E94554A6091E50B062E0C
:10084000000C770B84E190E00E94554A6091E50B23
:10085000062E000C770B85E190E00E94554A6091CE
:10086000E50B062E000C770B86E190E00E94554ABE
:100870006091E50B062E000C770B84E090E00E945F
:10088000554A6091E50B062E000C770B81E290E053
:100890000E94554A6091E50B062E000C770B8DE106
:1008A00090E00E94554A6091E50B062E000C770BF4
:1008B0008EE190E00E94554A6091E50B062E000CF7
:1008C000770B8FE190E00E94554A6091E50B062E70
:1008D000000C770B80E290E00C94554A8DE890E094
:1008E0000E9485498EE890E00E9485498FE890E05B
:1008F0000E94854980E990E00E94854981E990E065
:100900000E94854982E990E00E94854983E990E050
:100910000E94854984E990E00C94854984E090E048
:100920000E94854981E290E00E9485498DE190E036
:100930000E9485498EE190E00E9485498FE190E018
:100940000E94854980E290E00C948549CF92DF9225
:10095000EF926B01E82E81E89AE00E94F648882326
:10096000E1F1E091A00480910F02E817B0F58E2F1D
:1009700090E0FC01EE0FFF1FE80FF91FE451FC4F60
:10098000C082D182E28243E050E060E070E087EE16
:100990009BE00E94264944E150E060E070E081E87D
:1009A0009AE00E9426498091A0048F5F8093A00462
:1009B00090910F02891311C01092A0041092890A1D
:1009C00010928A0A44E650E060E070E08DE69AE01A
:1009D000EF90DF90CF900C942649EF90DF90CF906E
:1009E00008950E94FA4EE0E8F3E0119283E0EC39BA
:1009F000F807D9F70895AF92BF92CF92DF92EF92A6
:100A0000FF920F931F93CF93DF93CDB7DEB72C9751
:100A10000FB6F894DEBF0FBECDBF3091D7033111B2
:100A20003EC04B300CF04AE0F42E3AEB431714F47E
:100A30003AEBF32EC62EE92ED82EAF2C0F2C000C3D
:100A4000BB082223E9F16AEB7FEF0E94554A8D2D06
:100A50009E2D0E947C4A80EF89838AEA8A838CE0FB
:100A60008B838AE08C83DD82EE82FF82B8860987E1
:100A70001A871B8685E58C874CE050E0BE016F5FCE
:100A80007F4F80E196E00E94CA3F65E070E0C110B0
:100A900002C066E070E08D2D9E2D0E942E4A2C969D
:100AA0000FB6F894DEBF0FBECDBFDF91CF911F917F
:100AB0000F91FF90EF90DF90CF90BF90AF9008958F
:100AC000B5010E94554A8D2D9E2D0E947C4ADDCF96
:100AD0000F931F9386E090E00E94854980E390E0A9
:100AE0000E94854985E490E00E94854986E490E073
:100AF0000E9485498CE290E00E9485498DE390E058
:100B00000E9485498EE390E00E9485498091C3044C
:100B10009091C40483309105B9F180F4813091053E
:100B200009F1029741F110E000E020E04091E50B6F
:100B300060E086E090E00E94FB0405C087309105EC
:100B400061F1089781F71092EB0384E68093090224
:100B50004AE050E060E070E08BE89AE01F910F916E
:100B60000C94264910E000E020E04091E50B60E0A5
:100B700080E390E0E0CF10E000E020E04091E50B62
:100B800060E085E490E0D7CF10E000E020E0409105
:100B9000E50B60E086E490E0CECF10E000E020E0DE
:100BA0004091E50B60E08CE290E00E94FB0420E0C5
:100BB0004091E50B60E08EE390E0BDCF0F931F9373
:100BC000282F90911302953038F49330C8F4913067
:100BD00068F41F910F9108959530D9F708EE13E04E
:100BE0004091E50B61E080E290E007C008EE13E081
:100BF0004091E50B61E081E290E00E94FB04E9CFC7
:100C000008EE13E04091E50B61E08DE190E0F5CF57
:100C10008F929F92AF92BF92CF92DF92EF92FF920C
:100C20000F931F93CF93DF93CDB7DEB7C054D10995
:100C30000FB6F894DEBF0FBECDBF80E4E8E3F2E06C
:100C4000DE01119601900D928A95E1F710E000E027
:100C500088248A94982C5401C8010E942478940115
:100C60002827D501C9018F709927AA27BB27880F8C
:100C7000991F880F991F41E050E04C0F5D1F840FB2
:100C8000951FFC01C080D180E280F38034E0B694EF
:100C9000A794979487943A95D1F7C824D924EA2445
:100CA000FB24C8010E94247890E044E09595879544
:100CB0004A95E1F7092E000CAA0BBB0B8C259D254C
:100CC000AE25BF258F709927AA27BB27880F991FAC
:100CD000880F991F21E030E02C0F3D1F820F931FDA
:100CE000FC0180809180A280B38064E0F694E79458
:100CF000D794C7946A95D1F78C249D24AE24BF2441
:100D000080949094A094B0940F5F1F4F0C3FFFE02D
:100D10001F0709F0A1CFC501B401C05CDF4F0FB6BA
:100D2000F894DEBF0FBECDBFDF91CF911F910F9121
:100D3000FF90EF90DF90CF90BF90AF909F908F90FB
:100D40000895E1E2FBE08091260B80838091200BE7
:100D5000818380911F0B828380911E0B83838091FE
:100D60002A02848308950F931F93CF93DF931F92DA
:100D7000CDB7DEB72091BF0421118AC09093D40370
:100D80008093D3031092D2031092D1038CEB90E0A6
:100D9000611102C08DEB90E09093D6038093D50350
:100DA0008091D10380932E088091D20380932F08E5
:100DB0008091D303809330088091D40380933108CD
:100DC0008091D503809332088091D60380933308B5
:100DD0008FEF80933D0A0EE218E0F80180E09191D8
:100DE0009E3709F05BC080933D0A86E08983BE018F
:100DF0006F5F7F4F8EE298E00E94724B4091EB074D
:100E00005091EC0724E338E080E0D801ED918D01AA
:100E1000E827E40FF52FF11D80812A173B07A9F77A
:100E200010922B0A90913D0A90932C0A96E0909391
:100E30002D0A80932E0A8091490A90914A0ADC017A
:100E4000ED91FC910280F381E02D44E050E06AE2F4
:100E50007AE019958091490A90914A0ADC01ED9156
:100E6000FC910280F381E02D46E050E06EE278E0F4
:100E700019958091490A90914A0ADC01ED91FC9103
:100E80000280F381E02D42E050E06EE27AE01995B5
:100E90000F90DF91CF911F910F9108958F5F863052
:100EA00009F09DCFA2CF0F931F930E946E04409133
:100EB000E50B415010E000E020E060E08DE890E0BC
:100EC0000E94FB0410920A024CE756E060E070E0DA
:100ED0008FE49BE00E9426498091B004882339F07A
:100EE00060E087E590E01F910F910C94B3061F918D
:100EF0000F9108950F931F9390910202981729F173
:100F00008430B9F460E083E190E00E94B30610E021
:100F100000E020E04091E50B60E08CE390E00E946F
:100F2000FB0444E650E060E070E089EA9AE00E9449
:100F30002649809102028F5F8093020260E081E186
:100F400090E01F910F910C94B3061F910F9108959B
:100F50008CE30E941F4C892B11F080E0089587E7F5
:100F60009BE00E94B048672B682B692BB1F78091FA
:100F7000A1048111F2CF4AEF50E060E070E087E712
:100F80009BE00E94264981E08093A104089580910E
:100F900013028330A1F030F48230A9F060E084E1E4
:100FA00090E007C0843039F08530C1F760E088E117
:100FB00090E00C94B30660E087E190E0FACF60E047
:100FC00086E190E0F6CF60E085E190E0F2CF10920C
:100FD000C40370E060E08BE00C94B24C70E060E021
:100FE00088E00E94B24C61E08DE00E94484C61E0D4
:100FF0008CE00E94484C70E060E089E00C94B24CB8
:10100000CF93C82F8091C303C53040F160E00E94A8
:10101000484C81E08093BE0360E08091C2030E944F
:10102000484C81E08093BD0360E08091C1030E9441
:10103000484C81E08093BC0360E08091C0030E9433
:10104000484C81E08093BB0360E08091BF030E9425
:10105000484C81E08093BA03CF91089561E00E94EB
:10106000484C1092BE03C430B9F261E08091C203D3
:101070000E94484C1092BD03C330B1F261E08091F0
:10108000C1030E94484C1092BC03C230A9F261E037
:101090008091C0030E94484C1092BB03C111D4CF71
:1010A00061E08091BF030E94484C1092BA03D4CFF4
:1010B000FF920F931F93CF93DF938091DB038823DD
:1010C000B1F0CCE9D3E000E813E0FF24F394899178
:1010D0000E94DB4EF801F1928F01F3E0C83BDF077D
:1010E000B1F7DF91CF911F910F91FF90089585E0A7
:1010F000DF91CF911F910F91FF900C940008809188
:10110000BA049091BB048230910541F0833091057F
:1011100041F0019749F490E080E0089581E090E08B
:10112000089582E090E008958091A4049091A50430
:1011300008950F931F938DE30E941F4C892BF1F4A8
:1011400081E89BE00E94B048672B682B692BB1F4C3
:101150004AEF50E060E070E081E89BE00E942649A1
:1011600080911402882329F060E08DE790E00E94CE
:10117000B306109214021F910F9108958DE30E94FF
:101180001F4C0197C1F781E89BE00E94B048672B94
:10119000682B692B81F70E947F080297029778F4E9
:1011A0008091140281110BC04091E50B415010E079
:1011B00000E020E060E081EB90E00E94FB04809181
:1011C0001402811105C060E08CE790E00E94B30634
:1011D00081E080931402CFCF8091B3049091B40446
:1011E0008130910591F1029731F581E090E0909383
:1011F000D9038093D8038091B1049091B2048130D7
:10120000910541F0029731F18091DD039091DE0369
:10121000019701F11092E5031092E4038091D80345
:101220009091D9030197E9F480E190E09093010255
:101230008093000208958091DD039091DE03019771
:10124000A1F20E947F08029780F61092D9031092B3
:10125000D803D1CF81E090E09093E5038093E4033D
:10126000DDCF83E090E0E2CF0F931F938091B9032D
:10127000882339F10E947F08029740F58091CA04C3
:101280009091CB04019791F081E190E00E94854913
:1012900010E000E020E04091E50B60E081E190E0AB
:1012A0000E94FB048091B903882359F00E947F08B3
:1012B000029708F056C081E090E00E9485490E94A4
:1012C0008E041092B9031F910F910895809103022B
:1012D000882361F38091CA049091CB0484309105F6
:1012E00021F02091C504222339F14091E50B4150B2
:1012F00010E000E020E060E084E990E00E94FB0460
:101300008091B004882329F060E08EE590E00E948F
:10131000B3068091CA049091CB04049719F24CE76C
:1013200056E060E070E08FE49BE00E942649109256
:101330004D0B10924E0BB6CF019789F34091E50B00
:10134000415010E000E020E060E082E990E00E947F
:10135000FB048091B0048823E1F260E08CE590E02A
:10136000D6CF8FE890E00E94854980E990E00E9406
:1013700085498091B004882309F4A3CF60E089E512
:1013800090E00E94B3069DCFFF920F931F93CF93DF
:10139000DF938091DB03882309F41BC183EB9AE080
:1013A0000E94F6488823B9F18091D8039091D9031F
:1013B0000197B9F193E0F92E04E015E0D6E0C7E01B
:1013C000E091E0038091DF03882309F482C0EC31CF
:1013D00068F4F0E0E456FC4F80810E94DB4EE0911F
:1013E000E003F0E0E058FC4F81E08083809113023D
:1013F000833009F453C0E0F4813009F461C08230D5
:1014000009F455C08091DF03882329F08091E0031F
:101410008F5F8093E003DF91CF911F910F91FF9039
:1014200008958AE0F82E0AE01AE0DAE0CAE0C8CFB0
:10143000843041F1853031F78091E0038C31C8F080
:101440001092DF038BE18093E0038091D8039091A9
:10145000D903019729F41092BB0A1092BC0AD2CF8B
:101460004AE550E060E070E083EB9AE00E94264994
:10147000C9CF84E0F89EA0011124052E000C660B54
:10148000770BF2CF8091E003863118F01092DF03E2
:10149000DCCF84E0089FA0011124EFCF8091E0030E
:1014A0008031A0F784E0189FA0011124E6CF80913D
:1014B000E0038B3058F784E0D89FA0011124DDCFE2
:1014C0008091E003853010F784E0C89FA0011124CB
:1014D000D4CFEC3160F4F0E0E456FC4F80810E9400
:1014E000BB4EE091E003F0E0E058FC4F10828091A9
:1014F000E003811110C081E08093DF034AE550E0F2
:1015000060E070E083EB9AE0DF91CF911F910F9143
:10151000FF900C94264981508093E0039091130230
:101520009330D9F1A0F4913009F445C0923009F01C
:1015300072CF2091D8033091D9032130310511F4B5
:101540008C3098F048E150E060E070E0DBCF943000
:10155000B1F0953009F05FCF2091D8033091D903D5
:101560002130310539F48C3128F41092BB0A1092E5
:10157000BC0A51CF4CE050E060E070E0C3CF209156
:10158000D8033091D9032130310511F4873168F344
:1015900040E150E060E070E0B5CF2091D803309199
:1015A000D9032130310511F48131F8F244E150E0E2
:1015B00060E070E0A7CF2091D8033091D9032130AB
:1015C000310511F4853088F24CE150E060E070E0C4
:1015D00099CF809113028330B9F038F4813061F0F3
:1015E000823009F018CF82E008C0843079F085306D
:1015F00009F011CF85E001C081E0DF91CF911F910B
:101600000F91FF900C94000883E0F7CF84E0F5CFB2
:10161000EF92FF920F931F93CF93DF93809113026A
:101620009091DB03992309F49CC0833009F45FC0D7
:1016300058F4813001F18230E9F1DF91CF911F91AF
:101640000F91FF90EF900895843009F46DC0CCE9BC
:10165000D3E000E813E0FF24F394853071F789911B
:101660000E94DB4EF801F1928F01F3E0C83BDF07E7
:10167000B1F78BE117C03CE9E32E33E0F32E00E82D
:1016800013E0C0E0D1E0F70181917F01C53068F43B
:101690000E94DB4EF801D083CF5F0F5F1F4FCC312C
:1016A00091F784E08093E003C8CF0E94BB4EF8011D
:1016B0001082F2CF2CE9E22E23E0F22E00E813E0B4
:1016C000C0E0D1E0F70181917F01CC3058F40E9455
:1016D000DB4EF801D083CF5F0F5F1F4FCC3191F706
:1016E0008BE0E0CF0E94BB4EF8011082F4CF9CE962
:1016F000E92E93E0F92E00E813E0C0E0D1E0F70115
:1017000081917F01C13158F40E94DB4EF801D083F2
:10171000CF5F0F5F1F4FCC3191F780E1C3CF0E94A5
:10172000BB4EF8011082F4CF8CE9E82E83E0F82E4E
:1017300000E813E0C0E0D1E0F70181917F01C731FB
:1017400058F40E94DB4EF801D083CF5F0F5F1F4F2C
:10175000CC3191F786E1A6CF0E94BB4EF8011082F2
:10176000F4CF8330C1F038F4813061F0823009F079
:1017700064CF82E008C0843081F0853009F05DCF0D
:1017800085E001C081E0DF91CF911F910F91FF9023
:10179000EF900C94000883E0F6CF84E0F4CF8091C2
:1017A000B80481111AC0E8E7F2E0ACE9B3E0819136
:1017B0008D9382E0E439F807D1F787E38093BF0384
:1017C00088E38093C00389E38093C1038AE3809315
:1017D000C2038BE38093C3030895E4E9F2E0ACE92C
:1017E000B3E080EB92E021912D938E179F07D9F7FC
:1017F0008BE38093BF038AE38093C00389E38093E4
:10180000C10388E38093C20387E3E4CF8091DB03C5
:10181000882321F00E94F1041092E0030895809142
:10182000DB03882329F10E94060C70E060E088E069
:101830000E94B24C70E060E089E00E94B24C60E02F
:1018400086E10E94484C60E087E10E94484C60E0DD
:1018500088E10E94484C61E08DE00E94484C61E0C4
:101860008CE00E94484C1092E3031092E00308952C
:1018700080E00E940008D9CF2091CA043091CB04A7
:10188000235031092330310510F4882329F1909138
:10189000130220910502921303C0811112C0089512
:1018A000291778F481E08093DF039330F1F060F43E
:1018B000913001F14EE150E060E070E0923089F04B
:1018C00008951092DF03F1CF943039F04CE350E0EB
:1018D00060E070E0953029F008954DE250E060E05E
:1018E00070E083EB9AE00C94264944E250E060E01B
:1018F00070E0F7CF49E150E060E070E0F2CF909106
:101900000D02992309F190910C029923E9F020919D
:10191000CA043091CB0424303105B1F09091C50454
:10192000911112C090910B02992319F023303105C7
:1019300059F49091C403981761F08093C403682F01
:1019400070E08BE00C94B24C1092C40370E060E045
:10195000F8CF0895CF93DF9380910802813418F473
:1019600081E4809308028091DB03882309F49DC100
:10197000E091E003EC31B8F1E83308F064C0C7E36C
:10198000CE1B8091CA049091CB04049719F08091EA
:10199000C50481110E94E7078091CA049091CB048D
:1019A000049729F08091C504882309F477C0D0E01A
:1019B000FE01E456FC4F80810E94BB4EC058DC4FB4
:1019C00018828091E00340E550E060E070E08733EA
:1019D00009F061C11092080B1092090B1092DF03FD
:1019E0001092E00330C0F0E0E456FC4F80810E948A
:1019F000DB4E8091E003E82FF0E0E058FC4F91E0EF
:101A00009083873118F180910802805B0E947F0CDF
:101A10008091E0038F5F8093E0038C3179F54AE594
:101A200050E060E070E080E09BE00E9426498091F9
:101A3000D8039091D903019731F488E090E0909316
:101A4000010280930002DF91CF910895813120F04F
:101A500080910802885DDACF8B3020F080910802F7
:101A6000825ED4CF853020F0809108028C5ECECF8C
:101A7000882371F280910802865FC8CF40910002EE
:101A800050910102440F551F440F551F70E060E054
:101A900080E09BE0DF91CF910C9426498091D803A0
:101AA0009091D90320911302253018F481309105CB
:101AB00011F0892B51F4D0E0FE01E456FC4F8081F7
:101AC0000E94BB4EC058DC4F18828091D803909181
:101AD000D903009719F1019709F0B5CF809113024E
:101AE000833009F47BC0C0F5813009F4B5C0823081
:101AF00009F0A9CF8091E0038B3209F099C01092D0
:101B0000080B1092090B1092DF038BE08093E00327
:101B10000E94EC08809108028B5F1AC08091E0035C
:101B2000873309F0AEC044E050E060E070E083EB42
:101B30009AE00E9426491092080B1092090B81E04E
:101B40008093DF031092E0030E94EC08809108026A
:101B5000DF91CF910C947F0C8430B1F0853009F087
:101B600072CF1092BB0A1092BC0A1092080B10920E
:101B7000090B1092DF038BE18093E0030E94EC08D5
:101B800080910802875EE4CF8091E003803279F48F
:101B90001092080B1092090B1092DF0386E18093DC
:101BA000E0030E94EC0880910802825ED1CF409150
:101BB000000250910102440F551F440F551F70E061
:101BC00060E080E09BE00E9426498091E0038F5F07
:101BD0008093E00380910802845FBACF8091E00394
:101BE000863279F41092080B1092090B1092DF03E1
:101BF00080E18093E0030E94EC0880910802865FF8
:101C0000A7CF4091000250910102440F551F440F8D
:101C1000551F70E060E080E09BE00E9426498091C3
:101C2000E0038F5F8093E003809108028C5E90CF89
:101C30004091000250910102440F551F440F551F5F
:101C400070E060E080E09BE00E9426498091E00324
:101C50008F5F8093E003D1CF809108020E947F0CB8
:101C60008091E003823369F41092080B1092090B03
:101C70001092DF0385E08093E003DF91CF910C9415
:101C8000EC084091000250910102440F551F440F8F
:101C9000551F70E060E080E09BE00E942649809143
:101CA000E0038F5F8093E003CECE8091CA049091D1
:101CB000CB04049721F08091C504C1E08111C2E0FA
:101CC000E091E303EA3008F0BECEF0E08827E45963
:101CD000F14F8F4F0C94047A760E900E970E9E0E55
:101CE000A50ECC0EDB0EE90EF70E170F8091080241
:101CF000865F0E947F0C81E00E94000888E7C89FF1
:101D0000A0011124052E000C660B770B80E09BE0F0
:101D10000E9426498091E3038F5F8093E30393CE73
:101D2000809108028C5E0E947F0C82E0E5CF80915A
:101D30000802825E0E947F0C83E0DECF8091080261
:101D4000885D0E947F0C84E0D7CF80910802805B81
:101D50000E947F0C85E00E9400088091E303282FF9
:101D600030E02F5F3F4F909113029217130641F41A
:101D70002091CA043091CB042430310509F050C0C1
:101D80008F5F8093E30388E7C89FA0011124052E8D
:101D9000000C660B770B7CCE80910802885D0E9458
:101DA0007F0C84E00E9400088091E303482F41509B
:101DB000550B9A01D8CF80910802825E0E947F0C59
:101DC00083E00E9400088091E303482F4350550BA5
:101DD000F0CF809108028C5E0E947F0C82E00E940E
:101DE00000088091E303482F4550550BE2CF8091C6
:101DF0000802865F0E947F0C81E00E9400088091AB
:101E0000E3038750990B209113022817190609F054
:101E100075CF8091CA049091CB04049709F46ECFDA
:101E20001092080B1092090B1092E3030CCE80E085
:101E30000E940008F5CF8091C6049091C7048130BC
:101E4000910539F48091CA049091CB04892B79F0E3
:101E50000895892BB1F58091CA049091CB04892B08
:101E600081F58091DD039091DE03019751F50E9489
:101E7000060C10922C0810922D088091C00481113C
:101E800020C08091D8039091D903019799F40E94C2
:101E9000EC088091DB03882349F08091D80390916E
:101EA000D903019719F480E00E943C0C0E94C707F7
:101EB0000C94AA0C86E090E09093010280930002BB
:101EC000E8CF08950F931F938091A2049091A304EB
:101ED0009093C4048093C30485E0809311028091A1
:101EE000C50481110AC010E000E020E04091E50B3C
:101EF00060E088E290E00E94FB040E94060CE09102
:101F0000A204F091A304319760E085E090E0E7300F
:101F1000F10578F48827E057F04F8F4F0C94047A3E
:101F2000E60FE30F970FE90FEC0FEF0FF20F88E0CA
:101F300090E00E94B3061092CB041092CA040E9453
:101F40000F0C8091DD039091DE03019709F04DC0E5
:101F50008091990B90919A0B892B09F046C0809142
:101F6000DB0B9091DC0B892B09F03FC08091DC03E7
:101F70008823F1F08091DB038823D1F08CEF90E08F
:101F80000E9485498AEF90E00E94854910E000E0B8
:101F900020E04091E50B60E08AEF90E00E94FB04B6
:101FA00020E04091E50B60E08CEF90E00E94FB04A4
:101FB0008091DB038823C9F080E00E943C0C1F91D4
:101FC0000F910C941B0F87E090E0B3CF86E090E078
:101FD000B0CF89E090E0ADCF8AE090E0AACF8BE06F
:101FE00090E0A7CF8CE090E0A4CF1F910F910895CF
:101FF000CF92DF92EF92FF920F931F93CF93DF93D5
:10200000C091DB038091E4039091E503892B09F0F3
:10201000BCC3CC2309F4B3C2E091E003EE3008F076
:10202000BBC2F0E0909108028827E65EFF4E8F4F1A
:102030000C94047A281053108A10C510F410231140
:1020400052118111B011DF110E123D126B129A1252
:102050008EE6890F0E947F0C8091A9030E94DB4EBF
:102060008091AA030E94DB4E81E080938D038093D0
:102070008E038091E0038F5F8093E0038091DF0304
:1020800081110CC08091A8030E94BB4E8091AB03CC
:102090000E94BB4E10928C0310928F0381E08093BC
:1020A000DF0361E06EC08EE6890F0E947F0C809195
:1020B000A8030E94DB4E8091AB030E94DB4E81E0BF
:1020C00080938C0380938F038091DF03882381F0BA
:1020D0008091A9030E94BB4E8091AA030E94BB4E2F
:1020E00010928D0310928E038091E0038F5F0FC0DA
:1020F0008091A7030E94BB4E8091AC030E94BB4E0F
:1021000010928B03109290038091E0038150809392
:10211000E003C7CF8EE6890F0E947F0C8091A70352
:102120000E94DB4E8091AC030E94DB4E81E08093E5
:102130008B03809390038091DF03882381F080914B
:10214000A8030E94BB4E8091AB030E94BB4E10922D
:102150008C0310928F038091E0038F5F0FC08091FA
:10216000A6030E94BB4E8091AD030E94BB4E10920D
:102170008A03109291038091E00381508093E003E1
:1021800060E088E10E94484C07C28EE6890F0E94F9
:102190007F0C8091A6030E94DB4E8091AD030E94CC
:1021A000DB4E81E080938A03809391038091DF036B
:1021B000882369F08091A7030E94BB4E8091AC03F5
:1021C0000E94BB4E10928B0310929003C4CF80915B
:1021D000A5030E94BB4E8091AE030E94BB4E10929D
:1021E000890310929203C7CF8EE6890F0E947F0C5D
:1021F0008091A5030E94DB4E8091AE030E94DB4ECE
:1022000081E080938903809392038091DF03882388
:1022100069F08091A6030E94BB4E8091AD030E949D
:10222000BB4E10928A03109291035ECF8091A4035B
:102230000E94BB4E8091AF030E94BB4E1092880358
:102240001092930361CF8EE6890F0E947F0C8091DC
:10225000A4030E94DB4E8091AF030E94DB4E81E01D
:1022600080938803809393038091DF03882369F030
:102270008091A5030E94BB4E8091AE030E94BB4E8D
:1022800010928903109292032FCF8091A3030E9492
:10229000BB4E8091B0030E94BB4E109287031092F8
:1022A000940332CF80E7890F0E947F0C8091A303B3
:1022B0000E94DB4E8091B0030E94DB4E81E0809350
:1022C0008703809394038091DF03882369F08091D2
:1022D000A4030E94BB4E8091AF030E94BB4E10929C
:1022E00088031092930337CF8091A2030E94BB4EC4
:1022F0008091B1030E94BB4E109286031092950309
:102300003ACF80E7890F0E947F0C8091A2030E9440
:10231000DB4E8091B1030E94DB4E81E08093860307
:10232000809395038091DF03882369F08091A30354
:102330000E94BB4E8091B0030E94BB4E1092870357
:102340001092940308CF8091A1030E94BB4E80910C
:10235000B2030E94BB4E10928503109296030BCFDE
:1023600080E7890F0E947F0C8091A1030E94DB4EC1
:102370008091B2030E94DB4E81E0809385038093BD
:1023800096038091DF03882369F08091A2030E9465
:10239000BB4E8091B1030E94BB4E109286031092F7
:1023A0009503A2CE8091A0030E94BB4E8091B303FF
:1023B0000E94BB4E1092840310929703A5CE80E733
:1023C000890F0E947F0C8091A0030E94DB4E8091B8
:1023D000B3030E94DB4E81E08093840380939703D4
:1023E0008091DF03882369F08091A1030E94BB4E96
:1023F0008091B2030E94BB4E109285031092960307
:1024000073CE80919F030E94BB4E8091B4030E94C3
:10241000BB4E109283031092980376CE80E7890F0B
:102420000E947F0C80919F030E94DB4E8091B40339
:102430000E94DB4E81E08093830380939803809118
:10244000DF03882369F08091A0030E94BB4E809136
:10245000B3030E94BB4E10928403109297037BCE6D
:1024600080919E030E94BB4E8091B5030E94BB4E9B
:1024700010928203109299037ECE83E7890F0E9407
:102480007F0C80919E030E94DB4E8091B5030E94D9
:10249000DB4E10928203109299038091DF03882310
:1024A00069F080919F030E94BB4E8091B4030E940B
:1024B000BB4E10928303109298034DCE80919D03E2
:1024C0000E94BB4E8091B6030E94BB4E10928103C6
:1024D00010929A0350CE83E7890F0E947F0C80915F
:1024E0009D030E94DB4E8091B6030E94DB4E81E08B
:1024F0008093810380939A038091DF03882369F09E
:1025000080919E030E94BB4E8091B5030E94BB4EFA
:102510001092820310929903E7CD80919C030E9450
:10252000BB4E8091B7030E94BB4E10928003109265
:102530009B03EACD83E7890F0E947F0C80919C0367
:102540000E94DB4E8091B7030E94DB4E81E08093B6
:10255000800380939B0380919D030E94BB4E8091DA
:10256000B6030E94BB4E1092810310929A03809191
:10257000E00381508093E0031092DF0392CD8091BD
:10258000E303833009F4E6C008F076C0813009F433
:1025900099C0823009F4BAC09091DB03C8E7D0E05B
:1025A000992311F0C8E2D0E080911302E82FF0E007
:1025B000E05EF44F2081222309F4C6C62091390B36
:1025C000222309F4C1C620911202222309F4BCC6B9
:1025D00081E39BE00E94B0486B017C01E091130213
:1025E000E150FF0BEE0FFF1FEE0FFF1FE65FF44FF2
:1025F000608171818281938126E030E040E050E08B
:102600000E946C78C216D306E406F50608F4B5C637
:1026100081E39BE00E94B0486B017C01E0911302D2
:10262000E150FF0BEE0FFF1FEE0FFF1FE65FF44FB1
:10263000608171818281938125E030E040E050E04B
:102640000E946C78C216D306E406F50608F0BFC6F1
:102650008091DB03882309F4B0C6CE0169E070E005
:102660000E94F079AB01770F660B770B86EF9AE04B
:102670000E94264985E093C6843009F447C085301E
:1026800009F08ACF8091080282590E947F0C60E095
:102690008091BF030E94484C61E08091C0030E947A
:1026A000484C61E08091C1030E94484C61E08091F8
:1026B000C2030E94484C60E08091C3030E94484CD2
:1026C00081E021C08091080282590E947F0C60E065
:1026D0008091BF030E94484C61E08091C0030E943A
:1026E000484C61E08091C1030E94484C61E08091B8
:1026F000C2030E94484C60E08091C3030E94484C92
:102700008091E3038F5F8093E303CBCC8091080239
:1027100080590E947F0C61E08091BF030E94484C69
:1027200060E08091C0030E94484C61E08091C10349
:102730000E94484C60E08091C2030E94484C61E0D6
:102740008091C3030E94484C8091E3038F5F809384
:10275000E30316CD809108028D580E947F0C61E042
:102760008091BF030E94484C61E08091C0030E94A9
:10277000484C60E08091C1030E94484C61E0809128
:10278000C2030E94484C61E0B7CF80911302CC2372
:1027900009F4B9C39091E003911107C0833009F4A3
:1027A00052C0A8F5823009F459C09091E003E0E8E6
:1027B000F3E080E02191211103C0891708F459C08A
:1027C0008F5F8C31B9F780911302833009F4F5C122
:1027D00008F051C0823009F4B4C2CC2309F45FC3BD
:1027E000C7E08091E003C81708F4D6CE8C1342C32B
:1027F00080910202843009F448C308F030C381306C
:1028000008F048C367E070E080E090E02FC38430B8
:1028100079F0853051F669E070E080E090E00E9448
:1028200095456E5E7F4F8F4F9F4F6093E003BDCF06
:102830006CE070E080E090E00E949545635F7F4F20
:102840008F4F9F4FF2CF6AE070E080E090E00E94EF
:102850009545675F7F4F8F4F9F4FE7CF6AE070E0EE
:1028600080E090E00E9495456D5F7F4F8F4F9F4FB6
:10287000DCCFC0E0A8CF843009F4DBC0853009F09C
:10288000ACCFCC2309F46AC0CBE18091E003C81738
:1028900008F482CE8C1322C0809102028330D9F1D9
:1028A00068F4813009F44DC0823009F43FC06BE117
:1028B00070E080E090E00E9495450EC0843001F108
:1028C0008530A9F765E170E080E090E00E949545D1
:1028D0006A5F7F4F8F4F9F4F6093E0038C2F90E094
:1028E0008C0100581C4FF80120812223A9F1845645
:1028F0009C4FFC0180810E94BB4EF80110824CCE9F
:1029000062E170E080E090E00E949545675F7F4F54
:102910008F4F9F4FE1CF6FE070E080E090E00E942A
:102920009545645F7F4F8F4F9F4FD6CF6CE070E02F
:1029300080E090E00E949545615F7F4F8F4F9F4FF1
:10294000CBCF69E070E080E090E00E9495456E5E3C
:102950007F4F8F4F9F4FC0CFC15097CFC0E0809126
:10296000E0038C1708F418CE8C1322C08091020269
:102970008330E1F168F4813009F44EC0823009F40B
:1029800040C06BE170E080E090E00E9495450EC091
:10299000843009F18530A9F763E170E080E090E0D0
:1029A0000E949545685F7F4F8F4F9F4F6093E00374
:1029B0008C2F90E08C0100581C4FF80120812111D0
:1029C00036C084569C4FFC0180810E94DB4E81E022
:1029D000F8018083E1CD6FE070E080E090E00E943C
:1029E0009545645F7F4F8F4F9F4FE0CF6DE070E064
:1029F00080E090E00E949545625F7F4F8F4F9F4F30
:102A0000D5CF6BE070E080E090E00E949545605F7C
:102A10007F4F8F4F9F4FCACF69E070E080E090E01A
:102A20000E9495456E5E7F4F8F4F9F4FBFCFCF5F08
:102A300096CFCC2309F460C0C9E18091E003C817A8
:102A400008F4AACD8C1321C080910202833099F141
:102A500060F4813009F445C08230C1F169E170E071
:102A600080E090E00E9495450EC08430C9F085302A
:102A7000A9F768E170E080E090E00E9495456F5F03
:102A80007F4F8F4F9F4F6093E0038C2F90E08C011E
:102A900000581C4FF8012081211129CFC150CDCF02
:102AA00065E170E080E090E00E9495456C5F7F4FAB
:102AB0008F4F9F4FE8CF62E170E080E090E00E948E
:102AC0009545695F7F4F8F4F9F4FDDCF6FE070E07F
:102AD00080E090E00E949545665F7F4F8F4F9F4F4B
:102AE000D2CF6CE070E080E090E00E949545635F9B
:102AF0007F4F8F4F9F4FC7CFC0E08091E0038C176F
:102B000008F44ACD8C1321C0809102028330A1F1D8
:102B100060F4813009F446C08230C9F169E170E0A7
:102B200080E090E00E9495450EC08430D1F0853061
:102B3000A9F768E170E080E090E00E9495456F5F42
:102B40007F4F8F4F9F4F6093E0038C2F90E08C015D
:102B500000581C4FF8012081222309F432CFCF5FA7
:102B6000CCCF65E170E080E090E00E9495456C5F1D
:102B70007F4F8F4F9F4FE7CF62E170E080E090E0A2
:102B80000E949545695F7F4F8F4F9F4FDCCF6FE06D
:102B900070E080E090E00E949545665F7F4F8F4F28
:102BA0009F4FD1CF6CE070E080E090E00E949545AF
:102BB000635F7F4F8F4F9F4FC6CFCC2309F460C018
:102BC000C3E18091E003C81708F4E6CC8C1321C060
:102BD00080910202833099F160F4813009F445C09C
:102BE0008230C1F163E170E080E090E00E949545A1
:102BF0000EC08430C9F08530A9F762E170E080E052
:102C000090E00E9495456F5F7F4F8F4F9F4F60937D
:102C1000E0038C2F90E08C0100581C4FF8012081BC
:102C2000211165CEC150CDCF60E170E080E090E031
:102C30000E9495456D5F7F4F8F4F9F4FE8CF6EE0AD
:102C400070E080E090E00E9495456B5F7F4F8F4F72
:102C50009F4FDDCF6CE070E080E090E00E949545F2
:102C6000695F7F4F8F4F9F4FD2CF6AE070E080E067
:102C700090E00E949545675F7F4F8F4F9F4FC7CF72
:102C8000C0E08091E0038C1708F486CC8C1321C03F
:102C9000809102028330A1F160F4813009F446C0D2
:102CA0008230C9F163E170E080E090E00E949545D8
:102CB0000EC08430D1F08530A9F762E170E080E089
:102CC00090E00E9495456F5F7F4F8F4F9F4F6093BD
:102CD000E0038C2F90E08C0100581C4FF8012081FC
:102CE000222309F46ECECF5FCCCF60E170E080E0AC
:102CF00090E00E9495456D5F7F4F8F4F9F4FE7CFCC
:102D00006EE070E080E090E00E9495456B5F7F4F41
:102D10008F4F9F4FDCCF6CE070E080E090E00E942E
:102D20009545695F7F4F8F4F9F4FD1CF6AE070E02D
:102D300080E090E00E949545675F7F4F8F4F9F4FE7
:102D4000C6CFCC2309F445C0CDE08091E003C8177D
:102D500008F422CC8C131CC080910202843019F13B
:102D600048F4813058F56DE070E080E090E00E941A
:102D700095450CC08530B9F76CE070E080E090E0DC
:102D80000E9495456F5F7F4F8F4F9F4F6093E00389
:102D90008C2F90E08C0100581C4FF80120812111EC
:102DA000A6CDC150D2CF6BE070E080E090E00E94F1
:102DB00095456E5F7F4F8F4F9F4FE8CF6AE070E081
:102DC00080E090E00E9495456D5F7F4F8F4F9F4F51
:102DD000DDCFC0E08091E0038C1708F4DDCB8C13CD
:102DE0001CC080910202843021F148F4813060F5EA
:102DF0006DE070E080E090E00E9495450CC0853069
:102E0000B9F76CE070E080E090E00E9495456F5F5C
:102E10007F4F8F4F9F4F6093E0038C2F90E08C018A
:102E200000581C4FF8012081222309F4CACDCF5F3E
:102E3000D1CF6BE070E080E090E00E9495456E5F3E
:102E40007F4F8F4F9F4FE7CF6AE070E080E090E0C8
:102E50000E9495456D5F7F4F8F4F9F4FDCCF853030
:102E600009F0D0CC6AE070E080E090E00E949545E7
:102E70006093E0038C2F90E08C0100581C4FF80108
:102E80002081211134CDC150ACCC69E070E080E0EC
:102E900090E0ECCF68E070E080E090E0E7CFC0E049
:102EA0008091E0038C1708F477CB8C1316C08091C7
:102EB00002028430F1F038F4813000F567E070E010
:102EC00080E090E006C08530C9F76AE070E080E0FD
:102ED00090E00E9495456093E0038C2F90E08C0178
:102EE00000581C4FF8012081222309F46ACDCF5FDE
:102EF000D7CF69E070E080E090E0EBCF68E070E071
:102F000080E090E0E6CF9091E30391111AC0833006
:102F100009F454C040F4823009F45BC062E070E010
:102F200080E090E05AC08630C8F764E070E080E04E
:102F300090E00E9495456E5F7F4F8F4F9F4F60934B
:102F4000E3032091E303EAEBF3E090E08191811148
:102F500002C0291720F49F5F9530C1F781E090915E
:102F60001302933009F40EC1D8F5923009F463C10D
:102F7000882309F4BFC1C5E08091E303C81708F4B2
:102F80000BCB8C1312C080910202833009F4A8C1CC
:102F900008F4ABC1863008F0A8C166E070E080E0BC
:102FA00090E00E9495456093E303EC2FF0E0E75436
:102FB000FC4F8081C1508823F9F23AC063E070E091
:102FC00080E090E00E9495456F5F7F4F8F4F9F4F4D
:102FD000B6CF63E070E080E090E00E949545AFCF0F
:102FE000943009F46AC0953019F6882381F1C5E060
:102FF0008091E303C81708F4CFCA8C1311C08091E5
:10300000020283508330C0F465E070E080E090E01D
:103010000E9495456F5F7F4F8F4F9F4F6093E303F3
:10302000EC2FF0E0E754FC4F8081C150882301F37E
:103030008C2F0E940008B0CA64E070E080E090E04D
:103040000E9495456E5F7F4F8F4F9F4FE7CFC0E047
:103050008091E3038C1708F49FCA8C130FC08091F2
:1030600002028330A1F0F0F08630E0F466E070E018
:1030700080E090E00E9495456093E303EC2FF0E040
:10308000E654FC4F8081CF5F8111E2CFD1CF65E064
:1030900070E080E090E00E9495456F5F7F4F8F4F1A
:1030A0009F4FEACF64E070E080E090E00E94954599
:1030B0006E5F7F4F8F4F9F4FDFCF882369F1C5E051
:1030C0008091E303C81708F467CA8C1311C080917C
:1030D000020283508330A8F465E070E080E090E065
:1030E0000E9495456F5F7F4F8F4F9F4F6093E30323
:1030F000EC2FF0E0E754FC4F8081C150882301F3AE
:1031000097CF64E070E080E090E00E9495456E5FAC
:103110007F4F8F4F9F4FEACFC0E08091E3038C1722
:1031200008F43ACA8C130FC0809102028330A1F0D8
:10313000F0F08630E0F466E070E080E090E00E941D
:1031400095456093E303EC2FF0E0E654FC4F80815B
:10315000CF5F8111E2CF6CCF65E070E080E090E05E
:103160000E9495456F5F7F4F8F4F9F4FEACF64E07E
:1031700070E080E090E00E9495456E5F7F4F8F4F3A
:103180009F4FDFCF882339F1C5E08091E303C81753
:1031900008F402CA8C1311C080910202835083305C
:1031A000A8F465E070E080E090E00E9495456F5FD4
:1031B0007F4F8F4F9F4F6093E303EC2FF0E0E75476
:1031C000FC4F8081C150882301F332CF63E070E06F
:1031D00080E090E0EACFC0E08091E3038C1708F430
:1031E000DBC98C130FC0809102028330A1F0F0F094
:1031F0008630E0F466E070E080E090E00E94954563
:103200006093E303EC2FF0E0E654FC4F8081CF5F46
:103210008111E2CF0DCF65E070E080E090E00E9488
:1032200095456F5F7F4F8F4F9F4FEACF63E070E010
:1032300080E090E0F4CF882319F1C5E08091E303AA
:10324000C81708F4A9C98C130DC0809102028250DE
:10325000843088F466E070E080E090E00E9495455C
:103260006093E303EC2FF0E0E754FC4F8081C15002
:10327000882321F3DDCE63E070E080E090E0EECFC4
:10328000C0E08091E3038C1708F486C98C131AC040
:1032900080910202833051F0F0F08630E0F466E075
:1032A00070E080E090E00E9495450AC065E070E023
:1032B00080E090E00E9495456F5F7F4F8F4F9F4F5A
:1032C0006093E303EC2FF0E0E654FC4F8081CF5F86
:1032D0008111D7CFADCE63E070E080E090E0E3CF26
:1032E00065E070E080E090E05CCE63E070E080E05C
:1032F00090E057CEC0E08091E3038C1708F44CC9EE
:103300008C130FC0809102028330A1F0C0F0863090
:10331000B0F466E070E080E090E00E949545609334
:10332000E303EC2FF0E0E654FC4F8081CF5F811186
:10333000E2CF7ECE65E070E080E090E0EECF63E02B
:1033400070E080E090E0E9CF91116FC12091E4033B
:103350003091E5032130310509F095C1833009F43E
:10336000B2C108F08BC1813009F4B2C1AE01440F83
:10337000551F823009F471C1F4C08091DB038823AA
:10338000C1F0CE016FE070E00E94F079AB01770FE1
:10339000660B770B86EF9AE00E94264986E0DF9164
:1033A000CF911F910F91FF90EF90DF90CF900C94F1
:1033B0007A07CE0165E070E0E7CFAE0155954795FD
:1033C00055954795052E000C660B770B4FC981E389
:1033D0009BE00E94B048AB01BC01E0911302E150B8
:1033E000FF0BEE0FFF1FEE0FFF1FE65FF44F808114
:1033F0009181A281B38112E0B695A79597958795A3
:103400001A95D1F7481759076A077B0720F580916D
:10341000DB03882379F0CE0167E070E00E94F07949
:10342000AB01770F660B770B86EF9AE00E94264977
:1034300084E0B5CFBE01DD0F880B990B0E94407967
:1034400020E030E040E650E40E949D780E940F7931
:10345000AB01BC01E9CF81E39BE00E94B0486B0166
:103460007C01E0911302E150FF0BEE0FFF1FEE0F06
:10347000FF1FE65FF44F608171818281938123E0B9
:1034800030E040E050E00E946C78C216D306E406BB
:10349000F506B8F48091DB03882379F0CE0165E06E
:1034A00070E00E94F079AB01770F660B770B86EF27
:1034B0009AE00E94264983E072CFCE0163E070E07B
:1034C000F0CF81E39BE00E94B0488B019C0180918A
:1034D0001302482F4150550BFA01EE0FFF1FEE0F5C
:1034E000FF1FE65FF44F40815181628173817695C1
:1034F0006795579547959091DB03041715072607A5
:10350000370710F5992379F0CE0163E070E00E944F
:10351000F079AB01770F660B770B86EF9AE00E948C
:10352000264982E03CCFBE01DD0F880B990B0E943B
:10353000407920E030E040E250E40E949D780E9413
:103540000F79AB01BC01E9CF9923A1F1833009F4D4
:1035500048C080F4813041F1823001F181E08093F4
:103560000202DF91CF911F910F91FF90EF90DF90BA
:10357000CF900895843061F0853081F7AE01559584
:10358000479547505109052E000C660B770B3DC03F
:10359000AE015595479543505109F5CFAE0155956C
:1035A0004795495F5F4FEFCFAE0155954795445F13
:1035B0005F4FE9CF2091E4033091E50321303105DD
:1035C00081F4833039F140F4813049F1AE01440F88
:1035D000551F8230C1F2C2CF843039F0853009F0F6
:1035E000BDCFAE0155954795CECFBE01DD0F880BFF
:1035F000990B0E94407920E030E040EC5FE30E94AC
:103600009D780E940F79AB01BC0186EF9AE00E9481
:103610002649A4CFAE01DD0F660B770BF6CFAE01C6
:10362000440F551F4C0F5D1FAECF833061F158F42E
:103630008130F1F0823009F094CFAE015595479575
:10364000495F5F4F0AC0843069F0853009F089CF47
:10365000AE015595479547505109052E000C660B54
:10366000770B25C0AE015595479543505109F5CFCD
:10367000AE0155954795445F5F4FEFCF843039F0E9
:10368000853009F06ECFAE0155954795E6CFBE0166
:10369000DD0F880B990B0E94407920E030E040EC70
:1036A0005FE30E949D780E940F79AB01BC0186EF19
:1036B0009AE0DF91CF911F910F91FF90EF90DF90F3
:1036C000CF900C942649AE01DD0F660B770BEFCF40
:1036D000AE01440F551F4C0F5D1FBFCF8091B80343
:1036E000882331F11092B8038CE090E00E94854964
:1036F00082E190E00E94854983E190E00E94854943
:1037000084E190E00E94854985E190E00E9485492E
:1037100086E190E00E94854910929D0A10929E0ACF
:1037200042E350E060E070E085E99AE00C942649BD
:1037300008958091C6049091C7048130910539F4B1
:103740008091CA049091CB04892B79F00895892B3C
:1037500041F58091CA049091CB04892B11F5809199
:10376000DD039091DE030197E1F40E946E1B0E943D
:1037700034090E948E041092B9031092B8038CE1B0
:103780008093E00385E08093E3030E94580848E7B4
:1037900050E060E070E080E09BE00E9426490C94DD
:1037A000AA0C08951092390B10923A0B60E084E055
:1037B00090E00E94B3061092CB041092CA041092BB
:1037C000C1041092E2031092E1031092FE0A1092DB
:1037D000FF0A1092BB0A1092BC0A1092DF032091DC
:1037E000D8033091D9038091130281508093E30371
:1037F0001092E0032130310509F072C08091E4039A
:103800009091E503019709F060C00E94080B0E94A7
:10381000C4098091C50481110E94991B1092750AF8
:103820001092760A1092890A10928A0A10926B0AF4
:1038300010926C0A1092A0044AE050E060E070E040
:1038400087E79AE00E94264960E086E10E94484CA2
:1038500060E088E10E94484C1092B10A1092B20ACE
:103860008091C3049091C4048330910509F470C021
:1038700008F045C08130910509F454C0029709F45D
:103880005CC08091A4049091A504019709F043C005
:1038900084E690E00E94854983E690E00E94854995
:1038A00088E490E00E94854981E690E00E94854985
:1038B00082E690E00E94854986E090E00E9485497A
:1038C00089E090E00E9485491EC00E94060C85E0B8
:1038D00090E090930102809300020E94AA0C99CF7D
:1038E0000E94060C83E090E0909301028093000216
:1038F0008091C504811190CF0E94AA0C8FCF0797A9
:10390000029708F0BECF44E650E060E070E08FE43C
:103910009AE00C94264980E690E00E9485498FE564
:1039200090E0BCCF83E390E00E94854984E390E07F
:103930000E94854985E390E0C5CF89E390E00E942D
:1039400085498AE390E00E9485498BE390E0BACFF5
:1039500086E390E00E94854988E390E0B3CF0F931F
:103960001F938091D8039091D903019709F049C022
:1039700080E190E090930102809300028091C60460
:103980009091C7040297D1F18091C50481110EC0B6
:103990008091DD039091DE03009731F0019731F4BF
:1039A0008091080B811102C00E94AA0C6FEF70E099
:1039B00088E00E94B24C6FEF70E089E00E94B24C48
:1039C0004AEF50E060E070E08BE39BE00E94264904
:1039D00060E08CE00E94484C8091C50481110EC0CB
:1039E0000E947F08029780F410E000E020E0409100
:1039F000E50B60E088E290E00E94FB041F910F91CC
:103A0000089586E090E0B6CF8091BF04882351F0FE
:103A100010E000E020E04091E50B60E081E090E004
:103A20000E94FB0481E00E94DE058091990B909139
:103A30009A0B019719F7809103028823F9F21F91DD
:103A40000F910C9453070F931F938091CA04909188
:103A5000CB049C01235031092230310508F40BC1FD
:103A6000019709F408C18091A804811104C18091D3
:103A7000A704811100C18091C5048111FCC00E947E
:103A8000A807882309F4F7C080911102853009F056
:103A9000F2C08091C3049091C404009709F037C02C
:103AA00081E090E09093C4048093C3048091C304A8
:103AB0009091C404079751F06FEF70E088E00E9486
:103AC000B24C6FEF70E089E00E94B24C10E000E071
:103AD00020E04091E50B60E088E290E00E94FB046A
:103AE000E091C304F091C4043197E830F10508F087
:103AF000B8C08827E158F24E8F4F0C94047A271EE5
:103B00001D1E131EFF1DF51D091EEB1DD21D81304C
:103B1000910519F482E090E0C5CF8230910519F447
:103B200083E090E0BFCF8330910589F48091B704A2
:103B3000882381F084E090E0B5CF8091B50488239C
:103B400019F086E090E0AECF87E090E0ABCF843014
:103B5000910539F48091B604882379F385E090E0EB
:103B6000A1CF8530910549F38630910569F3079718
:103B700019F488E090E096CF1092C4041092C30428
:103B80000E94060C8091DB03882309F48FCF80917B
:103B9000D8039091D903019709F088CF81E00E9462
:103BA0003C0C84CF85E090E09093CB048093CA04D2
:103BB000809311024EE551E060E070E084E298E00D
:103BC0000E9426490E94060C60E08DE090E01F9163
:103BD0000F910C94B3061092CB041092CA040E9469
:103BE000680560E08CE090E0F2CF1092CB04109278
:103BF000CA040E94680560E08AE090E0E8CF109275
:103C0000CB041092CA040E94680560E089E090E04D
:103C1000DECF1092CB041092CA040E94680560E0C7
:103C20008BE090E0D4CF1092CB041092CA040E9493
:103C3000680560E088E090E0CACF1092CB04109253
:103C4000CA040E94680560E087E090E0C0CF10924F
:103C5000CB041092CA040E94680560E086E090E000
:103C6000B6CF1092CB041092CA040E94680560E09F
:103C700085E090E0ACCF1F910F9108950F931F93B3
:103C8000CF932091CA043091CB042430310509F43C
:103C900090C08091C50481118CC08091990B909146
:103CA0009A0B009709F06CC18091B904882309F43C
:103CB00098C070E060E02330310509F485C0809140
:103CC0001302833009F487C008F077C0813009F40B
:103CD00085C06EEB70E0823009F476C0C091B90304
:103CE0000E947F08C11113C0029708F07FC010E046
:103CF00000E020E04091E50B60E081E090E00E9470
:103D0000FB0481E00E94DE0581E08093B9030E94FC
:103D10007F0802970297F0F485E49BE00E94F64842
:103D20008823C1F04091E50B415010E000E020E015
:103D300061E080E990E00E94FB0410924D0B10922C
:103D40004E0B8091B004882329F060E08BE590E071
:103D50000E94B3068091DB0B9091DC0B892B09F05C
:103D60000AC18091B803811124C085E99AE00E94BC
:103D7000F6488823F1F08091CA049091CB0404970F
:103D8000C1F08091B803811114C080911302833077
:103D900009F4CBC008F088C0813009F49EC082309D
:103DA00009F4B0C081E08093B80310929D0A10928C
:103DB0009E0ACF911F910F910895843049F064E6D7
:103DC00070E0853009F08ACF8DE00E94B24C86CF3A
:103DD00062E870E0F9CF60EA70E0F6CF6CED70E079
:103DE000F3CF60E08DE00E94484C78CF8DE890E002
:103DF0000E94854980E990E00E9485498EE890E024
:103E00000E94854981E990E00E94854982E990E01D
:103E10000E94854984E990E00E94854980910302CF
:103E2000882351F14091E50B415080910A0210E046
:103E300000E020E060E0882321F183E990E00E9427
:103E4000FB048091B004882351F060E086E590E0A7
:103E50000E94B30660E08FE590E00E94B3061092E6
:103E60000A024CED55E060E070E085E49BE00E94C2
:103E7000264981E08093B9031092570B1092580B9A
:103E800046CF8FE890E00E94FB048091B004882325
:103E900041F360E086E590E00E94B30660E088E5CB
:103EA00090E00E94B306DDCF843009F451C0853024
:103EB00009F078CF0E947F084091E50B029710E04F
:103EC00000E020E0029728F480910E0261E0811169
:103ED00001C060E086E190E012C00E947F0840913E
:103EE000E50B029710E000E020E0029728F48091B3
:103EF0000E0261E0811101C060E082E190E00E9469
:103F0000FB0450CF0E947F084091E50B029710E020
:103F100000E020E0029728F480910E0261E0811118
:103F200001C060E083E190E0EACF0E947F08409109
:103F3000E50B029710E000E020E0029728F4809162
:103F40000E0261E0811101C060E084E190E0D7CF12
:103F50000E947F084091E50B029710E000E020E00E
:103F6000029728F480910E0261E0811101C060E0A7
:103F700085E190E0C4CFCF911F910F910C946E1BFF
:103F8000019709F016CF61E08DE00E94484C0E9435
:103F90006E1BCF911F910F910C943409DF92EF9219
:103FA000FF920F931F93CF93DF9384E298E00E94D8
:103FB000F648882341F04EE551E060E070E084E28D
:103FC00098E00E94264984E298E00E94B0486F3A47
:103FD00071058105910508F0DDC0C091AB04CC23CB
:103FE000B1F080911102853089F48091CA049091DA
:103FF000CB048430910551F00697039738F0C1E067
:104000008091BD049091BE04892B09F0C0E080919D
:10401000A804811104C08091A7048823A9F080918D
:104020001102853089F48091CA049091CB048430C8
:10403000910551F00697039738F08091BD04909157
:10404000BE04019709F4C1E08091E60B8A3B69F454
:104050008091CA049091CB04059739F4D1E0809106
:10406000BD049091BE04892B09F0D0E08091DB0360
:10407000882309F469C0CC2309F43FC09CE9E92EE8
:1040800093E0F92E00E813E0C0E0DD24D394F701BB
:1040900081917F01DD2361F1C33050F50E94DB4E39
:1040A000F801D082CF5F0F5F1F4FC83181F7809139
:1040B000B4030E94DB4EC1E0C09398038091B50326
:1040C0000E94DB4EC09399038091B6030E94DB4EA1
:1040D000C0939A038091B7030E94BB4E10929B033A
:1040E000DF91CF911F910F91FF90EF90DF90089596
:1040F0000E94BB4EF8011082D5CFDD23E1F08CE9A0
:10410000E82E83E0F82E00E813E0C0E0D1E0F701EC
:1041100081917F01C33050F40E94DB4EF801D083BF
:10412000CF5F0F5F1F4FCC3191F7DACF0E94BB4EAC
:10413000F8011082F5CFDF91CF911F910F91FF9081
:10414000EF90DF900C94F1048091BF0360E0D111F7
:1041500001C061E00E94484C61E08091C0030E9470
:10416000484C61E08091C1030E94484C61E080911D
:10417000C2030E94484C60E0C11101C061E080911F
:10418000C303DF91CF911F910F91FF90EF90DF90CC
:104190000C94484CC0911102C33009F495C028F525
:1041A000C13009F4B6C0C23009F09ACF8091DB0368
:1041B000882309F4ACC0D0E0C0E011E0C33030F097
:1041C000C63070F08C2F8950833050F0FE01E456D9
:1041D000FC4F80810E94DB4EFE01E058FC4F1083B3
:1041E0002196CC30D10551F77BCFC43009F449C0BA
:1041F000C53009F075CF8091DB03882309F437C0FF
:10420000D0E0C0E011E0EC2FE350E93100F5F0E040
:104210008827E25FFE4D8F4F0C94047A31213121C3
:104220003121272127212721312131213121272126
:104230002721272131213121312127212721272120
:104240003121312131212721272127213121FE014F
:10425000E456FC4F80810E94DB4EFE01E058FC4F8B
:1042600010832196CC31D10509F0CDCF39CF85E02F
:10427000DF91CF911F910F91FF90EF90DF900C9401
:1042800000088091DB038823E9F0D0E0C0E011E072
:10429000CC3048F48C2F8350C93038F02196C5318A
:1042A000D105B1F71DCF8C2F8F508330B8F3FE01AD
:1042B000E456FC4F80810E94DB4EFE01E058FC4F2B
:1042C0001083ECCF84E0D4CF8091DB038823E9F026
:1042D000D0E0C0E011E08C2FCC3080F4C93080F405
:1042E0008350833068F0FE01E456FC4F80810E94C9
:1042F000DB4EFE01E058FC4F108302C0CF3099F72F
:104300002196C031D10539F7EBCE83E0B1CF82E001
:10431000AFCF8091DB03882399F080919C030E94AA
:10432000DB4EC093800380919D030E94DB4EC093BF
:10433000810380919E030E94DB4EC0938203D0CE06
:1043400081E096CF0F931F931092390B10923A0B86
:104350008091CA049091CB04039729F48091C10401
:1043600081110E94D21B61E087E10E94484C64E603
:1043700070E080E090E00E94164F84E090E090931F
:10438000CB048093CA048091BF04882341F044E6A3
:1043900059E160E070E087E29BE00E9426490E94BC
:1043A0006E1B0E9434090E948E041092B903109271
:1043B000B8038091C004882309F459C01092080BF7
:1043C0001092090B0E94060C4EE551E060E070E08F
:1043D00084E298E00E94264910E000E020E040914D
:1043E000E50B60E083E490E00E94FB0420E0409154
:1043F000E50B60E08FE390E00E94FB0420E0409139
:10440000E50B60E084E490E00E94FB0440E951E0A9
:1044100060E070E080E198E00E94264940E456E0C8
:1044200060E070E086E098E00E94264910E000E03D
:1044300020E04091E50B60E08CE290E00E94FB04FC
:1044400020E04091E50B60E088E290E00E94FB04F0
:1044500020E04091E50B60E081E190E00E94FB04E8
:1044600060E08EE090E01F910F910C94B3068CE118
:104470008093E00385E08093E3030E94580848E7B7
:1044800050E060E070E080E09BE0CECF0F931F93A0
:104490000E94060C8091BF04882321F010922F0BFC
:1044A0001092300B10922C0810922D0860E087E1DA
:1044B0000E94484C1092CB041092CA0488E290E00B
:1044C0000E9485498CE290E00E9485498091C00459
:1044D000811108C08091D8039091D9030197C9F444
:1044E0000E94EC0810E000E020E04091E50B60E065
:1044F00081E090E00E94FB048091990B90919A0BCF
:10450000892B71F481E00E94DE051F910F910C94BC
:10451000AA0C86E090E09093010280930002E2CF23
:1045200081E00E94DE058091990B90919A0B019792
:1045300061F70E947F080297029738F70E9453079D
:10454000E4CF1F93162F81508431E0F4E82FF0E080
:104550008827E255FD4D8F4F0C94047A6E23E52297
:10456000E822EA22ED22F022F322F622F922FC22AE
:10457000FF220223052308230B230E232D23472389
:104580005E23C62210E090E030E004C09091060265
:1045900030910702832F880F880F880F25E5782F29
:1045A000729F070E70E0711D1124532F5074432F1A
:1045B000407237FDEFC05111D9C0411192C0872F11
:1045C0008095672F782F80E090C09FEF34EFE2CF87
:1045D0009FEFDACF9FEF35E0DDCF9FEF3AE0DACF04
:1045E0009FEF3FE0D7CF9FEF34E1D4CF9FEF30E292
:1045F000D1CF9FEF30E4CECF9FEF30E6CBCF98E71F
:1046000030E7C8CF9FEF30E8C5CF9FEF31E9C2CF89
:104610009FEF30EABFCF9FEF30ECBCCF80917F039C
:10462000882321F0803611F010927F0380917E0361
:104630008F5F80937E0380FD0CC080917F0381118A
:1046400006C080E680937F0310927E0302C0109222
:104650007F0330917F039FEF9DCF80917F03803256
:1046600029F0803C19F080E280937F0380917E03E3
:104670008F5F80937E0380FDECCF80917F0380323B
:1046800011F480ECDFCF80E280937F03E2CF809152
:104690007E038F5F80937E0380FD0CC080917F033B
:1046A00090E005966FEF70E00E94F07980937F03B1
:1046B00010927E0330917F0390E86CCF80917E034F
:1046C0008F5F80937E0380FDC4CF80917F0390E055
:1046D00005966FEF70E00E94F079B4CF90E034E679
:1046E00059CF65E5670F80E07BEA9F3F09F421C061
:1046F000992309F472C0292F209530E0222329F054
:10470000229F312D112421113F5F232F2095729F6D
:10471000070E70E0711D629F060E60E0611D482F5C
:10472000429F040E40E0411D842F1124730F630F3C
:10473000830F1F3FC9F020E0112321F0119F212D8D
:1047400009F02F5F222309F44CC0729F070E70E01E
:10475000711D629F060E60E0611D382F329F030EAF
:1047600030E0311D832F11241F91089541110CC099
:10477000282F3AEA239F020E20E0211D11248BEA04
:10478000821B6AEA670F1ECF80E0672F6095872F34
:1047900070E0ABCF511112C041110CC0282F3AEA82
:1047A000239F020E20E0211D11246BEA621B85E588
:1047B000820FEECF872F809560E097CF411106C022
:1047C00025E5270F8BEA871B722FF6CF3AEA370FC2
:1047D00080E0822F871B732FEFCF8FEF6FEF7FEF7C
:1047E000A8CF80E060E070E0BFCF0F931F93CF931E
:1047F000DF9310E000E020E04091E50B60E084E40E
:1048000090E00E94FB041092D30B1092D40B1092F4
:10481000D50B1092D60B1092910B1092920B109216
:10482000930B1092940B85E0809311020E94060C6A
:104830001092CB041092CA040E940F0C10E08091D9
:104840000F02181790F4812F90E0EC01CC0FDD1FC0
:10485000C80FD91FC451DC4F6FEF80E00E94A12226
:10486000688379838A831F5FEACF43E050E060E08A
:1048700070E087EE9BE0DF91CF911F910F910C9438
:1048800026491F93CF93DF9310E080910F021817F2
:1048900090F4812F90E0EC01CC0FDD1FC80FD91FE1
:1048A000C451DC4F6FEF84E10E94A12268837983B9
:1048B0008A831F5FEACF43E050E060E070E087EE5C
:1048C0009BE0DF91CF911F910C9426490F931F938A
:1048D0008091C703880F880F8093C70387E00E94E9
:1048E0001F4C892B29F08091C70382608093C703F6
:1048F00086E00E941F4C892B29F08091C7038160BC
:104900008093C7038091C7038F708093C703482F9C
:1049100050E0FA01E055FD4F9081992309F4C4C39A
:104920002091C5033091C60394E0220F331F9A955E
:10493000E1F7282B352B3093C6032093C50333278B
:104940002B32310509F43EC02731310509F0ACC3E3
:1049500021E09091C803920F9093C8032091CA045C
:104960003091CB042730310509F4D6C42830310505
:1049700059F12530310509F024C78B3009F0C4C541
:1049800080911102843009F4A8C58091110283300E
:1049900009F0E1C58091BD049091BE04892B09F016
:1049A000DAC58091C50B9091C60B892B09F0D3C550
:1049B0000E94A8078111CFC50E94625160E08BE37D
:1049C00090E0A0C52FEFC5CF8B30D1F48091BD040E
:1049D0009091BE040297E9F5809111028530C9F5E6
:1049E0008091C50B9091C60B892B99F58CE30E94A1
:1049F0001F4C019771F560E08FEA90E00E94B306CA
:104A00008091C703873009F04FC38091BD04909116
:104A1000BE04029709F44EC28091BD049091BE0479
:104A2000039709F060C280911102853009F05BC2E2
:104A30008091C50B9091C60B892B09F054C28CE371
:104A40000E941F4C019709F04EC260E084E890E09C
:104A500046C28091BD049091BE040397C9F0809135
:104A6000BD049091BE04039731F58091110284300A
:104A700011F58091C50B9091C60B892BE1F48CE365
:104A80000E941F4C0197B9F460E088E890E0B6CF2F
:104A900080911102853019F78091C50B9091C60B5A
:104AA000892BE9F68CE30E941F4C0197C1F660E068
:104AB00089E890E0A3CF8091BD049091BE04039754
:104AC00099F480911102833079F48091C50B909113
:104AD000C60B892B49F48CE30E941F4C019721F4EB
:104AE00060E087E890E08ACF8091BD049091BE0499
:104AF000039799F480911102823079F48091C50B6B
:104B00009091C60B892B49F48CE30E941F4C0197AE
:104B100021F460E086E890E071CF8091BD0490912F
:104B2000BE04039799F480911102813079F4809149
:104B3000C50B9091C60B892B49F48CE30E941F4C46
:104B4000019721F460E085E890E058CF8091BD04A2
:104B50009091BE04039799F480911102853079F405
:104B60008091C50B9091C60B019749F48CE30E948C
:104B70001F4C892B21F485E00E94E55141CF8091A3
:104B8000BD049091BE04039789F480911102843092
:104B900069F48091C50B9091C60B019739F48CE3B1
:104BA0000E941F4C892B11F484E0E6CF8091BD0454
:104BB0009091BE04039789F480911102833069F4C7
:104BC0008091C50B9091C60B019739F48CE30E943C
:104BD0001F4C892B11F483E0CFCF8091BD049091BD
:104BE000BE04039789F480911102823069F48091A8
:104BF000C50B9091C60B019739F48CE30E941F4CB2
:104C0000892B11F482E0B8CF8091BD049091BE044D
:104C1000039789F480911102813069F48091C50B6A
:104C20009091C60B019739F48CE30E941F4C892B9D
:104C300011F481E0A1CF80911102823008F038C1D7
:104C40008091BD049091BE048130910509F455C056
:104C500058F08230910509F499C0039709F4DFC038
:104C600081E080931102CCCE81E090E09093BE046D
:104C70008093BD0485E0809311026FEF70E088E0BF
:104C80000E94B24C61E08DE00E94484C61E08CE0F3
:104C90000E94484C70E060E089E00E94B24C8FE3D3
:104CA00090E00E94854910E000E020E04091E50B93
:104CB00060E08FE390E00E94FB0485EF90E00E94AB
:104CC000854986EF90E00E94854987EF90E00E9439
:104CD000854988EF90E00E94854989EF90E00E9425
:104CE000854920E04091E50B60E086EF90E00E946E
:104CF000FB0460E083E490E081CE82E090E090935A
:104D0000BE048093BD0485E0809311026FEF70E0D4
:104D100088E00E94B24C60E08DE00E94484C61E067
:104D20008CE00E94484C70E060E089E00E94B24C48
:104D30008FE390E00E94854910E000E020E0409180
:104D4000E50B60E08FE390E00E94FB0485EF90E0CC
:104D50000E94854986EF90E00E94854987EF90E0A8
:104D60000E94854988EF90E00E94854989EF90E094
:104D70000E94854920E04091E50B60E087EF90E0DC
:104D80000E94FB0460E084E490E038CE83E090E091
:104D90009093BE048093BD0485E0809311026FEF71
:104DA00070E088E00E94B24C60E08DE00E94484CC8
:104DB00060E08CE00E94484C70E060E089E00E9476
:104DC000B24C8FE390E00E94854910E000E020E0C3
:104DD0004091E50B60E08FE390E00E94FB0485EFDB
:104DE00090E00E94854986EF90E00E94854987EF18
:104DF00090E00E94854988EF90E00E94854989EF04
:104E000090E00E94854920E04091E50B60E088EF4A
:104E100090E00E94FB0460E085E490E0EFCD84E048
:104E200090E09093BE048093BD0485E080931102CE
:104E30006FEF70E088E00E94B24C60E08DE00E946D
:104E4000484C60E08CE00E94484C6FEF70E089E0D5
:104E50000E94B24C8FE390E00E94854910E000E090
:104E600020E04091E50B60E08FE390E00E94FB04BE
:104E700085EF90E00E94854986EF90E00E94854989
:104E800087EF90E00E94854988EF90E00E94854975
:104E900089EF90E00E94854920E04091E50B60E0B9
:104EA00089EF90E00E94FB0460E086E490E0A6CDEC
:104EB0008150D7CE80911102853009F0ADCD80911F
:104EC000C50B9091C60B892B09F0A6CD8CE30E94EF
:104ED0001F4C019709F0A0CD60E080EB90E01F919E
:104EE0000F910C94B3068091BD049091BE0403977A
:104EF00099F480911102843079F48091C50B9091DE
:104F0000C60B892B49F48CE30E941F4C019721F4B6
:104F100060E083E890E0E3CF8091BD049091BE040F
:104F2000039799F480911102833079F48091C50B35
:104F30009091C60B892B49F48CE30E941F4C01977A
:104F400021F460E082E890E0CACF8091BD049091A6
:104F5000BE04039799F480911102823079F4809114
:104F6000C50B9091C60B892B49F48CE30E941F4C12
:104F7000019721F460E081E890E0B1CF8091BD0419
:104F80009091BE04039799F480911102813079F4D5
:104F90008091C50B9091C60B892B49F48CE30E943C
:104FA0001F4C019721F460E080E890E098CF809159
:104FB000BD049091BE040397A1F480911102853045
:104FC00081F48091C50B9091C60B019751F48CE34D
:104FD0000E941F4C892B29F485E01F910F910C949E
:104FE000A4528091BD049091BE04039789F48091EE
:104FF0001102843069F48091C50B9091C60B019722
:1050000039F48CE30E941F4C892B11F484E0E5CF26
:105010008091BD049091BE04039789F480911102A0
:10502000833069F48091C50B9091C60B019739F4D8
:105030008CE30E941F4C892B11F483E0CECF80912A
:10504000BD049091BE04039789F4809111028230CF
:1050500069F48091C50B9091C60B019739F48CE3EC
:105060000E941F4C892B11F482E0B7CF8091BD04C0
:105070009091BE04039789F480911102813069F404
:105080008091C50B9091C60B019739F48CE30E9477
:105090001F4C892B11F481E0A0CF80911102853043
:1050A00030F48F5F809311021F910F9108958091CA
:1050B000BD049091BE048230910509F49EC028F48D
:1050C000019709F4E2C085E0EDCF8330910509F442
:1050D0004BC00497C1F783E090E09093BE048093A7
:1050E000BD0481E0809311026FEF70E088E00E94C0
:1050F000B24C60E08DE00E94484C60E08CE00E9481
:10510000484C70E060E089E00E94B24C8FE390E090
:105110000E94854910E000E020E04091E50B60E04E
:105120008FE390E00E94FB0485EF90E00E948549A8
:1051300086EF90E00E94854987EF90E00E948549C4
:1051400088EF90E00E94854989EF90E00E948549B0
:1051500020E04091E50B60E088EF90E00E94FB04C6
:1051600060E085E490E0BBCE82E090E09093BE04E6
:105170008093BD0481E0809311026FEF70E088E0BE
:105180000E94B24C60E08DE00E94484C61E08CE0EF
:105190000E94484C70E060E089E00E94B24C8FE3CE
:1051A00090E00E94854910E000E020E04091E50B8E
:1051B00060E08FE390E00E94FB0485EF90E00E94A6
:1051C000854986EF90E00E94854987EF90E00E9434
:1051D000854988EF90E00E94854989EF90E00E9420
:1051E000854920E04091E50B60E087EF90E00E9468
:1051F000FB0460E084E490E072CE81E090E0909364
:10520000BE048093BD04809311026FEF70E088E0CC
:105210000E94B24C61E08DE00E94484C61E08CE05D
:105220000E94484C70E060E089E00E94B24C8FE33D
:1052300090E00E94854910E000E020E04091E50BFD
:1052400060E08FE390E00E94FB0485EF90E00E9415
:10525000854986EF90E00E94854987EF90E00E94A3
:10526000854988EF90E00E94854989EF90E00E948F
:10527000854920E04091E50B60E086EF90E00E94D8
:10528000FB0460E083E490E02ACE1092BE0410920A
:10529000BD0481E08093110270E060E088E00E942C
:1052A000B24C61E08DE00E94484C61E08CE00E94CD
:1052B000484C70E060E089E00E94B24C8FE390E0DF
:1052C0000E94854910E000E020E04091E50B60E09D
:1052D0008FE390E00E94FB0485EF90E00E948549F7
:1052E00086EF90E00E94854987EF90E00E94854913
:1052F00088EF90E00E94854989EF90E00E948549FF
:1053000020E04091E50B60E085EF90E00E94FB0417
:1053100060E082E490E0E3CD8B3099F5809111025A
:105320008430B9F080911102833009F04AC0809135
:10533000C50B9091C60B019709F043C08CE30E9406
:105340001F4C892BF1F560E087E690E00E94B306E0
:1053500018C08091C50B9091C60B019719F78CE38B
:105360000E941F4C892BF1F6909107028091060252
:105370009230D0F18E3FC0F19150909307020E947D
:1053800041248091C703873009F08ECE80911102AD
:10539000843009F452C080911102833009F062C058
:1053A0008091C50B9091C60B019709F05BC08CE30F
:1053B0000E941F4C892B09F055C060E088E690E000
:1053C0008ECD809111028230D9F48091C50B9091DD
:1053D000C60B0197A9F48CE30E941F4C892B81F422
:1053E00060E086E690E0B2CF91E0909307028230D1
:1053F00020F0815080930602C2CF90930602BFCF67
:1054000080911102813079F48091C50B9091C60B87
:10541000019749F48CE30E941F4C892B21F460E032
:1054200085E690E093CF80911102823020F481E0F4
:1054300080931102A6CF8150FBCF8091C50B909134
:10544000C60B019709F0A7CF8CE30E941F4C892B54
:1054500009F0A1CF809106028E3FB8F48F5F809350
:1054600006021AC0809111028230F1F48091C50BBE
:105470009091C60B0197C1F48CE30E941F4C892BBD
:1054800099F460E089E690E02ACD809107028D3F93
:1054900038F48F5F809307021F910F910C94412481
:1054A0008EEF80930702DBCF80911102813079F477
:1054B0008091C50B9091C60B019749F48CE30E9433
:1054C0001F4C892B21F460E08AE690E008CD8091A2
:1054D0001102853008F0F7CDE4CD8091BD049091A4
:1054E000BE04892B09F051CA8091C50B9091C60B5F
:1054F000892B09F04ACA0E94A807811146CA60E0B8
:105500008AE490E00E94B3068091C703873009F0D7
:10551000CBCD80911102843009F4C8C08091110272
:10552000833009F0D9C08091BD049091BE04892BCD
:1055300009F0D2C08091C50B9091C60B892B09F060
:10554000CBC00E94A8078111C7C00E948E5160E0A5
:105550008AE390E0C4CC80911102833009F04DC001
:105560008091BD049091BE04892B09F046C08091C2
:10557000C50B9091C60B019709F03FC08CE30E94C8
:105580001F4C892BD1F58091A6048823B1F180911D
:105590002B02853008F080C010922B0280E490E04E
:1055A0000E9485494091E60B4A5010E000E020E05F
:1055B00060E080E490E00E94FB0480912B0223E2F3
:1055C000829FC001112464E670E00E94F07963526A
:1055D0006093E40B8091AC049091AD04892B49F069
:1055E000062E000C770B8091A9049091AA040E94CA
:1055F000554A60E08DE390E085CF809111028230C2
:1056000008F052C08091C6049091C704892B09F01C
:1056100047C08091BD049091BE04892B09F040C021
:1056200081E090E09093BE048093BD0485E0809378
:1056300011026FEF70E088E00E94B24C8FE390E0BF
:105640000E94854910E000E020E04091E50B60E019
:105650008FE390E00E94FB0485EF90E00E94854973
:1056600086EF90E00E94854987EF90E00E9485498F
:1056700088EF90E00E94854989EF90E00E9485497B
:1056800020E04091E50B60E086EF90E00E94FB0493
:1056900060E083E490E036CF855080932B028DCF7D
:1056A00081E08093110230CF8150FBCF8091BD0407
:1056B0009091BE04892B09F031CF8091C50B909158
:1056C000C60B892B09F02ACF0E94A807811126CF8B
:1056D00060E089E490E003CC80911102833009F00E
:1056E0004EC08091BD049091BE04892B09F047C043
:1056F0008091C50B9091C60B019709F040C08CE3D7
:105700000E941F4C892BD9F58091A6048823B9F1FA
:1057100080912B02803608F450C084E680932B02DF
:1057200080E490E00E9485494091E60B4A5010E0E9
:1057300000E020E060E080E490E00E94FB048091C3
:105740002B0223E2829FC001112464E670E00E94D4
:10575000F07963526093E40B8091AC049091AD04B6
:10576000892B49F0062E000C770B8091A9049091AB
:10577000AA040E94554A60E08CE390E0B0CB80918F
:105780001102853008F48DCC8091C6049091C70435
:10579000892B09F098CC8091BD049091BE040197AB
:1057A00009F091CC1092BE041092BD0481E0809368
:1057B000110270E060E088E07FCD8B5F80932B0268
:1057C000BECF2430310509F46FCC9091C5049111FE
:1057D0006BCC2330310599F490911302953009F088
:1057E000FFC080911302853009F45ECC23E030E0E5
:1057F00092C091E00EC0855080932B0263C08B3025
:1058000009F089C08091DD039091DE03019789F74B
:1058100092E0809113029817F0F52091C604309120
:10582000C70421303105B9F580930502815080937A
:1058300013028091D8039091D903019739F4809194
:10584000DB03882319F080E00E943C0C8091C104A6
:10585000882361F08091DB03882341F08091E40389
:105860009091E503019711F40E94080B0E946E1BB2
:105870008091A4049091A504029730F48091990B33
:1058800090919A0B892B29F40E948E0480E00E944B
:10589000DE050E94C7078091C6049091C704892B3A
:1058A00091F58091C3049091C404089761F18091AF
:1058B000A604882341F180912B02853008F09BCF0C
:1058C00010922B0280912B0223E2829FC0011124AF
:1058D00064E670E00E94F07963526093E40B80917B
:1058E000AC049091AD04892B49F0062E000C770B87
:1058F0008091A9049091AA040E94554A60E08DE32A
:1059000090E00E94B3062091CA043091CB0423306A
:10591000310509F466CF8091C703873009F0C4CB05
:1059200080911302853008F041C04091C604509127
:10593000C70441305105D1F5843019F423303105C5
:10594000A9F1809305028F5F809313028091D803A1
:105950009091D903019739F48091DB03882319F0E2
:1059600080E00E943C0C8091C104882361F080910A
:10597000DB03882341F08091E4039091E5030197D4
:1059800011F40E94080B0E946E1B0E947F08029770
:1059900030F48091990B90919A0B892B29F40E94F5
:1059A0008E0480E00E94DE050E94C7078091C60435
:1059B0009091C704892B09F077CB8091C304909113
:1059C000C404089709F470CB8091A604882309F4D5
:1059D0006BCB80912B02803608F4EFCE84E6EECEBE
:1059E0008B3009F0FECE0ECF1F93CF93DF93109232
:1059F000930A1092940A1092EB0384E680930902B2
:105A000010E080910F02181790F4812F90E0EC01C4
:105A1000CC0FDD1FC80FD91FC451DC4F6FEF80E0E2
:105A20000E94A122688379838A831F5FEACF60E0A6
:105A300088E10E94484C43E050E060E070E087EE6F
:105A40009BE0DF91CF911F910C9426490F931F93F8
:105A50008091CA049091CB04069709F4F0C080911C
:105A6000C8048111ECC060E082E090E00E94B306BF
:105A70008091C3049091C404089749F460E085E0E4
:105A800090E00E94B3061092C4041092C3048EE802
:105A900090E00E94854980E990E00E9485498DE868
:105AA00090E00E9485498FE890E00E94854981E955
:105AB00090E00E94854982E990E00E94854984E94E
:105AC00090E00E94854983E990E00E94854981E049
:105AD00080930A0280910302882311F10E947F08BB
