:100000000C94A0030C94D1030C94D1030C94D10351
:100010000C94D1030C94D1030C94D1030C94D10310
:100020000C94D1030C94D1030C94D1030C94D10300
:100030000C94D1030C94D1030C94D1030C94D103F0
:100040000C94D1030C94D1030C94D1030C94D103E0
:100050000C94D1030C94D1030C94D1030C94F76C41
:100060000C94D1030C944B6E0C94216E0C94D10320
:100070000C94D1030C94D1030C94D1030C94D103B0
:100080000C94D1030C94D1030C94D1030C94D103A0
:100090000C94F76D0C94CD6D0C94D1030C94EF700F
:1000A0000C94D1030C94D1030C94D1030C94D10380
:1000B0000C94D1030C94D1030C94D1030C94D10370
:1000C0000C94D1030C94D1030C94D1030C94D10360
:1000D0000C94D1030C94D1030C94A36D0C94796D02
:1000E0000C94D1030C944A540C945D6B0C944830DE
:1000F0000C9469640C9415040C9441210C94102107
:100100000C94593B0C94B9660C94C9240C94671751
:100110000C94B1210C94F3550C9463060C942E4B63
:100120000C94184B0C9473650C946C060C94F66448
:100130000C9465250C94CE380C944D540C94B35209
:100140000C9458170C94F7520C9484420C947E171C
:100150000C9440660C94383B0C945B3B0C949C26AE
:100160000C9464170C945B170C940E540C94DB6283
:100170000C9464350C94FF610C9463480C949123A7
:100180000C94B8620C9404180C9442170C945922E5
:100190000C94CD250C9420170C942E640C941C43C5
:1001A0000C9481170C94A3060C94DB420C94F77CFE
:1001B0000C94496B0C9477170C94AE640C94324BEE
:1001C0000C94126B0C940F040C9453440C941C6B01
:1001D0000C94356B0C944A170C9468640C94DB47B0
:1001E0000C94DE620C9447440C946B170C944D17DE
:1001F0000C9440300C949A060C945F640C946E1727
:100200000C9474170C94224B0C9431660C94B438F3
:100210000C9476460C94CF170C9427650C94B0641C
:100220000C9455640C943D170C94AD380C94F82341
:100230000C94B7520C943F3B0C948D220C94775342
:100240000C94D2380C94536B0C9419650C94433075
:100250000C9453660C9461240C9437240C94EA4754
:100260000C943E420C9401260C94F66A0C94B666EB
:100270000C9430660C9469260C946E5F0C94D162D9
:100280000C942B6B0C943D640C945D230C946117BF
:100290000C94F5220C9445170C9443640C94CB6A8F
:1002A0000C94C1220C94AF640C9432640C94EE6AEA
:1002B0000C944A300C9431250C94C36A0C94AC17FE
:1002C0000C9448170C94D40C0C942A4B0C9435269F
:1002D0000C9452170C94573B0C94D90C0C94C423D7
:1002E0000C9429230C945B640C945D3B0C94584350
:1002F0000C9432440C94144B0C94100D0C946B42DF
:100300000C944F170C94CF0C0C94C0650C94D438FB
:100310000C9445300C9436640C94E46A0C945A6640
:100320000C945E480C9418040C948F430C943A641B
:100330000C9455170C94DA6A0C94A4320C941F0494
:100340000C94E9430C94D8620C9428640C941B041C
:100350000C9468170C94B70C0C94264B0C946364A3
:100360000C947D210C9418440C941C0D0C947B1758
:100370000C943F6B0C9425220C94D0380C94476459
:100380000C94DE0C0C945F3B0C94E5470C94280D08
:100390000C94D06A0C945E170C944D640C946D64AC
:1003A0000C94BC430C9471170C9409040C9487664C
:1003B0000C9495240C9422480C94460D0C94516492
:1003C0000C94AD420C9405650C94FE340C94E91722
:1003D0000C94D0260C94F1210C94E1620C94FE6AEA
:1003E0000C94086B0C94CC380C94FD240C94992537
:1003F0000C94030D4505152535443424140443336A
:100400002313030212223242413121110100102034
:10041000304040302010000111213141423222127F
:1004200002031323334304142434443525150545AE
:100430003738393A3B3B3A39383700102030011110
:1004400021310212223203132333041424340515FC
:100450002535061626363626160635251505342486
:1004600014043323130332221202312111013020EC
:10047000100000060C12181D00040B10161B0000C3
:100480000000000000000000000001010101010166
:100490000101020202020202030303030404040432
:1004A00005050505060606070707080808090909DE
:1004B0000A0A0B0B0B0C0C0D0D0E0E0F0F1010116A
:1004C0001112121313141415151617171818191AD8
:1004D0001A1B1C1C1D1E1E1F202021222323242525
:1004E00026262728292A2A2B2C2D2E2F2F30313251
:1004F00033343536373838393A3B3C3D3E3F40415E
:10050000424344454647494A4B4C4D4E4F50515249
:100510005455565758595B5C5D5E5F616263646613
:100520006768696B6C6D6F70717374757778797BC0
:100530007C7E7F808283858688898B8C8E8F91924A
:10054000949597989A9B9D9EA0A2A3A5A6A8AAABB6
:10055000ADAFB0B2B4B5B7B9BABCBEC0C1C3C5C700
:10056000C8CACCCECFD1D3D5D7D9DADCDEE0E2E42D
:10057000E6E8E9EBEDEFF1F3F5F7F9FBFDFF001924
:100580001830011A172F021B162E031C152D041DDF
:10059000142C051E132B061F122A072011290821CF
:1005A000102809220F270A230E260B240D250001EF
:1005B00002030405060708090A0B0C0D0E0F1011A3
:1005C00012131415161718191A1B1C1D1E1F202193
:1005D000222331302F2E2D2C2B2A292827260000CC
:1005E00000006410B71DC8206E3BAC30D926904186
:1005F000DC76F4516B6B5861B24D3C710550208331
:10060000B8ED44930FF0E8A3D6D68CB361CBB0C25B
:10061000649BD4D2D38678E20AA01CF2BDBD000050
:100620002100240027002A002D00300033000101A2
:100630000000040107010A01000022002500280033
:100640002B002E00310034000201000005010801DA
:100650000B01000020002300260029002C002F00A1
:10066000320000010000030106010901050505052E
:10067000070508080808020202020A0A080804041A
:100680000404010101010101010103030303030348
:100690000303040707070C0C0C0C0C0C0C0C0202D7
:1006A000020206060606060606060B0B0B0B0B0BD4
:1006B0000B0B010210202008081020401020408061
:1006C0000201020108040201010204081020408016
:1006D00080402010080402018004020180402010A4
:1006E00008040201080402010102040810204080ED
:1006F000010204081020408000000A0B02090C0DC2
:100700000E080703040100000000000000000000C4
:1007100000000000000000000000000000000000D9
:100720000000000012111000000000000000000096
:100730000000000000000000000000000000F77C46
:1007400011241FBECFEFD1E2DEBFCDBF00E00CBF52
:1007500012E0A0E0B2E0E0EFF5E101E00BBF02C083
:1007600007900D92AE3DB107D9F72CE0AEEDB2E0A7
:1007700001C01D92A83CB207E1F713E0C0EAD3E044
:1007800000E006C021970109802FFE010E94BD896B
:10079000CF39D10780E00807A9F70E94CC7F0C94DD
:1007A000F68A0C940000909138039C3131F4E82FC4
:1007B000F0E0E858FB4F849108959E3129F4E82F2A
:1007C000F0E0EE58FB4FF7CF81E008952091380319
:1007D00090912603E82FF0E02C3149F4992321F081
:1007E000EA5AFB4F84910895E65CFB4FFBCF2E3114
:1007F00041F4992319F0EE5EFB4FF4CFEC50FC4F1F
:10080000F1CF992319F0EB5CFB4FECCFE05DFB4F90
:10081000E9CF80911A038F5F80931A030895809126
:1008200019038F5F80931903089590E080E0089585
:10083000FC0164870895FC01848590E00895FC0123
:1008400086859785089510920F0384E680930302AE
:100850001092100345E050E060E070E082E095E027
:100860000C94AB700E94C96CEBEEF2E0119283E045
:10087000E930F807D9F70895E2E0F1E080818F7D53
:10088000808380818F7B80831098119880E00E9404
:100890004D4B80E00E94D64AECE6F4E010861186CB
:1008A00008952091340330913503A9014350510933
:1008B0004230510518F02630310511F4882399F1A2
:1008C00090910A0220910902921303C0811118C06D
:1008D00008952917A8F481E08093090344E250E0C9
:1008E00060E070E09330D9F070F44EE150E060E0E9
:1008F00070E09230A1F049E150E060E070E00FC09C
:1009000010920903EBCF4DE250E060E070E09430CC
:1009100031F04CE350E060E070E0953061F78AE23E
:1009200095E00C94AB700895CF93C82F84E0C53048
:1009300070F10E94E60360E00E94E66981E0809326
:10094000EA0283E00E94E60360E00E94E66981E03B
:100950008093E90282E00E94E60360E00E94E6697B
:1009600081E08093E80281E00E94E60360E00E945B
:10097000E66981E08093E70280E00E94E60360E0A0
:100980000E94E66981E08093E602CF9108950E947B
:10099000E60361E00E94E6691092EA02C43089F23F
:1009A00083E00E94E60361E00E94E6691092E9029A
:1009B000C33081F282E00E94E60361E00E94E669B2
:1009C0001092E802C23079F281E00E94E60361E011
:1009D0000E94E6691092E702C111CECF80E00E942A
:1009E000E60361E00E94E6691092E602CECFAF9284
:1009F000BF92DF92EF92FF920F931F93CF93DF93FB
:100A000084E994E00E947B70882341F040E951E042
:100A100060E070E084E994E00E94AB70809138035C
:100A2000D0E08E3109F0D2E084E994E00E94357084
:100A3000683C71058105910508F0EFC0C091E9039C
:100A4000CC2391F08091340390913503069759F4AB
:100A500080910B02853039F4C1E080914003909180
:100A60004103892B09F0C0E080912F03909130035E
:100A70000197029788F4809134039091350306978B
:100A800059F480910B02853039F4809140039091A4
:100A90004103019709F4C1E0809161048A3B69F444
:100AA0008091340390913503069739F411E08091D9
:100AB000400390914103892B09F010E080913803A5
:100AC000853009F477C095E0D92E8E3111F084E09D
:100AD000D82ECC2309F43FC0C0E08EE190E05C0149
:100AE000AD1AB108D1E08C2F90E08A159B05ECF48B
:100AF0009C0125513D4F7901CC2379F0112311F050
:100B0000CD1510F0C93148F08C2F0E94E6030E94E9
:100B1000A069F701D083CF5FE6CF8C2F0E94E60358
:100B20000E948269F7011082F6CF809138038E31DE
:100B300039F48DE10E94E6030E9482691092080355
:100B4000DF91CF911F910F91FF90EF90DF90BF90B9
:100B5000AF900C94D36C112311F1C1E08EE190E0C1
:100B60007C01ED1AF108D1E00C2F10E00E151F05E5
:100B70003CF705511D4F8C2FCC2351F0CD1540F47F
:100B80000E94E6030E94A069F801D083CF5FECCFFA
:100B90000E94E6030E948269F8011082F7CFDF917C
:100BA000CF911F910F91FF90EF90DF90BF90AF908A
:100BB0000C94320480E0112341F10E94E60360E0CE
:100BC0000E94E66981E00E94E60361E00E94E66916
:100BD00082E00E94E60361E00E94E66983E00E94F1
:100BE000E60361E00E94E66984E0CC2391F00E9474
:100BF000E60360E0DF91CF911F910F91FF90EF909E
:100C0000DF90BF90AF900C94E6690E94E60361E02C
:100C1000D7CF0E94E60361E0EDCF80910B028330D5
:100C200009F4DCC080F4813009F43EC1823009F45B
:100C30000CC1DF91CF911F910F91FF90EF90DF904A
:100C4000BF90AF900895843009F48BC0853089F748
:100C500020913803253009F478C08D2F90E0C1E051
:100C60002E3109F03BC02EE130E07901E81AF90A93
:100C7000D1E00C2F10E00E151F050CF061CFEBEF4B
:100C8000EC0FE93100F5F0E08827E65BF94F8F4F74
:100C90000C94BD896C066C066306630663066306E6
:100CA0006C066C0663066306630663066C066C06D8
:100CB00063066306630663066C066C0663066306DA
:100CC000630663066C068C2F0E94E6030E94A069EF
:100CD000F801E551FD4FD083CF5FCBCF2EE130E05F
:100CE0007901E81AF90AD1E00C2F10E00E151F0562
:100CF0000CF026CFECEFEC0FE531E0F4F0E08827C4
:100D0000EB57F94F8F4F0C94BD89A306A306A3069A
:100D10009A069A069A06A306A306A3069A069A06B8
:100D20009A06A306A306A3069A069A069A06A3069F
:100D3000A306A3068C2F0E94E6030E94A069F80177
:100D4000E551FD4FD083CF5FCFCF85E0DF91CF91CD
:100D50001F910F91FF90EF90DF90BF90AF900C9498
:100D60009404809138038530B9F1C1E0D0E011E0FE
:100D70008E31C9F48C2FCD3048F49BEF9C0FCB30D3
:100D800038F02196C731D105A9F7DACE9C2F9151C1
:100D90009230B8F30E94E6030E94A069FE01E5517B
:100DA000FD4F1083EECF8C2FCD3048F49CEF9C0F7D
:100DB000CA3038F02196C631D105A9F7C1CE9C2F93
:100DC00090519330B8F30E94E6030E94A069FE019F
:100DD000E551FD4F1083EECF84E0B8CF809138030A
:100DE000853089F1C1E0D0E011E08E31B1F48C2F73
:100DF000C53030F0C73060F095EF9C0F923040F076
:100E00000E94E6030E94A069FE01E551FD4F108398
:100E10002196C131D10559F793CE8C2FC43030F0D3
:100E2000C73060F096EF9C0F933040F00E94E603CD
:100E30000E94A069FE01E551FD4F10832196C0314B
:100E4000D10559F77DCE83E081CF8091380385307D
:100E500049F1C1E0D0E011E08E3191F48C2F855042
:100E6000823048F08C2F0E94E6030E94A069FE01A8
:100E7000E551FD4F10832196CB30D10579F760CE37
:100E80008C2F8450833048F08C2F0E94E6030E9400
:100E9000A069FE01E551FD4F10832196CA30D105AE
:100EA00079F74ECE82E052CF809138038530F1F051
:100EB0000CEE12E0C1E0D1E08E3161F48C2F0E9483
:100EC000E6030E94A069F801D1938F01CF5FC5307E
:100ED000A9F736CE8C2F0E94E6030E94A069F80184
:100EE000D1938F01CF5FC430A9F72ACE81E02ECFF6
:100EF000EF92FF920F931F93CF93DF93809138036C
:100F0000853019F120E08E3109F022E0C0E08EE159
:100F100090E07C01E21AF108D1E00C2F10E00E15F0
:100F20001F055CF48C2F0E94E6030E94A069F80163
:100F3000E551FD4FD083CF5FF0CFDF91CF911F916F
:100F40000F91FF90EF900C94D36C85E0DF91CF91DF
:100F50001F910F91FF90EF900C949404EF92FF92E9
:100F60000F931F93CF93DF9300D01F921F92CDB7A3
:100F7000DEB780913803853009F4EEC08AE295E04F
:100F80000E947B70882309F45EC08091380312E0D0
:100F90008E3109F410E085E0E1E3F2E0DE01119624
:100FA00001900D928A95E1F780914C0390914D0349
:100FB000019731F48AE089838A838B838C838D83C4
:100FC00080911103282F30E04EE150E07A01E11AC0
:100FD000F10890910903992309F45FC02E153F058C
:100FE0005CF40E94E6030E94DE6CE0911103F0E0E5
:100FF000E551FD4F81E0808380910A028530E9F55B
:10100000809111038E151F0451F14CF110920903C8
:101010008EE1811B8093110380914C0390914D03CD
:101020004AE550E060E070E0019711F5109232055A
:101030001092330580910903882329F080911103D0
:101040008F5F809311030F900F900F900F900F9070
:10105000DF91CF911F910F91FF90EF9008954D81F7
:1010600084E0489FA0011124052E000C660B770B2D
:101070008AE295E00E94AB70DDCF0E94D30390918D
:101080001103981718F010920903C6CFE0910A02D5
:10109000EC0FFD2FF11D4081E3CF2E153F0554F4D9
:1010A0000E94E6030E94D76CE0911103F0E0E55145
:1010B000FD4F108210911103111116C081E0809331
:1010C00009034AE550E060E070E08AE295E00F90A5
:1010D0000F900F900F900F90DF91CF911F910F9174
:1010E000FF90EF900C94AB7011501093110301E03E
:1010F000809138038E3109F400E080910A0220913A
:101100004C0330914D038530A9F42130310541F471
:101110001E151F042CF4109232051092330593CF44
:101120004D8184E0489FA0011124052E000C660B20
:10113000770BCBCF2130310541F40E94D303800FD0
:101140009927991F1817190634F3E0910A02EC0F3A
:10115000FD2FF11D4081E5CF80910A028330C9F057
:1011600080F48230A1F081E00F900F900F900F90EB
:101170000F90DF91CF911F910F91FF90EF900C9402
:101180009404843041F0853071F785E0EDCF82E042
:10119000EBCF83E0E9CF84E0E7CFDF92EF92FF92DD
:1011A0000F931F93CF93DF939091380380910A029E
:1011B000953009F459C0D2E09E3109F4D0E02D2FCA
:1011C00030E0C0E0853029F58EE190E07C01E21A44
:1011D000F30ADD24D3940C2F10E00E151F055CF4E8
:1011E0008C2F0E94E6030E94A069F801E551FD4F93
:1011F000D082CF5FF0CF0E94D36C8EE18D1B8093A5
:101200001103DF91CF911F910F91FF90EF90DF902D
:1012100008958EE190E07C01E21AF30AD1E00C2FF0
:1012200010E00E151F05CCF480910A020E94D30332
:1012300005511D4F8C1748F08C2F0E94E6030E9429
:10124000A069F801D083CF5FEACF8C2F0E94E6031C
:101250000E948269F8011082F6CF0E94D36C8091BF
:101260000A020E94D303CBCF8330A9F060F482300E
:1012700081F081E0DF91CF911F910F91FF90EF906E
:10128000DF900C949404843041F0853091F785E030
:10129000F1CF82E0EFCF83E0EDCF84E0EBCF809120
:1012A0004C0390914D03019739F480E190E09093C5
:1012B000050280930402089583E090E09093050274
:1012C000809304028091340390913503049761F078
:1012D00080912C0390912D03019769F7809136033B
:1012E00090913703892B39F786E090E0E0CF809129
:1012F0003803853021F00E943204109211030895C2
:10130000ECE3F7E0108611861092150370E060E0C0
:101310008BE00C948B6ACF93C82F4091420350917D
:1013200043034330510579F180911002882359F12C
:1013300020913403309135032430310521F180911F
:101340002E03882301F18091A6044230510571F5E6
:101350002330310581F4809115039091A6049111F9
:1013600015C0C81749F1C09315036C2F70E08BE0CE
:10137000CF910C948B6A882331F08EE994E00E941F
:101380007B70882341F3CF910C9480096C2F70E01F
:10139000660F771F6F3F710519F014F06FEF70E063
:1013A0008617170649F060931503E1CF811106C037
:1013B000809115038C13D7CFCF9108958EE994E0D7
:1013C0000E947B708111F4CF6C2F70E0660F771F45
:1013D0006F3F710519F014F06FEF70E08091150305
:1013E000DFCFCF93809138038C3109F04BC18091CE
:1013F00011038C3130F1883308F050C0C8E3C81BAA
:101400008091340390913503049709F059C00E94EC
:1014100080098C2F0E94E6030E94D76CEC2FF0E02D
:10142000E551FD4F108280911103873309F04EC1C1
:101430001092610510926205109209031092110337
:101440002DC00E94E6030E94DE6C80911103E82FFC
:10145000F0E0E551FD4F91E09083873108F18FE591
:101460000E948B09809111038F5F809311038C314F
:1014700009F053C14AE550E060E070E089E595E08D
:101480000E94AB7080914C0390914D03019731F411
:1014900088E090E09093050280930402CF91089534
:1014A000813110F087E3DCCF8C3010F08DE2D8CFA3
:1014B000853010F083E2D4CF8823A1F289E1D0CF28
:1014C00080914C0390914D0320910A02253018F42D
:1014D0008130910511F0892B51F48C2F0E94E60385
:1014E0000E94D76CEC2FF0E0E551FD4F1082809107
:1014F0004C0390914D030097F9F0019779F6809194
:101500000A02833009F475C098F5823009F48FC05F
:101510008FE00E948B0990911103923309F0A5C0CE
:1015200010926105109262051092090384E0809385
:101530001103CF910C944F0980911103873309F067
:1015400049C144E050E060E070E08AE295E00E942A
:10155000AB70109261051092620581E080930903DF
:10156000109211030E944F098FE0CF910C948B09C8
:10157000843009F1853061F690911103973389F435
:101580001092320510923305109261051092620597
:10159000109209038BE1809311030E944F0988E2A6
:1015A000E4CF109261051092620581E080930903F7
:1015B00087E3891BF0CF90911103903269F4109268
:1015C0006105109262051092090386E18093110370
:1015D0000E944F098DE2C9CF913208F43AC11092AE
:1015E00061051092620581E08093090387E3891BFE
:1015F000EDCF90911103963269F41092610510922B
:1016000062051092090380E1809311030E944F0943
:1016100089E1ABCF973208F448C11092610510926E
:10162000620581E08093090387E3891BEDCF9091E8
:1016300011039B3269F410926105109262051092B9
:1016400009038BE0809311030E944F0984E18DCF41
:101650009C3208F44EC1109261051092620581E03F
:101660008093090387E3891BEDCF933308F4B2C05D
:10167000109261051092620581E08093090387E36F
:10168000891B55CF8E3109F054C1809111038E31E1
:1016900058F18C3308F002CFCBE3C81B80913403A0
:1016A00090913503049709F057C00E9480098C2F50
:1016B0000E94E6030E94D76CEC2FF0E0E551FD4F4D
:1016C0001082809111038B3309F4B2CE40E550E0D3
:1016D00060E070E089E595E00E94AB7080911103B5
:1016E0008F5F80931103DACE0E94E6030E94DE6CC6
:1016F00080911103E82FF0E0E551FD4F91E09083D8
:101700008831D0F08FE50E948B09809111038F5FA3
:10171000809311038E3109F4ADCE409104025091B3
:101720000502440F551F440F551F70E060E089E526
:1017300095E0CF910C94AB70823110F087E3E3CF4A
:101740008C3010F08DE2DFCF863010F083E2DBCFFB
:101750008823D9F289E1D7CF80914C0390914D0332
:1017600020910A02253018F48130910511F0892B5F
:1017700051F48C2F0E94E6030E94D76CEC2FF0E00E
:10178000E551FD4F108280914C0390914D030097DD
:10179000E1F0019709F082CE80910A02833009F4CA
:1017A0006DC018F5823009F495C08FE00E948B0956
:1017B00090911103953309F0B0C010926105109219
:1017C00062051092090385E0B2CE809111038B333C
:1017D00009F4B7CE4091040250910502440F551F01
:1017E000440F551F70E060E075CF8430D9F085302C
:1017F000E1F6909111039B3361F41092320510923F
:1018000033051092610510926205109209038DE173
:10181000C2CE109261051092620581E080930903A7
:101820008BE3C7CE90911103933241F4109261057E
:10183000109262051092090387E1C8CE943248F0F5
:10184000109261051092620581E0809309038BE399
:10185000CECE4091040250910502440F551F440F13
:10186000551F70E060E089E595E00E94AB708091C3
:1018700011038F5F809311038BE177CE9091110359
:10188000993241F410926105109262051092090399
:1018900081E1BACE9A3248F0109261051092620549
:1018A00081E0809309038BE3C0CE40910402509104
:1018B0000502440F551F440F551F70E060E089E595
:1018C00095E00E94AB70809111038F5F80931103AC
:1018D00083E24BCE909111039F3209F4ACCE48F0D5
:1018E000109261051092620581E0809309038BE3F9
:1018F000BACE4091040250910502440F551F440F87
:10190000551F70E060E089E595E00E94AB70809122
:1019100011038F5F809311037BCE963308F45ACF67
:10192000109261051092620581E0809309038BE3B8
:10193000A7CE8091340390913503C1E0049709F458
:10194000C2E0E0911203EA3008F0A8CDF0E0882769
:10195000E355F34F8F4F0C94BD89B70CCF0CD40CCB
:10196000D90CDE0C030D100D1C0D280D460D89E160
:101970000E948B0981E00E94940488E7C89FA0011F
:101980001124052E000C660B770B89E595E00E946B
:10199000AB70809112038F5F809312037FCD83E23F
:1019A0000E948B0982E0E7CF8DE20E948B0983E0E1
:1019B000E2CF87E30E948B0984E0DDCF8FE50E94B0
:1019C0008B0985E00E94940480911203282F30E057
:1019D0002F5F3F4F90910A029217130641F4209116
:1019E0003403309135032430310509F048C08F5F4E
:1019F0008093120388E7C89FA0011124052E000CD4
:101A0000660B770B94CE87E30E948B0984E00E94DB
:101A1000940480911203482F4150550B9A01DACF5C
:101A20008DE20E948B0983E00E949404809112034E
:101A3000482F4350550BF2CF83E20E948B0982E07E
:101A40000E94940480911203482F4550550BE6CF15
:101A500089E10E948B0981E00E9494048091120325
:101A60008750990B20910A022817190609F085CF93
:101A70008091340390913503049709F47ECF10923E
:101A80006105109262051092120308CD80E00E9459
:101A90009404F5CF809136039091370381309105FE
:101AA00039F48091340390913503892B79F00895AE
:101AB000892B39F58091340390913503892B09F5F1
:101AC00080912C0390912D030197D9F40E947709FE
:101AD00010929C0410929D0480912503811111C0E5
:101AE0000E944F0980913803853049F080914C0362
:101AF00090914D03019719F480E00E9451040C94D9
:101B0000F109089580913E0390913F038230910541
:101B100081F038F4019799F080913A0390913B035A
:101B200008958330910541F00497B1F783E090E088
:101B3000089581E090E0089582E090E0089590E0BB
:101B400080E00895109228051092290510921E0534
:101B500010921F058091220381110BC00E94820DFB
:101B600002970297A0F48091360390913703019772
:101B700071F4109A0E94820D0297029730F48091BE
:101B8000360390913703019721F01198089510982A
:101B9000F1CF119A08950F931F93CF93DF9300D045
:101BA00000D0CDB7DEB78FEF9FEFDC0189839A833A
:101BB000AB83BC8310E000E01E830D83BE016B5F2E
:101BC0007F4FCE0101960E94756EBE016A5F7F4F06
:101BD000CE0101960E94756E0F5F1F4F03321105F3
:101BE00059F78EE190E09E838D83BE016B5F7F4F3E
:101BF000CE0101960E94756EBE016A5F7F4FCE01D5
:101C000001960E94756E85E090E09E838D83BE01F3
:101C10006B5F7F4FCE0101960E94756EBE016A5FB9
:101C20007F4FCE0101960E94756E69817A818B810A
:101C30009C81609570958095909526960FB6F89446
:101C4000DEBF0FBECDBFDF91CF911F910F910895E1
:101C50008091F9039091FA030197039710F40C9483
:101C6000466708958091F9039091FA0301970397CD
:101C700008F01DC160915E04062E000C770B8CE30A
:101C800090E00E94E96660915E04062E000C770BDE
:101C90008AE691E00E94E96660915E04062E000CDF
:101CA000770B8BE691E00E94E96660915E04062E58
:101CB000000C770B81E290E00E94E96660915E047F
:101CC000062E000C770B8DE190E00E94E966609192
:101CD0005E04062E000C770B8EE190E00E94E96610
:101CE00060915E04062E000C770B8FE190E00E945D
:101CF000E96660915E04062E000C770B80E290E0AE
:101D00000E94E96660915E04062E000C770B83E961
:101D100091E00E94E96660915E04062E000C770B4C
:101D200084E991E00E94E96660915E04062E000C51
:101D3000770B87E491E00E94E96680912203882373
:101D4000D9F160915E04062E000C770B809132036E
:101D5000909133038230910509F4A3C0833091053B
:101D600059F1019709F4A0C08EE791E00E94E9665D
:101D700060915E04062E000C770B89E891E00E94CA
:101D8000E96660915E04062E000C770B83E690E016
:101D90000E94E96660915E04062E000C770B88E4D1
:101DA00090E00E94E96660915E04062E000C770BBD
:101DB00082E690E00E94E96660915E04062E000CC7
:101DC000770B8EE890E00E94E96660915E04062E33
:101DD000000C770B80E990E00E94E96660915E0458
:101DE000062E000C770B8DE890E00E94E96660916A
:101DF0005E04062E000C770B8FE890E00E94E966E7
:101E000060915E04062E000C770B83E990E00E943F
:101E1000E96660915E04062E000C770B81E990E084
:101E20000E94E96660915E04062E000C770B82E941
:101E300090E00E94E96660915E04062E000C770B2C
:101E400084E990E00E94E96660915E04062E000C31
:101E5000770B82E190E00E94E96660915E04062EB5
:101E6000000C770B83E190E00E94E96660915E04CC
:101E7000062E000C770B84E190E00E94E9666091E9
:101E80005E04062E000C770B85E190E00E94E96667
:101E900060915E04062E000C770B86E190E00C94B6
:101EA000E96684E390E086CF8AE390E083CF0895EB
:101EB0008091F9039091FA030197039798F4809128
:101EC000E4039091E503892B59F08091E60390910A
:101ED000E703843F21E0920718F064E00E94BB66AC
:101EE0000E9446671092E8031092EA0308958091D9
:101EF000E4039091E503892B09F45DC08091E6032A
:101F00009091E703843F21E0920708F454C021E058
:101F10002093EA032091F9033091FA03223031052E
:101F200069F12330310519F021303105F9F42091A0
:101F3000E90365E0211101C066E00E94BB66609183
:101F40005D04062E000C770B8091E6039091E70369
:101F50000E94E96661E08091E6039091E7030E94A8
:101F600017670E94466781E080935C0440E25EE46C
:101F700060E070E082E694E00C94AB702091E9039D
:101F800065E0211101C066E00E94BB6660915D04BE
:101F9000062E000C770B8091E6039091E7030E94D8
:101FA000E96650E040E061E08091E6039091E7034C
:101FB0000E946268D6CF08952091F9033091FA0308
:101FC000215031092330310518F464E00C94BB66CC
:101FD00008958DE890E00E94DC0F8EE890E00E946A
:101FE000DC0F8FE890E00E94DC0F80E990E00E9417
:101FF000DC0F81E990E00E94DC0F82E990E00E9412
:10200000DC0F83E990E00E94DC0F84E990E00C94FF
:10201000DC0FCF93C82F80910A02823020F08430E9
:10202000B8F08630E0F081E290E00E94DC0FCC2333
:1020300029F1809132039091330382309105B1F000
:1020400083309105C1F00197C9F484E991E010C093
:1020500081E290E00E94DC0F8DE190E0E6CF8DE11F
:1020600090E00E94DC0F80E290E0DFCF83E991E016
:10207000CF910C94DC0F87E491E0FACFCF910895D3
:102080008091E202882309F441C01092E20290910B
:10209000520680914D06981321C066E082E190E0DF
:1020A0000E94BB6666E083E190E00E94BB6666E04A
:1020B00084E190E00E94BB6666E085E190E00E94CA
:1020C000BB6666E086E190E00E94BB6646ED56E0A6
:1020D00060E070E08CE095E00C94AB7082E190E001
:1020E0000E94DC0F83E190E00E94DC0F84E190E02D
:1020F0000E94DC0F85E190E00E94DC0F86E190E019
:102100000E94DC0F40E050E0BA01E4CF0895CF9286
:10211000DF92EF92FF920F931F93CF93DF936C01A7
:10212000F62EC42F14160CF4C0E0CA3B0CF4CAEB14
:102130008091F9039091FA038230910589F18330FF
:10214000910519F0019709F047C00C2E000CDD0B2A
:10215000222379F06AEB7FEFC6010E94E9666E2DBB
:10216000C6010E941767A801BE01C6010E949568BA
:1021700008C0BE01C6010E94E9666E2DC6010E941C
:10218000176765E0F11001C066E0C601DF91CF91ED
:102190001F910F91FF90EF90DF90CF900C94BB6652
:1021A0000C2E000CDD0B222361F06AEB7FEFC601E1
:1021B0000E94E96650E040E06E2DC6010E94626810
:1021C000D2CFBE01C6010E94E96650E040E06E2D0C
:1021D000C6010E946268D5CFDF91CF911F910F9108
:1021E000FF90EF90DF90CF900895EF920F931F93A1
:1021F000909102029817F9F08430C1F40E94820D88
:1022000040915E04EE24E39410E000E020E061E001
:102210000297A8F08AE691E00E94871044E650E019
:1022200060E070E080E295E00E94AB708091020275
:102230008F5F809302021F910F91EF9008958CE3BE
:1022400090E0EACFEF920F931F938091E3028823EF
:1022500069F10E94820D029778F589E491E00E946D
:10226000DC0F8CE491E00E94DC0F8DE491E00E9491
:10227000DC0F81E00E9409108091340390913503B6
:102280000497A1F080912303811110C081E190E0B7
:102290000E94DC0FEE24E39410E000E020E0409187
:1022A0005E0460E081E190E00E9487101092E302FA
:1022B0001F910F91EF900895809134039091350311
:1022C000049731F08091360390913703892B69F49C
:1022D000EE24E39410E000E020E040915E0460E032
:1022E00084E990E00E9487101EC080912303811131
:1022F0001AC049E557E060E070E084E995E00E948B
:10230000AB7010929205109293058091F903909111
:10231000FA03029789F440915E046EE870E082E966
:1023200090E00E94C9688FE890E00E94DC0F80E98D
:1023300090E00E94DC0FBACFEE24E39410E000E0BE
:1023400020E040915E0460E082E990E0CBCF809194
:102350003603909137038130910539F4809134032D
:1023600090913503892B79F00895892B61F580913F
:10237000340390913503892B31F580912C03909192
:102380002D03019701F50E9440100E94221181E067
:102390000E9409108091380390E08E3109F092E09C
:1023A0008EE1891B8093110385E0809312030E94C4
:1023B000780748E750E060E070E089E595E00E942A
:1023C000AB700C94F1090895EF920F931F930E9444
:1023D000E90F48EE56E060E070E084E995E00E9485
:1023E000AB708091F9039091FA03029771F44091D8
:1023F0005E046EE870E08DE890E00E94C96810927B
:1024000001021F910F91EF900895EE24E39410E0E4
:1024100000E020E040915E0460E08DE890E00E94E2
:102420008710EDCFEF920F931F93CF93C82F40915A
:102430005E0480910A02833020F0853028F18530D7
:1024400061F1EE24E39408EE13E02C2F61E081E2C9
:1024500090E00E948710CC23A9F1809132039091E3
:1024600033038230910511F18330910581F1019799
:1024700049F5EE24E39404E813E021E040915E0482
:1024800061E084E991E01CC0EE24E39408EE13E0DF
:102490002C2F61E08DE190E0DCCFEE24E39408EE98
:1024A00013E02C2F61E080E290E0D3CFEE24E394A0
:1024B00004E813E021E040915E0461E083E991E0EB
:1024C0000E948710CF911F910F91EF900895EE24F5
:1024D000E39404E813E021E040915E0461E087E4C6
:1024E00091E0EECFEF920F931F93CF93809134033F
:1024F000909135038430910509F4B3C0309197066B
:1025000020919206321384C1209112022223A9F055
:1025100020913203309133032230310509F4A6C0F3
:10252000039759F08091A604882309F49FC08EE98F
:1025300094E00E947B70811199C08FEF0E94D64A6F
:10254000C091E3020E94820DC1112AC0029708F0D7
:10255000ADC08091E10281111DC089E491E00E942B
:10256000DC0F8CE491E00E94DC0F0E94820D019749
:1025700009F091C08DE491E00E94DC0FEE24E39419
:1025800010E000E020E040915E0460E08DE491E026
:102590000E94871081E00E94121281E08093E30282
:1025A0000E94820D02970297C0F48AE895E00E948B
:1025B0007B70882391F08091F9039091FA03029740
:1025C00061F0EE24E39410E000E020E040915E042E
:1025D00061E080E990E00E9487101092E102909102
:1025E000520680914D0698130DC18091E20281112F
:1025F00038C08CE095E00E947B70882391F1809137
:10260000340390913503049761F18091E2028111C6
:1026100028C00E94820D029720910A02233009F4FB
:10262000CFC008F097C0223009F4B9C0029708F073
:10263000A6C080911102882309F4A1C0EE24E3947E
:1026400010E000E020E040915E0461E082E190E073
:102650000E94871081E08093E2021092140510928C
:102660001505CF911F910F91EF90089580910A0267
:10267000833069F020F4823061F086E65FCF8430E9
:1026800021F08530D1F78CEC59CF82EB57CF89E917
:1026900055CF80E853CFEE24E39410E000E020E033
:1026A00040915E0460E089E491E072CF10929C0555
:1026B00010929D0549E557E060E070E08AE895E0FA
:1026C0000E94AB702091010240915E048091F90359
:1026D0009091FA03222351F10297E9F460E970E046
:1026E00083E990E00E94C968109201028DE890E0B1
:1026F0000E94DC0F8EE890E00E94DC0F81E990E000
:102700000E94DC0F82E990E00E94DC0F84E990E0F7
:102710000E94DC0F42CFEE24E39410E000E020E0C2
:1027200060E083E990E00E948710DECF029739F4E1
:1027300060E970E08FE890E00E94C968D7CFEE248E
:10274000E39410E000E020E060E08FE890E00E9479
:102750008710CCCF243009F444C0253009F066CF6F
:10276000029768F480911102882349F0EE24E394E3
:1027700010E000E020E040915E0461E00DC0809137
:102780005306882309F466CFEE24E39410E000E0BA
:1027900020E040915E0460E086E190E059CF02972E
:1027A00070F780911102882351F3EE24E39410E036
:1027B00000E020E040915E0461E083E190E048CFDA
:1027C0000297E8F6809111028823C9F2EE24E3947F
:1027D00010E000E020E040915E0461E084E190E0E0
:1027E00037CF029760F680911102882341F2EE24E0
:1027F000E39410E000E020E040915E0461E085E1B8
:1028000090E026CFCF911F910F91EF900C94401044
:1028100080E00E94D64A0E944010CF911F910F91F4
:10282000EF900C942211EF920F931F9380914C0321
:1028300090914D03019709F064C080E190E090937E
:102840000502809304028BEF90E00E94DC0F8091E0
:10285000360390913703029709F47DC080912C03D1
:1028600090912D03009709F44FC0019731F48091A6
:102870006105811102C00E94F1098091020180620C
:102880008093020180910201806480930201409153
:1028900006025091070270E060E080E597E00E9438
:1028A000AB7081E00E944D4B1092280510922905D3
:1028B00010921E0510921F050E94820D009781F153
:1028C000019709F44CC089E491E00E94DC0FEE24EA
:1028D000E39410E000E020E040915E0460E089E4D1
:1028E00091E00E94871081E00E9412129091970659
:1028F00080919206981779F11F910F91EF900C94A7
:10290000E41186E090E09BCF0E94F1099091970638
:10291000809192069813B1CF81E08093E102ADCF10
:102920008CE491E00E94DC0F89E491E00E94DC0FCE
:1029300080912E03EE24E39410E000E020E040912B
:102940005E0460E0882319F08CE491E002C089E421
:1029500091E00E9487101F910F91EF9008958CE4F1
:1029600091E00E94DC0F8DE491E00E94DC0F8091E9
:102970002E03EE24E39410E000E020E040915E049A
:1029800060E0882331F09091970680919206981329
:10299000DBCF8DE491E0DDCFEF920F931F93809119
:1029A00017028823D1F0109217028DE590E00E9463
:1029B000DC0F8CE590E00E94DC0FEE24E39410E045
:1029C00000E020E040915E0460E08DE590E00E9430
:1029D00087101F910F91EF90089581E08093170267
:1029E0008DE590E00E94DC0F8CE590E00E94DC0F0A
:1029F000EE24E39410E000E020E040915E0460E00B
:102A00008CE590E0E4CFEF920F931F938091340315
:102A1000909135038630910509F451C008970297CB
:102A200008F44DC086E090E00E94DC0F80E390E067
:102A30000E94DC0F85E490E00E94DC0F86E490E0C9
:102A40000E94DC0F8CE290E00E94DC0F8EE390E0AD
:102A50000E94DC0F83E991E00E94DC0F84E991E0A1
:102A60000E94DC0F87E491E00E94DC0F809132032A
:102A7000909133038330910509F48FC0C8F58130FC
:102A8000910509F446C0029709F465C0EE24E39469
:102A900010E000E020E040915E0460E086E090E01D
:102AA0000E94871010920F0384E68093030245E092
:102AB00050E060E070E082E095E00E94AB708091B1
:102AC000F9039091FA030197029750F48091320331
:102AD00090913303039709F08DC080E00E945569FF
:102AE0001092B0041092B1041F910F91EF900895CD
:102AF0008530910509F473C0069741F6EE24E394FE
:102B000010E000E020E040915E0460E088E991E0A0
:102B1000C7CFEE24E39410E000E020E040915E0493
:102B200060E085E490E00E948710809136039091E8
:102B30003703019709F0B6CF9091970680919206DE
:102B40009813B0CF00ED17E021E040915E0461E002
:102B500084E991E0A5CFEE24E39410E000E020E0CA
:102B600040915E0460E080E390E00E9487108091D5
:102B7000360390913703019709F094CF909197060F
:102B80008091920698138ECF0CEB12E021E04091D9
:102B90005E0461E083E991E083CFEE24E39410E0EA
:102BA00000E020E040915E0460E086E490E00E9456
:102BB00087108091360390913703019709F072CF07
:102BC000909197068091920698136CCF02EE14E0D4
:102BD00021E040915E0461E087E491E061CFEE2462
:102BE000E39410E000E020E040915E0460E087E9BB
:102BF00091E056CF81E072CFEF920F931F9388E25E
:102C000090E00E94DC0FEE24E39410E000E020E06E
:102C100040915E0460E088E290E00E94871088E5C1
:102C200090E00E94DC0F85E690E00E94DC0F89E5D1
:102C300090E00E94DC0F20912C0330912D038091B5
:102C40002F039091300340915E0421303105F1F063
:102C500082309105D9F410922D0310922C0310921A
:102C6000300310922F0310922B0310922A0320E0BE
:102C700060E089E590E00E94871010923303109283
:102C800032031F910F91EF900C940315019799F463
:102C900082E090E09093300380932F0390932B0376
:102CA00080932A03EE24E39410E000E020E060E04B
:102CB00085E690E0E0CF81E090E090933003809350
:102CC0002F0390932B0380932A03EE24E39410E0C8
:102CD00000E020E060E088E590E0CDCF20912F0378
:102CE0003091300380912C0390912D038130910518
:102CF000F1F421153105B1F410922B0310922A033F
:102D00009093300380932F0380913203909133038B
:102D1000892B31F010923303109232030E94031575
:102D200080E025C030932B0320932A03EDCF8091C0
:102D30002A0390912B038217930791F0813091051C
:102D4000B9F082309105A1F01092300310922F0358
:102D500080912F039091300390932B0380932A034B
:102D600081E020912F0330913003232BC9F6089581
:102D70009093300380932F03EBCFEF920F931F9329
:102D8000CF93C82F8091F9039091FA03019703978D
:102D900038F480916104082E000C990B0E94296977
:102DA000C11116C08091360390913703892B81F4AD
:102DB00080E490E00E94DC0FEE24E39410E000E059
:102DC00020E040915E0460E080E490E00E94871083
:102DD000CF911F910F91EF900895CF93982FC62F09
:102DE00020913903322F3D7F62E0303309F46FEFD9
:102DF0009D3108F025C0E92FF0E08827ED5FF84EFF
:102E00008F4F0C94BD890418201742174517481797
:102E10004A174D174F175217551758175B175E175C
:102E200061176417681767176B176E177117741798
:102E300077177B177E178117AC17CF17E9173D1748
:102E400020E094E6392F330F330F330F85E5732FCE
:102E5000789F070E70E0711D1124692F6074592F3F
:102E6000507297FD2AC1611116C15111D0C0872F30
:102E70008095972F782F80E0CEC020910E02909100
:102E80000F02E0CF27EB94E2DDCF2FEF94EFDACF04
:102E900020E8FCCF2FEF90E0D5CF20ECFCCF2FEF38
:102EA00095E0D0CF2FEF9AE0CDCF2FEF9FE0CACFA4
:102EB0002FEF94E1C7CF2FEF90E2C4CF20E89BE241
:102EC000C1CF2FEF90E4BECF2FEF90E5BBCFC0E88E
:102ED0002FEF90E6B7CF28E790E7B4CF2FEF90E839
:102EE000B1CF2FEF91E9AECF2FEF90EAABCFC0E794
:102EF00028EC9AEAA7CF2FEF94EBA4CF2FEF90EC1A
:102F0000A1CF8091E002882321F0803611F0109249
:102F1000E0028091340390913503892B19F4253018
:102F200009F462E3809100028F5F809300020E94A7
:102F30007B8991110DC08091E002811104C080E66F
:102F40008093E00202C01092E00281E080930002D0
:102F50009091E0022FEF76CF8091E0028F3029F040
:102F6000823D19F08FE08093E002809134039091CC
:102F70003503892B19F4253009F462E380910002AE
:102F80008F5F809300020E947B899111E1CF809135
:102F9000E0028F3011F482EDD3CF8FE0D1CF80915A
:102FA00000028F5F809300020E947B8991110DC007
:102FB0008091E00290E005966FEF70E00E94A98991
:102FC0008093E00281E0809300029091E00220E88B
:102FD00039CF8091340390913503892B19F4303324
:102FE00009F464E1809100028F5F809300020E94E7
:102FF0007B899111ADCF8091E00290E005966FEF53
:1030000070E00E94A9899CCFC92F292F1BCF95E57D
:10301000970F80E07BEA2F3FF1F0222309F46CC088
:10302000209530E0222329F0229F312D11242111F7
:103030003F5F232F2095729F070E70E0711D929FB6
:10304000090E90E0911D829F080E80E0811D1124E1
:10305000730F930F830FCF3FB9F020E0CC2321F003
:10306000CC9F212D09F02F5F222309F449C0729FC4
:10307000070E70E0711D929F090E90E0911D829FD6
:10308000080E80E0811D1124692F411102C0672FB5
:10309000792FCF91089551110AC09AEA399F030EF2
:1030A00030E0311D11248BEA831B970FE3CE80E0C3
:1030B000972F9095872F70E0AECF611111C05111FD
:1030C0000BC0832F9AEA899F080E80E0811D11248E
:1030D0009BEA981B8B5AEFCF872F809590E09BCF70
:1030E000511106C095E5970F8BEA871B792FF6CF14
:1030F0009AEA970F30E0F9CF8FEF9FEF7FEFABCFDA
:1031000080E090E070E0C0CF962F642F903329F0DC
:10311000923319F041E0923009F440E00C94ED163E
:103120001F93CF93DF9310E080910D02181750F595
:1031300060913903E12FF0E0603379F0623321F4DC
:10314000E255FA4FE491F0E0EF01CC0FDD1FCE0F16
:10315000DF1FC25BDC4F4FEF0DC0E258FA4FE49126
:10316000F0E0EF01CC0FDD1FCE0FDF1FC25BDC4FA5
:103170004FEF60E380E00E948418688379838A833C
:103180001F5FD2CFDF91CF911F91089580913903B6
:103190008033D1F0823319F54FEF62E380E00E9473
:1031A00084186093BA037093BB038093BC034FEF02
:1031B0006091390380E00E9484186093BD0370938E
:1031C000BE038093BF030BC04FEF60E380E00E941B
:1031D000841860937203709373038093740312983E
:1031E0000895809138038530D1F00E9477090E94BC
:1031F0003C040E94C6181092120310921103809191
:10320000EA03882321F08091E803882361F040E6F7
:103210005AEE60E070E08CE694E00C94AB7080E0D5
:103220000E949404E4CF0895E0EDF4E01086118646
:10323000E8EFF4E010861186EAEDF4E010861186DE
:10324000E4EEF4E010861186EEEEF4E010861186CE
:10325000E2E0F5E010861186109218031092130335
:1032600010920F0384E6809303020E9490180C943E
:10327000C618EF920F931F93CF93DF931092880598
:103280001092890510923503109234031092220394
:1032900010920E0310920C031092570510925805CD
:1032A00010923205109233051092090380910A02A0
:1032B000815020914C0330914D0380931203109262
:1032C00011032130310509F06DC0809148039091C0
:1032D0004903019709F05BC00E94CD080E94AE0728
:1032E00010920005109201051092CE041092CF04A6
:1032F0001092BA041092BB0440E050E0BA0184EE90
:1033000094E00E94AB700E94C6180E94A20D0E9419
:10331000820D029708F44BC08AE691E00E94DC0F10
:1033200010920D0310920B0310920A031092620781
:10333000109263078091320390913303823091059C
:1033400009F4F9C08330910509F461C0019709F4CB
:10335000FCC00E94820D8130910509F4A7C050F194
:10336000039709F4E4C08CEB94E00E943570683850
:1033700073418105910508F0C0C0E12C10E000E028
:1033800020E040915E0460E083E891E03EC00E944E
:10339000770985E090E090930502809304020E94F3
:1033A000F1099ECF0E94770983E090E0F4CF8CE38F
:1033B00090E0B4CF80910A02853009F44AC08CEBCA
:1033C00094E00E943570E12C10E000E06838734111
:1033D0008105910508F48AC08CEB94E00E94357059
:1033E000E12C10E000E0603177428105910538F46E
:1033F00020E040915E0460E08AE090E006C020E0BA
:1034000040915E0460E080E891E00E948710809126
:103410003203909133038230910509F41CC183304B
:10342000910509F4CFC0019709F41CC1C0910A02AB
:103430000E94820DC53009F4F8C08130910509F46D
:1034400095C008F48CC0039709F4ECC080E690E0C6
:1034500088C08CEB94E00E94357068387341810518
:10346000910550F4E12C10E000E020E040915E0472
:1034700060E088E891E0C9CF8CEB94E00E94357061
:10348000E12C10E000E0603177428105910538F4CD
:1034900020E040915E0460E08BE891E0B6CF20E050
:1034A00040915E0460E08AE891E0AFCF8CEB94E05D
:1034B0000E943570683873418105910550F4E12C04
:1034C00010E000E020E040915E0460E08BE090E0DE
:1034D0009CCF8CEB94E00E943570E12C10E000E072
:1034E000603177428105910508F082CF20E040915C
:1034F0005E0460E087E490E088CF8CEB94E00E946B
:103500003570E12C10E000E06031774281059105D3
:1035100038F420E040915E0460E082E891E075CFED
:1035200020E040915E0460E081E891E06ECFE12C04
:1035300010E000E0EECFE12C10E000E020E0409150
:103540005E0460E085E390E060CFE12C10E000E0F5
:1035500020E040915E0460E08BE390E056CF8DE781
:1035600091E00E94DC0F8EE791E006C084E690E0D7
:103570000E94DC0F83E690E00E94DC0F809116022F
:10358000882321F089E090E00E94DC0F88E490E03D
:103590000E94DC0F82E690E00E94DC0F80913203F3
:1035A00090913303059721F483EA91E00E94DC0FA8
:1035B0008091320390913303069721F484EA91E0DD
:1035C0000E94DC0F80911703882331F1C091F90329
:1035D000D091FA0380913C0390913D038130910595
:1035E00009F44CC0029709F044C0239741F48EE6D9
:1035F00090E00E94DC0F8FE690E00E94DC0FE12C4F
:1036000010E000E020E040915E0460E08FE690E092
:103610000E94871010921703DF91CF911F910F9195
:10362000EF9008958FE491E09CCF8130910569F08F
:1036300028F0039769F08BE990E09ECF87E891E04E
:103640000E94DC0F89E891E097CF81E690E094CF6B
:103650008FE491E091CF83E390E00E94DC0F84E35C
:1036600090E0AECF89E390E00E94DC0F8AE390E027
:10367000A7CF0E94820D029708F0B7CF239741F49D
:103680008AE490E00E94DC0F89E490E00E94DC0F65
:10369000E12C10E000E020E040915E0460E089E46D
:1036A00090E0B6CFEF920F931F930E94820D029786
:1036B00008F4A7C00E94E90F80913403909135036C
:1036C000049721F080911403882361F083E490E053
:1036D0000E94DC0F8FE390E00E94DC0F84E490E016
:1036E0000E94DC0F89E491E00E94DC0F8CE691E0FF
:1036F0000E94DC0F20913403309135038091140334
:103700002730310509F086C081118AC080912303DA
:10371000811186C010923703109236031092350340
:10372000109234038091220381110E9439190E9462
:1037300040100E94221181E00E9409100E9480091D
:103740008EE390E00E94DC0F80913203909133036E
:103750008230910509F4CFC08330910509F4D1C0BE
:10376000019709F4CBC086E090E00E94DC0F8091C5
:10377000340390913503079781F0809123038823C8
:1037800061F0EE24E39410E000E020E040915E045C
:1037900060E08EE591E00E94871010921B0381E0AB
:1037A0008093010210927E0510927F0510929C0476
:1037B00010929D041092B0041092B1041092A604CD
:1037C0001092A704109228051092290510921E0548
:1037D00010921F058091360390913703892B69F46D
:1037E00080912C0390912D03019709F08DC00E94C8
:1037F0004F0910921A03109219031F910F91EF9025
:1038000008958091E302811157CF8CE491E00E94EA
:10381000DC0F52CF811186CF80912303811182CF9B
:10382000109237031092360310923503109234032E
:1038300080912303882341F084E991E00E94DC0F0A
:103840008BE691E00E94DC0F8091230381110E949E
:1038500014190E94820D029708F580912C03909113
:103860002D03892BC1F48091E302811114C0809152
:103870002303811110C08BEF90E00E94DC0FEE2437
:10388000E39410E000E020E040915E0460E08BEF04
:1038900090E00E9487101092230344CF8091E302AE
:1038A000811116C080912303811112C080913403CD
:1038B00090913503049761F0EE24E39410E000E06A
:1038C00020E040915E0460E081E990E00E94871072
:1038D000809123038111DFCF81E190E00E94DC0F12
:1038E000EE24E39410E000E020E040915E0460E00C
:1038F00081E190E0CECF80E390E037CF85E490E0A7
:1039000034CF86E490E031CF1092610510926205C9
:1039100010923205109233050E94F11868CFEF9291
:103920000F931F930E94521B82E090E09093370305
:103930008093360387E090E09093350380933403BF
:1039400080912303811137C040E456E060E070E0CD
:1039500080E295E00E94AB7040E951E060E070E0E9
:1039600086E195E00E94AB7040E951E060E070E0D4
:1039700084E994E00E94AB70E12C10E000E020E0CC
:1039800040915E0460E083E490E00E94871020E0B4
:1039900040915E0460E08FE390E00E94871020E099
:1039A00040915E0460E084E490E00E9487101F91E3
:1039B0000F91EF9008950E94820D40915E04EE24D5
:1039C000E394039739F410E000E020E060E084E93C
:1039D00091E0EBCF04EC19E021E061E08BE691E0AF
:1039E000E4CFEF920F931F9310921B0310922303C7
:1039F00081E080930102109274041092750420916A
:103A00002C0330912D032130310509F53093370314
:103A10002093360310923503109234038091DD0613
:103A2000811110C08CEF90E00E94DC0FEE24E39433
:103A300010E000E020E040915E0460E08CEF90E058
:103A40000E9487101F910F91EF900C9413142091F6
:103A5000520690914D06291309C0909113029923A3
:103A600029F0809314030E948F1CECCF81E090E03A
:103A700090933703809336031092350310923403EA
:103A8000E1CFEF920F931F93809134039091350310
:103A9000039729F48091220381110E94391984E04F
:103AA00090E090933503809334034CEA5DE060E04E
:103AB00070E086E795E00E94AB700E9440100E9483
:103AC000221181E00E94091080912503882309F4C6
:103AD0004DC010926105109262050E94770940E97D
:103AE00051E060E070E084E994E00E94AB70E12C6A
:103AF00010E000E020E040915E0460E083E490E0AC
:103B00000E94871020E040915E0460E08FE390E027
:103B10000E94871020E040915E0460E084E490E021
:103B20000E94871040E951E060E070E080E894E096
:103B30000E94AB7040E456E060E070E086E794E0FD
:103B40000E94AB7081E190E00E94DC0FEE24E394D0
:103B500010E000E020E040915E0460E081E190E050
:103B60000E9487101F910F91EF9008958091380364
:103B700090E08E3109F092E08EE1891B8093110371
:103B800085E0809312030E94780748E750E060E0E8
:103B900070E089E595E0D4CFEF920F931F93809169
:103BA00034039091350304973091DC062091D706B9
:103BB000039708F49AC2321751F081E090E0909395
:103BC0003503809334031F910F91EF9008958091F6
:103BD0001B03833008F486C081E0809323030E9496
:103BE0008F1C0E9423040E94820D48EB5BE0039728
:103BF00011F448E853E180910A02833009F46CC063
:103C000008F05FC0823009F46AC070E060E08AE8C2
:103C100094E00E94AB70809114028823A1F28091FD
:103C20002C0390912D03892B71F69091520680916F
:103C30004D06981741F2909197068091920698133D
:103C4000C2CF80911702882309F4BDCF8091260747
:103C5000882309F440C285E090E090933503809377
:103C6000340340ED57E060E070E086E795E00E94A5
:103C7000AB7083E591E00E94DC0F83E991E00E9444
:103C8000DC0F88E591E00E94DC0FEE24E39410E065
:103C900000E020E040915E0460E087E591E00E9452
:103CA00087108091320390913303029709F08BCFF4
:103CB00020E040915E0460E083E591E00E9487107F
:103CC00082CF843031F0853009F09FCF4053584F78
:103CD0009CCF44525A4F99CF48515C4F96CF4C508D
:103CE0005E4F93CF8091E5028823A9F088EA94E0A3
:103CF0000E943570672B682B692B69F41092E502DE
:103D00000E94820D029738F480913403909135031C
:103D1000039709F010989091210780911C07981340
:103D200049C09091520680914D06981343C09091DE
:103D300097068091920698133DC0809108028823CF
:103D4000C9F180913203909133038130910509F4D8
:103D5000CFC0039709F4EEC08AE894E00E94357062
:103D6000672B682B692B51F410921B0348EE53E02C
:103D700060E070E08AE894E00E94AB7080910E03EE
:103D8000811105C080911B038F5F80931B0380917D
:103D90001B03833078F480913403909135030397AB
:103DA00031F083E090E0909335038093340381E019
:103DB00080930E0330910D062091080680912F0309
:103DC000909130030197029708F0DEC03213CBC008
:103DD0009091520680914D06981338C090919706A5
:103DE00080919206981332C080910802882371F165
:103DF0008AE894E00E943570672B682B692B51F498
:103E000010921B0348EE53E060E070E08AE894E013
:103E10000E94AB7080910C03811105C080911B033F
:103E20008F5F80931B0380911B03833078F4809114
:103E3000340390913503039731F083E090E0909341
:103E400035038093340381E080930C039091210724
:103E500080911C079817E9F0809132039091330309
:103E60008130910509F431C1039709F42EC1809185
:103E70002203882371F080910E03882351F08091F2
:103E80000C0381111DC1109235031092340310925E
:103E90000E0390910D0680910806981709F4BBCE89
:103EA00080912F0390913003892B09F0B4CE80913B
:103EB0003203909133038130910549F008F408C131
:103EC0008230910509F404C1039709F0A4CE8091D2
:103ED0002203882309F49FCE80910E03882309F4DE
:103EE0009ACE109235031092340310920E0393CEA3
:103EF0008091E40281115ECF88EA94E00E943570DF
:103F0000672B682B692B09F055CF80913403909172
:103F1000350348E552E060E070E0039709F44ACFCA
:103F200088EA94E00E94AB700E94617B81E08093FC
:103F3000E40240CF8091E40281113CCF88EA94E012
:103F40000E943570672B682B692B09F033CF809165
:103F5000340390913503039709F42CCF4AEF50E0D6
:103F600060E070E0DDCF80910E0381110AC0809186
:103F7000340390913503039721F410923503109286
:103F8000340310920C0362CF80913203909133037B
:103F9000009759F440913403509135034330510553
:103FA00021F4321709F44FCF51CF32134FCF309154
:103FB000520620914D06321349CF30919706209139
:103FC0009206321343CF20910802222309F43ECFF8
:103FD0008130910541F0B8F18230910509F44EC06D
:103FE000039709F033CF8AE894E00E943570672B7D
:103FF000682B692B51F410921B0348EE53E060E0EC
:1040000070E08AE894E00E94AB7080910E03811109
:1040100005C080911B038F5F80931B0380911B035E
:10402000833008F013CF80913403909135030397C8
:1040300031F083E090E0909335038093340381E086
:1040400080930E0303CF8091E4028111FFCE88EAB2
:1040500094E00E943570672B682B692B09F0F6CE2F
:1040600040ED57E060E070E088EA94E00E94AB70B9
:104070000E94617B81E08093E402E8CE8091E402BB
:104080008111E4CE8091340390913503039709F4B4
:10409000DDCE8091E502811110C04EEE52E060E06D
:1040A00070E088EA94E00E94AB700E94617B80918E
:1040B000E5028F5F8093E502DDCF8230D8F6F5CF41
:1040C0000E946E168111DFCEE2CE1092E402E1CEA4
:1040D0001092E402A0CD80912307882309F473CDC8
:1040E0001F910F91EF900C94411D321709F46BCD85
:1040F00064CDCF93DF93D0913903D03311F0D23315
:10410000B1F50E94820D2091230383309105B1F413
:10411000222341F08091320390913303892B89F55A
:10412000CEE018C0809117038111FACF809132033D
:1041300090913303029739F5C0E10CC0211121C0E1
:10414000209132033091330322303105E1F4C4E091
:10415000019791F7D033C9F44FEF60E38C2F0E94A1
:104160008418609372037093730380937403809137
:10417000320390913303029709F0129ADF91CF91A5
:104180000895CCE0E7CFC1E0E5CFD23381F74FEF20
:1041900062E38C2F0E9484186093BA037093BB0370
:1041A0008093BC034FEF609139038C2F0E948418D9
:1041B0006093BD037093BE038093BF03D8CFCF92AB
:1041C000DF92EF92FF920F931F93CF93909138035A
:1041D0002091480330914903232B09F0EBC6953019
:1041E00009F4FEC5E09111039E3109F028C3EF30B8
:1041F00008F003C6F0E08827EF5FFE4D8F4F0C9468
:10420000BD89102141217D21B121F1212522592291
:104210008D22C122F52229235D239123C423F82373
:104220008DE70E948B098EE00E94E6030E94A06940
:104230008FE00E94E6030E94A06981E08093F9026A
:104240008093FA02809111038F5F80931103809114
:10425000090381110EC08DE00E94E6030E9482696D
:1042600080E10E94E6030E9482691092F802109297
:10427000FB0281E0809309030E94D36C0E947920A5
:10428000BCC58DE70E948B098DE00E94E6030E9469
:10429000A06980E10E94E6030E94A06981E080930A
:1042A000F8028093FB0280910903882391F08EE04D
:1042B0000E94E6030E9482698FE00E94E6030E944A
:1042C00082691092F9021092FA02809111038F5FB5
:1042D00011C08CE00E94E6030E94826981E10E9485
:1042E000E6030E9482691092F7021092FC0280910C
:1042F0001103815080931103BFCF8DE70E948B097A
:104300008CE00E94E6030E94A06981E10E94E6031E
:104310000E94A06981E08093F7028093FC02809163
:104320000903882379F08DE00E94E6030E948269E8
:1043300080E10E94E6030E9482691092F8021092C6
:10434000FB02C3CF8BE00E94E6030E94826982E1F8
:104350000E94E6030E9482691092F6021092FD020A
:10436000C6CF8DE70E948B098BE00E94E6030E9476
:10437000A06982E10E94E6030E94A06981E0809327
:10438000F6028093FD0280910903882391F08CE06E
:104390000E94E6030E94826981E10E94E6030E9476
:1043A00082691092F7021092FC02809111038F5FD4
:1043B00011C08AE00E94E6030E94826983E10E94A4
:1043C000E6030E9482691092F5021092FE0280912B
:1043D00011038150809311030E94D36C0E94C61870
:1043E0000CC58DE70E948B098AE00E94E6030E94BB
:1043F000A06983E10E94E6030E94A06981E08093A6
:10440000F5028093FE0280910903882379F08BE006
:104410000E94E6030E94826982E10E94E6030E94F4
:1044200082691092F6021092FD02BFCF89E00E94CD
:10443000E6030E94826984E10E94E6030E94826989
:104440001092F4021092FF02C2CF8DE70E948B09F6
:1044500089E00E94E6030E94A06984E10E94E603CD
:104460000E94A06981E08093F4028093FF02809112
:104470000903882379F08AE00E94E6030E9482699A
:1044800083E10E94E6030E9482691092F502109275
:10449000FE021BCF88E00E94E6030E94826985E14C
:1044A0000E94E6030E9482691092F30210920003B8
:1044B0001ECF8DE70E948B0988E00E94E6030E94D0
:1044C000A06985E10E94E6030E94A06981E08093D3
:1044D000F3028093000380910903882379F089E037
:1044E0000E94E6030E94826984E10E94E6030E9422
:1044F00082691092F4021092FF02E7CE87E00E94D8
:10450000E6030E94826986E10E94E6030E948269B6
:104510001092F20210920103EACE8FE70E948B09FB
:1045200087E00E94E6030E94A06986E10E94E603FC
:104530000E94A06981E08093F20280930103809140
:104540000903882379F088E00E94E6030E948269CB
:1045500085E10E94E6030E9482691092F3021092A4
:10456000000323CF86E00E94E6030E94826987E170
:104570000E94E6030E9482691092F10210920203E7
:1045800026CF8FE70E948B0986E00E94E6030E94F7
:10459000A06987E10E94E6030E94A06981E0809300
:1045A000F1028093020380910903882379F087E068
:1045B0000E94E6030E94826986E10E94E6030E944F
:1045C00082691092F20210920103EFCE85E00E9400
:1045D000E6030E94826988E10E94E6030E948269E4
:1045E0001092F00210920303F2CE8FE70E948B0923
:1045F00085E00E94E6030E94A06988E10E94E6032C
:104600000E94A06981E08093F0028093030380916F
:104610000903882379F086E00E94E6030E948269FC
:1046200087E10E94E6030E9482691092F1021092D3
:1046300002034BCE84E00E94E6030E94826989E176
:104640000E94E6030E9482691092EF021092040316
:104650004ECE8FE70E948B0984E00E94E6030E9401
:10466000A06989E10E94E6030E94A06981E080932D
:10467000EF028093040380910903882379F085E099
:104680000E94E6030E94826988E10E94E6030E947C
:1046900082691092F0021092030317CE83E00E9409
:1046A000E6030E9482698AE10E94E6030E94826911
:1046B0001092EE02109205031ACE8FE70E948B092A
:1046C00083E00E94E6030E94A0698AE10E94E6035B
:1046D0000E94A06981E08093EE028093050380919F
:1046E0000903882379F084E00E94E6030E9482692E
:1046F00089E10E94E6030E9482691092EF02109203
:10470000040353CE82E00E94E6030E9482698BE19B
:104710000E94E6030E9482691092ED021092060345
:1047200056CE82E80E948B0982E00E94E6030E9436
:10473000A0698BE10E94E6030E94A0691092ED023D
:104740001092060380910903882379F083E00E9488
:10475000E6030E9482698AE10E94E6030E94826960
:104760001092EE021092050320CE81E00E94E60333
:104770000E9482698CE10E94E6030E948269109285
:10478000EC021092070323CE82E80E948B0981E09D
:104790000E94E6030E94A0698CE10E94E6030E9449
:1047A000A06981E08093EC02809307038091090364
:1047B000882379F082E00E94E6030E9482698BE1FF
:1047C0000E94E6030E9482691092ED021092060395
:1047D0007CCD80E00E94E6030E9482698DE10E9408
:1047E000E6030E9482691092EB02109208037FCDCB
:1047F00082E80E948B0980E00E94E6030E94A06983
:104800008DE10E94E6030E94A06981E08093EB02A3
:10481000809308030E94E6030E9482698CE10E9453
:10482000E6030E9482691092EC02109207038091C5
:104830001103815080931103109209031DCDEE30B6
:1048400008F0DBC2F0E08827E75DFB4D8F4F0C944A
:10485000BD89372461249524C924FD24312565258B
:104860009925CD250126352669269C26D0268DE75B
:104870000E948B098DE00E94E6030E94A0698EE0F1
:104880000E94E6030E94A06981E08093F802809371
:10489000F902809111038F5F8093110380910903C6
:1048A0008111E7CC8CE00E94E6030E9482698FE0D0
:1048B0000E94E6030E9482691092F7021092FA02A7
:1048C000D8CC8DE70E948B098CE00E94E6030E9401
:1048D000A0698FE00E94E6030E94A06981E08093B6
:1048E000F7028093FA0280910903882379F08DE022
:1048F0000E94E6030E9482698EE00E94E6030E9405
:1049000082691092F8021092F902DFCC8BE00E94CB
:10491000E6030E94826980E10E94E6030E948269A8
:104920001092F6021092FB02E2CC8DE70E948B09F6
:104930008BE00E94E6030E94A06980E10E94E603EA
:104940000E94A06981E08093F6028093FB0280912F
:104950000903882379F08CE00E94E6030E948269B3
:104960008FE00E94E6030E9482691092F702109283
:10497000FA021BCD8AE00E94E6030E94826981E16F
:104980000E94E6030E9482691092F5021092FC02D6
:104990001ECD8DE70E948B098AE00E94E6030E94EB
:1049A000A06981E10E94E6030E94A06981E08093F2
:1049B000F5028093FC0280910903882379F08BE053
:1049C0000E94E6030E94826980E10E94E6030E9441
:1049D00082691092F6021092FB02E7CC89E00E94F5
:1049E000E6030E94826982E10E94E6030E948269D6
:1049F0001092F4021092FD02EACC8DE70E948B091E
:104A000089E00E94E6030E94A06982E10E94E60319
:104A10000E94A06981E08093F4028093FD0280915E
:104A20000903882379F08AE00E94E6030E948269E4
:104A300081E10E94E6030E9482691092F5021092C1
:104A4000FC0243CC88E00E94E6030E94826983E175
:104A50000E94E6030E9482691092F3021092FE0205
:104A600046CC8DE70E948B0988E00E94E6030E94F5
:104A7000A06983E10E94E6030E94A06981E080931F
:104A8000F3028093FE0280910903882379F089E084
:104A90000E94E6030E94826982E10E94E6030E946E
:104AA00082691092F4021092FD020FCC87E00E94FE
:104AB000E6030E94826984E10E94E6030E94826903
:104AC0001092F2021092FF0212CC8FE70E948B0923
:104AD00087E00E94E6030E94A06984E10E94E60349
:104AE0000E94A06981E08093F2028093FF0280918E
:104AF0000903882379F088E00E94E6030E94826916
:104B000083E10E94E6030E9482691092F3021092F0
:104B1000FE024BCC86E00E94E6030E94826985E19A
:104B20000E94E6030E9482691092F1021092000333
:104B30004ECC8FE70E948B0986E00E94E6030E941C
:104B4000A06985E10E94E6030E94A06981E080934C
:104B5000F1028093000380910903882379F087E0B4
:104B60000E94E6030E94826984E10E94E6030E949B
:104B700082691092F2021092FF0217CC85E00E9427
:104B8000E6030E94826986E10E94E6030E94826930
:104B90001092F002109201031ACC8FE70E948B0949
:104BA00085E00E94E6030E94A06986E10E94E60378
:104BB0000E94A06981E08093F002809301038091BC
:104BC0000903882379F086E00E94E6030E94826947
:104BD00085E10E94E6030E9482691092F102109220
:104BE000000373CB84E00E94E6030E94826987E1A0
:104BF0000E94E6030E9482691092EF021092020363
:104C000076CB8FE70E948B0984E00E94E6030E9426
:104C1000A06987E10E94E6030E94A06981E0809379
:104C2000EF028093020380910903882379F085E0E5
:104C30000E94E6030E94826986E10E94E6030E94C8
:104C400082691092F002109201033FCB83E00E9430
:104C5000E6030E94826988E10E94E6030E9482695D
:104C60001092EE021092030342CB8FE70E948B0951
:104C700083E00E94E6030E94A06988E10E94E603A7
:104C80000E94A06981E08093EE02809303038091EB
:104C90000903882379F084E00E94E6030E94826978
:104CA00087E10E94E6030E9482691092EF0210924F
:104CB00002037BCB82E00E94E6030E94826989E1C5
:104CC0000E94E6030E9482691092ED021092040392
:104CD0007ECB82E80E948B0982E00E94E6030E945C
:104CE000A06989E10E94E6030E94A0691092ED028A
:104CF0001092040380910903882379F083E00E94D5
:104D0000E6030E94826988E10E94E6030E948269AC
:104D10001092EE021092030348CB81E00E94E6035A
:104D20000E9482698AE10E94E6030E9482691092D1
:104D3000EC02109205034BCB82E80E948B0981E0C4
:104D40000E94E6030E94A0698AE10E94E6030E9495
:104D5000A06981E08093EC028093050380910903B0
:104D6000882379F082E00E94E6030E94826989E14B
:104D70000E94E6030E9482691092ED0210920403E1
:104D8000A4CA80E00E94E6030E9482698BE10E942F
:104D9000E6030E9482691092EB0210920603A7CAF2
:104DA00082E80E948B0980E00E94E6030E94A069CD
:104DB0008BE10E94E6030E94A06981E08093EB02F0
:104DC000809306030E94E6030E9482698AE10E94A2
:104DD000E6030E9482691092EC021092050327CD2F
:104DE00080911203833009F4C5C008F04CC08130B3
:104DF00009F472C0823009F496C080913803C8E784
:104E0000853009F0C8E290918805992309F4E4C738
:104E100080E895E00E9435708B019C01E0910A02C8
:104E2000E150FF0BEE0FFF1FED59FA4F808191818A
:104E300066E070E00E949589CB01B0E0A0E0081721
:104E400019072A073B0708F09CC6609138036530B4
:104E500009F48FC64C2F46954695469550E04E5F17
:104E60005F4F052E000C660B770B8FE495E00E94D8
:104E7000AB7086E0CF911F910F91FF90EF90DF9084
:104E8000CF900C94F510843009F44DC0853009F0B2
:104E9000B4CF8DE70E948B0980E00E94E60360E0BA
:104EA0000E94E66981E00E94E60361E00E94E669F3
:104EB00082E00E94E60361E00E94E66983E00E94CE
:104EC000E60361E00E94E66984E00E94E60360E098
:104ED0000E94E66981E024C08DE70E948B0980E092
:104EE0000E94E60360E00E94E66981E00E94E6031A
:104EF00061E00E94E66982E00E94E60361E00E94B0
:104F0000E66983E00E94E60361E00E94E66984E0CE
:104F10000E94E60360E00E94E669809112038F5FC1
:104F200080931203ABC98FE70E948B0980E00E9437
:104F3000E60361E00E94E66981E00E94E60360E02A
:104F40000E94E66982E00E94E60361E00E94E66951
:104F500083E00E94E60360E00E94E66984E00E942C
:104F6000E60361E00E94E669809112038F5F8093FF
:104F7000120334CA82E80E948B0980E00E94E60393
:104F800061E00E94E66981E00E94E60361E00E9420
:104F9000E66982E00E94E60360E00E94E66983E041
:104FA0000E94E60361E00E94E66984E00E94E60355
:104FB00061E0B1CF80910A02953009F4A9C312E0F3
:104FC0009E3109F410E0CEE1CC2ED12CC11AD108CB
:104FD00090911103911105C0833091F1A0F48230BA
:104FE000D1F14091110390E0292F30E02C153D05BF
:104FF000ECF525513D4FF9018081811102C09417D4
:10500000B0F19F5FF1CF843081F0853051F7960188
:105010000D2C000C440B550B62E170E080E090E039
:105020000E945B6D60931103DCCF6CE070E080E068
:1050300090E00E94416D635F7F4F8F4F9F4FF2CF93
:105040006AE070E080E090E00E94416D675F7F4F12
:105050008F4F9F4FE7CF6AE070E080E090E00E94C2
:10506000416D6D5F7F4F8F4F9F4FDCCF81E09091FF
:105070000A02933009F4A6C1E8F4923009F464C23C
:10508000882309F40CC3C7E080911103C81708F402
:1050900052C08C13F0C280910202843009F4F5C230
:1050A00008F0DEC2813008F0F5C267E070E080E011
:1050B00090E0DDC2943009F4C3C0953009F788232D
:1050C00009F467C0CDE1C11B0D2C000CEE08FF08F0
:1050D00080911103C81778F18C131EC080910202D1
:1050E000833009F446C050F4823009F449C0A70166
:1050F000960162E170E080E090E00AC0843091F1B6
:105100008530A9F7A701960166E070E080E090E0A5
:105110000E945B6D609311030C2F10E005511D4F31
:10512000F8018081882399F18C2F0E94E6030E9468
:105130008269F80110820E94D36C8091110387313B
:1051400008F4E0C282E80E948B0980911203843047
:1051500008F409C582E80E948B098091180380FD3C
:105160003DC98CC8A701960169E070E080E090E03D
:10517000CFCFA70196016CE070E080E090E0C8CF4F
:10518000A70196016FE070E080E090E0C1CFC150D0
:105190009FCFC0E00D2C000CEE08FF08809111039A
:1051A0008C1748F28C131DC080910202833089F164
:1051B00050F48130E1F1823099F1A701960160E06D
:1051C00070E0CB010AC08430E9F08530B1F7A70167
:1051D000960168E070E080E090E00E945B6D609373
:1051E00011030C2F10E005511D4FF8018081811132
:1051F00025C08C2F0E94E6030E94A06981E0F8017F
:10520000808399CFA70196016CE070E080E090E088
:10521000E4CFA70196016EE070E080E090E0DDCF82
:10522000A701960160E170E080E090E0D6CFA70191
:10523000960162E170E080E090E0CFCFCF5FAECF2B
:10524000882309F45FC0C9E180911103C81708F4ED
:1052500072CF8C1321C080910202833091F160F4EF
:10526000813009F444C08230B9F169E170E080E036
:1052700090E00E94416D0EC08430C1F08530A9F7E6
:1052800068E170E080E090E00E94416D6F5F7F4FC9
:105290008F4F9F4F609311030C2F10E005511D4F4E
:1052A000F8018081811140CFC150CECF65E170E01F
:1052B00080E090E00E94416D6C5F7F4F8F4F9F4F69
:1052C000E9CF62E170E080E090E00E94416D695FAB
:1052D0007F4F8F4F9F4FDECF6FE070E080E090E018
:1052E0000E94416D665F7F4F8F4F9F4FD3CF6CE021
:1052F00070E080E090E00E94416D635F7F4F8F4FD0
:105300009F4FC8CFC0E0809111038C1708F413CFD2
:105310008C1321C080910202833099F160F48130B6
:1053200009F445C08230C1F169E170E080E090E0AD
:105330000E94416D0EC08430C9F08530A9F768E144
:1053400070E080E090E00E94416D6F5F7F4F8F4F73
:105350009F4F609311030C2F10E005511D4FF80172
:105360008081882309F445CFCF5FCDCF65E170E020
:1053700080E090E00E94416D6C5F7F4F8F4F9F4FA8
:10538000E8CF62E170E080E090E00E94416D695FEB
:105390007F4F8F4F9F4FDDCF6FE070E080E090E058
:1053A0000E94416D665F7F4F8F4F9F4FD2CF6CE061
:1053B00070E080E090E00E94416D635F7F4F8F4F0F
:1053C0009F4FC7CF882309F45FC0C3E180911103C9
:1053D000C81708F4B0CE8C1321C08091020283302C
:1053E00091F160F4813009F444C08230B9F163E195
:1053F00070E080E090E00E94416D0EC08430C1F00A
:105400008530A9F762E170E080E090E00E94416D94
:105410006F5F7F4F8F4F9F4F609311030C2F10E0F2
:1054200005511D4FF801808181117ECEC150CECF34
:1054300060E170E080E090E00E94416D6D5F7F4F21
:105440008F4F9F4FE9CF6EE070E080E090E00E94C8
:10545000416D6B5F7F4F8F4F9F4FDECF6CE070E0F1
:1054600080E090E00E94416D695F7F4F8F4F9F4FBA
:10547000D3CF6AE070E080E090E00E94416D675F0A
:105480007F4F8F4F9F4FC8CFC0E0809111038C1783
:1054900008F451CE8C1321C080910202833099F11F
:1054A00060F4813009F445C08230C1F163E170E0FD
:1054B00080E090E00E94416D0EC08430C9F08530DC
:1054C000A9F762E170E080E090E00E94416D6F5FBB
:1054D0007F4F8F4F9F4F609311030C2F10E00551AA
:1054E0001D4FF8018081882309F483CECF5FCDCF93
:1054F00060E170E080E090E00E94416D6D5F7F4F61
:105500008F4F9F4FE8CF6EE070E080E090E00E9408
:10551000416D6B5F7F4F8F4F9F4FDDCF6CE070E031
:1055200080E090E00E94416D695F7F4F8F4F9F4FF9
:10553000D2CF6AE070E080E090E00E94416D675F4A
:105540007F4F8F4F9F4FC7CF882309F444C0CDE0D2
:1055500080911103C81708F4EECD8C131CC0809104
:105560000202843011F148F4813050F56DE070E0B2
:1055700080E090E00E94416D0CC08530B9F76CE08E
:1055800070E080E090E00E94416D6F5F7F4F8F4F31
:105590009F4F609311030C2F10E005511D4FF80130
:1055A00080818111C1CDC150D3CF6BE070E080E02C
:1055B00090E00E94416D6E5F7F4F8F4F9F4FE9CF0C
:1055C0006AE070E080E090E00E94416D6D5F7F4F87
:1055D0008F4F9F4FDECFC0E0809111038C1708F4EE
:1055E000AACD8C131CC080910202843019F148F4BA
:1055F000813058F56DE070E080E090E00E94416DF0
:105600000CC08530B9F76CE070E080E090E00E945B
:10561000416D6F5F7F4F8F4F9F4F609311030C2F32
:1056200010E005511D4FF8018081882309F4E1CD78
:10563000CF5FD2CF6BE070E080E090E00E94416DE0
:105640006E5F7F4F8F4F9F4FE8CF6AE070E080E042
:1056500090E00E94416D6D5F7F4F8F4F9F4FDDCF78
:10566000853009F022CD6AE070E080E090E00E9491
:10567000416D609311030C2F10E005511D4FF8018F
:105680008081811151CDC150FFCC69E070E080E094
:1056900090E0EDCF68E070E080E090E0E8CFC0E01F
:1056A000809111038C1708F446CD8C1316C080919D
:1056B00002028430E9F038F48130F8F467E070E0F9
:1056C00080E090E006C08530C9F76AE070E080E0D5
:1056D00090E00E94416D609311030C2F10E0055182
:1056E0001D4FF8018081882309F483CDCF5FD8CF87
:1056F00069E070E080E090E0ECCF68E070E080E08E
:1057000090E0E7CF8C3010F08FE71DCD8DE71BCDFB
:105710009091120391111DC0833009F45DC040F4D3
:10572000823009F464C062E070E080E090E063C021
:10573000843009F44CC08530B1F764E070E080E05B
:1057400090E00E94416D6E5F7F4F8F4F9F4F60933F
:10575000120320911203E6EEF2E090E081918111B4
:1057600002C0291720F49F5F9530C1F781E0909126
:105770000A02933009F415C108F040C0923009F4D0
:1057800069C1882309F4C5C1C5E080911203C81717
:1057900008F4DBCC8C1312C080910202833009F430
:1057A000AEC108F4B1C1863008F0AEC166E070E069
:1057B00080E090E00E94416D60931203EC2FF0E0D6
:1057C000EB51FD4F8081C1508823F9F240C063E066
:1057D00070E080E090E0B5CF63E070E080E090E0C2
:1057E0000E94416D6F5F7F4F8F4F9F4FB0CF63E03F
:1057F00070E080E090E00E94416DA9CF943009F400
:105800006BC0953009F0BDCF882381F1C5E0809150
:105810001203C81708F499CC8C1311C080910202AE
:1058200083508330C0F465E070E080E090E00E9437
:10583000416D6F5F7F4F8F4F9F4F60931203EC2F2F
:10584000F0E0EB51FD4F8081C150882301F38C2F94
:105850000E9494047ACC64E070E080E090E00E94C2
:10586000416D6E5F7F4F8F4F9F4FE7CFC0E08091BC
:1058700012038C1708F469CC8C130FC080910202BC
:105880008330A1F0F0F08630E0F466E070E080E074
:1058900090E00E94416D60931203EC2FF0E0EA511A
:1058A000FD4F8081CF5F8111E2CFD1CF65E070E005
:1058B00080E090E00E94416D6F5F7F4F8F4F9F4F60
:1058C000EACF64E070E080E090E00E94416D6E5F9E
:1058D0007F4F8F4F9F4FDFCF882369F1C5E08091C5
:1058E0001203C81708F431CC8C1311C08091020246
:1058F00083508330A8F465E070E080E090E00E947F
:10590000416D6F5F7F4F8F4F9F4F60931203EC2F5E
:10591000F0E0EB51FD4F8081C150882301F397CF18
:1059200064E070E080E090E00E94416D6E5F7F4F28
:105930008F4F9F4FEACFC0E0809112038C1708F47D
:1059400004CC8C130FC0809102028330A1F0F0F0E0
:105950008630E0F466E070E080E090E00E94416D07
:1059600060931203EC2FF0E0EA51FD4F8081CF5F8E
:105970008111E2CF6CCF65E070E080E090E00E94A2
:10598000416D6F5F7F4F8F4F9F4FEACF64E070E0B4
:1059900080E090E00E94416D6E5F7F4F8F4F9F4F80
:1059A000DFCF882339F1C5E080911203C81708F4CE
:1059B000CCCB8C1311C08091020283508330A8F4A9
:1059C00065E070E080E090E00E94416D6F5F7F4F86
:1059D0008F4F9F4F60931203EC2FF0E0EB51FD4F80
:1059E0008081C150882301F332CF63E070E080E012
:1059F00090E0EACFC0E0809112038C1708F4A5CBA9
:105A00008C130FC0809102028330A1F0F0F0863039
:105A1000E0F466E070E080E090E00E94416D609309
:105A20001203EC2FF0E0EA51FD4F8081CF5F81112E
:105A3000E2CF0DCF65E070E080E090E00E94416D24
:105A40006F5F7F4F8F4F9F4FEACF63E070E080E042
:105A500090E0F4CF882319F1C5E080911203C817B4
:105A600008F473CB8C130DC08091020282508430F5
:105A700088F466E070E080E090E00E94416D609301
:105A80001203EC2FF0E0EB51FD4F8081C1508823D1
:105A900021F3DDCE63E070E080E090E0EECFC0E087
:105AA000809112038C1708F450CB8C131AC080918C
:105AB0000202833051F0F0F08630E0F466E070E0EE
:105AC00080E090E00E94416D0AC065E070E080E0F7
:105AD00090E00E94416D6F5F7F4F8F4F9F4F6093AB
