:100000000C9426030C9457030C9457030C94570339
:100010000C9457030C9457030C9457030C945703F8
:100020000C9457030C9457030C9457030C945703E8
:100030000C9457030C9457030C9457030C945703D8
:100040000C9457030C9457030C9457030C945703C8
:100050000C9457030C9457030C9457030C942A6E7A
:100060000C9457030C947E6F0C94546F0C945703AC
:100070000C9457030C9457030C9457030C94570398
:100080000C9457030C9457030C9457030C94570388
:100090000C942A6F0C94006F0C9457030C94A86F67
:1000A0000C9457030C9457030C9457030C94570368
:1000B0000C9457030C9457030C9457030C94570358
:1000C0000C9457030C9457030C9457030C94570348
:1000D0000C9457030C9457030C94D66E0C94AC6E8E
:1000E0000C9457030C942C6C0C94756C0C94794400
:1000F0000C94346C0C9484300C94EC240C94016CAF
:100100000C94283F0C945E660C9415160C94671999
:100110000C94CA630C94C6730C941A6C0C947124DE
:100120000C944C3F0C94CE730C942B650C94E02FE4
:100130000C94F0430C94BF170C9478240C945E1824
:100140000C94FF430C9452530C94C2730C946E2F76
:100150000C94FC640C9422110C94BE730C94AB10A0
:100160000C940D110C94F4640C940A530C949C1987
:100170000C944F3F0C945E030C94EE240C94593F66
:100180000C946B6C0C945C3F0C94827E0C940E531C
:100190000C94066C0C94F8640C94693F0C941C67E6
:1001A0000C94EF3F0C94B12D0C94663F0C946003BB
:1001B0000C94DD050C945C030C9497620C94E82479
:1001C0000C943D3F0C94EE2B0C949A650C94526C5D
:1001D0000C94A8540C94CA730C94DC670C94F96BBF
:1001E0000C9413650C94E22F0C94CB140C947C109B
:1001F0000C94BD2D0C94F8100C941D650C94353F97
:100200000C94533F0C941D170C945F3F0C9417658E
:100210000C94A4100C94532D0C94FF640C94F06473
:100220000C9481300C94563F0C949B650C9438448C
:100230000C9493180C94EA240C94F0240C94D96731
:100240000C949D100C94AB660C9475320C94403F4A
:100250000C94F4170C9483030C9429180C94672FB6
:100260000C94D0100C945C140C941B670C94D43F29
:100270000C946C540C94862C0C9437080C940466E3
:100280000C940B3F0C94C7630C94106C0C948B561D
:100290000C94F92C0C94D1190C9459030C94B4734C
:1002A0000C947F160C943E320C9445670C94E867CE
:1002B0000C9476150C942D3F0C94896C0C940015BD
:1002C0000C949D080C94463F0C94523F0C94056589
:1002D0000C94FD180C94FA430C9496100C946C3FFB
:1002E0000C94E0150C94F0650C94C22C0C94CD6326
:1002F0000C9499650C942F650C9487300C94AB5436
:100300000C947E320C9474440C943A3F0C94EA643E
:100310000C94BA3F0C9421650C943E670C94973F63
:100320000C94172C0C94E9160C9425650C9441152B
:100330000C943A1A0C9494170C948B300C943E6CD9
:100340000C94EC670C94616C0C94333F0C942A650C
:100350000C94E1650C94E9670C94822D0C94804216
:100360000C9406600C94A7630C94623F0C94C063D9
:100370000C947F6C0C948E140C94D0630C94D52B3D
:100380000C94E4100C94D5530C94452C0C941266E8
:100390000C94E42F0C944A160C949C2D0C94096533
:1003A0000C94936C0C94DE2F0C94486C0C94B41643
:1003B0000C9466030C94EF670C94493F0C94A4735F
:1003C0000C94A82B0C94262D0C94051A0C94246CD8
:1003D0000C940F650C9447320C94AB150C94521787
:1003E0000C9472670C94433F0C9432190C942B6755
:1003F0000C94383F0C94C8180C94E62F0C94303FA2
:1004000000060C12181D00040B10161B45051525BF
:10041000354434241404433323130302122232429A
:1004200041312111010010203040403020100001E6
:1004300011213141423222120203132333430414A7
:1004400024344435251505453738393A3B3B3A398C
:1004500038370010203001112131021222320313EB
:10046000233304142434051525350616263636267E
:1004700016063525150534241404332313033222BC
:100480001202312111013020100000191830011A18
:10049000172F021B162E031C152D041D142C051ED0
:1004A000132B061F122A07201129082110280922C0
:1004B0000F270A230E260B240D2500010203040535
:1004C000060708090A0B0C0D0E0F10111213141554
:1004D000161718191A1B1C1D1E1F2021222331302C
:1004E0002F2E2D2C2B2A29282726000000006410EF
:1004F000B71DC8206E3BAC30D9269041DC76F45154
:100500006B6B5861B24D3C7105502083B8ED44933C
:100510000FF0E8A3D6D68CB361CBB0C2649BD4D223
:10052000D38678E20AA01CF2BDBD000021002400A1
:1005300027002A002D0030003300010100000401D3
:1005400007010A0100002200250028002B002E00D0
:100550003100340002010000050108010B01000018
:1005600020002300260029002C002F00320000016B
:100570000000030106010901050505050705080836
:100580000808020202020A0A08080404040401011D
:100590000101010101010303030303030303040732
:1005A00007070C0C0C0C0C0C0C0C020202020606C9
:1005B0000606060606060B0B0B0B0B0B0B0B0102BC
:1005C0001020200808102040102040800201020165
:1005D000080402010102040810204080804020101D
:1005E0000804020180040201804020100804020176
:1005F00008040201010204081020408001020408DE
:100600001020408000000A0B02090C0D0E080703A1
:1006100004010000000000000000000000000000D5
:1006200000000000000000000000000000000000CA
:100630001211100000000000000000000000000087
:1006400000000000000000000000827E11241FBE98
:10065000CFEFD1E2DEBFCDBF00E00CBF12E0A0E0E3
:10066000B2E0E4E1F9E101E00BBF02C007900D92B6
:10067000AC3EB107D9F72DE0ACEEB2E001C01D925F
:10068000A231B207E1F713E0C6E2D3E000E006C012
:1006900021970109802FFE010E944F8BC532D1079F
:1006A00080E00807A9F70E94D4810C94888C0C94F0
:1006B000000080E991E00895249A0895269A08950B
:1006C000809113038F5F8093130308958091120329
:1006D0008F5F80931203089520914B0330914C0358
:1006E0002130310531F4E82FF0E0EA5FFB4F8491CF
:1006F00008952230310529F4E82FF0E0E050FC4F56
:10070000F6CF81E008954F925F927F928F929F92F1
:10071000AF92BF92CF92DF92EF92FF920F931F930F
:10072000CF93DF932C01EB010E94986CF201268994
:100730003789621B730B6A307105B0F3F8948A81B4
:100740009B81181619060CF0CDC1E881F98165B1BD
:10075000862E689484F835B13F7E35B9DA848F816E
:100760002D2D281B822F2F834C85042E000C550B1A
:10077000AA81BB817889FF84E9887F5FF394E39441
:100780009E819884B984AB841181C12C6C2D0C2D71
:100790002C2D2181112788942111280F08F42FEF87
:1007A0008195889470FD120F1795889471FD120F32
:1007B0001795889472FD120F1795889473FD120F88
:1007C0001795889474FD120F1795889475FD120F74
:1007D0001795889476FD120F1795889477FD120F60
:1007E00017958894622F7111612F8D0D162F002C93
:1007F00085B800C017FF35B920816627889400C0EE
:1008000000C0002C35B92111290F00C0002C85B87B
:1008100000C016FF35B908F42FEF9195889400C0F9
:1008200000C0002C35B9F0FC620F00C0002C85B868
:1008300000C015FF35B967958894F1FC620F00C0C0
:1008400000C0002C35B96795889400C0002C85B88D
:1008500000C014FF35B9F2FC620F6795889400C0A0
:1008600000C0002C35B9F3FC620F00C0002C85B825
:1008700000C013FF35B967958894F4FC620F00C07F
:1008800000C0002C35B96795889400C0002C85B84D
:1008900000C012FF35B9F5FC620F6795889400C05F
:1008A00000C0002C35B9F6FC620F00C0002C85B8E2
:1008B00000C011FF35B967958894F7FC620F00C03E
:1008C00000C0002C35B96795889400C0002C85B80D
:1008D00000C010FF35B9122FF110162F9B0D00C06C
:1008E00000C0002C35B900C000C0002C85B800C085
:1008F00017FF35B922816627889400C000C0002CFC
:1009000035B92111290D00C0002C85B800C016FF93
:1009100035B908F42FEFE40FF51F00C000C0002C1C
:1009200035B9E0FC620F00C0002C85B800C015FF8F
:1009300035B967958894E1FC620F00C000C0002CB7
:1009400035B96795889400C0002C85B800C014FFA5
:1009500035B9E2FC620F6795889400C000C0002C96
:1009600035B9E3FC620F00C0002C85B800C013FF4E
:1009700035B967958894E4FC620F00C000C0002C74
:1009800035B96795889400C0002C85B800C012FF67
:1009900035B9E5FC620F6795889400C000C0002C53
:1009A00035B9E6FC620F00C0002C85B800C011FF0D
:1009B00035B967958894E7FC620F00C000C0002C31
:1009C00035B96795889400C0002C85B800C010FF29
:1009D00035B9122FE110162F919400C000C0002CE1
:1009E00035B99A0C00C000C085B800C017FF35B9F2
:1009F00021816627889400C000C0002C35B92111E0
:100A0000280F00C0002C85B800C016FF35B908F4C7
:100A10002FEF8195889400C000C0002C35B970FD7F
:100A2000620F00C0002C85B800C015FF35B967956E
:100A3000889471FD620F00C000C0002C35B9679525
:100A4000889400C0002C85B800C014FF35B972FD31
:100A5000620F6795889400C000C0002C35B973FD03
:100A6000620F00C0002C85B800C013FF35B9679530
:100A7000889474FD620F00C000C0002C35B96795E2
:100A8000889400C0002C85B800C012FF35B975FDF0
:100A9000620F6795889400C000C0002C35B976FDC0
:100AA000620F00C0002C85B800C011FF35B96795F2
:100AB000889477FD620F00C000C0002C35B967959F
:100AC000889400C0002C85B800C010FF35B9122FE3
:100AD0007111162F8D0D00C000C0002C35B9119773
:100AE00009F086CEEA81FB812EE130E0DF010E9431
:100AF000578B30E020E0A901AAE9EA9F0E0E411DC4
:100B0000FA9F400D511D11244F0F511DDC01CB01E7
:100B1000840F951FA11DB11D893E43E09407A105D7
:100B2000B10508F434C0885E9340A109B10942E0E0
:100B3000B695A795979587954A95D1F747E0849FF5
:100B4000080E211D949F200D311D1124290F311DE8
:100B500060911B0370E0860F971F820F931F4091D7
:100B600008045091090460910A0470910B04292F24
:100B70003327420F531F611D711D4093080450938A
:100B8000090460930A0470930B0480931B03789408
:100B90000E94986CF201778B668BDF91CF911F9149
:100BA0000F91FF90EF90DF90CF90BF90AF909F900C
:100BB0008F907F905F904F9008954F925F927F92B9
:100BC0008F929F92AF92BF92CF92DF92EF92FF925D
:100BD0000F931F93CF93DF932C01EB010E94986C2E
:100BE000F20126893789621B730B6A307105B0F3F5
:100BF000F8948A819B81181619060CF0CDC1E88102
:100C0000F98165B1862E689486F835B13F7B35B998
:100C1000DA848F812D2D281B822F2F834C85042E63
:100C2000000C550BAA81BB817889FF84E9887F5F1E
:100C3000F394E3949E819884B984AB841181C12C90
:100C40006C2D0C2D2C2D2181112788942111280F1A
:100C500008F42FEF8195889470FD120F17958894F2
:100C600071FD120F1795889472FD120F17958894D5
:100C700073FD120F1795889474FD120F17958894C1
:100C800075FD120F1795889476FD120F17958894AD
:100C900077FD120F17958894622F7111612F8D0DBA
:100CA000162F002C85B800C017FF35B920816627A4
:100CB000889400C000C0002C35B92111290F00C054
:100CC000002C85B800C016FF35B908F42FEF9195B8
:100CD000889400C000C0002C35B9F0FC620F00C041
:100CE000002C85B800C015FF35B967958894F1FCD4
:100CF000620F00C000C0002C35B96795889400C011
:100D0000002C85B800C014FF35B9F2FC620F67955E
:100D1000889400C000C0002C35B9F3FC620F00C0FD
:100D2000002C85B800C013FF35B967958894F4FC92
:100D3000620F00C000C0002C35B96795889400C0D0
:100D4000002C85B800C012FF35B9F5FC620F67951D
:100D5000889400C000C0002C35B9F6FC620F00C0BA
:100D6000002C85B800C011FF35B967958894F7FC51
:100D7000620F00C000C0002C35B96795889400C090
:100D8000002C85B800C010FF35B9122FF110162FB6
:100D90009B0D00C000C0002C35B900C000C0002C65
:100DA00085B800C017FF35B922816627889400C036
:100DB00000C0002C35B92111290D00C0002C85B8C8
:100DC00000C016FF35B908F42FEFE40FF51F00C07F
:100DD00000C0002C35B9E0FC620F00C0002C85B8C3
:100DE00000C015FF35B967958894E1FC620F00C01B
:100DF00000C0002C35B96795889400C0002C85B8D8
:100E000000C014FF35B9E2FC620F6795889400C0FA
:100E100000C0002C35B9E3FC620F00C0002C85B87F
:100E200000C013FF35B967958894E4FC620F00C0D9
:100E300000C0002C35B96795889400C0002C85B897
:100E400000C012FF35B9E5FC620F6795889400C0B9
:100E500000C0002C35B9E6FC620F00C0002C85B83C
:100E600000C011FF35B967958894E7FC620F00C098
:100E700000C0002C35B96795889400C0002C85B857
:100E800000C010FF35B9122FE110162F919400C049
:100E900000C0002C35B99A0C00C000C085B800C055
:100EA00017FF35B921816627889400C000C0002C47
:100EB00035B92111280F00C0002C85B800C016FFDD
:100EC00035B908F42FEF8195889400C000C0002C3C
:100ED00035B970FD620F00C0002C85B800C015FF49
:100EE00035B96795889471FD620F00C000C0002C71
:100EF00035B96795889400C0002C85B800C014FFF0
:100F000035B972FD620F6795889400C000C0002C4F
:100F100035B973FD620F00C0002C85B800C013FF07
:100F200035B96795889474FD620F00C000C0002C2D
:100F300035B96795889400C0002C85B800C012FFB1
:100F400035B975FD620F6795889400C000C0002C0C
:100F500035B976FD620F00C0002C85B800C011FFC6
:100F600035B96795889477FD620F00C000C0002CEA
:100F700035B96795889400C0002C85B800C010FF73
:100F800035B9122F7111162F8D0D00C000C0002C25
:100F900035B9119709F086CEEA81FB812EE130E068
:100FA000DF010E94578B30E020E0A901AAE9EA9F07
:100FB0000E0E411DFA9F400D511D11244F0F511D62
:100FC000DC01CB01840F951FA11DB11D893E43E0BB
:100FD0009407A105B10508F434C0885E9340A109C7
:100FE000B10942E0B695A795979587954A95D1F7AF
:100FF00047E0849F080E211D949F200D311D112470
:10100000290F311D60911B0370E0860F971F820F1F
:10101000931F409108045091090460910A04709153
:101020000B04292F3327420F531F611D711D40935D
:1010300008045093090460930A0470930B0480938E
:101040001B0378940E94986CF201778B668BDF917A
:10105000CF911F910F91FF90EF90DF90CF90BF90B5
:10106000AF909F908F907F905F904F9008956F9278
:101070007F928F92CF92DF92EF92FF920F931F9306
:10108000CF93DF93CDB7DEB762970FB6F894DEBF8C
:101090000FBECDBF8C016B017A01822FA801475F83
:1010A0005F4FB8016A5F7F4F0E9440723B01882EFC
:1010B000D8011C962C91C701F7FE04C088279927F8
:1010C0008E199F09DA82C9829C838B839E838D83CC
:1010D000688A798A8A8A213049F5CE0101960E9470
:1010E000377C83E08D871F861E86F7FE02C08DEF5A
:1010F0008D87D801ED91FC910088F189E02DBE012A
:101100006F5F7F4FC801199562960FB6F894DEBFE6
:101110000FBECDBFDF91CF911F910F91FF90EF9048
:10112000DF90CF908F907F906F9008951C861B86E4
:101130001A86198618861F82D4CFCF92DF92EF923B
:10114000FF920F931F93CF93DF93CDB7DEB76297D4
:101150000FB6F894DEBF0FBECDBF8C016B017A01D4
:10116000822FA801475F5F4FB8016A5F7F4F0E94DF
:1011700040729B01482FD8011C968C91DA82C9825B
:10118000FC82EB82FE82ED82288B398B4A8B813088
:1011900009F5CE0101960E94377C1D861F861E86AA
:1011A000D801ED91FC910088F189E02DBE016F5FBF
:1011B0007F4FC801199562960FB6F894DEBF0FBE37
:1011C000CDBFDF91CF911F910F91FF90EF90DF90F6
:1011D000CF9008951C861B861A86198618861F8252
:1011E000DCCFCF92DF92EF92FF920F931F93CF93BA
:1011F000C62F60914D0370914E036115710519F072
:1012000063307105C1F490E08C01000F111F080FCD
:10121000191F0B591C4F4FEF8C2F0E946F40F80184
:10122000608371838283CF911F910F91FF90EF9024
:10123000DF90CF9008956130710509F0B9C0823018
:1012400009F472C050F5F12CE12C813009F44CC046
:101250003AE8C32E34E0D32E46E9E42E44E0F42EDF
:10126000F601049110E0C801880F991F080F191F9B
:101270000B591C4F60914D0370914E034FEF8C2F13
:101280000E946F40F801608371838283FFEFCF1A61
:10129000DF0AEC14FD0421F7C6CF833009F466C0E1
:1012A000F12CE12C8430A1F6F701E255FB4FE491DB
:1012B000F0E08F01000F111F0E0F1F1F0B591C4F65
:1012C00060914D0370914E034FEF8C2F0E946F4041
:1012D000F801608371838283FFEFEF1AFF0A8CE0CD
:1012E000E816F10409F79FCFF701EA56FB4FE491A6
:1012F000F0E08F01000F111F0E0F1F1F0B591C4F25
:1013000060914D0370914E034FEF8C2F0E946F4000
:10131000F801608371838283FFEFEF1AFF0A88E090
:10132000E816F10409F77FCFF12CE12CF701E25622
:10133000FB4FE491F0E08F01000F111F0E0F1F1FF4
:101340000B591C4F60914D0370914E034FEF8C2F42
:101350000E946F40F801608371838283FFEFEF1A70
:10136000FF0A88E0E816F10409F75DCFF12CE12CC3
:10137000F701EA55FB4FE491F0E08F01000F111FD8
:101380000E0F1F1F0B591C4F60914D0370914E03A0
:101390004FEF8C2F0E946F40F8016083718382832E
:1013A000FFEFEF1AFF0A88E0E816F10409F73BCFD8
:1013B0006230710509F037CF823009F471C048F509
:1013C000F12CE12C813009F44BC05AEBE52E54E0AE
:1013D000F52EF7010491802F90E08C01000F111F72
:1013E000080F191F0B591C4F60914D0370914E034C
:1013F0004FEF8C2F0E946F40F801608371838283CE
:10140000FFEFEF1AFF0A86ECE81684E0F80609F70A
:101410000ACF833009F466C0F12CE12C8430A9F6A0
:10142000F701E252FB4FE491F0E08F01000F111F32
:101430000E0F1F1F0B591C4F60914D0370914E03EF
:101440004FEF8C2F0E946F40F8016083718382837D
:10145000FFEFEF1AFF0A8CE0E816F10409F7E3CE7C
:10146000F701EA53FB4FE491F0E08F01000F111FE9
:101470000E0F1F1F0B591C4F60914D0370914E03AF
:101480004FEF8C2F0E946F40F8016083718382833D
:10149000FFEFEF1AFF0A88E0E816F10409F7C3CE60
:1014A000F12CE12CF701E253FB4FE491F0E08F01C6
:1014B000000F111F0E0F1F1F0B591C4F60914D0382
:1014C00070914E034FEF8C2F0E946F40F8016083A4
:1014D00071838283FFEFEF1AFF0A88E0E816F104B8
:1014E00009F7A1CEF12CE12CF701EA52FB4FE49170
:1014F000F0E08F01000F111F0E0F1F1F0B591C4F23
:1015000060914D0370914E034FEF8C2F0E946F40FE
:10151000F801608371838283FFEFEF1AFF0A88E08E
:10152000E816F10409F77FCEE1E9F5E08091960530
:10153000808380919005818380918F058283809143
:101540008E05838380912602848308958230C8F4B7
:101550008BEF93E00E94774C8823A9F061E08DE047
:101560000E941C6B40E060E080E00E94D53E6093EA
:10157000FB037093FC038093FD0381E080933103B0
:1015800008950C947A7308958DE890E00E94F435E4
:101590008EE890E00E94F4358FE890E00E94F435E8
:1015A00080E990E00E94F43581E990E00E94F435F2
:1015B00082E990E00E94F43583E990E00E94F435DE
:1015C00084E990E00C94F435EF920F931F930E94FE
:1015D000C40A48EE56E060E070E085EB95E00E94BA
:1015E0001B7380910C0490910D04029771F440914B
:1015F0007E046EE870E08DE890E00E94286A109208
:1016000005021F910F91EF900895EE24E39410E0EE
:1016100000E020E040917E0460E08DE890E00E94D0
:101620007F36EDCF1F93CF93DF9310E080910D02B3
:10163000181708F03AC060914D0370914E03E12FE6
:10164000F0E061307105C9F06230710529F5E654AA
:10165000FB4FE491F0E0EF01CC0FDD1FCE0FDF1F59
:10166000CB59DC4F4FEF62E070E080E00E946F40AA
:10167000688379838A831F5FD9CFE657FB4FE49154
:10168000F0E0EF01CC0FDD1FCE0FDF1FCB59DC4F99
:101690004FEF61E070E0E9CFEF01CC0FDD1FCE0F1F
:1016A000DF1FCB59DC4F4FEFE0CFDF91CF911F9180
:1016B0000895EDE5F7E01086118610921A0370E0A8
:1016C00060E08BE00C94C16BCF9340915703509135
:1016D00058034330510561F190911002992341F173
:1016E00020914703309148032430310509F190914E
:1016F0003F039923E9F08823D9F0C82F42305105E0
:10170000D1F42330310551F48091C704882399F036
:1017100064EB70E08BE0CF910C94C16B8091C704B7
:10172000882331F08FEB94E00E94D672882361F316
:10173000CF910C94590B80911A038C1729F0C09308
:101740001A036C2F70E0E6CFCF9108951F93CF93CB
:10175000DF9310E080910D0260914D0370914E0374
:10176000181790F4812F90E0EC01CC0FDD1FC80F0B
:10177000D91FCB59DC4F4FEF8CE10E946F4068833B
:1017800079838A831F5FE6CF61307105A9F490E009
:10179000EC01CC0FDD1FC80FD91FCB59DC4F4FEF29
:1017A00061E070E08CE10E946F40688379838A83F6
:1017B000DF91CF911F91089562307105C9F790E0D4
:1017C000EC01CC0FDD1FC80FD91FCB59DC4F4FEFF9
:1017D00062E070E0E7CF809161039091620301972E
:1017E00039F480E190E0909304028093030208951D
:1017F00083E090E09093040280930302809147037A
:1018000090914803049761F0809163039091640381
:10181000019769F78091490390914A03892B39F721
:1018200086E090E0E0CF80915303909154038230A2
:10183000910581F038F4019799F080914F039091D0
:10184000500308958330910541F00497B1F783E088
:1018500090E0089581E090E0089582E090E008959E
:1018600090E080E008950E94130C029770F4E091DC
:101870004403F0E0EE0FFF1FE55CFD4F8081918196
:101880009093070280930602089582E990E0F8CFD2
:1018900090913703811118C0911101C02E9A8EEFDB
:1018A00093E00E94774C882371F040E06FEF80E076
:1018B0000E94D53E6093FE037093FF038093000463
:1018C00081E0809331030895911101C02E988EEF2D
:1018D00093E00E94774C8111F6CF8091450390915F
:1018E000460385309105C1F050F4049789F00E94B9
:1018F000130C40E06FEF0297B8F482E0D9CF863046
:10190000910571F0079799F740E06FEF8CE1D0CF28
:1019100040E06FEF8BE1CCCF40E06FEF89E1C8CFC3
:1019200040E06FEF88E1C4CF81E0C2CFE2E0F1E0B8
:1019300080818F7D808380818F7B80831098119838
:1019400080E00E94480C80E00E94A60AEDE8F4E0E6
:1019500010861186089580915F0390916003813015
:10196000910541F10297E1F481E090E090936203E8
:101970008093610380915B0390915C0381309105BA
:10198000F1F0029731F08091630390916403019725
:10199000B1F481E090E090935E0380935D0313C007
:1019A00080916303909164030197F1F20E94130CFC
:1019B0000297D0F61092620310926103DBCF10926F
:1019C0005E0310925D030C94EB0BEF920F931F9349
:1019D000909101029817F9F08430C1F40E94130C21
:1019E00040917E04EE24E39410E000E020E061E00A
:1019F0000297A8F08AE691E00E947F3644E650E024
:101A000060E070E081E495E00E941B738091010228
:101A10008F5F809301021F910F91EF9008958CE3E7
:101A200090E0EACF20914B0330914C0390913B031F
:101A3000E82FF0E02130310549F4992321F0E259F3
:101A4000FB4F84910895EE5AFB4FFBCF22303105B6
:101A500041F4992319F0E65DFB4FF3CFE45FFB4FB0
:101A6000F0CF992319F0E35BFB4FEBCFE85BFB4F23
:101A7000E8CFCF93C82F84E0C53070F10E94120DDB
:101A800060E00E941C6B81E08093190383E00E9458
:101A9000120D60E00E941C6B81E08093180382E0CD
:101AA0000E94120D60E00E941C6B81E0809317037E
:101AB00081E00E94120D60E00E941C6B81E0809327
:101AC000160380E00E94120D60E00E941C6B81E012
:101AD00080931503CF9108950E94120D61E00E943A
:101AE0001C6B10921903C43089F283E00E94120D1E
:101AF00061E00E941C6B10921803C33081F282E0F7
:101B00000E94120D61E00E941C6B10921703C230FC
:101B100079F281E00E94120D61E00E941C6B10922C
:101B20001603C111CECF80E00E94120D61E00E9429
:101B30001C6B10921503CECFCF93DF9380910202DE
:101B4000813418F481E48093020280914B039091D8
:101B50004C038130910509F055C180910F038C3100
:101B600030F1883308F064C0C8E3C81B8091470394
:101B700090914803049709F05EC00E94590B8C2F86
:101B80000E94120D0E94DF6DEC2FF0E0EF50FD4F30
:101B9000108280910F03873309F058C1109282059B
:101BA000109283051092F00210920F0341C00E9420
:101BB000120D0E94D86DC0910F03EC2FF0E0EF5092
:101BC000FD4F81E0808380910202805BC731A0F4E9
:101BD00080910202885DC13178F480910202825EB8
:101BE000CC3050F4809102028C5EC53028F4CC23B6
:101BF00029F080910202865F0E94640BCF5FC09340
:101C00000F03CC3109F05DC14AE550E060E070E0BF
:101C10008AE795E00E941B738091610390916203B3
:101C2000019731F488E090E09093040280930302DE
:101C3000DF91CF910895809161039091620320918B
:101C40000B02253018F48130910511F0892B51F4E5
:101C50008C2F0E94120D0E94DF6DEC2FF0E0EF50F0
:101C6000FD4F10828091610390916203009709F10A
:101C70000197F1F6C0910F0380910B02833009F4B4
:101C800078C090F5823009F492C0809102020E94DF
:101C9000640BC23309F0A9C010928205109283052B
:101CA0001092F00284E080930F03DF91CF910C94A7
:101CB000EB0B80910F03873309F052C144E050E0F1
:101CC00060E070E08BE495E00E941B731092820547
:101CD0001092830581E08093F00210920F030E941E
:101CE000EB0B8091020219C0843029F1853069F62E
:101CF000D0910202D75EC733A1F41092530510921F
:101D0000540510928205109283051092F0028BE127
:101D100080930F030E94EB0B8D2FDF91CF910C94DA
:101D2000640B109282051092830581E08093F0028B
:101D300087E38C1BEDCFC03279F4109282051092AC
:101D400083051092F00286E180930F030E94EB0B53
:101D500080910202825EE1CFC13208F43FC110924D
:101D600082051092830581E08093F00287E38C1B4B
:101D7000EBCFC63279F4109282051092830510924F
:101D8000F00280E180930F030E94EB0B809102022E
:101D9000865FC3CFC73208F44DC1109282051092FE
:101DA000830581E08093F00287E38C1BEBCFCB327D
:101DB00079F410928205109283051092F0028BE064
:101DC00080930F030E94EB0B809102028B5FA5CFE3
:101DD000CC3208F453C1109282051092830581E041
:101DE0008093F00287E38C1BEBCFC33308F4B8C0B9
:101DF000109282051092830581E08093F00287E3C0
:101E00008C1B51CF029709F059C180910F038E317D
:101E100058F18C3308F00CCFCBE3C81B80914703FB
:101E200090914803049709F05CC00E94590B8C2FD5
:101E30000E94120D0E94DF6DEC2FF0E0EF50FD4F7D
:101E4000108280910F038B3309F4A8CE40E550E057
:101E500060E070E08AE795E00E941B7380910F03B9
:101E60008F5F80930F03E4CE0E94120D0E94D86D05
:101E7000C0910F03EC2FF0E0EF50FD4F81E0808325
:101E800080910202805BC831A0F480910202885DDB
:101E9000C23178F480910202825ECC3050F480919D
:101EA00002028C5EC63028F4CC2329F08091020215
:101EB000865F0E94640BCF5FC0930F03CE3109F49D
:101EC000A3CE4091030250910402440F551F440FCA
:101ED000551F70E060E08AE795E0DF91CF910C94A8
:101EE0001B73809161039091620320910B02253056
:101EF00018F48130910511F0892B51F48C2F0E9438
:101F0000120D0E94DF6DEC2FF0E0EF50FD4F1082BC
:101F100080916103909162030097E9F0019709F0C5
:101F200087CEC0910F0380910B02833009F46DC0FE
:101F300010F5823009F495C0809102020E94640B72
:101F4000C53309F0AFC0109282051092830510923C
:101F5000F00285E0A8CE80910F038B3309F4AECE5A
:101F60004091030250910402440F551F440F551F26
:101F700070E060E06FCF8430E1F08530E9F6D09119
:101F80000202D75ECB3361F41092530510925405D0
:101F900010928205109283051092F0028DE1B8CE66
:101FA000109282051092830581E08093F0028BE30A
:101FB000C0CEC33241F41092820510928305109274
:101FC000F00287E1C1CEC43248F01092820510922F
:101FD000830581E08093F0028BE3C9CE4091030238
:101FE00050910402440F551F440F551F70E060E0EC
:101FF0008AE795E00E941B7380910F038F5F8093A7
:102000000F0380910202845F88CEC93241F410929E
:102010008205109283051092F00281E1B3CECA329C
:1020200048F0109282051092830581E08093F002BF
:102030008BE3BBCE4091030250910402440F551F25
:10204000440F551F70E060E08AE795E00E941B7323
:1020500080910F038F5F80930F03809102028C5E4B
:102060005CCECF3209F4A5CE48F0109282051092D2
:10207000830581E08093F0028BE3B5CE40910302AB
:1020800050910402440F551F440F551F70E060E04B
:102090008AE795E00E941B7380910F038F5F809306
:1020A0000F0374CEC63308F45BCF109282051092F2
:1020B000830581E08093F0028BE3A2CE80914703F9
:1020C00090914803C1E0049709F4C2E0E091100345
:1020D000EA3008F0ADCDF0E08827EE58FF4E8F4F84
:1020E0000C944F8B7C1096109D10A410AB10D01048
:1020F000E410F8100D11221180910202865F0E94F7
:10210000640B81E00E94390D88E7C89FA00111246B
:10211000052E000C660B770B8AE795E00E941B7377
:10212000809110038F5F8093100382CD8091020213
:102130008C5E0E94640B82E0E5CF80910202825E99
:102140000E94640B83E0DECF80910202885D0E94D2
:10215000640B84E0D7CF80910202805B0E94640B05
:1021600085E00E94390D80910B02853069F48091E1
:10217000470390914803049739F01092820510921A
:1021800083051092100354CD85E08093100388E7F7
:10219000C89FA0011124052E000C660B770B9BCE67
:1021A00080910202885D0E94640B84E00E94390DD8
:1021B00080910B02843031F4809147039091480361
:1021C0000497D9F686E0E1CF80910202825E0E94F8
:1021D000640B83E00E94390D80910B02833031F44F
:1021E0008091470390914803049739F687E0CDCF5B
:1021F000809102028C5E0E94640B82E00E94390D85
:1022000080910B02823039F480914703909148030A
:10221000049709F0B2CF88E0B8CF80910202865FC0
:102220000E94640B81E00E94390D80910B02813085
:1022300009F06ACF8091470390914803049709F40D
:1022400063CF9BCF80E00E94390D97CFEF92FF9232
:102250000F931F93CF93DF9380914B0390914C0387
:10226000009719F120E0029709F022E0C0E08EE12A
:1022700090E07C01E21AF108D1E00C2F10E00E157D
:102280001F055CF48C2F0E94120D0E94E16AF80178
:10229000EF50FD4FD083CF5FF0CFDF91CF911F91F3
:1022A0000F91FF90EF900C94D46D85E0DF91CF916A
:1022B0001F910F91FF90EF900C94390D809149037D
:1022C00090914A038130910539F4809147039091B0
:1022D0004803892B79F00895892B79F5809147037C
:1022E00090914803892B49F5809163039091640391
:1022F000019719F50E9401360E94223981E00E945F
:10230000483680914B0390914C030297A1F490E0E2
:102310008EE1891B80930F0385E0809310030E9458
:10232000261148E750E060E070E08AE795E00E94FF
:102330001B730C949C0D92E0EBCF0895EF92FF92EB
:102340000F931F93CF93DF9300D01F921F92CDB7AF
:10235000DEB780914B0390914C03892B09F4F0C0B8
:102360008BE495E00E94D672882309F460C08091C6
:102370004B0390914C0312E0029709F410E085E0C2
:10238000E1E3F2E0DE01119601900D928A95E1F70A
:102390008091610390916203019731F48AE089830F
:1023A0008A838B838C838D8380910F03282F30E069
:1023B0004EE150E07A01E11AF1089091F002992380
:1023C00009F45DC02E153F055CF40E94120D0E94B9
:1023D000D86DE0910F03F0E0EF50FD4F81E0808376
:1023E00080910B0200910F038530D9F50E151F0463
:1023F00051F14CF11092F0028EE1811B80930F039A
:1024000080916103909162034AE550E060E070E0E2
:10241000019711F510925305109254058091F00226
:10242000882329F080910F038F5F80930F030F9013
:102430000F900F900F900F90DF91CF911F910F9100
:10244000FF90EF9008954D8184E0489FA0011124F2
:10245000052E000C660B770B8BE495E00E941B7336
:10246000DDCF0E946C03081718F01092F002C8CF5D
:10247000E0910B02EC0FFD2FF11D4081E5CF2E15F1
:102480003F0554F40E94120D0E94DF6DE0910F038E
:10249000F0E0EF50FD4F108210910F03111116C0A4
:1024A00081E08093F0024AE550E060E070E08BE468
:1024B00095E00F900F900F900F900F90DF91CF91BC
:1024C0001F910F91FF90EF900C941B73115010937C
:1024D0000F0301E080914B0390914C03029709F4A4
:1024E00000E080910B0220916103309162038530FE
:1024F000A9F42130310541F41E151F042CF410926B
:1025000053051092540593CF4D8184E0489FA0015C
:102510001124052E000C660B770BC9CF2130310535
:1025200041F40E946C03800F9927991F1817190610
:1025300034F3E0910B02EC0FFD2FF11D4081E5CF4C
:1025400080910B028330C9F080F48230A1F081E0E9
:102550000F900F900F900F900F90DF91CF911F91E0
:102560000F91FF90EF900C94390D843041F085303D
:1025700071F785E0EDCF82E0EBCF83E0E9CF84E037
:10258000E7CFDF92EF92FF920F931F93CF93DF93EA
:1025900020914B0330914C0380910B0221153105A2
:1025A00009F45AC0D2E02230310509F4D0E02D2FD1
:1025B00030E0C0E0853029F58EE190E07C01E21A40
:1025C000F30ADD24D3940C2F10E00E151F055CF4E4
:1025D0008C2F0E94120D0E94E16AF801EF50FD4F0E
:1025E000D082CF5FF0CF0E94D46D8EE18D1B80939F
:1025F0000F03DF91CF911F910F91FF90EF90DF902C
:1026000008958EE190E07C01E21AF30AD1E00C2FEC
:1026100010E00E151F05CCF480910B020E946C0394
:102620000F501D4F8C1748F08C2F0E94120D0E94E6
:10263000E16AF801D083CF5FEACF8C2F0E94120DA0
:102640000E94FE6AF8011082F6CF0E94D46D80913C
:102650000B020E946C03CBCF8330A9F060F4823070
:1026600081F081E0DF91CF911F910F91FF90EF906A
:10267000DF900C94390D843041F0853091F785E07E
:10268000F1CF82E0EFCF83E0EDCF84E0EBCF0E948B
:10269000CA6DE1EFF2E0119283E0EF30F807D9F76D
:1026A000089580914B0390914C03892B21F00E9457
:1026B000471310920F03089580914B0390914C03A0
:1026C000892BB1F00E9451130E94960C0E949044F5
:1026D0001092100310920F038091070481110CC017
:1026E00040E65AEE60E070E08DE894E00C941B73D5
:1026F00080E00E94390DE8CF0895EF920F931F9369
:10270000EE24E39410E000E020E040917E0460E0DD
:1027100084E490E00E947F3610921303109212031B
:102720000E94590B1092110385E080930C021092C5
:102730004803109247030E945C130E94120B0E94F0
:1027400090440E94AB0C1F910F91EF900C94330CAE
:102750002091470330914803A90143505109423069
:10276000510518F02630310511F4882399F1909124
:102770000B0220910A02921303C0811118C0089520
:102780002917A8F481E08093F00244E250E060E071
:1027900070E09330D9F070F44EE150E060E070E00A
:1027A0009230A1F049E150E060E070E00FC010927B
:1027B000F002EBCF4DE250E060E070E0943031F099
:1027C0004CE350E060E070E0953061F78BE495E019
:1027D0000C941B7308958091490390914A038130B2
:1027E000910539F48091470390914803892B79F042
:1027F0000895892B49F58091470390914803892BCF
:1028000019F580916303909164030197E9F40E94A4
:1028100051131092BD041092BE0480913A038111AD
:1028200013C00E94EB0B80914B0390914C03892BBA
:1028300049F08091610390916203019719F480E05F
:102840000E94A8130C949C0D0895CF92DF92EF92F2
:10285000FF920F931F93CF9320914B0330914C0322
:1028600080915D0390915E03892B09F01BC72115B0
:10287000310509F420C6E0910F032230310509F03B
:1028800039C3EF3008F024C6F0E0909102028827A7
:10289000E35BFB4E8F4F0C944F8B5C148E14CB1468
:1028A000001541157615AB15E01515164A167F165D
:1028B000B416E9161D1752178EE6890F0E94640B95
:1028C0008EE00E94120D0E94E16A8FE00E94120DBC
:1028D0000E94E16A81E08093FF028093000380916F
:1028E0000F038F5F80930F038091F00281110EC060
:1028F0008DE00E94120D0E94FE6A80E10E94120D7E
:102900000E94FE6A1092FE021092010381E0809301
:10291000F0020E94D46D0E94074CDAC58EE6890F42
:102920000E94640B8DE00E94120D0E94E16A80E11A
:102930000E94120D0E94E16A81E08093FE02809362
:1029400001038091F002882391F08EE00E94120D25
:102950000E94FE6A8FE00E94120D0E94FE6A109291
:10296000FF021092000380910F038F5F11C08CE073
:102970000E94120D0E94FE6A81E10E94120D0E94C7
:10298000FE6A1092FD021092020380910F038150A3
:1029900080930F03BECF8EE6890F0E94640B8CE0FC
:1029A0000E94120D0E94E16A81E10E94120D0E94B4
:1029B000E16A81E08093FD02809302038091F0023E
:1029C000882379F08DE00E94120D0E94FE6A80E15A
:1029D0000E94120D0E94FE6A1092FE0210920103E4
:1029E000C2CF8BE00E94120D0E94FE6A82E10E941B
:1029F000120D0E94FE6A1092FC0210920303C5CFD2
:102A00008EE6890F0E94640B8BE00E94120D0E94DB
:102A1000E16A82E10E94120D0E94E16A81E08093E6
:102A2000FC02809303038091F002882391F08CE0F4
:102A30000E94120D0E94FE6A81E10E94120D0E9406
:102A4000FE6A1092FD021092020380910F038F5FC5
:102A500011C08AE00E94120D0E94FE6A83E10E946A
:102A6000120D0E94FE6A1092FB02109204038091E4
:102A70000F03815080930F030E94D46D0E949044F5
:102A800027C58EE6890F0E94640B8AE00E94120D12
:102A90000E94E16A83E10E94120D0E94E16A81E0D6
:102AA0008093FB02809304038091F002882379F0E5
:102AB0008BE00E94120D0E94FE6A82E10E94120DBC
:102AC0000E94FE6A1092FC0210920303BECF89E0BE
:102AD0000E94120D0E94FE6A84E10E94120D0E9463
:102AE000FE6A1092FA0210920503C1CF8EE6890F9A
:102AF0000E94640B89E00E94120D0E94E16A84E149
:102B00000E94120D0E94E16A81E08093FA02809394
:102B100005038091F002882379F08AE00E94120D6B
:102B20000E94FE6A83E10E94120D0E94FE6A1092CA
:102B3000FB021092040317CF88E00E94120D0E943E
:102B4000FE6A85E10E94120D0E94FE6A1092F9024F
:102B5000109206031ACF8EE6890F0E94640B88E05C
:102B60000E94120D0E94E16A85E10E94120D0E94EE
:102B7000E16A81E08093F902809306038091F0027C
:102B8000882379F089E00E94120D0E94FE6A84E198
:102B90000E94120D0E94FE6A1092FA021092050322
:102BA000E2CE87E00E94120D0E94FE6A86E10E943A
:102BB000120D0E94FE6A1092F80210920703E5CEF1
:102BC00080E7890F0E94640B87E00E94120D0E942B
:102BD000E16A86E10E94120D0E94E16A81E0809321
:102BE000F802809307038091F002882379F088E04F
:102BF0000E94120D0E94FE6A85E10E94120D0E9441
:102C0000FE6A1092F902109206031FCF86E00E941E
:102C1000120D0E94FE6A87E10E94120D0E94FE6A58
:102C20001092F7021092080322CF80E7890F0E94CA
:102C3000640B86E00E94120D0E94E16A87E10E9407
:102C4000120D0E94E16A81E08093F70280930803ED
:102C50008091F002882379F087E00E94120D0E9493
:102C6000FE6A86E10E94120D0E94FE6A1092F8022E
:102C700010920703EACE85E00E94120D0E94FE6AC0
:102C800088E10E94120D0E94FE6A1092F6021092D4
:102C90000903EDCE80E7890F0E94640B85E00E9456
:102CA000120D0E94E16A88E10E94120D0E94E16A01
:102CB00081E08093F602809309038091F0028823DB
:102CC00079F086E00E94120D0E94FE6A87E10E9460
:102CD000120D0E94FE6A1092F7021092080343CE72
:102CE00084E00E94120D0E94FE6A89E10E94120D8A
:102CF0000E94FE6A1092F50210920A0346CE80E707
:102D0000890F0E94640B84E00E94120D0E94E16A08
:102D100089E10E94120D0E94E16A81E08093F50230
:102D200080930A038091F002882379F085E00E9465
:102D3000120D0E94FE6A88E10E94120D0E94FE6A36
:102D40001092F602109209030ECE83E00E94120D3B
:102D50000E94FE6A8AE10E94120D0E94FE6A109291
:102D6000F40210920B0311CE80E7890F0E94640BCE
:102D700083E00E94120D0E94E16A8AE10E94120D16
:102D80000E94E16A81E08093F40280930B038091BA
:102D9000F002882379F084E00E94120D0E94FE6AFE
:102DA00089E10E94120D0E94FE6A1092F5021092B3
:102DB0000A034BCE82E00E94120D0E94FE6A8BE154
:102DC0000E94120D0E94FE6A1092F30210920C03F0
:102DD0004ECE83E7890F0E94640B82E00E94120DA1
:102DE0000E94E16A8BE10E94120D0E94E16A10923A
:102DF000F30210920C038091F002882379F083E0B3
:102E00000E94120D0E94FE6A8AE10E94120D0E9429
:102E1000FE6A1092F40210920B0317CE81E00E941A
:102E2000120D0E94FE6A8CE10E94120D0E94FE6A41
:102E30001092F20210920D031ACE83E7890F0E94BE
:102E4000640B81E00E94120D0E94E16A8CE10E94F5
:102E5000120D0E94E16A81E08093F20280930D03DB
:102E60008091F002882379F082E00E94120D0E9486
:102E7000FE6A8BE10E94120D0E94FE6A1092F3021C
:102E800010920C0370CD80E00E94120D0E94FE6A29
:102E90008DE10E94120D0E94FE6A1092F1021092C2
:102EA0000E0373CD83E7890F0E94640B80E00E94BC
:102EB000120D0E94E16A8DE10E94120D0E94E16AEA
:102EC00081E08093F10280930E030E94120D0E9414
:102ED000FE6A8CE10E94120D0E94FE6A1092F202BC
:102EE00010920D0380910F03815080930F03109275
:102EF000F0020FCDEE3008F0EBC2F0E0909102024C
:102F00008827EA57F84E8F4F0C944F8B9417BF17B2
:102F1000F41729185E189318C818FD183219671984
:102F20009C19D119051A3A1A8EE6890F0E94640B72
:102F30008DE00E94120D0E94E16A8EE00E94120D47
:102F40000E94E16A81E08093FE028093FF028091FB
:102F50000F038F5F80930F038091F0028111D6CC15
:102F60008CE00E94120D0E94FE6A8FE00E94120DFA
:102F70000E94FE6A1092FD0210920003C7CC8EE6FA
:102F8000890F0E94640B8CE00E94120D0E94E16A7E
:102F90008FE00E94120D0E94E16A81E08093FD02A1
:102FA000809300038091F002882379F08DE00E94E5
:102FB000120D0E94FE6A8EE00E94120D0E94FE6AAF
:102FC0001092FE021092FF02CECC8BE00E94120DF6
:102FD0000E94FE6A80E10E94120D0E94FE6A109219
:102FE000FC0210920103D1CC8EE6890F0E94640B83
:102FF0008BE00E94120D0E94E16A80E10E94120D96
:103000000E94E16A81E08093FC0280930103809139
:10301000F002882379F08CE00E94120D0E94FE6A73
:103020008FE00E94120D0E94FE6A1092FD02109223
:1030300000030BCD8AE00E94120D0E94FE6A81E11E
:103040000E94120D0E94FE6A1092FB02109202036F
:103050000ECD8EE6890F0E94640B8AE00E94120D4D
:103060000E94E16A81E10E94120D0E94E16A81E002
:103070008093FB02809302038091F002882379F011
:103080008BE00E94120D0E94FE6A80E10E94120DE8
:103090000E94FE6A1092FC0210920103D6CC89E0D5
:1030A0000E94120D0E94FE6A82E10E94120D0E948F
:1030B000FE6A1092FA0210920303D9CC8EE6890FB1
:1030C0000E94640B89E00E94120D0E94E16A82E175
:1030D0000E94120D0E94E16A81E08093FA028093BF
:1030E00003038091F002882379F08AE00E94120D98
:1030F0000E94FE6A81E10E94120D0E94FE6A1092F7
:10310000FB02109202032FCC88E00E94120D0E9455
:10311000FE6A83E10E94120D0E94FE6A1092F9027B
:103120001092040332CC8EE6890F0E94640B88E073
:103130000E94120D0E94E16A83E10E94120D0E941A
:10314000E16A81E08093F902809304038091F002A8
:10315000882379F089E00E94120D0E94FE6A82E1C4
:103160000E94120D0E94FE6A1092FA02109203034E
:10317000FACB87E00E94120D0E94FE6A84E10E9451
:10318000120D0E94FE6A1092F80210920503FDCB08
:1031900080E7890F0E94640B87E00E94120D0E9455
:1031A000E16A84E10E94120D0E94E16A81E080934D
:1031B000F802809305038091F002882379F088E07B
:1031C0000E94120D0E94FE6A83E10E94120D0E946D
:1031D000FE6A1092F9021092040337CC86E00E9436
:1031E000120D0E94FE6A85E10E94120D0E94FE6A85
:1031F0001092F702109206033ACC80E7890F0E94E2
:10320000640B86E00E94120D0E94E16A85E10E9433
:10321000120D0E94E16A81E08093F7028093060319
:103220008091F002882379F087E00E94120D0E94BD
:10323000FE6A84E10E94120D0E94FE6A1092F8025A
:103240001092050302CC85E00E94120D0E94FE6AD6
:1032500086E10E94120D0E94FE6A1092F602109200
:10326000070305CC80E7890F0E94640B85E00E946C
:10327000120D0E94E16A86E10E94120D0E94E16A2D
:1032800081E08093F602809307038091F002882307
:1032900079F086E00E94120D0E94FE6A85E10E948C
:1032A000120D0E94FE6A1092F702109206035BCB89
:1032B00084E00E94120D0E94FE6A87E10E94120DB6
:1032C0000E94FE6A1092F502109208035ECB80E71E
:1032D000890F0E94640B84E00E94120D0E94E16A33
:1032E00087E10E94120D0E94E16A81E08093F5025D
:1032F000809308038091F002882379F085E00E9492
:10330000120D0E94FE6A86E10E94120D0E94FE6A62
:103310001092F6021092070326CB83E00E94120D52
:103320000E94FE6A88E10E94120D0E94FE6A1092BD
:10333000F4021092090329CB80E7890F0E94640BE5
:1033400083E00E94120D0E94E16A88E10E94120D42
:103350000E94E16A81E08093F402809309038091E6
:10336000F002882379F084E00E94120D0E94FE6A28
:1033700087E10E94120D0E94FE6A1092F5021092DF
:10338000080363CB82E00E94120D0E94FE6A89E16D
:103390000E94120D0E94FE6A1092F30210920A031C
:1033A00066CB83E7890F0E94640B82E00E94120DB6
:1033B0000E94E16A89E10E94120D0E94E16A109266
:1033C000F30210920A038091F002882379F083E0DF
:1033D0000E94120D0E94FE6A88E10E94120D0E9456
:1033E000FE6A1092F402109209032FCB81E00E9432
:1033F000120D0E94FE6A8AE10E94120D0E94FE6A6E
:103400001092F20210920B0332CB83E7890F0E94D5
:10341000640B81E00E94120D0E94E16A8AE10E9421
:10342000120D0E94E16A81E08093F20280930B0307
:103430008091F002882379F082E00E94120D0E94B0
:10344000FE6A89E10E94120D0E94FE6A1092F30248
:1034500010920A0388CA80E00E94120D0E94FE6A40
:103460008BE10E94120D0E94FE6A1092F1021092EE
:103470000C038BCA83E7890F0E94640B80E00E94D3
:10348000120D0E94E16A8BE10E94120D0E94E16A16
:1034900081E08093F10280930C030E94120D0E9440
:1034A000FE6A8AE10E94120D0E94FE6A1092F202E8
:1034B00010920B0317CD80911003833009F4D0C014
:1034C00008F051C0813009F479C0823009F49FC0FE
:1034D00080914B0390914C03C8E7009709F0C8E234
:1034E0002091A905222311F40C94732281EA95E01E
:1034F0000E9490728B019C01E0910B02E150FF0B46
:10350000EE0FFF1FEC57FA4F8081918166E070E06B
:103510000E94278BCB01B0E0A0E0081719072A070B
:103520003B0708F0ADC680914B0390914C03892B6B
:1035300009F49DC64C2F46954695469550E04E5F42
:103540005F4F052E000C660B770B80E795E00E941D
:103550001B7386E0CF911F910F91FF90EF90DF904A
:10356000CF900C94E50C843009F451C0853009F0FB
:10357000AFCF8091020282590E94640B80E00E94CA
:10358000120D60E00E941C6B81E00E94120D61E050
:103590000E941C6B82E00E94120D61E00E941C6B75
:1035A00083E00E94120D61E00E941C6B84E00E9487
:1035B000120D60E00E941C6B81E026C08091020227
:1035C00082590E94640B80E00E94120D60E00E940C
:1035D0001C6B81E00E94120D61E00E941C6B82E076
:1035E0000E94120D61E00E941C6B83E00E94120D8C
:1035F00061E00E941C6B84E00E94120D60E00E945A
:103600001C6B809110038F5F8093100384C980919D
:10361000020280590E94640B80E00E94120D61E05A
:103620000E941C6B81E00E94120D60E00E941C6BE6
:1036300082E00E94120D61E00E941C6B83E00E94F8
:10364000120D60E00E941C6B84E00E94120D61E08C
:103650000E941C6B809110038F5F809310030ECA31
:10366000809102028D580E94640B80E00E94120D2E
:1036700061E00E941C6B81E00E94120D61E00E94DB
:103680001C6B82E00E94120D60E00E941C6B83E0C4
:103690000E94120D61E00E941C6B84E00E94120DDA
:1036A00061E0ADCF80910B022115310509F4AEC365
:1036B00012E02230310509F410E0CEE1CC2ED12CFD
:1036C000C11AD10890910F03911105C0833091F177
:1036D000A0F48230D1F140910F0390E0292F30E027
:1036E0002C153D05ECF52F503D4FF90180818111DE
:1036F00002C09417B0F19F5FF1CF843081F0853024
:1037000051F796010D2C000C440B550B62E170E053
:1037100080E090E00E948E6E60930F03DCCF6CE03F
:1037200070E080E090E00E94746E635F7F4F8F4F87
:103730009F4FF2CF6AE070E080E090E00E94746EEC
:10374000675F7F4F8F4F9F4FE7CF6AE070E080E069
:1037500090E00E94746E6D5F7F4F8F4F9F4FDCCF64
:1037600081E090910B02933009F4AAC1E8F4923001
:1037700009F468C2882309F410C3C7E080910F03DD
:10378000C81708F452C08C13F4C28091010284302F
:1037900009F4F9C208F0E2C2813008F0F9C267E02A
:1037A00070E080E090E0E1C2943009F4C7C0953049
:1037B00009F7882309F46BC0CDE1C11B0D2C000C67
:1037C000EE08FF0880910F03C81778F18C131EC014
:1037D00080910102833009F44AC050F4823009F428
:1037E0004DC0A701960162E170E080E090E00AC060
:1037F0008430B1F18530A9F7A701960166E070E049
:1038000080E090E00E948E6E60930F030C2F10E01A
:103810000F501D4FF80180818823B9F18C2F0E9431
:10382000120D0E94FE6AF80110820E94D46D9091E0
:103830000F0380910202973108F4E2C28D580E9472
:10384000640B9091100380910202943008F409C532
:103850008D580E94640B8091EF0280FD0FC95BC8F8
:10386000A701960169E070E080E090E0CBCFA7016E
:1038700096016CE070E080E090E0C4CFA701960173
:103880006FE070E080E090E0BDCFC1509BCFC0E022
:103890000D2C000CEE08FF0880910F038C1728F206
:1038A0008C131DC080910102833089F150F4813066
:1038B000E1F1823099F1A701960160E070E0CB015F
:1038C0000AC08430E9F08530B1F7A701960168E0BD
:1038D00070E080E090E00E948E6E60930F030C2FEA
:1038E00010E00F501D4FF8018081811125C08C2FF1
:1038F0000E94120D0E94E16A81E0F801808395CF59
:10390000A70196016CE070E080E090E0E4CFA701B1
:1039100096016EE070E080E090E0DDCFA7019601B7
:1039200060E170E080E090E0D6CFA701960162E10F
:1039300070E080E090E0CFCFCF5FAECF882309F476
:103940005FC0C9E180910F03C81708F46ECF8C13D4
:1039500021C080910102833091F160F4813009F43B
:1039600044C08230B9F169E170E080E090E00E94EB
:10397000746E0EC08430C1F08530A9F768E170E044
:1039800080E090E00E94746E6F5F7F4F8F4F9F4F7B
:1039900060930F030C2F10E00F501D4FF801808132
:1039A00081113CCFC150CECF65E170E080E090E066
:1039B0000E94746E6C5F7F4F8F4F9F4FE9CF62E123
:1039C00070E080E090E00E94746E695F7F4F8F4FDF
:1039D0009F4FDECF6FE070E080E090E00E94746E59
:1039E000665F7F4F8F4F9F4FD3CF6CE070E080E0DA
:1039F00090E00E94746E635F7F4F8F4F9F4FC8CFE0
:103A0000C0E080910F038C1708F40FCF8C1321C0F6
:103A100080910102833099F160F4813009F445C04E
:103A20008230C1F169E170E080E090E00E94746E44
:103A30000EC08430C9F08530A9F768E170E080E0FD
:103A400090E00E94746E6F5F7F4F8F4F9F4F609327
:103A50000F030C2F10E00F501D4FF80180818823B9
:103A600009F445CFCF5FCDCF65E170E080E090E015
:103A70000E94746E6C5F7F4F8F4F9F4FE8CF62E163
:103A800070E080E090E00E94746E695F7F4F8F4F1E
:103A90009F4FDDCF6FE070E080E090E00E94746E99
:103AA000665F7F4F8F4F9F4FD2CF6CE070E080E01A
:103AB00090E00E94746E635F7F4F8F4F9F4FC7CF20
:103AC000882309F45FC0C3E180910F03C81708F48D
:103AD000ACCE8C1321C080910102833091F160F44F
:103AE000813009F444C08230B9F163E170E080E0D4
:103AF00090E00E94746E0EC08430C1F08530A9F74A
:103B000062E170E080E090E00E94746E6F5F7F4F32
:103B10008F4F9F4F60930F030C2F10E00F501D4FDE
:103B2000F801808181117ACEC150CECF60E170E082
:103B300080E090E00E94746E6D5F7F4F8F4F9F4FCB
:103B4000E9CF6EE070E080E090E00E94746E6B5F01
:103B50007F4F8F4F9F4FDECF6CE070E080E090E0B2
:103B60000E94746E695F7F4F8F4F9F4FD3CF6AE083
:103B700070E080E090E00E94746E675F7F4F8F4F2F
:103B80009F4FC8CFC0E080910F038C1708F44DCE33
:103B90008C1321C080910102833099F160F481304F
:103BA00009F445C08230C1F163E170E080E090E04B
:103BB0000E94746E0EC08430C9F08530A9F762E1AE
:103BC00070E080E090E00E94746E6F5F7F4F8F4FD7
:103BD0009F4F60930F030C2F10E00F501D4FF80103
:103BE0008081882309F483CECF5FCDCF60E170E080
:103BF00080E090E00E94746E6D5F7F4F8F4F9F4F0B
:103C0000E8CF6EE070E080E090E00E94746E6B5F41
:103C10007F4F8F4F9F4FDDCF6CE070E080E090E0F2
:103C20000E94746E695F7F4F8F4F9F4FD2CF6AE0C3
:103C300070E080E090E00E94746E675F7F4F8F4F6E
:103C40009F4FC7CF882309F444C0CDE080910F0374
:103C5000C81708F4EACD8C131CC08091010284308F
:103C600011F148F4813050F56DE070E080E090E0B3
:103C70000E94746E0CC08530B9F76CE070E080E093
:103C800090E00E94746E6F5F7F4F8F4F9F4F6093E5
:103C90000F030C2F10E00F501D4FF8018081811190
:103CA000BDCDC150D3CF6BE070E080E090E00E94CA
:103CB000746E6E5F7F4F8F4F9F4FE9CF6AE070E069
:103CC00080E090E00E94746E6D5F7F4F8F4F9F4F3A
:103CD000DECFC0E080910F038C1708F4A6CD8C13C3
:103CE0001CC080910102843019F148F4813058F5EC
:103CF0006DE070E080E090E00E94746E0CC0853052
:103D0000B9F76CE070E080E090E00E94746E6F5F45
:103D10007F4F8F4F9F4F60930F030C2F10E00F507A
:103D20001D4FF8018081882309F4E1CDCF5FD2CF08
:103D30006BE070E080E090E00E94746E6E5F7F4FF9
:103D40008F4F9F4FE8CF6AE070E080E090E00E94E4
:103D5000746E6D5F7F4F8F4F9F4FDDCF853009F0C1
:103D60001ECD6AE070E080E090E00E94746E609387
:103D70000F030C2F10E00F501D4FF80180818111AF
:103D80004DCDC150FBCC69E070E080E090E0EDCF1C
:103D900068E070E080E090E0E8CFC0E080910F0341
:103DA0008C1708F442CD8C1316C080910102843028
:103DB000E9F038F48130F8F467E070E080E090E0FA
:103DC00006C08530C9F76AE070E080E090E00E94AC
:103DD000746E60930F030C2F10E00F501D4FF8010D
:103DE0008081882309F483CDCF5FD8CF69E070E06C
:103DF00080E090E0ECCF68E070E080E090E0E7CF1A
:103E00009C3010F080591BCD825919CD9091100330
:103E100091111DC0833009F45DC040F4823009F473
:103E200064C062E070E080E090E063C0843009F438
:103E30004CC08530B1F764E070E080E090E00E9413
:103E4000746E6E5F7F4F8F4F9F4F60931003209172
:103E50001003E5E1F3E090E08191811102C02917A0
:103E600020F49F5F9530C1F781E090910B02933071
:103E700009F415C108F040C0923009F469C18823E3
:103E800009F4C5C1C5E080911003C81708F4D9CC66
:103E90008C1312C080910102833009F4AEC108F482
:103EA000B1C1863008F0AEC166E070E080E090E01D
:103EB0000E94746E60931003EC2FF0E0EC5EFC4FF8
:103EC0008081C1508823F9F240C063E070E080E057
:103ED00090E0B5CF63E070E080E090E00E94746E07
:103EE0006F5F7F4F8F4F9F4FB0CF63E070E080E0F8
:103EF00090E00E94746EA9CF943009F46BC09530A5
:103F000009F0BDCF882381F1C5E080911003C81767
:103F100008F497CC8C1311C0809101028350833038
:103F2000C0F465E070E080E090E00E94746E6F5F26
:103F30007F4F8F4F9F4F60931003EC2FF0E0EC5EAC
:103F4000FC4F8081C150882301F38C2F0E94390DD2
:103F500078CC64E070E080E090E00E94746E6E5F68
:103F60007F4F8F4F9F4FE7CFC0E0809110038C179A
:103F700008F467CC8C130FC0809101028330A1F04C
:103F8000F0F08630E0F466E070E080E090E00E94BF
:103F9000746E60931003EC2FF0E0EB5EFC4F8081B9
:103FA000CF5F8111E2CFD1CF65E070E080E090E09B
:103FB0000E94746E6F5F7F4F8F4F9F4FEACF64E018
:103FC00070E080E090E00E94746E6E5F7F4F8F4FD4
:103FD0009F4FDFCF882369F1C5E080911003C81798
:103FE00008F42FCC8C1311C08091010283508330D0
:103FF000A8F465E070E080E090E00E94746E6F5F6E
:104000007F4F8F4F9F4F60931003EC2FF0E0EC5EDB
:10401000FC4F8081C150882301F397CF64E070E0AA
:1040200080E090E00E94746E6E5F7F4F8F4F9F4FD5
:10403000EACFC0E0809110038C1708F402CC8C13F7
:104040000FC0809101028330A1F0F0F08630E0F4DF
:1040500066E070E080E090E00E94746E6093100370
:10406000EC2FF0E0EB5EFC4F8081CF5F8111E2CF5F
:104070006CCF65E070E080E090E00E94746E6F5F4E
:104080007F4F8F4F9F4FEACF64E070E080E090E079
:104090000E94746E6E5F7F4F8F4F9F4FDFCF8823DC
:1040A00039F1C5E080911003C81708F4CACB8C130E
:1040B00011C08091010283508330A8F465E070E064
:1040C00080E090E00E94746E6F5F7F4F8F4F9F4F34
:1040D00060931003EC2FF0E0EC5EFC4F8081C15048
:1040E000882301F332CF63E070E080E090E0EACF14
:1040F000C0E0809110038C1708F4A3CB8C130FC081
:10410000809101028330A1F0F0F08630E0F466E0A7
:1041100070E080E090E00E94746E60931003EC2FDA
:10412000F0E0EB5EFC4F8081CF5F8111E2CF0DCFDD
:1041300065E070E080E090E00E94746E6F5F7F4FFA
:104140008F4F9F4FEACF63E070E080E090E0F4CFC4
:10415000882319F1C5E080911003C81708F471CBCA
:104160008C130DC0809101028250843088F466E087
:1041700070E080E090E00E94746E60931003EC2F7A
:10418000F0E0EC5EFC4F8081C150882321F3DDCE4E
:1041900063E070E080E090E0EECFC0E0809110033B
:1041A0008C1708F44ECB8C131AC080910102833017
:1041B00051F0F0F08630E0F466E070E080E090E0EE
:1041C0000E94746E0AC065E070E080E090E00E949A
:1041D000746E6F5F7F4F8F4F9F4F60931003EC2F74
:1041E000F0E0EB5EFC4F8081CF5F8111D7CFADCE89
:1041F00063E070E080E090E0E3CF65E070E080E0B5
:1042000090E056CE63E070E080E090E051CEC0E0F8
:10421000809110038C1708F414CB8C130FC080917D
:1042200001028330A1F0C0F08630B0F466E070E0A7
:1042300080E090E00E94746E60931003EC2FF0E039
:10424000EB5EFC4F8081CF5F8111E2CF7ECE65E0D7
:1042500070E080E090E0EECF63E070E080E090E01E
:10426000E9CF923010F08059F4CA8259F2CA8C2FEB
:1042700065E00E940D8B482F50E070E060E065C95A
:1042800081EA95E00E9490728B019C01E0910B0203
:10429000E150FF0BEE0FFF1FEC57FA4F8081918129
:1042A00065E070E00E94278BCB01B0E0A0E008172A
:1042B00019072A073B07E8F480914B0390914C03C0
:1042C0004C2F892B81F046954695469550E04C5FE2
:1042D0005F4F052E000C660B770B80E795E00E9480
:1042E0001B7385E037C94695469550E070E060E065
:1042F000F4CF81EA95E00E949072E0910B02E150C8
:10430000FF0BEE0FFF1FEC57FA4F208131813695DE
:10431000279536952795890130E020E060177107D1
:1043200082079307F8F480914B0390914C03892BFB
:1043300081F04C2F4695469550E04F5F5F4F052E1C
:10434000000C660B770B80E795E00E941B7384E0FE
:1043500001C98C2F63E00E94198B482F50E070E058
:1043600060E0F1CF81EA95E00E9490728B019C01A0
:10437000E0910B02E150FF0BEE0FFF1FEC57FA4FDD
:104380008081918163E070E00E94278BCB01B0E0D7
:10439000A0E0081719072A073B07D0F480914B03C8
:1043A00090914C034C2F892B79F04695469550E01F
:1043B0004D5F5F4F052E000C660B770B80E795E095
:1043C0000E941B7383E0C6C846954A50550BF2CF36
:1043D00081EA95E00E949072A0910B022A2F215051
:1043E000330BF901EE0FFF1FEC57FA4F408151815B
:1043F000569547956A01F12CE12C20914B033091A1
:104400004C036C157D058E059F05B8F44C2F232BAE
:1044100079F04695469550E04B5F5F4F052E000CB6
:10442000660B770B80E795E00E941B7382E092C8D1
:10443000469550E070E060E0F5CF232B61F14C2F02
:104440004695A33001F130F4A23009F150E0415F0C
:104450005F4F06C0A430F1F1A530C1F74550550BB0
:10446000052E000C660B770B80E795E00E941B730E
:1044700081E080930102CF911F910F91FF90EF9007
:10448000DF90CF90089550E04B5F5F4FE9CF50E051
:10449000465F5F4FE5CF20915D0330915E03213091
:1044A000310571F4A330A9F038F4A230B9F033E04B
:1044B000C39FA0011124D4CFA43029F0A530B9F7AF
:1044C0004C2F469507C04C2F469550E0425E5F4FFB
:1044D000C7CF4C2F50E070E060E0C6CF4C2F50E0CB
:1044E000440F551FBDCF892B49F14C2F4695809124
:1044F0000B0250E0833009F442C028F48230D9F036
:10450000445F5F4F06C0843099F08530C9F747504B
:104510005109052E000C660B770B80E795E0CF91D3
:104520001F910F91FF90EF90DF90CF900C941B7331
:1045300043505109EECF495F5F4FEBCF80915D0350
:1045400090915E03019781F480910B028330A9F072
:1045500038F48230B9F083E0C89FA0011124D9CF8C
:10456000843029F08530B9F74C2F469507C04C2F81
:10457000469550E0425E5F4FCCCF4C2F50E070E04C
:1045800060E0CBCF4C2F50E0440F551FC2CFE1EF7E
:10459000F4E010861186E9E1F5E010861186EBEF74
:1045A000F4E010861186E5E0F5E010861186EFE074
:1045B000F5E010861186E3E2F5E010861186109290
:1045C000EF02109214031092EE0284E68093000230
:1045D0000E94120B0C949044EF92FF920F931F9342
:1045E000CF93DF9380914D0390914E0381309105DD
:1045F00038F0C4E28330910530F0C0E0039719F041
:10460000C0910D02C15080913303882309F447C142
:1046100083E295E00E94D672882309F47AC2E09082
:104620000002EE2009F475C20E94130C039741F4B6
:104630008091450390914603BEE0FB2E892B11F03B
:10464000ACE0FA2E60914D0370914E03D0E0CE01A4
:10465000880F991F6230710509F45CC063307105E1
:1046600009F4DFC06130710509F0E4C08C0F9D1FB3
:104670008C010B591C4F4E2D61E070E08F2D0E9474
:104680006F40F801608371838283CE0147978C016C
:10469000000F111F080F191F0B591C4F60914D037C
:1046A00070914E03409100028F2D0E946F40F801DF
:1046B000608371838283CE0148978C01000F111FA4
:1046C000080F191F0B591C4F60914D0370914E0339
:1046D000409100028F2D0E946F40F801608371832A
:1046E0008283CE0149978C01000F111F080F191FFB
:1046F0000B591C4F60914D0370914E034091000285
:104700008F2D0E946F40F801608371838283CE01F8
:10471000019669C08C0F9D1F8C010B591C4F4E2DAB
:1047200062E070E08F2D0E946F40F801608371831A
:104730008283CE0101978C01000F111F080F191FF2
:104740000B591C4F60914D0370914E034091000234
:104750008F2D0E946F40F801608371838283CE01A8
:1047600002978C01000F111F080F191F0B591C4FC6
:1047700060914D0370914E03409100028F2D0E9475
:104780006F40F801608371838283CE0103978C01AF
:10479000000F111F080F191F0B591C4F60914D037B
:1047A00070914E03409100028F2D0E946F40F801DE
:1047B000608371838283CE0101968C01000F111FEB
:1047C000080F191F0B591C4F60914D0370914E0338
:1047D000409100028F2D0E946F40F8016083718329
:1047E0008283CE010296EC01CC0FDD1FC80FD91FCA
:1047F000CB59DC4F60914D0370914E034091000204
:104800008F2D0E946F40688379838A838091000294
:104810009091EC02911114C08035A1F40E94904453
:1048200011C08C0F9D1F8C010B591C4F4E2D63E046
:1048300070E066CFC80FD91FCB59DC4F4E2DE0CFAB
:104840008C3361F3809100029BEF980F90930002EC
:104850008650883C50F08091EC021092EE029BE46E
:10486000909300028F5F8093EC028091EC02833082
:1048700070F445E050E060E070E083E295E0DF91A5
:10488000CF911F910F91FF90EF900C941B73DF91CC
:10489000CF911F910F91FF90EF900C94C72283E26C
:1048A00095E00E94D672882309F42EC1009100027F
:1048B000002309F429C1E0914503F09146033197A3
:1048C00011E0E730F105A8F48827E659FB4D8F4F3A
:1048D0000C944F8BF02471247824E824EA24EC24EF
:1048E000EE240E94130C14E0019719F01FE001C0A0
:1048F0001DE060914D0370914E03D0E0CE01880F12
:10490000991F6230710509F46DC06330710509F4B7
:1049100007C16130710509F00DC18C0F9D1F9C010D
:104920002B593C4F7901402F61E070E0812F0E94AC
:104930006F40F701608371838283CE0147977C01CA
:10494000EE0CFF1CE80EF91E97012B593C4F790124
:1049500060914D0370914E0340910002812F0E949F
:104960006F40F701608371838283CE0148977C0199
:10497000EE0CFF1CE80EF91E97012B593C4F7901F4
:1049800060914D0370914E0340910002812F0E946F
:104990006F40F701608371838283CE0149977C0168
:1049A000EE0CFF1CE80EF91E97012B593C4F7901C4
:1049B00060914D0370914E0340910002812F0E943F
:1049C0006F40F701608371838283CE0101967CC0C2
:1049D0001BE18FCF19E18DCF18E18BCF1CE189CF7F
:1049E00016E187CF8C0F9D1F9C012B593C4F7901FD
:1049F000402F62E070E0812F0E946F40F7016083DA
:104A000071838283CE0101977C01EE0CFF1CE80EBE
:104A1000F91E97012B593C4F790160914D0370911C
:104A20004E0340910002812F0E946F40F701608386
:104A300071838283CE0102977C01EE0CFF1CE80E8D
:104A4000F91E97012B593C4F790160914D037091EC
:104A50004E0340910002812F0E946F40F701608356
:104A600071838283CE0103977C01EE0CFF1CE80E5C
:104A7000F91E97012B593C4F790160914D037091BC
:104A80004E0340910002812F0E946F40F701608326
:104A900071838283CE0101967C01EE0CFF1CE80E2F
:104AA000F91E97012B593C4F790160914D0370918C
:104AB0004E0340910002812F0E946F40F7016083F6
:104AC00071838283CE010296EC01CC0FDD1FC80FEB
:104AD000D91FCB59DC4F60914D0370914E0340912B
:104AE0000002812F0E946F40688379838A838091BE
:104AF000000281508093000245E050E060E070E0E9
:104B000083E295E00E941B7380910002882309F4E0
:104B1000BECEDF91CF911F910F91FF90EF9008953E
:104B20008C0F9D1F9C012B593C4F7901402F63E056
:104B300070E044CFC80FD91FCB59DC4F402FD1CFE5
:104B4000AF92BF92CF92DF92EF920F931F93CF93CA
:104B5000DF936B01E82E80914D0390914E038130DD
:104B6000910509F435C2029709F062C48BEF94E015
:104B70000E94D672882309F44BC4E091EF02EE2321
:104B800009F43FC080910D028E17D8F1C0914D03FA
:104B9000D0914E03E150FF0B8F0106541B4F8091C3
:104BA0004503909146038730910508F04CC083304F
:104BB000910508F0FEC08130910509F4EBC0029721
:104BC00009F4C7C0B090ED020E94130C9C01BB20F9
:104BD00009F459C0F801039709F047C00491E02F88
:104BE000F0E08F01000F111F0E0F1F1F0B591C4FFC
:104BF0004FEFBE018EE00E946F40F8016083718329
:104C000082838091EF0220910D028213E1C0109205
:104C1000EF028091450390914603039709F4F8C38E
:104C2000E0910B02E250E43008F01FC5F0E0EA5CCE
:104C3000FD4F80814AE050E0481B5109052E000CD1
:104C4000660B770BD2C4079709F0BCCFF80104912B
:104C5000E02FF0E08F01000F111F0E0F1F1F0B59E7
:104C60001C4F4FEFBE018CE1C6CF0491E02FF0E066
:104C70008F01000F111F0E0F1F1F0B591C4F4FEFFD
:104C8000BE0181E0B8CF90910B022130310549F58A
:104C9000933009F440C090F4923009F44BC0F8010D
:104CA0000491E02FF0E08F01000F111F0E0F1F1F66
:104CB0000B591C4F4FEFBE018AE09DCF9430B1F0ED
:104CC000953069F7F8010491E02FF0E08F01000FB3
:104CD000111F0E0F1F1F0B591C4F4FEFBE0185E018
:104CE0008ACF9330C1F088F4923061F7F8010491D3
:104CF000E02FF0E08F01000F111F0E0F1F1F0B5947
:104D00001C4F4FEFBE0187E076CF943099F095307D
:104D100009F4C5CFD7CFF8010491E02FF0E08F015F
:104D2000000F111F0E0F1F1F0B591C4F4FEFBE011D
:104D300088E061CFF8010491E02FF0E08F01000FCF
:104D4000111F0E0F1F1F0B591C4F4FEFBE0189E0A3
:104D500052CF0E94130CF801019771F40491E02FD7
:104D6000F0E08F01000F111F0E0F1F1F0B591C4F7A
:104D70004FEFBE0184E03FCF0491E02FF0E08F01C0
:104D8000000F111F0E0F1F1F0B591C4F4FEFBE01BD
:104D900080E131CFF8010491E02FF0E08F01000FA6
:104DA000111F0E0F1F1F0B591C4F4FEFBE0186E145
:104DB00022CFF8010491E02FF0E08F01000F111FC6
:104DC0000E0F1F1F0B591C4F4FEFBE0180E013CF7A
:104DD000821708F01DC390E0FC01E654FB4FE491FC
:104DE000F0E0AF01440F551FE40FF51FEB59FC4FE6
:104DF000C082D182E2824091450350914603411521
:104E0000510509F462C04330510509F0A0C0FC010E
:104E1000319630E0E217F30774F4E654FB4FE49167
:104E2000F0E0AF01440F551FE40FF51FEB59FC4FA5
:104E3000C082D182E282FC013296E217F30774F459
:104E4000E654FB4FE491F0E0AF01440F551FE40F2F
:104E5000F51FEB59FC4FC082D182E2820396821784
:104E600093070CF088C286549B4FFC018491E82F75
:104E7000F0E0CF01880F991FE80FF91FEB59FC4FA5
:104E8000C082D182E28220914503309146032230D4
:104E9000310509F487C02330310509F46CC28091D3
:104EA0000B02232B09F087C0833009F48CC008F073
:104EB0008DC247E050E060E070E0823009F47DC2CE
:104EC00048E050E060E070E078C28BEA289F212D36
:104ED0001124269530E050E040E060E070E0CB0126
:104EE0000E948E6E80910B02833069F120F4823033
:104EF00061F16E5F05C0843021F18530D1F7665FC6
:104F00002091EF0241E0420F260F3327331FE42F99
:104F1000F0E0E217F3070CF0B6CF80910D024817CE
:104F200070F4E654FB4FE491F0E0CF01880F991F35
:104F3000E80FF91FEB59FC4FC082D182E2824F5F2C
:104F4000E6CF685FDDCF6A5FDBCF6D5FD9CF269597
:104F5000269530E050E040E060E070E0CB010E9438
:104F60008E6E2091EF0241E0420F260F3327331F50
:104F7000E42FF0E0E217F3070CF085CF80910D02EB
:104F8000481770F4E654FB4FE491F0E0CF01880F2E
:104F9000991FE80FF91FEB59FC4FC082D182E282C2
:104FA0004F5FE6CF8091470390914803039709F044
:104FB00017C280910B02833009F4E7C108F032C2B6
:104FC000823009F408C246E050E060E070E0F5C1CC
:104FD0008BEF94E00E94D672882309F419C2C09125
:104FE000EF02CC23D9F180910D028C17B8F1C1509A
:104FF000DD0BC657DB4F809145039091460300912E
:105000004D0310914E038730910508F040C0833066
:10501000910508F0E8C08130910509F4D6C00297E7
:1050200009F4B4C08091ED02882309F44DC00E94B8
:10503000130CFE01039709F43AC0C491D0E0CE01ED
:10504000880F991FC80FD91FCB59DC4F4FEFB801FC
:1050500081E00E946F40688379838A838091EF02A8
:1050600020910D028213CDC01092EF028091450372
:1050700090914603039709F4CBC1E0910B02E250F3
:10508000E43008F0F2C2F0E0EA5CFD4FD2CD0797C1
:1050900049F6FE01C491D0E0CE01880F991FC80FD8
:1050A000D91FCB59DC4F4FEFB8018CE1D2CFC4915F
:1050B000D0E0CE01880F991FC80FD91FCB59DC4F04
:1050C0004FEFB8018EE0C5CF0E94130C20910B0268
:1050D000019739F5233009F43DC088F4223009F4F2
:1050E00047C0FE01C491D0E0CE01880F991FC80FC0
:1050F000D91FCB59DC4F4FEFB8018AE0AACF24303B
:10510000A9F0253071F7FE01C491D0E0CE01880FDF
:10511000991FC80FD91FCB59DC4F4FEFB80185E05D
:1051200098CF2330B9F080F4223069F7FE01C491A2
:10513000D0E0CE01880F991FC80FD91FCB59DC4F83
:105140004FEFB80187E085CF243091F0253009F486
:10515000C8CFD9CFFE01C491D0E0CE01880F991FEE
:10516000C80FD91FCB59DC4F4FEFB80188E071CF82
:10517000FE01C491D0E0CE01880F991FC80FD91F3E
:10518000CB59DC4F4FEFB80189E063CF0E94130C7D
:10519000FE01019769F4C491D0E0CE01880F991FF8
:1051A000C80FD91FCB59DC4F4FEFB80184E051CF66
:1051B000C491D0E0CE01880F991FC80FD91FCB59D9
:1051C000DC4F4FEFB80180E144CFFE01C491D0E045
:1051D000CE01880F991FC80FD91FCB59DC4F4FEF55
:1051E000B80186E136CFFE01C491D0E0CE01880F30
:1051F000991FC80FD91FCB59DC4F4FEFB80180E082
:1052000028CF821708F004C190E0FC01E657FB4F5D
:10521000E491F0E0AF01440F551FE40FF51FEB5987
:10522000FC4FC082D182E2824091450350914603F7
:105230004115510599F14330510509F071C0FC0148
:10524000319630E0E217F30774F4E657FB4FE49130
:10525000F0E0AF01440F551FE40FF51FEB59FC4F71
:10526000C082D182E282FC013296E217F30774F425
:10527000E657FB4FE491F0E0AF01440F551FE40FF8
:10528000F51FEB59FC4FC082D182E2820396821750
:1052900093070CF070C086579B4FE7CD8BEA289F91
:1052A000212D1124269530E050E040E060E070E0D0
:1052B000CB010E948E6E80910B02833069F120F445
:1052C000823061F16E5F05C0843021F18530D1F705
:1052D000665F2091EF0241E0420F260F3327331F14
:1052E000E42FF0E0E217F3070CF0CDCD80910D0232
:1052F000481770F4E657FB4FE491F0E0CF01880FB8
:10530000991FE80FF91FEB59FC4FC082D182E2824E
:105310004F5FE6CF685FDDCF6A5FDBCF6D5FD9CFD0
:105320002695269530E050E040E060E070E0CB014B
:105330000E948E6E2091EF0241E0420F260F33272C
:10534000331FE42FF0E0E217F3070CF09CCD8091BF
:105350000D02481770F4E657FB4FE491F0E0CF01DF
:10536000880F991FE80FF91FEB59FC4FC082D182BB
:10537000E2824F5FE6CF80910B02833019F150F447
:105380008230A1F083E08093180244E050E060E0B6
:1053900070E013C08430C1F08530A1F787E08093BE
:1053A000180242E050E060E070E007C083E08093C4
:1053B000180243E050E060E070E08BEF94E00E9460
:1053C0001B7321C084E0F3CF86E0F1CF843019F065
:1053D0008530D9F275CD45E050E060E070E0EDCF6A
:1053E00041E050E060E070E08BEF94E00E941B73BE
:1053F0008091EF0290E0049620910D022817190683
:1054000011F40E94074C8091EF028F5F8093EF02AE
:10541000DF91CF911F910F91EF90DF90CF90BF90D0
:10542000AF900895843029F2853009F4BACFCBCDFE
:105430008BEF94E00E94D672882351F3C091EF0263
:10544000CC23A9F180910D028C1788F1C150DD0B9E
:105450008091450390914603A0904D03B0904E0378
:105460008E01000F111F8730910508F046C0833070
:10547000910508F0A5C08130910509F499C0029703
:1054800009F488C08091ED02882309F442C00E948B
:10549000130CC00FD11FCB59DC4F4FEFB501039751
:1054A000B1F181E00E946F40688379838A838091A3
:1054B000EF0290910D028913A5C01092EF02809126
:1054C000450390914603039709F4A2CF80910B0204
:1054D00046E450E060E070E0833009F486C008F0F4
:1054E00077C045E550E060E070E0823009F47DC0AF
:1054F00044E650E060E070E078C0079719F6C00F0E
:10550000D11FCB59DC4F4FEFB5018CE1CBCF8EE0F3
:10551000C9CF0E94130C20910B020197C9F42330CC
:1055200049F150F4223071F1C00FD11FCB59DC4F3B
:105530004FEFB5018AE0B6CF243079F02530A1F7DE
:10554000C00FD11FCB59DC4F4FEFB50185E0AACF7B
:10555000233081F050F4223099F7C00FD11FCB597E
:10556000DC4F4FEFB50187E09DCF243059F0253057
:10557000D9F2E6CFC00FD11FCB59DC4F4FEFB501A9
:1055800088E090CFC00FD11FCB59DC4F4FEFB50152
:1055900089E088CF0E94130CC00FD11FCB59DC4F7C
:1055A0004FEFB501019711F484E07CCF80E17ACF11
:1055B000C00FD11FCB59DC4F4FEFB50186E172CF41
:1055C000C00FD11FCB59DC4F4FEFB50180E06ACF40
:1055D00047E350E060E070E0843039F048E250E0AA
:1055E00060E070E0853009F083CF8BEF94E0DF91CD
:1055F000CF911F910F91EF90DF90CF90BF90AF9020
:105600000C941B73891708F003CF90E0FC01EE0F98
:10561000FF1FE80FF91FEB59FC4FC082D182E282D5
:1056200080910B024AE150E060E070E0833009F4C1
:10563000C4CE60F44CE150E060E070E0823009F4E8
:10564000BCCE4EE150E060E070E0B7CE49E150E002
:1056500060E070E0843009F4B0CE48E150E060E0F2
:1056600070E0853009F4A9CEECCF85E0E3CA8091E3
:10567000140381111BC080910B02815020916103A2
:10568000309162038093100310920F032130310593
:1056900009F057C080915D0390915E03019709F076
:1056A00045C00E94C1120E949E11109A809145032C
:1056B00090914603029701F540E050E0BA018BEF6C
:1056C00094E00E941B730E94130C60914D03709133
:1056D0004E034FEF019709F039C081E00E946F40FF
:1056E0000E94A02540E050E0BA0185E095E00E94CC
:1056F0001B738EE080931403E0911403EE3008F0E6
:1057000031C0F0E08827E857F44D8F4F0C944F8B51
:10571000A82BD52BEE2B172C452C862CC22CF92C24
:10572000262D532D822D9C2DB12DBD2D0E94511360
:1057300085E090E090930402809303020E949C0D08
:10574000B4CF0E94511383E090E0F4CF8FE0C6CF36
:1057500080914503909146038130910501F1C8F095
:10576000039701F1809114038F5F809314038E30AF
:1057700008F006C2809145039091460342E1892BCF
:1057800009F444E250E070E060E081EF94E00C94B2
:105790001B7365E070E080E00E94F108E3CF65E1F3
:1057A00070E0F9CF6DE070E0F6CF80914503909105
:1057B00046038130910579F028F0039799F66BE064
:1057C00070E0E9CF67E070E080E00E94F10865E0FA
:1057D00070E081E0E1CF64E170E0DDCF80914503CE
:1057E0009091460381309105D1F058F0039709F06C
:1057F000B9CF69E070E080E00E94F1086DE070E0F0
:10580000E8CF61E070E080E00E94F10867E070E0BE
:1058100081E00E94F10865E070E082E0BDCF63E1C5
:1058200070E080E00E94F10865E170E0D2CF8091E5
:1058300045039091460381309105F9F058F00397A4
:1058400009F090CF67E070E080E00E94F1086BE023
:1058500070E0BFCF67E070E080E00E94F10861E097
:1058600070E081E00E94F10867E070E082E00E9451
:10587000F10865E070E083E08FCF66E170E080E0E2
:105880000E94F10864E170E0A4CF809145039091FB
:1058900046038130910569F180F0039709F062CFEA
:1058A00065E070E080E00E94F10869E070E081E06E
:1058B0000E94F1086DE070E0B0CF65E070E080E03C
:1058C0000E94F10867E070E081E00E94F10861E069
:1058D00070E082E00E94F10867E070E083E00E94DF
:1058E000F10865E070E084E00E94F1080E94074C36
:1058F00039CF61E070E080E00E94F10863E170E080
:1059000081E00E94F10865E170E087CF8091450356
:10591000909146038130910541F180F0039709F0A1
:1059200021CF70E060E080E00E94F10867E070E065
:1059300081E00E94F1086BE070E06FCF70E060E002
:1059400080E00E94F10865E070E081E00E94F108CB
:1059500067E070E082E00E94F10861E070E083E0BF
:105960000E94F10867E070E0CBC070E060E080E08A
:105970000E94F10866E170E081E00E94F10864E1B4
:1059800070E04BCF809145039091460381309105A3
:1059900019F180F0039709F0E5CE65E070E081E051
:1059A0000E94F10869E070E082E00E94F1086DE079
:1059B00070E061CF70E060E081E00E94F10865E096
:1059C00070E082E00E94F10867E070E083E00E94EE
:1059D000F10861E070E094C061E070E081E00E9455
:1059E000F10863E170E082E00E94F10865E170E097
:1059F00042CF809145039091460381309105C9F0D3
:105A000080F0039709F0AECE70E060E081E00E9484
:105A1000F10867E070E082E00E94F1086BE070E05E
:105A20002ACF70E060E082E00E94F10865E070E05B
:105A300096CF70E060E081E00E94F10866E170E0DE
:105A400082E00E94F10864E170E015CF8091450387
:105A50009091460381309105C9F080F0039709F0D9
:105A600081CE65E070E082E00E94F10869E070E0BC
:105A700083E00E94F1086DE070E035CF70E060E0F7
:105A800083E00E94F10865E070E03AC061E070E0F8
:105A900082E00E94F10863E170E083E00E94F10877
:105AA00065E170E020CF80914503909146038130FD
:105AB0009105D1F080F0039709F054CE70E060E0DA
:105AC00082E00E94F10867E070E083E00E94F10844
:105AD0006BE070E015C070E060E084E00E94F108C7
