:100000000C94C4020C94F5020C94F5020C94F502C5
:100010000C94F5020C94F5020C94F5020C94F50284
:100020000C94F5020C94F5020C94F5020C94F50274
:100030000C94F5020C94F5020C94F5020C94F50264
:100040000C94F5020C94F5020C94F5020C94F50254
:100050000C94F5020C94F5020C94F5020C94533BAD
:100060000C94F5020C94A73C0C947D3C0C94F50286
:100070000C94F5020C94F5020C94F5020C94F50224
:100080000C94F5020C94F5020C94F5020C94F50214
:100090000C94533C0C94293C0C94F5020C94D13CE8
:1000A0000C94F5020C94F5020C94F5020C94F502F4
:1000B0000C94F5020C94F5020C94F5020C94F502E4
:1000C0000C94F5020C94F5020C94F5020C94F502D4
:1000D0000C94F5020C94F5020C94FF3B0C94D53B68
:1000E0000C94F5020C94A5310C94E8340C949130E6
:1000F0000C94E30D0C94E6360C94CA2F0C94122247
:100100000C942C2F0C945A0E0C94D2360C94850E11
:100110000C9400370C94EE360C9471310C94DE3054
:100120000C94242F0C94E3340C9414370C94BB36A9
:100130000C9442600C94550F0C94FA4A0C94EC10F9
:100140000C9452100C9445300C9437370C94EA34CC
:100150000C9423720C94432F0C94CD340C94472FA1
:100160000C9484200C945A2F0C945B0B0C94BA0EB4
:100170000C9429320C94CE2F0C945D220C94C8322E
:100180000C9455080C94B4210C94D1340C94FA0AB4
:100190000C945F2F0C943B080C9485320C94233004
:1001A0000C94D7340C94BB340C94C3360C940A379B
:1001B0000C9424320C94B7100C944E310C94E13111
:1001C0000C94DC080C9441370C94EC380C945A35A0
:1001D0000C94C32F0C94A50C0C94C8340C942F2FA2
:1001E0000C94552F0C9421100C94E4310C944D2F49
:1001F0000C9478310C94C2340C94F74A0C94C534A6
:100200000C942D370C94F4340C9414300C94990BFA
:100210000C94440D0C94700C0C94202F0C941A2FF9
:100220000C94D9340C941E350C94BF340C94AE0845
:100230000C9423370C94FE4A0C9456200C94EB5FDC
:100240000C94060C0C94DA0C0C945B2F0C94EF0EAF
:100250000C9427320C94D10B0C940F0D0C94DF34BA
:100260000C9487100C94B4610C94CA200C943D60DB
:100270000C947B210C94B1610C9472220C94392F54
:100280000C94D5340C94C92F0C94CF340C94910851
:100290000C94D3340C94E6340C94F0340C94EC0F9E
:1002A0000C9455370C94DD340C9463080C94F234A0
:1002B0000C94BC080C945C080C94BD2F0C94373043
:1002C0000C94C8360C944F310C940F6C0C948162D2
:1002D0000C94EC340C94E04C0C9476610C94D74C58
:1002E0000C94200F0C943F2F0C94282F0C949F20DB
:1002F0000C944B370C94512F0C94DC360C945E31DB
:100300000C9441350C94180E0C94CA340C94CB2FD9
:100310000C94A0080C94B2340C943D210C94B63487
:100320000C94F6360C94AE0D0C94250B0C94D43131
:100330000C94024B0C943B0C0C94FA200C94D76058
:100340000C9443220C94F44A0C94790D0C94E32100
:100350000C94860F0C946A080C94E0310C94DB34F6
:100360000C94352F0C947E220C94B90F00060C12BD
:10037000181E00040B10161B4505152535443424A2
:100380001404433323130302122232424131211158
:100390000100102030404030201000011121314177
:1003A000423222120203132333430414243444350B
:1003B000251505453738393A3B3B3A39383700106F
:1003C000203001112131021222320313233304148D
:1003D0002434051525350616263636261606352507
:1003E000150534241404332313033222120231215D
:1003F00011013020100000191830011A172F021BAC
:10040000162E031C152D041D142C051E132B061F60
:10041000122A072011290821102809220F270A2350
:100420000E260B240D25000000006410B71DC82007
:100430006E3BAC30D9269041DC76F4516B6B586141
:10044000B24D3C7105502083B8ED44930FF0E8A302
:10045000D6D68CB361CBB0C2649BD4D2D38678E2BB
:100460000AA01CF2BDBD00002100240027002A00C4
:100470002D003000330001010000040107010A01D2
:1004800000002200250028002B002E00310034003F
:1004900002010000050108010B01000020002300FB
:1004A000260029002C002F0032000001000003016B
:1004B00006010901050505050705080808080202E7
:1004C00002020A0A080804040404010101010101EE
:1004D00001010303030303030303040707070C0CD1
:1004E0000C0C0C0C0C0C0202020206060606060698
:1004F00006060B0B0B0B0B0B0B0B0102102020083D
:10050000081020401020408002010201080402016E
:1005100001020408102040808040201008040201DD
:100520008004020180402010080402010804020136
:1005300001020408102040800102040810204080BD
:1005400000000A0B02090C0D0E080703040100004D
:10055000000000000000000000000000000000009B
:100560000000000000000000000000001211100058
:10057000000000000000000000000000000000007B
:10058000000000000000237211241FBECFEFD1E253
:10059000DEBFCDBF00E00CBF12E0A0E0B2E0E0EFB4
:1005A000F4E001E00BBF02C007900D92AA3DB10735
:1005B000D9F72CE0AAEDB2E001C01D92A03DB20730
:1005C000E1F712E0C4ECD2E000E006C02197010997
:1005D000802FFE010E943D81C33CD10780E00807C7
:1005E000A9F70E9463750C9476820C940000209108
:1005F0002603309127032130310531F4E82FF0E054
:10060000EE58FC4F849108952230310529F4E82FEB
:10061000F0E0E459FC4FF6CF81E00895EF92FF92AD
:100620000F931F93CF93C62F6091DA037091DB0372
:1006300061307105B1F090E08C01000F111F080FBF
:10064000191F045C1C4F4FEF8C2F0E940A59F801B0
:10065000608371838283CF911F910F91FF90EF9000
:100660000895823009F471C048F5F12CE12C8130F5
:1006700009F44BC056EFE52E53E0F52EF701049137
:10068000802F90E08C01000F111F080F191F045CD0
:100690001C4F6091DA037091DB034FEF8C2F0E94A7
:1006A0000A59F801608371838283FFEFEF1AFF0A12
:1006B00082E0E81684E0F80609F7CDCF833009F42C
:1006C00066C0F12CE12C8430A9F6F701E65EFB4F01
:1006D000E491F0E08F01000F111F0E0F1F1F045C4B
:1006E0001C4F6091DA037091DB034FEF8C2F0E9457
:1006F0000A59F801608371838283FFEFEF1AFF0AC2
:100700008CE0E816F10409F7A6CFF701EE5FFB4F86
:10071000E491F0E08F01000F111F0E0F1F1F045C0A
:100720001C4F6091DA037091DB034FEF8C2F0E9416
:100730000A59F801608371838283FFEFEF1AFF0A81
:1007400088E0E816F10409F786CFF12CE12CF701D7
:10075000E65FFB4FE491F0E08F01000F111F0E0FD9
:100760001F1F045C1C4F6091DA037091DB034FEF95
:100770008C2F0E940A59F801608371838283FFEFF6
:10078000EF1AFF0A88E0E816F10409F764CFF12CAC
:10079000E12CF701EE5EFB4FE491F0E08F01000FDA
:1007A000111F0E0F1F1F045C1C4F6091DA03709124
:1007B000DB034FEF8C2F0E940A59F801608371838D
:1007C0008283FFEFEF1AFF0A88E0E816F10409F7C9
:1007D00042CFCF93DF93C2E0D1E088818F7D8883C1
:1007E00061E08DE00E94DE352E9A88818F7B8883C0
:1007F000E1E6F4E010861186E7E5F4E01086118664
:10080000DF91CF910895809138039091390301973A
:1008100039F480E190E090930402809303020895FC
:1008200083E090E090930402809303028091D803C8
:100830009091D903049761F080913A0390913B0322
:10084000019769F78091240390912503892B39F74B
:1008500086E090E0E0CF80912C0390912D038230D0
:10086000910581F038F4019799F0809128039091D7
:10087000290308958330910541F00497B1F783E08F
:1008800090E0089581E090E0089582E090E008957E
:1008900090E080E008958091360390913703813095
:1008A000910541F10297E1F481E090E090933903E2
:1008B0008093380380913203909133038130910506
:1008C000F1F0029731F080913A0390913B03019748
:1008D000B1F481E090E0909335038093340313C02A
:1008E00080913A0390913B030197F1F20E942B040F
:1008F0000297D0F61092390310923803DBCF109292
:100900003503109234030C940304EF920F931F935A
:10091000909101029817F9F08430C1F40E942B04E1
:1009200040914B04EE24E39410E000E020E061E00D
:100930000297A8F08AE691E00E94364F44E650E024
:1009400060E070E085E195E00E947F4080910102C7
:100950008F5F809301021F910F91EF9008958CE3B8
:1009600090E0EACF2091260330912703909119035C
:10097000E82FF0E02130310549F4992321F0E652C7
:10098000FC4F84910895E254FC4FFBCF2230310597
:1009900041F4992319F0EA56FC4FF3CFE858FC4F85
:1009A000F0CF992319F0E754FC4FEBCFEC54FC4FF8
:1009B000E8CFCF93C82F84E0C53070F10E94B20415
:1009C00060E00E94DE3581E08093100383E00E94A6
:1009D000B20460E00E94DE3581E080930F0382E084
:1009E0000E94B20460E00E94DE3581E080930E0335
:1009F00081E00E94B20460E00E94DE3581E08093D5
:100A00000D0380E00E94B20460E00E94DE3581E0C8
:100A100080930C03CF9108950E94B20461E00E947C
:100A2000DE3510921003C43089F283E00E94B204D4
:100A300061E00E94DE3510920F03C33081F282E044
:100A40000E94B20461E00E94DE3510920E03C230B3
:100A500079F281E00E94B20461E00E94DE351092DA
:100A60000D03C111CECF80E00E94B20461E00E946C
:100A7000DE3510920C03CECFCF93809102028134E9
:100A800018F481E480930202809126039091270359
:100A90008130910509F060C1809103038C3130F100
:100AA000883308F052C0C7E3C81B8091D8039091E7
:100AB000D903049709F063C00E9476418C2F0E94ED
:100AC000B2040E94A138EC2FF0E0EB51FD4F1082F0
:100AD00080910303873309F063C110925605109289
:100AE000570510920B03109203032FC00E94B2040B
:100AF0000E949A3880910303E82FF0E0EB51FD4FFC
:100B000091E09083873118F180910202805B0E940E
:100B1000AA41809103038F5F809303038C3109F016
:100B200068C14AE550E060E070E08EE495E00E9424
:100B30007F408091380390913903019731F488E028
:100B400090E09093040280930302CF910895813145
:100B500020F080910202885DDACF8C3020F0809105
:100B60000202825ED4CF853020F0809102028C5E3A
:100B7000CECF882371F280910202865FC8CF809128
:100B800038039091390320910602253018F4813002
:100B9000910511F0892B51F48C2F0E94B2040E9410
:100BA000A138EC2FF0E0EB51FD4F1082809138031B
:100BB00090913903009701F1019739F6809106026F
:100BC000833009F47CC098F5823009F498C0809194
:100BD00002020E94AA4190910303923309F0AFC030
:100BE000109256051092570510920B0384E08093E3
:100BF0000303CF910C94030480910303873309F01E
:100C00005EC144E050E060E070E08FE195E00E945A
:100C10007F40109256051092570581E080930B0398
:100C2000109203030E940304809102021BC08430CF
:100C300031F1853061F690910303C0910202C75EE5
:100C4000973399F4109227051092280510925605B3
:100C50001092570510920B038BE1809303030E94BF
:100C600003048C2FCF910C94AA4110925605109238
:100C7000570581E080930B0387E3891BEECF9091AA
:100C80000303903279F41092560510925705109292
:100C90000B0386E1809303030E9403048091020208
:100CA000825EE0CF913208F44CC11092560510924A
:100CB000570581E080930B0387E3891BEBCF90916D
:100CC0000303963279F4109256051092570510924C
:100CD0000B0380E1809303030E94030480910202CE
:100CE000865FC0CF973208F45AC110925605109211
:100CF000570581E080930B0387E3891BEBCF90912D
:100D000003039B3279F41092560510925705109206
:100D10000B038BE0809303030E9403048091020283
:100D20008B5FA0CF9C3208F468C1109256051092D8
:100D3000570581E080930B0387E3891BEBCF933347
:100D400008F4BDC0109256051092570581E08093BB
:100D50000B0387E3891B4BCF029709F06EC180918B
:100D600003038F3158F18E3308F0EFCECDE3C81B6B
:100D70008091D8039091D903049709F061C00E9433
:100D800076418C2F0E94B2040E94A138EC2FF0E033
:100D9000EB51FD4F1082809103038D3309F49DCEFA
:100DA00040E550E060E070E08EE495E00E947F4016
:100DB000809103038F5F80930303C7CE0E94B20428
:100DC0000E949A3880910303E82FF0E0EB51FD4F29
:100DD00091E090838A31E0F080910202805B0E9472
:100DE000AA41809103038F5F809303038F3109F43D
:100DF00098CE4091030250910402440F551F440FB6
:100E0000551F70E060E08EE495E0CF910C947F4038
:100E1000843120F080910202885DE1CF8F3020F094
:100E200080910202825EDBCF883020F08091020246
:100E30008C5ED5CF8823A9F280910202865FCFCF46
:100E4000809138039091390320910602253018F4DF
:100E50008130910511F0892B51F48C2F0E94B2043E
:100E60000E94A138EC2FF0E0EB51FD4F10828091F1
:100E70003803909139030097E9F0019709F065CEA6
:100E800080910602833009F473C020F5823009F4A2
:100E90009DC0809102020E94AA4190910303973362
:100EA00009F0BFC0109256051092570510920B031F
:100EB00086E09DCE809103038D3309F4A2CE40914C
:100EC000030250910402440F551F440F551F70E058
:100ED00060E06ACF8430F1F08530D9F69091030359
:100EE000C0910202C75E9D3361F4109227051092F3
:100EF0002805109256051092570510920B038EE1AB
:100F0000ACCE109256051092570581E080930B03EA
:100F10008DE3B3CE90910303953241F410925605C0
:100F20001092570510920B0388E1B4CE963248F028
:100F3000109256051092570581E080930B038DE3C4
:100F4000BCCE4091030250910402440F551F440F40
:100F5000551F70E060E08EE495E00E947F40809134
:100F600003038F5F8093030380910202845F7ACE34
:100F7000909103039B3241F410925605109257054D
:100F800010920B0382E1A6CE9C3248F010925605D7
:100F90001092570581E080930B038DE3AECE409114
:100FA000030250910402440F551F440F551F70E077
:100FB00060E08EE495E00E947F40809103038F5FA4
:100FC00080930303809102028C5E4CCE90910303C8
:100FD000913341F4109256051092570510920B036D
:100FE0008CE098CE923348F0109256051092570537
:100FF00081E080930B038DE3A0CE409103025091DA
:101000000402440F551F440F551F70E060E08EE44A
:1010100095E00E947F40809103038F5F80930303DC
:101020005DCE983308F44BCF1092560510925705B9
:1010300081E080930B038DE38DCE8091D803909156
:10104000D903C1E0049709F4C2E0E0910403EA3057
:1010500008F07BCDF0E08827EF5CF74F8F4F0C94C2
:101060003D813B0855085C0863086A089108A008A0
:10107000AE08BC08DC0880910202865F0E94AA418B
:1010800081E00E94D90488E7C89FA0011124052EA1
:10109000000C660B770B8EE495E00E947F408091F8
:1010A00004038F5F8093040350CD809102028C5E15
:1010B0000E94AA4182E0E5CF80910202825E0E94F6
:1010C000AA4183E0DECF80910202885D0E94AA419E
:1010D00084E0D7CF80910202805B0E94AA4185E024
:1010E0000E94D90480910403282F30E02F5F3F4FE6
:1010F000909106029217130641F42091D803309183
:10110000D9032430310509F050C08F5F8093040368
:1011100088E7C89FA0011124052E000C660B770BF1
:1011200072CE80910202885D0E94AA4184E00E94F2
:10113000D90480910403482F4150550B9A01D8CF10
:1011400080910202825E0E94AA4183E00E94D9043B
:1011500080910403482F4350550BF0CF8091020239
:101160008C5E0E94AA4182E00E94D904809104030F
:10117000482F4550550BE2CF80910202865F0E94B6
:10118000AA4181E00E94D904809104038750990B01
:10119000209106022817190609F075CF8091D8030F
:1011A0009091D903049709F46ECF109256051092CE
:1011B000570510920403C9CC80E00E94D904F5CFF2
:1011C000EF92FF920F931F93CF93DF9380912603AB
:1011D00090912703009719F120E0029709F022E08F
:1011E000C0E08EE190E07C01E21AF108D1E00C2F22
:1011F00010E00E151F055CF48C2F0E94B2040E94B3
:10120000A335F801EB51FD4FD083CF5FF0CFDF91D5
:10121000CF911F910F91FF90EF900C94963885E03D
:10122000DF91CF911F910F91FF90EF900C94D90413
:10123000EF92FF920F931F93CF93DF9300D01F92F3
:101240001F92CDB7DEB78091260390912703892B9B
:1012500009F4F0C08FE195E00E944F40882309F423
:1012600060C0809126039091270312E0029709F451
:1012700010E085E0E3E3F2E0DE01119601900D92CB
:101280008A95E1F78091380390913903019731F401
:101290008AE089838A838B838C838D838091030387
:1012A000282F30E04EE150E07A01E11AF1089091E8
:1012B0000B03992309F45DC02E153F055CF40E94D1
:1012C000B2040E949A38E0910303F0E0EB51FD4F25
:1012D00081E0808380910602009103038530D9F577
:1012E0000E151F0451F14CF110920B038EE1811B7E
:1012F0008093030380913803909139034AE550E0CD
:1013000060E070E0019711F5109227051092280512
:1013100080910B03882329F0809103038F5F8093D2
:1013200003030F900F900F900F900F90DF91CF91CC
:101330001F910F91FF90EF9008954D8184E0489F99
:10134000A0011124052E000C660B770B8FE195E0B0
:101350000E947F40DDCF0E94F702081718F010921C
:101360000B03C8CFE0910602EC0FFD2FF11D408169
:10137000E5CF2E153F0554F40E94B2040E94A13817
:10138000E0910303F0E0EB51FD4F10821091030355
:10139000111116C081E080930B034AE550E060E034
:1013A00070E08FE195E00F900F900F900F900F90ED
:1013B000DF91CF911F910F91FF90EF900C947F40A0
:1013C00011501093030301E08091260390912703AD
:1013D000029709F400E080910602209138033091D1
:1013E00039038530A9F42130310541F41E151F045D
:1013F0002CF4109227051092280593CF4D8184E09C
:10140000489FA0011124052E000C660B770BC9CF55
:101410002130310541F40E94F702800F9927991F6E
:101420001817190634F3E0910602EC0FFD2FF11D99
:101430004081E5CF809106028330C9F080F482308C
:10144000A1F081E00F900F900F900F900F90DF911F
:10145000CF911F910F91FF90EF900C94D90484309D
:1014600041F0853071F785E0EDCF82E0EBCF83E08E
:10147000E9CF84E0E7CFDF92EF92FF920F931F93C3
:10148000CF93DF93209126033091270380910602AA
:101490002115310509F45AC0D2E02230310509F492
:1014A000D0E02D2F30E0C0E0853029F58EE190E0CE
:1014B0007C01E21AF30ADD24D3940C2F10E00E1500
:1014C0001F055CF48C2F0E94B2040E94A335F80122
:1014D000EB51FD4FD082CF5FF0CF0E9496388EE166
:1014E0008D1B80930303DF91CF911F910F91FF908C
:1014F000EF90DF9008958EE190E07C01E21AF30A0C
:10150000D1E00C2F10E00E151F05CCF480910602DF
:101510000E94F7020B511D4F8C1748F08C2F0E9430
:10152000B2040E94A335F801D083CF5FEACF8C2F9D
:101530000E94B2040E94C035F8011082F6CF0E94CA
:101540009638809106020E94F702CBCF8330A9F033
:1015500060F4823081F081E0DF91CF911F910F9193
:10156000FF90EF90DF900C94D904843041F08530E7
:1015700091F785E0F1CF82E0EFCF83E0EDCF84E01B
:10158000EBCFCF92DF92EF92FF920F931F93CF9307
:10159000DF932091260330912703809134039091AB
:1015A0003503892B09F031C72115310509F435C6FA
:1015B000E09103032230310509F062C3E03108F005
:1015C00039C6F0E0909102028827E651F54F8F4F1F
:1015D0000C943D81FA0A250B5B0B990BD10B060C81
:1015E0003B0C700CA50CDA0C0F0D440D790DAE0DF3
:1015F000E30D180E8EE6890F0E94AA418FE00E942B
:10160000B2040E94A33581E08093F4028091030329
:101610008F5F8093030380910B0381110EC08EE0D6
:101620000E94B2040E94C03580E10E94B2040E9470
:10163000C0351092F3021092F50281E080930B0303
:101640000E9496380E945059F5C58EE6890F0E9477
:10165000AA418EE00E94B2040E94A33580E10E945C
:10166000B2040E94A33581E08093F3028093F502D7
:1016700080910B03882359F08FE00E94B2040E94EE
:10168000C0351092F402809103038F5F11C08DE08A
:101690000E94B2040E94C03581E10E94B2040E94FF
:1016A000C0351092F2021092F6028091030381502D
:1016B00080930303C5CF8EE6890F0E94AA418DE077
:1016C0000E94B2040E94A33581E10E94B2040E94EC
:1016D000A33581E08093F2028093F60280910B03A0
:1016E000882379F08EE00E94B2040E94C03580E128
:1016F0000E94B2040E94C0351092F3021092F502CB
:101700003DC08CE00E94B2040E94C03582E10E947C
:10171000B2040E94C0351092F1021092F70280913B
:1017200003038150809303030E9496380E943C5922
:1017300081C58EE6890F0E94AA418CE00E94B20406
:101740000E94A33582E10E94B2040E94A33581E089
:101750008093F1028093F70280910B03882391F02C
:101760008DE00E94B2040E94C03581E10E94B20463
:101770000E94C0351092F2021092F602809103038B
:101780008F5FD0CF8BE00E94B2040E94C03583E10E
:101790000E94B2040E94C0351092F0021092F8022A
:1017A000BECF8EE6890F0E94AA418BE00E94B20450
:1017B0000E94A33583E10E94B2040E94A33581E018
:1017C0008093F0028093F80280910B03882379F0D4
:1017D0008CE00E94B2040E94C03582E10E94B204F3
:1017E0000E94C0351092F1021092F7024CCF8AE0AD
:1017F0000E94B2040E94C03584E10E94B2040E949B
:10180000C0351092EF021092F9024FCF8EE6890F89
:101810000E94AA418AE00E94B2040E94A33584E19A
:101820000E94B2040E94A33581E08093EF0280936E
:10183000F90280910B03882379F08BE00E94B204B7
:101840000E94C03583E10E94B2040E94C03510920C
:10185000F0021092F80217CF89E00E94B2040E94B1
:10186000C03585E10E94B2040E94C0351092EE029C
:101870001092FA021ACF80E7890F0E94AA4189E0EC
:101880000E94B2040E94A33585E10E94B2040E9426
:10189000A33581E08093EE028093FA0280910B03DE
:1018A000882379F08AE00E94B2040E94C03584E166
:1018B0000E94B2040E94C0351092F0021092F80209
:1018C0005DCF88E00E94B2040E94C03586E10E948C
:1018D000B2040E94C0351092ED021092FB021FCF9D
:1018E00080E7890F0E94AA4188E00E94B2040E940A
:1018F000A33586E10E94B2040E94A33581E0809363
:10190000ED028093FB0280910B03882379F089E03C
:101910000E94B2040E94C03585E10E94B2040E9478
:10192000C0351092EE021092FA0228CF87E00E9492
:10193000B2040E94C03587E10E94B2040E94C03503
:101940001092EC021092FC02EACE80E7890F0E940E
:10195000AA4187E00E94B2040E94A33587E10E9459
:10196000B2040E94A33581E08093EC028093FC02D4
:1019700080910B03882379F088E00E94B2040E94D2
:10198000C03586E10E94B2040E94C0351092ED027B
:101990001092FB0278CE86E00E94B2040E94C0350D
:1019A00088E10E94B2040E94C0351092EB021092AE
:1019B000FD027BCE80E7890F0E94AA4186E00E944B
:1019C000B2040E94A33588E10E94B2040E94A335AC
:1019D00081E08093EB028093FD0280910B038823CA
:1019E00079F087E00E94B2040E94C03587E10E942E
:1019F000B2040E94C0351092EC021092FC0243CE59
:101A000085E00E94B2040E94C03589E10E94B204C0
:101A10000E94C0351092EA021092FE0246CE80E784
:101A2000890F0E94AA4185E00E94B2040E94A3355A
:101A300089E10E94B2040E94A33581E08093EA020A
:101A40008093FE0280910B03882379F086E00E9448
:101A5000B2040E94C03588E10E94B2040E94C035E1
:101A60001092EB021092FD0289CE84E00E94B20433
:101A70000E94C0358AE10E94B2040E94C0351092D3
:101A8000E9021092FF024BCE83E7890F0E94AA4120
:101A900084E00E94B2040E94A3358AE10E94B2044D
:101AA0000E94A33581E08093E9028093FF02809138
:101AB0000B03882379F085E00E94B2040E94C035B0
:101AC00089E10E94B2040E94C0351092EA0210928D
:101AD000FE0254CE83E00E94B2040E94C0358BE126
:101AE0000E94B2040E94C0351092E80210920003D6
:101AF00016CE83E7890F0E94AA4183E00E94B204B8
:101B00000E94A3358BE10E94B2040E94A33581E0BC
:101B10008093E8028093000380910B03882379F07F
:101B200084E00E94B2040E94C0358AE10E94B2049F
:101B30000E94C0351092E9021092FF02A4CD82E00B
:101B40000E94B2040E94C0358CE10E94B2040E943F
:101B5000C0351092E70210920103A7CD83E7890FE9
:101B60000E94AA4182E00E94B2040E94A3358CE147
:101B70000E94B2040E94A33581E08093E702809323
:101B8000010380910B03882379F083E00E94B20463
:101B90000E94C0358BE10E94B2040E94C0351092B1
:101BA000E802109200036FCD81E00E94B2040E940F
:101BB000C0358DE10E94B2040E94C0351092E60249
:101BC0001092020372CD83E7890F0E94AA4181E03F
:101BD0000E94B2040E94A3358DE10E94B2040E94CB
:101BE000A33581E08093E6028093020380910B038A
:101BF000882379F082E00E94B2040E94C0358CE113
:101C00000E94B2040E94C0351092E70210920103B4
:101C10003ACD80E00E94B2040E94C0358EE10E945D
:101C2000B2040E94C0351092E502109203033DCD2C
:101C300083E7890F0E94AA4180E00E94B2040E94BB
:101C4000A3358EE10E94B2040E94A33581E0809307
:101C5000E502809303030E94B2040E94C0358DE127
:101C60000E94B2040E94C0351092E6021092020354
:101C70008091030381508093030310920B03E0CC07
:101C8000EE3008F0D7C2F0E0909102028827E45BC2
:101C9000F14F8F4F0C943D815A0E850EBA0EEF0E08
:101CA000200F550F860FB90FEC0F2110521087101F
:101CB000B710EC108EE6890F0E94AA418DE00E94B9
:101CC000B2040E94A3358EE00E94B2040E94A335A4
:101CD00081E08093F2028093F302809103038F5F8F
:101CE0008093030380910B038111A7CC8CE00E94A9
:101CF000B2040E94C0358FE00E94B2040E94C03539
:101D00001092F1021092F40298CC8EE6890F0E9494
:101D1000AA418CE00E94B2040E94A3358FE00E9489
:101D2000B2040E94A33581E08093F1028093F40213
:101D300080910B03882379F08DE00E94B2040E9409
:101D4000C0358EE00E94B2040E94C0351092F202AB
:101D50001092F30298CC8BE00E94B2040E94C0352E
:101D600080E10E94B2040E94C0351092F0021092ED
:101D7000F5029BCC8EE6890F0E94AA418BE00E945F
:101D8000B2040E94A33580E10E94B2040E94A335F0
:101D900081E08093F0028093F50280910B03882309
:101DA00079F08CE00E94B2040E94C0358FE00E945E
:101DB000B2040E94C0351092F1021092F402DECCFF
:101DC0008AE00E94B2040E94C03581E10E94B20400
:101DD0000E94C0351092EF021092F602A0CC8EE65F
:101DE000890F0E94AA418AE00E94B2040E94A33592
:101DF00081E10E94B2040E94A33581E08093EF024A
:101E00008093F60280910B03882369F08BE00E9497
:101E1000B2040E94C03580E10E94B2040E94C03525
:101E20001092F0026BCC89E00E94B2040E94C0358F
:101E300082E10E94B2040E94C0351092EE026DCC85
:101E40008EE6890F0E94AA4189E00E94B2040E9496
:101E5000A33582E10E94B2040E94A33581E0809301
:101E6000EE028093F70280910B03882379F08AE0D9
:101E70000E94B2040E94C03581E10E94B2040E9417
:101E8000C0351092EF021092F602FDCB88E00E945E
:101E9000B2040E94C03583E10E94B2040E94C035A2
:101EA0001092ED021092F80200CC8EE6890F0E948B
:101EB000AA4188E00E94B2040E94A33583E10E94F7
:101EC000B2040E94A33581E08093ED028093F80272
:101ED00080910B03882369F089E00E94B2040E947C
:101EE000C03582E10E94B2040E94C0351092EE0219
:101EF0007BCC87E00E94B2040E94C03584E10E943E
:101F0000B2040E94C0351092EC027DCC80E7890FAC
:101F10000E94AA4187E00E94B2040E94A33584E196
:101F20000E94B2040E94A33581E08093EC0280936A
:101F3000F90280910B03882369F088E00E94B204C3
:101F40000E94C03583E10E94B2040E94C035109205
:101F5000ED02B4CC86E00E94B2040E94C03585E157
:101F60000E94B2040E94C0351092EB021092FA0255
:101F7000D6CB80E7890F0E94AA4186E00E94B20476
:101F80000E94A33585E10E94B2040E94A33581E03E
:101F90008093EB028093FA0280910B03882379F0FF
:101FA00087E00E94B2040E94C03584E10E94B2041E
:101FB0000E94C0351092EC021092F902DFCB85E04E
:101FC0000E94B2040E94C03586E10E94B2040E94C1
:101FD000C0351092EA0281CC80E7890F0E94AA41A5
:101FE00085E00E94B2040E94A33586E10E94B204FB
:101FF0000E94A33581E08093EA028093FB028091E6
:102000000B03882379F086E00E94B2040E94C03559
:1020100085E10E94B2040E94C0351092EB0210923A
:10202000FA0231CB84E00E94B2040E94C03587E1FD
:102030000E94B2040E94C0351092E9021092FC0284
:1020400034CB80E7890F0E94AA4184E00E94B20449
:102050000E94A33587E10E94B2040E94A33581E06B
:102060008093E9028093FC0280910B03882369F03E
:1020700085E00E94B2040E94C03586E10E94B2044D
:102080000E94C0351092EA0283CC83E00E94B20421
:102090000E94C03588E10E94B2040E94C0351092AF
:1020A000E80285CC80E7890F0E94AA4183E00E9464
:1020B000B2040E94A33588E10E94B2040E94A335B5
:1020C00081E08093E8028093FD0280910B038823D6
:1020D00079F084E00E94B2040E94C03587E10E943A
:1020E000B2040E94C0351092E9021092FC0246CB65
:1020F00082E00E94B2040E94C03589E10E94B204CD
:102100000E94C0351092E7021092FE0208CB83E7CE
:10211000890F0E94AA4182E00E94B2040E94A33566
:1021200089E10E94B2040E94A3351092E702109246
:10213000FE0280910B03882369F083E00E94B204C1
:102140000E94C03588E10E94B2040E94C0351092FE
:10215000E80288CC81E00E94B2040E94C0358AE186
:102160000E94B2040E94C0351092E6028ACC83E736
:10217000890F0E94AA4181E00E94B2040E94A33507
:102180008AE10E94B2040E94A33581E08093E602B6
:102190008093FF0280910B03882379F082E00E94F4
:1021A000B2040E94C03589E10E94B2040E94C03589
:1021B0001092E7021092FE0266CA80E00E94B2040A
:1021C0000E94C0358BE10E94B2040E94C03510927B
:1021D000E5021092000369CA83E7890F0E94AA41B1
:1021E00080E00E94B2040E94A3358BE10E94B204F9
:1021F0000E94A33581E08093E502809300030E9452
:10220000B2040E94C0358AE10E94B2040E94C03527
:102210001092E6021092FF022BCD809104038330CE
:1022200009F4D1C008F052C0813009F47AC082307C
:1022300009F4A0C08091260390912703C8E7009776
:1022400009F0C8E220917D05222311F40C94451970
:1022500085E795E00E9409408B019C01E091060210
:10226000E150FF0BEE0FFF1FE85AFA4F808191817A
:1022700066E070E00E941581CB01B0E0A0E0081795
:1022800019072A073B0708F0CBC6809126039091D7
:102290002703892B09F4BBC64C2F469546954695D6
:1022A00050E04E5F5F4F052E000C660B770B84E409
:1022B00095E00E947F4086E0DF91CF911F910F91C2
:1022C000FF90EF90DF90CF900C948504843009F458
:1022D00051C0853009F0AECF8091020282590E9430
:1022E000AA4180E00E94B20460E00E94DE3581E0F5
:1022F0000E94B20461E00E94DE3582E00E94B204D6
:1023000061E00E94DE3583E00E94B20461E00E9439
:10231000DE3584E00E94B20460E00E94DE3581E098
:1023200026C08091020282590E94AA4180E00E9448
:10233000B20460E00E94DE3581E00E94B20461E0F8
:102340000E94DE3582E00E94B20461E00E94DE3528
:1023500083E00E94B20461E00E94DE3584E00E94C6
:10236000B20460E00E94DE35809104038F5F8093A9
:10237000040368C98091020280590E94AA4180E04A
:102380000E94B20461E00E94DE3581E00E94B20446
:1023900060E00E94DE3582E00E94B20461E00E94AB
:1023A000DE3583E00E94B20460E00E94DE3584E006
:1023B0000E94B20461E00E94DE35809104038F5FC9
:1023C00080930403B3C9809102028D580E94AA41F0
:1023D00080E00E94B20461E00E94DE3581E00E944C
:1023E000B20461E00E94DE3582E00E94B20460E047
:1023F0000E94DE3583E00E94B20461E00E94DE3577
:1024000084E00E94B20461E0ADCF80910602211504
:10241000310509F4CBC3C2E02230310509F4C0E034
:10242000EC2EF12C90910303911106C08330D9F169
:10243000D0F4823009F442C06091030390E04EE191
:1024400050E04E195F09292F30E0241735070CF0B2
:1024500040C02B513D4FF9018081811102C0961778
:10246000C8F19F5FF0CF843099F0853029F72DE1D6
:1024700030E02E193F09032E000C440B550B62E18E
:1024800070E080E090E00E94B73B60930303D4CFFC
:102490006CE070E080E090E00E949D3B635F7F4FC6
:1024A0008F4F9F4FF2CF6AE070E080E090E00E9493
:1024B0009D3B675F7F4F8F4F9F4FE7CF6AE070E094
:1024C00080E090E00E949D3B6D5F7F4F8F4F9F4F5C
:1024D000DCCF81E090910602933009F4C1C1E8F4A9
:1024E000923009F47FC2882309F427C3C7E08091A2
:1024F0000303C81708F455C08C130BC38091010265
:10250000843009F410C308F0F9C2813008F010C318
:1025100067E070E080E090E0F8C2943009F4CEC04B
:10252000953009F7882309F46EC01DE11C1BDDE11D
:10253000CD2ED12CCE18DF080D2C000CEE08FF0894
:1025400080910303181768F181131EC08091010266
:10255000833009F448C050F4823009F44BC0A7011D
:10256000960162E170E080E090E00AC08430A1F161
:102570008530A9F7A701960166E070E080E090E061
:102580000E94B73B60930303C12FD0E0CB51DD4FD6
:1025900088818823B1F1812F0E94B2040E94C03546
:1025A00018820E949638909103038091020297311D
:1025B00008F4F6C28D580E94AA41909104038091BC
:1025C0000202943008F41DC58D580E94AA418091E2
:1025D000E40280FDABC836C8A701960169E070E04F
:1025E00080E090E0CDCFA70196016CE070E080E044
:1025F00090E0C6CFA70196016FE070E080E090E028
:10260000BFCF11509DCF10E0CDE1CC2ED12CCE18F4
:10261000DF080D2C000CEE08FF08809103038117E2
:1026200008F4BFCF81131DC080910102833079F17E
:1026300050F48130D1F1823089F1A701960160E038
:1026400070E0CB010AC08430D9F08530B1F7A70122
:10265000960168E070E080E090E00E94B73B6093F4
:102660000303C12FD0E0CB51DD4F8881811124C0FD
:10267000812F0E94B2040E94A33581E0888391CF0C
:10268000A70196016CE070E080E090E0E6CFA70142
:1026900096016EE070E080E090E0DFCFA701960148
:1026A00060E170E080E090E0D8CFA701960162E1A0
:1026B00070E080E090E0D1CF1F5FAFCF882309F4B6
:1026C00067C0C9E180910303C81708F46ACF8C136F
:1026D00021C0809101028330C1F160F4813009F49E
:1026E0004AC08230E9F169E170E080E090E00E9448
:1026F0009D3B0EC08430F1F08530A9F768E170E0B1
:1027000080E090E00E949D3B6F5F7F4F8F4F9F4F17
:10271000609303030C2F10E00B511D4FF8018081D3
:102720008823A1F18C2F0E94B2040E94C035F801C9
:10273000108237CF65E170E080E090E00E949D3B21
:102740006C5F7F4F8F4F9F4FE3CF62E170E080E07F
:1027500090E00E949D3B695F7F4F8F4F9F4FD8CF86
:102760006FE070E080E090E00E949D3B665F7F4FED
:102770008F4F9F4FCDCF6CE070E080E090E00E94E3
:102780009D3B635F7F4F8F4F9F4FC2CFC1509ACF0A
:10279000C0E0809103038C1708F403CF8C1321C091
:1027A000809101028330C9F160F4813009F44BC09B
:1027B0008230F1F169E170E080E090E00E949D3BA1
:1027C0000EC08430F9F08530A9F768E170E080E050
:1027D00090E00E949D3B6F5F7F4F8F4F9F4F6093B4
:1027E00003030C2F10E00B511D4FF8018081811164
:1027F00035C08C2F0E94B2040E94A33581E0F801FD
:102800008083CFCE65E170E080E090E00E949D3B48
:102810006C5F7F4F8F4F9F4FE2CF62E170E080E0AF
:1028200090E00E949D3B695F7F4F8F4F9F4FD7CFB6
:102830006FE070E080E090E00E949D3B665F7F4F1C
:102840008F4F9F4FCCCF6CE070E080E090E00E9413
:102850009D3B635F7F4F8F4F9F4FC1CFCF5F99CF1E
:10286000882309F45FC0C3E180910303C81708F40B
:1028700098CE8C1321C080910102833091F160F4D5
:10288000813009F444C08230B9F163E170E080E046
:1028900090E00E949D3B0EC08430C1F08530A9F7C6
:1028A00062E170E080E090E00E949D3B6F5F7F4FAF
:1028B0008F4F9F4F609303030C2F10E00B511D4F60
:1028C000F801808181112ECFC150CECF60E170E040
:1028D00080E090E00E949D3B6D5F7F4F8F4F9F4F48
:1028E000E9CF6EE070E080E090E00E949D3B6B5F7E
:1028F0007F4F8F4F9F4FDECF6CE070E080E090E025
:102900000E949D3B695F7F4F8F4F9F4FD3CF6AE0FF
:1029100070E080E090E00E949D3B675F7F4F8F4FAB
:102920009F4FC8CFC0E0809103038C1708F439CEC5
:102930008C1321C080910102833099F160F48130C1
:1029400009F445C08230C1F163E170E080E090E0BD
:102950000E949D3B0EC08430C9F08530A9F762E12A
:1029600070E080E090E00E949D3B6F5F7F4F8F4F53
:102970009F4F609303030C2F10E00B511D4FF80184
:102980008081882309F435CFCF5FCDCF60E170E03F
:1029900080E090E00E949D3B6D5F7F4F8F4F9F4F87
:1029A000E8CF6EE070E080E090E00E949D3B6B5FBE
:1029B0007F4F8F4F9F4FDDCF6CE070E080E090E065
:1029C0000E949D3B695F7F4F8F4F9F4FD2CF6AE040
:1029D00070E080E090E00E949D3B675F7F4F8F4FEB
:1029E0009F4FC7CF882309F444C0CDE080910303F3
:1029F000C81708F4D6CD8C131CC080910102843016
:102A000011F148F4813050F56DE070E080E090E025
:102A10000E949D3B0CC08530B9F76CE070E080E00F
:102A200090E00E949D3B6F5F7F4F8F4F9F4F609361
:102A300003030C2F10E00B511D4FF8018081811111
:102A400071CEC150D3CF6BE070E080E090E00E9487
:102A50009D3B6E5F7F4F8F4F9F4FE9CF6AE070E0E5
:102A600080E090E00E949D3B6D5F7F4F8F4F9F4FB6
:102A7000DECFC0E0809103038C1708F492CD8C1355
:102A80001CC080910102843019F148F4813058F55E
:102A90006DE070E080E090E00E949D3B0CC08530CE
:102AA000B9F76CE070E080E090E00E949D3B6F5FC2
:102AB0007F4F8F4F9F4F609303030C2F10E00B51FC
:102AC0001D4FF8018081882309F493CECF5FD2CFC8
:102AD0006BE070E080E090E00E949D3B6E5F7F4F76
:102AE0008F4F9F4FE8CF6AE070E080E090E00E9457
:102AF0009D3B6D5F7F4F8F4F9F4FDDCF853009F03E
:102B000007CD6AE070E080E090E00E949D3B60931A
:102B100003030C2F10E00B511D4FF8018081811130
:102B200001CEC150E4CC69E070E080E090E0EDCFF0
:102B300068E070E080E090E0E8CFC0E080910303BF
:102B40008C1708F42ECD8C1316C0809101028430AE
:102B5000E9F038F48130F8F467E070E080E090E06C
:102B600006C08530C9F76AE070E080E090E00E941E
:102B70009D3B609303030C2F10E00B511D4FF80198
:102B80008081882309F435CECF5FD8CF69E070E02B
:102B900080E090E0ECCF68E070E080E090E0E7CF8C
:102BA0009C3010F0805907CD825905CD90910403D7
:102BB00091111DC0833009F45DC040F4823009F4E6
:102BC00064C062E070E080E090E063C0843009F4AB
:102BD0004CC08530B1F764E070E080E090E00E9486
:102BE0009D3B6E5F7F4F8F4F9F4F609304032091FB
:102BF0000403ECE0F3E090E08191811102C0291719
:102C000020F49F5F9530C1F781E0909106029330E8
:102C100009F415C108F040C0923009F469C1882355
:102C200009F4C5C1C5E080910403C81708F4C5CCF8
:102C30008C1312C080910102833009F4AEC108F4F4
:102C4000B1C1863008F0AEC166E070E080E090E08F
:102C50000E949D3B60930403EC2FF0E0E55FFC4F86
:102C60008081C1508823F9F240C063E070E080E0C9
:102C700090E0B5CF63E070E080E090E00E949D3B83
:102C80006F5F7F4F8F4F9F4FB0CF63E070E080E06A
:102C900090E00E949D3BA9CF943009F46BC0953021
:102CA00009F0BDCF882381F1C5E080910403C817E6
:102CB00008F483CC8C1311C08091010283508330BF
:102CC000C0F465E070E080E090E00E949D3B6F5FA3
:102CD0007F4F8F4F9F4F60930403EC2FF0E0E55F31
:102CE000FC4F8081C150882301F38C2F0E94D904AE
:102CF00064CC64E070E080E090E00E949D3B6E5FF9
:102D00007F4F8F4F9F4FE7CFC0E0809104038C1718
:102D100008F453CC8C130FC0809101028330A1F0D2
:102D2000F0F08630E0F466E070E080E090E00E9431
:102D30009D3B60930403EC2FF0E0E45FFC4F808147
:102D4000CF5F8111E2CFD1CF65E070E080E090E00D
:102D50000E949D3B6F5F7F4F8F4F9F4FEACF64E094
:102D600070E080E090E00E949D3B6E5F7F4F8F4F50
:102D70009F4FDFCF882369F1C5E080910403C81716
:102D800008F41BCC8C1311C0809101028350833056
:102D9000A8F465E070E080E090E00E949D3B6F5FEA
:102DA0007F4F8F4F9F4F60930403EC2FF0E0E55F60
:102DB000FC4F8081C150882301F397CF64E070E01D
:102DC00080E090E00E949D3B6E5F7F4F8F4F9F4F52
:102DD000EACFC0E0809104038C1708F4EECB8C138B
:102DE0000FC0809101028330A1F0F0F08630E0F452
:102DF00066E070E080E090E00E949D3B60930403F9
:102E0000EC2FF0E0E45FFC4F8081CF5F8111E2CFD7
:102E10006CCF65E070E080E090E00E949D3B6F5FCA
:102E20007F4F8F4F9F4FEACF64E070E080E090E0EB
:102E30000E949D3B6E5F7F4F8F4F9F4FDFCF882358
:102E400039F1C5E080910403C81708F4B6CB8C13A0
:102E500011C08091010283508330A8F465E070E0D6
:102E600080E090E00E949D3B6F5F7F4F8F4F9F4FB0
:102E700060930403EC2FF0E0E55FFC4F8081C150CC
:102E8000882301F332CF63E070E080E090E0EACF86
:102E9000C0E0809104038C1708F48FCB8C130FC013
:102EA000809101028330A1F0F0F08630E0F466E01A
:102EB00070E080E090E00E949D3B60930403EC2F63
:102EC000F0E0E45FFC4F8081CF5F8111E2CF0DCF56
:102ED00065E070E080E090E00E949D3B6F5F7F4F77
:102EE0008F4F9F4FEACF63E070E080E090E0F4CF37
:102EF000882319F1C5E080910403C81708F45DCB5D
:102F00008C130DC0809101028250843088F466E0F9
:102F100070E080E090E00E949D3B60930403EC2F02
:102F2000F0E0E55FFC4F8081C150882321F3DDCEC6
:102F300063E070E080E090E0EECFC0E080910403B9
:102F40008C1708F43ACB8C131AC08091010283309D
:102F500051F0F0F08630E0F466E070E080E090E060
:102F60000E949D3B0AC065E070E080E090E00E9416
:102F70009D3B6F5F7F4F8F4F9F4F60930403EC2FFC
:102F8000F0E0E45FFC4F8081CF5F8111D7CFADCE01
:102F900063E070E080E090E0E3CF65E070E080E027
:102FA00090E056CE63E070E080E090E051CEC0E06B
:102FB000809104038C1708F400CB8C130FC0809110
:102FC00001028330A1F0C0F08630B0F466E070E01A
:102FD00080E090E00E949D3B60930403EC2FF0E0C2
:102FE000E45FFC4F8081CF5F8111E2CF7ECE65E050
:102FF00070E080E090E0EECF63E070E080E090E091
:10300000E9CF923010F08059E0CA8259DECA8C2F85
:1030100065E00E94FB80482F50E070E060E047C907
:1030200085E795E00E9409408B019C01E091060232
:10303000E150FF0BEE0FFF1FE85AFA4F808191819C
:1030400065E070E00E941581CB01B0E0A0E00817B8
:1030500019072A073B07E8F480912603909127037C
:103060004C2F892B81F046954695469550E04C5F54
:103070005F4F052E000C660B770B84E495E00E94F1
:103080007F4085E019C94695469550E070E060E0C4
:10309000F4CF85E795E00E940940E0910602E150F7
:1030A000FF0BEE0FFF1FE85AFA4F20813181369552
:1030B000279536952795890130E020E06017710744
:1030C00082079307F8F48091260390912703892BB8
:1030D00081F04C2F4695469550E04F5F5F4F052E8F
:1030E000000C660B770B84E495E00E947F4084E03F
:1030F000E3C88C2F63E00E940781482F50E070E006
:1031000060E0F1CF85E795E00E9409408B019C01CA
:10311000E0910602E150FF0BEE0FFF1FE85AFA4F55
:103120008081918163E070E00E941581CB01B0E065
:10313000A0E0081719072A073B07D0F4809126035F
:10314000909127034C2F892B79F04695469550E0B6
:103150004D5F5F4F052E000C660B770B84E495E006
:103160000E947F4083E0A8C846954A50550BF2CF95
:1031700085E795E00E940940A09106022A2F215080
:10318000330BF901EE0FFF1FE85AFA4F40815181CE
:10319000569547956A01F12CE12C20912603309138
:1031A00027036C157D058E059F05B8F44C2F232B46
:1031B00079F04695469550E04B5F5F4F052E000C29
:1031C000660B770B84E495E00E947F4082E074C830
:1031D000469550E070E060E0F5CF232B71F14C2F65
:1031E0004695A33011F130F4A23019F150E0415F5F
:1031F0005F4F07C0A43009F43FC0A530B9F7455070
:10320000550B052E000C660B770B84E495E00E94AD
:103210007F4081E080930102DF91CF911F910F9158
:10322000FF90EF90DF90CF90089550E04B5F5F4F9D
:10323000E8CF50E0465F5F4FE4CF209134033091F8
:1032400035032130310571F4A330A9F038F4A230F0
:10325000B9F033E0C39FA0011124D3CFA43029F0EB
:10326000A530B9F74C2F469507C04C2F469550E036
:10327000425E5F4FC6CF4C2F50E070E060E0C5CF9C
:103280004C2F50E0440F551FBCCF892B51F14C2FD0
:1032900046958091060250E0833009F443C028F43B
:1032A0008230E1F0445F5F4F06C08430A1F085308A
:1032B000C9F747505109052E000C660B770B84E4C3
:1032C00095E0DF91CF911F910F91FF90EF90DF90EC
:1032D000CF900C947F4043505109EDCF495F5F4F31
:1032E000EACF8091340390913503019781F4809166
:1032F00006028330A9F038F48230B9F083E0C89F29
:10330000A0011124D8CF843029F08530B9F74C2F93
:10331000469507C04C2F469550E0425E5F4FCBCF9D
:103320004C2F50E070E060E0CACF4C2F50E0440FCB
:10333000551FC1CF0E948C38E5EEF2E0119283E078
:10334000E330F807D9F70895809126039091270379
:10335000892B21F00E949A191092030308958091FD
:10336000260390912703892B29F10E94A4198091AB
:1033700002018F7D80930201809102018F7B8093F7
:103380000201109811980E943C5961E08DE00E9462
:10339000DE352E9A10920403109203038091690483
:1033A00081110CC040E65AEE60E070E081E694E0E6
:1033B0000C947F4080E00E94D904D9CF08952091D9
:1033C000D8033091D903A901435051094230510526
:1033D00018F02630310511F4882399F190910602F6
:1033E00020910502921303C0811118C00895291776
:1033F000A8F481E080930B0344E250E060E070E0C9
:103400009330D9F070F44EE150E060E070E092301B
:10341000A1F049E150E060E070E00FC010920B03B2
:10342000EBCF4DE250E060E070E0943031F04CE3DF
:1034300050E060E070E0953061F78FE195E00C942A
:103440007F40089580912403909125038130910558
:1034500039F48091D8039091D903892B79F008959C
:10346000892B49F58091D8039091D903892B19F5BF
:1034700080913A0390913B030197E9F40E94A419CB
:10348000109291041092920480911803811113C03C
:103490000E9403048091260390912703892B49F011
:1034A0008091380390913903019719F480E00E94CC
:1034B000DF190C943C050895E5ECF4E010861186C4
:1034C000EDEEF4E010861186EFECF4E01086118644
:1034D000E9EDF4E010861186E3EEF4E01086118643
:1034E000E7EFF4E0108611861092E40210920A03CE
:1034F0001092E30284E6809300020E9442410C9401
:103500003C59EF92FF920F931F93CF93DF938091DB
:10351000DA039091DB03C0910B02C150019709F4CB
:10352000C4E28091E102882309F4CFC087EF94E0E0
:103530000E944F40882309F47CC1E0900002EE20F5
:1035400009F477C10E942B04039709F086C080918B
:10355000220390912303892B09F07FC09EE0F92E6E
:103560006091DA037091DB03D0E0CE01880F991FE0
:103570006130710509F074C08C0F9D1F8C01045CD3
:103580001C4F4E2D61E070E08F2D0E940A59F8010A
:10359000608371838283CE0147978C01000F111FD6
:1035A000080F191F045C1C4F6091DA037091DB0354
:1035B000409100028F2D0E940A59F80160837183A7
:1035C0008283CE0148978C01000F111F080F191F2D
:1035D000045C1C4F6091DA037091DB0340910002A0
:1035E0008F2D0E940A59F801608371838283CE0176
:1035F00049978C01000F111F080F191F045C1C4F05
:103600006091DA037091DB03409100028F2D0E94DC
:103610000A59F801608371838283CE010196EC011F
:10362000CC0FDD1FC80FD91FC45CDC4F6091DA03DB
:103630007091DB03409100028F2D0E940A5968832C
:1036400079838A83809100029091E00291110EC0EB
:10365000803571F40E943C590BC08CE0F82E80CF6D
:10366000C80FD91FC45CDC4F4E2DE6CF8C3391F3CD
:10367000809100029BEF980F909300028650883C47
:1036800050F08091E0021092E3029BE490930002DC
:103690008F5F8093E0028091E002833070F445E018
:1036A00050E060E070E087EF94E0DF91CF911F91F0
:1036B0000F91FF90EF900C947F40DF91CF911F917D
:1036C0000F91FF90EF900C945C1A87EF94E00E94AA
:1036D0004F40882309F4A8C000910002002309F498
:1036E000A3C080912203909123031DE083309105B4
:1036F000A9F048F48130910509F4A2C016E10297BF
:1037000069F011E00BC08530910509F4A1C01BE1FF
:103710008530910518F01CE1069799F76091DA035E
:103720007091DB03D0E0CE01880F991F61307105E5
:1037300009F095C08C0F9D1F9C01245C3C4F7901C2
:10374000402F61E070E0812F0E940A59F7016083E9
:1037500071838283CE0147977C01EE0CFF1CE80E3B
:10376000F91E9701245C3C4F79016091DA03709156
:10377000DB0340910002812F0E940A59F701608308
:1037800071838283CE0148977C01EE0CFF1CE80E0A
:10379000F91E9701245C3C4F79016091DA03709126
:1037A000DB0340910002812F0E940A59F7016083D8
:1037B00071838283CE0149977C01EE0CFF1CE80ED9
:1037C000F91E9701245C3C4F79016091DA037091F6
:1037D000DB0340910002812F0E940A59F7016083A8
:1037E00071838283CE010196EC01CC0FDD1FC80FDF
:1037F000D91FC45CDC4F6091DA037091DB03409108
:103800000002812F0E940A59688379838A838091FC
:10381000000281508093000245E050E060E070E0DB
:1038200087EF94E00E947F4080910002882309F492
:1038300044CFDF91CF911F910F91FF90EF900895AA
:103840000E942B0414E0019709F468CF1FE066CFB3
:103850008091DF0218E1811161CF19E15FCFC80FBC
:10386000D91FC45CDC4F402FCCCF6F927F928F92D8
:10387000EF92FF920F931F93CF93DF933B01882E1C
:103880008091DA039091DB03019709F081C28FECFC
:1038900094E00E944F40882309F469C2C091E40279
:1038A000CC2309F43CC080910B028C17C0F100912D
:1038B000DA031091DB03C150DD0BCA50DC4F80915D
:1038C0002203909123038630910508F04AC083308B
:1038D000910508F0F2C08130910509F4C1C002974A
:1038E00009F4DDC0F090E2020E942B049C01FF204D
:1038F00009F455C0FE01039709F044C0C491D0E01B
:10390000CE01880F991FC80FD91FC45CDC4F4FEF41
:10391000B8018EE00E940A59688379838A83809176
:10392000E40220910B028213D6C01092E40280912F
:10393000220390912303039709F419C2E091060230
:10394000E25085E0E43020F4F0E0E85BFD4F808158
:103950004AE050E0481B5109052E000C660B770B1E
:10396000F4C2069709F0BECFFE01C491D0E0CE01AB
:10397000880F991FC80FD91FC45CDC4F4FEFB801E7
:103980008CE1C8CFC491D0E0CE01880F991FC80F39
:10399000D91FC45CDC4F4FEFB80181E0BBCF9091E1
:1039A00006022130310539F5933009F43DC088F421
:1039B000923009F447C0FE01C491D0E0CE01880FD7
:1039C000991FC80FD91FC45CDC4F4FEFB8018AE0C4
:1039D000A1CF9430A9F0953071F7FE01C491D0E0E9
:1039E000CE01880F991FC80FD91FC45CDC4F4FEF61
:1039F000B80185E08FCF9330B9F080F4923069F749
:103A0000FE01C491D0E0CE01880F991FC80FD91FC5
:103A1000C45CDC4F4FEFB80187E07CCF943091F06D
:103A2000953009F4C8CFD9CFFE01C491D0E0CE01C2
:103A3000880F991FC80FD91FC45CDC4F4FEFB80126
:103A400088E068CFFE01C491D0E0CE01880F991FB5
:103A5000C80FD91FC45CDC4F4FEFB80189E05ACFC3
:103A60000E942B04FE01019769F4C491D0E0CE01BD
:103A7000880F991FC80FD91FC45CDC4F4FEFB801E6
:103A800084E048CFC491D0E0CE01880F991FC80FC1
:103A9000D91FC45CDC4F4FEFB80180E13BCFFE0182
:103AA000C491D0E0CE01880F991FC80FD91FC45C04
:103AB000DC4F4FEFB80186E12DCFFE01C491D0E07D
:103AC000CE01880F991FC80FD91FC45CDC4F4FEF80
:103AD000B80180E01FCF821708F049C190E0FC01D7
:103AE000EA50FC4FE491F0E0AF01440F551FE40FA2
:103AF000F51FE45CFC4F6082718282824091220358
:103B0000509123034115510509F463C04330510519
:103B100009F0A1C0FC01319630E0E217F30774F41C
:103B2000EA50FC4FE491F0E0AF01440F551FE40F61
:103B3000F51FE45CFC4F608271828282FC01329648
:103B4000E217F30774F4EA50FC4FE491F0E0AF01A0
:103B5000440F551FE40FF51FE45CFC4F6082718237
:103B6000828203968217930714F58A509C4FFC01BA
:103B70008491E82FF0E0CF01880F991FE80FF91F1B
:103B8000E45CFC4F6082718282822091220330913A
:103B900023032130310509F4BFC080910602213092
:103BA000310508F4A0C02330310509F0BDC0809173
:103BB0000602833009F493C008F078C0823009F41B
:103BC00082C083E08093160244E050E060E070E041
:103BD00081C08BEA289F212D1124269530E050E0EA
:103BE00040E060E070E0CB010E94B73B80910602AC
:103BF000833069F120F4823061F16E5F05C084305A
:103C000021F18530D1F7665F2091E40241E0420F57
:103C1000260F3327331FE42FF0E0E217F3070CF0F1
:103C2000B4CF80910B02481770F4EA50FC4FE49136
:103C3000F0E0CF01880F991FE80FF91FE45CFC4FFB
:103C40006082718282824F5FE6CF685FDDCF6A5FFC
:103C5000DBCF6D5FD9CF2695269530E050E040E070
:103C600060E070E0CB010E94B73B2091E40241E0AC
:103C7000420F260F3327331FE42FF0E0E217F3073C
:103C80000CF083CF80910B02481770F4EA50FC4F80
:103C9000E491F0E0CF01880F991FE80FF91FE45C71
:103CA000FC4F6082718282824F5FE6CF8430C9F020
:103CB000853009F086CF87E08093160242E050E01D
:103CC00060E070E007C083E08093160243E050E0BC
:103CD00060E070E08FEC94E00E947F4043C084E09D
:103CE000F3CF86E0F1CF833029F158F447E050E07C
:103CF00060E070E0823071F348E050E060E070E036
:103D0000E9CF843021F0853009F45ECFF5CF45E06E
:103D100050E060E070E0DECF8091D8039091D9034D
:103D2000039769F480910602833009F44DCF48F57A
:103D3000823069F346E050E060E070E0CBCF41E0D4
:103D400050E060E070E08FEC94E00E947F40809152
:103D5000E40290E0049620910B022817190611F452
:103D60000E9450598091E4028F5F8093E402DF91BA
:103D7000CF911F910F91FF90EF908F907F906F9058
:103D80000895843009F4A2CF853009F497CFD2CFBB
:103D90008FEC94E00E944F40882349F3C091E402E5
:103DA000CC23A9F180910B028C1788F1C150DD0B57
:103DB0008091220390912303E090DA03F090DB03DB
:103DC0008E01000F111F8630910508F046C0833028
:103DD000910508F0A5C08130910509F48BC00297C8
:103DE00009F496C08091E202882309F442C00E943F
:103DF0002B04C00FD11FC45CDC4F4FEFB7010397FA
:103E0000B1F181E00E940A59688379838A838091A5
:103E1000E40290910B028913A5C01092E4028091F4
:103E2000220390912303039709F4A1CF8091060206
:103E300046E450E060E070E0833009F486C008F0AA
:103E400077C045E550E060E070E0823009F47DC065
:103E500044E650E060E070E078C0069719F6C00FC5
:103E6000D11FC45CDC4F4FEFB7018CE1CBCF8EE0AC
:103E7000C9CF0E942B04209106020197C9F4233078
:103E800049F150F4223071F1C00FD11FC45CDC4FF6
:103E90004FEFB7018AE0B6CF243079F02530A1F793
:103EA000C00FD11FC45CDC4F4FEFB70185E0AACF34
:103EB000233081F050F4223099F7C00FD11FC45C39
:103EC000DC4F4FEFB70187E09DCF243059F025300C
:103ED000D9F2E6CFC00FD11FC45CDC4F4FEFB70162
:103EE00088E090CFC00FD11FC45CDC4F4FEFB7010B
:103EF00089E088CF0E942B04C00FD11FC45CDC4F27
:103F00004FEFB701019711F484E07CCF80E17ACFC5
:103F1000C00FD11FC45CDC4F4FEFB70186E172CFF9
:103F2000C00FD11FC45CDC4F4FEFB70180E06ACFF8
:103F300047E350E060E070E0843039F048E250E060
:103F400060E070E0853009F083CF8FEC94E0DF9182
:103F5000CF911F910F91FF90EF908F907F906F9076
:103F60000C947F40891708F002CF90E0FC01EE0F1F
:103F7000FF1FE80FF91FE45CFC4F608271828282B0
:103F8000809106024AE150E060E070E0833009F47D
:103F9000A1CE60F44CE150E060E070E0823009F4C2
:103FA00099CE4EE150E060E070E094CE49E150E0FF
:103FB00060E070E0843009F48DCE48E150E060E0CC
:103FC00070E0853009F486CEECCF80910A03811130
:103FD0001BC0809106028150209138033091390333
:103FE00080930403109203032130310509F057C078
:103FF0008091340390913503019709F045C00E94E8
:104000003B0A0E941809109A809122039091230381
:10401000019701F540E050E0BA018FEC94E00E9476
:104020007F400E942B046091DA037091DB034FEF15
:10403000019709F039C081E00E940A590E94351C9D
:1040400040E050E0BA0189ED94E00E947F408EE0AC
:1040500080930A03E0910A03EE3008F035C0F0E0E7
:104060008827EA5CFF4D8F4F0C943D8156208420B9
:104070009F20CA20FA203D217B21B421E321122276
:1040800043225D2272227E220E94A41985E090E0E4
:1040900090930402809303020E943C05B4CF0E94D7
:1040A000A41983E090E0F4CF8FE0C6CF8091220383
:1040B0009091230382309105F1F08330910509F14D
:1040C00065E070E0892BC9F080910A038F5F8093CF
:1040D0000A038E3008F015C28091220390912303C9
:1040E00042E1892B09F444E250E070E060E085ECA5
:1040F00094E00C947F4065E170E080E00E940E0344
:10410000E3CF6DE070E0F9CF80912203909123031B
:104110008230910571F08330910571F0892BA1F601
:1041200067E070E080E00E940E0365E070E081E0EF
:10413000E5CF64E170E0E1CF6BE070E0DECF80912D
:1041400022039091230382309105A1F083309105E1
:10415000C9F0892B09F0B8CF61E070E080E00E94DF
:104160000E0367E070E081E00E940E0365E070E0FE
:1041700082E0C4CF63E170E080E00E940E0365E15D
:1041800070E0D5CF69E070E080E00E940E036DE042
:1041900070E0CDCF8091220390912303823091056E
:1041A000C9F083309105F1F0892B09F08DCF67E0DC
:1041B00070E080E00E940E0361E070E081E00E9408
:1041C0000E0367E070E082E00E940E0365E070E09D
:1041D00083E094CF66E170E080E00E940E0364E12A
:1041E00070E0A5CF67E070E080E00E940E036BE016
:1041F00070E09DCF8091220390912303823091053E
:1042000011F18330910561F1892B09F05DCF65E0F3
:1042100070E080E00E940E0367E070E081E00E94A1
:104220000E0361E070E082E00E940E0367E070E040
:1042300083E00E940E0365E070E084E00E940E03BC
:104240000E94505941CF61E070E080E00E940E036F
:1042500063E170E081E00E940E0365E170E088CFC9
:1042600065E070E080E00E940E0369E070E081E0AC
:104270000E940E036DE070E07BCF8091220390914D
:10428000230382309105E9F08330910539F1892BC0
:1042900009F01ACF70E060E080E00E940E0365E054
:1042A00070E081E00E940E0367E070E082E00E940F
:1042B0000E0361E070E083E00E940E0367E070E0AF
:1042C000D3C070E060E080E00E940E0366E170E021
:1042D00081E00E940E0364E170E04ACF70E060E08C
:1042E00080E00E940E0367E070E081E00E940E0310
:1042F0006BE070E03DCF80912203909123038230E8
:104300009105C1F08330910511F1892B09F0DCCEC4
:1043100070E060E081E00E940E0365E070E082E002
:104320000E940E0367E070E083E00E940E0361E0EC
:1043300070E09AC061E070E081E00E940E0363E1EA
:1043400070E082E00E940E0365E170E041CF65E01D
:1043500070E081E00E940E0369E070E082E00E945C
:104360000E036DE070E034CF80912203909123031F
:104370008230910571F083309105C1F0892B09F0ED
:10438000A3CE70E060E082E00E940E0365E070E082
:1043900092CF70E060E081E00E940E0366E170E081
:1043A00082E00E940E0364E170E012CF70E060E0F2
:1043B00081E00E940E0367E070E082E00E940E033D
:1043C0006BE070E005CF809122039091230382304F
:1043D000910571F083309105C1F0892B09F074CEFD
:1043E00070E060E083E00E940E0365E070E03CC096
:1043F00061E070E082E00E940E0363E170E083E020
:104400000E940E0365E170E018CF65E070E082E085
:104410000E940E0369E070E083E00E940E036DE0ED
:1044200070E00BCF8091220390912303823091059D
:1044300079F083309105D1F0892B09F045CE70E0F9
:1044400060E084E00E940E038EE080930A033CCE7D
:1044500070E060E082E00E940E0366E170E083E0BD
:104460000E940E0364E170E084E048CE70E060E0FA
:1044700082E00E940E0367E070E083E00E940E037A
:104480006BE070E0F1CF80912203909123038230A2
:10449000910559F0039709F017CE65E070E083E0CD
:1044A0000E940E0369E070E0DFCF61E070E083E01E
:1044B0000E940E0363E170E0D7CF809122039091B8
:1044C00023038230910531F0039709F0FDCD70E0B0
:1044D00060E0F1CE70E060E083E00E940E0366E1F0
:1044E00070E0C2CF80912203909123038230910526
:1044F00009F41DCF039709F478CFE6CD70E060E0B2
:10450000B3CF0E943C591092CD041092CE04109269
:104510000A030E942B04029768F48091D8039091BB
:10452000D903039739F080912203909123030197D7
:1045300009F010980895EF92FF920F931F93CF9375
:10454000DF938091DA039091DB03C0910B02C1509D
:10455000019709F4C4E28091E3029091E10299236A
:1045600009F4D0C09091E00291110AC0853650F054
:10457000DF91CF911F910F91FF90EF900C94811AD2
:104580008C34B0F787EF94E00E944F40882341F0CD
:104590009091E0028091E302911109C0853648F0C4
:1045A000DF91CF911F910F91FF90EF9008958C3480
:1045B000B8F70E942B04039709F087C0809122036B
:1045C00090912303892B09F080C09EE0F92E609121
:1045D000DA037091DB03D0E0CE01880F991F6130C0
:1045E000710509F075C08C0F9D1F8C01045C1C4F78
:1045F0004091E30261E070E08F2D0E940A59F801BA
:10460000608371838283CE0147978C01000F111F55
:10461000080F191F045C1C4F6091DA037091DB03D3
:104620004091E3028F2D0E940A59F8016083718343
:104630008283CE0148978C01000F111F080F191FAC
:10464000045C1C4F6091DA037091DB034091E3023C
:104650008F2D0E940A59F801608371838283CE01F5
:1046600049978C01000F111F080F191F045C1C4F84
:104670006091DA037091DB034091E3028F2D0E9479
:104680000A59F801608371838283CE010196EC019F
:10469000CC0FDD1FC80FD91FC45CDC4F6091DA035B
:1046A0007091DB034091E3028F2D0E940A596883C9
:1046B00079838A838091E3029091E00291110DC089
:1046C000803569F40E9450590AC08CE0F82E7FCFE3
:1046D000C80FD91FC45CDC4FE5CF8C3399F38091B0
:1046E000E3028B5F8093E30245E050E060E070E01E
:1046F00087EF94E0DF91CF911F910F91FF90EF90A2
:104700000C947F40853608F033CF87EF94E00E9409
:104710004F40882309F444CF0091E302053608F0A6
:104720003FCF80912203909123031DE083309105B8
:10473000A9F048F48130910509F48DC016E1029783
:1047400069F011E00BC08530910509F48CC01BE1C4
:104750008530910518F01CE1069799F76091DA030E
:104760007091DB03D0E0CE01880F991F6130710595
:1047700009F080C08C0F9D1F9C01245C3C4F790187
:10478000402F61E070E0812F0E940A59F701608399
:1047900071838283CE0147977C01EE0CFF1CE80EEB
:1047A000F91E9701245C3C4F79016091DA03709106
:1047B000DB034091E302812F0E940A59F7016083D5
:1047C00071838283CE0148977C01EE0CFF1CE80EBA
:1047D000F91E9701245C3C4F79016091DA037091D6
:1047E000DB034091E302812F0E940A59F7016083A5
:1047F00071838283CE0149977C01EE0CFF1CE80E89
:10480000F91E9701245C3C4F79016091DA037091A5
:10481000DB034091E302812F0E940A59F701608374
:1048200071838283CE010196EC01CC0FDD1FC80F8E
:10483000D91FC45CDC4F6091DA037091DB034091B7
:10484000E302812F0E940A59688379838A838091C9
:10485000E3028F5F47CF0E942B0414E0019709F415
:104860007DCF1FE07BCF8091DF0218E1811176CFF1
:1048700019E174CFC80FD91FC45CDC4F402FE1CFC2
:10488000CF92DF92EF920F931F93CF93DF9380919C
:10489000DE02882339F18091090381113EC081E055
:1048A0008093090380912003909121030297A9F539
:1048B0008091220390912303892B79F50E942B0488
:1048C00040914B04E12C10E000E020E061E0892BF6
:1048D00009F0C1C289E891E00E94364F8091DE0262
:1048E00081111BC0809109038823B9F0109209033C
:1048F0008091200390912103029779F48091220303
:1049000090912303892B49F40E942B04892B09F0F1
:10491000A5C289E891E00E94294F8091DD02882399
:1049200009F43FC080910803811137C081E0809372
:1049300008038091200390912103029771F58091E3
:10494000220390912303892B41F580910602853043
:10495000C9F00E942B04019709F083C283E690E01E
:104960000E94294F0E942B0440914B04E12C10E03F
:1049700000E020E061E0892B09F076C289E891E04F
:104980000E94364FE12C10E000E020E040914B0403
:1049900061E088E490E00E94364F8091DD02811151
:1049A00038C080910803882379F110920803809120
:1049B000200390912103029739F580912203909171
:1049C0002303892B09F588E490E00E94294F809108
:1049D00006028530C9F00E942B04892B09F047C2DA
:1049E00089E891E00E94294F0E942B0440914B04DA
:1049F000E12C10E000E020E061E0019709F03AC20C
:104A000083E690E00E94364F8091DD02882309F40E
:104A100058C08091DE02882309F44FC080910703BB
:104A200081114BC08091E202811147C081E08093E7
:104A3000E20280930703C091D603D091D7038091FF
:104A40002A0390912B038130910509F41BC2029730
:104A500009F013C2219741F08EE690E00E94294FA1
:104A60008FE690E00E94294FE12C10E000E020E06A
:104A700040914B0460E08EE690E00E94364F8091BA
:104A800014028823B1F066E070E080E090E00E94BC
:104A90009D3B9B01AC01265F3F4F4F4F5F4FA8EE00
:104AA000B3E00E94D980AB01BC018BEB94E00E9483
:104AB0007F408091DD02882321F08091DE02811108
:104AC0004EC08091E202882309F449C080912003FE
:104AD00090912103029709F042C01092E2021092D5
:104AE0000703C091D603D091D70380912A039091F8
:104AF0002B038130910509F4DEC1029709F0D6C17C
:104B0000219741F08EE690E00E94294F8FE690E0D9
:104B10000E94294FE12C10E000E020E040914B047E
:104B200060E08FE690E00E94364F80911402882367
:104B3000B1F068E070E080E090E00E949D3B9B0156
:104B4000AC01295F3F4F4F4F5F4FA8EEB3E00E948B
:104B5000D980AB01BC0187EA94E00E947F4080913C
:104B6000200390912103019720917D05029728F45D
:104B70008091DD02882309F4B2C180911502882357
:104B800009F4ADC1809106028150990BFC01EB59EB
:104B9000FA4F30813111ABC1222349F010927D05CB
:104BA00010927E05109A10921D0510921E0580919C
:104BB000220390912303CDE0D0E08330910509F4E6
:104BC00094C008F0A4C18130910509F4D9C10297BD
:104BD00009F432C2C091E2020E942B04CC2309F4F2
:104BE000AAC1039709F42DC2CDE0D0E081E090E0A6
:104BF0006091DA037091DB034FEF0E940A596B0159
:104C0000E82E8DEE94E00E944F40882309F46DC099
:104C10008091E40240910B02841708F066C090E096
:104C20002091DA033091DB03FC012130310509F0DA
:104C3000BBC1EA50FC4FE491F0E09F01220F331F0B
:104C4000E20FF31FE45CFC4FC082D182E282029645
:104C500048171906B9F0B4F08A509C4FFC018491B2
:104C600090E08C01000F111F080F191F045C1C4FEE
:104C70004FEF61E070E080E00E940A59F801608324
:104C8000718382838091DA039091DB0343E050E0EB
:104C900060E070E0019721F044E150E060E070E0F6
:104CA0008DEE94E00E947F408091E4028F5F8093BC
:104CB000E40290910B02891318C08091DA0390915D
:104CC000DB031092E4021092F5041092F60444E023
:104CD00050E060E070E0019721F044E650E060E0D1
:104CE00070E08FEC94E00E947F406091DA03709155
:104CF000DB034FEF8C2F0E940A590E94351C84E47D
:104D000095E00E944F4081110E94C10A8BEB94E014
:104D10000E944F40882379F18091220390912303D0
:104D2000892B49F58091E202811125C080911402FE
:104D3000882309F1E12C10E000E020E040914B04D1
:104D400060E089E090E00E94364F66E070E080E02D
:104D500090E00E949D3B9B01AC01265F3F4F4F4F6F
:104D60005F4FA8EEB3E00E94D980AB01BC018BEB92
:104D700094E00E947F4087EA94E00E944F4088239D
:104D800009F46EC18091220390912303892B09F0CD
:104D900067C18091E202811163C18091140288236E
:104DA00009F45EC18091050390910603C1E0853747
:104DB000910579F0C2E08837910559F0C3E0843756
:104DC000910539F462E070E080E090E00E949D3B44
:104DD000C62F62E070E080E090E00E949D3B6E5F35
:104DE0007F4F8F4F9F4F28EE33E0629F6001639F9C
:104DF000D00C729FD00C1124E12C10E000E020E0D8
:104E000040914B0460E0C13009F4E4C008F4E9C00B
:104E1000C23009F4D3C0C33009F0FAC084E790E08F
:104E20000E94364F84E790E0909306038093050339
:104E300085E08C9DA0018D9D500D112470E060E0F7
:104E400087EA94E0DF91CF911F910F91EF90DF906F
:104E5000CF900C947F4082E690E03ECD82E690E0D9
:104E60005ACD8EE791E07CCD82E690E089CD82E656
:104E700090E0B8CD8EE791E0C5CD0E942B0402975B
:104E800008F0E8CD219741F08AE490E00E94294F94
:104E900089E490E00E94294FE12C10E000E020E03E
:104EA00040914B0460E08AE490E0E7CD0E942B043F
:104EB000029708F025CE219741F08AE490E00E9405
:104EC000294F89E490E00E94294FE12C10E000E096
:104ED00020E040914B0460E089E490E024CE22235E
:104EE00009F465CE10927D0510927E0560CE2111E9
:104EF0005ECE880F991FFC01E85AFA4F408151811C
:104F000070E060E085E795E00E947F4050CE8530FC
:104F1000910509F43FC008F48AC0069709F05ACEFB
:104F200080911902C6E1D0E08E3F10F0C1E0D0E0E0
:104F30008CE190E05DCE209106022250019789F429
:104F4000C3E1D0E08AE090E0243008F051CE30E0B8
:104F5000F901E05CFD4F8081245C3D4FF901C08187
:104F600047CEC6E1D0E085E090E0243008F040CEA6
:104F700030E0F901E85CFD4F80812C5B3D4FEECFC6
:104F80000E942B04019709F061C0C1E0D0E084E0E9
:104F900090E02ECE8091DF02882309F45CC0C8E146
:104FA000D0E088E190E024CEEE0FFF1FE80FF91F5C
:104FB000E45CFC4FC082D182E28264CE87E790E05D
:104FC0000E94364F87E790E0909306038093050395
:104FD000A60134CF86E790E00E94364F86E790E046
:104FE000F3CF85E790E00E94364F20E040914B04DC
:104FF00060E088E790E00E94364F88E790E0909369
:1050000006038093050348E057E060E070E018CFA6
:1050100085E790E00E94364F85E790E09093060385
:105020008093050344EF51E060E070E009CFCBE1ED
:10503000D0E08BE190E0DCCDC5E1D0E086E190E00E
:10504000D7CDCBE0D0E08EE090E0D2CDCFE0D0E085
:1050500080E190E0CDCDC9E1D0E089E190E0C8CD1C
:10506000DF91CF911F910F91EF90DF90CF90089536
:10507000EF920F931F9383E0809316028091220397
:10508000909123038230910509F4B3C183309105D7
:1050900009F4C7C1019709F494C1809106028530D3
:1050A00009F41AC18091DE02882309F403C10E9429
:1050B0002B0440914B048130910511F178F0039756
:1050C00009F4ECC0E12C10E000E020E060E08BE9A6
:1050D00090E00E94364F03E111E00BC0E12C10E09C
:1050E00000E020E060E08DE791E00E94364F0AEF9B
:1050F00010E021E040914B0461E08EE791E011C0A7
:10510000E12C10E000E020E060E084E690E00E9406
:10511000364F04E619E121E040914B0461E083E65B
:1051200090E00E94364F81E0809309038091DD0278
:10513000882309F4CEC00E942B0440914B04E12C3B
:1051400010E000E020E060E08130910509F0B5C09A
:1051500084E690E00E94364F04E619E121E0409198
:105160004B0461E088E490E00E94364F81E0809338
:10517000080310929B0410929C0480913403909138
:105180003503019709F07EC10E943B0A1092040387
:10519000109A80912003909121030197029720F4A7
:1051A0008091DD028823D9F0809115028823B9F01F
:1051B000809106028150990BFC01EB59FA4F208136
:1051C000222369F0880F991FFC01E85AFA4F4081A9
:1051D000518170E060E085E795E00E947F400E9489
:1051E0005C1A809122039091230340E050E0BA01C1
:1051F000039709F04DC18FEC94E00E947F4010921C
:105200005605109257051092270510922805109206
:10521000030310920B030E94C10A80912203909114
:105220002303892B81F580911402882361F166E0C4
:1052300070E080E090E00E949D3B9B01AC01265F06
:105240003F4F4F4F5F4FA8EEB3E00E94D980AB01B4
:10525000BC018BEB94E00E947F4068E070E080E04E
:1052600090E00E949D3B9B01AC01295F3F4F4F4F57
:105270005F4FA8EEB3E00E94D980AB01BC0187EA82
:1052800094E00E947F4048E95AE360E070E081EBDF
:1052900094E01F910F91EF900C947F40E12C10E06F
:1052A00000E020E060E08FE491E00E94364F08ECDF
:1052B00010E01FCF1092090339CF039739F48FE420
:1052C00091E00E94364F0CE211E048CF85E090E07B
:1052D000F8CF109208034DCF0E942B0440914B044D
:1052E0008130910509F448C058F0039709F44CC087
:1052F000E12C10E000E020E060E08BE990E007C0E6
:10530000E12C10E000E020E060E087E891E00E94FE
:10531000364F8091DE02882309F449C081E08093F2
:1053200009030E942B0440914B04E12C0097A1F546
:1053300004EA16E021E061E089E891E00E94364F3E
:105340008091DD02882329F281E0809308030E9486
:105350002B0440914B04E12C0CEB12E081309105C1
:1053600059F1892B39F504EA16E021E061E089E87A
:1053700091E00E94364FFDCEE12C10E000E020E0ED
:1053800060E081E690E0C3CFE12C10E000E020E097
:1053900060E08FE491E0BBCF0CE211E0019711F4E3
:1053A0000CEB12E021E061E082E690E0C7CF1092C2
:1053B0000903C6CF0CE211E021E061E088E490E04F
:1053C000D8CF85E390E00E94294FE12C10E000E067
:1053D00020E040914B0460E083E390E00E94364F70
:1053E00002E513E021E040914B0461E084E390E0AA
:1053F000C0CF8BE390E00E94294FE12C10E000E049
:1054000020E040914B0460E089E390E00E94364F39
:1054100008EE13E021E040914B0461E08AE390E064
:10542000A8CFEE24E39410E000E020E040914B048C
:1054300060E086E491E00E94364F8091060244EBE2
:1054400050E060E070E08330C1F058F448EC50E088
:1054500060E070E0823089F04CED50E060E070E098
:105460000CC040EA50E060E070E0843031F04CE87D
:1054700050E060E070E0853079F78FE497E00E94BB
:105480007F4077CE0E94A41981E08093040380CEF0
:105490008DEE94E0B2CE8091DC02882309F445C001
:1054A0001092DC021092090510920A0590915106A3
:1054B00080914C06981321C066E082E190E00E9442
:1054C000F83266E083E190E00E94F83266E084E121
:1054D00090E00E94F83266E085E190E00E94F832A8
:1054E00066E086E190E00E94F83246ED56E060E02A
:1054F00070E081E095E00C947F4082E190E00E94B2
:10550000294F83E190E00E94294F84E190E00E94BE
:10551000294F85E190E00E94294F86E190E00E94AA
:10552000294F40E050E0BA01E4CF0895CF93C82F4F
:1055300080910602823020F08430C8F08630F0F08E
:1055400081E290E00E94294FCC2329F1809122032F
:105550009091230382309105C1F083309105C1F011
:105560000197C9F483E991E0CF910C94294F81E22E
:1055700090E00E94294F8DE190E0E4CF8DE190E032
:105580000E94294F80E290E0DDCF84E991E0ECCFEA
:1055900087E491E0E9CFCF910895EF920F931F93A5
:1055A0008091DB02882381F10E942B040297A8F5E9
:1055B00089E491E00E94294F8CE491E00E94294FF8
:1055C0008DE491E00E94294F81E00E94962A80910B
:1055D000D8039091D90381309105B1F00497A1F0DF
:1055E0008091E102811110C081E190E00E94294F79
:1055F000EE24E39410E000E020E040914B0460E0F2
:1056000081E190E00E94364F1092DB0281E08093AE
:1056100008021F910F91EF9008958FE890E00E948B
:10562000294F80E990E00E94294F8091D803909102
:10563000D9038430910501F540914B044150EE248B
:10564000E39410E000E020E060E084E990E00E9454
:10565000364F8091D8039091D9030497A9F248EE70
:1056600056E060E070E083E995E00E947F40109290
:10567000910510929205C8CF019759F340914B04C0
:105680004150EE24E39410E000E020E060E082E985
:1056900090E0DDCF80912403909125038130910526
:1056A00039F48091D8039091D903892B79F008952A
:1056B000892B79F58091D8039091D903892B49F5ED
:1056C00080913A0390913B03019719F50E944B2A70
:1056D0000E94CD2A81E00E94962A80912603909113
:1056E00027030297A1F490E08EE1891B80930303C6
:1056F00085E0809304030E94E00848E750E060E002
:1057000070E08EE495E00E947F400C943C0592E0AE
:10571000EBCF0895EF920F931F93CF93DF931092E7
:105720007D0510927E051092D9031092D803109235
:1057300011031092DE021092DD0210924C051092BD
:105740004D05109227051092280510920B038091A9
:10575000060281502091380330913903809304036D
:10576000109203032130310509F069C080913403A0
:1057700090913503019709F057C00E943B0A0E949F
:1057800018091092F5041092F6041092C3041092B6
:10579000C4041092AF041092B00440E050E0BA018B
:1057A00089ED94E00E947F400E942B04029708F04C
:1057B0004BC0109811980E943C5910921D051092F0
:1057C0001E050E942B04029708F440C08AE691E06F
:1057D0000E94294F109209031092080310920703A8
:1057E000109257071092580780912203909123033B
:1057F0008230910509F49DC08330910509F448C0B9
:10580000019709F48FC0C09106020E942B04C53095
:1058100009F472C08130910519F1D8F0039709F4A9
:1058200068C080E690E017C00E94A41985E090E06F
:1058300090930402809303020E943C05A2CF0E9431
:10584000A41983E090E0F4CF119AB5CF8CE390E0F7
:10585000BFCF8DE791E00E94294F8EE791E006C00F
:1058600084E690E00E94294F83E690E00E94294F51
:1058700080911402882321F089E090E00E94294F52
:1058800088E490E00E94294F82E690E00E94294F30
:105890008091E102811181C08091220390912303C4
:1058A0008230910509F429C18330910509F475C04E
:1058B000019709F418C10E942B048130910509F465
:1058C000CDC0F0F1039709F40AC181EB94E00E9486
:1058D0000940683873418105910508F0E6C0E12C64
:1058E00010E000E020E040914B0460E083E891E0AC
:1058F00052C08FE491E0AFCF8130910569F028F07C
:10590000039769F08BE990E0B1CF87E891E00E94BE
:10591000294F89E891E0AACF81E690E0A7CF8FE4F4
:1059200091E0A4CF83E390E00E94294F84E390E0CC
:10593000ADCF89E390E00E94294F8AE390E0A6CFA3
:1059400080910602853009F45CC081EB94E00E94EE
:105950000940E12C10E000E06838734181059105B1
:1059600008F49CC081EB94E00E940940E12C10E017
:1059700000E0603177428105910538F420E04091E4
:105980004B0460E08AE090E006C020E040914B04C8
:1059900060E080E891E00E94364F8091E202882327
:1059A00051F1C091D603D091D70380912A039091F1
:1059B0002B038130910509F4AFC0029709F0A7C00D
:1059C000219741F08EE690E00E94294F8FE690E00B
:1059D0000E94294F8091E10281110BC0E12C10E05F
:1059E00000E020E040914B0460E08FE690E00E94F0
:1059F000364F1092E202DF91CF911F910F91EF90FD
:105A0000089581EB94E00E94094068387341810554
:105A1000910550F4E12C10E000E020E040914B04AF
:105A200060E088E891E0B7CF81EB94E00E94094004
:105A3000E12C10E000E0603177428105910538F4F7
:105A400020E040914B0460E08BE891E0A4CF20E09F
:105A500040914B0460E08AE891E09DCF81EB94E0B7
:105A60000E940940683873418105910550F4E12C8A
:105A700010E000E020E040914B0460E08BE090E01B
:105A80008ACF81EB94E00E940940E12C10E000E015
:105A9000603177428105910508F070CF20E0409198
:105AA0004B0460E087E490E076CF81EB94E00E94C5
:105AB0000940E12C10E000E060317742810591055A
:105AC00038F420E040914B0460E082E891E063CF3D
:105AD00020E040914B0460E081E891E05CCFE12C54
