:100000000C9437030C9468030C9468030C946803F5
:100010000C9468030C9468030C9468030C946803B4
:100020000C9468030C9468030C9468030C946803A4
:100030000C9468030C9468030C9468030C94680394
:100040000C9468030C9468030C9468030C94680384
:100050000C9468030C9468030C9468030C947E4819
:100060000C9468030C94E2430C94B8430C9468031A
:100070000C9468030C9468030C9468030C94680354
:100080000C9468030C9468030C9468030C94680344
:100090000C948E430C9464430C9468030C94214993
:1000A0000C9468030C9468030C9468030C94680324
:1000B0000C9468030C9468030C9468030C94680314
:1000C0000C9468030C9468030C9468030C94680304
:1000D0000C9468030C9468030C943A430C941043FA
:1000E0000C9468030C94432F0C94875E0C949840F6
:1000F0000C948C4E0C9497330C9485420C940845C8
:100100000C94776C0C947C3E0C943F450C94ED62FF
:100110000C94FF110C944D3F0C9469360C94883567
:100120000C9412360C9424350C94A3310C94D62ED6
:100130000C94321E0C94BD340C94E7320C949D3117
:100140000C9450210C9474730C94B2330C9432368A
:100150000C94EC330C94554E0C945D370C94A141E7
:100160000C946A4E0C94DC3A0C944E350C9412109C
:100170000C9470730C947D360C947D400C94CA5092
:100180000C9475400C94F4440C943E310C9406107D
:100190000C946C4E0C9461330C94BA120C942E1285
:1001A0000C94FB2F0C9431730C9472110C942973E2
:1001B0000C949C370C9438340C948B120C9425348A
:1001C0000C94461E0C94E5100C9442420C9408408A
:1001D0000C9481400C94ED360C9481500C94684E34
:1001E0000C94EC440C943D3E0C94574E0C94F0301F
:1001F0000C94653E0C94AF450C9471340C946E4E87
:100200000C9439360C945B4E0C94392F0C94D835E1
:100210000C94141E0C9468320C9403100C942D2F23
:100220000C94B70F0C94614E0C94B0350C94787309
:100230000C942B730C9484400C94AD360C94322F98
:100240000C94613F0C946D030C94DA2E0C94AD3732
:100250000C9422360C94434E0C94D4320C947310AC
:100260000C94534E0C942B410C941A2F0C94D044A4
:100270000C94A7310C9420330C9412340C94723EDD
:100280000C9476730C94370F0C94F82E0C94F6346F
:100290000C9427730C9404360C9409370C94170FA4
:1002A0000C94FA320C947D300C94E6410C94D034CA
:1002B0000C949A500C94BC350C944E360C94F12F3F
:1002C0000C947C330C94594E0C94281E0C948C5E28
:1002D0000C94C6330C94AA100C940A1E0C94AA34E5
:1002E0000C9450730C94B9300C943C1E0C94893EC1
:1002F0000C949C350C94B2310C948A400C943E3F83
:100300000C94C8350C9419310C94AA400C94973471
:100310000C94504E0C9484340C94A6400C941C41C4
:100320000C947D370C94F11D0C94D0110C948637ED
:100330000C945D120C940F100C946F400C942D7360
:100340000C9445320C9432310C9446210C941411C7
:100350000C9435450C94072F0C944D4E0C943B3562
:100360000C9422320C940D330C945D4E0C94BB3FD4
:100370000C940C100C945F4E0C940D350C94F53EBF
:100380000C946A030C947A730C9446330C942031C9
:100390000C9449450C9453450C94A4500C94125160
:1003A0000C942F730C94FD610C94E32D0C9441314B
:1003B0000C94773E0C9474350C94723A0C944B3434
:1003C0000C949C400C94C6440C94E8350C94E33493
:1003D0000C9445410C94912F0C94E4410C944810DA
:1003E0000C94664E0C94B00E0C94AA310C94953675
:1003F0000C949E320C9440360C9472730C94F42E30
:100400000C9478310C9421450C94FF310C94B0403D
:100410000C94C52F0C94960E0C9443110C945E34DE
:100420000C948E400C949E740C94F83E0C94FE44F4
:100430000C94BE0E0C94963E0C943E410C94FA3AE9
:100440000C94FA610C94EB3A0C9471030C94B44044
:100450000C94C1440C94E1410C9425370C948332E4
:100460000C9461350C9447360C94C5360C942931A4
:100470000C94D9330C9400730C94F43E0C94FB0E42
:100480000C94AA500C9441370C94C50E0C94FF3375
:100490000C94295E0C941B410C9472410C94634E95
:1004A0000C94B7330C9455360C94B9440C94A36156
:1004B0000C94A1110C9412450C94CD3A0C94F63581
:1004C0000C942B450C9409100C94AF400C946F3F86
:1004D0000C943B310C94A2400C9479400C94DA4477
:1004E0000C94B9320C94A64E0C94BD4E0C94D12FA2
:1004F0000C94D8310C941E1E0C9433300C9433336E
:100500000C94B70E0C94F33E0C94D9360C94E4443E
:100510000C94EC0E0C94090F0C94DE500C94944047
:1005200000002100240027002A002D0030003300A5
:1005300001010000040107010A010000220025005A
:1005400028002B002E0031003400020100000501BC
:1005500008010B01000020002300260029002C00C8
:100560002F0032000001000003010601090105050A
:100570000505070508080808020202020A0A080819
:100580000404040401010101010101010303030347
:1005900003030303040707070C0C0C0C0C0C0C0CD6
:1005A0000202020206060606060606060B0B0B0BE7
:1005B0000B0B0B0B0102102020080810204010200C
:1005C0004080020102010804020101020408102017
:1005D0004080804020100804020180040201804015
:1005E000201008040201080402010102040810207E
:1005F0004080010204081020408000000A0B02091C
:100600000C0D0E08070304010000000000000000AC
:1006100000000000000000000000000000000000DA
:100620000000000000001211100000000000000097
:1006300000000000000000000000000000000000BA
:100640004552524F523A204E6F2063616C6C62618A
:10065000636B20617661696C61626C6520666F72A4
:10066000207061636B657420494420009E741124DE
:100670001FBECFEFD1E2DEBFCDBF00E00CBF13E065
:10068000A0E0B2E0E4E0F8EF00E00BBF02C00790AA
:100690000D92AE37B107D9F72CE0AEE7B3E001C059
:1006A0001D92AE32B207E1F713E0C7E3D3E000E0FA
:1006B00006C021970109802FFE010E94C77AC63328
:1006C000D10780E00807A9F70E94AD540C94007C84
:1006D0000C94000090E080E00895FC0185859685EB
:1006E00008950F931F93CF93DF9300D0CDB7DEB75C
:1006F000AB0119821A821B82DC01ED91FC91019001
:10070000F081E02D00E010E020E0BE016F5F7F4F40
:1007100019950F900F900F90DF91CF911F910F912E
:1007200008956091FE0B062E000C770B8FE390E08E
:100730000E94D74E6091FE0B062E000C770B80E4D2
:1007400090E00E94D74E6091FE0B062E000C770BB6
:1007500083E490E00E94D74E6091FE0B062E000CC1
:10076000770B84E490E00E94D74E6091FE0B062E3A
:10077000000C770B615071098EE890E00E94D74E13
:100780006091FE0B062E000C770B6150710980E919
:1007900090E00E94D74E6091FE0B062E000C770B66
:1007A000615071098DE890E00E94D74E6091FE0B78
:1007B000062E000C770B615071098FE890E00E94C3
:1007C000D74E6091FE0B062E000C770B615071091D
:1007D00083E990E00E94D74E6091FE0B062E000C3C
:1007E000770B6150710981E990E00E94D74E6091CA
:1007F000FE0B062E000C770B6150710982E990E028
:100800000E94D74E6091FE0B062E000C770B6150B4
:10081000710984E990E00E94D74E6091FE0B062E8C
:10082000000C770B82E190E00E94D74E6091FE0BA6
:10083000062E000C770B83E190E00E94D74E60916A
:10084000FE0B062E000C770B84E190E00E94D74E41
:100850006091FE0B062E000C770B85E190E00E9464
:10086000D74E6091FE0B062E000C770B86E190E0D0
:100870000E94D74E6091FE0B062E000C770B84E091
:1008800090E00E94D74E6091FE0B062E000C770B75
:1008900081E290E00E94D74E6091FE0B062E000C84
:1008A000770B8DE190E00E94D74E6091FE0B062EF3
:1008B000000C770B8EE190E00E94D74E6091FE0B0A
:1008C000062E000C770B8FE190E00E94D74E6091CE
:1008D000FE0B062E000C770B80E290E00C94D74EB6
:1008E0008DE890E00E94E14B8EE890E00E94E14BA1
:1008F0008FE890E00E94E14B80E990E00E94E14B9C
:1009000081E990E00E94E14B82E990E00E94E14B96
:1009100083E990E00E94E14B84E990E00C94E14B84
:1009200084E090E00E94E14B81E290E00E94E14B84
:100930008DE190E00E94E14B8EE190E00E94E14B5E
:100940008FE190E00E94E14B80E290E00C94E14B5B
:10095000CF92DF92EF926B01E82E8AE99AE00E9433
:100960004E4B8823A1F180919B04853080F590E067
:10097000FC01EE0FFF1FE80FF91FE951FC4FC08289
:10098000D182E28243E050E060E070E080E09CE0F1
:100990000E947E4B8091B3049091B4048130910504
:1009A00039F0029769F044E150E060E070E004C083
:1009B00046E050E060E070E08AE99AE00E947E4BF9
:1009C00080919B048F5F853031F080939B04EF9082
:1009D000DF90CF90089510929B041092A20A10927B
:1009E000A30A44E650E060E070E086E89AE0EF9009
:1009F000DF90CF900C947E4B0E94CD4EEEE7F3E05B
:100A0000119283E0EA39F807D9F70895AF92BF92BF
:100A1000CF92DF92EF92FF920F931F93CF93DF93CA
:100A2000CDB7DEB72C970FB6F894DEBF0FBECDBFA3
:100A30003091D50331113EC04B300CF04AE0F42E1A
:100A40003AEB431714F43AEBF32EC62EE92ED82EC8
:100A5000AF2C0F2C000CBB082223E9F16AEB7FEFCF
:100A60000E94D74E8D2D9E2D0E94FE4E80EF8983D1
:100A70008AEA8A838CE08B838AE08C83DD82EE8233
:100A8000FF82B88609871A871B8685E58C874CE02C
:100A900050E0BE016F5F7F4F85E196E00E94F83E17
:100AA00065E070E0C11002C066E070E08D2D9E2D03
:100AB0000E946F4D2C960FB6F894DEBF0FBECDBFCF
:100AC000DF91CF911F910F91FF90EF90DF90CF902A
:100AD000BF90AF900895B5010E94D74E8D2D9E2DE9
:100AE0000E94FE4EDDCF0F931F9386E090E00E94A0
:100AF000E14B80E390E00E94E14B85E490E00E94AE
:100B0000E14B86E490E00E94E14B8CE290E00E9491
:100B1000E14B8DE390E00E94E14B8EE390E00E9478
:100B2000E14B8091C2049091C30483309105B9F1E7
:100B300080F48130910509F1029741F110E000E065
:100B400020E04091FE0B60E086E090E00E94060508
:100B500005C08730910561F1089781F71092E6038F
:100B600084E6809307024AE050E060E070E084EAA7
:100B70009AE01F910F910C947E4B10E000E020E072
:100B80004091FE0B60E080E390E0E0CF10E000E0F9
:100B900020E04091FE0B60E085E490E0D7CF10E0CC
:100BA00000E020E04091FE0B60E086E490E0CECFD4
:100BB00010E000E020E04091FE0B60E08CE290E06D
:100BC0000E94060520E04091FE0B60E08EE390E07D
:100BD000BDCF0F931F93282F90911002953038F4BA
:100BE0009330C8F4913068F41F910F9108959530B7
:100BF000D9F708EE13E04091FE0B61E080E290E04F
:100C000007C008EE13E04091FE0B61E081E290E046
:100C10000E940605E9CF08EE13E04091FE0B61E06B
:100C20008DE190E0F5CF8F929F92AF92BF92CF92DD
:100C3000DF92EF92FF920F931F93CF93DF93CDB785
:100C4000DEB7C054D1090FB6F894DEBF0FBECDBFDA
:100C500080E4E7E3F2E0DE01119601900D928A95BF
:100C6000E1F710E000E088248A94982C5401C80130
:100C70000E94E77894012827D501C9018F70992730
:100C8000AA27BB27880F991F880F991F41E050E0C2
:100C90004C0F5D1F840F951FFC01C080D180E28046
:100CA000F38034E0B694A794979487943A95D1F75B
:100CB000C824D924EA24FB24C8010E94E77890E0E4
:100CC00044E0959587954A95E1F7092E000CAA0B0B
:100CD000BB0B8C259D25AE25BF258F709927AA2794
:100CE000BB27880F991F880F991F21E030E02C0F38
:100CF0003D1F820F931FFC0180809180A280B380F2
:100D000064E0F694E794D794C7946A95D1F78C245D
:100D10009D24AE24BF2480949094A094B0940F5F3F
:100D20001F4F0C3FFFE01F0709F0A1CFC501B40121
:100D3000C05CDF4F0FB6F894DEBF0FBECDBFDF91B2
:100D4000CF911F910F91FF90EF90DF90CF90BF90C8
:100D5000AF909F908F900895EAE3FBE080913F0B66
:100D600080838091390B81838091380B82838091BD
:100D7000370B838380912902848308950F931F93F7
:100D8000CF93DF931F92CDB7DEB72091CB04211113
:100D90008AC09093D2038093D1031092D003109213
:100DA000CF038CEB90E0611102C08DEB90E090934B
:100DB000D4038093D3038091CF038093470880911D
:100DC000D003809348088091D10380934908809193
:100DD000D20380934A088091D30380934B0880917B
:100DE000D40380934C088FEF8093560A07E418E0F1
:100DF000F80180E091919E3709F05BC08093560A1C
:100E000086E08983BE016F5F7F4F87E498E00E9490
:100E1000964D4091F0075091F1072DE438E080E0C5
:100E2000D801ED918D01E827E40FF52FF11D8081A8
:100E30002A173B07A9F71092440A9091560A9093FB
:100E4000450A96E09093460A8093470A8091620A89
:100E50009091630ADC01ED91FC910280F381E02D19
:100E600044E050E063E47AE019958091620A909141
:100E7000630ADC01ED91FC910280F381E02D46E0F4
:100E800050E067E478E019958091620A9091630AD6
:100E9000DC01ED91FC910280F381E02D42E050E015
:100EA00067E47AE019950F90DF91CF911F910F9130
:100EB00008958F5F863009F09DCFA2CF0F931F93C7
:100EC0000E9470044091FE0B415010E000E020E0D1
:100ED00060E08DE890E00E940605109208024CE761
:100EE00056E060E070E088E69BE00E947E4B8091D7
:100EF000AE04882339F060E087E590E01F910F9100
:100F00000C94BE061F910F9108950F931F9390911B
:100F10000202981729F18430B9F460E083E190E08F
:100F20000E94BE0610E000E020E04091FE0B60E071
:100F30008CE390E00E94060544E650E060E070E03B
:100F400082EC9AE00E947E4B809102028F5F809338
:100F5000020260E081E190E01F910F910C94BE06C7
:100F60001F910F9108958CE30E940C44892B11F07E
:100F700080E0089580E99BE00E94084B672B682B76
:100F8000692BB1F780919C048111F2CF4AEF50E0B8
:100F900060E070E080E99BE00E947E4B81E08093FE
:100FA0009C040895809110028330A1F030F48230C7
:100FB000A9F060E084E190E007C0843039F085302A
:100FC000C1F760E088E190E00C94BE0660E087E144
:100FD00090E0FACF60E086E190E0F6CF60E085E156
:100FE00090E0F2CF1092C20370E060E08BE00C94CE
:100FF000814470E060E088E00E94814461E08DE01F
:101000000E94354461E08CE00E94354470E060E06D
:1010100089E00E948144E5E1F8E010861186EBE06A
:10102000F8E0108611860895CF93C82F8091C103F0
:10103000C53040F160E00E94354481E08093BC03FC
:1010400060E08091C0030E94354481E08093BB033F
:1010500060E08091BF030E94354481E08093BA0331
:1010600060E08091BE030E94354481E08093B90323
:1010700060E08091BD030E94354481E08093B80315
:10108000CF91089561E00E9435441092BC03C430B2
:10109000B9F261E08091C0030E9435441092BB0315
:1010A000C330B1F261E08091BF030E9435441092D9
:1010B000BA03C230A9F261E08091BE030E943544B8
:1010C0001092B903C111D4CF61E08091BD030E9499
:1010D00035441092B803D4CFFF920F931F93CF9350
:1010E000DF938091D9038823B1F0CAE9D3E00EE7FA
:1010F00013E0FF24F39489910E940B4DF801F192C3
:101100008F01F3E0C63BDF07B1F7DF91CF911F916D
:101110000F91FF90089585E0DF91CF911F910F917E
:10112000FF900C9414088091BA049091BB04823013
:10113000910541F08330910541F0019749F490E029
:1011400080E0089581E090E0089582E090E00895C5
:101150008091A2049091A30408950F931F938DE3AF
:101160000E940C44892BF1F48AE99BE00E94084B11
:10117000672B682B692BB1F44AEF50E060E070E018
:101180008AE99BE00E947E4B80911102882329F01E
:1011900060E08DE790E00E94BE06109211021F9160
:1011A0000F9108958DE30E940C440197C1F78AE9DD
:1011B0009BE00E94084B672B682B692B81F70E94EC
:1011C00093080297029778F48091110281110BC065
:1011D0004091FE0B415010E000E020E060E081EB28
:1011E00090E00E94060580911102811105C060E027
:1011F0008CE790E00E94BE0681E080931102CFCF81
:101200008091B1049091B2048130910591F10297DF
:1012100031F581E090E09093D7038093D6038091DD
:10122000AF049091B0048130910541F0029731F103
:1012300080919E0490919F04019701F11092E00328
:101240001092DF038091D6039091D7030197E9F4C0
:1012500080E190E0909301028093000208958091D4
:101260009E0490919F040197A1F20E949308029717
:1012700080F61092D7031092D603D1CF81E090E090
:101280009093E0038093DF03DDCF83E090E0E2CF33
:101290000F931F938091B703882339F10E9493081D
:1012A000029740F58091C9049091CA04019791F08A
:1012B00081E190E00E94E14B10E000E020E04091ED
:1012C000FE0B60E081E190E00E9406058091B7038B
:1012D000882359F00E949308029708F056C081E0D5
:1012E00090E00E94E14B0E9490041092B7031F917E
:1012F0000F91089580910302882361F38091C904BE
:101300009091CA048430910521F02091C4042223D5
:1013100039F14091FE0B415010E000E020E060E028
:1013200084E990E00E9406058091AE04882329F0AC
:1013300060E08EE590E00E94BE068091C904909125
:10134000CA04049719F24CE756E060E070E088E6C2
:101350009BE00E947E4B1092660B1092670BB6CFFB
:10136000019789F34091FE0B415010E000E020E02E
:1013700060E082E990E00E9406058091AE04882337
:10138000E1F260E08CE590E0D6CF8FE890E00E943B
:10139000E14B80E990E00E94E14B8091AE0488230C
:1013A00009F4A3CF60E089E590E00E94BE069DCFDE
:1013B000FF920F931F93CF93DF938091D9038823DC
:1013C00009F41BC18CEC9AE00E944E4B8823B9F1C2
:1013D0008091D6039091D7030197B9F193E0F92E4C
:1013E00004E015E0D6E0C7E0E091DB038091DA038A
:1013F000882309F482C0EC3168F4F0E0E656FC4F33
:1014000080810E940B4DE091DB03F0E0E258FC4F3D
:1014100081E0808380911002833009F453C0E0F4AE
:10142000813009F461C0823009F455C08091DA033B
:10143000882329F08091DB038F5F8093DB03DF91AA
:10144000CF911F910F91FF9008958AE0F82E0AE046
:101450001AE0DAE0CAE0C8CF843041F1853031F7D4
:101460008091DB038C31C8F01092DA038BE180931A
:10147000DB038091D6039091D703019729F4109252
:10148000D40A1092D50AD2CF4AE550E060E070E06D
:101490008CEC9AE00E947E4BC9CF84E0F89EA001BC
:1014A0001124052E000C660B770BF2CF8091DB0325
:1014B000863118F01092DA03DCCF84E0089FA00197
:1014C0001124EFCF8091DB038031A0F784E0189FD7
:1014D000A0011124E6CF8091DB038B3058F784E024
:1014E000D89FA0011124DDCF8091DB03853010F758
:1014F00084E0C89FA0011124D4CFEC3160F4F0E067
:10150000E656FC4F80810E942A4DE091DB03F0E01B
:10151000E258FC4F10828091DB03811110C081E002
:101520008093DA034AE550E060E070E08CEC9AE0EA
:10153000DF91CF911F910F91FF900C947E4B8150C2
:101540008093DB03909110029330D9F1A0F4913095
:1015500009F445C0923009F072CF2091D603309142
:10156000D7032130310511F48C3098F048E150E078
:1015700060E070E0DBCF9430B1F0953009F05FCFE0
:101580002091D6033091D7032130310539F48C31C5
:1015900028F41092D40A1092D50A51CF4CE050E0B2
:1015A00060E070E0C3CF2091D6033091D7032130A3
:1015B000310511F4873168F340E150E060E070E0FC
:1015C000B5CF2091D6033091D7032130310511F4E6
:1015D0008131F8F244E150E060E070E0A7CF209163
:1015E000D6033091D7032130310511F4853088F2CC
:1015F0004CE150E060E070E099CF809110028330C0
:10160000B9F038F4813061F0823009F018CF82E00F
:1016100008C0843079F0853009F011CF85E001C031
:1016200081E0DF91CF911F910F91FF900C941408EE
:1016300083E0F7CF84E0F5CFEF92FF920F931F93F3
:10164000CF93DF93809110029091D903992309F4ED
:101650009CC0833009F45FC058F4813001F18230BE
:10166000E9F1DF91CF911F910F91FF90EF900895D5
:10167000843009F46DC0CAE9D3E00EE713E0FF241B
:10168000F394853071F789910E940B4DF801F19226
:101690008F01F3E0C63BDF07B1F78BE117C03AE9F2
:1016A000E32E33E0F32E0EE713E0C0E0D1E0F701C4
:1016B00081917F01C53068F40E940B4DF801D08301
:1016C000CF5F0F5F1F4FCC3191F784E08093DB0336
:1016D000C8CF0E942A4DF8011082F2CF2AE9E22EEB
:1016E00023E0F22E0EE713E0C0E0D1E0F701819194
:1016F0007F01CC3058F40E940B4DF801D083CF5FAE
:101700000F5F1F4FCC3191F78BE0E0CF0E942A4D45
:10171000F8011082F4CF9AE9E92E93E0F92E0EE752
:1017200013E0C0E0D1E0F70181917F01C13158F4AD
:101730000E940B4DF801D083CF5F0F5F1F4FCC315C
:1017400091F780E1C3CF0E942A4DF8011082F4CFB7
:101750008AE9E82E83E0F82E0EE713E0C0E0D1E03E
:10176000F70181917F01C73158F40E940B4DF801B8
:10177000D083CF5F0F5F1F4FCC3191F786E1A6CFAB
:101780000E942A4DF8011082F4CF8330C1F038F462
:10179000813061F0823009F064CF82E008C084308B
:1017A00081F0853009F05DCF85E001C081E0DF91F7
:1017B000CF911F910F91FF90EF900C94140883E04C
:1017C000F6CF84E0F4CF8091B80481111AC0E7E726
:1017D000F2E0AAE9B3E081918D9382E0E339F80762
:1017E000D1F787E38093BD0388E38093BE0389E349
:1017F0008093BF038AE38093C0038BE38093C1038C
:101800000895E3E9F2E0AAE9B3E08FEA92E02191DA
:101810002D938E179F07D9F78BE38093BD038AE33F
:101820008093BE0389E38093BF0388E38093C00362
:1018300087E3E4CF8091D903882321F00E94FC0440
:101840001092DB0308958091D903882381F10E94CF
:101850001A0C70E060E088E00E94814470E060E073
:1018600089E00E94814460E086E10E94354460E0A6
:1018700087E10E94354460E088E10E94354461E0E0
:101880008DE00E94354461E08CE00E943544109266
:10189000DE031092DB0380911D0881110CC040E62D
:1018A0005AEE60E070E085E198E00C947E4B80E0B9
:1018B0000E941408CECF08952091C9043091CA0423
:1018C000235031092330310510F4882329F19091F8
:1018D000100220910502921303C0811112C00895D5
:1018E000291778F481E08093DA039330F1F060F403
:1018F000913001F14EE150E060E070E0923089F00B
:1019000008951092DA03F1CF943039F04CE350E0AF
:1019100060E070E0953029F008954DE250E060E01D
:1019200070E08CEC9AE00C947E4B44E250E060E076
:1019300070E0F7CF49E150E060E070E0F2CF9091C5
:101940000B02992309F190910A029923E9F0209161
:10195000C9043091CA0424303105B1F09091C40417
:10196000911112C090910902992319F02330310589
:1019700059F49091C203981761F08093C203682FC5
:1019800070E08BE00C9481441092C20370E060E040
:10199000F8CF0895CF93DF9380910602813418F435
:1019A00081E4809306028091D903882309F49DC1C4
:1019B000E091DB03EC31B8F1E83308F064C0C7E331
:1019C000CE1B8091C9049091CA04049719F08091AC
:1019D000C40481110E94F2078091C9049091CA0445
:1019E000049729F08091C404882309F477C0D0E0DB
:1019F000FE01E656FC4F80810E942A4DC258DC4F02
:101A000018828091DB0340E550E060E070E08733AE
:101A100009F061C11092210B1092220B1092DA038F
:101A20001092DB0330C0F0E0E656FC4F80810E944C
:101A30000B4D8091DB03E82FF0E0E258FC4F91E082
:101A40009083873118F180910602805B0E949F0C81
:101A50008091DB038F5F8093DB038C3179F54AE55E
:101A600050E060E070E089E19BE00E947E4B809155
:101A7000D6039091D703019731F488E090E09093DA
:101A8000010280930002DF91CF910895813120F00F
:101A900080910602885DDACF8B3020F080910602BB
:101AA000825ED4CF853020F0809106028C5ECECF4E
:101AB000882371F280910602865FC8CF40910002B0
:101AC00050910102440F551F440F551F70E060E014
:101AD00089E19BE0DF91CF910C947E4B8091D603FE
:101AE0009091D70320911002253018F48130910590
:101AF00011F0892B51F4D0E0FE01E656FC4F8081B5
:101B00000E942A4DC258DC4F18828091D6039091D2
:101B1000D703009719F1019709F0B5CF8091100212
:101B2000833009F47BC0C0F5813009F4B5C0823040
:101B300009F0A9CF8091DB038B3209F099C0109294
:101B4000210B1092220B1092DA038BE08093DB03BF
:101B50000E940009809106028B5F1AC08091DB030E
:101B6000873309F0AEC044E050E060E070E08CECF8
:101B70009AE00E947E4B1092210B1092220B81E082
:101B80008093DA031092DB030E9400098091060221
:101B9000DF91CF910C949F0C8430B1F0853009F027
:101BA00072CF1092D40A1092D50A1092210B109283
:101BB000220B1092DA038BE18093DB030E94000971
:101BC00080910602875EE4CF8091DB03803279F456
:101BD0001092210B1092220B1092DA0386E180936F
:101BE000DB030E94000980910602825ED1CF409102
:101BF000000250910102440F551F440F551F70E021
:101C000060E089E19BE00E947E4B8091DB038F5F67
:101C10008093DB0380910602845FBACF8091DB035F
:101C2000863279F41092210B1092220B1092DA0373
:101C300080E18093DB030E94000980910602865FA9
:101C4000A7CF4091000250910102440F551F440F4D
:101C5000551F70E060E089E19BE00E947E4B80911F
:101C6000DB038F5F8093DB03809106028C5E90CF55
:101C70004091000250910102440F551F440F551F1F
:101C800070E060E089E19BE00E947E4B8091DB0385
:101C90008F5F8093DB03D1CF809106020E949F0C5F
:101CA0008091DB03823369F41092210B1092220B96
:101CB0001092DA0385E08093DB03DF91CF910C94DF
:101CC00000094091000250910102440F551F440F3A
:101CD000551F70E060E089E19BE00E947E4B80919F
:101CE000DB038F5F8093DB03CECE8091C90490919C
:101CF000CA04049721F08091C404C1E08111C2E0BC
:101D0000E091DE03EA3008F0BECEF0E08827E45729
:101D1000F14F8F4F0C94C77A960EB00EB70EBE0ED1
:101D2000C50EEC0EFB0E090F170F370F8091060240
:101D3000865F0E949F0C81E00E94140888E7C89F7C
:101D4000A0011124052E000C660B770B89E19BE0A6
:101D50000E947E4B8091DE038F5F8093DE0393CEE3
:101D6000809106028C5E0E949F0C82E0E5CF8091FC
:101D70000602825E0E949F0C83E0DECF8091060205
:101D8000885D0E949F0C84E0D7CF80910602805B23
:101D90000E949F0C85E00E9414088091DE03282F8A
:101DA00030E02F5F3F4F909110029217130641F4DD
:101DB0002091C9043091CA042430310509F050C083
:101DC0008F5F8093DE0388E7C89FA0011124052E52
:101DD000000C660B770B7CCE80910602885D0E941A
:101DE0009F0C84E00E9414088091DE03482F41502C
:101DF000550B9A01D8CF80910602825E0E949F0CFB
:101E000083E00E9414088091DE03482F4350550B55
:101E1000F0CF809106028C5E0E949F0C82E00E94AF
:101E200014088091DE03482F4550550BE2CF809176
:101E30000602865F0E949F0C81E00E941408809138
:101E4000DE038750990B209110022817190609F01C
:101E500075CF8091C9049091CA04049709F46ECF9C
:101E60001092210B1092220B1092DE030CCE80E018
:101E70000E941408F5CF8091C5049091C60481306A
:101E8000910539F48091C9049091CA04892B79F0A5
:101E90000895892BB1F58091C9049091CA04892BCA
:101EA00081F580919E0490919F04019751F50E94C5
:101EB0001A0C10924508109246088091BF048111B7
:101EC00020C08091D6039091D703019799F40E9486
:101ED00000098091D903882349F08091D60390911D
:101EE000D703019719F480E00E945C0C0E94D2078E
:101EF0000C94CA0C86E090E090930102809300025B
:101F0000E8CF08950F931F938091A0049091A104AE
:101F10009093C3048093C20485E080930E02809165
:101F2000C40481110AC010E000E020E04091FE0BE3
:101F300060E088E290E00E9406050E941A0CE091A1
:101F4000A004F091A104319760E085E090E0E730D3
:101F5000F10578F48827E055F04F8F4F0C94C77A3D
:101F600006100310B70F09100C100F10121088E0A4
:101F700090E00E94BE061092CA041092C9040E940A
:101F8000230C80919E0490919F04019709F04DC00D
:101F90008091B20B9091B30B892B09F046C08091D0
:101FA000F40B9091F50B892B09F03FC080919D04B3
:101FB0008823F1F08091D9038823D1F08CEF90E051
:101FC0000E94E14B8AEF90E00E94E14B10E000E0BC
:101FD00020E04091FE0B60E08AEF90E00E94060551
:101FE00020E04091FE0B60E08CEF90E00E9406053F
:101FF0008091D9038823C9F080E00E945C0C1F9176
:102000000F910C943B0F87E090E0B3CF86E090E017
:10201000B0CF89E090E0ADCF8AE090E0AACF8BE02E
:1020200090E0A7CF8CE090E0A4CF1F910F9108958E
:10203000CF92DF92EF92FF920F931F93CF93DF9394
:10204000C091D9038091DF039091E003892B09F0BF
:10205000BCC3CC2309F4B3C2E091DB03EE3008F03B
:10206000BBC2F0E0909106028827E65CFF4E8F4FDE
:102070000C94C77A48107310AA10E510141143117C
:102080007211A111D011FF112E125D128B12BA1212
:102090008EE6890F0E949F0C8091A7030E940B4D32
:1020A0008091A8030E940B4D81E080938B03809365
:1020B0008C038091DB038F5F8093DB038091DA03D5
:1020C00081110CC08091A6030E942A4D8091A90322
:1020D0000E942A4D10928A0310928D0381E0809312
:1020E000DA0361E06EC08EE6890F0E949F0C80913A
:1020F000A6030E940B4D8091A9030E940B4D81E025
:1021000080938A0380938D038091DA03882381F082
:102110008091A7030E942A4D8091A8030E942A4D16
:1021200010928B0310928C038091DB038F5F0FC0A2
:102130008091A5030E942A4D8091AA030E942A4DF6
:102140001092890310928E038091DB03815080935B
:10215000DB03C7CF8EE6890F0E949F0C8091A503F9
:102160000E940B4D8091AA030E940B4D81E0809349
:10217000890380938E038091DA03882381F0809114
:10218000A6030E942A4D8091A9030E942A4D109215
:102190008A0310928D038091DB038F5F0FC08091C3
:1021A000A4030E942A4D8091AB030E942A4D1092F5
:1021B000880310928F038091DB0381508093DB03AF
:1021C00060E088E10E94354407C28EE6890F0E94D4
:1021D0009F0C8091A4030E940B4D8091AB030E9441
:1021E0000B4D81E08093880380938F038091DA0305
:1021F000882369F08091A5030E942A4D8091AA034B
:102200000E942A4D1092890310928E03C4CF8091B0
:10221000A3030E942A4D8091AC030E942A4D109284
:10222000870310929003C7CF8EE6890F0E949F0C00
:102230008091A3030E940B4D8091AC030E940B4D33
:1022400081E080938703809390038091DA03882351
:1022500069F08091A4030E942A4D8091AB030E94F3
:102260002A4D1092880310928F035ECF8091A203B3
:102270000E942A4D8091AD030E942A4D1092860340
:102280001092910361CF8EE6890F0E949F0C80917E
:10229000A2030E940B4D8091AD030E940B4D81E083
:1022A00080938603809391038091DA03882369F0F9
:1022B0008091A3030E942A4D8091AC030E942A4D75
:1022C00010928703109290032FCF8091A1030E9458
:1022D0002A4D8091AE030E942A4D109285031092E0
:1022E000920332CF80E7890F0E949F0C8091A10357
:1022F0000E940B4D8091AE030E940B4D81E08093B4
:102300008503809392038091DA03882369F080919A
:10231000A2030E942A4D8091AD030E942A4D109283
:1023200086031092910337CF8091A0030E942A4D1B
:102330008091AF030E942A4D109284031092930360
:102340003ACF80E7890F0E949F0C8091A0030E94E2
:102350000B4D8091AF030E940B4D81E0809384036D
:10236000809393038091DA03882369F08091A1031D
:102370000E942A4D8091AE030E942A4D109285033F
:102380001092920308CF80919F030E942A4D809162
:10239000B0030E942A4D10928303109294030BCF36
:1023A00080E7890F0E949F0C80919F030E940B4D34
:1023B0008091B0030E940B4D81E080938303809352
:1023C00094038091DA03882369F08091A0030E942E
:1023D0002A4D8091AF030E942A4D109284031092DF
:1023E0009303A2CE80919E030E942A4D8091B10357
:1023F0000E942A4D1092820310929503A5CE80E789
:10240000890F0E949F0C80919E030E940B4D80912A
:10241000B1030E940B4D81E080938203809395036A
:102420008091DA03882369F080919F030E942A4DEE
:102430008091B0030E942A4D10928303109294035E
:1024400073CE80919D030E942A4D8091B2030E9419
:102450002A4D109281031092960376CE80E7890F61
:102460000E949F0C80919D030E940B4D8091B203AE
:102470000E940B4D81E080938103809396038091AD
:10248000DA03882369F080919E030E942A4D80918F
:10249000B1030E942A4D10928203109295037BCEC5
:1024A00080919C030E942A4D8091B3030E942A4D83
:1024B00010928003109297037ECE83E7890F0E94CB
:1024C0009F0C80919C030E940B4D8091B3030E944E
:1024D0000B4D10928003109297038091DA038823AA
:1024E00069F080919D030E942A4D8091B2030E9461
:1024F0002A4D10928103109296034DCE80919B033A
:102500000E942A4D8091B4030E942A4D10927F03AD
:102510001092980350CE83E7890F0E949F0C809100
:102520009B030E940B4D8091B4030E940B4D81E0F0
:1025300080937F03809398038091DA03882369F066
:1025400080919C030E942A4D8091B3030E942A4DE2
:102550001092800310929703E7CD80919A030E9416
:102560002A4D8091B5030E942A4D10927E0310924D
:102570009903EACD83E7890F0E949F0C80919A030B
:102580000E940B4D8091B5030E940B4D81E080931A
:102590007E038093990380919B030E942A4D809132
:1025A000B4030E942A4D10927F03109298038091E9
:1025B000DB0381508093DB031092DA0392CD80918C
:1025C000DE03833009F4E6C008F076C0813009F4F8
:1025D00099C0823009F4BAC09091D903C8E7D0E01D
:1025E000992311F0C8E2D0E080911002E82FF0E0CA
:1025F000E75CF44F2081222309F4C9C62091520BD5
:10260000222309F4C4C620910F02222309F4BFC675
:102610008AE49BE00E94084B6B017C01E091100270
:10262000E150FF0BEE0FFF1FEE0FFF1FED5DF44FAC
:10263000608171818281938126E030E040E050E04A
:102640000E942F79C216D306E406F50608F4B8C630
:102650008AE49BE00E94084B6B017C01E091100230
:10266000E150FF0BEE0FFF1FEE0FFF1FED5DF44F6C
:10267000608171818281938125E030E040E050E00B
:102680000E942F79C216D306E406F50608F0C2C6EA
:102690008091D903882309F4B3C6CE0169E070E0C4
:1026A0000E94B37AAB01770F660B770B8FE09BE04C
:1026B0000E947E4B85E096C6843009F447C0853081
:1026C00009F08ACF8091060282590E949F0C60E037
:1026D0008091BD030E94354461E08091BE030E9459
:1026E000354461E08091BF030E94354461E08091F0
:1026F000C0030E94354460E08091C1030E943544CC
:1027000081E021C08091060282590E949F0C60E006
:102710008091BD030E94354461E08091BE030E9418
:10272000354461E08091BF030E94354461E08091AF
:10273000C0030E94354460E08091C1030E9435448B
:102740008091DE038F5F8093DE03CBCC8091060205
:1027500080590E949F0C61E08091BD030E94354426
:1027600060E08091BE030E94354461E08091BF0328
:102770000E94354460E08091C0030E94354461E0CE
:102780008091C1030E9435448091DE038F5F809366
:10279000DE0316CD809106028D580E949F0C61E0E9
:1027A0008091BD030E94354461E08091BE030E9488
:1027B000354460E08091BF030E94354461E0809120
:1027C000C0030E94354461E0B7CF80911002CC2352
:1027D00009F4BCC39091DB03911107C0833009F465
:1027E00052C0A8F5823009F459C09091DB03EEE79E
:1027F000F3E080E02191211103C0891708F459C04A
:102800008F5F8C31B9F780911002833009F4F8C1E1
:1028100008F051C0823009F4B7C2CC2309F462C376
:10282000C7E08091DB03C81708F489C08C1345C347
:1028300080910202843009F44BC308F033C3813025
:1028400008F04BC367E070E080E090E032C3843072
:1028500079F0853051F669E070E080E090E00E9408
:1028600087426E5E7F4F8F4F9F4F6093DB03BDCFDC
:102870006CE070E080E090E00E948742635F7F4FF1
:102880008F4F9F4FF2CF6AE070E080E090E00E94AF
:102890008742675F7F4F8F4F9F4FE7CF6AE070E0BF
:1028A00080E090E00E9487426D5F7F4F8F4F9F4F87
:1028B000DCCFC0E0A8CF843009F4DEC0853009F059
:1028C000ACCFCC2309F46EC0CBE18091DB03C817F9
:1028D000B0F18C1323C080910202833009F43FC011
:1028E00068F4813009F451C0823009F443C06BE1CF
:1028F00070E080E090E00E9487420EC0843021F1B9
:102900008530A9F765E170E080E090E00E948742A1
:102910006A5F7F4F8F4F9F4F6093DB038C2F90E058
:102920008C0102581C4FF80120812223C9F18656E0
:102930009C4FFC0180810E942A4DF80110828091F9
:102940009B0480FFCECB3CCC62E170E080E090E065
:102950000E948742675F7F4F8F4F9F4FDDCF6FE0B1
:1029600070E080E090E00E948742645F7F4F8F4F6D
:102970009F4FD2CF6CE070E080E090E00E948742F1
:10298000615F7F4F8F4F9F4FC7CF69E070E080E05E
:1029900090E00E9487426E5E7F4F8F4F9F4FBCCF6B
:1029A000C15093CFC0E08091DB038C1740F28C13B1
:1029B00022C0809102028330E1F168F4813009F491
:1029C0004EC0823009F440C06BE170E080E090E0DE
:1029D0000E9487420EC0843009F18530A9F763E177
:1029E00070E080E090E00E948742685F7F4F8F4FE9
:1029F0009F4F6093DB038C2F90E08C0102581C4F9B
:102A0000F8012081211136C086569C4FFC0180813F
:102A10000E940B4D81E0F801808391CF6FE070E060
:102A200080E090E00E948742645F7F4F8F4F9F4F0E
:102A3000E0CF6DE070E080E090E00E948742625F4E
:102A40007F4F8F4F9F4FD5CF6BE070E080E090E0DD
:102A50000E948742605F7F4F8F4F9F4FCACF69E0D0
:102A600070E080E090E00E9487426E5E7F4F8F4F63
:102A70009F4FBFCFCF5F97CFCC2309F460C0C9E190
:102A80008091DB03C81708F45ACF8C1321C08091C2
:102A90000202833099F160F4813009F445C082303C
:102AA000C1F169E170E080E090E00E9487420EC0D1
:102AB0008430C9F08530A9F768E170E080E090E0EB
:102AC0000E9487426F5F7F4F8F4F9F4F6093DB0362
:102AD0008C2F90E08C0102581C4FF80120812111AD
:102AE00026CFC150CDCF65E170E080E090E00E943C
:102AF00087426C5F7F4F8F4F9F4FE8CF62E170E05E
:102B000080E090E00E948742695F7F4F8F4F9F4F28
:102B1000DDCF6FE070E080E090E00E948742665F6A
:102B20007F4F8F4F9F4FD2CF6CE070E080E090E0FE
:102B30000E948742635F7F4F8F4F9F4FC7CFC0E098
:102B40008091DB038C1708F4FACE8C1321C080919E
:102B500002028330A1F160F4813009F446C0823072
:102B6000C9F169E170E080E090E00E9487420EC008
:102B70008430D1F08530A9F768E170E080E090E022
:102B80000E9487426F5F7F4F8F4F9F4F6093DB03A1
:102B90008C2F90E08C0102581C4FF80120812223D9
:102BA00009F432CFCF5FCCCF65E170E080E090E0F8
:102BB0000E9487426C5F7F4F8F4F9F4FE7CF62E14C
:102BC00070E080E090E00E948742695F7F4F8F4F06
:102BD0009F4FDCCF6FE070E080E090E00E94874282
:102BE000665F7F4F8F4F9F4FD1CF6CE070E080E0EA
:102BF00090E00E948742635F7F4F8F4F9F4FC6CF09
:102C0000CC2309F460C0C3E18091DB03C81708F44A
:102C100096CE8C1321C080910202833099F160F42A
:102C2000813009F445C08230C1F163E170E080E099
:102C300090E00E9487420EC08430C9F08530A9F729
:102C400062E170E080E090E00E9487426F5F7F4F1A
:102C50008F4F9F4F6093DB038C2F90E08C010258C5
:102C60001C4FF8012081211162CEC150CDCF60E10F
:102C700070E080E090E00E9487426D5F7F4F8F4F51
:102C80009F4FE8CF6EE070E080E090E00E948742C6
:102C90006B5F7F4F8F4F9F4FDDCF6CE070E080E028
:102CA00090E00E948742695F7F4F8F4F9F4FD2CF46
:102CB0006AE070E080E090E00E948742675F7F4FAB
:102CC0008F4F9F4FC7CFC0E08091DB038C1708F474
:102CD00036CE8C1321C0809102028330A1F160F4C2
:102CE000813009F446C08230C9F163E170E080E0D0
:102CF00090E00E9487420EC08430D1F08530A9F761
:102D000062E170E080E090E00E9487426F5F7F4F59
:102D10008F4F9F4F6093DB038C2F90E08C01025804
:102D20001C4FF8012081222309F46ECECF5FCCCF57
:102D300060E170E080E090E00E9487426D5F7F4F2D
:102D40008F4F9F4FE7CF6EE070E080E090E00E94F1
:102D500087426B5F7F4F8F4F9F4FDCCF6CE070E0FF
:102D600080E090E00E948742695F7F4F8F4F9F4FC6
:102D7000D1CF6AE070E080E090E00E948742675F18
:102D80007F4F8F4F9F4FC6CFCC2309F445C0CDE076
:102D90008091DB03C81708F4D2CD8C131CC080913E
:102DA0000202843019F148F4813058F56DE070E08A
:102DB00080E090E00E9487420CC08530B9F76CE05B
:102DC00070E080E090E00E9487426F5F7F4F8F4FFE
:102DD0009F4F6093DB038C2F90E08C0102581C4FB7
:102DE000F80120812111A3CDC150D2CF6BE070E05A
:102DF00080E090E00E9487426E5F7F4F8F4F9F4F31
:102E0000E8CF6AE070E080E090E00E9487426D5F6A
:102E10007F4F8F4F9F4FDDCFC0E08091DB038C173A
:102E200008F48DCD8C131CC080910202843021F1F6
:102E300048F4813060F56DE070E080E090E00E9441
:102E400087420CC08530B9F76CE070E080E090E01C
:102E50000E9487426F5F7F4F8F4F9F4F6093DB03CE
:102E60008C2F90E08C0102581C4FF8012081222306
:102E700009F4CACDCF5FD1CF6BE070E080E090E085
:102E80000E9487426E5F7F4F8F4F9F4FE7CF6AE070
:102E900070E080E090E00E9487426D5F7F4F8F4F2F
:102EA0009F4FDCCF853009F0CDCC6AE070E080E048
:102EB00090E00E9487426093DB038C2F90E08C01AE
:102EC00002581C4FF8012081211131CDC150A9CCED
:102ED00069E070E080E090E0ECCF68E070E080E0D6
:102EE00090E0E7CFC0E08091DB038C1708F427CD9A
:102EF0008C1316C0809102028430F1F038F48130D6
:102F000000F567E070E080E090E006C08530C9F72A
:102F10006AE070E080E090E00E9487426093DB030B
:102F20008C2F90E08C0102581C4FF8012081222345
:102F300009F46ACDCF5FD7CF69E070E080E090E020
:102F4000EBCF68E070E080E090E0E6CF9091DE03A8
:102F500091111AC0833009F454C040F4823009F44E
:102F60005BC062E070E080E090E05AC08630C8F755
:102F700064E070E080E090E00E9487426E5F7F4FE7
:102F80008F4F9F4F6093DE032091DE03E8EBF3E069
:102F900090E08191811102C0291720F49F5F953044
:102FA000C1F781E090911002933009F40EC1D8F579
:102FB000923009F463C1882309F4BFC1C5E0809150
:102FC000DE03C81708F4BBCC8C1312C08091020238
:102FD000833009F4A8C108F4ABC1863008F0A8C159
:102FE00066E070E080E090E00E9487426093DE033C
:102FF000EC2FF0E0E954FC4F8081C1508823F9F2B6
:103000003AC063E070E080E090E00E9487426F5F2A
:103010007F4F8F4F9F4FB6CF63E070E080E090E02E
:103020000E948742AFCF943009F46AC0953019F6F8
:10303000882381F1C5E08091DE03C81708F47FCCB6
:103040008C1311C08091020283508330C0F465E07C
:1030500070E080E090E00E9487426F5F7F4F8F4F6B
:103060009F4F6093DE03EC2FF0E0E954FC4F80812A
:10307000C150882301F38C2F0E94140860CC64E0B7
:1030800070E080E090E00E9487426E5F7F4F8F4F3C
:103090009F4FE7CFC0E08091DE038C1708F44FCC40
:1030A0008C130FC0809102028330A1F0F0F08630C3
:1030B000E0F466E070E080E090E00E948742609378
:1030C000DE03EC2FF0E0E854FC4F8081CF5F8111EC
:1030D000E2CFD1CF65E070E080E090E00E948742CF
:1030E0006F5F7F4F8F4F9F4FEACF64E070E080E0CB
:1030F00090E00E9487426E5F7F4F8F4F9F4FDFCFE0
:10310000882369F1C5E08091DE03C81708F417CC65
:103110008C1311C08091020283508330A8F465E0C3
:1031200070E080E090E00E9487426F5F7F4F8F4F9A
:103130009F4F6093DE03EC2FF0E0E954FC4F808159
:10314000C150882301F397CF64E070E080E090E005
:103150000E9487426E5F7F4F8F4F9F4FEACFC0E044
:103160008091DE038C1708F4EACB8C130FC080919A
:1031700002028330A1F0F0F08630E0F466E070E007
:1031800080E090E00E9487426093DE03EC2FF0E045
:10319000E854FC4F8081CF5F8111E2CF6CCF65E0B6
:1031A00070E080E090E00E9487426F5F7F4F8F4F1A
:1031B0009F4FEACF64E070E080E090E00E94874299
:1031C0006E5F7F4F8F4F9F4FDFCF882339F1C5E070
:1031D0008091DE03C81708F4B2CB8C1311C0809124
:1031E000020283508330A8F465E070E080E090E054
:1031F0000E9487426F5F7F4F8F4F9F4F6093DE0328
:10320000EC2FF0E0E954FC4F8081C150882301F39A
:1032100032CF63E070E080E090E0EACFC0E08091E0
:10322000DE038C1708F48BCB8C130FC08091020245
:103230008330A1F0F0F08630E0F466E070E080E0EA
:1032400090E00E9487426093DE03EC2FF0E0E854A8
:10325000FC4F8081CF5F8111E2CF0DCF65E070E040
:1032600080E090E00E9487426F5F7F4F8F4F9F4FBB
:10327000EACF63E070E080E090E0F4CF882319F1BA
:10328000C5E08091DE03C81708F459CB8C130DC03C
:10329000809102028250843088F466E070E080E021
:1032A00090E00E9487426093DE03EC2FF0E0E95447
:1032B000FC4F8081C150882321F3DDCE63E070E0B4
:1032C00080E090E0EECFC0E08091DE038C1708F440
:1032D00036CB8C131AC080910202833051F0F0F08B
:1032E0008630E0F466E070E080E090E00E94874283
:1032F0000AC065E070E080E090E00E9487426F5F66
:103300007F4F8F4F9F4F6093DE03EC2FF0E0E85428
:10331000FC4F8081CF5F8111D7CFADCE63E070E0ED
:1033200080E090E0E3CF65E070E080E090E05CCE8C
:1033300063E070E080E090E057CEC0E08091DE0373
:103340008C1708F4FCCA8C130FC0809102028330E2
:10335000A1F0C0F08630B0F466E070E080E090E06C
:103360000E9487426093DE03EC2FF0E0E854FC4FAC
:103370008081CF5F8111E2CF7ECE65E070E080E09A
:1033800090E0EECF63E070E080E090E0E9CF911153
:103390006FC12091DF033091E0032130310509F046
:1033A00095C1833009F4B2C108F08BC1813009F4B2
:1033B000B2C1AE01440F551F823009F471C1F4C08F
:1033C0008091D9038823C1F0CE016FE070E00E94A4
:1033D000B37AAB01770F660B770B8FE09BE00E940F
:1033E0007E4B86E0DF91CF911F910F91FF90EF9080
:1033F000DF90CF900C948507CE0165E070E0E7CFB9
:10340000AE015595479555954795052E000C660BD1
:10341000770B4CC98AE49BE00E94084BAB01BC01CE
:10342000E0911002E150FF0BEE0FFF1FEE0FFF1FA8
:10343000ED5DF44F80819181A281B38112E0B69558
:10344000A795979587951A95D1F7481759076A0751
:103450007B0720F58091D903882379F0CE0167E0BE
:1034600070E00E94B37AAB01770F660B770B8FE0A9
:103470009BE00E947E4B84E0B5CFBE01DD0F880B40
:10348000990B0E94037A20E030E040E650E40E946D
:1034900060790E94D279AB01BC01E9CF8AE49BE05C
:1034A0000E94084B6B017C01E0911002E150FF0B80
:1034B000EE0FFF1FEE0FFF1FED5DF44F6081718176
:1034C0008281938123E030E040E050E00E942F7938
:1034D000C216D306E406F506B8F48091D903882312
:1034E00079F0CE0165E070E00E94B37AAB01770F0E
:1034F000660B770B8FE09BE00E947E4B83E072CFE0
:10350000CE0163E070E0F0CF8AE49BE00E94084BBC
:103510008B019C0180911002482F4150550BFA01FC
:10352000EE0FFF1FEE0FFF1FED5DF44F4081518145
:103530006281738176956795579547959091D903E8
:10354000041715072607370710F5992379F0CE01E0
:1035500063E070E00E94B37AAB01770F660B770BE4
:103560008FE09BE00E947E4B82E03CCFBE01DD0FEE
:10357000880B990B0E94037A20E030E040E250E48F
:103580000E9460790E94D279AB01BC01E9CF9923F6
:10359000A1F1833009F448C080F4813041F18230D8
:1035A00001F181E080930202DF91CF911F910F9191
:1035B000FF90EF90DF90CF900895843061F08530D8
:1035C00081F7AE015595479547505109052E000CDE
:1035D000660B770B3DC0AE01559547954350510999
:1035E000F5CFAE0155954795495F5F4FEFCFAE01DF
:1035F00055954795445F5F4FE9CF2091DF033091A8
:10360000E0032130310581F4833039F140F4813019
:1036100049F1AE01440F551F8230C1F2C2CF843050
:1036200039F0853009F0BDCFAE0155954795CECF25
:10363000BE01DD0F880B990B0E94037A20E030E079
:1036400040EC5FE30E9460790E94D279AB01BC013B
:103650008FE09BE00E947E4BA4CFAE01DD0F660B96
:10366000770BF6CFAE01440F551F4C0F5D1FAECF49
:10367000833061F158F48130F1F0823009F094CF59
:10368000AE0155954795495F5F4F0AC0843069F098
:10369000853009F089CFAE015595479547505109BE
:1036A000052E000C660B770B25C0AE01559547958E
:1036B00043505109F5CFAE0155954795445F5F4F93
:1036C000EFCF843039F0853009F06ECFAE015595DB
:1036D0004795E6CFBE01DD0F880B990B0E94037A58
:1036E00020E030E040EC5FE30E9460790E94D279F4
:1036F000AB01BC018FE09BE0DF91CF911F910F9157
:10370000FF90EF90DF90CF900C947E4BAE01DD0FD9
:10371000660B770BEFCFAE01440F551F4C0F5D1FAB
:10372000BFCF8091B603882311F11092B60382E1D6
:1037300090E00E94E14B83E190E00E94E14B84E144
:1037400090E00E94E14B85E190E00E94E14B86E130
:1037500090E00E94E14B1092B60A1092B70A46E937
:1037600050E060E070E08EEA9AE00C947E4B0895A1
:103770008091C5049091C6048130910539F48091FF
:10378000C9049091CA04892B79F00895892B41F5D9
:103790008091C9049091CA04892B11F580919E04EF
:1037A00090919F040197E1F40E94911B0E944809A7
:1037B0000E9490041092B7031092B6038CE180939C
:1037C000DB0385E08093DE030E946C0848E750E04D
:1037D00060E070E089E19BE00E947E4B0C94CA0C93
:1037E00008951092520B1092530B60E084E090E029
:1037F0000E94BE061092CA041092C9041092C0041E
:103800001092DD031092DC031092170B1092180B2C
:103810001092D40A1092D50A1092DA032091D6039E
:103820003091D7038091100281508093DE03109273
:10383000DB032130310509F072C08091DF039091E4
:10384000E003019709F060C00E941C0B0E94D80998
:103850008091C40481110E94B81B10928E0A1092AC
:103860008F0A1092A20A1092A30A1092840A109250
:10387000850A10929B044AE050E060E070E080E925
:103880009AE00E947E4B60E086E10E94354460E051
:1038900088E10E9435441092CA0A1092CB0A8091A6
:1038A000C2049091C3048330910509F470C008F0FC
:1038B00045C08130910509F454C0029709F45CC0F9
:1038C0008091A2049091A304019709F043C084E67B
:1038D00090E00E94E14B83E690E00E94E14B88E497
:1038E00090E00E94E14B81E690E00E94E14B82E68D
:1038F00090E00E94E14B86E090E00E94E14B89E07D
:1039000090E00E94E14B1EC00E941A0C85E090E0FE
:1039100090930102809300020E94CA0C99CF0E94EA
:103920001A0C83E090E09093010280930002809152
:10393000C404811190CF0E94CA0C8FCF07970297C1
:1039400008F0BECF44E650E060E070E088E69AE020
:103950000C947E4B80E690E00E94E14B8FE590E076
:10396000BCCF83E390E00E94E14B84E390E00E94AF
:10397000E14B85E390E0C5CF89E390E00E94E14B05
:103980008AE390E00E94E14B8BE390E0BACF86E3BC
:1039900090E00E94E14B88E390E0B3CF0F931F9338
:1039A0008091D6039091D703019709F049C080E137
:1039B00090E090930102809300028091C504909161
:1039C000C6040297D1F18091C40481110EC0809188
:1039D0009E0490919F04009731F0019731F48091FB
:1039E000210B811102C00E94CA0C6FEF70E088E0C9
:1039F0000E9481446FEF70E089E00E9481444AEFA9
:103A000050E060E070E084E59BE00E947E4B60E067
:103A10008CE00E9435448091C40481110EC00E9444
:103A20009308029780F410E000E020E04091FE0B44
:103A300060E088E290E00E9406051F910F910895D2
:103A400086E090E0B6CF8091CB04882351F010E05F
:103A500000E020E04091FE0B60E081E090E00E94F9
:103A6000060581E00E94E9058091B20B9091B30BAD
:103A7000019719F7809103028823F9F21F910F91A2
:103A80000C945E070F931F938091C9049091CA0410
:103A90009C01235031092230310508F40BC10197F4
:103AA00009F408C18091A604811104C18091A50484
:103AB000811100C18091C4048111FCC00E94B30730
:103AC000882309F4F7C080910E02853009F0F2C016
:103AD0008091C2049091C304009709F037C081E03F
:103AE00090E09093C3048093C2048091C2049091AB
:103AF000C304079751F06FEF70E088E00E948144A3
:103B00006FEF70E089E00E94814410E000E020E067
:103B10004091FE0B60E088E290E00E940605E09193
:103B2000C204F091C3043197E830F10508F0B8C041
:103B30008827E256F24E8F4F0C94C77A461E3C1EE1
:103B4000321E1E1E141E281E0A1EF11D81309105F4
:103B500019F482E090E0C5CF8230910519F483E03A
:103B600090E0BFCF8330910589F48091B70488231A
:103B700081F084E090E0B5CF8091B504882319F0FE
:103B800086E090E0AECF87E090E0ABCF8430910547
:103B900039F48091B604882379F385E090E0A1CFD1
:103BA0008530910549F38630910569F3079719F43B
:103BB00088E090E096CF1092C3041092C2040E9455
:103BC0001A0C8091D903882309F48FCF8091D603F2
:103BD0009091D703019709F088CF81E00E945C0C97
:103BE00084CF85E090E09093CA048093C9048093C9
:103BF0000E024EE551E060E070E08DE398E00E9437
:103C00007E4B0E941A0C60E08DE090E01F910F91B6
:103C10000C94BE061092CA041092C9040E94730547
:103C200060E08CE090E0F2CF1092CA041092C904D8
:103C30000E94730560E08AE090E0E8CF1092CA0429
:103C40001092C9040E94730560E089E090E0DECF25
:103C50001092CA041092C9040E94730560E08BE0C0
:103C600090E0D4CF1092CA041092C9040E94730548
:103C700060E088E090E0CACF1092CA041092C904B4
:103C80000E94730560E087E090E0C0CF1092CA0404
:103C90001092C9040E94730560E086E090E0B6CF00
:103CA0001092CA041092C9040E94730560E085E076
:103CB00090E0ACCF1F910F9108950F931F93CF9376
:103CC0002091C9043091CA042430310509F490C010
:103CD0008091C40481118CC08091B20B9091B30B80
:103CE000009709F06CC18091B904882309F498C049
:103CF00070E060E02330310509F485C08091100246
:103D0000833009F487C008F077C0813009F485C09A
:103D10006EEB70E0823009F476C0C091B7030E9468
:103D20009308C11113C0029708F07FC010E000E0B3
:103D300020E04091FE0B60E081E090E00E940605EB
:103D400081E00E94E90581E08093B7030E94930817
:103D500002970297F0F48EE59BE00E944E4B882379
:103D6000C1F04091FE0B415010E000E020E061E026
:103D700080E990E00E9406051092660B1092670B96
:103D80008091AE04882329F060E08BE590E00E94EA
:103D9000BE068091F40B9091F50B892B09F00AC1B6
:103DA0008091B603811124C08EEA9AE00E944E4BA6
:103DB0008823F1F08091C9049091CA040497C1F05E
:103DC0008091B603811114C080911002833009F4F0
:103DD000CBC008F088C0813009F49EC0823009F45D
:103DE000B0C081E08093B6031092B60A1092B70A71
:103DF000CF911F910F910895843049F064E670E0EF
:103E0000853009F08ACF8DE00E94814486CF62E838
:103E100070E0F9CF60EA70E0F6CF6CED70E0F3CFC0
:103E200060E08DE00E94354478CF8DE890E00E94FC
:103E3000E14B80E990E00E94E14B8EE890E00E9427
:103E4000E14B81E990E00E94E14B82E990E00E9421
:103E5000E14B84E990E00E94E14B809103028823CA
:103E600051F14091FE0B41508091080210E000E0BA
:103E700020E060E0882321F183E990E00E940605BC
:103E80008091AE04882351F060E086E590E00E94C6
:103E9000BE0660E08FE590E00E94BE061092080228
:103EA0004CED55E060E070E08EE59BE00E947E4BBB
:103EB00081E08093B7031092700B1092710B46CF84
:103EC0008FE890E00E9406058091AE04882341F3BC
:103ED00060E086E590E00E94BE0660E088E590E044
:103EE0000E94BE06DDCF843009F451C0853009F050
:103EF00078CF0E9493084091FE0B029710E000E0FB
:103F000020E0029728F480910C0261E0811101C049
:103F100060E086E190E012C00E9493084091FE0BA1
:103F2000029710E000E020E0029728F480910C0254
:103F300061E0811101C060E082E190E00E9406052D
:103F400050CF0E9493084091FE0B029710E000E0D2
:103F500020E0029728F480910C0261E0811101C0F9
:103F600060E083E190E0EACF0E9493084091FE0B6D
:103F7000029710E000E020E0029728F480910C0204
:103F800061E0811101C060E084E190E0D7CF0E9440
:103F900093084091FE0B029710E000E020E00297AA
:103FA00028F480910C0261E0811101C060E085E19C
:103FB00090E0C4CFCF911F910F910C94911B01976A
:103FC00009F016CF61E08DE00E9435440E94911BFC
:103FD000CF911F910F910C944809DF92EF92FF92BD
:103FE0000F931F93CF93DF938DE398E00E944E4B86
:103FF000882341F04EE551E060E070E08DE398E009
:104000000E947E4B8DE398E00E94084B6F3A710549
:104010008105910508F0DDC0C091A904CC23B1F061
:1040200080910E02853089F48091C9049091CA0470
:104030008430910551F00697039738F0C1E08091E4
:10404000BD049091BE04892B09F0C0E08091A604C4
:10405000811104C08091A5048823A9F080910E02EB
:10406000853089F48091C9049091CA048430910507
:1040700051F00697039738F08091BD049091BE04EB
:10408000019709F4C1E08091FF0B8A3B69F48091AC
:10409000C9049091CA04059739F4D1E08091BD0418
:1040A0009091BE04892B09F0D0E08091D903882338
:1040B00009F469C0CC2309F43FC09AE9E92E93E0E2
:1040C000F92E0EE713E0C0E0DD24D394F7018191CF
:1040D0007F01DD2361F1C33050F50E940B4DF801E3
:1040E000D082CF5F0F5F1F4FC83181F78091B2033D
:1040F0000E940B4DC1E0C09396038091B3030E94D0
:104100000B4DC09397038091B4030E940B4DC09355
:1041100098038091B5030E942A4D10929903DF9174
:10412000CF911F910F91FF90EF90DF9008950E9423
:104130002A4DF8011082D5CFDD23E1F08AE9E82E7F
:1041400083E0F82E0EE713E0C0E0D1E0F7018191A3
:104150007F01C33050F40E940B4DF801D083CF5F34
:104160000F5F1F4FCC3191F7DACF0E942A4DF80133
:104170001082F5CFDF91CF911F910F91FF90EF90BB
:10418000DF900C94FC048091BD0360E0D11101C06C
:1041900061E00E94354461E08091BE030E94354495
:1041A00061E08091BF030E94354461E08091C003CB
:1041B0000E94354460E0C11101C061E08091C103FB
:1041C000DF91CF911F910F91FF90EF90DF900C94B2
:1041D0003544C0910E02C33009F495C028F5C130B2
:1041E00009F4B6C0C23009F09ACF8091D903882370
:1041F00009F4ACC0D0E0C0E011E0C33030F0C6300C
:1042000070F08C2F8950833050F0FE01E656FC4F41
:1042100080810E940B4DFE01E258FC4F10832196D5
:10422000CC30D10551F77BCFC43009F449C0C5303B
:1042300009F075CF8091D903882309F437C0D0E005
:10424000C0E011E0EC2FE350E93100F5F0E0882701
:10425000E35DFE4D8F4F0C94C77A502150215021C1
:1042600046214621462150215021502146214621F8
:1042700046215021502150214621462146215021DE
:10428000502150214621462146215021FE01E6566B
:10429000FC4F80810E940B4DFE01E258FC4F1083C1
:1042A0002196CC31D10509F0CDCF39CF85E0DF9112
:1042B000CF911F910F91FF90EF90DF900C94140815
:1042C0008091D9038823E9F0D0E0C0E011E0CC3040
:1042D00048F48C2F8350C93038F02196C531D10570
:1042E000B1F71DCF8C2F8F508330B8F3FE01E65607
:1042F000FC4F80810E940B4DFE01E258FC4F108361
:10430000ECCF84E0D4CF8091D9038823E9F0D0E0CA
:10431000C0E011E08C2FCC3080F4C93080F48350A1
:10432000833068F0FE01E656FC4F80810E940B4D01
:10433000FE01E258FC4F108302C0CF3099F721965E
:10434000C031D10539F7EBCE83E0B1CF82E0AFCFFA
:104350008091D903882399F080919A030E940B4D94
:10436000C0937E0380919B030E940B4DC0937F03FB
:1043700080919C030E940B4DC0938003D0CE81E0BE
:1043800096CF0F931F931092520B1092530B809164
:10439000C9049091CA04039729F48091C004811143
:1043A0000E94F11B61E087E10E94354464E670E001
:1043B00080E090E00E947D4584E090E09093CA0404
:1043C0008093C9048091CB04882341F044E659E1ED
:1043D00060E070E080E49BE00E947E4B0E94911BB5
:1043E0000E9448090E9490041092B7031092B603ED
:1043F0008091BF04882309F459C01092210B1092B8
:10440000220B0E941A0C4EE551E060E070E08DE353
:1044100098E00E947E4B10E000E020E04091FE0B0F
:1044200060E083E490E00E94060520E04091FE0BEE
:1044300060E08FE390E00E94060520E04091FE0BD3
:1044400060E084E490E00E94060540E951E060E00D
:1044500070E089E298E00E947E4B40E456E060E024
:1044600070E08FE198E00E947E4B10E000E020E0D9
:104470004091FE0B60E08CE290E00E94060520E097
:104480004091FE0B60E088E290E00E94060520E08B
:104490004091FE0B60E081E190E00E94060560E043
:1044A0008EE090E01F910F910C94BE068CE18093FA
:1044B000DB0385E08093DE030E946C0848E750E050
:1044C00060E070E089E19BE0CECF0F931F930E94E4
:1044D0001A0C8091CB04882321F01092480B109283
:1044E000490B109245081092460860E087E10E944F
:1044F00035441092CA041092C90488E290E00E94E8
:10450000E14B8CE290E00E94E14B8091BF0481116D
:1045100008C08091D6039091D7030197C9F40E94F7
:10452000000910E000E020E04091FE0B60E081E037
:1045300090E00E9406058091B20B9091B30B892BFD
:1045400071F481E00E94E9051F910F910C94CA0C4F
:1045500086E090E09093010280930002E2CF81E038
:104560000E94E9058091B20B9091B30B019761F71E
:104570000E9493080297029738F70E945E07E4CFE3
:10458000CF93DF9300D000D0CDB7DEB7962F642F46
:1045900091509230C0F40E94234E6C837D838E83B1
:1045A000BE016F5F7F4FCE0104960E945E4A698113
:1045B0007A818B8126960FB6F894DEBF0FBECDBFF1
:1045C000DF91CF9108950E94234E6C837D838E836B
:1045D000BE016F5F7F4FCE0104960E945E4A6A81E2
:1045E0007981E7CF0F931F93CF93DF9310E000E023
:1045F00020E04091FE0B60E084E490E00E9406051C
:104600001092EC0B1092ED0B1092EE0B1092EF0B40
:104610001092AA0B1092AB0B1092AC0B1092AD0B38
:1046200085E080930E020E941A0C1092CA04109228
:10463000C9040E94230CD0E0C0E08E01000F111FBE
:104640000C0F1D1F09511C4F4FEF6091B30480E008
:104650000E94C022F8016083718382832196C53055
:10466000D10559F743E050E060E070E080E09CE065
:10467000DF91CF911F910F910C947E4B0F931F935D
:10468000CF93DF93D0E0C0E08E01000F111F0C0F1D
:104690001D1F09511C4F4FEF6091B30484E10E942C
:1046A000C022F8016083718382832196C530D105D1
:1046B00059F743E050E060E070E080E09CE0DF917B
:1046C000CF911F910F910C947E4B0F931F9380916C
:1046D000C503880F880F8093C50387E00E940C44B0
:1046E000892B29F08091C50382608093C50386E001
:1046F0000E940C44892B29F08091C503816080932E
:10470000C5038091C5038F708093C503482F50E087
:10471000FA01E155FD4F9081992309F4C4C320911A
:10472000C3033091C40394E0220F331F9A95E1F73D
:10473000282B352B3093C4032093C30333272B320C
:10474000310509F43EC02731310509F0ACC321E041
:104750009091C603920F9093C6032091C9043091A3
:10476000CA042730310509F4D6C42830310559F17F
:104770002530310509F024C78B3009F0C4C580917C
:104780000E02843009F4A8C580910E02833009F02E
:10479000E1C58091BD049091BE04892B09F0DAC572
:1047A0008091DE0B9091DF0B892B09F0D3C50E941D
:1047B000B3078111CFC50E94EA5160E08BE390E01E
:1047C000A0C52FEFC5CF8B30D1F48091BD0490915F
:1047D000BE040297E9F580910E028530C9F58091FB
:1047E000DE0B9091DF0B892B99F58CE30E940C4432
:1047F000019771F560E08FEA90E00E94BE0680911B
:10480000C503873009F04FC38091BD049091BE0469
:10481000029709F44EC28091BD049091BE040397A3
:1048200009F060C280910E02853009F05BC2809170
:10483000DE0B9091DF0B892B09F054C28CE30E94B0
:104840000C44019709F04EC260E084E890E046C253
:104850008091BD049091BE040397C9F08091BD047E
:104860009091BE04039731F580910E02843011F5CA
:104870008091DE0B9091DF0B892BE1F48CE30E9499
:104880000C440197B9F460E088E890E0B6CF8091DD
:104890000E02853019F78091DE0B9091DF0B892B8A
:1048A000E9F68CE30E940C440197C1F660E089E8C8
:1048B00090E0A3CF8091BD049091BE04039799F43A
:1048C00080910E02833079F48091DE0B9091DF0BA2
:1048D000892B49F48CE30E940C44019721F460E099
:1048E00087E890E08ACF8091BD049091BE04039741
:1048F00099F480910E02823079F48091DE0B9091D0
:10490000DF0B892B49F48CE30E940C44019721F4BE
:1049100060E086E890E071CF8091BD049091BE0484
:10492000039799F480910E02813079F48091DE0B27
:104930009091DF0B892B49F48CE30E940C44019782
:1049400021F460E085E890E058CF8091BD0490911B
:10495000BE04039799F480910E02853079F480911A
:10496000DE0B9091DF0B019749F48CE30E940C441D
:10497000892B21F485E00E946D5241CF8091BD04C6
:104980009091BE04039789F480910E02843069F4FB
:104990008091DE0B9091DF0B019739F48CE30E943C
:1049A0000C44892B11F484E0E6CF8091BD049091F2
:1049B000BE04039789F480910E02833069F48091DC
:1049C000DE0B9091DF0B019739F48CE30E940C44CD
:1049D000892B11F483E0CFCF8091BD049091BE0468
:1049E000039789F480910E02823069F48091DE0B86
:1049F0009091DF0B019739F48CE30E940C44892BD2
:104A000011F482E0B8CF8091BD049091BE04039769
:104A100089F480910E02813069F48091DE0B9091CF
:104A2000DF0B019739F48CE30E940C44892B11F4BD
:104A300081E0A1CF80910E02823008F038C18091D0
:104A4000BD049091BE048130910509F455C058F021
:104A50008230910509F499C0039709F4DFC081E021
:104A600080930E02CCCE81E090E09093BE048093C0
:104A7000BD0485E080930E026FEF70E088E00E9435
:104A8000814461E08DE00E94354461E08CE00E9449
:104A9000354470E060E089E00E9481448FE390E05B
:104AA0000E94E14B10E000E020E04091FE0B60E04E
:104AB0008FE390E00E94060585EF90E00E94E14BB5
:104AC00086EF90E00E94E14B87EF90E00E94E14B7F
:104AD00088EF90E00E94E14B89EF90E00E94E14B6B
:104AE00020E04091FE0B60E086EF90E00E9406051A
:104AF00060E083E490E081CE82E090E09093BE0499
:104B00008093BD0485E080930E026FEF70E088E033
:104B10000E94814460E08DE00E94354461E08CE0B9
:104B20000E94354470E060E089E00E9481448FE398
:104B300090E00E94E14B10E000E020E04091FE0B8D
:104B400060E08FE390E00E94060585EF90E00E9410
:104B5000E14B86EF90E00E94E14B87EF90E00E94EE
:104B6000E14B88EF90E00E94E14B89EF90E00E94DA
:104B7000E14B20E04091FE0B60E087EF90E00E9467
:104B8000060560E084E490E038CE83E090E0909306
:104B9000BE048093BD0485E080930E026FEF70E049
:104BA00088E00E94814460E08DE00E94354460E02E
:104BB0008CE00E94354470E060E089E00E9481440E
:104BC0008FE390E00E94E14B10E000E020E0409194
:104BD000FE0B60E08FE390E00E94060585EF90E019
:104BE0000E94E14B86EF90E00E94E14B87EF90E05E
:104BF0000E94E14B88EF90E00E94E14B89EF90E04A
:104C00000E94E14B20E04091FE0B60E088EF90E0D5
:104C10000E94060560E085E490E0EFCD84E090E03E
:104C20009093BE048093BD0485E080930E026FEFE5
:104C300070E088E00E94814460E08DE00E9435448D
:104C400060E08CE00E9435446FEF70E089E00E94E4
:104C500081448FE390E00E94E14B10E000E020E00F
:104C60004091FE0B60E08FE390E00E94060585EF27
:104C700090E00E94E14B86EF90E00E94E14B87EFCD
:104C800090E00E94E14B88EF90E00E94E14B89EFB9
:104C900090E00E94E14B20E04091FE0B60E089EF44
:104CA00090E00E94060560E086E490E0A6CD815089
:104CB000D7CE80910E02853009F0ADCD8091DE0B0C
:104CC0009091DF0B892B09F0A6CD8CE30E940C4458
:104CD000019709F0A0CD60E080EB90E01F910F916B
:104CE0000C94BE068091BD049091BE04039799F484
:104CF00080910E02843079F48091DE0B9091DF0B6D
:104D0000892B49F48CE30E940C44019721F460E064
:104D100083E890E0E3CF8091BD049091BE040397B7
:104D200099F480910E02833079F48091DE0B90919A
:104D3000DF0B892B49F48CE30E940C44019721F48A
:104D400060E082E890E0CACF8091BD049091BE04FB
:104D5000039799F480910E02823079F48091DE0BF2
:104D60009091DF0B892B49F48CE30E940C4401974E
:104D700021F460E081E890E0B1CF8091BD04909192
:104D8000BE04039799F480910E02813079F48091EA
:104D9000DE0B9091DF0B892B49F48CE30E940C44CD
:104DA000019721F460E080E890E098CF8091BD0405
:104DB0009091BE040397A1F480910E02853081F496
:104DC0008091DE0B9091DF0B019751F48CE30E94F0
:104DD0000C44892B29F485E01F910F910C942C53DE
:104DE0008091BD049091BE04039789F480910E02D6
:104DF000843069F48091DE0B9091DF0B019739F4D8
:104E00008CE30E940C44892B11F484E0E5CF80915F
:104E1000BD049091BE04039789F480910E02833003
:104E200069F48091DE0B9091DF0B019739F48CE3EC
:104E30000E940C44892B11F483E0CECF8091BD04F5
:104E40009091BE04039789F480910E02823069F438
:104E50008091DE0B9091DF0B019739F48CE30E9477
:104E60000C44892B11F482E0B7CF8091BD0490915E
:104E7000BE04039789F480910E02813069F4809119
:104E8000DE0B9091DF0B019739F48CE30E940C4408
:104E9000892B11F481E0A0CF80910E02853030F48F
:104EA0008F5F80930E021F910F9108958091BD0432
:104EB0009091BE048230910509F49EC028F40197B8
:104EC00009F4E2C085E0EDCF8330910509F44BC0D1
:104ED0000497C1F783E090E09093BE048093BD04F3
:104EE00081E080930E026FEF70E088E00E948144C1
:104EF00060E08DE00E94354460E08CE00E94354423
:104F000070E060E089E00E9481448FE390E00E94BD
:104F1000E14B10E000E020E04091FE0B60E08FE309
:104F200090E00E94060585EF90E00E94E14B86EF3D
:104F300090E00E94E14B87EF90E00E94E14B88EF08
:104F400090E00E94E14B89EF90E00E94E14B20E06D
:104F50004091FE0B60E088EF90E00E94060560E063
:104F600085E490E0BBCE82E090E09093BE04809315
:104F7000BD0481E080930E026FEF70E088E00E9434
:104F8000814460E08DE00E94354461E08CE00E9445
:104F9000354470E060E089E00E9481448FE390E056
:104FA0000E94E14B10E000E020E04091FE0B60E049
:104FB0008FE390E00E94060585EF90E00E94E14BB0
:104FC00086EF90E00E94E14B87EF90E00E94E14B7A
:104FD00088EF90E00E94E14B89EF90E00E94E14B66
:104FE00020E04091FE0B60E087EF90E00E94060514
:104FF00060E084E490E072CE81E090E09093BE04A3
:105000008093BD0480930E026FEF70E088E00E94F1
:10501000814461E08DE00E94354461E08CE00E94B3
:10502000354470E060E089E00E9481448FE390E0C5
:105030000E94E14B10E000E020E04091FE0B60E0B8
:105040008FE390E00E94060585EF90E00E94E14B1F
:1050500086EF90E00E94E14B87EF90E00E94E14BE9
:1050600088EF90E00E94E14B89EF90E00E94E14BD5
:1050700020E04091FE0B60E086EF90E00E94060584
:1050800060E083E490E02ACE1092BE041092BD044A
:1050900081E080930E0270E060E088E00E9481442D
:1050A00061E08DE00E94354461E08CE00E9435446F
:1050B00070E060E089E00E9481448FE390E00E940C
:1050C000E14B10E000E020E04091FE0B60E08FE358
:1050D00090E00E94060585EF90E00E94E14B86EF8C
:1050E00090E00E94E14B87EF90E00E94E14B88EF57
:1050F00090E00E94E14B89EF90E00E94E14B20E0BC
:105100004091FE0B60E085EF90E00E94060560E0B4
:1051100082E490E0E3CD8B3099F580910E028430EB
:10512000B9F080910E02833009F04AC08091DE0B05
:105130009091DF0B019709F043C08CE30E940C446F
:10514000892BF1F560E087E690E00E94BE0618C06A
:105150008091DE0B9091DF0B019719F78CE30E9491
:105160000C44892BF1F69091130280911402923035
:10517000D0F18E3FC0F19150909313020E943E23D4
:105180008091C503873009F08ECE80910E02843065
:1051900009F452C080910E02833009F062C0809100
:1051A000DE0B9091DF0B019709F05BC08CE30E944E
:1051B0000C44892B09F055C060E088E690E08ECD64
:1051C00080910E028230D9F48091DE0B9091DF0B3A
:1051D0000197A9F48CE30E940C44892B81F460E0D0
:1051E00086E690E0B2CF91E090931302823020F0F7
:1051F000815080931402C2CF90931402BFCF80914C
:105200000E02813079F48091DE0B9091DF0B0197D3
:1052100049F48CE30E940C44892B21F460E085E67C
:1052200090E093CF80910E02823020F481E0809351
:105230000E02A6CF8150FBCF8091DE0B9091DF0B49
:10524000019709F0A7CF8CE30E940C44892B09F049
:10525000A1CF809114028E3FB8F48F5F8093140227
:105260001AC080910E028230F1F48091DE0B909191
:10527000DF0B0197C1F48CE30E940C44892B99F455
:1052800060E089E690E02ACD809113028D3F38F4EA
:105290008F5F809313021F910F910C943E238EEF2A
:1052A00080931302DBCF80910E02813079F48091DC
:1052B000DE0B9091DF0B019749F48CE30E940C44C4
:1052C000892B21F460E08AE690E008CD80910E02FF
:1052D000853008F0F7CDE4CD8091BD049091BE04F7
:1052E000892B09F051CA8091DE0B9091DF0B892B3D
:1052F00009F04ACA0E94B307811146CA60E08AE4F5
:1053000090E00E94BE068091C503873009F0CBCDA6
:1053100080910E02843009F4C8C080910E0283305F
:1053200009F0D9C08091BD049091BE04892B09F089
:10533000D2C08091DE0B9091DF0B892B09F0CBC09E
:105340000E94B3078111C7C00E94165260E08AE331
:1053500090E0C4CC80910E02833009F04DC0809162
:10536000BD049091BE04892B09F046C08091DE0BEC
:105370009091DF0B019709F03FC08CE30E940C4431
:10538000892BD1F58091A4048823B1F180912A0260
:10539000853008F080C010922A0280E490E00E94DC
:1053A000E14B4091FF0B4A5010E000E020E060E04C
:1053B00080E490E00E94060580912A0223E2829F09
:1053C000C001112464E670E00E94B37A63526093D6
:1053D000FD0B8091AA049091AB04892B49F0062E15
:1053E000000C770B8091A7049091A8040E94D74EDF
:1053F00060E08DE390E085CF80910E02823008F06E
:1054000052C08091C5049091C604892B09F047C011
:105410008091BD049091BE04892B09F040C081E0C9
:1054200090E09093BE048093BD0485E080930E02CB
:105430006FEF70E088E00E9481448FE390E00E946B
:10544000E14B10E000E020E04091FE0B60E08FE3D4
:1054500090E00E94060585EF90E00E94E14B86EF08
:1054600090E00E94E14B87EF90E00E94E14B88EFD3
:1054700090E00E94E14B89EF90E00E94E14B20E038
:105480004091FE0B60E086EF90E00E94060560E030
:1054900083E490E036CF855080932A028DCF81E05F
:1054A00080930E0230CF8150FBCF8091BD0490914C
:1054B000BE04892B09F031CF8091DE0B9091DF0B78
:1054C000892B09F02ACF0E94B307811126CF60E013
:1054D00089E490E003CC80910E02833009F04EC045
:1054E0008091BD049091BE04892B09F047C0809142
:1054F000DE0B9091DF0B019709F040C08CE30E9416
:105500000C44892BD9F58091A4048823B9F18091AA
:105510002A02803608F450C084E680932A0280E490
:1055200090E00E94E14B4091FF0B4A5010E000E0F8
:1055300020E060E080E490E00E94060580912A026D
:1055400023E2829FC001112464E670E00E94B37AD6
:1055500063526093FD0B8091AA049091AB04892B58
:1055600049F0062E000C770B8091A7049091A804B7
:105570000E94D74E60E08CE390E0B0CB80910E02A9
:10558000853008F48DCC8091C5049091C604892B98
:1055900009F098CC8091BD049091BE04019709F068
:1055A00091CC1092BE041092BD0481E080930E0253
:1055B00070E060E088E07FCD8B5F80932A02BECFF1
:1055C0002430310509F46FCC9091C40491116BCC57
:1055D0002330310599F490911002953009F0FDC007
:1055E00080911002853009F45ECC23E030E090C059
:1055F00091E00EC0855080932A0261C08B3009F083
:1056000087C080919E0490919F04019789F792E052
:10561000809110029817E0F52091C5043091C604DE
:1056200021303105A9F58093050281508093100245
:105630008091D6039091D703019739F48091D903D3
:10564000882319F080E00E945C0C8091C0048823BC
:1056500061F08091D903882341F08091DF0390911C
:10566000E003019711F40E941C0B0E94911B0E9401
:105670009308029730F48091B20B9091B30B892B71
:1056800029F40E94900480E00E94E9050E94D2075C
:105690008091C5049091C604892B91F58091C20434
:1056A0009091C304089761F18091A404882341F18B
:1056B00080912A02853008F09DCF10922A028091B5
:1056C0002A0223E2829FC001112464E670E00E9456
:1056D000B37A63526093FD0B8091AA049091AB045E
:1056E000892B49F0062E000C770B8091A70490912E
:1056F000A8040E94D74E60E08DE390E00E94BE06B1
:105700002091C9043091CA042330310509F468CFCF
:105710008091C503873009F0C6CB80911002853097
:1057200008F041C04091C5045091C6044130510574
:10573000D1F5843019F423303105A9F180930502A5
:105740008F5F809310028091D6039091D7030197C9
:1057500039F48091D903882319F080E00E945C0C11
:105760008091C004882361F08091D903882341F09F
:105770008091DF039091E003019711F40E941C0BCC
:105780000E94911B0E949308029730F48091B20B03
:105790009091B30B892B29F40E94900480E00E9421
:1057A000E9050E94D2078091C5049091C604892B17
:1057B00009F079CB8091C2049091C304089709F451
:1057C00072CB8091A404882309F46DCB80912A02C6
:1057D000803608F4F1CE84E6F0CE8B3009F000CFAD
:1057E00010CF0F931F93CF93DF931092AC0A1092B8
:1057F000AD0A1092E60384E680930702D0E0C0E091
:105800008E01000F111F0C0F1D1F09511C4F4FEF70
:105810006091B30480E00E94C022F801608371832C
:1058200082832196C530D10559F760E088E10E9456
:10583000354443E050E060E070E080E09CE0DF91C0
:10584000CF911F910F910C947E4B0F931F938091DA
:10585000C9049091CA04069709F4F7C08091C7045F
:105860008111F3C060E082E090E00E94BE0680916A
:10587000C2049091C304089749F460E085E090E089
:105880000E94BE061092C3041092C2048EE890E0FB
:105890000E94E14B80E990E00E94E14B8DE890E0AE
:1058A0000E94E14B8FE890E00E94E14B81E990E09B
:1058B0000E94E14B82E990E00E94E14B84E990E094
:1058C0000E94E14B83E990E00E94E14B81E08093EC
:1058D000080280910302882311F10E949308029725
:1058E000F0F08091C9049091CA040697C1F08091AC
:1058F000C404811114C04091FE0B415010E000E03F
:1059000020E060E081E990E00E9406058091AE040D
:10591000882329F060E08DE590E00E94BE060E9499
:10592000911B0E9448090E9490048091C704811134
:1059300008C01092C6041092C5041092CA041092B6
:10594000C9040E94F2078091C00481110E94F11BDA
:1059500081E090E00E94E14B8091AE04882329F021
:1059600060E086E590E00E94BE0688E290E00E943A
:10597000E14B8CE290E00E94E14B86E090E00E94D7
:10598000E14B80E390E00E94E14B89E390E00E94CC
:10599000E14B86E390E00E94E14B81E190E00E94C0
:1059A000E14B10E000E020E04091FE0B60E081E17F
:1059B00090E00E9406051092C8040E94F12B1092FC
:1059C000170B1092180B1092520B1092530B10924F
:1059D000480B1092490B10924508109246081092FD
:1059E000CA0A1092CB0A1092C00A1092C10A809182
:1059F000C5049091C604892B71F480919E04909106
:105A00009F040197B1F58091D6039091D703019738
:105A100049F50E9400091092EC0B1092ED0B1092C8
:105A2000EE0B1092EF0B1092AA0B1092AB0B109290
:105A3000AC0B1092AD0B40E65AEE60E070E085E1F1
:105A400098E01F910F910C947E4B83E490E00E94AC
:105A5000E14B8FE390E00E94E14B84E490E00E94F0
:105A6000E14B05CF80E190E090930102809300022A
:105A7000D2CF1092210B1092220B1092D40A1092C6
:105A8000D50A0E94230C0E949308029730F080915F
:105A9000D6039091D703019729F383E090E0E4CFF8
:105AA0000F931F93CF93DF931F921F92CDB7DEB753
:105AB0001A828FEF89838091620A9091630ADC01D8
:105AC000ED91FC910084F185E02D1995892B09F465
:105AD00089C081E08A838091620A9091630ADC0127
