:100000000C947C020C94AD020C94AD020C94AD02E5
:100010000C94AD020C94AD020C94AD020C94AD02A4
:100020000C94AD020C94AD020C94AD020C94AD0294
:100030000C94AD020C94AD020C94AD020C94AD0284
:100040000C94AD020C94AD020C94AD020C94AD0274
:100050000C94AD020C94AD020C94AD020C94715949
:100060000C94AD020C94A75A0C947D5A0C94AD02DA
:100070000C94AD020C94AD020C94AD020C94AD0244
:100080000C94AD020C94AD020C94AD020C94AD0234
:100090000C94535A0C94295A0C94AD020C94D15AD6
:1000A0000C94AD020C94AD020C94AD020C94AD0214
:1000B0000C94AD020C94AD020C94AD020C94AD0204
:1000C0000C94AD020C94AD020C94AD020C94AD02F4
:1000D0000C94AD020C94AD020C94FF590C94D559BC
:1000E0000C94AD020C94F04D0C94FD4D0C941F3407
:1000F0000C94D6320C9455530C94C74D0C946B5100
:100100000C9462550C9406570C946D4E0C945C53F1
:100110000C94024E0C9477500C94391E0C9484501D
:100120000C94C64E0C94CF020C94041E0C942851CF
:100130000C9484530C94B4530C946C4E0C944F5305
:100140000C947B320C94FD540C94761F0C94FE4D51
:100150000C94714E0C9464530C949A1D0C94BF3300
:100160000C9419060C945E530C940D1F0C941B50A8
:100170000C94A31E0C94604E0C94C7500C94251D37
:100180000C9431530C943F530C943A530C94625397
:100190000C9414500C94B74E0C94AD3D0C94814FBC
:1001A0000C94CB4D0C945A530C94E73D0C9466532D
:1001B0000C9445530C9439340C94BD4D0C94CF1DC4
:1001C0000C9447530C946E1E0C9451530C949E53F4
:1001D0000C945A3C0C94DC4D0C94E7090C94E954B3
:1001E0000C9490330C94344F0C9476550C94651DFC
:1001F0000C94E36A0C94F84D0C94DC540C94FC3C85
:100200000C94D2090C94CF4D0C94B73E0C9410066C
:100210000C943C530C94D84D0C9483500C94F35490
:100220000C9407550C9458530C9434530C94CC50A4
:100230000C94C8020C94EE330C940F550C94EA3DC8
:100240000C94664E0C9448500C94F14F0C94620937
:100250000C94F44D0C9419330C942D530C940150C0
:100260000C94CB020C94CA500C9435550C944E341B
:100270000C94D24D0C9428530C944D530C94E4548C
:100280000C9487500C94A6320C94E64D0C9469099A
:100290000C94E84E0C9421550C9441090C9449534C
:1002A0000C94DA4E0C94B71C0C944F480C942B55BC
:1002B0000C9495090C9457330C94411F0C94585589
:1002C0000C94D81E0C9444550C9437530C94323231
:1002D0000C94BD090C94C34D0C945A340C944153A6
:1002E0000C9460320C94F24F0C94033C0C944B53DE
:1002F0000C946C550C945B090C94E81C0C94A909A3
:100300000C9417550C944E550C9424530C9470096E
:100310000C946E4E0C94EA4D0C94E24D0C944353A5
:100320000C94553C00102030011121310212223270
:1003300003132333041424340515253506162636F5
:1003400036261606352515053424140433231303E5
:100350003222120231211101302010003738393A8F
:100360003B3B3A39383700191830011A172F021B56
:10037000162E031C152D041D142C051E132B061FF1
:10038000122A072011290821102809220F270A23E1
:100390000E260B240D25000000006410B71DC82098
:1003A0006E3BAC30D9269041DC76F4516B6B5861D2
:1003B000B24D3C7105502083B8ED44930FF0E8A393
:1003C000D6D68CB361CBB0C2649BD4D2D38678E24C
:1003D0000AA01CF2BDBD00002100240027002A0055
:1003E0002D003000330001010000040107010A0163
:1003F00000002200250028002B002E0031003400D0
:1004000002010000050108010B010000200023008B
:10041000260029002C002F003200000100000301FB
:100420000601090105050505070508080808020277
:1004300002020A0A0808040404040101010101017E
:1004400001010303030303030303040707070C0C61
:100450000C0C0C0C0C0C0202020206060606060628
:1004600006060B0B0B0B0B0B0B0B010210202008CD
:1004700008102040102040800201020108040201FF
:10048000010204081020408080402010080402016E
:1004900080040201804020100804020108040201C7
:1004A000010204081020408001020408102040804E
:1004B00000000A0B02090C0D0E08070304010000DE
:1004C000000000000000000000000000000000002C
:1004D00000000000000000000000000012111000E9
:1004E000000000000000000000000000000000000C
:1004F000000000000000E36A11241FBECFEFD1E22C
:10050000DEBFCDBF00E00CBF12E0A0E0B2E0E6E14C
:10051000F2EF00E00BBF02C007900D92A63CB107BE
:10052000D9F72CE0A6ECB2E001C01D92A43AB207C4
:10053000E1F712E0CCE7D2E000E006C02197010924
:10054000802FFE010E94D077CB37D10780E00807CB
:10055000A9F70E941B6E0C9409790C9400009091ED
:100560001303E82FF0E080912003882349F09923BA
:1005700021F0E05CFC4F84910895EC5DFC4FFBCFD3
:10058000992319F0EF59FC4FF6CFE45AFC4FF3CF03
:1005900090E080E00895FC018585968508950F938D
:1005A0001F93CF93DF9300D0CDB7DEB7AB01198295
:1005B0001A821B82DC01ED91FC910190F081E02D0B
:1005C00000E010E020E0BE016F5F7F4F19950F90B3
:1005D0000F900F90DF91CF911F910F910895CF93BE
:1005E000DF93C2E0D1E088818F7D888361E08DE078
:1005F0000E94FF532E9A88818F7B8883E3EFF4E07B
:1006000010861186E9EEF4E010861186DF91CF9115
:100610000895CF93C82F84E0C53070F10E94AF02D7
:1006200060E00E94FF5381E08093060383E00E9414
:10063000AF0260E00E94FF5381E08093050382E0F7
:100640000E94AF0260E00E94FF5381E080930403A8
:1006500081E00E94AF0260E00E94FF5381E080933E
:10066000030380E00E94AF0260E00E94FF5381E03C
:1006700080930203CF9108950E94AF0261E00E942F
:10068000FF5310920603C43089F283E00E94AF0248
:1006900061E00E94FF5310920503C33081F282E0B3
:1006A0000E94AF0261E00E94FF5310920403C23027
:1006B00079F281E00E94AF0261E00E94FF53109244
:1006C0000303C111CECF80E00E94AF0261E00E941F
:1006D000FF5310920203CECF1092E20284E6809381
:1006E00001021092DF0245E050E060E070E085E733
:1006F00095E00C94895E0F931F93CF93DF938091C5
:1007000020038823A9F006EE12E0C0E0D1E08C2F90
:100710000E94AF020E94C453F801D1938F01CF5FB2
:10072000CC31A9F7DF91CF911F910F910C94B7565F
:1007300085E0DF91CF911F910F910C940903CF9326
:10074000DF9300D01F921F92CDB7DEB780912003B8
:10075000882309F4FAC08DE995E00E94595E882348
:1007600009F45EC085E0E2E3F2E0DE01119601905B
:100770000D928A95E1F780913303909134030197AC
:1007800031F48AE089838A838B838C838D83809183
:1007900007039091E502992309F46CC08C3178F439
:1007A0000E94AF020E94C453811102C00E94B7563A
:1007B000E0910703F0E0EA51FD4F81E08083E09192
:1007C000070280910703E33009F44CC058F4E2308B
:1007D00009F44CC0843008F040C0EC0FFD2FF11D2F
:1007E000408130C0E430B9F1E530A1F78C3148F1F7
:1007F0001092E5028BE1809307038091330390917F
:1008000034030197A9F41092A5051092A6058091D2
:10081000E502882329F0809107038F5F8093070307
:100820000F900F900F900F900F90DF91CF91089540
:100830004AE550E060E070E08DE995E00E94895E55
:10084000E6CF4D8184E0489FA0011124052E000CC5
:10085000660B770BF1CF863118F01092E502CDCF01
:100860004C81F0CF4B818031C0F7ECCF4A818B3087
:10087000A0F7E8CF8C3150F40E94AF020E94BB5623
:10088000E0910703F0E0EA51FD4F108280910703E9
:10089000811112C081E08093E5024AE550E060E0FA
:1008A00070E08DE995E00F900F900F900F900F90F2
:1008B000DF91CF910C94895E815080930703209142
:1008C00033033091340390910702933051F160F477
:1008D000923089F12130310511F4853070F04CE10E
:1008E00050E060E070E0DDCF943089F0953091F712
:1008F0002130310539F48C3128F41092A50510927D
:10090000A6058ECF4CE050E060E070E0CACF213009
:10091000310511F4873188F340E150E060E070E088
:10092000C0CF2130310511F4813138F344E150E07A
:1009300060E070E0B6CF2130310511F48C30E8F280
:1009400048E150E060E070E0ACCF80910702833076
:10095000A9F060F4823081F081E00F900F900F9049
:100960000F900F90DF91CF910C940903843041F0E8
:10097000853091F785E0F1CF82E0EFCF83E0EDCFD6
:1009800084E0EBCF0E94AD56E6EEF2E0119283E0F8
:10099000E230F807D9F7089580912003882321F0E9
:1009A0000E94C204109207030895FF920F931F93B1
:1009B000CF93DF938BE195E00E94595E882341F04D
:1009C0004EE551E060E070E08BE195E00E94895EC9
:1009D0008BE195E00E94135E6F3A710581059105E8
:1009E00008F0DAC0C091CF03CC23B1F080910802A7
:1009F000853089F480911C0390911D03843091050A
:100A000051F00797039738F0C1E080912903909146
:100A10002A03892B09F0C0E080911803811104C0DA
:100A2000809119038823A9F080910802853089F408
:100A300080911C0390911D038430910551F007971C
:100A4000039738F08091290390912A03019709F4C4
:100A5000C1E08091DE048A3B69F480911C0390918F
:100A60001D03069739F4D1E08091290390912A0360
:100A7000892B09F0D0E080912003882309F45DC020
:100A8000CC23C1F106EE12E0C0E0FF24F3948C2FDA
:100A9000DD2349F1C33038F50E94AF020E94C453F0
:100AA000F801F082CF5F0F5F1F4FC83181F70EEF63
:100AB00012E0D1E08C2F0E94AF020E94C453F801D3
:100AC000D1938F01CF5FCB31A9F78BE10E94AF02A9
:100AD0000E94E15310920103DF91CF911F910F917A
:100AE000FF900C94B7560E94AF020E94E153F801A8
:100AF0001082D8CFDD23D1F006EE12E0C0E0D1E0C5
:100B00008C2FC33060F40E94AF020E94C453F801DE
:100B1000D083CF5F0F5F1F4FCC3191F7DDCF0E94A5
:100B2000AF020E94E153F8011082F3CFDF91CF9121
:100B30001F910F91FF900C94C20480E0DD2321F1FE
:100B40000E94AF0260E00E94FF5381E00E94AF026A
:100B500061E00E94FF5382E00E94AF0261E00E94C8
:100B6000FF5383E00E94AF0261E00E94FF5384E0E4
:100B7000CC2371F00E94AF0260E0DF91CF911F9112
:100B80000F91FF900C94FF530E94AF0261E0DBCF06
:100B90000E94AF0261E0F1CF80910802833009F436
:100BA00078C060F4813009F4B5C0823009F493C094
:100BB000DF91CF911F910F91FF900895843009F438
:100BC00046C08530A9F780912003882309F437C0F7
:100BD000D0E0C0E011E09C2FEC2FE350E93100F5AC
:100BE000F0E08827E950FA4F8F4F0C94D077190620
:100BF0001906190610061006100619061906190618
:100C00001006100610061906190619061006100619
:100C10001006190619061906100610061006190600
:100C2000892F0E94AF020E94C453FE01EA51FD4F7A
:100C300010832196CC31D10509F0CDCF4DCF85E081
:100C4000DF91CF911F910F91FF900C940903809138
:100C500020038823E1F0D0E0C0E011E08C2FCC30FD
:100C600048F49DEF9C0FC93038F02196C531D1056D
:100C7000A9F732CF9C2F9F509330B8F30E94AF0258
:100C80000E94C453FE01EA51FD4F1083EECF84E071
:100C9000D7CF809120038823E1F0D0E0C0E011E0BD
:100CA0008C2FCC3078F4C93078F49DEF9C0F9330C2
:100CB00058F00E94AF020E94C453FE01EA51FD4F5A
:100CC000108302C0CF30A9F72196C031D10541F77A
:100CD00003CF83E0B5CF809120038823C9F0D0E013
:100CE000C0E011E08C2FC33030F0C63060F097EFD9
:100CF0009C0F933040F00E94AF020E94C453FE014B
:100D0000EA51FD4F10832196CC30D10559F7E4CE3E
:100D100082E096CF809120038823A9F0D0E0C0E044
:100D200011E08C2F8350833048F08C2F0E94AF024B
:100D30000E94C453FE01EA51FD4F10832196C63034
:100D4000D10579F7C9CE81E07BCFFF920F931F9336
:100D5000CF93DF93EC01F62E08811981C8010E9420
:100D60000577F81621F06F2DC8010E940D77CE018E
:100D7000DF91CF911F910F91FF900895E9EBF7E07C
:100D80001086118610920A031092090370E060E049
:100D90008BE00C94A45490910D029923E9F090916A
:100DA0000F029923C9F020911C0330911D032430B8
:100DB000310591F090910E02992319F023303105FD
:100DC00059F490910A03981749F080930A03682F09
:100DD00070E08BE00C94A4540C94BE0608958091AE
:100DE0002703909128038230910581F038F4019710
:100DF00099F0809123039091240308958330910505
:100E000041F00497B1F783E090E0089581E090E02D
:100E1000089582E090E0089590E080E00895809148
:100E20003103909132038130910591F1029731F5B0
:100E300081E090E0909334038093330380912D03FD
:100E400090912E038130910541F0029731F180910C
:100E5000350390913603019701F1109230031092FF
:100E60002F0380913303909134030197E9F480E1DB
:100E700090E09093050280930402089580913503D9
:100E8000909136030197A1F20E94EF06029780F637
:100E90001092340310923303D1CF81E090E090930D
:100EA000300380932F03DDCF83E090E0E2CFCF9338
:100EB000DF9380910302813418F481E4809303026C
:100EC00080912003882309F4BEC1809107038C31EF
:100ED00050F1883308F06BC0C7E3C81B80911C0336
:100EE00090911D03049709F075C00E94BE068C2FD7
:100EF0000E94AF020E94BB56EC2FF0E0EA51FD4F7A
:100F000010828091070340E550E060E070E0873395
:100F100009F08FC11092D4051092D5051092E50208
:100F20001092070344C00E94AF020E94C453811173
:100F300002C00E94B756C0910703EC2FF0E0EA51BF
:100F4000FD4F81E0808380910302805BC731A0F474
:100F500080910302885DC13178F480910302825E42
:100F6000CC3050F4809103028C5EC53028F4CC2341
:100F700029F080910302865F0E94CB06CF5FC09369
:100F80000703CC31B9F44AE550E060E070E08CEC46
:100F900095E00E94895E809133039091340301971C
:100FA00031F488E090E09093050280930402DF9191
:100FB000CF9108954091040250910502440F551FAE
:100FC000440F551F70E060E08CEC95E0DF91CF910D
:100FD0000C94895E80913303909134032091070231
:100FE000253018F48130910511F0892B51F48C2FA4
:100FF0000E94AF020E94BB56EC2FF0E0EA51FD4F79
:1010000010828091330390913403009709F1019786
:1010100071F6C091070380910702833009F48EC0F6
:10102000A8F5823009F4BEC0809103020E94CB066D
:10103000C23309F0E8C01092D4051092D505109281
:10104000E50284E080930703DF91CF910C940F07B2
:1010500080910703873309F0E2C044E050E060E08C
:1010600070E08DE995E00E94895E1092D40510929F
:10107000D50581E08093E502109207030E940F07D7
:1010800080910302DF91CF910C94CB06843011F153
:10109000853051F6D0910302D75EC73389F41092A0
:1010A000A5051092A6051092D4051092D5051092B0
:1010B000E5028BE1809307030E940F078D2FE2CF9B
:1010C0001092D4051092D50581E08093E50287E364
:1010D0008C1BF0CFC03279F41092D4051092D50554
:1010E0001092E50286E1809307030E940F0780912A
:1010F0000302825EC7CFC13250F01092D405109225
:10110000D50581E08093E50287E38C1BECCF40910D
:10111000040250910502440F551F440F551F70E003
:1011200060E08CEC95E00E94895E809107038F5F00
:101130008093070380910302845FA4CFC63279F4C1
:101140001092D4051092D5051092E50280E18093AB
:1011500007030E940F0780910302865F93CFC73277
:1011600050F01092D4051092D50581E08093E502ED
:1011700087E38C1BECCF4091040250910502440F91
:10118000551F440F551F70E060E08CEC95E00E9405
:10119000895E809107038F5F80930703809103022C
:1011A0008C5E70CFCB3279F41092D4051092D505B5
:1011B0001092E5028BE0809307030E940F07809155
:1011C00003028B5F5FCFCC3250F01092D4051092A7
:1011D000D50581E08093E50287E38C1BECCF40913D
:1011E000040250910502440F551F440F551F70E033
:1011F00060E08CEC95E00E94895E809107038F5F30
:1012000080930703A8CFC33350F01092D4051092F7
:10121000D50581E08093E50287E38C1B13CF4091D5
:10122000040250910502440F551F440F551F70E0F2
:1012300060E08CEC95E00E94895E809107038F5FEF
:1012400080930703B4CE80911C0390911D03C1E0ED
:10125000049709F4C2E0E0910803EA3008F0A7CE51
:10126000F0E08827E95CF64F8F4F0C94D077410966
:101270005B096209690970099509A909BD09D209C3
:10128000E70980910302865F0E94CB0681E00E94FD
:10129000090388E7C89FA0011124052E000C660BE6
:1012A000770B8CEC95E00E94895E809108038F5F3C
:1012B000809308037CCE809103028C5E0E94CB0653
:1012C00082E0E5CF80910302825E0E94CB0683E03C
:1012D000DECF80910302885D0E94CB0684E0D7CFE9
:1012E00080910302805B0E94CB0685E00E94090387
:1012F00080910702853069F480911C0390911D0351
:10130000049739F01092D4051092D5051092080375
:101310004ECE85E08093080388E7C89FA001112482
:10132000052E000C660B770B4FCE80910302885D73
:101330000E94CB0684E00E9409038091070284305A
:1013400031F480911C0390911D030497D9F686E037
:10135000E1CF80910302825E0E94CB0683E00E946F
:10136000090380910702833031F480911C0390912E
:101370001D03049739F687E0CDCF809103028C5E80
:101380000E94CB0682E00E9409038091070282300E
:1013900039F480911C0390911D03049709F0B2CF9A
:1013A00088E0B8CF80910302865F0E94CB0681E07F
:1013B0000E94090380910702813009F06ACF809171
:1013C0001C0390911D03049709F463CF9BCF80E029
:1013D0000E94090397CF0F931F93CF93DF938091C0
:1013E000070290912003992309F498C0833009F4EF
:1013F0005BC010F506EE12E0C0E0D1E08230D9F11A
:1014000006EE12E0C0E0D1E08C2FC53068F50E94F6
:10141000AF020E94C453F801D083CF5F0F5F1F4F0C
:10142000CC3191F70E94B75684E080930703DF9197
:10143000CF911F910F910895843009F452C006EEA8
:1014400012E0C0E0D1E08530D9F68C2F0E94AF02C7
:101450000E94C453F801D1938F01CF5FCC31A9F71B
:101460000E94B7568BE1E1CF0E94AF020E94E15388
:10147000F8011082D2CF8C2FCC3078F40E94AF02CA
:101480000E94C453F801D083CF5F0F5F1F4FCC3150
:1014900091F70E94B7568BE0C8CF0E94AF020E941E
:1014A000E153F8011082F0CF06EE12E0C0E0D1E087
:1014B0008C2FC13178F40E94AF020E94C453F8010E
:1014C000D083CF5F0F5F1F4FCC3191F70E94B7568B
:1014D00080E1ABCF0E94AF020E94E153F80110827D
:1014E000F0CF06EE12E0C0E0D1E08C2FC73178F4E7
:1014F0000E94AF020E94C453F801D083CF5F0F5FF8
:101500001F4FCC3191F70E94B75686E18ECF0E94D3
:10151000AF020E94E153F8011082F0CF833091F0C6
:1015200048F4823069F081E0DF91CF911F910F91F3
:101530000C940903843041F08530A9F785E0F4CF9D
:1015400082E0F2CF83E0F0CF84E0EECF20911C0365
:1015500030911D03A901435051094230510518F043
:101560002630310511F4882399F1909107022091DA
:101570000602921303C0811118C008952917A8F418
:1015800081E08093E50244E250E060E070E0933057
:10159000D9F070F44EE150E060E070E09230A1F0DC
:1015A00049E150E060E070E00FC01092E502EBCF3F
:1015B0004DE250E060E070E0943031F04CE350E0F8
:1015C00060E070E0953061F78DE995E00C94895EFC
:1015D000089580911E0390911F038130910539F485
:1015E00080911C0390911D03892B79F00895892B1C
:1015F000A1F580911C0390911D03892B71F58091B9
:10160000350390913603019741F50E94CC04109266
:101610002305109224058091120381111EC0809130
:10162000330390913403019789F40E940F0780914E
:101630002003882349F0809133039091340301976C
:1016400019F480E00E94A60A0C94570786E090E007
:101650009093050280930402EACF08950F931F939D
:10166000CF93DF9300D000D0CDB7DEB78FEF9FEFE1
:10167000DC0189839A83AB83BC8310E000E01E8386
:101680000D83BE016B5F7F4FCE0101960E949C5E71
:10169000BE016A5F7F4FCE0101960E949C5E0F5F84
:1016A0001F4F0132110559F78EE190E09E838D8323
:1016B000BE016B5F7F4FCE0101960E949C5EBE0112
:1016C0006A5F7F4FCE0101960E949C5E83E090E0AE
:1016D0009E838D83BE016B5F7F4FCE0101960E947A
:1016E0009C5EBE016A5F7F4FCE0101960E949C5EA8
:1016F00069817A818B819C816095709580959095A8
:1017000026960FB6F894DEBF0FBECDBFDF91CF9106
:101710001F910F910895EF92FF920F931F93CF9314
:10172000DF9300D000D0CDB7DEB70E942E0B6983C7
:101730007A838B839C83CE0101967C010CEF1FE0A2
:101740001E830D83F70161917F01CE0105960E94F2
:10175000A5060F5F1F4F0115F0E11F0789F72696B9
:101760000FB6F894DEBF0FBECDBFDF91CF911F91B2
:101770000F91FF90EF9008950F931F93CF93DF93F6
:101780001F921F92CDB7DEB710E000E01A830983E5
:1017900060E0CE0101960E94A5060F5F1F4F0E313B
:1017A0001105A1F70E948B0B0F900F90DF91CF9145
:1017B0001F910F910895CF93DF931F921F92CDB782
:1017C000DEB78EE190E09A83898360E0CE010196D6
:1017D0000E94A5068FE190E09A83898360E0CE01A4
:1017E00001960E94A50680E290E09A83898360E0DA
:1017F000CE0101960E94A5060E948B0B0F900F90C0
:10180000DF91CF9108958091D1039091D2030197F8
:10181000029710F40C94085208958091D10390918E
:10182000D2030197029738F48091DE04082E000C51
:10183000990B0C946D5108958091D1039091D2032E
:101840000197029798F48091CA039091CB03892B5A
:1018500059F08091CC039091CD03843F21E0920711
:1018600018F064E00E9492510E9408521092CE0338
:101870001092D00308958091CA039091CB03892BD5
:10188000D9F18091CC039091CD03843F21E0920760
:1018900098F121E02093D0032091D1033091D2031D
:1018A0002150310922303105F8F42091CF0365E051
:1018B000211101C066E00E9492516091DC04062E65
:1018C000000C770B8091CC039091CD030E94E151E5
:1018D00061E08091CC039091CD030E94B9510E94A8
:1018E000085281E08093300440E25EE460E070E002
:1018F0008FED94E00C94895E08952091D10330918E
:10190000D203215031092230310518F464E00C94DF
:10191000925108958091D602882311F11092D60237
:1019200082E190E00E947D0C83E190E00E947D0CBA
:1019300084E190E00E947D0C85E190E00E947D0CA6
:1019400086E190E00E947D0C109287051092880538
:1019500046E950E060E070E08FE795E00C94895E26
:101960000895CF93C82F80910702823020F08430F1
:10197000C8F08630F0F081E290E00E947D0CCC232C
:1019800029F180911A0390911B0382309105C1F0D7
:1019900083309105C1F00197C9F482E390E0CF91C3
:1019A0000C947D0C81E290E00E947D0C8DE190E032
:1019B000E4CF8DE190E00E947D0C80E290E0DDCFED
:1019C00087E390E0ECCF87E491E0E9CFCF910895F1
:1019D0008F929F92BF92CF92DF92EF92FF920F93DE
:1019E0001F93CF93DF93CDB7DEB72C970FB6F89444
:1019F000DEBF0FBECDBFE091D103F091D20331978E
:101A00003297D0F54B300CF04AE0F42E3AEB431706
:101A100014F43AEBF32EB62E6C018F2C0F2C000C25
:101A200099082223D9F16AEB7FEF0E94E1516E2DD4
:101A3000C6010E94B95180EF89838AEA8A838CE0CB
:101A40008B838AE08C83CD82DE82FF829886098731
:101A50001A871B8685E58C874CE050E0BE016F5FDE
:101A60007F4F81E394E00E94714E65E0B11001C0A8
:101A700066E0C6010E9492512C960FB6F894DEBF24
:101A80000FBECDBFDF91CF911F910F91FF90EF90CF
:101A9000DF90CF90BF909F908F900895B4010E94E7
:101AA000E1516E2DC6010E94B951DFCFEF920F9325
:101AB0001F93909102029817F9F08430C1F40E94AC
:101AC000EF064091DD04EE24E39410E000E020E016
:101AD00061E00297A8F08AE691E00E94E80C44E6F3
:101AE00050E060E070E083E995E00E94895E8091BB
:101AF00002028F5F809302021F910F91EF90089571
:101B00008CE390E0EACFEF920F931F938091D50280
:101B1000882381F10E94EF06029790F589E491E015
:101B20000E947D0C8CE491E00E947D0C8DE491E09C
:101B30000E947D0C81E00E94B10C80911C03909169
:101B40001D0381309105B1F00497A1F08091E0026E
:101B5000811110C081E190E00E947D0CEE24E3949D
:101B600010E000E020E04091DD0460E081E190E0E1
:101B70000E94E80C1092D5021F910F91EF900895EA
:101B80008FE890E00E947D0C80E990E00E947D0C3F
:101B900080911C0390911D038430910501F54091C3
:101BA000DD044150EE24E39410E000E020E060E02A
:101BB00084E990E00E94E80C80911C0390911D0341
:101BC0000497C1F248EE56E060E070E081E196E0F3
:101BD0000E94895E10920F0610921006CBCF0197DB
:101BE00059F34091DD044150EE24E39410E000E00D
:101BF00020E060E082E990E0DDCF80911E039091CB
:101C00001F038130910539F480911C0390911D03CD
:101C1000892B79F00895892B29F580911C039091E7
:101C20001D03892BF9F480913503909136030197B8
:101C3000C9F40E948A0C0E94830D81E00E94B10CBD
:101C40008CE18093070385E0809308030E947B0367
:101C500048E750E060E070E08CEC95E00E94895E1F
:101C60000C9457070895EF920F931F93CF93C82FAB
:101C70004091DD0480910702833020F0853050F1DF
:101C8000853089F1EE24E39408EE13E02C2F61E017
:101C900081E290E00E94E80CCC23B9F080911A0315
:101CA00090911B038230910539F18330910571F1D8
:101CB000019759F4EE24E39404E813E021E040E0B6
:101CC00061E082E390E00E94E80CCF911F910F91B8
:101CD000EF900895EE24E39408EE13E02C2F61E0DA
:101CE0008DE190E0D7CFEE24E39408EE13E02C2FA3
:101CF00061E080E290E0CECFEE24E39404E813E0CC
:101D000021E040E061E087E390E0DDCFEE24E39462
:101D100004E813E021E040E061E087E491E0D3CF04
:101D2000EF920F931F9380913303909134030197A7
:101D300009F055C080E190E0909305028093040281
:101D40008BEF90E00E947D0C80911E0390911F0309
:101D5000029709F440C080913503909136030097B3
:101D600009F440C0019731F48091D405811102C07B
:101D70000E94570780910201806280930201809146
:101D8000020180648093020140910A0250910B028B
:101D900070E060E08DEF95E00E94895E2E981092D1
:101DA0009B0510929C0510929105109292050E943D
:101DB000EF06029718F58CE491E00E947D0CEE246A
:101DC000E39410E000E020E04091DD0460E08CE46A
:101DD00091E00E94E80C1F910F91EF90089586E02A
:101DE00090E0AACF0E9457079091140780910F07A7
:101DF0009813C0CF81E08093D402BCCF89E491E0F6
:101E00000E947D0CEE24E39410E000E020E040917D
:101E1000DD0460E089E491E00E94E80C81E00E942A
:101E2000330E9091140780910F079817A1F21F911C
:101E30000F91EF900C940F5FEF920F931F93CF933E
:101E4000DF9300D01F921F92CDB7DEB780911C03A5
:101E500090911D038630910509F450C008970297B0
:101E600008F44CC086E090E00E947D0C80E390E096
:101E70000E947D0C85E490E00E947D0C86E490E059
:101E80000E947D0C8CE290E00E947D0C8EE390E03D
:101E90000E947D0C82E390E00E947D0C87E390E03D
:101EA0000E947D0C87E491E00E947D0C80911A03D2
:101EB00090911B03EE24E39410E000E020E04091B9
:101EC000DD0460E08230910509F460C08330910543
:101ED00009F475C0019709F440C086E090E00E94C3
:101EE000E80C1092E20284E68093010245E050E0A3
:101EF00060E070E085E795E00E94895E8091D10303
:101F00009091D2030197D1F480911A0390911B0311
:101F1000039709F06DC080EF89838AEA8A8385E0A0
:101F20008B8385E18C8385E58D8345E050E0BE01A0
:101F30006F5F7F4F81E394E00E94714E10922D05F8
:101F400010922E050F900F900F900F900F90DF9131
:101F5000CF911F910F91EF90089580E390E00E9440
:101F6000E80C80911E0390911F03019709F0B9CFEF
:101F70009091140780910F079813B3CF04E813E0F2
:101F800021E040E061E082E390E0A9CF85E490E0C9
:101F90000E94E80C80911E0390911F03019709F0A5
:101FA000A0CF9091140780910F0798139ACF04E85F
:101FB00013E021E040E061E087E390E090CF86E429
:101FC00090E00E94E80C80911E0390911F030197FE
:101FD00009F087CF9091140780910F07981381CF54
:101FE00004E813E021E040E061E087E491E077CF8E
:101FF00080EF89838AEA8A8385E08B8384E192CFAC
:10200000809118032091350330913603213031053A
:1020100039F0811116C08091190391E08927089544
:10202000882331F080911A0390911B03892B49F08A
:1020300081E08093180310921B0310921A030E94F0
:102040001C0F80E00895EF920F931F93CF93809120
:102050001C0390911D038430910509F4B3C03091A5
:10206000140720910F0732137FC120911102222300
:1020700009F4ADC070E060E00397B1F08091070211
:1020800060EA70E0833081F038F46EEB70E082300B
:1020900059F06CED70E008C062E870E0843021F027
:1020A0008530B9F764E670E08DE00E94A454C091D9
:1020B000D5020E94EF06C11125C08230910508F0BB
:1020C000B5C0019709F088C089E491E00E947D0CB9
:1020D0008CE491E00E947D0C8DE491E00E947D0CE7
:1020E000EE24E39410E000E020E04091DD0460E0A5
:1020F0008DE491E00E94E80C81E00E94330E81E0C3
:102100008093D5020E94EF0602970297B8F487E009
:1021100096E00E94595E882389F04091DD04415089
:10212000EE24E39410E000E020E061E080E990E03C
:102130000E94E80C10920F06109210061092D40222
:102140009091CF068091CA06981308C18091D6025B
:10215000811138C08FE795E00E94595E882391F184
:1021600080911C0390911D03049761F18091D60228
:10217000811128C00E94EF060297209107022330A8
:1021800009F4CAC008F092C0223009F4B4C0029722
:1021900008F0A1C080911002882309F49CC0EE24AD
:1021A000E39410E000E020E04091DD0461E082E192
:1021B00090E00E94E80C81E08093D602109287059F
:1021C00010928805CF911F910F91EF90089560E0D4
:1021D0008DE00E94FF536BCF8091D402882399F049
:1021E00089E491E00E947D0C8CE491E00E947D0CDA
:1021F000EE24E39410E000E020E04091DD0460E094
:102200008CE491E077CF89E491E00E947D0C8CE42E
:1022100091E00E947D0CEE24E39410E000E020E0C9
:102220004091DD0460E089E491E064CF8DE890E0C6
:102230000E947D0C80E990E00E947D0C8EE890E089
:102240000E947D0C81E990E00E947D0C82E990E083
:102250000E947D0C84E990E00E947D0C809109022F
:102260004091DD044150EE24E39410E000E020E0D2
:1022700060E08823B1F083E990E00E94E80C1092BE
:10228000090245E756E060E070E087E096E00E94D2
:10229000895E81E08093D5021092190610921A0689
:1022A00031CF8FE890E00E94E80CEBCF243009F4A6
:1022B00044C0253009F06BCF029768F4809110027A
:1022C000882349F0EE24E39410E000E020E0409100
:1022D000DD0461E00DC08091D006882309F46BCF46
:1022E000EE24E39410E000E020E04091DD0460E0A3
:1022F00086E190E05ECF029770F78091100288230C
:1023000051F3EE24E39410E000E020E04091DD047E
:1023100061E083E190E04DCF0297E8F680911002F2
:102320008823C9F2EE24E39410E000E020E040911D
:10233000DD0461E084E190E03CCF029760F680919B
:102340001002882341F2EE24E39410E000E020E044
:102350004091DD0461E085E190E02BCFCF911F91AA
:102360000F91EF900C948A0C61E08DE00E94FF5376
:102370000E948A0CCF911F910F91EF900C94830DC6
:10238000EF920F931F93809116028823D1F0109241
:1023900016028DE590E00E947D0C8CE590E00E9495
:1023A0007D0CEE24E39410E000E020E04091DD0499
:1023B00060E08DE590E00E94E80C1F910F91EF9096
:1023C000089581E0809316028DE590E00E947D0CD7
:1023D0008CE590E00E947D0CEE24E39410E000E098
:1023E00020E04091DD0460E08CE590E0E4CFEF92E6
:1023F0000F931F9388E290E00E947D0CEE24E394FB
:1024000010E000E020E04091DD0460E088E290E030
:102410000E94E80C88E590E00E947D0C85E690E043
:102420000E947D0C89E590E00E947D0C809118034C
:10243000882379F14091DD04809119038823E9F024
:102440008091350390913603019719F1109236036C
:1024500010923503109218031092190320E060E0E7
:1024600089E590E00E94E80C10921B0310921A0379
:102470001F910F91EF900C941C0F81E08093190332
:10248000EE24E39410E000E020E060E085E690E0D8
:10249000E9CF81E08093180310921903EE24E394AE
:1024A00010E000E020E04091DD0460E088E590E08D
:1024B000D9CFEF920F931F9380911C028036C8F101
:1024C00084E680931C0280911C0223E2829FC0015B
:1024D000112464E670E00E94BC7763526093DE04CE
:1024E0006093DB0480911E0390911F03892B81F47C
:1024F00080E490E00E947D0CEE24E39410E000E084
:1025000020E04091DE0460E080E490E00E94E80C6E
:102510008091D1039091D2030197029760F480914A
:10252000DE04082E000C990B1F910F91EF900C9474
:102530006D518B5FC6CF1F910F91EF900895CF9390
:10254000DF9300D000D0CDB7DEB761307105C9F49C
:10255000642F0E94FB526C837D838E83BE016F5F6C
:102560007F4FCE0104960E94695D69817A818B81DB
:1025700026960FB6F894DEBF0FBECDBFDF91CF9188
:102580000895642F0E94FB526C837D838E83BE016D
:102590006F5F7F4FCE0104960E94695D6A817981E9
:1025A000E6CFEF92FF920F931F93CF93C62F6091C8
:1025B00021037091220361307105B1F090E08C012C
:1025C000000F111F080F191F095C1C4F4FEF8C2FB4
:1025D0000E949F12F801608371838283CF911F91C3
:1025E0000F91FF90EF900895823009F471C048F583
:1025F000F12CE12C813009F44BC056E6E52E53E076
:10260000F52EF7010491802F90E08C01000F111F2F
:10261000080F191F095C1C4F609121037091220360
:102620004FEF8C2F0E949F12F80160837183828389
:10263000FFEFEF1AFF0A82E7E81683E0F80609F7D2
:10264000CDCF833009F466C0F12CE12C8430A9F69B
:10265000F701E657FC4FE491F0E08F01000F111FE6
:102660000E0F1F1F095C1C4F609121037091220304
:102670004FEF8C2F0E949F12F80160837183828339
:10268000FFEFEF1AFF0A8CE0E816F10409F7A6CF76
:10269000F701EE58FC4FE491F0E08F01000F111F9D
:1026A0000E0F1F1F095C1C4F6091210370912203C4
:1026B0004FEF8C2F0E949F12F801608371838283F9
:1026C000FFEFEF1AFF0A88E0E816F10409F786CF5A
:1026D000F12CE12CF701E658FC4FE491F0E08F017A
:1026E000000F111F0E0F1F1F095C1C4F609121036B
:1026F000709122034FEF8C2F0E949F12F80160838C
:1027000071838283FFEFEF1AFF0A88E0E816F10475
:1027100009F764CFF12CE12CF701EE57FC4FE4915F
:10272000F0E08F01000F111F0E0F1F1F095C1C4FDF
:1027300060912103709122034FEF8C2F0E949F1212
:10274000F801608371838283FFEFEF1AFF0A88E04C
:10275000E816F10409F742CF8091210390912203FA
:10276000019761F44FEF61E070E080E00E949F12FA
:1027700060935B0370935C0380935D0312980895EC
:1027800080912003882329F10E94CC0480910201CA
:102790008F7D80930201809102018F7B80930201E3
:1027A000109811980E94AC1361E08DE00E94FF53D5
:1027B0002E9A10920803109207038091FB04811156
:1027C0000CC040E65AEE60E070E083EF94E00C94B9
:1027D000895E80E00E940903D9CF0895E3E4F5E023
:1027E00010861186EBE6F5E010861186EDE4F5E043
:1027F00010861186E7E5F5E010861186E1E6F5E042
:1028000010861186E5E7F5E0108611861092E40245
:102810001092E3021092E20284E6809301020E9489
:102820004C5F0C94AC13EF92FF920F931F93CF93D6
:10283000DF938091210390912203C0910C02C1503B
:10284000019709F4C4E28091E002882309F4C6C02C
:1028500085E795E00E94595E882309F46DC11091C7
:102860000102112309F468C10E94EF06039739F4AD
:1028700080911A0390911B030EE0892B09F00CE064
:102880006091210370912203D0E0CE01880F991F3F
:102890006130710509F072C08C0F9D1F9C01295C8D
:1028A0003C4F7901412F61E070E0802F0E949F1220
:1028B000F701608371838283CE0147977C01EE0C20
:1028C000FF1CE80EF91E9701295C3C4F79016091CD
:1028D000210370912203412F802F0E949F12F70144
:1028E000608371838283CE0148977C01EE0CFF1CCC
:1028F000E80EF91E9701295C3C4F79016091210394
:1029000070912203412F802F0E949F12F701608354
:1029100071838283CE0149977C01EE0CFF1CE80E87
:10292000F91E9701295C3C4F790160912103709158
:102930002203412F802F0E949F12F7016083718331
:102940008283CE010196EC01CC0FDD1FC80FD91F89
:10295000C95CDC4F6091210370912203412F802FCD
:102960000E949F12688379838A83C091DF02C1111C
:102970000AC0103551F40E94AC1307C0C80FD91F0C
:10298000C95CDC4FEBCF1C33B1F38BEF810F80932D
:1029900001021650183C40F01092E2028BE4809342
:1029A0000102CF5FC093DF028091DF02833070F4B9
:1029B00045E050E060E070E085E795E0DF91CF9181
:1029C0001F910F91FF90EF900C94895EDF91CF9152
:1029D0001F910F91FF90EF900C94EE1385E795E017
:1029E0000E94595E882309F4A2C0009101020023CD
:1029F00009F49DC080911A0390911B031DE0833060
:102A00009105A9F048F48130910509F49CC016E1C4
:102A1000029769F011E00BC018E18530910539F09B
:102A20001BE18530910518F01CE1069799F760913C
:102A3000210370912203D0E0CE01880F991F6130ED
:102A4000710509F088C08C0F9D1F9C01295C3C4FCB
:102A50007901402F61E070E0812F0E949F12F70101
:102A6000608371838283CE0147977C01EE0CFF1C4B
:102A7000E80EF91E9701295C3C4F79016091210312
:102A800070912203402F812F0E949F12F7016083D3
:102A900071838283CE0148977C01EE0CFF1CE80E07
:102AA000F91E9701295C3C4F7901609121037091D7
:102AB0002203402F812F0E949F12F70160837183B0
:102AC0008283CE0149977C01EE0CFF1CE80EF91EB3
:102AD0009701295C3C4F7901609121037091220399
:102AE000402F812F0E949F12F701608371838283A0
:102AF000CE010196EC01CC0FDD1FC80FD91FC95CB8
:102B0000DC4F6091210370912203402F812F0E949E
:102B10009F12688379838A8301500093010245E004
:102B200050E060E070E085E795E00E94895E80916A
:102B30000102882309F44ACFDF91CF911F910F91B1
:102B4000FF90EF9008950E94EF0614E0019709F4BA
:102B50006ECF1FE06CCFC80FD91FC95CDC4FD5CF3B
:102B6000EF920F931F93CF93DF931092FB05109278
:102B7000FC0510921D0310921C0310920B0310927F
:102B8000DE021092DC021092CA051092CB05109260
:102B9000A5051092A6051092E502809107028150CA
:102BA000209133033091340380930803109207037C
:102BB0002130310509F0D8C080912F039091300366
:102BC000019709F0C6C00E94EB090E949F03109272
:102BD00073051092740510924105109242051092EF
:102BE00037051092380540E050E0BA0187E595E0DE
:102BF0000E94895E0E94EF06029708F0BAC0109802
:102C000011980E94AC1310929B0510929C050E9493
:102C1000EF06029708F4AFC08AE691E00E947D0CAF
:102C20001092DD021092DB021092DA021092D902A9
:102C30001092D5071092D6070E94EF06039721F451
:102C40008FE491E00E947D0C80911A0390911B0308
:102C50008230910509F4B1C08330910529F10197C3
:102C600009F4A4C0C09107020E94EF06C53009F420
:102C70008CC0019709F082C084E690E00E947D0C30
:102C800083E690E00E947D0C86E090E00E947D0C3F
:102C900089E090E00E947D0C88E490E00E947D0C29
:102CA00082E690E00E947D0C8091E002811119C0C3
:102CB00080911A0390911B038230910509F487C01B
:102CC0008330910571F0E12C10E000E020E04091AC
:102CD000DD0460E0019709F477C08BE090E00E948A
:102CE000E80C8091E102882371F1C091D103D09169
:102CF000D20380912503909126038130910508F439
:102D000070C08330910508F471C0059708F069C060
:102D1000219741F08EE690E00E947D0C8FE690E0D6
:102D20000E947D0C8091E00281110BC0E12C10E02B
:102D300000E020E04091DD0460E08FE690E00E943A
:102D4000E80C1092E102DF91CF911F910F91EF906B
:102D500008950E94CC0485E090E090930502809352
:102D600004020E94570733CF0E94CC0483E090E016
:102D7000F4CF119A46CF8CE390E050CF80E690E0FC
:102D80000E947D0C8FE590E07DCF009729F00197A0
:102D900051F484E690E076CF81E690E00E947D0CCD
:102DA00080E690E06FCF8BE990E06CCF83E390E01A
:102DB0000E947D0C84E390E075CF89E390E00E944F
:102DC0007D0C8AE390E06ECF85E390E088CFE12C24
:102DD00010E000E020E04091DD0460E08BE390E053
:102DE0007ECF0E94EF06029708F092CF219741F024
:102DF0008AE490E00E947D0C89E490E00E947D0CC2
:102E00008091E00281119DCFE12C10E000E020E0F4
:102E10004091DD0460E089E490E091CFEF920F9360
:102E20001F930E94EF06029708F4CEC08EE890E050
:102E30000E947D0C8DE890E00E947D0C81E990E07D
:102E40000E947D0C82E990E00E947D0C84E990E074
:102E50000E947D0C83E990E00E947D0C80911C0310
:102E600090911D03049721F08091D202882361F094
:102E700083E490E00E947D0C8FE390E00E947D0C43
:102E800084E490E00E947D0C89E491E00E947D0C36
:102E90008CE691E00E947D0C81E0809309022091F4
:102EA0001C0330911D038091D2022730310509F0B7
:102EB00092C0811196C08091E002811192C010925F
:102EC0001F0310921E0310921D0310921C030E94F8
:102ED0008A0C0E94830D81E00E94B10C0E94BE0604
:102EE00080910B0381110E94B0158EE390E00E9447
:102EF0007D0C80911A0390911B038230910509F497
:102F0000E0C08330910509F4DFC0019709F4D6C011
:102F100086E090E00E947D0C80911C0390911D033F
:102F2000079781F08091E002882361F0EE24E3941A
:102F300010E000E020E04091DD0460E08EE591E0EB
:102F40000E94E80C1092D3021092F1051092F20543
:102F5000109223051092240510922D0510922E0533
:102F600010929B0510929C0510929105109292056B
:102F700080911E0390911F03892B11F580913503D9
:102F800090913603019709F0A9C080913303909185
:102F90003403019709F09BC00E940F07809135030D
:102FA00090913603892B41F440E65AEE60E070E0E0
:102FB00083EF94E00E94895E10920E0310920D033D
:102FC0001F910F91EF9008958091D502811146CF06
:102FD0008CE491E041CF81117ACF8091E0028111A0
:102FE00076CF10921F0310921E0310921D031092B1
:102FF0001C038091E002882341F08BE691E00E945F
:103000007D0C8CE691E00E947D0C8091E00288238B
:1030100021F00E94EE131092E0020E94EF06029748
:10302000C8F58091350390913603892BB1F49091C6
:10303000140780910F07981781F08BEF90E00E94A2
:103040007D0CEE24E39410E000E020E04091DD04EC
:1030500060E08BEF90E00E94E80C80913503909146
:103060003603892B31F49091140780910F07981340
:103070002ECF81E190E00E947D0CEE24E39410E0DD
:1030800000E020E04091DD0460E081E190E00E94FA
:10309000E80C1DCF80911C0390911D03079749F305
:1030A0004091DD044150EE24E39410E000E020E084
:1030B00060E081E990E00E94E80CDBCF80E390E0E3
:1030C00029CF85E490E026CF86E490E023CF80E10D
:1030D00090E0909305028093040260CF1092D40593
:1030E0001092D5051092A5051092A6050E94C01356
:1030F0000E94EF06029730F08091330390913403E1
:10310000019729F383E090E0E4CFEF920F931F93B0
:103110000E940E1782E090E090931F0380931E039D
:1031200087E090E090931D0380931C038091E00260
:10313000811138C040E456E060E070E083E995E03A
:103140000E94895E40E951E060E070E089E895E026
:103150000E94895E4EE551E060E070E08BE195E011
:103160000E94895EEE24E39410E000E020E04091AC
:10317000DD0460E083E490E00E94E80C20E04091F0
:10318000DD0460E08FE390E00E94E80C20E04091D5
:10319000DD0460E084E490E00E94E80C1F910F9150
:1031A000EF900895EE24E39404EC19E021E04091BF
:1031B000DD0461E08BE691E0EFCFEF920F931F9378
:1031C00081E080930902209135033091360321304C
:1031D000310529F51092E0021092D30230931F03BB
:1031E00020931E0310921D0310921C0380915A0716
:1031F000811110C08CEF90E00E947D0CEE24E394CE
:1032000010E000E020E04091DD0460E08CEF90E011
:103210000E94E80C1F910F91EF900C94900E20915A
:10322000CF069091CA06291304C090911202911101
:103230000FC081E090E090931F0380931E031092D3
:103240001D0310921C031092D3021092E002E2CFF1
:103250008093D2020E948518F8CFEF920F931F93AC
:1032600080911C0390911D03039729F480910B0317
:1032700081110E94B0150E94EF06029708F069C004
:10328000119A84E090E090931D0380931C0348EB17
:103290005BE060E070E089EE95E00E94895E0E944C
:1032A0008A0C0E94830D81E00E94B10C8091120370
:1032B000882309F451C01092D4051092D5050E94BC
:1032C000CC044EE551E060E070E08BE195E00E94B7
:1032D000895EEE24E39410E000E020E04091DD04FC
:1032E00060E083E490E00E94E80C20E04091DD047F
:1032F00060E08FE390E00E94E80C20E04091DD0464
:1033000060E084E490E00E94E80C40E951E060E075
:1033100070E087E095E00E94895E40E456E060E05E
:1033200070E08DEF94E00E94895E81E190E00E9460
:103330007D0CEE24E39410E000E020E04091DD04F9
:1033400060E081E190E00E94E80C1F910F91EF9006
:1033500008951098119895CF8CE18093070385E02C
:10336000809308030E947B0348E750E060E070E030
:103370008CEC95E0D8CFEF920F931F9380911C03B4
:1033800090911D030497309159072091540703979A
:1033900008F482C2321751F081E090E090931D034F
:1033A00080931C031F910F91EF9008958091D30299
:1033B000873008F497C080911A0390911B038130E5
:1033C000910509F1029711F18BE090E00E947D0CCC
:1033D00081E08093E0020E9485180E946C03809136
:1033E000070240EA5FE060E070E08330F1F088F4CB
:1033F0004CEA5DE060E070E08230B9F048EB5BE001
:1034000060E070E012C085E390E0E0CF8BE390E0F5
:10341000DDCF44E951E160E070E0843031F048E80C
:1034200053E160E070E0853049F781E195E00E946A
:10343000895E80911302882309F4B4CF809135030B
:1034400090913603892B09F0ADCF9091CF068091F2
:10345000CA06981709F4A6CF9091140780910F0718
:103460009813A0CF80911602882309F49BCF8091F6
:10347000A307882309F406C285E090E090931D031A
:1034800080931C0340ED57E060E070E089EE95E02A
:103490000E94895E83E591E00E947D0C82E390E0CA
:1034A0000E947D0C88E591E00E947D0CEE24E3945F
:1034B00010E000E020E04091DD0460E087E591E06D
:1034C0000E94E80C80911A0390911B03019709F068
:1034D00069CF20E04091DD0460E083E591E00E9447
:1034E000E80C60CF8091D102882351F085E295E00D
:1034F0000E94135E672B682B692B11F41092D10286
:1035000090919E0780919907981345C09091CF069E
:103510008091CA0698133FC09091140780910F07BD
:10352000981339C0809100028823A9F180911A0371
:1035300090911B038230910509F4B9C0039709F4F7
:10354000D8C080911C0390911D03039731F083E054
:1035500090E090931D0380931C0381E195E00E940D
:10356000135E672B682B692B51F41092D30240ED48
:1035700057E060E070E081E195E00E94895E809113
:10358000DE02811105C08091D3028F5F8093D30248
:1035900081E08093DE0220918A0630918506809139
:1035A0001803882309F4CFC03213BCC09091CF0612
:1035B0008091CA06981334C09091140780910F0728
:1035C00098132EC080910002882351F180911C0332
:1035D00090911D03039731F083E090E090931D03D9
:1035E00080931C0381E195E00E94135E672B682B9A
:1035F000692B51F41092D30240ED57E060E070E087
:1036000081E195E00E94895E8091DC02811105C014
:103610008091D3028F5F8093D30281E08093DC029C
:1036200090919E07809199079817D1F080911A0385
:1036300090911B030297029708F41EC180910B031F
:10364000882371F08091DE02882351F08091DC02A2
:1036500081110DC110921D0310921C031092DE0205
:1036600090918A0680918506981709F4E2CE8091A0
:1036700018038111DECE80911A0390911B038230D2
:10368000910508F4FCC0049708F0D3CE80910B0399
:10369000882309F4CECE8091DE02882309F4C9CEB6
:1036A00010921D0310921C031092DE02C2CE809174
:1036B000D002811170CF85E295E00E94135E672BE6
:1036C000682B692B09F067CF80911C0390911D0333
:1036D00048E552E060E070E0039709F45CCF85E2D2
:1036E00095E00E94895E0E948B6A81E08093D002FF
:1036F00052CF8091D00281114ECF85E295E00E9499
:10370000135E672B682B692B09F045CF80911C0352
:1037100090911D03039709F43ECF4AEF50E060E01B
:1037200070E0DDCF8091DE0281110AC080911C0320
:1037300090911D03039721F410921D0310921C0316
:103740001092DC026DCF80911A0390911B030097B9
:1037500059F440911C0350911D034330510521F44D
:10376000321709F45ACF5CCF32135ACF3091CF06BB
:103770002091CA06321354CF3091140720910F07BD
:1037800032134ECF20910002222309F449CF813019
:10379000910509F44AC070F1049708F041CF809177
:1037A0001C0390911D03039731F083E090E0909308
:1037B0001D0380931C0381E195E00E94135E672B3B
:1037C000682B692B51F41092D30240ED57E060E072
:1037D00070E081E195E00E94895E8091DE028111B6
:1037E00005C08091D3028F5F8093D30281E08093E4
:1037F000DE0216CF8091D002811112CF85E295E0D2
:103800000E94135E672B682B692B09F009CF40EDEE
:1038100057E060E070E085E295E00E94895E0E94DA
:103820008B6A81E08093D002FBCE8091D00281111F
:10383000F7CE80911C0390911D03039709F4F0CEFD
:103840008091D102811110C04EEE52E060E070E034
:1038500085E295E00E94895E0E948B6A8091D10288
:103860008F5F8093D102DDCF8230D8F6F5CF0E94F2
:1038700000108111EFCEF2CE1092D002F1CE109254
:10388000D002D7CD8091A007882309F48BCD1F915A
:103890000F91EF900C942D19321709F483CD7CCD44
:1038A00080912103909122030197A1F50E94EF06D8
:1038B0002091E00283309105B1F4222341F0809100
:1038C0001A0390911B03892B69F58EE018C0809133
:1038D000E1028111FACF80911A0390911B030197A5
:1038E00019F580E10CC021111DC020911A033091FF
:1038F0001B0321303105C1F4019799F784E04FEFA4
:1039000061E070E00E949F1260935B0370935C0320
:1039100080935D0380911A0390911B03019709F036
:10392000129A08958CE0EBCF81E0E9CF80912003DB
:10393000882309F403C3E0910703EE3008F0A8C31D
:10394000F0E0909103028827E755F34E8F4F0C94D7
:10395000D077B71CE81C251D651D9A1DCF1D041EC0
:10396000391E6E1EA31ED81E0D1F411F761F8EE628
:10397000890F0E94CB068DE00E94AF020E94C453C3
:103980008EE00E94AF020E94C45381E08093F30254
:103990008093F402809107038F5F809307038091E7
:1039A000E50281110EC08CE00E94AF020E94E1533B
:1039B0008FE00E94AF020E94E1531092F202109237
:1039C000F50281E08093E5020E94B7560C94501CEA
:1039D0008EE6890F0E94CB068CE00E94AF020E9407
:1039E000C4538FE00E94AF020E94C45381E08093D1
:1039F000F2028093F5028091E502882391F08DE038
:103A00000E94AF020E94E1538EE00E94AF020E942A
:103A1000E1531092F3021092F402809107038F5F3A
:103A200011C08BE00E94AF020E94E15380E10E942E
:103A3000AF020E94E1531092F1021092F6028091BF
:103A40000703815080930703BFCF8EE6890F0E9442
:103A5000CB068BE00E94AF020E94C45380E10E941B
:103A6000AF020E94C45381E08093F1028093F6027A
:103A70008091E502882391F08CE00E94AF020E94C1
:103A8000E1538FE00E94AF020E94E1531092F202D4
:103A90001092F502809107038F5F11C08AE00E94A7
:103AA000AF020E94E15381E10E94AF020E94E15304
:103AB0001092F0021092F7028091070381508093D8
:103AC00007030E94B7560C94AC138EE6890F0E9430
:103AD000CB068AE00E94AF020E94C45381E10E949B
:103AE000AF020E94C45381E08093F0028093F702FA
:103AF0008091E502882379F08BE00E94AF020E945A
:103B0000E15380E10E94AF020E94E1531092F10262
:103B10001092F602BFCF89E00E94AF020E94E153EB
:103B200082E10E94AF020E94E1531092EF021092D4
:103B3000F802C2CF8EE6890F0E94CB0689E00E9470
:103B4000AF020E94C45382E10E94AF020E94C4539C
:103B500081E08093EF028093F8028091E502882350
:103B600079F08AE00E94AF020E94E15381E10E9455
:103B7000AF020E94E1531092F0021092F7024DCF73
:103B800088E00E94AF020E94E15383E10E94AF02ED
:103B90000E94E1531092EE021092F90250CF8EE68D
:103BA000890F0E94CB0688E00E94AF020E94C45396
:103BB00083E10E94AF020E94C45381E08093EE0231
:103BC0008093F9028091E502882379F089E00E94D0
:103BD000AF020E94E15382E10E94AF020E94E153D2
:103BE0001092EF021092F80218CF87E00E94AF0205
:103BF0000E94E15384E10E94AF020E94E1531092BF
:103C0000ED021092FA021BCF80E7890F0E94CB06CB
:103C100087E00E94AF020E94C45384E10E94AF0279
:103C20000E94C45381E08093ED028093FA02809158
:103C3000E502882379F088E00E94AF020E94E153F8
:103C400083E10E94AF020E94E1531092EE021092B3
:103C5000F90220CF86E00E94AF020E94E15385E185
:103C60000E94AF020E94E1531092EC021092FB02FC
:103C700023CF80E7890F0E94CB0686E00E94AF0227
:103C80000E94C45385E10E94AF020E94C45381E0A8
:103C90008093EC028093FB028091E502882379F007
:103CA00087E00E94AF020E94E15384E10E94AF02CC
:103CB0000E94E1531092ED021092FA02EBCE85E0E1
:103CC0000E94AF020E94E15386E10E94AF020E946F
:103CD000E1531092EB021092FC02EECE80E7890FC6
:103CE0000E94CB0685E00E94AF020E94C45386E189
:103CF0000E94AF020E94C45381E08093EB02809344
:103D0000FC028091E502882379F086E00E94AF02F0
:103D10000E94E15385E10E94AF020E94E15310929C
:103D2000EC021092FB0279CE84E00E94AF020E9466
:103D3000E15387E10E94AF020E94E1531092EA0230
:103D40001092FD027CCE80E7890F0E94CB0684E0B2
:103D50000E94AF020E94C45387E10E94AF020E94FA
:103D6000C45381E08093EA028093FD028091E502D2
:103D7000882379F085E00E94AF020E94E15386E13A
:103D80000E94AF020E94E1531092EB021092FC02DB
:103D900044CE83E00E94AF020E94E15388E10E947A
:103DA000AF020E94E1531092E9021092FE0247CE48
:103DB00080E7890F0E94CB0683E00E94AF020E9439
:103DC000C45388E10E94AF020E94C45381E08093F3
:103DD000E9028093FE028091E502882379F084E075
:103DE0000E94AF020E94E15387E10E94AF020E944D
:103DF000E1531092EA021092FD024CCE82E00E9442
:103E0000AF020E94E15389E10E94AF020E94E15398
:103E10001092E8021092FF024FCE83E7890F0E94B2
:103E2000CB0682E00E94AF020E94C45389E10E9447
:103E3000AF020E94C4531092E8021092FF028091D8
:103E4000E502882379F083E00E94AF020E94E153EB
:103E500088E10E94AF020E94E1531092E9021092A1
:103E6000FE0218CE81E00E94AF020E94E1538AE177
:103E70000E94AF020E94E1531092E70210920003E9
:103E80001BCE83E7890F0E94CB0681E00E94AF0220
:103E90000E94C4538AE10E94AF020E94C45381E091
:103EA0008093E702809300038091E502882379F0F4
:103EB00082E00E94AF020E94E15389E10E94AF02BA
:103EC0000E94E1531092E8021092FF02A6CD80E01A
:103ED0000E94AF020E94E1538BE10E94AF020E9458
:103EE000E1531092E60210920103A9CD83E7890FF6
:103EF0000E94CB0680E00E94AF020E94C4538BE177
:103F00000E94AF020E94C45381E08093E602809336
:103F100001030E94AF020E94E1538AE10E94AF02B6
:103F20000E94E1531092E702109200038091070370
:103F30008150809307031092E50246CD80910803DB
:103F4000833009F45EC028F4813049F0823081F179
:103F50000895843069F1853009F475C00895809121
:103F6000030282590E94CB0680E00E94AF0260E00B
:103F70000E94FF5381E00E94AF0261E00E94FF5364
:103F800082E00E94AF0261E00E94FF5383E00E9442
:103F9000AF0261E00E94FF5384E00E94AF0260E044
:103FA0000E94FF53809108038F5F809308030ECD1A
:103FB0008091030280590E94CB0680E00E94AF02EC
:103FC00061E00E94FF5381E00E94AF0260E00E9426
:103FD000FF5382E00E94AF0261E00E94FF5383E042
:103FE0000E94AF0260E00E94FF5384E00E94AF0293
:103FF00061E00E94FF53809108038F5F8093080364
:1040000062CD809103028D580E94CB0680E00E9411
:10401000AF0261E00E94FF5381E00E94AF0261E0C5
:104020000E94FF5382E00E94AF0260E00E94FF53B3
:1040300083E00E94AF0261E00E94FF5384E00E948F
:10404000AF0261E0ADCF8091030282590E94CB069E
:1040500080E00E94AF0260E00E94FF5381E00E9476
:10406000AF0261E00E94FF5382E00E94AF0261E074
:104070000E94FF5383E00E94AF0261E00E94FF5361
:1040800084E00E94AF0260E00E94FF5381E08DCF88
:104090000895CF92DF92EF92FF920F931F93CF93E9
:1040A00080912F0390913003892B09F06BC00E94FF
:1040B000961C90912003C8E79111C8E280910702F5
:1040C000E82FF0E0EE51FA4F2081222309F45AC67E
:1040D0002091FB05222309F455C6209116022223C4
:1040E00009F450C683EF95E00E94135E8B019C019A
:1040F000E0910702E150FF0BEE0FFF1FEA52FA4F6B
:104100008081918166E070E00E94A877CB01B0E0E9
:10411000A0E0081719072A073B0708F44AC683EFEF
:1041200095E00E94135E8B019C01E0910702E15033
:10413000FF0BEE0FFF1FEA52FA4F8081918165E07D
:1041400070E00E94A877CB01B0E0A0E00817190743
:104150002A073B0708F059C6809120034C2F88237B
:1041600009F44DC646954695469550E04C5F5F4F25
:10417000052E000C660B770B82EC95E00E94895EA1
:1041800085E02BC6C091200380910702CC2309F45F
:10419000C5C390910703911107C0833009F452C041
:1041A000A8F5823009F459C090910703E6EEF2E0D9
:1041B00080E02191211103C0891708F459C08F5F55
:1041C0008C31B9F780910702833009F401C208F0FD
:1041D00051C0823009F4BEC2CC2309F466C3C7E0E3
:1041E00080910703C81708F489C08C134AC38091D3
:1041F0000202843009F44FC308F038C3813008F05C
:104200004FC367E070E080E090E037C3843079F01E
:10421000853051F669E070E080E090E00E94BB5983
:104220006E5E7F4F8F4F9F4F60930703BDCF6CE053
:1042300070E080E090E00E94BB59635F7F4F8F4F3A
:104240009F4FF2CF6AE070E080E090E00E94BB599F
:10425000675F7F4F8F4F9F4FE7CF6AE070E080E04E
:1042600090E00E94BB596D5F7F4F8F4F9F4FDCCF17
:10427000C0E0A8CF843009F4E9C0853009F0ACCFA4
:10428000CC2309F47BC0CBE180910703C817B0F1C0
:104290008C1324C080910202833009F457C070F45B
:1042A000823009F45EC069E070E080E090E00E9436
:1042B000BB596E5E7F4F8F4F9F4F0EC08430D9F138
:1042C000853089F765E170E080E090E00E94BB599D
:1042D0006A5F7F4F8F4F9F4F609307030C2F10E053
:1042E0000A511D4FF8018081882309F445C08C2FA5
:1042F0000E94AF020E94E153F80110820E94B7565B
:104300009091070380910302973108F401C38D58FF
:104310000E94CB069091080380910302943008F428
:1043200028C58D580E94CB068091E40280FD27C5E8
:104330000E94501CBECE62E170E080E090E00E94DE
:10434000BB59675F7F4F8F4F9F4FC6CF6FE070E0C5
:1043500080E090E00E94BB59645F7F4F8F4F9F4F7A
:10436000BBCF6CE070E080E090E00E94BB59615FE1
:104370007F4F8F4F9F4FB0CFC15086CFC0E080910D
:1043800007038C1708F4BACF8C1321C08091020266
:104390008330C9F160F4813009F44BC08230F1F10F
:1043A0006BE170E080E090E00E94BB590EC0843069
:1043B000F9F08530A9F763E170E080E090E00E94B9
:1043C000BB59685F7F4F8F4F9F4F609307030C2F40
:1043D00010E00A511D4FF8018081811135C08C2FEA
:1043E0000E94AF020E94C45381E0F801808386CF0F
:1043F0006FE070E080E090E00E94BB59645F7F4F07
:104400008F4F9F4FE2CF6DE070E080E090E00E9420
:10441000BB59625F7F4F8F4F9F4FD7CF6BE070E0EC
:1044200080E090E00E94BB59605F7F4F8F4F9F4FAD
:10443000CCCF69E070E080E090E00E94BB596E5EF6
:104440007F4F8F4F9F4FC1CFCF5F99CFCC2309F4C0
:104450005FC0C9E180910703C81708F44FCF8C13E0
:1044600021C080910202833091F160F4813009F41F
:1044700044C08230B9F169E170E080E090E00E94D0
:10448000BB590EC08430C1F08530A9F768E170E0F7
:1044900080E090E00E94BB596F5F7F4F8F4F9F4F2E
:1044A000609307030C2F10E00A511D4FF801808123
:1044B00081111DCFC150CECF65E170E080E090E06A
:1044C0000E94BB596C5F7F4F8F4F9F4FE9CF62E1D6
:1044D00070E080E090E00E94BB59695F7F4F8F4F92
:1044E0009F4FDECF6FE070E080E090E00E94BB590C
:1044F000665F7F4F8F4F9F4FD3CF6CE070E080E0BF
:1045000090E00E94BB59635F7F4F8F4F9F4FC8CF92
:10451000C0E0809107038C1708F4F0CE8C1321C003
:1045200080910202833099F160F4813009F445C032
:104530008230C1F169E170E080E090E00E94BB59F7
:104540000EC08430C9F08530A9F768E170E080E0E2
:1045500090E00E94BB596F5F7F4F8F4F9F4F6093DA
:1045600007030C2F10E00A511D4FF80180818823AA
:1045700009F435CFCF5FCDCF65E170E080E090E00A
:104580000E94BB596C5F7F4F8F4F9F4FE8CF62E116
:1045900070E080E090E00E94BB59695F7F4F8F4FD1
:1045A0009F4FDDCF6FE070E080E090E00E94BB594C
:1045B000665F7F4F8F4F9F4FD2CF6CE070E080E0FF
:1045C00090E00E94BB59635F7F4F8F4F9F4FC7CFD3
:1045D000CC2309F45FC0C3E180910703C81708F436
:1045E0008DCE8C1321C080910202833091F160F452
:1045F000813009F444C08230B9F163E170E080E0B9
:1046000090E00E94BB590EC08430C1F08530A9F7FC
:1046100062E170E080E090E00E94BB596F5F7F4FE5
:104620008F4F9F4F609307030C2F10E00A511D4FCF
:10463000F801808181115BCEC150CECF60E170E086
:1046400080E090E00E94BB596D5F7F4F8F4F9F4F7E
:10465000E9CF6EE070E080E090E00E94BB596B5FB4
:104660007F4F8F4F9F4FDECF6CE070E080E090E097
:104670000E94BB59695F7F4F8F4F9F4FD3CF6AE036
:1046800070E080E090E00E94BB59675F7F4F8F4FE2
:104690009F4FC8CFC0E0809107038C1708F42ECE3F
:1046A0008C1321C080910202833099F160F4813033
:1046B00009F445C08230C1F163E170E080E090E030
:1046C0000E94BB590EC08430C9F08530A9F762E161
:1046D00070E080E090E00E94BB596F5F7F4F8F4F8A
:1046E0009F4F609307030C2F10E00A511D4FF801F4
:1046F0008081882309F473CECF5FCDCF60E170E075
:1047000080E090E00E94BB596D5F7F4F8F4F9F4FBD
:10471000E8CF6EE070E080E090E00E94BB596B5FF4
:104720007F4F8F4F9F4FDDCF6CE070E080E090E0D7
:104730000E94BB59695F7F4F8F4F9F4FD2CF6AE076
:1047400070E080E090E00E94BB59675F7F4F8F4F21
:104750009F4FC7CFCC2309F444C0CDE0809107031D
:10476000C81708F4CBCD8C131CC080910202843092
:1047700011F148F4813050F56DE070E080E090E098
:104780000E94BB590CC08530B9F76CE070E080E046
:1047900090E00E94BB596F5F7F4F8F4F9F4F609398
:1047A00007030C2F10E00A511D4FF8018081811181
:1047B0009ECDC150D3CF6BE070E080E090E00E94CE
:1047C000BB596E5F7F4F8F4F9F4FE9CF6AE070E01C
:1047D00080E090E00E94BB596D5F7F4F8F4F9F4FED
:1047E000DECFC0E0809107038C1708F487CD8C13CF
:1047F0001CC080910202843019F148F4813058F5D0
:104800006DE070E080E090E00E94BB590CC0853004
:10481000B9F76CE070E080E090E00E94BB596F5FF8
:104820007F4F8F4F9F4F609307030C2F10E00A516B
:104830001D4FF8018081882309F4D1CDCF5FD2CFFD
:104840006BE070E080E090E00E94BB596E5F7F4FAC
:104850008F4F9F4FE8CF6AE070E080E090E00E94C9
:10486000BB596D5F7F4F8F4F9F4FDDCF853009F074
:10487000C8CC6AE070E080E090E00E94BB59609391
:1048800007030C2F10E00A511D4FF80180818111A0
:104890002ECDC150A5CC69E070E080E090E0EDCF76
:1048A00068E070E080E090E0E8CFC0E0809107032E
:1048B0008C1708F423CD8C1316C08091020284302B
:1048C000E9F038F48130F8F467E070E080E090E0DF
:1048D00006C08530C9F76AE070E080E090E00E9491
:1048E000BB59609307030C2F10E00A511D4FF801CC
:1048F0008081882309F473CDCF5FD8CF69E070E061
:1049000080E090E0ECCF68E070E080E090E0E7CFFE
:104910009C3010F08059FCCC8259FACC909108035D
:1049200091111DC0833009F45DC040F4823009F458
:1049300064C062E070E080E090E063C0843009F41D
:104940004CC08530B1F764E070E080E090E00E94F8
:10495000BB596E5F7F4F8F4F9F4F6093080320912D
:104960000803E2E0F3E090E08191811102C0291791
:1049700020F49F5F9530C1F781E09091070293305A
:1049800009F415C108F040C0923009F469C18823C8
:1049900009F4C5C1C5E080910803C81708F4BACC72
:1049A0008C1312C080910202833009F4AEC108F466
:1049B000B1C1863008F0AEC166E070E080E090E002
:1049C0000E94BB5960930803EC2FF0E0EF5FFC4FAF
:1049D0008081C1508823F9F240C063E070E080E03C
:1049E00090E0B5CF63E070E080E090E00E94BB59BA
:1049F0006F5F7F4F8F4F9F4FB0CF63E070E080E0DD
:104A000090E00E94BB59A9CF943009F46BC0953057
:104A100009F0BDCF882381F1C5E080910803C81754
:104A200008F478CC8C1311C080910202835083303B
:104A3000C0F465E070E080E090E00E94BB596F5FD9
:104A40007F4F8F4F9F4F60930803EC2FF0E0EF5F95
:104A5000FC4F8081C150882301F38C2F0E940903F1
:104A600059CC64E070E080E090E00E94BB596E5F3A
:104A70007F4F8F4F9F4FE7CFC0E0809108038C1787
:104A800008F448CC8C130FC0809102028330A1F04F
:104A9000F0F08630E0F466E070E080E090E00E94A4
:104AA000BB5960930803EC2FF0E0EE5FFC4F808170
:104AB000CF5F8111E2CFD1CF65E070E080E090E080
:104AC0000E94BB596F5F7F4F8F4F9F4FEACF64E0CB
:104AD00070E080E090E00E94BB596E5F7F4F8F4F87
:104AE0009F4FDFCF882369F1C5E080910803C81785
:104AF00008F410CC8C1311C08091020283508330D3
:104B0000A8F465E070E080E090E00E94BB596F5F20
:104B10007F4F8F4F9F4F60930803EC2FF0E0EF5FC4
:104B2000FC4F8081C150882301F397CF64E070E08F
:104B300080E090E00E94BB596E5F7F4F8F4F9F4F88
:104B4000EACFC0E0809108038C1708F4E3CB8C1304
:104B50000FC0809102028330A1F0F0F08630E0F4C3
:104B600066E070E080E090E00E94BB59609308032B
:104B7000EC2FF0E0EE5FFC4F8081CF5F8111E2CF40
:104B80006CCF65E070E080E090E00E94BB596F5F01
:104B90007F4F8F4F9F4FEACF64E070E080E090E05E
:104BA0000E94BB596E5F7F4F8F4F9F4FDFCF88238F
:104BB00039F1C5E080910803C81708F4ABCB8C131A
:104BC00011C08091020283508330A8F465E070E048
:104BD00080E090E00E94BB596F5F7F4F8F4F9F4FE7
:104BE00060930803EC2FF0E0EF5FFC4F8081C15031
:104BF000882301F332CF63E070E080E090E0EACFF9
:104C0000C0E0809108038C1708F484CB8C130FC08C
:104C1000809102028330A1F0F0F08630E0F466E08B
:104C200070E080E090E00E94BB5960930803EC2F95
:104C3000F0E0EE5FFC4F8081CF5F8111E2CF0DCFBE
:104C400065E070E080E090E00E94BB596F5F7F4FAD
:104C50008F4F9F4FEACF63E070E080E090E0F4CFA9
:104C6000882319F1C5E080910803C81708F452CBD6
:104C70008C130DC0809102028250843088F466E06B
:104C800070E080E090E00E94BB5960930803EC2F35
:104C9000F0E0EF5FFC4F8081C150882321F3DDCE2F
:104CA00063E070E080E090E0EECFC0E08091080328
:104CB0008C1708F42FCB8C131AC08091020283301A
:104CC00051F0F0F08630E0F466E070E080E090E0D3
:104CD0000E94BB590AC065E070E080E090E00E944D
:104CE000BB596F5F7F4F8F4F9F4F60930803EC2F2F
:104CF000F0E0EE5FFC4F8081CF5F8111D7CFADCE6A
:104D000063E070E080E090E0E3CF65E070E080E099
:104D100090E056CE63E070E080E090E051CEC0E0DD
:104D2000809108038C1708F4F5CA8C130FC080918A
:104D300002028330A1F0C0F08630B0F466E070E08B
:104D400080E090E00E94BB5960930803EC2FF0E0F4
:104D5000EE5FFC4F8081CF5F8111E2CF7ECE65E0B8
:104D600070E080E090E0EECF63E070E080E090E003
:104D7000E9CF923010F08059D5CA8259D3CA0E9427
:104D8000AC1397C9911135C120912F033091300395
:104D90002130310509F058C1833009F45EC108F0B3
:104DA0004EC1823009F45EC183E0C89FA001112486
:104DB00031C1809120038823C9F04C2F4695469538
:104DC000469550E04E5F5F4F052E000C660B770B4B
:104DD00082EC95E00E94895E86E0CF911F910F9151
:104DE000FF90EF90DF90CF900C94560D8C2F65E0E4
:104DF0000E948E77482F50E070E060E0E9CF469542
:104E0000469550E070E060E0B7C983EF95E00E94FE
:104E1000135EE0910702E150FF0BEE0FFF1FEA5215
:104E2000FA4F20813181369527953695279589014E
:104E300030E020E06017710782079307E8F4809163
:104E40002003882381F04C2F4695469550E04F5F14
:104E50005F4F052E000C660B770B82EC95E00E94ED
:104E6000895E84E0BACF8C2F63E00E949A77482F46
:104E700050E070E060E0F1CF83EF95E00E94135EB8
:104E80008B019C01E0910702E150FF0BEE0FFF1F29
:104E9000EA52FA4F8081918163E070E00E94A87726
:104EA000CB01B0E0A0E0081719072A073B07C0F4C0
:104EB000809120034C2F882379F04695469550E049
:104EC0004D5F5F4F052E000C660B770B82EC95E073
:104ED0000E94895E83E081CF46954A50550BF2CF00
:104EE00083EF95E00E94135EA09107022A2F2150C4
:104EF000330BF901EE0FFF1FEA52FA4F4081518147
:104F0000569547956A01F12CE12C209120036C15F0
:104F10007D058E059F05B8F44C2F222379F0469528
:104F2000469550E04B5F5F4F052E000C660B770BEC
:104F300082EC95E00E94895E82E04FCF469550E07A
:104F400070E060E0F5CF222361F14C2F4695A3304D
:104F500001F130F4A23009F150E0415F5F4F06C02B
:104F6000A430F1F1A530C1F74550550B052E000CCA
:104F7000660B770B82EC95E00E94895E81E080935E
:104F80000202CF911F910F91FF90EF90DF90CF9091
:104F9000089550E04B5F5F4FE9CF50E0465F5F4FB1
:104FA000E5CF20912F03309130032130310571F48A
:104FB000A330A9F038F4A230B9F033E0C39FA001C8
:104FC0001124D4CFA43029F0A530B9F74C2F469541
:104FD00007C04C2F469550E0425E5F4FC7CF4C2F25
:104FE00050E070E060E0C6CF4C2F50E0440F551FFA
:104FF000BDCF4C2F469550E0833089F128F48230A4
:10500000D9F0445F5F4F06C0843099F08530C9F70E
:1050100047505109052E000C660B770B82EC95E08A
:10502000CF911F910F91FF90EF90DF90CF900C9454
:10503000895E43505109EECF495F5F4FEBCF84301B
:1050400031F0853009F0B0CE4C2F469507C04C2F7B
:10505000469550E0425E5F4FDDCF4C2F50E070E050
:1050600060E0DCCF4C2F50E0440F551FD3CFEF92C0
:105070000F931F9383E08093170280911A039091FE
:105080001B038230910509F449C18330910509F46D
:105090005DC1019709F42AC10E94EF064091DD0429
:1050A0008130910549F44A50E12C10E000E020E005
:1050B00060E086E090E009C0E12C10E000E020E034
:1050C00060E00397B1F78FE491E00E94E80C8091D3
:1050D0000702853009F4A2C08091DE02882309F41A
:1050E0008AC00E94EF064091DD04E12C81309105D9
:1050F00009F06BC010E000E020E060E084E690E0A2
:105100000E94E80C04E619E121E04091DD0461E031
:1051100083E690E00E94E80C81E08093DD028091BC
:10512000DC02882309F477C00E94EF064091DD0479
:10513000E12C8130910509F061C010E000E020E031
:1051400060E084E690E00E94E80C08EE13E021E0C5
:105150004091DD0461E088E490E00E94E80C81E089
:105160008093DB0280912F0390913003019709F027
:105170001EC10E94EB0910920803109A2091180397
:10518000222329F08091DC02882309F41CC180913C
:1051900007028150990BFC01ED51FA4F3081332306
:1051A00009F40BC130911602332309F406C1880FAC
:1051B000991FFC01EA52FA4F4081518170E060E092
:1051C00083EF95E00E94895EFEC004EF11E021E0CC
:1051D000039769F010E000E020E060E080E690E0F6
:1051E0000E94E80C08EE13E021E04091DD0461E04C
:1051F0008FE590E08FCF1092DD0291CF0CEB12E0A3
:1052000021E0039709F4A6CF10E000E020E060E081
:1052100085E090E098CF1092DB02A4CF0E94EF06C9
:1052200081309105B9F008F44CC00397F1F08091FA
:10523000D1039091D20342E0019709F440E08091BC
:10524000DD04480FE12C10E000E020E060E08BE995
:1052500090E009C0E12C10E000E020E04091DD0486
:1052600060E084E690E00E94E80C8091DE028823F2
:10527000D1F181E08093DD02E12C0CEB12E021E022
:105280004091DD0461E082E690E00E94E80C8091AC
:10529000DC02882309F4BFCF81E08093DB020E9407
:1052A000EF064091DD04E12C08E710E0039711F0D0
:1052B0000CEB12E021E061E088E490E00E94E80C51
:1052C00051CFE12C10E000E020E04091DD0460E0EF
:1052D00081E690E00E94E80C20E04091DD0460E06F
:1052E00080E690E0C0CF1092DD02D1CF85E390E060
:1052F0000E947D0CE12C10E000E020E04091DD04F4
:1053000060E083E390E00E94E80C0CED15E020E003
:105310004091DD0461E084E390E0D0CF8BE390E046
:105320000E947D0CE12C10E000E020E04091DD04C3
:1053300060E089E390E00E94E80C08EE13E020E0D2
:105340004091DD0461E08AE390E0B8CFEE24E3947D
:1053500010E000E020E04091DD0460E086E491E0B0
:105360000E94E80C8091070244EB50E060E070E09E
:105370008330C1F058F448EC50E060E070E08230D7
:1053800089F04CED50E060E070E00CC040EA50E085
:1053900060E070E0843031F04CE850E060E070E0B4
:1053A000853079F78DEC97E00E94895EDBCE0E9414
:1053B000CC0481E080930803E0CE222321F02091E9
:1053C000DC022111F4CE0E94EE1380911A03909119
:1053D0001B0340E050E0BA01039709F04BC08DE495
:1053E00095E00E94895E1092D4051092D505109226
:1053F000A5051092A605109207031092E5020E94DF
:10540000492080911A0390911B03892BB1F580915B
:105410001502882391F166E070E080E090E00E9440
:10542000BB599B01AC01265F3F4F4F4F5F4FA8EE2A
:10543000B3E00E946C77AB01BC0189E395E00E9468
:10544000895E68E070E080E090E00E94BB599B01BB
:10545000AC01295F3F4F4F4F5F4FA8EEB3E00E9472
:105460006C77AB01BC018FE295E01F910F91EF903B
:105470000C94895E8BE695E0B4CF1F910F91EF906D
:105480000895AF92BF92CF92DF92EF92FF920F9367
:105490001F93CF93DF936B01E82E809121039091AE
:1054A0002203019709F077C28DE495E00E94595ECE
:1054B000882309F45EC2F090E402FF2009F43DC0A5
:1054C00080910C028F15C8F10091210310912203E5
:1054D0008F2D8150990BEC01CA59DC4F80911A0332
:1054E00090911B038630910508F047C083309105E9
:1054F00008F0DFC08130910509F4AEC0029709F4CD
:10550000CAC08091E102882309F455C00E94EF06C9
:10551000FE01039709F042C0C491D0E0CE01880F8C
:10552000991FC80FD91FC95CDC4F4FEFB8018EE03F
:105530000E949F12688379838A8380910C02F812FB
:10554000C6C01092E40280911A0390911B03039746
:1055500009F40FC2E0910702E25085E0E43020F444
:10556000F0E0E35BFD4F80814AE050E0481B5109C9
:10557000052E000C660B770BDDC2069709F0C1CF34
:10558000FE01C491D0E0CE01880F991FC80FD91F2A
:10559000C95CDC4F4FEFB8018CE1CACFC491D0E0B9
:1055A000CE01880F991FC80FD91FC95CDC4F4FEF80
:1055B000B80181E0BDCF80910702833089F180F48A
:1055C000823001F1FE01C491D0E0CE01880F991F15
:1055D000C80FD91FC95CDC4F4FEFB80185E0A8CFD9
:1055E000843061F1853071F7FE01C491D0E0CE01C5
:1055F000880F991FC80FD91FC95CDC4F4FEFB80146
:105600008AE096CFFE01C491D0E0CE01880F991FA9
:10561000C80FD91FC95CDC4F4FEFB80187E088CFB6
:10562000FE01C491D0E0CE01880F991FC80FD91F89
:10563000C95CDC4F4FEFB80188E07ACFFE01C4911E
:10564000D0E0CE01880F991FC80FD91FC95CDC4F6D
:105650004FEFB80189E06CCF0E94EF06FE01019781
:1056600069F4C491D0E0CE01880F991FC80FD91FEB
:10567000C95CDC4F4FEFB80184E05ACFC491D0E051
:10568000CE01880F991FC80FD91FC95CDC4F4FEF9F
:10569000B80180E14DCFFE01C491D0E0CE01880F6A
:1056A000991FC80FD91FC95CDC4F4FEFB80186E1C5
:1056B0003FCFFE01C491D0E0CE01880F991FC80FE3
:1056C000D91FC95CDC4F4FEFB80180E031CFF8162D
:1056D00008F04FC12F2D30E0F901EA59FC4FE49159
:1056E000F0E0AF01440F551FE40FF51FE95CFC4FDC
:1056F000C082D182E28240911A0350911B0341156E
:10570000510509F464C04330510509F0A4C0F90102
:10571000319690E0E817F90774F4EA59FC4FE491E8
:10572000F0E0AF01440F551FE40FF51FE95CFC4F9B
:10573000C082D182E282F9013296E817F90774F447
:10574000EA59FC4FE491F0E0AF01440F551FE40F1C
:10575000F51FE95CFC4FC082D182E2822D5F3F4F92
:105760002817390714F52A593C4FF9012491E22FE3
:10577000F0E09F01220F331FE20FF31FE95CFC4FA3
:10578000C082D182E28220911A0330911B03213022
:10579000310509F4C3C0809107022130310508F4B6
:1057A000A4C02330310509F0C1C0809107028330C5
:1057B00009F497C008F07CC0823009F486C083E009
:1057C0008093170244E050E060E070E085C09BEAFF
:1057D000899F812D1124282F2695622F70E090E05B
:1057E00080E059F00E94BB5980910702833079F123
:1057F00030F4823071F16E5F07C060E0F5CF843025
:1058000021F18530C1F7665F2091E40241E0420F4B
:10581000260F3327331FE42FF0E0E217F3070CF0D5
:10582000B2CF80910C02481770F4EA59FC4FE49112
:10583000F0E0CF01880F991FE80FF91FE95CFC4FDA
:10584000C082D182E2824F5FE6CF685FDDCF6A5FC0
:10585000DBCF6D5FD9CF282F26952695622F70E07C
:1058600090E080E019F10E94BB592091E40241E0F0
:10587000420F260F3327331FE42FF0E0E217F30720
:105880000CF081CF80910C02481770F4EA59FC4F5C
:10589000E491F0E0CF01880F991FE80FF91FE95C50
:1058A000FC4FC082D182E2824F5FE6CF60E0DDCF65
:1058B0008430C9F0853009F082CF87E080931702E9
:1058C00042E050E060E070E007C083E080931702A0
:1058D00043E050E060E070E08DE495E00E94895E76
:1058E00043C084E0F3CF86E0F1CF833029F158F450
:1058F00047E050E060E070E0823071F348E050E053
:1059000060E070E0E9CF843021F0853009F45ACFAF
:10591000F5CF45E050E060E070E0DECF80911C0301
:1059200090911D03039769F480910702833009F475
:1059300049CF50F5823069F346E050E060E070E016
:10594000CBCF41E050E060E070E08DE495E00E9454
:10595000895E8091E40290E0049620910C02281761
:10596000190611F40E94501C8091E4028F5F80930D
:10597000E402DF91CF911F910F91FF90EF90DF90A4
:10598000CF90BF90AF900895843009F4A1CF8530B7
:1059900009F496CFD1CF8DE495E00E94595E88231B
:1059A00041F3F090E402FF20B9F180910C028F15D1
:1059B00098F18F2D8150990BEC0180911A039091F1
:1059C0001B03A0902103B09022038E01000F111F32
:1059D0008630910508F044C08330910508F095C0E9
:1059E0008130910509F47BC0029709F486C080914B
:1059F000E102882309F440C00E94EF06C00FD11FC6
:105A0000C95CDC4F4FEFB5010397A1F181E00E9423
:105A10009F12688379838A8380910C02F81298C060
:105A20001092E40280911A0390911B03039709F4EA
:105A3000A0CF8091070246E450E060E070E0833040
:105A400009F478C008F069C045E550E060E070E016
:105A5000823009F46FC044E650E060E070E06AC054
:105A6000069729F6C00FD11FC95CDC4F4FEFB50177
:105A70008CE1CDCF8EE0CBCF809107028330F9F05F
:105A800050F48230A1F0C00FD11FC95CDC4F4FEF42
:105A9000B50185E0BCCF8430D1F08530A1F7C00FCF
:105AA000D11FC95CDC4F4FEFB5018AE0B0CFC00F0A
:105AB000D11FC95CDC4F4FEFB50187E0A8CFC00F05
:105AC000D11FC95CDC4F4FEFB50188E0A0CFC00FFC
:105AD000D11FC95CDC4F4FEFB50189E098CF0E9420
