:100000000C948B030C94BC030C94BC030C94BC03A5
:100010000C94BC030C94BC030C94BC030C94BC0364
:100020000C94BC030C94BC030C94BC030C94BC0354
:100030000C94BC030C94BC030C94BC030C94BC0344
:100040000C94BC030C94BC030C94BC030C94BC0334
:100050000C94BC030C94BC030C94BC030C949E79CC
:100060000C94BC030C94D47A0C94AA7A0C94BC0320
:100070000C94BC030C94BC030C94BC030C94BC0304
:100080000C94BC030C94BC030C94BC030C94BC03F4
:100090000C94807A0C94567A0C94BC030C94FE7ADF
:1000A0000C94BC030C94BC030C94BC030C94BC03D4
:1000B0000C94BC030C94BC030C94BC030C94BC03C4
:1000C0000C94BC030C94BC030C94BC030C94BC03B4
:1000D0000C94BC030C94BC030C942C7A0C94027A00
:1000E0000C94BC030C942A6B0C9440190C94C327F9
:1000F0000C94A5700C94056B0C94E06B0C947273CB
:100100000C94C1450C94BE6B0C94A3700C941544D4
:100110000C94171F0C9468200C942D440C94F71B1E
:100120000C94B9700C949F260C94FB480C946D1D94
:100130000C94FC6A0C94BF170C94CF430C94B770CA
:100140000C94791E0C94F06A0C940C090C949B701E
:100150000C94A41B0C9439530C94371E0C94A85D7A
:100160000C94041B0C94F96C0C94D8590C94A72192
:100170000C941B160C947E280C9489210C94656BAE
:100180000C940B1E0C94FD1C0C94EC1B0C94D61BB5
:100190000C94311C0C948F1C0C948B730C943C2687
:1001A0000C946F6D0C94206E0C949F730C944B1FE9
:1001B0000C9496700C94AC780C94176B0C94D0083B
:1001C0000C9409710C94C5210C94141C0C94C72038
:1001D0000C94B3700C94B1450C94641F0C94136B85
:1001E0000C9450280C94F1590C946B210C94136DC1
:1001F0000C94406D0C9447220C94F2270C94211E11
:100200000C94501A0C948C080C94A0530C945473B6
:100210000C9447190C94096B0C94023E0C9462499F
:100220000C94F86A0C94AF400C9468260C94B31D9F
:100230000C94231A0C949F700C94EA6A0C94EC08AA
:100240000C94A51C0C9468730C94D4180C947B1B10
:100250000C94D9170C9406260C94696B0C94994550
:100260000C946A3E0C9445440C9430330C948E519B
:100270000C94C1080C94E11B0C94311D0C94E520E6
:100280000C94CD1B0C9423480C94DF1D0C94FB673D
:100290000C944F780C94B9450C94FE1F0C94C040FC
:1002A0000C94E0780C94796C0C9492700C94BB1CB8
:1002B0000C9434440C948D700C940C6D0C949878C0
:1002C0000C943A730C9402260C94631E0C94131D28
:1002D0000C94EA6C0C94D8260C948B1D0C9438204A
:1002E0000C941F160C9461520C94A1450C94B125EA
:1002F0000C9493200C94BB1E0C94531A0C945E73B4
:100300000C94C26D0C941D6B0C9426440C94914576
:100310000C944C180C94D26B0C94FD1E0C940B5E38
:100320000C945A200C9426730C9494270C949818CF
:100330000C9478450C94921F0C9436270C94F51D60
:100340000C9437210C94FC250C94AD280C94C921F5
:100350000C94256B0C940A220C94523E0C94850844
:100360000C9439190C94E01A0C947C6D0C949B1A23
:100370000C94D41F0C94AC700C9443250C94BE03C5
:100380000C94075F0C949A080C94F46A0C94561A17
:100390000C946D1C0C9419730C945E250C94521BD8
:1003A0000C94E0170C9476200C94311F0C94D970A7
:1003B0000C94C91D0C9400260C9421210C94B0318E
:1003C0000C94CC240C949D1D0C94DC1A0C94A81F46
:1003D0000C94C4030C94B7190C944C250C94CD5276
:1003E0000C94BE1F0C94A9730C94A1700C94A51EC0
:1003F0000C944D210C948F1E0C94085E0C942C6C64
:100400000C94B7310C9404260C9467250C942B6B38
:100410000C9461200C9440180C94EC590C94261701
:100420000C945C520C94B7810C948D400C94322245
:100430000C9478780C9493080C949D700C94A945B6
:100440000C9448200C94D4170C94E71C0C949573CE
:100450000C94F5510C94F9150C94A8700C94FE258D
:100460000C94EB150C9468780C9470250C94B37371
:100470000C94216B0C94E96C0C942A200C944F1D65
:100480000C9456440C9477750C94666B0C947B6DAD
:100490000C94291B0C9481730C941E480C942128F5
:1004A0000C9421730C94823E0C947C1F0C94EE1FD0
:1004B0000C94BF6D0C947D200C9472780C94A92040
:1004C0000C944C730C94AE700C948F480C943F2594
:1004D0000C94B1700C9450470C942F6B0C94F370E7
:1004E0000C94B7470C949E400C944F1C0C94BB701A
:1004F0000C947F6D0C9403210C94E71E0C940E2039
:100500000C9499700C94AF6B0C94646B0C942F1931
:100510000C946F200C94DE080C94C46D0C94FF6A4C
:100520000C943A330C9489700C941C200C94E01FAA
:100530000C94D11C0C94AA700C94FE150C94AA1760
:100540000C9455250C94B5700C94D11E0C94B314D6
:100550000C9436400C9465270C9444190C940F6B42
:100560000C9407270C94B3310C9444730C94E4213D
:100570000C944D1E0C946B080C949A3E0C947C6E5B
:100580000C9439160C943073000000006410B71DF1
:10059000C8206E3BAC30D9269041DC76F4516B6BB1
:1005A0005861B24D3C7105502083B8ED44930FF073
:1005B000E8A3D6D68CB361CBB0C2649BD4D2D38629
:1005C00078E20AA01CF2BDBD000021002400270033
:1005D0002A002D0030003300010100000401070152
:1005E0000A0100002200250028002B002E00310007
:1005F000340002010000050108010B010000200089
:100600002300260029002C002F00320000010000EA
:100610000301060109010505050507050808080885
:10062000020202020A0A080804040404010101018A
:100630000101010103030303030303030407070785
:100640000C0C0C0C0C0C0C0C02020202060606062A
:10065000060606060B0B0B0B0B0B0B0B01021020F7
:1006600020080810204010204080020102010804E8
:10067000020101020408102040808040201008047C
:1006800002018004020180402010080402010804D5
:100690000201010204081020408001020408102019
:1006A000408000000A0B02090C0D0E08070304012C
:1006B000000000000000000000000000000000003A
:1006C0000000000000000000000000000000121107
:1006D000100000000000000000000000000000000A
:1006E00000000000000000004552524F523A204ED8
:1006F0006F2063616C6C6261636B20617661696C11
:1007000061626C6520666F72207061636B65742036
:1007100049442000B78111241FBECFEFD1E2DEBFD4
:10072000CDBF00E00CBF13E0A0E0B2E0E6E8F0E2ED
:1007300001E00BBF02C007900D92A63CB107D9F7AC
:100740002DE0A6ECB3E001C01D92A23FB207E1F795
:1007500013E0CBE8D3E000E006C021970109802F29
:10076000FE010E94088FCA38D10780E00807A9F768
:100770000E9405850C9441900C940000809109041E
:100780008F5F809309040895809108048F5F8093A0
:10079000080408958DE890E00E9428388EE890E0E3
:1007A0000E9428388FE890E00E94283880E990E085
:1007B0000E94283881E990E00E94283882E990E080
:1007C0000E94283883E990E00E94283884E990E06C
:1007D0000C942838CF93DF931F921F92CDB7DEB7CA
:1007E0001A82198291E09093190480931A047093ED
:1007F0001C0460931B048BED80931D0480914605BF
:1008000090914705039761F440918F0650919006AF
:1008100060919106709192068FE896E00E94B67EF4
:10082000809119048093A30680911A048093A406F2
:1008300080911B048093A50680911C048093A606DA
:1008400080911D048093A70685E090E09A838983B8
:1008500061E0CE0101960E9437710F900F90DF91F9
:10086000CF91089570E060E00C94EA03EF920F934B
:100870001F9390910802981721F18430B9F488E110
:100880000E943204EE24E39410E000E020E0409166
:10089000510660E08CE390E00E94643844E650E04A
:1008A00060E070E084E199E00E94B67E80910802E9
:1008B0008F5F8093080287E11F910F91EF900C9456
:1008C00032041F910F91EF900895809118048111C7
:1008D0000DC080914C0B882349F066E970E08BE0F5
:1008E0000E94E17281E080931804089584E49BE003
:1008F0000E94867E882379F080911804882359F01D
:1009000010924C0B10924D0B70E060E08BE00E9457
:10091000E172109218040895EEE6F9E080917309EF
:10092000808380916D09818380916C09828380919D
:100930006B0983838091340284830895EF920F932F
:100940001F930E94CA03409151064150EE24E39444
:1009500010E000E020E060E08DE890E00E94643864
:100960001092030248EE56E060E070E08CE999E0F6
:100970000E94B67E80911502882331F08FE51F9189
:100980000F91EF900C9432041F910F91EF90089506
:100990001F93CF93DF9310E080910E02181748F554
:1009A0006091940470919504C12FD0E0CE01880F1E
:1009B000991F61307105B9F489579D4FFC01808101
:1009C0009181EC01CC0FDD1FC80FD91FC655DB4F3D
:1009D0004FEF61E070E080E00E94CA3C6883798359
:1009E0008A831F5FD9CFC80FD91FC655DB4F4FEF82
:1009F000F2CFDF91CF911F91089580911A02833039
:100A000071F020F4823069F089E105C0843029F06A
:100A10008530D1F78DE10C9432048CE1FCCF8BE171
:100A2000FACF8AE1F8CF1F93CF93DF9310E0809144
:100A30000E021817B0F4812F90E0EC01CC0FDD1FEF
:100A4000C80FD91FC655DB4F60919404709195046F
:100A50004FEF87E10E94CA3C688379838A831F5FD6
:100A6000E6CFDF91CF911F9108951092070470E0B7
:100A700060E08BE00C94E17260E088E00E943C72E0
:100A800061E08DE00E943C7261E08CE00E943C726B
:100A900060E089E00E943C72EDE5F6E01086118688
:100AA000E3E5F6E0108611860895CF93C82F809174
:100AB0000404C53040F160E00E943C7281E0809304
:100AC000130460E0809103040E943C7281E08093F3
:100AD000120460E0809102040E943C7281E08093E5
:100AE000110460E0809101040E943C7281E08093D7
:100AF000100460E0809100040E943C7281E08093C9
:100B00000F04CF91089561E00E943C72109213048B
:100B1000C430B9F261E0809103040E943C721092EB
:100B20001204C330B1F261E0809102040E943C7271
:100B300010921104C230A9F261E0809101040E9478
:100B40003C7210921004C111D4CF61E08091000476
:100B50000E943C7210920F04D4CF80919A0490911D
:100B60009B048230910581F038F4019799F08091CF
:100B700096049091970408958330910541F004976D
:100B8000B1F783E090E0089581E090E0089582E07D
:100B900090E0089590E080E008950E94AD050297EE
:100BA00070F4E0918A04F0E0EE0FFF1FE751FD4F73
:100BB000808191819093050280930402089582E9D7
:100BC00090E0F8CFEF920F931F93CF93C091020262
:100BD0009091D0098091CB0998130EC0CC2319F0C5
:100BE00085E80E9432041092020280910202CF91A5
:100BF0001F910F91EF9008950E94AD050297029703
:100C0000B0F4C11114C080911502882319F086EC4C
:100C10000E943204409151064150EE24E39410E0CA
:100C200000E020E060E081EB90E00E946438809179
:100C30000202811103C084E80E94320481E08093A3
:100C40000202D3CF8091A4049091A5048130910534
:100C500091F1029731F581E090E09093A7048093A1
:100C6000A6048091A0049091A1048130910541F0E7
:100C7000029731F18091A8049091A904019701F1A4
:100C80001092A3041092A2048091A6049091A7044C
:100C90000197E9F480E190E09093070280930602C7
:100CA00008958091A8049091A9040197A1F20E944F
:100CB000AD05029780F61092A7041092A604D1CF3A
:100CC00081E090E09093A3048093A204DDCF83E0C1
:100CD00090E0E2CFCF93DF9380910002813418F44B
:100CE00081E48093000280919304882309F4D2C1A7
:100CF000E0910504EC3170F1E83308F05BC0C7E324
:100D0000CE1B80918F0490919004049729F08091DC
:100D10000B04882309F479C00E943505D0E0FE0158
:100D2000EC51FC4F80810E940975C853DC4F18823A
:100D30008091050440E550E060E070E0873309F001
:100D40009FC110925509109256091092C703109234
:100D5000050430C0F0E0EC51FC4F80810E94EA7441
:100D600080910504E82FF0E0E853FC4F91E0908378
:100D7000873118F180910002805B0E94C43380911A
:100D800005048F5F809305048C3179F54AE550E0C6
:100D900060E070E08DE499E00E94B67E8091A60448
:100DA0009091A704019731F488E090E090930702B6
:100DB00080930602DF91CF910895813120F08091D8
:100DC0000002885DDACF8C3020F080910002825ED4
:100DD000D4CF853020F0809100028C5ECECF882366
:100DE00071F280910002865FC8CF40910602509157
:100DF0000702440F551F440F551F70E060E08DE45B
:100E000099E0DF91CF910C94B67E8091A6049091E9
:100E1000A70420911A02253018F48130910511F0B1
:100E2000892B51F4D0E0FE01EC51FC4F80810E94EF
:100E30000975C853DC4F18828091A6049091A704CD
:100E4000009719F1019709F0B5CFC0911A02C3308C
:100E500009F496C0C0F5C13009F4E8C0C23009F009
:100E6000A9CF909105049B3209F0C0C0109255099A
:100E7000109256091092C7038BE0809305040E94DC
:100E80002206809100028B5F1AC08091050487338F
:100E900009F0ECC044E050E060E070E08EE199E0E1
:100EA0000E94B67E109255091092560981E08093F7
:100EB000C703109205040E94220680910002DF9170
:100EC000CF910C94C433C43029F1C53009F072CFEE
:100ED00090910504C0910002C75E973389F4109287
:100EE000260910922709109255091092560910925E
:100EF000C7038BE1809305040E9422068C2FDFCF6D
:100F0000109255091092560981E08093C70387E338
:100F1000891BF0CF90910504903279F41092550915
:100F2000109256091092C70386E1809305040E942F
:100F3000220680910002825EC2CF913250F0109260
:100F400055091092560981E08093C70387E3891BF6
:100F5000ECCF4091060250910702440F551F440FF9
:100F6000551F70E060E08DE499E00E94B67E8091AC
:100F700005048F5F8093050480910002845F9FCFFA
:100F800090910504963279F4109255091092560901
:100F90001092C70380E1809305040E94220680918D
:100FA0000002865F8CCF973250F010925509109254
:100FB000560981E08093C70387E3891BECCF4091FA
:100FC000060250910702440F551F440F551F70E051
:100FD00060E08DE499E00E94B67E809105048F5F09
:100FE00080930504809100028C5E69CF9C3250F0A2
:100FF000109255091092560981E08093C70387E348
:10100000891B3BCF4091060250910702440F551FA8
:10101000440F551F70E060E08DE499E00E94B67EB9
:10102000809105048F5F80930504B9CF8091000201
:101030000E94C43390910504923369F410925509CB
:10104000109256091092C70384E080930504DF9143
:10105000CF910C942206933348F0109255091092C8
:101060005609C093C70387E3891BEFCF409106025F
:1010700050910702440F551F440F551F70E060E068
:101080008DE499E00E94B67E809105048F5F809385
:10109000050490CE80918F0490919004049721F0E4
:1010A00080910B04C1E08111C2E0E0910604EA30B6
:1010B00008F080CEF0E08827EF59F74F8F4F0C945F
:1010C000088F6B0885088C0893089A08C108D00817
:1010D000DE08EC080C0980910002865F0E94C43390
:1010E00081E00E94550588E7C89FA0011124052EC4
:1010F000000C660B770B8DE499E00E94B67E809120
:1011000006048F5F8093060455CE809100028C5EAA
:101110000E94C43382E0E5CF80910002825E0E948B
:10112000C43383E0DECF80910002885D0E94C43327
:1011300084E0D7CF80910002805B0E94C43385E0B9
:101140000E94550580910604282F30E02F5F3F4F05
:1011500090911A029217130641F420918F04309156
:1011600090042430310509F050C08F5F809306044D
:1011700088E7C89FA0011124052E000C660B770B91
:101180003ECE80910002885D0E94C43384E00E94BC
:10119000550580910604482F4150550B9A01D8CF30
:1011A00080910002825E0E94C43383E00E94550554
:1011B00080910604482F4350550BF0CF80910002D8
:1011C0008C5E0E94C43382E00E9455058091060423
:1011D000482F4550550BE2CF80910002865F0E9458
:1011E000C43381E00E945505809106048750990B15
:1011F00020911A022817190609F075CF80918F04E3
:1012000090919004049709F46ECF109255091092B2
:10121000560910920604CECD80E00E945505F5CF08
:10122000FF920F931F93CF93DF93809193048823B2
:10123000B1F0C4EED3E008EC13E0FF24F3948991FD
:101240000E94EA74F801F1928F01F4E0C030DF07E8
:10125000B1F7DF91CF911F910F91FF90089585E035
:10126000DF91CF911F910F91FF900C9455058091C4
:101270009104909192048130910539F480918F040A
:1012800090919004892B79F00895892B21F5809114
:101290008F0490919004892BF1F48091A80490918F
:1012A000A9040197C1F40E9436380E94D4380E94E4
:1012B00019718CE18093050485E0809306040E94F7
:1012C000100948E750E060E070E08DE499E00E948A
:1012D000B67E0C946A060895FF920F931F93CF93E6
:1012E000DF9380919304882309F41BC18EE199E078
:1012F0000E94867E8823B9F18091A6049091A7046C
:101300000197B9F193E0F92E04E015E0D6E0C7E0CB
:10131000E09105048091C703882309F482C0EC3171
:1013200068F4F0E0EC51FC4F80810E94EA74E09197
:101330000504F0E0E853FC4F81E0808380911A02BD
:10134000833009F453C0E0F4813009F461C0823085
:1013500009F455C08091C703882329F080910504C2
:101360008F5F80930504DF91CF911F910F91FF90C4
:1013700008958AE0F82E0AE01AE0DAE0CAE0C8CF61
:10138000843041F1853031F7809105048C31C8F00B
:101390001092C7038BE1809305048091A60490917D
:1013A000A704019729F41092260910922709D2CF99
:1013B0004AE550E060E070E08EE199E00E94B67E80
:1013C000C9CF84E0F89EA0011124052E000C660B05
:1013D000770BF2CF80910504863118F01092C70385
:1013E000DCCF84E0089FA0011124EFCF8091050499
:1013F0008031A0F784E0189FA0011124E6CF8091EE
:1014000005048B3058F784E0D89FA0011124DDCF6C
:1014100080910504843010F784E0C89FA001112456
:10142000D4CFEC3160F4F0E0EC51FC4F80810E94AD
:101430000975E0910504F0E0E853FC4F10828091BB
:101440000504811110C081E08093C7034AE550E094
:1014500060E070E08EE199E0DF91CF911F910F91F4
:10146000FF900C94B67E81508093050490911A02EF
:101470009330D9F1A0F4913009F445C0923009F0CD
:1014800072CF2091A6043091A7042130310511F4C8
:101490008C3098F048E150E060E070E0DBCF9430B1
:1014A000B1F0953009F05FCF2091A6043091A704E8
:1014B0002130310539F48C3128F41092260910922C
:1014C000270951CF4CE050E060E070E0C3CF20919D
:1014D000A6043091A7042130310511F4873168F357
:1014E00040E150E060E070E0B5CF2091A60430917B
:1014F000A7042130310511F48131F8F244E150E0C4
:1015000060E070E0A7CF2091A6043091A7042130BD
:10151000310511F4853088F24CE150E060E070E074
:1015200099CF80911A028330B9F038F4813061F09C
:10153000823009F018CF82E008C0843079F085301D
:1015400009F011CF85E001C081E0DF91CF911F91BB
:101550000F91FF900C94550583E0F7CF84E0F5CF11
:10156000EF92FF920F931F93CF93DF9380911A0214
:1015700090919304992309F49CC0833009F45FC0CF
:1015800058F4813001F18230E9F1DF91CF911F9160
:101590000F91FF90EF900895843009F46DC0C4EE70
:1015A000D3E008EC13E0FF24F394853071F78991C0
:1015B0000E94EA74F801F1928F01F4E0C030DF0775
:1015C000B1F78BE117C034EEE32E33E0F32E08ECD5
:1015D00013E0C0E0D1E0F70181917F01C53068F4EC
:1015E0000E94EA74F801D083CF5F0F5F1F4FCC31A8
:1015F00091F784E080930504C8CF0E940975F80133
:101600001082F2CF24EEE22E23E0F22E08EC13E05B
:10161000C0E0D1E0F70181917F01CC3058F40E9405
:10162000EA74F801D083CF5F0F5F1F4FCC3191F781
:101630008BE0E0CF0E940975F8011082F4CF94EEA0
:10164000E92E93E0F92E08EC13E0C0E0D1E0F701B9
:1016500081917F01C13158F40E94EA74F801D0836E
:10166000CF5F0F5F1F4FCC3191F780E1C3CF0E9456
:101670000975F8011082F4CF84EEE82E83E0F82E8D
:1016800008EC13E0C0E0D1E0F70181917F01C731A0
:1016900058F40E94EA74F801D083CF5F0F5F1F4FA8
:1016A000CC3191F786E1A6CF0E940975F80110822E
:1016B000F4CF8330C1F038F4813061F0823009F02A
:1016C00064CF82E008C0843081F0853009F05DCFBE
:1016D00085E001C081E0DF91CF911F910F91FF90D4
:1016E000EF900C94550583E0F6CF84E0F4CF809121
:1016F000830481111AC0EFE3F2E0A4EEB3E081911C
:101700008D9382E0EB35F807D1F787E380930004EF
:1017100088E38093010489E3809302048AE3809341
:1017200003048BE3809304040895EBE5F2E0A4EE58
:10173000B3E087E792E021912D938E179F07D9F7A9
:101740008BE3809300048AE38093010489E3809310
:10175000020488E38093030487E3E4CF0E942975A1
:10176000E8ECF3E0119283E0E43EF807D9F708953E
:1017700080919304882321F00E94AE0B10920504FF
:10178000089580919304882361F10E94B80B60E072
:1017900088E00E943C7260E089E00E943C7260E058
:1017A00086E10E943C7260E087E10E943C720E94E8
:1017B0006B4461E08DE00E943C7261E08CE00E942D
:1017C0003C72109206041092050480916506811106
:1017D0000CC040E65AEE60E070E08DE596E00C94B7
:1017E000B67E80E00E945505D2CF0895EF920F9308
:1017F0001F93EE24E39410E000E020E040915106B6
:1018000060E084E490E00E94643810920904109231
:10181000080470E060E08BE00E94E17285E0809354
:1018200001021092900410928F040E94C10B0E943A
:10183000C8040E9422060E94CD0584EC0E94320456
:1018400085EC1F910F91EF900C94320420918F043E
:1018500030919004A901435051094230510518F0CC
:101860002630310511F4882329F190911A02209134
:101870000A02921303C0811112C00895291778F447
:1018800081E08093C7039330F1F060F4913001F16F
:101890004EE150E060E070E0923089F008951092DF
:1018A000C703F1CF943039F04CE350E060E070E0D2
:1018B000953029F008954DE250E060E070E08EE14F
:1018C00099E00C94B67E44E250E060E070E0F7CF1F
:1018D00049E150E060E070E0F2CFEF920F931F9388
:1018E00080911604880F880F8093160487E00E9469
:1018F0001372892B29F0809116048260809316045C
:1019000086E00E941372892B29F080911604816071
:1019100080931604809116048F7080931604482FCC
:1019200050E0FA01E958FD4F9081992309F4E3C191
:10193000209114043091150494E0220F331F9A95DE
:10194000E1F7282B352B309315042093140433270B
:101950002B32310509F458C02731310509F0CBC1CC
:1019600021E090911704920F9093170420918F0417
:10197000309190042830310509F49FC22930310597
:1019800009F444C02630310509F0CEC48B30E1F4AF
:1019900080910102843009F0B8C320919C043091F9
:1019A0009D04232B09F022C42091290B9091240B34
:1019B00029131CC42091150A9091100A291709F4C3
:1019C00015C482E50E94320480911604873009F024
:1019D00092C180910102843009F03AC420919C04A4
:1019E00030919D04232B09F083C12091290B909104
:1019F000240B29137DC12091150A9091100A2917F3
:101A000009F476C181E540C02FEFABCF8B30E1F414
:101A100020919C0430919D04809101022230310577
:101A2000C1F5853009F0CFC52091290B9091240B89
:101A30002913BDC02091150A9091100A291709F4A5
:101A4000B6C087EB0E94320480911604873009F0FB
:101A500052C120919C0430919D048091010222305A
:101A6000310509F03FC1853009F041C69091290B3D
:101A70008091240B98133EC69091150A8091100A0C
:101A8000981709F437C688EB1F910F91EF900C94CB
:101A900032042330310509F088C0853079F4209173
:101AA000290B9091240B29134BC04091150A3091BA
:101AB000100A431709F444C081E9C4CF843079F493
:101AC0002091290B9091240B291346C04091150AAF
:101AD0003091100A431709F43FC080E9B3CF833037
:101AE00071F42091290B9091240B29133FC0409150
:101AF000150A3091100A4317C9F18FE8A3CF82303D
:101B000071F42091290B9091240B291339C0409135
:101B1000150A3091100A431799F18EE893CF81305E
:101B200009F007C59091290B8091240B981332C0BE
:101B30003091150A2091100A321761F18DE882CF99
:101B40002917A9F12091150A9091100A29132FC085
:101B500085E00E94437F78CF291749F12091150A2B
:101B60009091100A291323C084E0F3CF2917F9F0CC
:101B70002091150A9091100A291319C083E0E9CF2A
:101B80002917A9F02091150A9091100A29130FC066
:101B900082E0DFCF981709F4CFC49091150A8091A5
:101BA000100A9813C9C481E0D4CF823010F081505C
:101BB00008C02115310541F02130310509F44BC031
:101BC00081E08093010240CF81E090E090939D04FA
:101BD00080939C0485E08093010261E088E00E948C
:101BE0003C7261E08DE00E943C7261E08CE00E94FA
:101BF0003C7260E089E00E943C728FE390E00E94BA
:101C00002838EE24E39410E000E020E040915106F3
:101C100060E08FE390E00E94643885EF90E00E94DE
:101C2000283886EF90E00E94283887EF90E00E94E5
:101C3000283888EF90E00E94283889EF90E00E94D1
:101C4000283820E04091510660E086EF90E00E9445
:101C500064388BE4F7CE82E090E090939D0480930B
:101C60009C0485E08093010261E088E00E943C7260
:101C700060E08DE00E943C7261E08CE00E943C726A
:101C800060E089E00E943C728FE390E00E94283877
:101C9000EE24E39410E000E020E04091510660E083
:101CA0008FE390E00E94643885EF90E00E9428382E
:101CB00086EF90E00E94283887EF90E00E94283855
:101CC00088EF90E00E94283889EF90E00E94283841
:101CD00020E04091510660E087EF90E00E94643878
:101CE0008CE4B0CE2330310551F0853008F096C039
:101CF0008F5F809301021F910F91EF9008958530BF
:101D000079F49091290B8091240B98134CC0309159
:101D1000150A2091100A321709F445C08CE8B4CE98
:101D2000843079F42091290B9091240B29134AC017
:101D30004091150A3091100A431709F443C08BE80B
:101D4000A3CE833079F42091290B9091240B291391
:101D500044C04091150A3091100A431709F43DC060
:101D60008AE892CE823071F42091290B9091240B55
:101D700029133EC04091150A3091100A4317C1F152
:101D800089E882CE813009F068C42091290B9091B6
:101D9000240B291338C04091150A3091100A4317BB
:101DA00091F188E871CE981709F45AC49091150AF8
:101DB0008091100A981354C485E01F910F91EF9001
:101DC0000C940280291709F493CF2091150A909161
:101DD000100A29138DCF84E0F0CF291709F488CF9A
:101DE0002091150A9091100A291382CF83E0E5CF44
:101DF000291709F47DCF2091150A9091100A291313
:101E000077CF82E0DACF291709F472CF2091150A33
:101E10009091100A29136CCF81E0CFCF213031058A
:101E200009F42EC12430310509F0F7C483E090E0B5
:101E300090939D0480939C0481E08093010261E073
:101E400088E00E943C7260E08DE00E943C7260E09D
:101E50008CE00E943C7260E089E00E943C728FE35B
:101E600090E00E942838EE24E39410E000E020E0A7
:101E70004091510660E08FE390E00E94643885EF66
:101E800090E00E94283886EF90E00E94283887EF83
:101E900090E00E94283888EF90E00E94283889EF6F
:101EA00090E00E94283820E04091510660E088EFE1
:101EB00090E00E9464388DE4E7CD8B3031F580915D
:101EC000010220919C0430919D04232B09F085C0D0
:101ED000843009F04EC02091290B9091240B2917D2
:101EE00009F481C02091150A9091100A29137BC032
:101EF00090911B0280911C02923078F18E3F68F124
:101F0000915090931B020E94130580911604873014
:101F100009F0F1CE20919C0430919D048091010242
:101F20002115310509F0A5C0843009F06EC020915B
:101F3000290B9091240B291709F4DACE2091150A68
:101F40009091100A2913D4CE80911C028E3F08F084
:101F50004CC08F5F80931C024FC091E090931B0296
:101F6000823020F0815080931C02CDCF90931C02D0
:101F7000CACF833081F42091290B9091240B29172B
:101F800091F12091150A9091100A29132CC080E735
:101F90000E943204BACF823071F42091290B9091C3
:101FA000240B291701F12091150A9091100A291389
:101FB0001AC08FE6EDCF813009F0E2C39091290B72
:101FC0008091240B981709F4DEC39091150A809133
:101FD000100A9813D8C38EE6DBCF823020F481E05C
:101FE0008093010292CF8150FBCF80911B028D3FE5
:101FF00040F48F5F80931B021F910F91EF900C9420
:1020000013058EEF80931B02A5CF833079F42091C6
:10201000290B9091240B291709F46ACE2091150AF7
:102020009091100A291364CE81E72ECD823079F485
:102030002091290B9091240B291709F459CE209156
:10204000150A9091100A291353CE82E71DCD8130D5
:1020500009F0E0C32091290B9091240B291709F472
:1020600047CE2091150A9091100A291341CE83E79B
:102070000BCD853008F43CCE2130310509F0CDC3BD
:1020800010929D0410929C0481E08093010260E014
:1020900088E00E943C7261E08DE00E943C7261E049
:1020A0008CE00E943C7260E089E00E943C728FE309
:1020B00090E00E942838EE24E39410E000E020E055
:1020C0004091510660E08FE390E00E94643885EF14
:1020D00090E00E94283886EF90E00E94283887EF31
:1020E00090E00E94283888EF90E00E94283889EF1D
:1020F00090E00E94283820E04091510660E085EF92
:1021000090E00E9464388AE4BFCC833009F44CC06C
:10211000823008F06BC08091910490919204892BD9
:1021200009F092C080919C0490919D04892B09F044
:102130008BC081E090E090939D0480939C0485E0A7
:102140008093010261E088E00E943C728FE390E09E
:102150000E942838EE24E39410E000E020E0409153
:10216000510660E08FE390E00E94643885EF90E0D4
:102170000E94283886EF90E00E94283887EF90E090
:102180000E94283888EF90E00E94283889EF90E07C
:102190000E94283820E04091510660E086EF90E0F0
:1021A0000E9464388BE40ECC20919C0430919D04F5
:1021B000232BE1F42091290B9091240B29130AC0C1
:1021C0004091150A3091100A431721F00E944C816A
:1021D00082E4F8CB291751F02091150A9091100A4A
:1021E000291304C090914305911102C081502DC064
:1021F00080911D02853020F510921D0280E490E050
:102200000E942838409152064A50EE24E39410E090
:1022100000E020E060E080E490E00E94643880917B
:102220001D0223E2829FC001112464E670E00E9437
:10223000F48E6352609350060E94BB3684E4C2CB96
:10224000855080931D02EBCF81E080930102BCCBCF
:102250008330D9F0853008F44BCD80919104909172
:102260009204892B09F0D9C280919C0490919D041D
:10227000019709F0D2C210929D0410929C0481E053
:102280008093010260E088E010CF20919C0430919F
:102290009D04232B09F02CCD2091290B9091240B28
:1022A00029130AC04091150A3091100A431721F0F2
:1022B0000E947B8181E4E8CB291709F419CD209194
:1022C000150A9091100A291313CD90914305992373
:1022D00009F40ECD80911D02803608F443C084E6D7
:1022E00080931D0280E490E00E94283840915206BD
:1022F0004A50EE24E39410E000E020E060E080E447
:1023000090E00E94643880911D0223E2829FC00108
:10231000112464E670E00E94F48E635260935006CC
:102320000E94BB3683E4B0CB2430310509F4E3CC02
:1023300090910B049111DFCC2330310509F0F5C0E9
:1023400090911A02953081F480911A02853009F437
:10235000D2CC23E030E082C091E00FC08550809362
:102360001D0262C08B5FDEC08B3071F78091A804C4
:102370009091A904019781F792E080911A02981731
:10238000E0F5209191043091920421303105A9F5B6
:1023900080930A02815080931A028091A604909142
:1023A000A704019739F480919304882319F080E001
:1023B0000E94260C80910A04882361F08091930486
:1023C000882341F08091A2049091A304019711F415
:1023D0000E94B00A0E9436380E94AD05029730F480
:1023E00090919F0A80919A0A981305C00E941971D2
:1023F00080E00E9471390E94FD04809191049091C7
:102400009204892B19F580918D0490918E04089780
:10241000E9F0809143058823C9F080911D02853041
:1024200008F09CCF10921D0280911D0223E2829F32
:10243000C001112464E670E00E94F48E6352609340
:1024400050060E94BB3684E40E94320420918F041F
:10245000309190042330310509F476CF8091160431
:10246000873009F048CC80911A02853008F041C0CD
:10247000409191045091920441305105D1F584303E
:1024800019F423303105A9F180930A028F5F8093FC
:102490001A028091A6049091A704019739F48091C3
:1024A0009304882319F080E00E94260C80910A048E
:1024B000882361F080919304882341F08091A204E5
:1024C0009091A304019711F40E94B00A0E9436383B
:1024D0000E94AD05029730F490919F0A80919A0A6C
:1024E000981305C00E94197180E00E9471390E9402
:1024F000FD048091910490919204892B09F0FBCB0B
:1025000080918D0490918E04089709F4F4CB80910A
:102510004305882309F4EFCB80911D02803608F42F
:1025200021CF84E680931D02EECE8B3009F096CF4A
:102530001DCF823008F03BCB84E090E090939D0467
:1025400080939C0485E08093010261E088E00E9412
:102550003C7260E08DE00E943C7260E08CE00E9482
:102560003C7261E089E00E943C728FE390E00E943F
:102570002838EE24E39410E000E020E0409151067A
:1025800060E08FE390E00E94643885EF90E00E9465
:10259000283886EF90E00E94283887EF90E00E946C
:1025A000283888EF90E00E94283889EF90E00E9458
:1025B000283820E04091510660E089EF90E00E94C9
:1025C00064388EE43FCA823008F0F1CA83E090E0BC
:1025D00090939D0480939C0485E08093010261E0C8
:1025E00088E00E943C7260E08DE00E943C7260E0F6
:1025F0008CE00E943C7260E089E00E943C728FE3B4
:1026000090E00E942838EE24E39410E000E020E0FF
:102610004091510660E08FE390E00E94643885EFBE
:1026200090E00E94283886EF90E00E94283887EFDB
:1026300090E00E94283888EF90E00E94283889EFC7
:1026400090E00E94283820E04091510660E088EF39
:1026500090E00E9464388DE4F5C9853008F448CBD9
:1026600082E090E090939D0480939C0481E08093AD
:10267000010261E088E00E943C7260E08DE00E940F
:102680003C7261E08CE00E943C7260E089E00E9454
:102690003C728FE390E00E942838EE24E39410E02F
:1026A00000E020E04091510660E08FE390E00E945E
:1026B000643885EF90E00E94283886EF90E00E9411
:1026C000283887EF90E00E94283888EF90E00E9439
:1026D000283889EF90E00E94283820E04091510688
:1026E00060E087EF90E00E9464388CE4CDC98530CB
:1026F00008F4FECA81E090E090939D0480939C04CE
:102700008093010261E088E00E943C7261E08DE00C
:102710000E943C7261E08CE00E943C7260E089E0C3
:102720000E943C728FE390E00E942838EE24E394EC
:1027300010E000E020E04091510660E08FE390E07F
:102740000E94643885EF90E00E94283886EF90E080
:102750000E94283887EF90E00E94283888EF90E0A8
:102760000E94283889EF90E00E94283820E04091AC
:10277000510660E086EF90E00E9464388BE484C9E3
:10278000823008F030CC81E090E090939D048093FB
:102790009C0485E08093010261E088E00E943C7225
:1027A00061E08DE00E943C7261E08CE00E943C722E
:1027B00060E089E00E943C728FE390E00E9428383C
:1027C000EE24E39410E000E020E04091510660E048
:1027D0008FE390E00E94643885EF90E00E942838F3
:1027E00086EF90E00E94283887EF90E00E9428381A
:1027F00088EF90E00E94283889EF90E00E94283806
:1028000020E04091510660E086EF90E00E9464383D
:102810008BE4BECB853008F46BCA85E06ACA809130
:102820009104909192048130910539F480918F0444
:1028300090919004892B79F00895892BB1F58091BE
:102840008F0490919004892B81F58091A804909138
:10285000A904019751F50E94B80B10928D061092B1
:102860008E0680918204811120C08091A6049091EF
:10287000A704019799F40E9422068091930488236B
:1028800049F08091A6049091A704019719F480E083
:102890000E94260C0E94FD040C946A0686E090E0DB
:1028A0009093070280930602E8CF0895CF92DF92BB
:1028B000EF92FF920F931F93CF93DF9300D0CDB78A
:1028C000DEB71B828FEF89838091BE089091BF088D
:1028D000DC01ED91FC910084F185E02D1995892BA7
:1028E00009F44DC081E08B838091BE089091BF08B0
:1028F000DC01ED91FC910084F185E02D1995892B87
:10290000F1F08091BE089091BF08DC01ED91FC913F
:102910000284F385E02D19958983BE016D5F7F4F99
:10292000CE0101960E94E2778093BC088091A608B0
:102930008093BD088330C1F287FD0E94F3718091BE
:10294000BC08882381F08091B108882361F084302D
:1029500011F40C94BA2208F5813009F49BC082303E
:1029600011F40C945D220F900F900F90DF91CF9196
:102970001F910F91FF90EF90DF90CF900895BE01CF
:102980006D5F7F4FCE0101960E94E2778093BC0875
:102990008091A6088093BD08CFCF853011F40C94A8
:1029A0001D24A1EAB7E0E4E2F4E08630E1F68D917F
:1029B000819384E0E333F807D1F7809124048230D7
:1029C00011F40C9494241092A9041092A8048091FC
:1029D0002504823011F40C949C2410920E0440E6DD
:1029E0005AEE60E070E08DE596E00E94B67E809140
:1029F0002604823011F40C94A124843011F40C9438
:102A0000AC24813011F00C94A924109297041092F8
:102A100096040E9422060E94CD05809127048130F1
:102A200011F00C94AF2410920B0280912804823094
:102A300011F40C94BC2480910D04882371F08091D2
:102A4000910490919204009741F010920C04029727
:102A500011F00C94B4240E94474B10920D04809105
:102A6000290480931A0280930A02E0912A04E2501A
:102A7000E73010F00C94C124F0E08827ED5BFA4EAB
:102A80008F4F0C94088FCC2443254C2555255E256B
:102A9000672570259091A10790936204E091A207A9
:102AA000E09363048091A307809364048091A4075A
:102AB000809365048091A50780936604EE2309F452
:102AC00052CF913009F04FCF873709F04CCFE090CB
:102AD0006404F0906504E250E53708F044CFF0E07C
:102AE0008827EA58FA4E8F4F0C94088FEB15F9158A
:102AF000B314FE15B3141B161F164719B719E01AA5
:102B0000041BCD1BD61BE11BEC1B501A531A561A83
:102B10009B1ADC1A3F25B314291B521B7B1BA41BD9
:102B20006D1D311D4F1D131DF71B141C311C4F1C37
:102B30008F1CA51CBB1CD11CE71CFD1CC921C52179
:102B400032222F193919FD1E171F311F8B1D4B1FE4
:102B5000641F5A20612068206F207620D41FE01F58
:102B6000EE1FFE1F0E201C202A20382048207D202A
:102B70009320A920C720E5200321212137214D21C1
:102B80006B218921A721401944197C1F921F231A08
:102B90008F1E791EBB1EA51ED11EE71E6D1CD417ED
:102BA000D9174C189818D418E4210A22E0174018B5
:102BB000A81FBE1F9D1DB31DC91DDF1DF51D0B1ECA
:102BC000211E371E4D1E631EAA17BF173916261762
:102BD000B314B3144722809146059091470503979B
:102BE00021F083E00E943204BECE82E00E943204D3
:102BF000BACE1092A1061092A206B5CE84E00E9431
:102C000032040E94E205882319F084E80E9432040D
:102C100042EB5CE060E070E08FE896E00E94B67EF8
:102C200061E08CE00E943C7283E090E09093470565
:102C30008093460598CE81E080930D0494CE8091D8
:102C40000D04882361F08091910490919204009783
:102C500031F010920C04029729F40E94474B109215
:102C60000D0481CE81E090E09093900480938F04D6
:102C7000F6CF81E080931E0494EC90931F049BEDAB
:102C800090932304E0E2F4E093E0DF011D929A9533
:102C9000E9F720919404309195042130310509F42D
:102CA000A0C01092480480911B0280934904809137
:102CB0001C0280934A048091870480934B04809186
:102CC000850480934C048091170280934D04809179
:102CD0008904882309F488C083E080934E0480919E
:102CE0000C028093510480911502809350048091CE
:102CF0008404809352048091130280935304809142
:102D000012028093540480911402809355048091A0
:102D10009A0490919B048230910509F477C008F0E1
:102D20006BC0019709F470C081E0809356048091D4
:102D30009804909199048230910509F475C008F0C7
:102D400069C0019709F46EC081E0809357048091B7
:102D50009E0490919F048230910509F469C08330EC
:102D6000910509F467C0019709F066C081E080937E
:102D70004F0480918304809358048091820480934F
:102D800059048091A4049091A5048130910509F41F
:102D900055C0029709F454C081E080935A04809191
:102DA000A0049091A1048130910509F44BC00297D1
:102DB00009F44AC081E080935B04E8E4F4E0A3EA0C
:102DC000B6E081918D9324E0EC35F207D1F784E1F0
:102DD00090E09A83898364E0CE0101960E94377166
:102DE000C2CD809348045FCF80918804882311F07E
:102DF00082E073CF81E071CF8330910549F0049771
:102E000009F092CF85E091CF82E08FCF83E08DCF24
:102E100084E08BCF8330910549F0049709F094CF7B
:102E200085E093CF82E091CF83E08FCF84E08DCF98
:102E300082E09DCF83E09BCF84E099CF82E0ADCF4D
:102E400083E0ABCF82E0B7CF83E0B5CF81E0809362
:102E50001E0485EC80931F048BED80932304E0E235
:102E6000F4E083E0DF011D928A95E9F78091340256
:102E700080933E0480916B0980933F0480916C099C
:102E80008093400480916D0980934104809173097F
:102E9000809342046091200270912102809122026D
:102EA0009091230228EEC22E23E0D22EE12CF12CA9
:102EB000A70196010E94DC8D2093430460912402B7
:102EC000709125028091260290912702A701960118
:102ED0000E94DC8D209344046091280270912902A5
:102EE00080912A0290912B02A70196010E94DC8D0D
:102EF0002093450460912C0270912D0280912E0246
:102F000090912F02A70196010E94DC8D2093460428
:102F100060913002709131028091320290913302BF
:102F2000A70196010E94DC8D20934704E3E3F4E0BF
:102F3000A3EAB6E081918D9324E0E834F207D1F75B
:102F400085E190E09A83898365E0CE0101960E9435
:102F5000377109CD86E191E00E94283887E191E040
:102F60000E942838EE24E39410E000E020E0409135
:102F7000510660E086E191E00E946438F4CC86E17D
:102F800091E00E94283887E191E00E942838EE24E1
:102F9000E39410E000E020E04091510660E087E11A
:102FA00091E00E946438DFCC1092A9041092A8042A
:102FB000DACC81E090E09093A9048093A804D3CC6C
:102FC0008091910490919204892B09F4CCCC0E94B9
:102FD000B80B10928D0610928E0660E087E10E9479
:102FE0003C721092900410928F048091820481119F
:102FF00008C08091A6049091A704019731F50E9422
:1030000022060E94AD05029738F58CE491E00E94FB
:103010002838EE24E39410E000E020E040915106CF
:1030200060E08CE491E00E94643890919F0A809166
:103030009A0A981739F00E94AD050297029710F48A
:103040000E949E040E946A068ECC86E090E09093D7
:10305000070280930602D5CF89E491E00E942838C8
:10306000EE24E39410E000E020E04091510660E09F
:1030700089E491E00E94643881E00E947139D5CFE3
:103080008091910490919204892B09F46CCC109258
:10309000900410928F0467CC81E080930E0480919D
:1030A0008F0490919004892B09F05DCC809191045C
:1030B00090919204892B09F056CC8091A8049091AC
:1030C000A904019709F04FCC90919F0A80919A0A28
:1030D000981349CC90915A0A8091550A981343CC81
:1030E00080911502882331F08FEC0E9432048EEC1F
:1030F0000E9432048BEF90E00E9428388CEF90E021
:103100000E942838EE24E39410E000E020E0409193
:10311000510660E08CEF90E00E9464388091930447
:10312000882319F080E00E94260C0E940F141BCC0B
:1031300010920E048091A8049091A904019709F0BF
:1031400012CC90919F0A80919A0A981324C0909172
:103150005A0A8091550A98131EC08091150288233F
:1031600031F08DEC0E94320480ED0E9432048BEF2E
:1031700090E00E9428388CEF90E00E942838EE24DE
:10318000E39410E000E020E04091510660E08BEF16
:1031900090E00E94643840E65AEE60E070E08DE511
:1031A00096E00E94B67EDFCB8091910490919204CC
:1031B000019709F0D8CB80918F04909190048D7F76
:1031C000049709F4D0CB80910D04882309F4CBCB6C
:1031D00080910B048111C7CB80911702882309F4D9
:1031E000C2CB0E94AD05029768F480911502882336
:1031F00031F08EE50E94320489EC0E9432040E9474
:103200004F4FB1CB81E190E00E942838EE24E39447
:1032100010E000E020E04091510660E081E190E0A4
:103220000E94643890919F0A80919A0A981739F306
:103230000E94CA0340915106415020E060E081E9BC
:1032400090E00E946438809115028823C1F28EE5D7
:103250000E94320489EC0E94320486E6CECF80912F
:10326000520680934F068AEB809352060E94AA363C
:103270007ACB80914F06809352060E94AA3673CB78
:1032800081E080930B026FCB10920B026CCB81E03C
:1032900080930B0480919104909192048230910567
:1032A00009F10197B9F461E087E10E943C720E9444
:1032B000370980918D0490918E04089759F48AE023
:1032C0000E94320410928E0410928D041092900489
:1032D00010928F0440E951E060E070E08AE099E0EC
:1032E0000E94B67E8091910490919204019709F01A
:1032F0003ACB80910B02811136CB80918F04909153
:103300009004049709F42FCB0E94AD050297A0F01A
:1033100090919F0A80919A0A98130E94CA03409143
:1033200051064150EE24E39410E000E020E060E01C
:1033300081E990E00E94643880911502882331F081
:103340008EE50E94320489EC0E94320481E190E013
:103350000E942838EE24E39410E000E020E0409141
:10336000510660E081E190E00E946438FCCA8091DF
:10337000910490919204029771F160E087E10E94BC
:103380003C7210921209109213098091910490914D
:103390009204019701F58091A8049091A9040197E6
:1033A000B1F490919F0A80919A0A981314C0909159
:1033B0005A0A8091550A98130EC09091E40A8091A0
:1033C000DF0A981308C080910B04882321F0109223
:1033D0000B040E940F1410920B04809191049091A1
:1033E0009204019709F0BFCA80910B02882309F467
:1033F000BACA80918F0490919004049709F4B3CADB
:1034000081E00E9471390E94AD050297029708F091
:10341000AACA89E491E00E942838EE24E39410E0DF
:1034200000E020E04091510660E089E491E00E94D4
:10343000643890919F0A80919A0A981709F493CA68
:103440000E949E0490CA10928609109287091092D9
:103450007C0910927D0910921C0910921D0910928E
:1034600012091092130980910A04882371F061E017
:1034700086E10E943C720E94AD05029760E00297CF
:1034800008F461E087E10E943C7286E10E94320408
:103490008CE390E00E94283881E08093080263CAA0
:1034A0000E947B8160CA0E944C815DCA80911F028C
:1034B00090910902282F30E02C5F3F4F921713069E
:1034C00009F0ACF590931F0280911F02A3E28A9F3E
:1034D000C001112464E670E00E94F48E6352609390
:1034E000520660934F0680910D04811110C080E454
:1034F00090E00E942838EE24E39410E000E020E001
:103500004091520660E080E490E00E94643880912F
:103510004405909145050197029708F024CA8091CF
:103520005206082E000C990B0E94ED6E1CCA8B5F90
:1035300080931F02C9CF809152068A3B21F180916E
:103540001F028530A8F510921F0280911F02B3E27E
:103550008B9FC001112464E670E00E94F48E8DED13
:10356000860F8093520680934F0620914405309138
:103570004505215031092230310528F4082E000C70
:10358000990B0E94ED6E80910D048111ECC980E4CD
:1035900090E00E942838EE24E39410E000E020E060
:1035A0004091520660E080E490E00E946438DBC9FC
:1035B000855080931F02C9CF81E080934205D3C913
:1035C00081E08093110280E490E00E942838EE248C
:1035D000E39410E000E020E04091510660E080E4D8
:1035E00090E00E94643880E590E00E94283881E5F0
:1035F00090E00E94283820E04091510660E080E58C
:1036000090E00E946438AFC91092110280E490E00B
:103610000E942838EE24E39410E000E020E040917E
:10362000510660E080E490E00E94643881E590E01B
:103630000E94283880E590E00E94283820E04091E0
:10364000510660E081E590E00E9464380E943505F3
:103650008AC980E490E00E942838EE24E39410E0C8
:1036600000E020E04091510660E080E490E00E949C
:10367000643888E690E00E94283886E690E00E9450
:10368000283887E690E00E9428388BE491E00E9479
:10369000283820E04091510660E086E690E00E94E4
:1036A000643861C980E490E00E942838EE24E394F5
:1036B00010E000E020E04091510660E080E490E0FE
:1036C0000E94643888E690E00E94283886E690E000
:1036D0000E94283887E690E00E9428388BE491E029
:1036E0000E94283820E04091510660E087E690E093
:1036F0000E94643838C980E490E00E942838EE24A3
:10370000E39410E000E020E04091510660E080E4A6
:1037100090E00E94643888E690E00E94283886E6AF
:1037200090E00E94283887E690E00E9428388BE4D9
:1037300091E00E94283820E04091510660E088E640
:1037400090E00E9464380FC980E490E00E9428381D
:10375000EE24E39410E000E020E04091510660E0A8
:1037600080E490E00E94643888E690E00E94283867
:1037700086E690E00E94283887E690E00E9428388C
:103780008BE491E00E94283820E04091510660E0EF
:103790008BE491E00E946438E6C81092970410927E
:1037A00096040E9422060E94CD05DDC881E090E0CB
:1037B00090939704809396040E9422060E94CD0560
:1037C000D2C882E090E090939704809396040E9480
:1037D00022060E94CD05C7C883E090E0909397042D
:1037E000809396040E9422060E94CD05BCC883E007
:1037F00091E00E9428388EE590E00E9428388EE4FF
:1038000090E00E9428388DE490E00E942838EE2451
:10381000E39410E000E020E04091510660E083E096
:1038200091E00E9464389FC883E091E00E942838AC
:103830008EE590E00E9428388EE490E00E942838BF
:103840008DE490E00E942838EE24E39410E000E03C
:1038500020E04091510660E08EE590E00E946438DF
:1038600082C883E091E00E9428388EE590E00E94B3
:1038700028388EE490E00E9428388DE490E00E9481
:103880002838EE24E39410E000E020E04091510657
:1038900060E08EE490E00E9464380C94B31483E0FE
:1038A00091E00E9428388EE590E00E9428388EE44E
:1038B00090E00E9428388DE490E00E942838EE24A1
:1038C000E39410E000E020E04091510660E08DE4D8
:1038D00090E00E9464380C94B3148AEA90E00E944D
:1038E000283883E091E00E9428388EE590E00E941D
:1038F00028388DE490E00E9428388EE490E00E9401
:103900002838EE24E39410E000E020E040915106D6
:1039100060E08AEA90E00E9464380C94B31485E574
:1039200090E00E94283884E590E00E942838EE2438
:10393000E39410E000E020E04091510660E085E56E
:1039400090E00E9464380C94B31484E590E00E94E7
:10395000283885E590E00E942838EE24E39410E0B2
:1039600000E020E04091510660E084E590E00E9494
:1039700064380C94B31486E590E00E94283887E5FB
:1039800090E00E942838EE24E39410E000E020E06C
:103990004091510660E087E590E00E9464380C9405
:1039A000B31486E590E00E94283887E590E00E94F5
:1039B0002838EE24E39410E000E020E04091510626
:1039C00060E086E590E00E9464380C94B3148BE5C7
:1039D00090E00E9428388AE590E00E942838EE2482
:1039E000E39410E000E020E04091510660E08AE5B9
:1039F00090E00E9464380C94B3148BE590E00E9430
:103A000028388AE590E00E942838EE24E39410E0FC
:103A100000E020E04091510660E08BE590E00E94DC
:103A200064380C94B31480E790E00E94283881E752
:103A300090E00E94283882E790E00E94283883E7CF
:103A400090E00E942838EE24E39410E000E020E0AB
:103A50004091510660E080E790E00E9464380C9449
:103A6000B31480E790E00E94283881E790E00E943C
:103A7000283882E790E00E94283883E790E00E948F
:103A80002838EE24E39410E000E020E04091510655
:103A900060E082E790E00E9464380C94B31480E701
:103AA00090E00E94283881E790E00E94283882E761
:103AB00090E00E94283883E790E00E942838EE24A6
:103AC000E39410E000E020E04091510660E083E7DD
:103AD00090E00E9464380C94B31480E790E00E9458
:103AE000283881E790E00E94283882E790E00E9421
:103AF000283883E790E00E942838EE24E39410E011
:103B000000E020E04091510660E081E790E00E94F3
:103B100064380C94B3148FE390E00E942838EE24AC
:103B2000E39410E000E020E04091510660E08FE374
:103B300090E00E9464380C94B31482E291E00E94F9
:103B4000283887E291E00E942838EE24E39410E0C0
:103B500000E020E04091510660E082E291E00E94A6
:103B600064380C94B31483E291E00E94283888E210
:103B700091E00E942838EE24E39410E000E020E079
:103B80004091510660E083E291E00E9464380C9419
:103B9000B31484E291E00E94283889E291E00E9407
:103BA0002838EE24E39410E000E020E04091510634
:103BB00060E084E291E00E9464380C94B31485E2E2
:103BC00091E00E9428388AE291E00E942838EE2491
:103BD000E39410E000E020E04091510660E085E2CF
:103BE00091E00E9464380C94B31486E291E00E9444
:103BF00028388BE291E00E942838EE24E39410E00C
:103C000000E020E04091510660E086E291E00E94F1
:103C100064380C94B31487E291E00E94283882E261
:103C200091E00E942838EE24E39410E000E020E0C8
:103C30004091510660E087E291E00E9464380C9464
:103C4000B31488E291E00E94283883E291E00E9458
:103C50002838EE24E39410E000E020E04091510683
:103C600060E088E291E00E9464380C94B31489E229
:103C700091E00E94283884E291E00E942838EE24E6
:103C8000E39410E000E020E04091510660E089E21A
:103C900091E00E9464380C94B3148AE291E00E948F
:103CA000283885E291E00E942838EE24E39410E061
:103CB00000E020E04091510660E08AE291E00E943D
:103CC00064380C94B3148BE291E00E94283886E2A9
:103CD00091E00E942838EE24E39410E000E020E018
:103CE0004091510660E08BE291E00E9464380C94B0
:103CF000B31485EA90E00E94283884EA90E00E949C
:103D00002838EE24E39410E000E020E040915106D2
:103D100060E085EA90E00E9464380C94B31484EA71
:103D200090E00E94283885EA90E00E942838EE242E
:103D3000E39410E000E020E04091510660E084EA66
:103D400090E00E9464380C94B31487EA90E00E94DB
:103D5000283886EA90E00E942838EE24E39410E0A8
:103D600000E020E04091510660E087EA90E00E9488
:103D700064380C94B31486EA90E00E94283887EAED
:103D800090E00E942838EE24E39410E000E020E068
:103D90004091510660E086EA90E00E9464380C94FD
:103DA000B31489EA90E00E94283888EA90E00E94E3
:103DB0002838EE24E39410E000E020E04091510622
:103DC00060E089EA90E00E9464380C94B31488EAB9
:103DD00090E00E94283889EA90E00E942838EE247A
:103DE000E39410E000E020E04091510660E088EAB2
:103DF00090E00E9464380C94B31489E790E00E942C
:103E000028388AE790E00E9428388BE790E00E94EB
:103E10002838EE24E39410E000E020E040915106C1
:103E200060E089E790E00E9464380C94B31489E75D
:103E300090E00E9428388AE790E00E9428388BE7BB
:103E400090E00E942838EE24E39410E000E020E0A7
:103E50004091510660E08AE790E00E9464380C943B
:103E6000B31489E790E00E9428388AE790E00E9426
:103E700028388BE790E00E942838EE24E39410E085
:103E800000E020E04091510660E08BE790E00E9466
:103E900064380C94B31481E0809316028CE790E0B0
:103EA0000E9428388DE790E00E942838EE24E394A1
:103EB00010E000E020E04091510660E08CE790E0E7
:103EC0000E9464380C94B314109216028CE790E0B0
:103ED0000E9428388DE790E00E942838EE24E39471
:103EE00010E000E020E04091510660E08DE790E0B6
:103EF0000E9464380C94B31488E990E00E9428383A
:103F000087E990E00E942838EE24E39410E000E076
:103F100020E04091510660E088E990E00E9464381A
:103F20000C94B31488E990E00E94283887E990E067
:103F30000E942838EE24E39410E000E020E0409155
:103F4000510660E087E990E00E9464380C94B31455
:103F50008FE091E00E94283880E191E00E942838AB
:103F6000EE24E39410E000E020E04091510660E090
:103F70008FE091E00E9464380C94B31480E191E0EA
:103F80000E9428388FE091E00E942838EE24E394C4
:103F900010E000E020E04091510660E080E191E017
:103FA0000E9464380C94B31410928E0410928D0405
:103FB00088E090E090938C0480938B040C94B3146D
:103FC00081E090E090938E0480938D0410928C0495
:103FD00010928B040E94EF330C94B31482E090E0B3
:103FE00090938E0480938D0481E090E090938C04F4
:103FF00080938B040E94EF330C94B31483E090E021
:1040000090938E0480938D0482E090E090938C04D2
:1040100080938B040E94EF330C94B31484E090E0FF
:1040200090938E0480938D0410928C0410928B04D4
:104030000E94EF330C94B31485E090E090938E04CB
:1040400080938D0410928C0410928B040E94EF33A5
:104050000C94B31486E090E090938E0480938D04CA
:1040600010928C0410928B040E94EF330C94B314C2
:1040700087E090E090938E0480938D0483E090E03D
:1040800090938C0480938B040E94EF330C94B314B0
:1040900088E090E090938E0480938D0487E090E018
:1040A00090938C0480938B040E9481440E94EF3390
:1040B0000C94B31481E080931A0280930A020C944A
:1040C000B31482E080931A0280930A020C94B31412
:1040D00083E080931A0280930A020C94B31484E064
:1040E00080931A0280930A020C94B31485E08093A3
:1040F0001A0280930A020C94B31489E890E00E949B
:1041000028388AE890E00E942838EE24E39410E0F2
:1041100000E020E04091510660E089E890E00E94D4
:1041200064380C94B3148AE890E00E94283889E837
:1041300090E00E942838EE24E39410E000E020E0B4
:104140004091510660E08AE890E00E9464380C9447
:10415000B31482E890E00E94283880E591E00E9444
:10416000283883E890E00E94283884E890E00E9494
:104170002838EE24E39410E000E020E0409151065E
:1041800060E082E890E00E9464380C94B31482E806
:1041900090E00E94283880E591E00E94283883E86A
:1041A00090E00E94283884E890E00E942838EE24AD
:1041B000E39410E000E020E04091510660E080E5EB
:1041C00091E00E9464380C94B31482E890E00E945D
:1041D000283880E591E00E94283883E890E00E942A
:1041E000283884E890E00E942838EE24E39410E018
:1041F00000E020E04091510660E083E890E00E94FA
:1042000064380C94B31482E890E00E94283880E56A
:1042100091E00E94283883E890E00E94283884E8E2
:1042200090E00E942838EE24E39410E000E020E0C3
:104230004091510660E084E890E00E9464380C945C
:10424000B31480E890E00E94283881E890E00E9452
:104250002838EE24E39410E000E020E0409151067D
:1042600060E080E890E00E9464380C94B31480E829
:1042700090E00E94283881E890E00E942838EE24DF
:10428000E39410E000E020E04091510660E081E816
:1042900090E00E9464380C94B31485E890E00E948A
:1042A000283886E890E00E94283887E890E00E944D
:1042B000283888E890E00E942838EE24E39410E043
:1042C00000E020E04091510660E087E890E00E9425
:1042D00064380C94B31485E890E00E94283886E88E
:1042E00090E00E94283887E890E00E94283888E80B
:1042F00090E00E942838EE24E39410E000E020E0F3
:104300004091510660E086E890E00E9464380C9489
:10431000B31485E890E00E94283886E890E00E9477
:10432000283887E890E00E94283888E890E00E94CA
:104330002838EE24E39410E000E020E0409151069C
:1043400060E085E890E00E9464380C94B31485E83E
:1043500090E00E94283886E890E00E94283887E89C
:1043600090E00E94283888E890E00E942838EE24E7
:10437000E39410E000E020E04091510660E088E81E
:1043800090E00E9464380C94B3140E94D4360C94CC
:10439000B3148091430581110E94D43680913D056C
:1043A00090913E05892B49F024EFE21621E0F206B8
:1043B00020F0F0924005E0923F0581E080934305B4
:1043C0000E94F4360C94B31480914305882311F4B1
:1043D0000C94B31480914405909145050197029780
:1043E000A0F480913D0590913E05892B61F080916C
:1043F0003F0590914005843FA1E09A0720F062E0DC
:1044000070E00E94126F0E94886F81E080934105E6
:104410000C94B31480914305882311F40C94B314C5
:10442000809144059091450501970297B8F481E089
:104430008093A40580913D0590913E05892B61F004
:1044400080913F0590914005843FB1E09B0720F0AB
:1044500063E070E00E94126F0E94886F1092410525
:104460000C94B31480913D0590913E05892B11F475
:104470000C94B31424EFE21621E0F20610F40C942D
:10448000B314F0924005E0923F050C94B3140E94DF
:1044900029360E9485348CE890E00E942838EE246A
:1044A000E39410E000E020E04091510660E08CE8E9
:1044B00090E00E9464380C94B3145091A10750937B
:1044C0005C048091A20780935D043091A307309330
:1044D0005E042091A40720935F049091A507909318
:1044E00060044091A60740936104882311F40C9462
:1044F000B314513011F00C94B314473711F00C94ED
:10450000B314873111F00C94B31430931F0220932D
:104510001E0290931D020E94923680911F0233E288
:10452000839FC0011124E4E6F0E0BF010E94F48EF5
:104530002DED260F2093520680911E02839FC0010D
:104540001124BF010E94F48E635260935106809142
:104550001D02839FC0011124BF010E94F48E63528B
:104560006093500620934F060E94AA360E9430376F
:104570000C94B314A1EAB7E0E8E4F4E08D918193E0
:1045800084E0EC35F807D1F780914804813009F4D4
:10459000D8C0109295041092940485E080930E0286
:1045A00081E090914D04911101C080E08093170249
:1045B0008091490480931B0280914A0480931C02DD
:1045C00081E090914C04911101C080E080938504BA
:1045D00081E090914B04911101C080E080938704A9
:1045E0008093860480914E04823009F4B2C08330F7
:1045F00009F0B3C081E0809389048093880410920D
:1046000018028AE00E94320410928E0410928D04E7
:1046100010928C0410928B0480914F04823009F424
:10462000A4C0833009F4ABC0813009F0B1C08093DD
:10463000110280930F021092100281E090E090939B
:104640009F0480939E0481E090915104911101C0D8
:1046500080E080930C0281E090915004911101C0A0
:1046600080E08093150281E090915204911101C085
:1046700080E08093840481E090915304911101C003
:1046800080E08093130281E090915404911101C065
:1046900080E08093120281E090915504911101C055
:1046A00080E08093140280915604833009F482C024
:1046B00008F071C0823009F476C010929B04109209
:1046C0009A0480915704833009F489C008F078C0B7
:1046D000823009F47DC0109299041092980481E010
:1046E00090915804911101C080E08093830481E08F
:1046F00090915904911101C080E0809382048091CF
:104700005A04823009F471C0833009F479C01092E0
:10471000A5041092A40480915B04823009F479C04E
:10472000833009F481C01092A1041092A0040E9469
:10473000770B0E9422060E948C040E94CD050C94E7
:10474000B31481E090E0909395048093940480E307
:1047500025CF1092890481E050CF109289041092E5
:10476000880481E08093180257CF81E08093110282
:1047700080930F028093100282E090E060CF10924D
:1047800011021092100210920F0283E090E057CFB6
:1047900084E090E054CF843081F0853009F08DCFF3
:1047A00084E090E002C081E090E090939B048093CD
:1047B0009A0487CF82E090E0F8CF83E090E0F5CFD5
:1047C000843081F0853009F086CF84E090E002C02B
:1047D00081E090E0909399048093980480CF82E0E8
:1047E00090E0F8CF83E090E0F5CF1092A70410920C
:1047F000A60481E090E09093A5048093A4048BCF5D
:1048000081E090E09093A7048093A60482E090E07A
:10481000F2CF1092A3041092A20481E090E0909352
:10482000A1048093A00483CF81E090E09093A3043F
:104830008093A20482E090E0F2CFA1EAB7E0E3E344
:10484000F4E08D91819324E0E834F207D1F781E020
:1048500090913E04911101C080E08093340281E088
:1048600090913F04911101C080E080936B0981E039
:1048700090914004911101C080E080936C0981E027
:1048800090914104911101C080E080936D0981E015
:1048900090914204911101C080E08093730980914E
:1048A000430490E0B0E0A0E08093200290932102C6
:1048B000A0932202B09323028091440490E0B0E0E0
:1048C000A0E08093240290932502A0932602B09347
:1048D00027028091450490E0B0E0A0E08093280298
:1048E00090932902A0932A02B0932B028091460450
:1048F00090E0B0E0A0E080932C0290932D02A09372
:104900002E02B0932F028091470490E0B0E0A0E027
:104910008093300290933102A0933202B09333021D
:104920000E948C040C94B31481E090E09093A9044D
:104930008093A8040C94E71481E080930E040C94F7
:10494000F71481E090E090939704809396040C9480
:10495000091582E090E0F7CF83E090E0F4CF81E0AA
:1049600080930B020C94151581E090E090939004D5
:1049700080938F040C942D1581E080930D040C948A
:104980002F1510928E0410928D0488E090E0909381
:104990008C0480938B040AC081E090E090938E0495
:1049A00080938D0410928C0410928B040E94EF333C
:1049B00080912B04813009F09CC0109211020E945A
:1049C000350580912C0480931F0280912D048093E3
:1049D0001E0280912E0480931D020E9492368091C7
:1049E0001F0233E2839FC0011124E4E6F0E0BF011F
:1049F0000E94F48E2DED260F2093520680911E0208
:104A0000839FC0011124BF010E94F48E6352609302
:104A1000510680911D02839FC0011124BF010E9495
:104A2000F48E63526093500620934F060E94AA367C
:104A30000E94303780912F04823049F480915206D1
:104A400080934F068AEB809352060E94AA3680918B
:104A50003D0590913E05892B61F080913004909145
:104A60003104843FA1E09A0720F0909340058093A1
:104A70003F0580913204823011F40C94DC1A1092BC
:104A800042050C94B31482E090E090938E048093DE
:104A90008D0481E090E07BCF83E090E090938E04E2
:104AA00080938D0482E090E072CF84E090E0909358
:104AB0008E0480938D0483E090E069CF85E090E0E0
:104AC00090938E0480938D0484E090E060CF86E024
:104AD00090E090938E0480938D0485E090E057CF12
:104AE00087E090E090938E0480938D0486E090E0C0
:104AF0004ECF81E08093110264CFEF920F931F930A
:104B000080918B0490918C0490938E0480938D04FB
:104B100085E08093010280910B0481110CC0EE248A
:104B2000E39410E000E020E04091510660E088E26C
:104B300090E00E946438E0918B04F0918C043197EE
:104B40008AE0E730F10570F48827E655FA4D8F4F7B
:104B50000C94088FFE25FC25B1250026022604268C
:104B600006268DE00E9432041092900410928F0469
:104B70000E94C10B0E9422060E94CD058091A804CC
:104B80009091A904019709F043C090919F0A8091E8
:104B90009A0A98133DC090915A0A8091550A981329
:104BA00037C080910E048823D9F080919304882324
:104BB000B9F080911502882319F08EEC0E9432041E
:104BC0008CEF90E00E942838EE24E39410E000E09F
:104BD00020E04091510660E08CEF90E00E94643844
:104BE000809193048823A1F080E00E94260C1F91FD
:104BF0000F91EF900C940F148CE0B4CF8BE0B2CFF8
:104C00008EE0B0CF8FE0AECF80E1ACCF81E1AACF14
:104C10001F910F91EF900895CF92DF92EF92FF9244
:104C20000F931F93CF93DF93C09193048091A204BD
:104C30009091A304892B09F0BBC3CC2309F4B2C221
:104C4000E0910504EE3008F0BAC2F0E09091000265
:104C50008827E25DF94D8F4F0C94088F3C2668261B
:104C60009F26D8260727362765279427C327F227AC
:104C7000212850287E28AD288EE6890F0E94C43353
:104C80008091F1030E94EA748091F2030E94EA7419
:104C900081E08093D5038093D603809105048F5FD4
:104CA000809305048091C70381110CC08091F003AB
:104CB0000E9409758091F3030E9409751092D40334
:104CC0001092D70381E08093C7030E94EF4F77C211
:104CD0008EE6890F0E94C4338091F0030E94EA742B
:104CE0008091F3030E94EA7481E08093D40380935F
:104CF000D7038091C703882381F08091F1030E943C
:104D000009758091F2030E9409751092D5031092E3
:104D1000D603809105048F5F0FC08091EF030E943E
:104D200009758091F4030E9409751092D3031092C3
:104D3000D80380910504815080930504C6CF8EE688
:104D4000890F0E94C4338091EF030E94EA7480911E
:104D5000F4030E94EA7481E08093D3038093D80324
:104D60008091C703882381F08091F0030E94097528
:104D70008091F3030E9409751092D4031092D70317
:104D8000809105048F5F0FC08091EE030E9409752A
:104D90008091F5030E9409751092D2031092D903F5
:104DA000809105048150809305040E946B4407C2E2
:104DB0008EE6890F0E94C4338091EE030E94EA744C
:104DC0008091F5030E94EA7481E08093D20380937E
:104DD000D9038091C703882369F08091EF030E9473
:104DE00009758091F4030E9409751092D303109203
:104DF000D803C6CF8091ED030E9409758091F60318
:104E00000E9409751092D1031092DA03C9CF8EE681
:104E1000890F0E94C4338091ED030E94EA7480914F
:104E2000F6030E94EA7481E08093D1038093DA0351
:104E30008091C703882369F08091EE030E94097571
:104E40008091F5030E9409751092D2031092D90344
:104E500060CF8091EC030E9409758091F7030E9456
:104E600009751092D0031092DB0363CF8EE6890F91
:104E70000E94C4338091EC030E94EA748091F7038E
:104E80000E94EA7481E08093D0038093DB038091D9
:104E9000C703882369F08091ED030E940975809112
:104EA000F6030E9409751092D1031092DA0331CFF4
:104EB0008091EB030E9409758091F8030E940975A7
:104EC0001092CF031092DC0334CF80E7890F0E9449
:104ED000C4338091EB030E94EA748091F8030E942E
:104EE000EA7481E08093CF038093DC038091C70351
:104EF000882369F08091EC030E9409758091F70383
:104F00000E9409751092D0031092DB0339CF809173
:104F1000EA030E9409758091F9030E9409751092B5
:104F2000CE031092DD033CCF80E7890F0E94C4338B
:104F30008091EA030E94EA748091F9030E94EA7466
:104F400081E08093CE038093DD038091C7038823A3
:104F500069F08091EB030E9409758091F8030E942B
:104F600009751092CF031092DC030ACF8091E903F8
:104F70000E9409758091FA030E9409751092CD0371
:104F80001092DE030DCF80E7890F0E94C433809119
:104F9000E9030E94EA748091FA030E94EA7481E0B6
:104FA0008093CD038093DE038091C703882369F04B
:104FB0008091EA030E9409758091F9030E940975A6
:104FC0001092CE031092DD03A4CE8091E8030E94DC
:104FD00009758091FB030E9409751092CC03109211
:104FE000DF03A7CE80E7890F0E94C4338091E803D6
:104FF0000E94EA748091FB030E94EA7481E080932E
:10500000CC038093DF038091C703882369F08091EC
:10501000E9030E9409758091FA030E9409751092B4
:10502000CD031092DE0375CE8091E7030E940975CF
:105030008091FC030E9409751092CB031092E0034B
:1050400078CE80E7890F0E94C4338091E7030E94E5
:10505000EA748091FC030E94EA7481E08093CB03A0
:105060008093E0038091C703882369F08091E8036F
:105070000E9409758091FB030E9409751092CC0370
:105080001092DF037DCE8091E6030E940975809126
:10509000FD030E9409751092CA031092E10380CEAD
:1050A00083E7890F0E94C4338091E6030E94EA746B
:1050B0008091FD030E94EA741092CA031092E103EA
:1050C0008091C703882369F08091E7030E940975E6
:1050D0008091FC030E9409751092CB031092E003AB
:1050E0004FCE8091E5030E9409758091FE030E94D6
:1050F00009751092C9031092E20352CE83E7890F1B
:105100000E94C4338091E5030E94EA748091FE03FB
:105110000E94EA7481E08093C9038093E203809146
:10512000C703882369F08091E6030E940975809186
:10513000FD030E9409751092CA031092E103E9CDA4
:105140008091E4030E9409758091FF030E94097514
:105150001092C8031092E303ECCD83E7890F0E94FD
:10516000C4338091E4030E94EA748091FF030E949B
:10517000EA7481E08093C8038093E3038091E503A0
:105180000E9409758091FE030E9409751092C9035F
:105190001092E203809105048150809305041092DF
:1051A000C70393CD80910604833009F4E6C008F06C
:1051B00076C0813009F499C0823009F4BAC0909168
:1051C0009304C8E7D0E0992311F0C8E2D0E08091C1
:1051D0001A02E82FF0E0E359F64F2081222309F468
:1051E000F5C620918609222309F4F0C62091170202
:1051F000222309F4EBC68EE799E00E94407E6B0102
:105200007C01E0911A02E150FF0BEE0FFF1FEE0F41
:10521000FF1FE95AF64F608171818281938126E0F8
:1052200030E040E050E00E94DC8DC216D306E40678
:10523000F50608F4E4C68EE799E00E94407E6B0113
:105240007C01E0911A02E150FF0BEE0FFF1FEE0F01
:10525000FF1FE95AF64F608171818281938125E0B9
:1052600030E040E050E00E94DC8DC216D306E40638
:10527000F50608F0EEC680919304882309F4DFC692
:10528000CE0169E070E00E94F48EAB01770F660BEF
:10529000770B83E499E00E94B67E85E0C2C6843035
:1052A00009F447C0853009F08ACF80910002825905
:1052B0000E94C43360E0809100040E943C7261E06F
:1052C000809101040E943C7261E0809102040E947E
:1052D0003C7261E0809103040E943C7260E0809126
:1052E00004040E943C7281E021C080910002825936
:1052F0000E94C43360E0809100040E943C7261E02F
:10530000809101040E943C7261E0809102040E943D
:105310003C7261E0809103040E943C7260E08091E5
:1053200004040E943C72809106048F5F80930604FF
:10533000CCCC8091000280590E94C43361E08091FE
:1053400000040E943C7260E0809101040E943C7263
:1053500061E0809102040E943C7260E0809103044D
:105360000E943C7261E0809104040E943C72809132
:1053700006048F5F8093060418CD809100028D583B
:105380000E94C43361E0809100040E943C7261E09D
:10539000809101040E943C7260E0809102040E94AE
:1053A0003C7261E0809103040E943C7261E0B7CFDF
:1053B00080911A02CC2309F4D8C39091050491116D
:1053C00007C0833009F452C0A8F5823009F459C0EF
:1053D00090910504E8ECF3E080E02191211103C0F5
:1053E000891708F459C08F5F8C31B9F780911A0280
:1053F000833009F40EC208F051C0823009F4CDC2E6
:10540000CC2309F478C3C7E080910504C81708F4D9
:105410008AC08C135BC380910802843009F461C395
:1054200008F049C3813008F061C367E070E080E0B4
:1054300090E048C3843079F0853051F669E070E03F
:1054400080E090E00E94E8796E5E7F4F8F4F9F4F23
:1054500060930504BDCF6CE070E080E090E00E94B6
:10546000E879635F7F4F8F4F9F4FF2CF6AE070E024
:1054700080E090E00E94E879675F7F4F8F4F9F4FF9
:10548000E7CF6AE070E080E090E00E94E8796D5F2D
:105490007F4F8F4F9F4FDCCFC0E0A8CF843009F4FF
:1054A000F4C0853009F0ACCFCC2309F483C0CBE144
:1054B00080910504C817B8F18C1323C080910802AD
:1054C000833009F454C068F4813009F466C0823036
:1054D00009F458C06BE170E080E090E00E94E87948
:1054E0000EC08430C9F18530A9F765E170E080E035
:1054F00090E00E94E8796A5F7F4F8F4F9F4F6093E3
:1055000005048C2F90E08C0108531C4FF80120817A
:10551000222309F44DC08C519C4FFC0180810E94D4
:105520000975F8011082909105048091000297316D
:1055300008F415C38D580E94C433909106048091DD
:105540000002943008F43CC58D580E94C433809109
:10555000C60380FFBACB29CC62E170E080E090E026
:105560000E94E879675F7F4F8F4F9F4FC8CF6FE0F2
:1055700070E080E090E00E94E879645F7F4F8F4F99
:105580009F4FBDCF6CE070E080E090E00E94E87932
:10559000615F7F4F8F4F9F4FB2CF69E070E080E037
:1055A00090E00E94E8796E5E7F4F8F4F9F4FA7CFAC
:1055B000C1507ECFC0E0809105048C1708F4B3CFB2
:1055C0008C1322C0809108028330E1F168F48130AD
:1055D00009F44EC0823009F440C06BE170E080E015
:1055E00090E00E94E8790EC0843009F18530A9F777
:1055F00063E170E080E090E00E94E879685F7F4FAF
:105600008F4F9F4F609305048C2F90E08C010853BF
:105610001C4FF8012081211136C08C519C4FFC0198
:1056200080810E94EA7481E0F80180837CCF6FE082
:1056300070E080E090E00E94E879645F7F4F8F4FD8
:105640009F4FE0CF6DE070E080E090E00E94E8794D
:10565000625F7F4F8F4F9F4FD5CF6BE070E080E050
:1056600090E00E94E879605F7F4F8F4F9F4FCACFD5
:1056700069E070E080E090E00E94E8796E5E7F4F24
:105680008F4F9F4FBFCFCF5F96CFCC2309F460C021
:10569000C9E180910504C81708F445CF8C1321C0D7
:1056A00080910802833099F160F4813009F445C09B
:1056B0008230C1F169E170E080E090E00E94E87919
:1056C0000EC08430C9F08530A9F768E170E080E051
:1056D00090E00E94E8796F5F7F4F8F4F9F4F6093FC
:1056E00005048C2F90E08C0108531C4FF801208199
:1056F000211111CFC150CDCF65E170E080E090E085
:105700000E94E8796C5F7F4F8F4F9F4FE8CF62E137
:1057100070E080E090E00E94E879695F7F4F8F4FF2
:105720009F4FDDCF6FE070E080E090E00E94E8796D
:10573000665F7F4F8F4F9F4FD2CF6CE070E080E06D
:1057400090E00E94E879635F7F4F8F4F9F4FC7CFF4
:10575000C0E0809105048C1708F4E5CE8C1321C0BD
:10576000809108028330A1F160F4813009F446C0D1
:105770008230C9F169E170E080E090E00E94E87950
:105780000EC08430D1F08530A9F768E170E080E088
:1057900090E00E94E8796F5F7F4F8F4F9F4F60933B
:1057A00005048C2F90E08C0108531C4FF8012081D8
:1057B000222309F432CFCF5FCCCF65E170E080E0E7
:1057C00090E00E94E8796C5F7F4F8F4F9F4FE7CF4B
:1057D00062E170E080E090E00E94E879695F7F4FCD
:1057E0008F4F9F4FDCCF6FE070E080E090E00E9431
:1057F000E879665F7F4F8F4F9F4FD1CF6CE070E0AD
:1058000080E090E00E94E879635F7F4F8F4F9F4F69
:10581000C6CFCC2309F460C0C3E180910504C8174A
:1058200008F481CE8C1321C080910802833099F155
:1058300060F4813009F445C08230C1F163E170E069
:1058400080E090E00E94E8790EC08430C9F0853095
:10585000A9F762E170E080E090E00E94E8796F5F74
:105860007F4F8F4F9F4F609305048C2F90E08C01EA
:1058700008531C4FF801208121114DCEC150CDCFCE
:1058800060E170E080E090E00E94E8796D5F7F4F1A
:105890008F4F9F4FE8CF6EE070E080E090E00E9475
:1058A000E8796B5F7F4F8F4F9F4FDDCF6CE070E0EB
:1058B00080E090E00E94E879695F7F4F8F4F9F4FB3
:1058C000D2CF6AE070E080E090E00E94E879675F04
:1058D0007F4F8F4F9F4FC7CFC0E0809105048C173B
:1058E00008F421CE8C1321C0809108028330A1F1ED
:1058F00060F4813009F446C08230C9F163E170E0A0
:1059000080E090E00E94E8790EC08430D1F08530CC
:10591000A9F762E170E080E090E00E94E8796F5FB3
:105920007F4F8F4F9F4F609305048C2F90E08C0129
:1059300008531C4FF8012081222309F46ECECF5F5B
:10594000CCCF60E170E080E090E00E94E8796D5F8C
:105950007F4F8F4F9F4FE7CF6EE070E080E090E089
:105960000E94E8796B5F7F4F8F4F9F4FDCCF6CE0D9
:1059700070E080E090E00E94E879695F7F4F8F4F90
:105980009F4FD1CF6AE070E080E090E00E94E8791C
:10599000675F7F4F8F4F9F4FC6CFCC2309F445C021
:1059A000CDE080910504C81708F4BDCD8C131CC050
:1059B00080910802843019F148F4813058F56DE087
:1059C00070E080E090E00E94E8790CC08530B9F783
:1059D0006CE070E080E090E00E94E8796F5F7F4FBC
:1059E0008F4F9F4F609305048C2F90E08C010853DC
:1059F0001C4FF801208121118ECDC150D2CF6BE018
:105A000070E080E090E00E94E8796E5F7F4F8F4FFA
:105A10009F4FE8CF6AE070E080E090E00E94E87974
:105A20006D5F7F4F8F4F9F4FDDCFC0E080910504AA
:105A30008C1708F478CD8C131CC080910802843038
:105A400021F148F4813060F56DE070E080E090E095
:105A50000E94E8790CC08530B9F76CE070E080E016
:105A600090E00E94E8796F5F7F4F8F4F9F4F609368
:105A700005048C2F90E08C0108531C4FF801208105
:105A8000222309F4CACDCF5FD1CF6BE070E080E074
:105A900090E00E94E8796E5F7F4F8F4F9F4FE7CF76
:105AA0006AE070E080E090E00E94E8796D5F7F4FEF
:105AB0008F4F9F4FDCCF853009F0B7CC6AE070E0A4
:105AC00080E090E00E94E879609305048C2F90E0DC
:105AD0008C0108531C4FF801208121111CCDC150AD
