:100000000C94FC040C942D050C942D050C942D05DA
:100010000C942D050C942D050C942D050C942D0598
:100020000C942D050C942D050C942D050C942D0588
:100030000C942D050C942D050C942D050C942D0578
:100040000C942D050C942D050C942D050C942D0568
:100050000C942D050C942D050C942D050C941A8EE2
:100060000C942D050C94AF8F0C94858F0C942D055A
:100070000C942D050C942D050C942D050C942D0538
:100080000C942D050C942D050C942D050C942D0528
:100090000C945B8F0C94318F0C942D050C9453921F
:1000A0000C942D050C942D050C942D050C942D0508
:1000B0000C942D050C942D050C942D050C942D05F8
:1000C0000C942D050C942D050C942D050C942D05E8
:1000D0000C942D050C942D050C94078F0C94DD8E3B
:1000E0000C942D050C94684F0C94AD790C940E7CF7
:1000F0000C942B6F0C949F4C0C945C8D0C94437B54
:100100000C94B5830C941B270C946B050C94348AC7
:100110000C9488830C947A4C0C9415270C94043519
:100120000C948D510C94D6570C9432770C94282251
:100130000C94B57A0C94147D0C94BC350C94E65D4B
:100140000C94A21C0C9465050C94DB760C946175E0
:100150000C94A7810C94C7800C947F510C94CB6FA6
:100160000C9433820C94DC590C9489780C94DE75D1
:100170000C9481830C940E4A0C943A220C94A38123
:100180000C9490730C945D7A0C94BC220C94814C6A
:100190000C94840E0C94A81C0C943A0E0C94387495
:1001A0000C94F3210C946E340C945F0E0C94174E47
:1001B0000C944C080C94365F0C94350E0C943B6FE9
:1001C0000C94379F0C94954F0C942B220C94BA737B
:1001D0000C9431780C94EE7C0C94C8740C94D67703
:1001E0000C94148D0C94EE320C940A4A0C94CA733D
:1001F0000C94EE820C9427760C9415330C9495365F
:100200000C9486740C948B810C9497790C942974BB
:100210000C949B4C0C944E8A0C94F48C0C94AE76FB
:100220000C9422220C94F8770C9410220C947541B3
:100230000C9425780C948F810C9499810C948D34B6
:100240000C9420220C946C0E0C945F750C9441223B
:100250000C94C3790C941F840C94DE810C942D743F
:100260000C945B6E0C94588A0C94E97A0C943122AD
:100270000C94E48C0C94044F0C9477510C94817979
:100280000C94346F0C9468810C9474810C94C87C29
:100290000C94998A0C94CE800C9428580C94C44FDA
:1002A0000C949F780C9430460C94D3330C944433C4
:1002B0000C9434220C9463750C9493050C94D979A6
:1002C0000C94A38A0C94874E0C94F34F0C9469758C
:1002D0000C941D790C9418780C94D1740C94E74903
:1002E0000C9413270C94DD810C945F350C947E7C68
:1002F0000C9421350C9484770C947D810C944E22BF
:100300000C94427C0C94EA800C945D780C94138AD3
:100310000C94317A0C94A07B0C943A7D0C948F8AC7
:100320000C9477810C9489510C9447820C94AA1CEC
:100330000C9410740C946C810C9470810C9427773D
:100340000C94DB5D0C9491510C94B4330C941D27E8
:100350000C9462810C945E830C94C1730C94D7222C
:100360000C942E780C944F340C9495810C94A61C0C
:100370000C94A5730C9422780C945C7B0C94FA3545
:100380000C94E7800C94E2740C94AC340C94AA8422
:100390000C94B27C0C94A2810C942E6F0C944A2283
:1003A0000C946B700C9481810C943E8A0C94FF78B1
:1003B0000C9425220C94477A0C947E080C941C779C
:1003C0000C94257B0C9420580C9476730C948E61BD
:1003D0000C94208A0C94CC7B0C941F780C94246F82
:1003E0000C94300E0C947B510C94E1780C94A18207
:1003F0000C9451220C947C410C94304E0C949646F3
:100400000C94897A0C942A580C9411340C94172764
:100410000C94C9750C949D350C94295F0C949951DA
:100420000C9497050C94FF4F0C943B790C94CD5988
:100430000C94594E0C94A41C0C941B8A0C94AD770C
:100440000C94F87B0C94607D0C9454220C94193617
:100450000C9402760C942B780C947B8A0C94245880
:100460000C941AA60C94EF790C9455820C94403598
:100470000C94CB780C942A1C0C94A14C0C942B0E4D
:100480000C9473780C9422580C9479080C9454763C
:100490000C94DB750C9476360C94994C0C94EE49C4
:1004A0000C94DE4F0C942E220C946B790C94747B7C
:1004B0000C948D050C94468A0C94EA4D0C94A20E73
:1004C0000C9431740C94E27B0C9457360C94CB8CC6
:1004D0000C947E350C94ED800C94247C0C94DC817F
:1004E0000C94B5780C9487810C946C8A0C94835C82
:1004F0000C9426580C949D810C94235E0C944778A0
:100500000C949F7A0C94077B0C94CB340C94B67BA0
:100510000C9444220C94C9590C94DB350C947F2222
:100520000C94780E0C94607C0C94D8750C94C84E86
:100530000C94D6430C943B4F0C9418220C942482B8
:100540000C945D750C94335F0C9419270C943B222A
:100550000C947A410C9467750C9447080C94EB5DED
:100560000C94EE8C0C9435740C9495510C942A8A4E
:100570000C9408770C9465750C941D220C941177DB
:100580000C9472730C9490050C941B220C94597962
:100590000C9415220C94628A0C94D4730C946333DB
:1005A0000C944D750C94CF5E0C94E4830C949533AD
:1005B0000C946E830C94737A0C94CB7A0C94D18047
:1005C0000C94867D0C9437220C94DE730C948A7BF9
:1005D0000C941B7A0C945A6B0C943E220C94A2221D
:1005E0000C94316F0C94D16F0C94057A0C94F23307
:1005F0000C9478410C94084A0C94F7730C945B7734
:100600000C94288D0C945F830C940C4A0C949C7C65
:100610000C94E4800C944E260C94D37D0C949D4C49
:100620000C94858A0C94064A0C94AC7D0C94A01C06
:100630000C9447220C9430340C94AD8A0C943836C8
:100640000C9481760C9428780C94130E450515258E
:100650003544342414044333231303021222324258
:1006600041312111010010203040403020100001A4
:100670001121314142322212020313233343041465
:1006800024344435251505453738393A3B3B3A394A
:1006900038370010203001112131021222320313A9
:1006A000233304142434051525350616263636263C
:1006B000160635251505342414043323130332227A
:1006C0001202312111013020100000050B11171DFD
:1006D00000040B10161B00000000000000000000CA
:1006E00000000101010101010101020202020202F6
:1006F00003030303040404040505050506060607B1
:1007000007070808080909090A0A0B0B0B0C0C0D4E
:100710000D0E0E0F0F1010111112121313141415C9
:10072000151617171818191A1A1B1C1C1D1E1E1F28
:10073000202021222323242526262728292A2A2B64
:100740002C2D2E2F2F30313233343536373838397F
:100750003A3B3C3D3E3F4041424344454647494A7F
:100760004B4C4D4E4F5051525455565758595B5C57
:100770005D5E5F61626364666768696B6C6D6F7014
:10078000717374757778797B7C7E7F8082838586B0
:1007900088898B8C8E8F9192949597989A9B9D9E29
:1007A000A0A2A3A5A6A8AAABADAFB0B2B4B5B7B985
:1007B000BABCBEC0C1C3C5C7C8CACCCECFD1D3D5C1
:1007C000D7D9DADCDEE0E2E4E6E8E9EBEDEFF1F3DD
:1007D000F5F7F9FBFDFF536176696E672057616E8F
:1007E0006420507265666572656E63657300476567
:1007F0007474696E672057616E6420507265666517
:1008000072656E6365730000191830011A172F02A4
:100810001B162E031C152D041D142C051E132B0650
:100820001F122A072011290821102809220F270A40
:10083000230E260B240D25000102030405060708DC
:10084000090A0B0C0D0E0F101112131415161718A0
:10085000191A1B1C1D1E1F2021222331302F2E2D63
:100860002C2B2A29282726000000006410B71DC859
:10087000206E3BAC30D9269041DC76F4516B6B583E
:1008800061B24D3C7105502083B8ED44930FF0E800
:10089000A3D6D68CB361CBB0C2649BD4D2D38678B6
:1008A000E20AA01CF2BDBD00002100240027002A9E
:1008B000002D003000330001010000040107010A8F
:1008C0000100002200250028002B002E00310034FA
:1008D0000002010000050108010B010000200023B7
:1008E00000260029002C002F003200000100000328
:1008F00001060109010505050507050808080802A4
:100900000202020A0A0808040404040101010101A8
:100910000101010303030303030303040707070C97
:100920000C0C0C0C0C0C0C0202020206060606064D
:100930000606060B0B0B0B0B0B0B0B0102102020FA
:100940000808102040102040800201020108040223
:100950000101020408102040808040201008040299
:1009600001800402018040201008040201080402F2
:1009700001010204081020408001020408102040F8
:100980008000000A0B02090C0D0E08070304010089
:100990000000000000000000000000000000000057
:1009A0000000000000000000000000000012111014
:1009B0000000000000000000000000000000000037
:1009C000000000000000004552524F523A204E6F86
:1009D0002063616C6C6261636B20617661696C613C
:1009E000626C6520666F72207061636B657420496C
:1009F00044200000379F1AA611241FBECFEFD1E27A
:100A0000DEBFCDBF00E00CBF13E0A0E0B2E0E2E942
:100A1000F3E501E00BBF02C007900D92AA34B107C5
:100A2000D9F72DE0AAE4B3E001C01D92AD36B207BC
:100A3000E1F714E0CBEFD4E000E006C02197010914
:100A4000802FFE010E948DA7CA3FD10780E00807D2
:100A5000A9F70E9440A20C94B7A90C9400009091B1
:100A6000D4039C3131F4E82FF0E0E053F94F849146
:100A700008959E3129F4E82FF0E0E653F94FF7CFBF
:100A800081E008952091D40390916403E82FF0E071
:100A90002C3149F4992321F0E255F94F84910895BE
:100AA000EE56F94FFBCF2E3141F4992319F0E65958
:100AB000F94FF4CFE45BF94FF1CF992319F0E357E5
:100AC000F94FECCFE857F94FE9CF80916D038F5F75
:100AD00080936D03089580916C038F5F80936C0306
:100AE00008952091E003222399F09C01205B31407E
:100AF0003093820420938104815B91408115904161
:100B000038F484EF91E090938404809383040895F3
:100B10001092820410928104089590E080E008957C
:100B2000FC0164870895FC01848590E00895FC0130
:100B30008685978508951092500384E6809302027B
:100B40001092510345E050E060E070E08CE798E0DF
:100B50000C940F920F931F93CF93DF9300D000D08C
:100B6000CDB7DEB78FEF9FEFDC0189839A83AB832C
:100B7000BC8310E000E01E830D83BE016B5F7F4FDE
:100B8000CE0101960E94D98FBE016A5F7F4FCE01D0
:100B900001960E94D98F0F5F1F4F0432110559F73C
:100BA0008EE190E09E838D83BE016B5F7F4FCE010F
:100BB00001960E94D98FBE016A5F7F4FCE010196D8
:100BC0000E94D98F86E090E09E838D83BE016B5F8B
:100BD0007F4FCE0101960E94D98FBE016A5F7F4F81
:100BE000CE0101960E94D98F69817A818B819C8187
:100BF000609570958095909526960FB6F894DEBF17
:100C00000FBECDBFDF91CF911F910F910895FF923D
:100C10000F931F93CF93DF93EC01F62E0881198178
:100C2000C8010E94D2A6F81621F06F2DC8010E94BB
:100C3000DAA6CE01DF91CF911F910F91FF90089519
:100C4000EF92FF920F931F93CF93DF9300D000D0CA
:100C5000CDB7DEB70E94AA0569837A838B839C8314
:100C6000CE0101967C010CEF1FE01E830D83F7017E
:100C700061917F01CE0105960E9407060F5F1F4F0D
:100C80000115F0E11F0789F726960FB6F894DEBF2D
:100C90000FBECDBFDF91CF911F910F91FF90EF90CD
:100CA0000895E2E0F1E080818F7D808380818F7BF9
:100CB00080831098119880E00E94B45180E00E94D7
:100CC0003851E2EDF7E01086118608958091140204
:100CD000823071F028F4813069F08BE10C94685017
:100CE000833021F08430C9F78AE1F8CF89E1F6CF6B
:100CF00088E1F4CF87E1F2CF2091D0033091D10386
:100D0000A901435051094230510518F026303105F0
:100D100011F4882399F190911402209113029213F7
:100D200003C0811118C008952917A8F481E08093A9
:100D30004F0344E250E060E070E09330D9F070F48B
:100D40004EE150E060E070E09230A1F049E150E007
:100D500060E070E00FC010924F03EBCF4DE250E027
:100D600060E070E0943031F04CE350E060E070E01F
:100D7000953061F784EA98E00C940F920895CF9330
:100D8000C82F84E0C530F0F00E94420560E00E9468
:100D9000368983E00E94420560E00E94368982E045
:100DA0000E94420560E00E94368981E00E9442056F
:100DB00060E00E94368980E00E94420560E0CF91A9
:100DC0000C9436890E94420561E00E943689C43045
:100DD00001F383E00E94420561E00E943689C3303E
:100DE000F1F282E00E94420561E00E943689C23041
:100DF000E1F281E00E94420561E00E943689C11162
:100E0000DACF80E00E94420561E0D9CFEF92FF92F5
:100E10000F931F93CF93DF938AEF97E00E94DF91A8
:100E2000882341F040E951E060E070E08AEF97E00C
:100E30000E940F928091D40310E08E3109F012E0ED
:100E40008AEF97E00E949991683C710581059105B0
:100E500008F0CEC0C0918604CC2391F08091D003DD
:100E60009091D103069759F480911702853039F497
:100E7000C1E08091DC039091DD03892B09F0C0E093
:100E80008091CB039091CC030197029788F48091D5
:100E9000D0039091D103069759F4809117028530C1
:100EA00039F48091DC039091DD03019709F4C1E0EE
:100EB0008091BC078A3B69F48091D0039091D10363
:100EC000069739F4D1E08091DC039091DD03892B02
:100ED00009F0D0E08091D4038C3169F105E08E31C6
:100EE00059F180E0DD2309F47BC00E94420560E0F7
:100EF0000E94368981E00E94420561E00E943689A5
:100F000082E00E94420561E00E94368983E00E94EF
:100F1000420561E00E94368984E0CC2309F464C074
:100F20000E94420560E0DF91CF911F910F91FF90E9
:100F3000EF900C94368904E0CC2379F1C0E08EE187
:100F400090E07C01E11AF108CE151F04ACF4CC232B
:100F500069F0DD2311F0C01710F0C93138F08C2F83
:100F60000E9442050E94D087CF5FEECF8C2F0E9457
:100F700042050E94B287F8CF8091D4038E3129F4C4
:100F80008DE10E9442050E94B287DF91CF911F91AF
:100F90000F91FF90EF900C94F88BDD23C9F0C1E026
:100FA0008EE190E07C01E11AF108CE151F046CF788
:100FB0008C2FCC2341F0C01730F40E9442050E94D0
:100FC000D087CF5FF2CF0E9442050E94B287F9CF4F
:100FD000DF91CF911F910F91FF90EF900C94EE8BCA
:100FE0000E94420561E084CF0E94420561E09BCFF0
:100FF00080911702833009F4BDC068F4813009F490
:101000000BC1823009F4E3C0DF91CF911F910F91A2
:10101000FF90EF900895843009F47BC08530A1F7EC
:101020008091D4038C3109F439C08E3109F068C045
:10103000C1E08EE190E09C01211B31098901C017BC
:1010400011060CF0A2CFEBEFEC0FE93100F5F0E068
:101050008827E25DF74F8F4F0C948DA74C084C0802
:1010600047084708470847084C084C0847084708FE
:10107000470847084C084C084708470847084708EE
:101080004C084C0847084708470847084C088C2F6D
:101090000E9442050E94D087CF5FD1CFC1E08EE190
:1010A00090E09C01211B31098901C01711060CF049
:1010B0006CCFECEFEC0FE531E0F4F0E08827EC5971
:1010C000F74F8F4F0C948DA77E087E087E08790815
:1010D000790879087E087E087E08790879087908F9
:1010E0007E087E087E087908790879087E087E08DF
:1010F0007E088C2F0E9442050E94D087CF5FD5CFFB
:1011000085E0DF91CF911F910F91FF90EF900C94AC
:10111000BF068091D4038C3149F18E3149F5C1E08D
:10112000CD3038F48BEFCB3028F0CF5FC731C1F72B
:101130002CCF8FEE8C0F8230C0F38C2F0E94420593
:101140000E94D087F2CFCD3038F48CEFCA3028F02F
:10115000CF5FC631C1F719CF80EF8C0F8330C0F35A
:101160008C2F0E9442050E94D087F2CFC1E0F8CFB9
:1011700084E0C7CF8091D4038C3129F18E3129F5D9
:10118000C1E0C53030F0C73048F085EF8C0F8230B9
:1011900028F08C2F0E9442050E94D087CF5FC1317A
:1011A00081F7F3CEC43030F0C73048F086EF8C0FB3
:1011B000833028F08C2F0E9442050E94D087CF5F99
:1011C000C03181F7E2CEC1E0F5CF83E09ACF8091C4
:1011D000D4038C31E9F08E31E9F4C1E08BEF8C0F50
:1011E000823028F08C2F0E9442050E94D087CF5F6A
:1011F000CB30A1F7CACE8CEF8C0F833028F08C2F28
:101200000E9442050E94D087CF5FCA30A1F7BDCEB1
:10121000C1E0F5CF82E075CF8091D4038C3161F0CD
:101220008E31A1F4C1E08C2F0E9442050E94D0872C
:10123000CF5FC530C1F7A9CEC1E08C2F0E94420517
:101240000E94D087CF5FC430C1F79FCE81E059CFD5
:101250000F931F93CF938091D4038C3191F08E31F3
:10126000B9F480E0C0E00EE110E0081B1109C017DE
:1012700011064CF48C2F0E9442050E94D087CF5F4C
:10128000F6CF82E0EFCFCF911F910F910C94F88BA6
:1012900085E0CF911F910F910C94BF06EF92FF92C2
:1012A0000F931F93CF93DF9300D01F921F92CDB760
:1012B000DEB78091D4038D7F8C3109F0E1C084EAE0
:1012C00098E00E94DF91882309F457C08091D403ED
:1012D00012E08E3109F410E085E0E2E3F2E0DE0195
:1012E000119601900D928A95E1F78091E903909112
:1012F000EA03019731F48AE089838A838B838C83A4
:101300008D8380915203282F30E04EE150E07A0126
:10131000E11AF10890914F03992309F458C02E1552
:101320003F0524F40E9442050E94038C8091140220
:101330008530E9F5809152038E151F0451F14CF16F
:1013400010924F038EE1811B809352038091E90339
:101350009091EA034AE550E060E070E0019711F5F2
:101360001092AC081092AD0880914F03882329F0A9
:10137000809152038F5F809352030F900F900F90D4
:101380000F900F90DF91CF911F910F91FF90EF90F1
:1013900008954D8184E0489FA0011124052E000C82
:1013A000660B770B84EA98E00E940F92DDCF0E94D3
:1013B0002F0590915203981718F010924F03C6CF43
:1013C000E0911402EC0FFD2FF11D4081E3CF2E15AB
:1013D0003F0524F40E9442050E94FC8B10915203A9
:1013E000111116C081E080934F034AE550E060E0A0
:1013F00070E084EA98E00F900F900F900F900F909C
:10140000DF91CF911F910F91FF90EF900C940F926D
:1014100011501093520301E08091D4038E3109F4EE
:1014200000E0809114022091E9033091EA038530B5
:10143000A9F42130310541F41E151F042CF410923B
:10144000AC081092AD0899CF4D8184E0489FA0016F
:101450001124052E000C660B770BCBCF2130310504
:1014600041F40E942F05800F9927991F181719061C
:1014700034F3E0911402EC0FFD2FF11D4081E5CF14
:10148000809114028330C9F080F48230A1F081E0B1
:101490000F900F900F900F900F90DF91CF911F91B1
:1014A0000F91FF90EF900C94BF06843041F085308F
:1014B00071F785E0EDCF82E0EBCF83E0E9CF84E008
:1014C000E7CFEF92FF920F931F93CF939091D403A6
:1014D000809114029C3199F010E09E3189F08330A4
:1014E00009F458C008F04DC0823009F451C081E0C1
:1014F000CF911F910F91FF90EF900C94BF0612E0D7
:10150000212F30E0C0E08530D9F48EE190E07C01FD
:10151000E21AF30ACE151F043CF48C2F0E944205F8
:101520000E94D087CF5FF6CF0E94F88B8EE1811B9F
:1015300080935203CF911F910F91FF90EF900895E8
:101540000EE110E0021B130BC01711069CF48091F2
:1015500014020E942F058C1738F08C2F0E94420530
:101560000E94D087CF5FF0CF8C2F0E9442050E944F
:10157000B287F8CF0E94F88B809114020E942F0549
:10158000D7CF843049F0853009F0B1CF85E0B0CFB6
:1015900082E0AECF83E0ACCF84E0AACF8091E903B4
:1015A0009091EA03019739F480E190E0909304026E
:1015B00080930302089583E090E090930402809367
:1015C00003028091D0039091D103049761F0809140
:1015D000C5039091C603019769F78091D20390915A
:1015E000D303892B39F786E090E0E0CF8091D403D4
:1015F0008D7F8C3121F40E94EE8B1092520308955E
:101600001092C6031092C5031092CC031092CB0324
:1016100010925903109258030895E6EBFAE01086F1
:10162000118610925B0370E060E08BE00C94DB8924
:101630004091DE035091DF034330510551F1909109
:101640000B02992331F12091D0033091D103243042
:101650003105F9F09091C80391111BC09091CA0314
:101660009923B9F09091200842305105A1F423301C
:10167000310511F0992369F020915B0391110FC09E
:101680008217F9F080935B03682F70E08BE00C9475
:10169000DB890C940D0B20915B03992381F0682F5B
:1016A00070E0660F771F6F3F710519F014F06FEF50
:1016B00070E02617170629F060935B03E7CF281325
:1016C000E1CF0895CF938091D4038C3109F03FC1CD
:1016D000809152038C3128F1883308F049C0C7E368
:1016E000C81B8091D0039091D103049729F0809179
:1016F000C803882309F44EC00E940D0B8C2F0E9452
:1017000042050E94FC8B80915203873309F042C14D
:101710001092DB081092DC0810924F0310925203D3
:1017200027C00E9442050E94038C8091520387319A
:1017300008F181E40E94180B809152038F5F80931F
:1017400052038C3109F047C14AE550E060E070E097
:1017500083ED98E00E940F928091E9039091EA0353
:10176000019731F488E090E09093040280930302A3
:10177000CF910895813110F087E3DCCF8C3010F0E9
:101780008DE2D8CF853010F083E2D4CF8823A1F248
:1017900089E1D0CF8091E9039091EA03209114026E
:1017A000253018F48130910511F0892B29F48C2F04
:1017B0000E9442050E94FC8B8091E9039091EA030C
:1017C0000097F9F00197A1F680911402833009F493
:1017D00075C098F5823009F48FC08FE00E94180B15
:1017E00090915203923309F0A5C01092DB08109239
:1017F000DC0810924F0384E080935203CF910C9445
:10180000CE0A80915203873309F03DC144E050E095
:1018100060E070E084EA98E00E940F921092DB088A
:101820001092DC0881E080934F03109252030E94D3
:10183000CE0A8FE0CF910C94180B843009F18530DB
:1018400061F690915203973389F41092AC0810928C
:10185000AD081092DB081092DC0810924F038BE168
:10186000809352030E94CE0A88E2E4CF1092DB08F4
:101870001092DC0881E080934F0387E3891BF0CF4F
:1018800090915203903269F41092DB081092DC08B8
:1018900010924F0386E1809352030E94CE0A8DE29C
:1018A000C9CF913208F42EC11092DB081092DC08E7
:1018B00081E080934F0387E3891BEDCF9091520322
:1018C000963269F41092DB081092DC0810924F03F4
:1018D00080E1809352030E94CE0A89E1ABCF973218
:1018E00008F43CC11092DB081092DC0881E0809380
:1018F0004F0387E3891BEDCF909152039B3269F42C
:101900001092DB081092DC0810924F038BE080935A
:1019100052030E94CE0A84E18DCF9C3208F442C16A
:101920001092DB081092DC0881E080934F0387E37C
:10193000891BEDCF933308F4A6C01092DB081092F8
:10194000DC0881E080934F0387E3891B55CF8E31FC
:1019500009F048C1809152038E3150F18C3308F068
:1019600007CFCBE3C81B8091D0039091D10304979C
:1019700029F08091C803882309F44CC00E940D0B04
:101980008C2F0E9442050E94FC8B809152038B3366
:1019900009F4BECE40E550E060E070E083ED98E0F1
:1019A0000E940F92809152038F5F80935203E0CE8A
:1019B0000E9442050E94038C809152038831D0F02E
:1019C00081E40E94180B809152038F5F8093520331
:1019D0008E3109F4B9CE4091030250910402440FB4
:1019E000551F440F551F70E060E083ED98E0CF91E4
:1019F0000C940F92823110F087E3E3CF8C3010F01B
:101A00008DE2DFCF863010F083E2DBCF8823D9F27E
:101A100089E1D7CF8091E9039091EA0320911402E4
:101A2000253018F48130910511F0892B29F48C2F81
:101A30000E9442050E94FC8B8091E9039091EA0389
:101A40000097E1F0019709F093CE80911402833062
:101A500009F46DC018F5823009F495C08FE00E943A
:101A6000180B90915203953309F0B0C01092DB0827
:101A70001092DC0810924F0385E0BECE8091520395
:101A80008B3309F4C3CE4091030250910402440FFA
:101A9000551F440F551F70E060E080CF8430D9F0AF
:101AA0008530E1F6909152039B3361F41092AC08BB
:101AB0001092AD081092DB081092DC0810924F03D0
:101AC0008DE1CECE1092DB081092DC0881E080938D
:101AD0004F038BE3D3CE90915203933241F4109293
:101AE000DB081092DC0810924F0387E1D4CE9432C9
:101AF00048F01092DB081092DC0881E080934F03DD
:101B00008BE3DACE4091030250910402440F551F3B
:101B1000440F551F70E060E083ED98E00E940F9243
:101B2000809152038F5F809352038BE183CE90911B
:101B30005203993241F41092DB081092DC081092A3
:101B40004F0381E1C6CE9A3248F01092DB08109222
:101B5000DC0881E080934F038BE3CCCE40910302FD
:101B600050910402440F551F440F551F70E060E070
:101B700083ED98E00E940F92809152038F5F8093D3
:101B8000520383E257CE909152039F3209F4B8CEAC
:101B900048F01092DB081092DC0881E080934F033C
:101BA0008BE3C6CE4091030250910402440F551FAF
:101BB000440F551F70E060E083ED98E00E940F92A3
:101BC000809152038F5F8093520387CE963308F43F
:101BD0005ACF1092DB081092DC0881E080934F030B
:101BE0008BE3B3CE8091D0039091D103049721F081
:101BF0008091C803C1E08111C2E0E0915303EA3053
:101C000008F0B6CDF0E08827E75FF14F8F4F0C94D6
:101C10008DA7130E2B0E300E350E3A0E5F0E6C0E86
:101C2000780E840EA20E89E10E94180B81E00E94BA
:101C3000BF0688E7C89FA0011124052E000C660B83
:101C4000770B83ED98E00E940F92809153038F5F92
:101C5000809353038DCD83E20E94180B82E0E7CF7F
:101C60008DE20E94180B83E0E2CF87E30E94180BFD
:101C700084E0DDCF81E40E94180B85E00E94BF065E
:101C800080915303282F30E02F5F3F4F9091140233
:101C90009217130641F42091D0033091D1032430E0
:101CA000310509F048C08F5F8093530388E7C89FD0
:101CB000A0011124052E000C660B770B96CE87E34E
:101CC0000E94180B84E00E94BF0680915303482FA6
:101CD0004150550B9A01DACF8DE20E94180B83E038
:101CE0000E94BF0680915303482F4350550BF2CFFB
:101CF00083E20E94180B82E00E94BF06809153038A
:101D0000482F4550550BE6CF89E10E94180B81E022
:101D10000E94BF06809153038750990B20911402B3
:101D20002817190609F085CF8091D0039091D1032F
:101D3000049709F47ECF1092DB081092DC08109211
:101D4000530316CD80E00E94BF06F5CF8091D203E9
:101D50009091D3038130910539F48091D003909113
:101D6000D103892B79F00895892B51F58091D00307
:101D70009091D103892B21F58091C5039091C603E1
:101D80000197F1F40E94F60A1092020810920308DB
:101D900080916603811114C00E94CE0A8091D40301
:101DA0008D7F8C3149F48091E9039091EA0301978A
:101DB00019F480E00E947C060E9466060C94620B77
:101DC00008958091DA039091DB038230910581F0D0
:101DD00038F4019799F08091D6039091D703089534
:101DE0008330910541F00497B1F783E090E00895C6
:101DF00081E090E0089582E090E0089590E080E036
:101E000008951092A2081092A308109298081092B8
:101E100099088091C40381110BC00E94E10E0297C2
:101E20000297A0F48091D2039091D303019771F4AB
:101E3000109A0E94E10E0297029730F48091D2032B
:101E40009091D303019721F0119808951098F1CF44
:101E5000119A08958091E00381110C94E10E809114
:101E6000D6039091D70308952F923F924F925F929D
:101E70006F927F928F929F92AF92BF92CF92DF929A
:101E8000EF92FF920F931F93CF93DF93CDB7DEB7FF
:101E9000A4970FB6F894DEBF0FBECDBF8091BB07ED
:101EA0006DED7FEF9B01281B310987FD339544E6DB
:101EB000429FC001439F900D11240E9479A7562E86
:101EC000162F80911D0290911E0228EE33E0B90179
:101ED0000E9465A7E62E80911F0290912002B90111
:101EE0000E9465A7F62E8091210290912202B901ED
:101EF0000E9465A7B62E8091230290912402B90119
:101F00000E9465A7C62E8091250290912602B901F4
:101F10000E9465A78091CB039091CC039C01215036
:101F2000310951E02230310520F452E042E00297BD
:101F300009F041E080910802A1E08111A2E08091C6
:101F40000902811104C181E08BA3809110028111EB
:101F500001C1E1E0ECA38091C30372E0811101C0F3
:101F600071E080910C02B1E08111B2E080916503D3
:101F7000882309F4F2C082E089A380916403882356
:101F800009F4EEC0E2E0EAA38091E7039091E80350
:101F900032E08130910521F033E0029709F031E021
:101FA0008091E3039091E40322E08130910521F0D8
:101FB00023E0029709F021E080916603F2E09F2E72
:101FC000811102C0992493948091DA039091DB03EC
:101FD0000197882483948430910520F4865C9D4F7A
:101FE000FC0180808091D8039091D903E2E0AE2E6D
:101FF0008130910529F0029709F4B5C0AA24A39471
:102000008091C5039091C60377247394019711F4CE
:1020100082E0782E5394153610F005E6502E80910C
:102020000A02DD24D394882311F012E0D12E80918E
:102030002702F2E04F2E811102C044244394809184
:10204000E708E2E03E2E811102C0332433948091F0
:10205000E80892E0292E811102C022242394809165
:10206000E90866246394882311F082E0682E809149
:10207000EF0802E0811101C001E0809162039091BC
:10208000630312E08130910521F013E0029709F01B
:1020900011E08091E1039091E20301978330910573
:1020A00008F064C0895C9D4FFC01808118861F8206
:1020B00059834A83AB83FBA1FC839CA19D837E83D0
:1020C000B887E9A1E987FAA1FA873B872C879D8623
:1020D0008E86AF86788AD98A5A8AEB8AFC8ABD8A2C
:1020E000CE8A6F8B488E398E2A8E6B8E0C8F1D8F09
:1020F0008E8FCE0101967C0110E000E018A30F8FB7
:10210000F70161917F01CE014F960E9407060F5F94
:102110001F4F0E31110591F70E942006A4960FB6AD
:10212000F894DEBF0FBECDBFDF91CF911F910F910D
:10213000FF90EF90DF90CF90BF90AF909F908F90E7
:102140007F906F905F904F903F902F90089592E016
:102150009BA3FBCEF2E0FCA3FECE91E099A30DCFB2
:10216000F1E0FAA311CF94E0A92E4ACF84E09ECFEC
:102170000F931F93CF93DF931F921F92CDB7DEB7BC
:1021800010E000E01A8309836FEFCE0101960E94F0
:1021900007060F5F1F4F0E311105A1F70E942006A1
:1021A0000F900F90DF91CF911F910F910895EF92B3
:1021B000FF920F931F93CF93DF9300D000D01F9215
:1021C0001F92CDB7DEB73091D50320910E028091DA
:1021D0000D0291E0811192E080918804882369F1D9
:1021E00082E0409116024983409115024A839B8305
:1021F0003C832D838E83CE0101967C010EE110E09D
:1022000018870F83F70161917F01CE0107960E9425
:1022100007060F5F1F4F0432110591F70E94200639
:1022200028960FB6F894DEBF0FBECDBFDF91CF91D9
:102230001F910F91FF90EF90089581E0D2CF0F93FF
:102240001F93CF93DF931F921F92CDB7DEB70EE19E
:1022500010E01A8309836FEFCE0101960E940706F2
:102260000F5F1F4F04321105A1F70E9420060F9047
:102270000F90DF91CF911F910F9108958091960457
:10228000909197040197039710F40C945F8508953B
:102290009F92AF92BF92CF92DF92EF92FF920F93F5
:1022A0001F93CF93DF93CDB7DEB76C970FB6F8943B
:1022B000DEBF0FBECDBF40E051EE60E070E08AEFC0
:1022C00094E00E94AE861092F3041092F4041092EF
:1022D000F5048AEF94E09093990480939804109207
:1022E000F0041092F1041092F204EAE9F4E08FEFA6
:1022F0009FEF8193919324E0E63BF207D1F7809121
:10230000980490919904DC01ED91FC910084F18591
:10231000E02D1995892B61F0809198049091990492
:10232000DC01ED91FC910284F385E02D1995E7CF56
:102330000E94528C68517C4F6B01F12CE12C40EFD4
:10234000942E5AEAA52E65E0B62E01E115E50E940D
:102350005F858091F50481111FC00E94528C6C151D
:102360007D058E059F05C0F49982AA82BB820C83ED
:102370001D838091980490919904DC01ED91FC916A
:102380000280F381E02D45E050E0BE016F5F7F4F9A
:1023900019950E941D8CDBCF0E945F85F090F5049B
:1023A000FF2009F466C08091ED049091EE04892B22
:1023B00009F45CC082E090E09093970480939604C7
:1023C0008091E003811103C08AE08093BD07809172
:1023D000BD072DED3FEF281B310987FD3395409157
:1023E0001C02429FC001439F900D11246CE97FEFB6
:1023F0000E9479A763526093BC076093BB07609308
:10240000BA070E945F858091EB049091EC040E94D2
:10241000710580EF89838AEA8A8385E08B8383E173
:102420008C8385E58D838091980490919904DC01DB
:10243000ED91FC910280F381E02D45E050E0BE017A
:102440006F5F7F4F19958F2D6C960FB6F894DEBF96
:102450000FBECDBFDF91CF911F910F91FF90EF90F5
:10246000DF90CF90BF90AF909F90089581E090E073
:10247000A3CF8AEB9FEF0E94868720EFE22EE982AE
:102480003AEAF32EFA8205E00B8384E08C8315E5AB
:102490001D838091980490919904DC01ED91FC9149
:1024A0000280F381E02D45E050E0BE016F5F7F4F79
:1024B0001995E982FA820B8381E08C831D838091D8
:1024C000980490919904DC01ED91FC910280F381D4
:1024D000E02D45E050E0BE016F5F7F4F1995E98226
:1024E000FA820B8382E08C831D8380919804909103
:1024F0009904DC01ED91FC910280F381E02D45E02F
:1025000050E0BE016F5F7F4F19950E941D8C0E94A5
:102510005F85F090F304FF2009F470C0A6EDB4E0ED
:10252000FE013196CE0145962D9121938E179F077E
:10253000D9F70E945F858091F404882341F00E94BE
:102540005F858091EB049091EC040E94710580EF0F
:10255000E82EEE8A0AEA0F8B87E0888F8CE0898F5D
:102560001A8E1B8E15E51C8F80919804909199040A
:10257000DC01ED91FC910280F381E02D47E050E019
:10258000BE016A5E7F4F1995EE8A0F8B96E0D92EB9
:10259000D88E89E0898F81E08A8F1B8F8091980483
:1025A00090919904DC01ED91FC910280F381E02D82
:1025B00046E050E0BE016A5E7F4F19958091E003CE
:1025C000EE8A0F8BD88E9EE0998F8A8F1B8F809119
:1025D000980490919904DC01ED91FC910280F381C3
:1025E000E02D46E050E0BE016A5E7F4F199583E022
:1025F00090E0909397048093960425CF10929704CF
:10260000109296048AEF94E00E94EE82E0910C050D
:10261000F0910D0580818F7E8083E0910C05F09113
:102620000D058081877F8083E0910C05F0910D0579
:1026300080818F778083E0910C05F0910D0580817A
:102640008F7D80838091140580931305FCCE80914B
:102650009604909197040197039708F021C1609127
:10266000B907062E000C770B8CE390E00E940285E0
:102670006091B907062E000C770B8AE691E00E9464
:1026800002856091B907062E000C770B8BE691E06E
:102690000E9402856091B907062E000C770B81E23B
:1026A00090E00E9402856091B907062E000C770B1E
:1026B0008DE190E00E9402856091B907062E000C22
:1026C000770B8EE190E00E9402856091B907062E9B
:1026D000000C770B8FE190E00E9402856091B907B2
:1026E000062E000C770B80E290E00E94028580911C
:1026F000E0038823D9F06091B907062E000C770B10
:1027000083E991E00E9402856091B907062E000CD2
:10271000770B84E991E00E9402856091B907062E4B
:10272000000C770B87E491E00E9402858091C4033E
:102730008823D9F16091B907062E000C770B8091A0
:10274000CE039091CF038230910509F4A3C083306A
:10275000910559F1019709F4A0C08EE791E00E941C
:1027600002856091B907062E000C770B89E891E08D
:102770000E9402856091B907062E000C770B83E654
:1027800090E00E9402856091B907062E000C770B3D
:1027900088E490E00E9402856091B907062E000C43
:1027A000770B82E690E00E9402856091B907062EC1
:1027B000000C770B8EE890E00E9402856091B907CB
:1027C000062E000C770B80E990E00E940285609154
:1027D000B907062E000C770B8DE890E00E94028569
:1027E0006091B907062E000C770B8FE890E00E94ED
:1027F00002856091B907062E000C770B83E990E003
:102800000E9402856091B907062E000C770B81E9C2
:1028100090E00E9402856091B907062E000C770BAC
:1028200082E990E00E9402856091B907062E000CB3
:10283000770B84E990E00E9402856091B907062E2B
:10284000000C770B82E190E00E9402856091B9074D
:10285000062E000C770B83E190E00E9402856091C8
:10286000B907062E000C770B84E190E00E940285E8
:102870006091B907062E000C770B85E190E00E946D
:1028800002856091B907062E000C770B86E190E077
:102890000C94028584E390E086CF8AE390E083CFB6
:1028A00008958091810490918204892B09F467C076
:1028B0008091830490918404843F21E0920708F47E
:1028C0005EC021E0209387044091E00320919604AC
:1028D000309197042230310599F12330310519F0F8
:1028E0002130310509F54423F9F02091860465E093
:1028F000211101C066E00E94D4846091B807062EC1
:10290000000C770B80918304909184040E940285CF
:1029100061E080918304909184040E9430850E943C
:102920005F8581E08093F9048091E003882339F189
:1029300040E157E260E070E08EEB97E00C940F927C
:10294000442391F32091860465E0211101C066E0E3
:102950000E94D4846091B807062E000C770B8091FA
:102960008304909184040E94028550E040E061E07D
:1029700080918304909184040E947B86D0CF089537
:10298000209196043091970421503109233031056C
:1029900018F464E00C94D48408950E942A0F0297DE
:1029A00020F08AE691E00C94C0148CE390E0FBCF19
:1029B0008DE890E00E94C0148EE890E00E94C01460
:1029C0008FE890E00E94C01480E990E00E94C0145B
:1029D00081E990E00E94C01482E990E00E94C01456
:1029E00083E990E00E94C01484E990E00C94C01444
:1029F000CF93C82F80911402823020F08430D8F019
:102A0000863000F181E290E00E94C014CC2349F1AD
:102A10008091E003882329F18091CE039091CF0328
:102A200082309105B1F083309105C1F00197C9F46E
:102A300084E991E010C081E290E00E94C0148DE131
:102A400090E0E2CF8DE190E00E94C01480E290E03F
:102A5000DBCF83E991E0CF910C94C01487E491E03F
:102A6000FACFCF9108959091CC098091C70998131E
:102A70001AC09091110A80910C0A981314C0909179
:102A8000560A8091510A98130EC08091D2039091FA
:102A9000D303019741F448EE53E060E070E086E82C
:102AA00098E00E940F9280916103882309F45CC032
:102AB000109261039091CC098091C709981312C0BC
:102AC0009091110A80910C0A98130CC09091560AAB
:102AD0008091510A981306C08091D2039091D3033C
:102AE000019711F182E190E00E94C01483E190E02F
:102AF0000E94C01484E190E00E94C01485E190E03F
:102B00000E94C01486E190E00E94C01480911002DF
:102B1000882319F085EC0E94685040E050E0BA012B
:102B200086E898E00C940F9266E082E190E00E94C3
:102B3000D48466E083E190E00E94D48466E084E17E
:102B400090E00E94D48466E085E190E00E94D48405
:102B500066E086E190E00E94D48480911002882390
:102B600019F086EC0C9468500895CF92DF92EF92A2
:102B7000FF920F931F93CF93DF936C01F62EC42F18
:102B800014160CF4C0E0CA3B0CF4CAEB8091960416
:102B9000909197048230910589F18330910519F065
:102BA000019709F047C00C2E000CDD0B222379F0B1
:102BB0006AEB7FEFC6010E9402856E2DC6010E945E
:102BC0003085A801BE01C6010E94F28608C0BE0180
:102BD000C6010E9402856E2DC6010E94308565E007
:102BE000F11001C066E0C601DF91CF911F910F91F6
:102BF000FF90EF90DF90CF900C94D4840C2E000CBB
:102C0000DD0B222361F06AEB7FEFC6010E94028593
:102C100050E040E06E2DC6010E947B86D2CFBE01FF
:102C2000C6010E94028550E040E06E2DC6010E9460
:102C30007B86D5CFDF91CF911F910F91FF90EF90C1
:102C4000DF90CF900895EF920F931F93909107021A
:102C5000981759F18430D9F486E10E9468500E9497
:102C60002A0FEE24E39410E000E020E04091B90741
:102C700061E00297B8F08AE691E00E94B51544E65B
:102C800050E060E070E08AE998E00E940F92809145
:102C900007028F5F8093070285E11F910F91EF90EC
:102CA0000C9468508CE390E0E8CF1F910F91EF9067
:102CB0000895EF920F931F93209162033091630365
:102CC00080916703909168032115310521F53091BA
:102CD000420920913D09321739F18230910539F1CD
:102CE000892B09F461C00E94E10E20911002029725
:102CF000029708F448C0222319F087EB0E9468501D
:102D0000EE24E39410E000E020E04091B90760E099
:102D10008DE891E047C021303105F9F63091420944
:102D200020913D093217C9F28130910569F481E0A3
:102D300020916703309168032230310509F080E06B
:102D40001F910F91EF900895892B99F080911002B7
:102D5000882319F089EB0E946850EE24E39410E078
:102D600000E020E04091B90760E086E991E00E9430
:102D7000B51588E70E94685081E090E09093680361
:102D800080936703D4CF222319F088EB0E94685008
:102D9000EE24E39410E000E020E04091B90760E009
:102DA00081EB90E00E94B51587E70E94685082E0B1
:102DB00090E0E4CFEF920F931F938091E00388237C
:102DC00081F11092F8081092F90887E591E00E94CD
:102DD000C014EE24E39410E000E020E04091B90735
:102DE00060E088E591E00E94B5158091CE03909156
:102DF000CF030297B1F48091D2039091D30301974E
:102E000081F49091110A80910C0A98130AC004E889
:102E100013E021E04091B90761E083E991E00E946D
:102E2000B5151092D1031092D0031F910F91EF901E
:102E30000895EF920F931F93809155038823A1F17A
:102E40000E94E10E0297B0F589E491E00E94C0145F
:102E50008CE491E00E94C0148DE491E00E94C014C3
:102E600081E00E94F8148091D0039091D1030497DF
:102E7000D9F08091C703811117C080911002882377
:102E800019F08CEB0E94685081E190E00E94C01420
:102E9000EE24E39410E000E020E04091B90760E008
:102EA00081E190E00E94B515109255031F910F919A
:102EB000EF900895809110022091D0033091D103BA
:102EC0002430310551F09091C803911106C0209132
:102ED000D2033091D303232B91F4882319F08AE590
:102EE0000E946850EE24E39410E000E020E040915E
:102EF000B90760E084E990E00E94B51523C0909185
:102F0000C70391111FC0882319F088E50E946850FB
:102F100049E557E060E070E08EE099E00E940F9292
:102F200010920C0910920D098091960490919704CB
:102F30000297C1F44091B9076EE870E082E990E031
:102F40000E94268780911002882319F085E50E944F
:102F500068508FE890E00E94C01480E990E00E94E1
:102F6000C014A2CFEE24E39410E000E020E04091F2
:102F7000B90760E082E990E0BFCF8091D2039091E1
:102F8000D3038130910539F48091D0039091D1031E
:102F9000892B79F00895892B61F58091D003909168
:102FA000D103892B31F58091C5039091C603019718
:102FB00001F50E9433150E94191781E00E94F81450
:102FC0008091D40390E08E3109F092E08EE1891B6C
:102FD0008093520385E0809353030E94280948E7B9
:102FE00050E060E070E083ED98E00E940F920C9456
:102FF000620B0895EF920F931F930E94D814809153
:103000001002882319F083E50E94685048EE56E0CC
:1030100060E070E08EE099E00E940F92809196044B
:1030200090919704029771F44091B9076EE870E0AF
:103030008DE890E00E942687109201021F910F9167
:10304000EF900895EE24E39410E000E020E040913A
:10305000B90760E08DE890E00E94B515EDCFEF92E2
:103060000F931F93CF93C82F4091B90780911402FB
:10307000833020F0853048F1853081F1EE24E394EF
:1030800008EE13E02C2F61E081E290E00E94B5157C
:103090008091E0038823B9F1CC23A9F18091CE037C
:1030A0009091CF038230910511F18330910581F128
:1030B000019749F5EE24E39404E813E021E0409100
:1030C000B90761E084E991E01CC0EE24E39408EEC6
:1030D00013E02C2F61E08DE190E0D8CFEE24E39453
:1030E00008EE13E02C2F61E080E290E0CFCFEE24D9
:1030F000E39404E813E021E04091B90761E083E93B
:1031000091E00E94B515CF911F910F91EF90089516
:10311000EE24E39404E813E021E04091B90761E074
:1031200087E491E0EECFEF920F931F93CF93DF935D
:103130008091D0039091D1038430910509F4EDC0C2
:103140002091C8032111E9C03091110A20910C0A85
:103150003213BBC120910D022223A9F02091CE038E
:103160003091CF032230310509F4DDC0039759F0C7
:1031700080912008882309F4D6C088E198E00E9455
:10318000DF918111D0C08FEF0E943851C09155035B
:103190000E94E10EC11135C0029708F0F0C0809185
:1031A0004C03811128C089E491E00E94C0148CE492
:1031B00091E00E94C0140E94E10E019709F0C8C07E
:1031C0008DE491E00E94C014EE24E39410E000E04E
:1031D00020E04091B90760E08DE491E00E94B515D0
:1031E00080911002882339F080914B03811103C034
:1031F00081ED0E94685081E00E942F1881E0809349
:1032000055030E94E10E02970297F8F484E099E0DA
:103210000E94DF918823C9F080911002882319F061
:1032200087E50E94685080919604909197040297D8
:1032300061F0EE24E39410E000E020E04091B90753
:1032400061E080E990E00E94B51510924C03109265
:103250004B039091CC098091C70998132FC180919D
:10326000610381115AC08091C403811156C086E860
:1032700098E00E94DF91882309F44FC08091D00329
:103280009091D103049709F448C0809161038111A2
:1032900044C00E94E10EEC0182E190E00E94C01463
:1032A00083E190E00E94C01484E190E00E94C01489
:1032B00085E190E00E94C01486E190E00E94C01475
:1032C0002297229708F0E5C080910A02882309F42A
:1032D000E0C080911002882319F087EC0E946850AA
:1032E0004091B90780911402833009F4C0C008F0FE
:1032F000A7C0823009F4B2C0EE24E39410E000E0ED
:1033000020E061E082E190E00E94B51581E08093C9
:10331000610310928E0810928F08DF91CF911F9158
:103320000F91EF90089580911402833069F020F49A
:10333000823061F086E628CF843021F08530D1F7E5
:103340008CEC22CF82EB20CF89E91ECF80E81CCF06
:10335000EE24E39410E000E020E04091B90760E043
:1033600089E491E00E94B51580911002882309F448
:1033700042CF80914B0381113ECF8AEB3ACF8091AF
:103380001002882339F0809101028823C1F18BE576
:103390000E946850109216091092170949E557E0EB
:1033A00060E070E084E099E00E940F9220910102B9
:1033B0004091B9078091960490919704222361F17E
:1033C0000297F9F460E970E083E990E00E942687B3
:1033D000109201028DE890E00E94C0148EE890E007
:1033E0000E94C01481E990E00E94C01482E990E03C
:1033F0000E94C01484E990E00E94C014FFCE84E5CE
:10340000C7CFEE24E39410E000E020E060E083E921
:1034100090E00E94B515DCCF029739F460E970E0C6
:103420008FE890E00E942687D5CFEE24E39410E049
:1034300000E020E060E08FE890E00E94B515CACF80
:103440008430F1F0853009F057CFEE24E39410E09A
:1034500000E020E061E086E190E056CFEE24E394C6
:1034600010E000E020E061E083E190E04DCFEE2449
:10347000E39410E000E020E061E084E190E044CFDC
:10348000EE24E39410E000E020E061E085E190E0CC
:103490003BCF8091CD09882309F438CF8091100269
:1034A000882319F088EC0E946850EE24E39410E021
:1034B00000E020E04091B90760E0CDCFDF91CF91EF
:1034C0001F910F91EF900C94331580E00E943851BA
:1034D0000E943315DF91CF911F910F91EF900C94C3
:1034E0001917EF920F931F930E94F60A1092F80893
:1034F0001092F90810920208109203081198809116
:103500006603811102C00E94CE0A0E94E10E02975A
:1035100048F58CE491E00E94C014EE24E39410E09E
:1035200000E020E04091B90760E08CE491E00E9467
:10353000B5159091110A80910C0A981739F00E94E4
:10354000E10E0297029710F40E94FA171092D1032D
:103550001092D00381E080934B031F910F91EF9065
:103560000C94620B89E491E00E94C014EE24E39471
:1035700010E000E020E04091B90760E089E491E0CC
:103580000E94B51581E00E942F18D3CFEF920F93C0
:103590001F93CF93C82F8091E9039091EA0301977D
:1035A00009F077C080E190E09093040280930302D9
:1035B0008BEF90E00E94C0148091D2039091D303CE
:1035C000029709F4A4C08091C80381110FC08091B3
:1035D000C5039091C603009709F45EC0019731F4CA
:1035E0008091DB08811102C00E94620B8091020170
:1035F00080628093020180910201806480930201C5
:10360000409105025091060270E060E08AEC9AE079
:103610000E940F9281E00E94B4511092A208109271
:10362000A30810929808109299088091C8038111FC
:103630006EC00E94E10E0097D9F1019709F46CC0A9
:103640008091E003882309F493C089E491E00E940B
:10365000C014EE24E39410E000E020E04091B907AC
:1036600060E089E491E00E94B51581E00E942F1886
:103670009091110A80910C0A981709F448C0809122
:10368000C803811144C0CF911F910F91EF900C940A
:10369000FA1786E090E088CF0E94620B9091110AA1
:1036A00080910C0A9813A2CF81E080934C039ECFA7
:1036B0008CE491E00E94C01489E491E00E94C0145F
:1036C0008091CA03EE24E39410E000E020E04091F2
:1036D000B90760E08823B9F08CE491E00E94B51549
:1036E00080911002882399F08091CA03882379F091
:1036F0008091C70381110BC08BEBCF911F910F916C
:10370000EF900C94685089E491E00E94B515CF9138
:103710001F910F91EF9008958CE491E00E94C014E6
:103720008DE491E00E94C0148091CA03EE24E394DA
:1037300010E000E020E04091B90760E0882331F01C
:103740009091110A80910C0A9813C6CF8DE491E0F4
:103750000E94B515809110028823C9F28091CA0396
:103760008823A9F28091C7038111D1CF81EDC5CF04
:103770009091110A80910C0A981377CFCC2309F409
:1037800074CF89E491E00E94C014EE24E39410E029
:1037900000E020E04091B90760E089E491E00E94F8
:1037A000B5158AEB0E94685060CFEF920F931F937C
:1037B000809108028823E1F0109208028DE590E0E4
:1037C0000E94C0148CE590E00E94C014EE24E394A3
:1037D00010E000E020E04091B90760E08DE590E066
:1037E0000E94B51585E31F910F91EF900C946850DE
:1037F00081E0809308028DE590E00E94C0148CE582
:1038000090E00E94C014EE24E39410E000E020E079
:103810004091B90760E08CE590E00E94B51586E321
:10382000E2CFEF920F931F93E091CE03F091CF037D
:10383000319789E0E730F10570F48827ED5DF34EAC
:103840008F4F0C948DA7A81CAA1CA61CA21C2A1C76
:10385000A01CA41C8EE00E9468508091D00390911F
:10386000D1038630910509F452C00897029708F4F5
:103870004EC086E090E00E94C01480E390E00E9479
:10388000C01485E490E00E94C01486E490E00E9499
:10389000C0148EE390E00E94C0148091E00388235E
:1038A00061F083E991E00E94C01484E991E00E94F4
:1038B000C01487E491E00E94C0148091CE039091DF
:1038C000CF038330910509F4ABC008F045C08130C7
:1038D000910509F457C0029709F47BC0EE24E394E4
:1038E00010E000E020E04091B90760E086E090E061
:1038F0000E94B5151092500384E68093020245E0C1
:1039000050E060E070E08CE798E00E940F928091B8
:103910009604909197040197029750F48091CE03FA
:103920009091CF03039709F0B2C080E00E94C08855
:1039300010922A0810922B081F910F91EF90089572
:103940008FE089CF8DE087CF80E185CF8CE083CF7A
:103950008BE081CF8AE07FCF8530910509F487C065
:10396000069709F0BBCF8091E003882319F2EE247B
:10397000E39410E000E020E04091B90760E088E9BE
:1039800091E0B6CFEE24E39410E000E020E0409117
:10399000B90760E085E490E00E94B5158091E003EE
:1039A000882309F4A7CF8091D2039091D303019784
:1039B00009F0A0CF9091110A80910C0A98139ACF28
:1039C00000ED17E021E04091B90761E084E991E062
:1039D0008FCFEE24E39410E000E020E04091B9079F
:1039E00060E080E390E00E94B5158091E0038823B9
:1039F00009F480CF8091D2039091D303019709F00D
:103A000079CF9091110A80910C0A981373CF0CEB27
:103A100012E021E04091B90761E083E991E068CFCD
:103A2000EE24E39410E000E020E04091B90760E06C
:103A300086E490E00E94B5158091E003882309F4A4
:103A400059CF8091D2039091D303019709F052CFBF
:103A50009091110A80910C0A98134CCF02EE14E059
:103A600021E04091B90761E087E491E041CF809186
:103A7000E003882309F43ECFEE24E39410E000E055
:103A800020E04091B90760E087E991E031CF81E023
:103A90004DCFEF920F931F9388E290E00E94C014E5
:103AA000EE24E39410E000E020E04091B90760E0EC
:103AB00088E290E00E94B51588E590E00E94C0146D
:103AC00085E690E00E94C01489E590E00E94C01451
:103AD0002091C5033091C6038091CB039091CC0314
:103AE00021303105C9F082309105B1F40E94000BFC
:103AF00020E04091B90760E089E590E00E94B515AB
:103B000082E30E9468501092CF031092CE031F915F
:103B10000F91EF900C94111C4091B9070197B1F4EB
:103B200082E090E09093CC038093CB039093590371
:103B300080935803EE24E39410E000E020E060E07E
:103B400085E690E00E94B5158AE2DBCF81E090E047
:103B50009093CC038093CB039093590380935803A5
:103B6000EE24E39410E000E020E060E088E590E0DF
:103B70000E94B51589E2C5CF2091CB033091CC03CB
:103B80008091C5039091C60381309105F1F4211510
:103B90003105B1F410925903109258039093CC035D
:103BA0008093CB038091CE039091CF03892B31F08A
:103BB0001092CF031092CE030E94111C80E025C00A
:103BC0003093590320935803EDCF8091580390917F
:103BD00059038217930791F081309105B9F0823033
:103BE0009105A1F01092CC031092CB038091CB03EE
:103BF0009091CC03909359038093580381E02091D6
:103C0000CB033091CC03232BC9F608959093CC03BA
:103C10008093CB03EBCFEF92FF920F931F93CF9341
:103C2000DF93CDB7DEB7A8970FB6F894DEBF0FBE0F
:103C3000CDBF8CEF9FE00E94D2A68DA38DEF9FE0B9
:103C40000E94D2A68EA38EEF9FE00E94D2A68FA3E1
:103C50008FEF9FE00E94D2A688A70E94AA050DA11F
:103C60001EA12FA138A5601771078207930709F0DD
:103C7000DDC2CE0101967C0110E000E0C8010E9487
:103C8000D2A6F70181937F010F5F1F4F0E311105FF
:103C9000A9F789818230B9F481E090E09093CC0358
:103CA0008093CB038A81823031F482E090E090935C
:103CB000CC038093CB038091CB039091CC03909362
:103CC0005903809358038B819FEF980F923030F403
:103CD000823009F006C281E0809308028C819FEF58
:103CE000980F923030F4823009F0FEC181E0809369
:103CF00009028D819FEF980F923030F4823009F0E5
:103D0000F6C181E0809310028E819FEF980F923070
:103D100050F4823009F0EEC181E08093C3038093B8
:103D2000C1038093C20388859FEF980F923030F4CF
:103D3000823009F0E6C181E080930C0289859FEF13
:103D4000980F923030F4823009F0DEC181E0809328
:103D500065038A859FEF980F923030F4823009F026
:103D6000D6C181E0809364038B859FEF980F9330D9
:103D700050F4823009F4CEC1833009F4D6C11092D8
:103D8000E8031092E7038C859FEF980F933050F46F
:103D9000823009F4D3C1833009F4DBC11092E4030B
:103DA0001092E3038D859FEF980F923030F48230AC
:103DB00009F0D8C181E0809366038E859FEF980F4C
:103DC000953060F4833009F4DFC108F0CEC1823051
:103DD00009F4D3C11092DB031092DA038F859FEFB1
:103DE000980F953050F4823009F4D4C1843009F42E
:103DF000D8C11092D9031092D80388899FEF980FE9
:103E0000923068F49091E003992349F0823009F0F0
:103E1000CBC181E090E09093C6038093C50389896C
:103E20009FEF980F923030F4823009F0C2C181E0E8
:103E300080930A029A8991509536F8F48091E003B4
:103E40008823D9F090931C028091BD072DED3FEFA0
:103E5000281B310987FD3395929FA001939F500D38
:103E60001124CA016CE97FEF0E9479A76352609325
:103E7000BB076093BA076093BC072B898FEF820F53
:103E80008C3378F448EE53E0249FC001259F900DB9
:103E9000112490931E0280931D029093E608809354
:103EA000E5082C898FEF820F8C3378F448EE53E0CD
:103EB000249FC001259F900D112490932002809390
:103EC0001F029093E4088093E3082D898FEF820FFF
:103ED0008C3378F448EE53E0249FC001259F900D69
:103EE000112490932202809321029093E208809300
:103EF000E1082E898FEF820F8C3378F448EE53E07F
:103F0000249FC001259F900D11249093240280933B
:103F100023029093E0088093DF082F898FEF820FB0
:103F20008C3378F448EE53E0249FC001259F900D18
:103F3000112490932602809325029093DE088093AB
:103F4000DD08888D9FEF980F923030F4823009F0B1
:103F500033C181E080932702898D9FEF980F9230C3
:103F600030F4823009F02BC181E08093E7088A8D1C
:103F70009FEF980F923030F4823009F023C181E036
:103F80008093E8088B8D9FEF980F923030F4823049
:103F900009F01BC181E08093E9088C8D9FEF980F99
:103FA000923030F4823009F013C181E08093EF0841
:103FB0008D8D9FEF980F933050F4823009F40BC130
:103FC000833009F40FC110926303109262038E8D47
:103FD0009FEF980F9430D0F4823009F410C18330F1
:103FE00009F406C1813009F410C184E090E0909397
:103FF000E2038093E1038091E003882309F4F5C094
:1040000083E090E09093DF038093DE030E941151E0
:104010000E9423517E01FFE1EF0EF11C0EE110E042
:10402000C8010E94D2A6F70181937F010F5F1F4F45
:1040300004321105A9F78F8D9FEF980F9E3F10F462
:104040008093160288A19FEF980F9E3F10F48093F3
:10405000150289A19FEF980F923030F4823009F059
:10406000D9C081E080930D028AA1823031F0853081
:1040700021F0982F9D7F903361F480930F0280335D
:1040800031F0823309F4C9C0823009F085E08093B1
:10409000D5038BA18C3111F08E3159F480930E022F
:1040A0008091D4038D7F8C3121F480910E02809316
:1040B000D4038CA19FEF980F923030F4823009F036
:1040C000B2C081E080938804A8960FB6F894DEBF52
:1040D0000FBECDBFDF91CF911F910F91FF90EF9059
:1040E000089510920802FACD1092090202CE1092A1
:1040F00010020ACE1092C3031092C1031092C203A1
:1041000012CE10920C021ACE1092650322CE10929B
:1041100064032ACE1092EA031092E90381E090E052
:104120009093E8038093E7032ECE81E090E0909394
:10413000EA038093E90382E090E0F2CF1092E60375
:104140001092E50381E090E09093E4038093E30311
:1041500029CE81E090E09093E6038093E50382E02E
:1041600090E0F2CF1092660328CE843081F0853043
:1041700009F030CE84E090E002C081E090E09093BE
:10418000DB038093DA032ACE82E090E0F8CF83E06D
:1041900090E0F5CF81E090E09093D9038093D8032D
:1041A0002CCE82E090E0F8CF1092C6031092C503A7
:1041B00036CE10920A023ECE10922702CDCE109239
:1041C000E708D5CE1092E808DDCE1092E908E5CEDA
:1041D0001092EF08EDCE81E090E09093630380931E
:1041E0006203F5CE82E090E0F8CF82E090E00ACF63
:1041F00083E090E09093E2038093E10303CF81E0BA
:1042000080930B0282E090E0F5CF80930B0281E077
:1042100090E0F0CF10920D0227CF8093D50380E37A
:1042200080930F0236CF109288044ECFEE24E39491
:1042300010E000E020E04091B90760E08FE591E0F8
:104240000E94B5150E94B810A8960FB6F894DEBF6C
:104250000FBECDBFDF91CF911F910F91FF90EF90D7
:104260000C941F11EF920F931F9380911B028530C6
:1042700020F510921B0280E490E00E94C014EE240E
:10428000E39410E000E020E04091BC0760E080E4AF
:1042900090E00E94B51580911B0226E4829FC00128
:1042A000112464E670E00E9479A766546093B90710
:1042B0001F910F91EF900C942713855080931B0250
:1042C000EACFEF920F931F9380911B02803628F163
:1042D00084E680931B0280E490E00E94C014EE24E8
:1042E000E39410E000E020E04091B90760E080E452
:1042F00090E00E94B51580911B0226E4829FC001C8
:10430000112464E670E00E9479A766546093B907AF
:104310001F910F91EF900C9427138B5F80931B02DA
:10432000EACFEF920F931F93CF93C82F80919604FB
:10433000909197040197039738F48091BC07082E59
:10434000000C990B0E948687C11116C08091D20380
:104350009091D303892B81F480E490E00E94C014F3
:10436000EE24E39410E000E020E04091B90760E023
:1043700080E490E00E94B515CF911F910F91EF90CE
:104380000895CF93C62F9091D503292F2D7F62E0FA
:10439000203309F46FEF8D3108F025C0E82FF0E0ED
:1043A0008827EA52FE4D8F4F0C948DA7D722F32118
:1043B000152218221B221D222022222225222822F9
:1043C0002B222E223122342237223B223A223E2235
:1043D0004122442247224A224E22512254227F2245
:1043E000A222BC22102290E024E6322F330F330F9A
:1043F000330F85E5732F789F070E70E0711D112430
:10440000622F6074522F507227FD2AC1611116C1AC
:104410005111D0C0872F8095272F782F80E0CEC0F4
:104420009091150220911602E0CF97EB24E2DDCFA8
:104430009FEF24EFDACF90E8FCCF9FEF20E0D5CFBD
:1044400090ECFCCF9FEF25E0D0CF9FEF2AE0CDCFBF
:104450009FEF2FE0CACF9FEF24E1C7CF9FEF20E26D
:10446000C4CF90E82BE2C1CF9FEF20E4BECF9FEFF7
:1044700020E5BBCFC0E89FEF20E6B7CF98E720E765
:10448000B4CF9FEF20E8B1CF9FEF21E9AECF9FEFF0
:1044900020EAABCFC0E798EC2AEAA7CF9FEF24EB46
:1044A000A4CF9FEF20ECA1CF80914A03882321F075
:1044B000803611F010924A032091D0033091D1033D
:1044C000232B19F4953009F462E3809100028F5F89
:1044D000809300020E944BA791110DC080914A0366
:1044E000811104C080E680934A0302C010924A03FF
:1044F00081E08093000220914A039FEF76CF809164
:104500004A038F3029F0823D19F08FE080934A03EF
:104510002091D0033091D103232B19F4953009F465
:1045200062E3809100028F5F809300020E944BA79C
:104530009111E1CF80914A038F3011F482EDD3CFF6
:104540008FE0D1CF809100028F5F809300020E94A4
:104550004BA791110DC080914A0390E005966FEF33
:1045600070E00E9479A780934A0381E08093000263
:1045700020914A0390E839CF8091D0039091D103E4
:10458000892B19F4203309F464E1809100028F5FD4
:10459000809300020E944BA79111ADCF80914A03F6
:1045A00090E005966FEF70E00E9479A79CCFC0E085
:1045B00090E044CF25E5270F80E07BEA9F3FF1F0B4
:1045C000992309F46CC0909530E0992329F0999FC4
:1045D000312D112491113F5F932F9095799F070EF4
:1045E00070E0711D299F020E20E0211D899F080E99
:1045F00080E0811D1124730F230F830FCF3FB9F08B
:1046000090E0CC2321F0CC9F912D09F09F5F99235E
:1046100009F449C0799F070E70E0711D299F020EB1
:1046200020E0211D899F080E80E0811D1124622F4A
:10463000411102C0672F722FCF91089551110AC006
:104640002AEA329F030E30E0311D11248BEA831BCE
:10465000270FE3CE80E0272F2095872F70E0AECF85
:10466000611111C051110BC0832F2AEA829F080EDD
:1046700080E0811D11242BEA281B8B5AEFCF872F56
:10468000809520E09BCF511106C025E5270F8BEACE
:10469000871B722FF6CF2AEA270F30E0F9CF8FEF72
:1046A0002FEF7FEFABCF80E020E070E0C0CF962F00
:1046B000642F903329F0923319F041E0923009F4DD
:1046C00040E00C94C1211F93CF93DF9310E08091C1
:1046D0000F02181750F56091D503E12FF0E0603319
:1046E00079F0623321F4E95CF74FE491F0E0EF01F7
:1046F000CC0FDD1FCE0FDF1FC551DC4F4FEF0DC0BC
:10470000E95FF74FE491F0E0EF01CC0FDD1FCE0F32
:10471000DF1FC551DC4F4FEF60E380E00E9457235D
:10472000688379838A831F5FD2CFDF91CF911F91F6
:1047300008958091D5038033D1F0823319F54FEF7E
:1047400062E380E00E9457236093570470935804FB
:10475000809359044FEF6091D50380E00E94572366
:1047600060935A0470935B0480935C040BC04FEF1A
:1047700060E380E00E94572360930F04709310045D
:1047800080931104129808958091D4038D7F8C3109
:10479000D1F40E94F60A0E9451060E9499231092B9
:1047A00053031092520380918704882321F0809153
:1047B0008504882361F040E65AEE60E070E082ED07
:1047C00097E00C940F9280E00E94BF06E4CF08951A
:1047D000EAE4F8E010861186E2E7F8E01086118638
:1047E000E4E5F8E010861186EEE5F8E01086118623
:1047F000E8E6F8E010861186ECE7F8E0108611860E
:1048000010926B03109254031092500384E680932D
:1048100002020E9463230C949923EF920F931F933B
:10482000CF93DF93109202091092030987E00E9450
:1048300068501092D1031092D0031092C4031092CA
:10484000600310925E031092D1081092D208109269
:10485000AC081092AD0810924F032091E9033091FB
:10486000EA03809114028150809353031092520303
:104870002130310509F06BC08091E5039091E6038A
:10488000019709F059C00E94610A0E944E09809167
:10489000C80381110E94BD1710927A0810927B08FC
:1048A0001092480810924908109234081092350866
:1048B00040E050E0BA018EE598E00E940F920E941D
:1048C00099230E94010F0E94CD1410925F03109251
:1048D0005D0310925C031092DC0A1092DD0A809155
:1048E000CE039091CF038230910509F400C183304B
:1048F000910509F468C0019709F403C10E942A0FC9
:104900008130910509F4AEC088F1039709F4EBC03A
:1049100086E398E00E94999168387341810591057A
:1049200008F0C7C0E12C10E000E020E04091B9079A
:1049300060E083E891E045C00E94F60A85E090E0DF
:1049400090930402809303020E94620BA0CF0E9406
:10495000F60A83E090E09093040280930302809132
:10496000C803811197CF0E94620B96CF80911402E9
:10497000853009F44AC086E398E00E949991E12CC1
:1049800010E000E0683873418105910508F48AC0A1
:1049900086E398E00E949991E12C10E000E06031FC
:1049A00077428105910538F420E04091B90760E035
:1049B0008AE090E006C020E04091B90760E080E81E
:1049C00091E00E94B5158091CE039091CF03823083
:1049D000910509F41CC18330910509F4CFC00197FA
:1049E00009F41CC1C09114020E942A0FC53009F4B9
:1049F000F8C08130910509F495C008F48CC0039784
:104A000009F4ECC080E690E088C086E398E00E945C
:104A10009991683873418105910550F4E12C10E0BB
:104A200000E020E04091B90760E088E891E0C9CF5C
:104A300086E398E00E949991E12C10E000E060315B
:104A400077428105910538F420E04091B90760E094
:104A50008BE891E0B6CF20E04091B90760E08AE8AA
:104A600091E0AFCF86E398E00E9499916838734156
:104A70008105910550F4E12C10E000E020E0409128
:104A8000B90760E08BE090E09CCF86E398E00E945D
:104A90009991E12C10E000E06031774281059105A9
:104AA00008F082CF20E04091B90760E087E490E011
:104AB00088CF86E398E00E949991E12C10E000E015
:104AC000603177428105910538F420E04091B907C3
:104AD00060E082E891E075CF20E04091B90760E0A6
:104AE00081E891E06ECFE12C10E000E0EECFE12C08
:104AF00010E000E020E04091B90760E085E390E03D
:104B000060CFE12C10E000E020E04091B90760E0C8
:104B10008BE390E056CF8DE791E00E94C0148EE7C2
:104B200091E006C084E690E00E94C01483E690E025
:104B30000E94C01480910902882321F089E090E04E
:104B40000E94C01488E490E00E94C01482E690E0C5
:104B50000E94C0148091CE039091CF03059721F459
:104B600083EA91E00E94C0148091CE039091CF031C
:104B7000069721F484EA91E00E94C01480916A03B0
:104B8000882331F1C0919604D09197048091D80385
:104B90009091D9038130910509F44CC0029709F036
:104BA00044C0239741F48EE690E00E94C0148FE643
:104BB00090E00E94C014E12C10E000E020E0409161
:104BC000B90760E08FE690E00E94B51510926A0385
:104BD000DF91CF911F910F91EF9008958FE491E0B5
:104BE0009CCF8130910569F028F0039769F08BE93B
:104BF00090E09ECF87E891E00E94C01489E891E0A0
:104C000097CF81E690E094CF8FE491E091CF83E35A
:104C100090E00E94C01484E390E0AECF89E390E07E
:104C20000E94C0148AE390E0A7CF0E942A0F029747
:104C300008F0B7CF239741F48AE490E00E94C014B3
:104C400089E490E00E94C014E12C10E000E020E034
:104C50004091B90760E089E490E0B6CFEF920F93FE
:104C60001F93CF938091D0039091D1030697C9F4FD
:104C7000E091CE03F091CF03319789E0E730F10561
:104C800070F48827E95BF94D8F4F0C948DA713279B
:104C900015274E26172719271B271D278CE00E9452
:104CA00068500E94E10E029708F4C9C00E94D8140F
:104CB0008091D0039091D103049721F080915A0301
:104CC000882361F083E490E00E94C0148FE390E0B9
:104CD0000E94C01484E490E00E94C01489E491E032
:104CE0000E94C0148CE691E00E94C0148091D00311
:104CF0009091D103C0915A03079709F0A9C0C1113F
:104D0000ADC0C091C703C111A9C01092D3031092C6
:104D1000D2031092D1031092D0038091C403811169
:104D20000E940D2480911002882359F082E50E9490
:104D30006850CC2319F089E50E94685085EC0E94E8
:104D400068500E9433150E94191781E00E94F814E0
:104D50000E940D0B8EE390E00E94C0148091CE0360
:104D60009091CF038230910509F412C183309105EF
:104D700009F414C1019709F40EC186E090E00E9485
:104D8000C0148091D0039091D1030797B9F080911E
:104D9000C703882399F080911002882319F08DEBC6
:104DA0000E946850EE24E39410E000E020E040917F
:104DB000B90760E08EE591E00E94B51510926E0390
:104DC00081E0809301021092F8081092F908109285
:104DD00002081092030810922A0810922B081092D1
:104DE0002008109221081092A2081092A308109295
:104DF0009808109299088091D2039091D303892B3F
:104E000069F48091C5039091C603019709F0C9C068
:104E10000E94CE0A10926D0310926C03CF911F91E5
:104E20000F91EF9008958BE03ACF8AE038CF8DE074
:104E300036CF8EE034CF8FE032CF80E130CF80911B
:104E40005503811135CF8CE491E00E94C01430CF1E
:104E5000C1119CC08091C70381115FCF9091110A4D
:104E600080910C0A61E0981307C08091C50390916E
:104E7000C603892B09F460E070E085E00E941C50B5
:104E80001092D3031092D2031092D1031092D00348
:104E90008091C703882341F084E991E00E94C01407
:104EA0008BE691E00E94C0148091C703811103C07A
:104EB0008091C80381110E94E823C091C803C111E9
:104EC00028C00E94E10E029730F58091C5039091B1
:104ED000C603892B09F055C080915503811151C03B
:104EE0008091C70381114DC0C091E003CC2309F428
:104EF00048C08BEF90E00E94C014EE24E39410E0D1
:104F000000E020E04091B90760E08BEF90E00E9464
:104F1000B515C0E036C080915503811117C0C0910E
:104F2000C703C11131C08091D0039091D103049780
:104F300069F0EE24E39410E000E020E04091B9072E
:104F400060E081E990E00E94B515C1E08091C7035F
:104F5000811117C080911002882319F08CEB0E94F8
:104F6000685081E190E00E94C014EE24E39410E0C8
:104F700000E020E04091B90760E081E190E00E940C
:104F8000B5151092C703C9CEC0E0E0CFC0E0C5CED2
:104F900080E390E0F4CE85E490E0F1CE86E490E00A
:104FA000EECE1092DB081092DC081092AC08109242
:104FB000AD080E94C4232CCFEF920F931F930E9441
:104FC0002E2682E090E09093D3038093D20387E073
:104FD00090E09093D1038093D0038091C703811117
:104FE00041C040E456E060E070E08AE998E00E9449
:104FF0000F9240E951E060E070E080E998E00E94A3
:105000000F9240E951E060E070E08AEF97E00E9483
:105010000F9280911002882331F08FEB0E9468502C
:105020008EEB0E946850E12C10E000E020E04091FF
:10503000B90760E083E490E00E94B51520E040915C
:10504000B90760E08FE390E00E94B51520E0409141
:10505000B90760E084E490E00E94B5151F910F91BC
:10506000EF9008950E94E10E4091B907EE24E39479
:10507000039791F410E000E020E060E084E991E023
:105080000E94B51580911002882341F389EC1F918D
:105090000F91EF900C94685004EC19E021E061E06E
:1050A0008BE691E0EDCFEF920F931F93CF93109289
:1050B0006E031092C70381E0809301021092DA0719
:1050C0001092DB072091C5033091C60321303105D2
:1050D00069F53093D3032093D2031092D103109239
:1050E000D0038091570A811117C080911002882344
:1050F00019F081EC0E9468508CEF90E00E94C0147F
:10510000EE24E39410E000E020E04091B90760E075
:105110008CEF90E00E94B51584E00E94685080E01A
:10512000CF911F910F91EF900C94C61A2091CC094A
:105130009091C70929130BC090916503992339F009
:1051400080935A030E94DC27C0E08C2FE9CF81E0D6
:1051500090E09093D3038093D2031092D1031092E6
:10516000D003C091CA0384E00E946850EECFEF9252
:105170000F931F938091D0039091D103039729F44B
:105180008091C40381110E940D2484E090E09093EB
:10519000D1038093D0038091E003882341F04CEA4F
:1051A0005DE060E070E080EF98E00E940F920E9466
:1051B00033150E94191781E00E94F814809166034C
:1051C000882309F460C01092DB081092DC080E946A
:1051D000F60A80911002882331F08EEB0E9468500D
:1051E0008FEB0E94685040E951E060E070E08AEF88
:1051F00097E00E940F92E12C10E000E020E0409147
:10520000B90760E083E490E00E94B51520E040918A
:10521000B90760E08FE390E00E94B51520E040916F
:10522000B90760E084E490E00E94B51540E951E0E0
:1052300060E070E086EE97E00E940F9240E456E056
:1052400060E070E08CED97E00E940F928091100278
:10525000882319F08CEB0E94685081E190E00E9455
:10526000C014EE24E39410E000E020E04091B90780
:1052700060E081E190E00E94B51582E11F910F91FD
:10528000EF900C9468508091D40390E08E3109F037
:1052900092E08EE1891B8093520385E08093530353
:1052A0000E94280948E750E060E070E083ED98E054
:1052B000CBCFEF920F931F93CF93DF938091D003C7
:1052C0009091D103AC01445051093091560A20917C
:1052D000510A4330510508F4EDC24091C803411111
:1052E000E9C2321761F081E090E09093D10380939E
:1052F000D003DF91CF911F910F91EF90089580918E
:105300006E03833008F495C081E08093C7030E9448
:10531000DC270E949B050E94E10EC8EBDBE00397AF
:1053200011F4C8E8D3E180911402833009F47BC002
:1053300008F06EC0823009F479C0AE0170E060E020
:1053400080EF97E00E940F92BE0188E00E941C50FF
:1053500080910C02882369F28091C5039091C60365
:10536000892B39F69091CC098091C709981709F2D9
:105370009091110A80910C0A9813BBCF809108027A
:10538000882309F4B6CF8091A00A882309F486C245
:1053900085E090E09093D1038093D0038091E00367
:1053A000882371F140ED57E060E070E080EF98E015
:1053B0000E940F9283E591E00E94C01483E991E07E
:1053C0000E94C01488E591E00E94C014EE24E3948A
:1053D00010E000E020E04091B90760E087E591E04F
:1053E0000E94B5158091CE039091CF03029741F4AE
:1053F00020E04091B90760E083E591E00E94B51597
:1054000083E1DF91CF911F910F91EF900C94685041
:10541000843031F0853009F090CFC053D84F8DCF14
:10542000C452DA4F8ACFC851DC4F87CFCC50DE4F01
:1054300084CF80914E038823A9F082E298E00E94F5
:105440009991672B682B692B69F410924E030E9487
:10545000E10E029738F48091D0039091D103039725
:1054600009F010988091670390916803029779F191
:105470009091CC098091C709981329C09091110A85
:1054800080910C0A981323C081E79AE00E9425902E
:10549000811106C08DE599E00E9425908823B9F01E
:1054A00080911002882319F089ED0E9468508CE2E7
:1054B00090E00E94C014EE24E39410E000E020E0AD
:1054C0004091B90760E08CE290E00E94B5159091A0
:1054D0009B0A8091960A98134BC09091CC098091B9
:1054E000C709981345C09091110A80910C0A98132E
:1054F0003FC080916703909168030297C9F580913E
:10550000CE039091CF038130910509F4D1C0039768
:1055100009F4F0C080EF97E00E949991672B682B07
:10552000692B51F410926E0348EE53E060E070E096
:1055300080EF97E00E940F9280916003811105C077
:1055400080916E038F5F80936E0380916E03833032
:1055500078F48091D0039091D103039731F083E0E8
:1055600090E09093D1038093D00381E08093600317
:1055700020918709309182098091CB039091CC03CF
:105580000197029708F0E0C03213CDC09091CC098A
:105590008091C70998133AC09091110A80910C0A22
:1055A000981334C08091670390916803029771F556
:1055B00080EF97E00E949991672B682B692B51F43B
:1055C00010926E0348EE53E060E070E080EF97E0E9
:1055D0000E940F9280915E03811105C080916E033D
:1055E0008F5F80936E0380916E03833078F4809197
:1055F000D0039091D103039731F083E090E0909332
:10560000D1038093D00381E080935E0390919B0A45
:105610008091960A9817E9F08091CE039091CF037C
:105620008130910509F434C1039709F431C18091A7
:10563000C403882371F080916003882351F0809126
:105640005E03811120C11092D1031092D0031092F9
:1056500060039091870980918209981709F478CEA8
:105660008091CB039091CC03892B09F071CE80916E
:10567000CE039091CF038130910549F008F40BC11E
:105680008230910509F407C1039709F061CE80913A
:10569000C403882309F45CCE80916003882309F455
:1056A00057CE1092D1031092D0031092600350CEC7
:1056B00080914D0381115CCF82E298E00E94999124
:1056C000672B682B692B09F053CF8091D003909101
:1056D000D10348E552E060E070E0039709F448CF59
:1056E00082E298E00E940F920E94979D81E0809351
:1056F0004D033ECF80914D0381113ACF82E298E075
:105700000E949991672B682B692B09F031CF80910A
:10571000D0039091D103039709F42ACF4AEF50E0C8
:1057200060E070E0DDCF8091600381110AC080915C
:10573000D0039091D103039721F41092D1031092DA
:10574000D00310925E0362CF8091CE039091CF037D
:10575000009759F44091D0035091D1034330510543
:1057600021F4321709F44FCF51CF32134FCF30917C
:10577000CC092091C709321349CF3091110A2091E9
:105780000C0A321343CF2091670330916803223013
:10579000310509F03BCF8130910541F0B8F18230FD
:1057A000910509F44EC0039709F030CF80EF97E0E0
:1057B0000E949991672B682B692B51F410926E030C
:1057C00048EE53E060E070E080EF97E00E940F92B7
:1057D00080916E0390916003911103C08F5F80935D
:1057E0006E0380916E03833008F010CF8091D00358
:1057F0009091D103039731F083E090E09093D1032F
:105800008093D00381E08093600300CF80914D03AB
:105810008111FCCE82E298E00E949991672B682B5F
:10582000692B09F0F3CE40ED57E060E070E082E2D2
:1058300098E00E940F920E94979D81E080934D0313
:10584000E5CE80914D038111E1CE8091D0039091FE
:10585000D103039709F4DACE80914E03811110C071
:105860004EEE52E060E070E082E298E00E940F921B
:105870000E94979D80914E038F5F80934E03DDCFF2
:105880008230D8F6F5CF0E94BC1D8111DCCEDFCE70
:1058900010924D03DECE10924D035ACD80919D0A99
:1058A000882309F426CDDF91CF911F910F91EF90BE
:1058B0000C94B728321317CD892B09F01ACD81E744
:1058C0009AE00E94259081110FC08091CB039091A6
:1058D000CC030197029708F00CCD8DE599E00E946A
:1058E0002590882309F405CD80918408811101CD8C
:1058F0009091110A80910C0A9813FBCC9091CC09DD
:105900008091C7099813F5CC80911002882319F073
:105910008DEB0E9468508EE591E00E94C014EE2449
:10592000E39410E000E020E04091B90760E08EE5EC
:1059300091E00E94B515DF91CF911F910F91EF90EB
:105940000C949B05CF93DF93D091D503D03319F0FE
:10595000D23309F046C00E942A0F2091C70383303A
:10596000910511F5211104C08091C803882361F0CD
:105970008091CE039091CF03892BE9F58091690343
:10598000811139C0CEE020C080916A03882321F0C4
:10599000809169038823B1F38091CE039091CF0366
:1059A000029759F5C0E110C0211125C02091C8030C
:1059B000211121C02091CE033091CF032230310537
:1059C000E1F4C4E0019771F7D033C9F44FEF60E31D
:1059D0008C2F0E94572360930F04709310048093C0
:1059E00011048091CE039091CF03029709F0129A8F
:1059F000DF91CF910895CCE0E7CFC1E0E5CFD2337E
:105A000081F74FEF62E38C2F0E9457236093570476
:105A100070935804809359044FEF6091D5038C2FF5
:105A20000E94572360935A0470935B0480935C0434
:105A3000D8CFCF92DF92EF920F931F93CF93DF9344
:105A40006B01E82E8091D503803309F435C282338F
:105A500009F079C484E598E00E94DF91882309F475
:105A600064C4C0916B03CC2309F440C080910F0241
:105A70008C1708F43BC01091D503C150DD0BC95CF5
:105A8000D74F8091CE039091CF038730910508F0D6
:105A90004FC08330910508F000C18130910509F4B1
:105AA000EDC0029709F4C9C000916A030E942A0F51
:105AB0009C01002309F45BC0FE01039709F049C073
:105AC00080916903811145C0C4918C2F90E0EC0155
:105AD000CC0FDD1FC80FD91FC551DC4F4FEF612F11
