:100000000C947C030C94AD030C94AD030C94AD03E1
:100010000C94AD030C94AD030C94AD030C94AD03A0
:100020000C94AD030C94AD030C94AD030C94AD0390
:100030000C94AD030C94AD030C94AD030C94AD0380
:100040000C94AD030C94AD030C94AD030C94AD0370
:100050000C94AD030C94AD030C94AD030C94F87B9D
:100060000C94AD030C942E7D0C94047D0C94AD0384
:100070000C94AD030C94AD030C94AD030C94AD0340
:100080000C94AD030C94AD030C94AD030C94AD0330
:100090000C94DA7C0C94B07C0C94AD030C94587DD9
:1000A0000C94AD030C94AD030C94AD030C94AD0310
:1000B0000C94AD030C94AD030C94AD030C94AD0300
:1000C0000C94AD030C94AD030C94AD030C94AD03F0
:1000D0000C94AD030C94AD030C94867C0C945C7C66
:1000E0000C94AD030C94D05B0C9422270C94CF5F3E
:1000F0000C943F6F0C94AC1F0C94D6750C949C5AC6
:100100000C941D760C94925A0C948D5E0C94B875D8
:100110000C943B730C94AD600C94FA750C942456BB
:100120000C945F420C94615C0C94356D0C94D57703
:100130000C941A730C94986D0C940F6D0C949C6D28
:100140000C946F5D0C94AC6E0C94DA610C94985A1C
:100150000C94136E0C9467580C94D3600C94015655
:100160000C9430470C94355E0C94BC610C94AE6FCB
:100170000C94AF6F0C94E1250C94AF700C94026D4D
:100180000C94421F0C9431760C943D730C94096DC1
:100190000C946B610C944B5E0C94C41D0C947B59B5
:1001A0000C94FD720C94B6260C9428050C94855D75
:1001B0000C94B95C0C941F5E0C948D730C94B63D3A
:1001C0000C94775E0C940F560C94C05A0C94561DE8
:1001D0000C94E55A0C94A45F0C94F35D0C94078482
:1001E0000C9458260C94F46C0C94E01F0C94625FF1
:1001F0000C94FD2E0C94B15D0C94AC470C94FE6CE9
:100200000C94ED5B0C94CA330C9418730C943F73EC
:100210000C94C75D0C94AF570C9497600C942673A4
:100220000C941F260C9467540C942A730C948E5FC4
:100230000C94475D0C9409600C9465420C94295D04
:100240000C940C590C94F76F0C94067B0C9431733E
:100250000C94375B0C946E250C948D5C0C94EC2EF6
:100260000C940A730C94AB750C945F470C94E9578B
:100270000C946A590C94DE750C9452580C9491614C
:100280000C94B3750C94E26D0C941C6F0C940E5B83
:100290000C942C6F0C94AF030C9481600C94135F3E
:1002A0000C946A330C94C4570C94D27A0C94396D24
:1002B0000C94035A0C948C5A0C94B95E0C940B5CFD
:1002C0000C94871D0C94DD5D0C941C730C941376B8
:1002D0000C9445760C943E560C94ED5C0C94B35BF8
:1002E0000C9416270C940D1F0C942E730C942F6DE8
:1002F0000C94F35F0C94771F0C94C6610C94B603B6
:100300000C9448570C945C560C9422730C94017313
:100310000C9458470C94925B0C9453700C94844743
:100320000C9406730C94196D0C945D550C94F26F3B
:100330000C9446580C94056E0C94A85B0C942B6D91
:100340000C9463600C9435730C9474590C9445614F
:100350000C94B1610C9451470C94996D0C94276DD9
:100360000C94022F0C941F610C94C1470C94CC7513
:100370000C94136D0C94A97A0C940D730C9427763D
:100380000C94775C0C94A26F0C9427600C944560DD
:100390000C94F55E0C94DD5F0C94CD330C94D05826
:1003A0000C94976D0C94BA5F0C94736F0C94C85FA7
:1003B0000C944A470C94FA240C9437730C9415202F
:1003C0000C9415730C94D9570C94865A0C94E72608
:1003D0000C941D6F0C943B760C94D75E0C94F960D2
:1003E0000C94CC7A0C9428250C9410730C940476FD
:1003F0000C94A31E0C9477730C94A35E0C9413734B
:100400000C94C15F0C94F0750C94466F0C94CD3431
:100410000C94216D0C94CF5C0C94041E0C94595DCB
:100420000C94F16D0C9424730C94615E0C94B26F77
:100430000C94C27A0C941E730C94066D0C94605B41
:100440000C9443250C945D730C94095E0C94D65F58
:100450000C94785F0C94315F0C9497610C9408595C
:100460000C947C580C943A7B0C94A35C0C94D81E8E
:100470000C9401270C94C2750C94F27A0C944B5C8A
:100480000C94955A0C9442560C941F050C942873A6
:100490000C944A5F0C941D6D0C940B5D0C94895B5D
:1004A0000C94346D0C9487260C940F590C94895A33
:1004B0000C94D6470C949E250C94F56F0C94E05741
:1004C0000C945F6E0C949B5D0C94B2030C94E675D7
:1004D0000C9498470C9433730C94391E0C948F5AD7
:1004E0000C94295C0C946E1E0C9420730C94615A2D
:1004F0000C94FA6C0C949D5B00102030011121319A
:100500000212223203132333041424340515253533
:100510000616263636261606352515053424140407
:100520003323130332221202312111013020100033
:100530003738393A3B3B3A39383700191830011A05
:10054000172F021B162E031C152D041D142C051E1F
:10055000132B061F122A072011290821102809220F
:100560000F270A230E260B240D250000000064101F
:10057000B71DC8206E3BAC30D9269041DC76F451D3
:100580006B6B5861B24D3C7105502083B8ED4493BC
:100590000FF0E8A3D6D68CB361CBB0C2649BD4D2A3
:1005A000D38678E20AA01CF2BDBD00002100240021
:1005B00027002A002D003000330001010000040153
:1005C00007010A0100002200250028002B002E0050
:1005D0003100340002010000050108010B01000098
:1005E00020002300260029002C002F0032000001EB
:1005F00000000301060109010505050507050808B6
:100600000808020202020A0A08080404040401019C
:1006100001010101010103030303030303030407B1
:1006200007070C0C0C0C0C0C0C0C02020202060648
:100630000606060606060B0B0B0B0B0B0B0B01023B
:1006400010202008081020401020408002010201E4
:10065000080402010102040810204080804020109C
:1006600008040201800402018040201008040201F5
:10067000080402010102040810204080010204085D
:100680001020408000000A0B02090C0D0E08070321
:100690000401000000000000000000000000000055
:1006A000000000000000000000000000000000004A
:1006B0001211100000000000000000000000000007
:1006C000000000000000000000004552524F523A66
:1006D000204E6F2063616C6C6261636B2061766198
:1006E000696C61626C6520666F72207061636B6516
:1006F000742049442000078411241FBECFEFD1E2AB
:10070000DEBFCDBF00E00CBF13E0A0E0B2E0EEEE34
:10071000F1E201E00BBF02C007900D92AC33B107CC
:10072000D9F72DE0ACE3B3E001C01D92A037B207CA
:10073000E1F713E0CCE7D3E000E006C02197010920
:10074000802FFE010E94BC8FCB37D10780E00807C5
:10075000A9F70E9436870C94F5900C94000090E065
:1007600080E00895FC018585968508950F931F9379
:10077000CF93DF9300D0CDB7DEB7AB0119821A82D9
:100780001B82DC01ED91FC910190F081E02D00E0F5
:1007900010E020E0BE016F5F7F4F19950F900F9022
:1007A0000F90DF91CF911F910F91089510925403F4
:1007B00084E6809300021092520345E050E060E02E
:1007C00070E084E798E00C940681FF920F931F93EA
:1007D000CF93DF938BED95E00E94D680882341F084
:1007E0004EE551E060E070E08BED95E00E940681FF
:1007F0008BED95E00E9490806F3A7105810591051F
:1008000008F0D9C0C0919704CC23B1F080910202C6
:10081000853089F48091E4039091E503843091055B
:1008200051F00797039738F0C1E08091F103909160
:10083000F203892B09F0C0E08091DF039091E0037F
:1008400001970297A8F480910202853089F4809183
:10085000E4039091E5038430910551F007970397E5
:1008600038F08091F1039091F203019709F4C1E00F
:100870008091A8058A3B69F48091E4039091E50397
:10088000069739F4D1E08091F1039091F203892B1E
:1008900009F0D0E08091E803882309F45DC0CC23FF
:1008A000C1F108E513E0C0E0FF24F3948C2FDD23B1
:1008B00049F1C33038F50E94C3440E94B773F80170
:1008C000F082CF5F0F5F1F4FC83181F700E713E061
:1008D000D1E08C2F0E94C3440E94B773F801D193DA
:1008E0008F01CF5FCB31A9F78BE10E94C3440E94F7
:1008F000D47310927303DF91CF911F910F91FF90EA
:100900000C9486770E94C3440E94D473F80110822D
:10091000D8CFDD23D1F008E513E0C0E0D1E08C2F83
:10092000C33060F40E94C3440E94B773F801D083BF
:10093000CF5F0F5F1F4FCC3191F7DDCF0E94C344D3
:100940000E94D473F8011082F3CFDF91CF911F91F1
:100950000F91FF900C94114A80E0DD2321F10E9459
:10096000C34460E00E94CE7481E00E94C34461E011
:100970000E94CE7482E00E94C34461E00E94CE7463
:1009800083E00E94C34461E00E94CE7484E0CC23E3
:1009900071F00E94C34460E0DF91CF911F910F91ED
:1009A000FF900C94CE740E94C34461E0DBCF0E94A0
:1009B000C34461E0F1CF80910202833009F478C032
:1009C00060F4813009F4B5C0823009F493C0DF913E
:1009D000CF911F910F91FF900895843009F446C084
:1009E0008530A9F78091E803882309F437C0D0E067
:1009F000C0E011E09C2FEC2FE350E93100F5F0E06E
:100A00008827EA5FFA4F8F4F0C94BC8F2805280582
:100A100028051F051F051F052805280528051F0592
:100A20001F051F052805280528051F051F051F058B
:100A30002805280528051F051F051F052805892FDE
:100A40000E94C3440E94B773FE01E85AFC4F108312
:100A50002196CC31D10509F0CDCF4DCF85E0DF9186
:100A6000CF911F910F91FF900C94DC448091E8038B
:100A70008823E1F0D0E0C0E011E08C2FCC3048F4C6
:100A80009DEF9C0FC93038F02196C531D105A9F7EB
:100A900032CF9C2F9F509330B8F30E94C3440E94E2
:100AA000B773FE01E85AFC4F1083EECF84E0D7CF36
:100AB0008091E8038823E1F0D0E0C0E011E08C2FC2
:100AC000CC3078F4C93078F49DEF9C0F933058F017
:100AD0000E94C3440E94B773FE01E85AFC4F108382
:100AE00002C0CF30A9F72196C031D10541F703CF1D
:100AF00083E0B5CF8091E8038823C9F0D0E0C0E05F
:100B000011E08C2FC33030F0C63060F097EF9C0FAF
:100B1000933040F00E94C3440E94B773FE01E85A2C
:100B2000FC4F10832196CC30D10559F7E4CE82E0FA
:100B300096CF8091E8038823A9F0D0E0C0E011E0CF
:100B40008C2F8350833048F08C2F0E94C3440E9426
:100B5000B773FE01E85AFC4F10832196C630D105C9
:100B600079F7C9CE81E07BCFFF920F931F93CF938C
:100B7000DF93EC01F62E08811981C8010E94F18EE5
:100B8000F81621F06F2DC8010E94F98ECE01DF9179
:100B9000CF911F910F91FF9008951092FE03109234
:100BA000FD031092E0031092DF031092DE03109217
:100BB000DD0308950F931F93CF93DF9300D000D0F0
:100BC000CDB7DEB78FEF9FEFDC0189839A83AB83CC
:100BD000BC8310E000E01E830D83BE016B5F7F4F7E
:100BE000CE0101960E941981BE016A5F7F4FCE013E
:100BF00001960E9419810F5F1F4F0132110559F7AD
:100C00008EE190E09E838D83BE016B5F7F4FCE01AE
:100C100001960E941981BE016A5F7F4FCE01019645
:100C20000E94198183E090E09E838D83BE016B5FFB
:100C30007F4FCE0101960E941981BE016A5F7F4FEE
:100C4000CE0101960E94198169817A818B819C81F4
:100C5000609570958095909526960FB6F894DEBFB6
:100C60000FBECDBFDF91CF911F910F910895EF92ED
:100C7000FF920F931F93CF93DF9300D000D0CDB797
:100C8000DEB70E94DA0569837A838B839C83CE0169
:100C900001967C010CEF1FE01E830D83F70161912B
:100CA0007F01CE0105960E94B4050F5F1F4F01150D
:100CB000F0E11F0789F726960FB6F894DEBF0FBE46
:100CC000CDBFDF91CF911F910F91FF90EF900895CD
:100CD0002F923F924F925F926F927F928F929F924C
:100CE000AF92BF92CF92DF92EF92FF920F931F933A
:100CF000CF93DF93CDB7DEB7A4970FB6F894DEBFDE
:100D00000FBECDBF80911D0290911E0228EE33E0F0
:100D1000B9010E94948F69A380911F0290912002D3
:100D2000B9010E94948F6AA38091210290912202BE
:100D3000B9010E94948FD62E8091230290912402B3
:100D4000B9010E94948FE62E80912502909126028F
:100D5000B9010E94948FF62E8091DF039091E003F9
:100D60009C012150310971E02230310520F472E0FC
:100D700052E0029709F051E08091150261E0811183
:100D800062E080911402B1E08111B2E0809113021F
:100D9000A1E08111A2E08091DC03811104C0809167
:100DA000DA0321E0811122E080911202772473940A
:100DB000882311F042E0742E8091110201E081112C
:100DC00002E080911002CC24C394882311F032E019
:100DD000C32E8091D90392E0B92E811102C0BB24A9
:100DE000B3948091F9039091FA0342E08130910528
:100DF00021F043E0029709F041E08091F5039091E2
:100E0000F60332E08130910521F033E0029709F0DA
:100E100031E08091D803AA24A394882311F082E0C2
:100E2000A82E8091EF039091F00301979924939459
:100E30008430910520F48B5C9D4FFC019080809163
:100E4000ED039091EE0301978824839484309105FB
:100E500020F48B5C9D4FFC0180808091FD0390917C
:100E6000FE0312E0612E019711F066246394109145
:100E70001C02153608F08EC0112309F48DC0809134
:100E80000F0255245394882311F0F2E05F2E8091D5
:100E90002702E2E04E2E811102C044244394809147
:100EA000DF0892E0392E811102C0332433948091FF
:100EB000E00822242394882311F082E0282E8091D8
:100EC000E108882309F46AC0F2E0FBA38091E708F7
:100ED000882309F466C092E09CA38091F30390916B
:100EE000F40301978330910508F05EC08E5C9D4F3E
:100EF000FC01808179835A836B83BC83AD832E830D
:100F00002F8378860987CA86BB864C873D87AE8645
:100F10009F86888A698A5A8A1B8BF9A1FC8BEAA171
:100F2000ED8BDE8AEF8AF88E498E3A8E2B8EFBA1EE
:100F3000FC8F9CA19D8F8E8FFE0131967F0110E06A
:100F400000E018A30F8FF70161917F01CE014F964A
:100F50000E94B4050F5F1F4F0E31110591F70E94DB
:100F60003706A4960FB6F894DEBF0FBECDBFDF9153
:100F7000CF911F910F91FF90EF90DF90CF90BF9096
:100F8000AF909F908F907F906F905F904F903F9029
:100F90002F90089514E673CF11E071CF81E08BA3F9
:100FA00095CFE1E0ECA399CF84E0A4CF0F931F93FA
:100FB000CF93DF931F921F92CDB7DEB710E000E012
:100FC0001A83098360E0CE0101960E94B4050F5F89
:100FD0001F4F0E311105A1F70E9437060F900F9099
:100FE000DF91CF911F910F9108950F931F93CF938E
:100FF000DF931F921F92CDB7DEB78091E9039091E6
:10100000EA0310E3019709F015E0609118020091DE
:1010100019028EE190E09A838983CE0101960E94A5
:10102000B4058FE190E09A838983602FCE01019609
:101030000E94B40580E290E09A838983612FCE01FB
:1010400001960E94B4050E9437060F900F90DF9121
:10105000CF911F910F910895CF93DF931F921F920D
:10106000CDB7DEB78EE190E09A83898360E0CE0150
:1010700001960E94B4058FE190E09A83898360E035
:10108000CE0101960E94B40580E290E09A838983A4
:1010900060E0CE0101960E94B4050E9437060F90D1
:1010A0000F90DF91CF9108958091990490919A04C7
:1010B0000197029710F40C94E171089580919904BE
:1010C00090919A040197029738F48091A805082E10
:1010D000000C990B0C9420710895809192049091CA
:1010E0009304892B51F08091940490919504843F4E
:1010F000914018F081E080939804089580919904BC
:1011000090919A040197029708F0EFC06091A705AB
:10111000062E000C770B8FE390E00E949471609193
:10112000A705062E000C770B80E490E00E949471D6
:101130006091A705062E000C770B83E490E00E94D7
:1011400094716091A705062E000C770B84E490E063
:101150000E9494716091A705062E000C770B82E126
:1011600090E00E9494716091A705062E000C770B09
:1011700083E190E00E9494716091A705062E000C17
:10118000770B84E190E00E9494716091A705062E90
:10119000000C770B85E190E00E9494716091A705A7
:1011A000062E000C770B86E190E00E94947160910E
:1011B000A705062E000C770B84E090E00E94947146
:1011C0006091A705062E000C770B81E290E00E944B
:1011D00094716091A705062E000C770B8DE190E0CD
:1011E0000E9494716091A705062E000C770B8EE18A
:1011F00090E00E9494716091A705062E000C770B79
:101200008FE190E00E9494716091A705062E000C7A
:10121000770B80E290E00E9494716091A705062E02
:10122000000C770B8091D503681B71098EE890E064
:101230000E9494716091A705062E000C770B809197
:10124000D503681B710980E990E00E949471609158
:10125000A705062E000C770B8091D503681B71093A
:101260008DE890E00E9494716091A705062E000C15
:10127000770B8091D503681B71098FE890E00E947D
:1012800094716091A705062E000C770B8091D50311
:10129000681B710983E990E00E9494716091A70531
:1012A000062E000C770B8091D503681B710981E92C
:1012B00090E00E9494716091A705062E000C770BB8
:1012C0008091D503681B710982E990E00E949471B6
:1012D0006091A705062E000C770B8091D503681B43
:1012E000710984E990E00C94947108952091990417
:1012F00030919A04215031092230310518F464E00C
:101300000C944571089580914C03882349F1109203
:101310004C0380911302882319F081ED0E94D3427F
:1013200082E190E00E94760983E190E00E947609D4
:1013300084E190E00E94760985E190E00E947609C0
:1013400086E190E00E947609109286081092870844
:1013500046E950E060E070E08EE798E00C9406818A
:1013600008959F92AF92BF92CF92DF92EF92FF9239
:101370000F931F93CF93DF93CDB7DEB72C970FB6A4
:10138000F894DEBF0FBECDBFD82EF92E962EC42EF8
:101390008091990490919A048230910509F040C09F
:1013A0008AE08417BCF59AE0C92EAC2C0C2C000CFA
:1013B000BB08222309F448C06AEB7FEF8D2D9F2DD7
:1013C0000E9494716E2D8D2D9F2D0E946C7180EF67
:1013D00089838AEA8A838CE08B838AE08C83DD822E
:1013E000FE82CF82B88609871A871B8685E58C879F
:1013F0004CE050E0BE016F5F7F4F8BEF94E00E94A6
:101400009C6D65E0911001C066E08D2D9F2D0E94BE
:10141000457108C08AEB481744F68AEBC82EC5CF41
:10142000019719F22C960FB6F894DEBF0FBECDBF10
:10143000DF91CF911F910F91FF90EF90DF90CF90B0
:10144000BF90AF909F900895B5018D2D9F2D0E9464
:1014500094716E2D8D2D9F2D0E946C71D2CFEF92C5
:101460000F931F9380914B038823B1F10E94064490
:101470000297C0F589E491E00E9476098CE491E03E
:101480000E9476098DE491E00E9476090E949D7386
:101490008091E4039091E50381309105E9F0049790
:1014A000D9F080917A03811117C0809113028823AB
:1014B00019F088EC0E94D34281E190E00E94760905
:1014C000EE24E39410E000E020E04091A70560E006
:1014D00081E190E00E94B10910924B031F910F919E
:1014E000EF9008958FE890E00E94760980E990E0FF
:1014F0000E94760980911302882319F081E60E94E8
:10150000D342809179038111E7CF8091E4039091D8
:10151000E5038430910539F54091A7054150EE244B
:10152000E39410E000E020E060E084E990E00E94B5
:10153000B10980911302882319F086E60E94D342F4
:101540008091E4039091E503049731F248EE56E070
:1015500060E070E080E199E00E94068110920E093F
:1015600010920F09B9CF019789F34091A705415017
:10157000EE24E39410E000E020E060E082E990E0F7
:101580000E94B109809113028823D1F284E6D6CF5C
:10159000EF920F931F93282F4091A7058091170278
:1015A000833020F0853078F08530A9F0EE24E39484
:1015B00008EE13E061E081E290E00E94B1091F9122
:1015C0000F91EF900895EE24E39408EE13E061E0AC
:1015D0008DE190E0F2CFEE24E39408EE13E061E0B9
:1015E00080E290E0EACFEF920F931F938091FB038C
:1015F0009091FC03019709F05FC080E190E0909327
:101600000802809307028BEF90E00E947609809198
:10161000E6039091E703029709F483C08091790370
:1016200081110FC08091FD039091FE03009709F492
:1016300046C0019731F48091D308811102C00E9405
:101640003F458091020180628093020180910201F6
:10165000806480930201409105025091060270E07F
:1016600060E08CEF98E00E9406812E9810929A0814
:1016700010929B0810929008109291088091790323
:1016800081114FC00E940644009729F1019709F487
:101690004CC081E00E94C80A9091130A80910E0A02
:1016A000981709F43EC08091790381113AC01F91C7
:1016B0000F91EF900C94214386E090E0A0CF0E9420
:1016C0003F459091130A80910E0A9813BACF81E09A
:1016D00080934A03B6CF8CE491E00E94760989E4B6
:1016E00091E00E94760980917B03EE24E39410E060
:1016F00000E020E04091A70560E0882371F08CE4D1
:1017000091E00E94B10980911302882351F087EC87
:101710001F910F91EF900C94D34289E491E00E94C5
:10172000B1091F910F91EF9008958CE491E00E9410
:1017300076098DE491E00E94760980917B03EE2486
:10174000E39410E000E020E04091A70560E08823EA
:1017500031F09091130A80910E0A9813D0CF8DE446
:1017600091E00E94B109809113028823D1F2809107
:101770007B038823B1F28FEDCBCFEF920F931F93B2
:1017800080919B0490919C040397F1F48091E20373
:101790009091E3038330910509F477C048F48130D8
:1017A000910509F476C0029709F471C08AE00AC075
:1017B0008530910531F008F466C00697B9F780E1ED
:1017C00001C08FE00E94D3428091E4039091E50331
:1017D0008630910509F440C008970297E8F186E049
:1017E00090E00E94760980E390E00E94760985E40B
:1017F00090E00E94760986E490E00E9476098CE2EF
:1018000090E00E9476098EE390E00E947609809134
:10181000E2039091E303EE24E39410E000E020E083
:101820004091A70560E082309105C1F183309105B8
:10183000C1F1019781F186E090E00E94B109109218
:10184000540384E68093000245E050E060E070E0DD
:1018500084E798E00E9406818091990490919A040F
:10186000019749F48091E2039091E3030397E1F437
:1018700080E00E94BB7110922208109223081F91F1
:101880000F91EF9008958EE09DCF8DE09BCF8CE07F
:1018900099CF8BE097CF80E390E0CFCF85E490E0C5
:1018A000CCCF86E490E0C9CF81E0E3CF2091DF0385
:1018B0003091E0038091FD039091FE03813091050A
:1018C000F1F421153105B1F41092DE031092DD031D
:1018D0009093E0038093DF038091E2039091E30310
:1018E000892B31F01092E3031092E2030E94BD0BAA
:1018F00080E025C03093DE032093DD03EDCF80919F
:10190000DD039091DE038217930791F081309105FA
:10191000B9F082309105A1F01092E0031092DF033C
:101920008091DF039091E0039093DE038093DD03C9
:1019300081E02091DF033091E003232BC9F6089565
:101940009093E0038093DF03EBCFEF920F931F930D
:10195000CF938091E4039091E5038430910509F4DD
:10196000CDC0209179032111C9C03091130A209173
:101970000E0A3213D3C120911002222309F4DDC0D4
:10198000039731F48091E2039091E303019761F4AE
:101990008091E6039091E703019709F0B4C080912C
:1019A000C00A882309F4AFC070E060E08DE00E94B7
:1019B0007375C0914B030E940644C11131C0029758
:1019C00008F0D3C080914A03811124C089E491E0DA
:1019D0000E9476098CE491E00E9476090E940644F8
:1019E000019709F0AFC08DE491E00E947609EE24E2
:1019F000E39410E000E020E04091A70560E08DE472
:101A000091E00E94B10980911302882319F08FEDB3
:101A10000E94D34281E00E94C80A81E080934B0378
:101A20000E94064402970297F0F486E099E00E9433
:101A3000D6808823C1F04091A7054150EE24E3945D
:101A400010E000E020E061E080E990E00E94B10950
:101A500010920E0910920F0980911302882319F039
:101A600083E60E94D34210924A039091CE0980915E
:101A7000C90998134DC180914C0381113FC08EE775
:101A800098E00E94D6808823C9F18091E403909168
:101A9000E503049799F180914C0381112FC00E94B6
:101AA0000644029720911702233009F4ECC008F095
:101AB000B0C0223009F4CDC0029708F014C1809163
:101AC0000F02882309F40FC180911302882319F0B3
:101AD00082ED0E94D342EE24E39410E000E020E087
:101AE0004091A70561E082E190E00E94B10981E0A8
:101AF00080934C031092860810928708CF911F9113
:101B00000F91EF9008958091170260EA70E08330A2
:101B100009F44CCF40F46EEB70E0823009F446CF0C
:101B20006CED70E043CF62E870E0843009F43ECFA2
:101B30008530B1F764E670E039CF60E08DE00E9457
:101B4000CE7437CFEE24E39410E000E020E0409123
:101B5000A70560E089E491E00E94B1098091130239
:101B6000882309F457CF86EC53CF8DE890E00E948C
:101B7000760980E990E00E9476098EE890E00E9464
:101B8000760981E990E00E94760982E990E00E945E
:101B9000760984E990E00E947609809104024091E0
:101BA000A7054150EE24E39410E000E020E060E05F
:101BB000882301F183E990E00E94B109809113022A
:101BC000882331F08DE50E94D34287E60E94D342FC
:101BD0001092040245E756E060E070E086E099E08C
:101BE0000E94068181E080934B03109218091092A5
:101BF000190916CF8FE890E00E94B1098091130275
:101C0000882341F38DE50E94D3428FE50E94D342A1
:101C1000E1CF243009F44FC0253009F04DCF0297B1
:101C200008F061C080910F02882309F45CC08091A4
:101C30001302882319F082ED0E94D342EE24E3942C
:101C400010E000E020E04091A70561E086E190E02F
:101C50004CCF029708F047C080910F02882309F407
:101C600042C080911302882319F082ED0E94D34272
:101C7000EE24E39410E000E020E04091A70561E04D
:101C800083E190E032CF029770F580910F028823B4
:101C900051F180911302882319F082ED0E94D34202
:101CA000EE24E39410E000E020E04091A70561E01D
:101CB00084E190E01ACF0297B0F480910F0288235C
:101CC00091F080911302882319F082ED0E94D34293
:101CD000EE24E39410E000E020E04091A70561E0ED
:101CE00085E190E002CF8091CF09882309F4FFCEEF
:101CF00080911302882319F083ED0E94D342EE24D1
:101D0000E39410E000E020E04091A70560E09ECF62
:101D1000CF911F910F91EF900C94830961E08DE0BA
:101D20000E94CE740E948309CF911F910F91EF9072
:101D30000C942F0AEF920F931F9380911502882322
:101D4000E1F0109215028DE590E00E9476098CE595
:101D500090E00E947609EE24E39410E000E020E099
:101D60004091A70560E08DE590E00E94B1098DE308
:101D70001F910F91EF900C94D34281E08093150254
:101D80008DE590E00E9476098CE590E00E9476094E
:101D9000EE24E39410E000E020E04091A70560E02D
:101DA0008CE590E00E94B1098EE3E2CFEF920F93B1
:101DB0001F9388E290E00E947609EE24E39410E0FD
:101DC00000E020E04091A70560E088E290E00E94FA
:101DD000B10988E590E00E94760985E690E00E94CE
:101DE000760989E590E00E9476092091FD03309103
:101DF000FE038091DF039091E00321303105C9F0AB
:101E000082309105B1F40E94CD0520E04091A705F4
:101E100060E089E590E00E94B1098AE30E94D34224
:101E20001092E3031092E2031F910F91EF900C9434
:101E3000BD0B4091A7050197B1F482E090E090932B
:101E4000E0038093DF039093DE038093DD03EE24B1
:101E5000E39410E000E020E060E085E690E00E947E
:101E6000B10982E3DBCF81E090E09093E0038093BF
:101E7000DF039093DE038093DD03EE24E39410E010
:101E800000E020E060E088E590E00E94B10981E395
:101E9000C5CFEF920F931F9380911C028036C8F13B
:101EA00084E680931C0280911C0223E2829FC00181
:101EB000112464E670E00E94A88F63526093A80525
:101EC0006093A5058091E6039091E703892B81F447
:101ED00080E490E00E947609EE24E39410E000E0B4
:101EE00020E04091A80560E080E490E00E94B10904
:101EF0008091990490919A040197029760F48091DF
:101F0000A805082E000C990B1F910F91EF900C94CF
:101F100020718B5FC6CF1F910F91EF900895CF93E3
:101F2000DF9300D000D0CDB7DEB761307105C9F4C2
:101F3000642F0E94D4726C837D838E83BE016F5F99
:101F40007F4FCE0104960E94F07F69817A818B8158
:101F500026960FB6F894DEBF0FBECDBFDF91CF91AE
:101F60000895642F0E94D4726C837D838E83BE019A
:101F70006F5F7F4FCE0104960E94F07F6A81798166
:101F8000E6CFEF92FF920F931F93CF93C62F6091EE
:101F9000E9037091EA0361307105B1F090E08C01C2
:101FA000000F111F080F191F01501C4F4FEF8C2FEE
:101FB0000E948F0FF801608371838283CF911F91FC
:101FC0000F91FF90EF900895823009F471C048F5A9
:101FD000F12CE12C813009F44BC05AE3E52E55E099
:101FE000F52EF7010491802F90E08C01000F111F56
:101FF000080F191F01501C4F6091E9037091EA030B
:102000004FEF8C2F0E948F0FF801608371838283C2
:10201000FFEFEF1AFF0A86E4E81685E0F80609F7F5
:10202000CDCF833009F466C0F12CE12C8430A9F6C1
:10203000F701E25AFA4FE491F0E08F01000F111F0F
:102040000E0F1F1F01501C4F6091E9037091EA03AE
:102050004FEF8C2F0E948F0FF80160837183828372
:10206000FFEFEF1AFF0A8CE0E816F10409F7A6CF9C
:10207000F701EA5BFA4FE491F0E08F01000F111FC6
:102080000E0F1F1F01501C4F6091E9037091EA036E
:102090004FEF8C2F0E948F0FF80160837183828332
:1020A000FFEFEF1AFF0A88E0E816F10409F786CF80
:1020B000F12CE12CF701E25BFA4FE491F0E08F01A3
:1020C000000F111F0E0F1F1F01501C4F6091E903DD
:1020D0007091EA034FEF8C2F0E948F0FF8016083FD
:1020E00071838283FFEFEF1AFF0A88E0E816F1049C
:1020F00009F764CFF12CE12CF701EA5AFA4FE49189
:10210000F0E08F01000F111F0E0F1F1F01501C4F19
:102110006091E9037091EA034FEF8C2F0E948F0FBB
:10212000F801608371838283FFEFEF1AFF0A88E072
:10213000E816F10409F742CF8091E9039091EA0390
:10214000019761F44FEF61E070E080E00E948F0F33
:1021500060932304709324048093250412980895B7
:10216000E2E4F8E010861186EAE6F8E010861186CF
:10217000ECE4F8E010861186E6E5F8E010861186BA
:10218000E0E6F8E010861186E4E7F8E010861186B4
:1021900010925603109255031092540384E68093D4
:1021A00000020E944B430C949C10EF920F931F93DC
:1021B00083E08093160280915103882319F08DE10A
:1021C0000E94D34280915003882319F081E20E943B
:1021D000D3428091E2039091E3038230910509F4A8
:1021E00063C18330910509F477C1019709F444C1B3
:1021F00080911702853009F4C4C08091510388236F
:1022000009F4ADC04091A7058091EB039091EC03D8
:102210008130910511F178F0039709F498C0E12C11
:1022200010E000E020E060E080E690E00E94B1096C
:1022300008EE13E00BC0E12C10E000E020E060E0CD
:102240008DE791E00E94B10906E415E021E040919C
:10225000A70561E08EE791E011C0E12C10E000E0FD
:1022600020E060E084E690E00E94B10904E619E114
:1022700021E04091A70561E083E690E00E94B1096A
:1022800081E080934F0380915003882309F476C046
:102290008091EB039091EC034091A705E12C10E0B5
:1022A00000E020E060E08130910509F05BC084E649
:1022B00090E00E94B10904E619E121E04091A705F0
:1022C00061E088E490E00E94B10981E080934E03D0
:1022D00087E00E94D3421092C00A1092C10A8091F6
:1022E000F7039091F803019709F027C10E9456491E
:1022F00010927503109A2091DF033091E003215072
:1023000031092230310528F480915003882309F4E3
:1023100021C1809117028150990BFC01EE51F74FBA
:102320004081442309F40FC140911502442309F46C
:102330000AC1880F991FFC01EB52F74F4081518170
:1023400070E060E082EF98E00E94068103C1E12C1A
:1023500010E000E020E060E08FE491E067CF1092B1
:102360004F0391CF039739F48FE491E00E94B109B4
:1023700008EE13E0A2CF85E090E0F8CF10924E0374
:10238000A7CF4091A7058091EB039091EC0381309A
:10239000910509F44CC058F0039709F450C0E12CA2
:1023A00010E000E020E060E08BE990E007C0E12C65
:1023B00010E000E020E060E087E891E00E94B109D1
:1023C00080915103882309F44DC081E080934F032D
:1023D0008091EB039091EC034091A705E12C0097CD
:1023E000B1F504EA16E021E061E089E891E00E949D
:1023F000B10980915003882309F281E080934E0354
:102400008091EB039091EC034091A705E12C00E251
:1024100013E08330910559F1892B39F504EA16E070
:1024200021E061E089E891E00E94B10951CFE12CFF
:1024300010E000E020E060E081E690E0BFCFE12C1A
:1024400010E000E020E060E08FE491E0B7CF0CED19
:1024500015E0039711F400E213E021E061E082E669
:1024600090E0C5CF10924F03C4CF0CEB12E021E0F7
:1024700061E088E490E0D8CF85E390E00E9476099F
:10248000E12C10E000E020E04091A70560E083E34C
:1024900090E00E94B1090CED15E020E04091A70505
:1024A00061E084E390E0C0CF8BE390E00E94760986
:1024B000E12C10E000E020E04091A70560E089E316
:1024C00090E00E94B10908EE13E020E04091A705DA
:1024D00061E08AE390E0A8CFEE24E39410E000E00E
:1024E00020E04091A70560E086E491E00E94B109F8
:1024F0008091170244EB50E060E070E08330C1F05F
:1025000058F448EC50E060E070E0823089F04CED27
:1025100050E060E070E00CC040EA50E060E070E045
:10252000843031F04CE850E060E070E0853079F7BD
:1025300086ED9AE00E940681CBCE0E941B4A81E084
:1025400080937503D7CE2230310520F420915003BB
:102550002111EFCE0E94B0108091E2039091E3032D
:1025600040E050E0BA010397E9F58CE498E00E945E
:1025700006811092D3081092D4081092A4081092E9
:10258000A50810927403109257030E9483648091EF
:10259000E2039091E303892BD1F480911402882304
:1025A000B1F066E070E080E090E00E94427C9B0128
:1025B000AC01265F3F4F4F4F5F4FA8EEB3E00E9444
:1025C000588FAB01BC0188E398E00E94068148E97E
:1025D0005AE360E070E08EE298E01F910F91EF9077
:1025E0000C9406818AE698E0C2CFEF92FF920F9397
:1025F0001F93CF93DF938091E9039091EA03C091F9
:102600000B02C150019709F4C4E280917A03811151
:1026100005C080917903882309F4CAC084E798E053
:102620000E94D680882309F471C1F0900002FF2037
:1026300009F46CC18091EB039091EC03039761F472
:102640008091E2039091E303892B31F480917C0324
:102650009EE0E92E882311F08CE0E82E6091E903DA
:102660007091EA03D0E0CE01880F991F61307105A7
:1026700009F06CC08C0F9D1F8C0101501C4F4F2D19
:1026800061E070E08E2D0E948F0FF80160837183EE
:102690008283CE0147978C01000F111F080F191F6D
:1026A00001501C4F6091E9037091EA034F2D8E2D6C
:1026B0000E948F0FF801608371838283CE01489757
:1026C0008C01000F111F080F191F01501C4F609142
:1026D000E9037091EA034F2D8E2D0E948F0FF801B0
:1026E000608371838283CE0149978C01000F111F93
:1026F000080F191F01501C4F6091E9037091EA0304
:102700004F2D8E2D0E948F0FF8016083718382837D
:10271000CE010196EC01CC0FDD1FC80FD91FC150AF
:10272000DC4F6091E9037091EA034F2D8E2D0E94DA
:102730008F0F688379838A83C0915203C1110BC0C4
:10274000F0E5FF120BC00E949C1008C0C80FD91FF3
:10275000C150DC4FEACF2CE3F216A9F38BEF8F0DBB
:10276000809300024AEF4F0D483C40F01092540312
:102770008BE480930002CF5FC09352038091520399
:10278000833070F445E050E060E070E084E798E06A
:10279000DF91CF911F910F91FF90EF900C940681E4
:1027A000DF91CF911F910F91FF90EF900C94B0109B
:1027B00084E798E00E94D680882309F4A2C00091A3
:1027C0000002002309F49DC08091E2039091E3038D
:1027D0001DE083309105A9F048F48130910509F49A
:1027E0009CC016E1029769F011E00BC018E185303A
:1027F000910539F01BE18530910518F01CE1069731
:1028000099F76091E9037091EA03D0E0CE01880F57
:10281000991F6130710509F08AC08C0F9D1FFC0162
:10282000E150FC4F7F01402F61E070E0812F0E945A
:102830008F0FF701608371838283CE0147977C01FC
:10284000EE0CFF1CE80EF91E970121503C4F790158
:102850006091E9037091EA03402F812F0E948F0F4E
:10286000F701608371838283CE0148977C01EE0C6F
:10287000FF1CE80EF91E970121503C4F7901609131
:10288000E9037091EA03402F812F0E948F0FF70117
:10289000608371838283CE0149977C01EE0CFF1C1B
:1028A000E80EF91E970121503C4F79016091E90330
:1028B0007091EA03402F812F0E948F0FF7016083F0
:1028C00071838283CE010196EC01CC0FDD1FC80F0E
:1028D000D91FC150DC4F6091E9037091EA03402F8A
:1028E000812F0E948F0F688379838A830150009320
:1028F000000245E050E060E070E084E798E00E946C
:10290000068180910002882309F44ACFDF91CF919C
:102910001F910F91FF90EF9008958091EB0390919C
:10292000EC0314E0019709F46CCF1FE06ACFC80FE5
:10293000D91FC150DC4FD3CFEF920F931F9310924A
:10294000FA081092FB0888E00E94D3421092E50337
:102950001092E403109278031092510310925003E6
:102960001092C9081092CA081092A4081092A508E3
:10297000109257032091FB033091FC0380911702C2
:10298000815080937503109274032130310509F052
:1029900069C08091F7039091F803019709F057C03F
:1029A0000E9456490E9433488091790381110E9408
:1029B000FE4710927208109273081092400810920D
:1029C000410810922C0810922D0840E050E0BA0106
:1029D00086E598E00E9406810E940644029708F06E
:1029E00050C0109811980E949C1010929A08109252
:1029F0009B080E94005410924F0310924E031092B5
:102A00004D031092DE0A1092DF0A8091E20390914A
:102A1000E3038230910509F4A8C08330910509F4DD
:102A200051C0019709F49AC08091EB039091EC0397
:102A300020911702253009F47BC08130910551F1B6
:102A400010F1039709F471C080E690E01EC00E9467
:102A50001B4A85E090E090930802809307020E9451
:102A60003F45A2CF0E941B4A83E090E0909308026A
:102A70008093070280917903811199CF0E943F458D
:102A800098CF119AB0CF8DE791E00E9476098EE73A
:102A900091E006C084E690E00E94760983E690E02B
:102AA0000E94760980911402882321F089E090E049
:102AB0000E94760988E490E00E94760982E690E020
:102AC0000E94760980917A03811183C08091E2038C
:102AD0009091E3038230910509F434C1833091056C
:102AE00009F477C0019709F423C18091EB03909119
:102AF000EC038130910509F4D0C0F0F1039709F49B
:102B00000DC18EE298E00E94908068387341810583
:102B1000910508F0E9C0E12C10E000E020E04091D0
:102B2000A70560E083E891E052C08FE491E0ADCF6B
:102B30008130910569F028F0039769F08BE990E006
:102B4000AFCF87E891E00E94760989E891E0A8CFAD
:102B500081E690E0A5CF8FE491E0A2CF83E390E0FF
:102B60000E94760984E390E0ABCF89E390E00E9475
:102B700076098AE390E0A4CF80911702853009F4AA
:102B80005FC08EE298E00E949080E12C10E000E0AF
:102B9000683873418105910508F49FC08EE298E082
:102BA0000E949080E12C10E000E0603177428105C6
:102BB000910538F420E04091A70560E08AE090E0BC
:102BC00006C020E04091A70560E080E891E00E9407
:102BD000B10980915303882379F1809199049091F0
:102BE0009A042091ED033091EE032130310508F471
:102BF000B3C02330310508F4B7C02530310508F0E3
:102C0000ABC0019741F08EE690E00E9476098FE616
:102C100090E00E94760980917A0381110BC0E12C2B
:102C200010E000E020E04091A70560E08FE690E032
:102C30000E94B109109253031F910F91EF900895D4
:102C40008EE298E00E94908068387341810591057A
:102C500050F4E12C10E000E020E04091A70560E096
:102C600088E891E0B4CF8EE298E00E949080E12C59
:102C700010E000E0603177428105910538F420E0F2
:102C80004091A70560E08BE891E0A1CF20E0409162
:102C9000A70560E08AE891E09ACF8EE298E00E9472
:102CA0009080683873418105910550F4E12C10E063
:102CB00000E020E04091A70560E08BE090E087CF46
:102CC0008EE298E00E949080E12C10E000E06031FC
:102CD00077428105910508F06DCF20E04091A7056E
:102CE00060E087E490E073CF8EE298E00E949080ED
:102CF000E12C10E000E0603177428105910538F465
:102D000020E04091A70560E082E891E060CF20E0FC
:102D10004091A70560E081E891E059CFE12C10E0F7
:102D200000E020E04091A70560E084E891E04FCF0B
:102D3000E12C10E000E020E04091A70560E085E391
:102D400090E045CFE12C10E000E020E04091A705A5
:102D500060E08BE390E03BCF2091EB033091EC03FC
:102D60002230310508F04DCF019741F08AE490E020
:102D70000E94760989E490E00E94760980917A03A6
:102D8000811158CFE12C10E000E020E04091A70530
:102D900060E089E490E04CCFEF920F931F93809115
:102DA000E4039091E5030697F1F48091E20390919A
:102DB000E30383309105A1F048F48130910509F4D3
:102DC000F7C0029709F4F2C08AE00BC08530910584
:102DD00009F4F2C008F4EEC00697B1F780E101C033
:102DE0008DE00E94D3420E940644029708F4E6C098
:102DF0008EE890E00E9476098DE890E00E947609C6
:102E000081E990E00E94760982E990E00E947609CB
:102E100084E990E00E94760983E990E00E947609B7
:102E20008091E4039091E503049721F08091480399
:102E3000882361F083E490E00E9476098FE390E0BC
:102E40000E94760984E490E00E94760989E491E08A
:102E50000E9476098CE691E00E94760981E08093D9
:102E600004022091E4033091E50380914803273068
:102E7000310509F0AAC08111AEC080917A03811199
:102E8000AAC01092E7031092E6031092E503109295
:102E9000E4030E9483090E942F0A0E949D730E94EE
:102EA0007F438091780381110E949C1480911302CA
:102EB000882331F08DE50E94D34281ED0E94D342F8
:102EC0008EE390E00E9476098091E2039091E30303
:102ED0008230910509F4ECC08330910509F4EBC010
:102EE000019709F4E2C086E090E00E9476098091A3
:102EF000E4039091E5030797B9F080917A03882362
:102F000099F080911302882319F089EC0E94D34232
:102F1000EE24E39410E000E020E04091A70560E09B
:102F20008EE591E00E94B109109249031092F008D9
:102F30001092F1081092E3051092E4051092220815
:102F40001092230810929A0810929B0810929008F1
:102F5000109291088091E6039091E703892B11F577
:102F60008091FD039091FE03019709F0AEC080911E
:102F7000FB039091FC03019709F0A0C00E947B44E1
:102F80008091FD039091FE03892B41F440E65AEEB7
:102F900060E070E083EB95E00E9406811092770379
:102FA000109276031F910F91EF9008958CE019CF46
:102FB0008BE017CF8EE015CF8FE013CF80914B03BE
:102FC00081112ECF8CE491E029CF811162CF8091C5
:102FD0007A0381115ECF86E00E94D3421092E7030C
:102FE0001092E6031092E5031092E40380917A03B5
:102FF000882341F08BE691E00E9476098CE691E00F
:103000000E94760980917A03811104C0809179032E
:10301000882321F00E94B01010927A0380917903E6
:10302000811137CF0E940644029720F58091FD035D
:103030009091FE03892B31F49091130A80910E0A2E
:10304000981327CF80911302882319F088EC0E94EF
:10305000D34281E190E00E947609EE24E39410E0EF
:1030600000E020E04091A70560E081E190E00E944F
:10307000B1090FCF8091E4039091E503079711F315
:103080004091A7054150EE24E39410E000E020E0D9
:1030900060E081E990E00E94B109809113028823E9
:1030A000C1F285E60E94D342CDCF80E390E01DCFF0
:1030B00085E490E01ACF86E490E017CF80E190E0BD
:1030C00090930802809307025BCF1092D30810926E
:1030D000D4081092A4081092A5080E94244A0E94C5
:1030E0000644029730F08091FB039091FC03019716
:1030F00029F383E090E0E4CFEF920F931F930E94B7
:10310000CC1682E090E09093E7038093E60387E09B
:1031100090E09093E5038093E40380917A0381111A
:1031200042C040E456E060E070E082E998E00E942E
:10313000068140E951E060E070E088E898E00E9494
:1031400006814EE551E060E070E08BED95E00E9475
:10315000068180911302882331F08BEC0E94D342C8
:103160008AEC0E94D342EE24E39410E000E020E0D9
:103170004091A70560E083E490E00E94B10920E05F
:103180004091A70560E08FE390E00E94B10920E044
:103190004091A70560E084E490E00E94B1091F918E
:1031A0000F91EF900895EE24E39404EC19E021E0F0
:1031B0004091A70561E08BE691E00E94B109809102
:1031C0001302882361F386ED1F910F91EF900C9409
:1031D000D342EF920F931F9381E0809304022091DA
:1031E000FD033091FE032130310579F510927A0309
:1031F000109249033093E7032093E6031092E5030E
:103200001092E4038091590A811117C08091130232
:10321000882319F08DEC0E94D3428CEF90E00E943D
:103220007609EE24E39410E000E020E04091A70549
:1032300060E08CEF90E00E94B10985E00E94D342EB
:103240001F910F91EF900C94F30A2091CE09909169
:10325000C909291304C090911102911112C081E093
:1032600090E09093E7038093E6031092E5031092B9
:10327000E40385E00E94D3421092490310927A033E
:10328000DFCF809348030E947C18F8CFEF920F9312
:103290001F938091E4039091E503039729F48091B3
:1032A000780381110E949C140E940644029708F042
:1032B00073C0119A84E090E09093E5038093E40357
:1032C0000E9483090E942F0A0E949D738091D80357
:1032D000882309F464C01092D3081092D4080E9485
:1032E0001B4A80911302882331F08AEC0E94D3425A
:1032F0008BEC0E94D3424EE551E060E070E08BED34
:1033000095E00E940681EE24E39410E000E020E0C6
:103310004091A70560E083E490E00E94B10920E0BD
:103320004091A70560E08FE390E00E94B10920E0A2
:103330004091A70560E084E490E00E94B10940E973
:1033400051E060E070E087EC95E00E94068140E487
:1033500056E060E070E08DEB95E00E940681809180
:103360001302882319F088EC0E94D34281E190E097
:103370000E947609EE24E39410E000E020E0409102
:10338000A70560E081E190E00E94B10982E11F9110
:103390000F91EF900C94D342109811988BCF8CE141
:1033A0008093740385E0809375030E94DA4748E7B1
:1033B00050E060E070E08BEC98E0CFCFEF920F939D
:1033C0001F938091E4039091E503AC0144505109AF
:1033D0003091580A2091530A4330510508F4A6C28F
:1033E000409179034111A2C2321751F081E090E07F
:1033F0009093E5038093E4031F910F91EF9008955C
:1034000080914903873008F4A6C08091E20390912F
:10341000E3038130910509F459C0029709F459C0BA
:103420008091EB039091EC038130910509F440C049
:1034300070F0039709F447C081E891E00E94760993
:1034400082E891E00E94760983E891E00EC08091C5
:103450001702853051F18AE090E00E94760987E4F6
:1034600090E00E94760980E891E00E94760989E068
:103470000E94D34281E080937A030E947C180E94CC
:10348000D6038091170240EA5FE060E070E083308D
:1034900079F110F54CEA5DE060E070E0823041F1D6
:1034A00048EB5BE060E070E023C088E891E0DDCFAE
:1034B0008BE090E00E94760987E490E00E94760914
:1034C0008AE090E0D2CF84E891E0CFCF85E390E02E
:1034D000CCCF8BE390E0C9CF44E951E160E070E0EC
:1034E000843031F048E853E160E070E08530C1F6A7
:1034F00081ED95E00E94068180911202882309F4F3
:103500007BCF8091FD039091FE03892B09F074CF4E
:103510009091CE098091C909981709F46DCF9091C7
:10352000130A80910E0A981367CF809115028823A1
:1035300009F462CF8091A20A882309F4EDC185E0E5
:1035400090E09093E5038093E40384E11F910F9151
:10355000EF900C94D342809147038823A9F08AE12D
:1035600098E00E949080672B682B692B69F4109279
:1035700047030E940644029738F48091E403909137
:10358000E503039709F0109890919D0A8091980A9D
:10359000981345C09091CE098091C90998133FC0F6
:1035A0009091130A80910E0A981339C080910302FA
:1035B0008823A9F18091E2039091E3038230910581
:1035C00009F4BFC0039709F4DEC08091E403909131
:1035D000E503039731F083E090E09093E503809357
:1035E000E40381ED95E00E949080672B682B692BA6
:1035F00051F41092490340ED57E060E070E081ED36
:1036000095E00E94068180915103811105C080914F
:1036100049038F5F8093490381E080935103209198
:103620008909309184098091DF039091E00301972B
:10363000029708F0D2C03213BFC09091CE0980919A
:10364000C909981334C09091130A80910E0A9813F7
:103650002EC080910302882351F18091E403909160
:10366000E503039731F083E090E09093E5038093C6
:10367000E40381ED95E00E949080672B682B692B15
:1036800051F41092490340ED57E060E070E081EDA5
:1036900095E00E94068180915003811105C08091C0
:1036A00049038F5F8093490381E080935003909199
:1036B0009D0A8091980A9817D1F08091E203909129
:1036C000E3030297029708F421C1809178038823CD
:1036D00071F080915103882351F080915003811142
:1036E00010C11092E5031092E403109251039091DF
:1036F000890980918409981709F4FECE8091DF032F
:103700009091E003892B09F0F7CE8091E20390912C
:10371000E3038230910508F4FCC0049708F0ECCE76
:1037200080917803882309F4E7CE809151038823A0
:1037300009F4E2CE1092E5031092E40310925103D3
:10374000DBCE8091460381116ACF8AE198E00E9426
:103750009080672B682B692B09F061CF8091E4037F
:103760009091E50348E552E060E070E0039709F4CA
:1037700056CF8AE198E00E9406810E94528281E041
:10378000809346034CCF80914603811148CF8AE154
:1037900098E00E949080672B682B692B09F03FCF3F
:1037A0008091E4039091E503039709F438CF4AEF41
:1037B00050E060E070E0DDCF8091510381110AC0DC
:1037C0008091E4039091E503039721F41092E503BF
:1037D0001092E403109250036ACF8091E20390911B
:1037E000E303009759F44091E4035091E50343301B
:1037F000510521F4321709F457CF59CF321357CF5F
:103800003091CE092091C909321351CF3091130A5A
:1038100020910E0A32134BCF20910302222309F488
:1038200046CF8130910509F44AC070F1049708F041
:103830003ECF8091E4039091E503039731F083E05C
:1038400090E09093E5038093E40381ED95E00E947E
:103850009080672B682B692B51F41092490340ED3F
:1038600057E060E070E081ED95E00E940681809174
:103870005103811105C0809149038F5F80934903F3
:1038800081E08093510313CF8091460381110FCFC4
:103890008AE198E00E949080672B682B692B09F0E1
:1038A00006CF40ED57E060E070E08AE198E00E94CA
:1038B00006810E94528281E080934603F8CE809177
:1038C00046038111F4CE8091E4039091E5030397C0
:1038D00009F4EDCE80914703811110C04EEE52E005
:1038E00060E070E08AE198E00E9406810E945282C6
:1038F000809147038F5F80934703DDCF8230D8F6F6
:10390000F5CF0E94560C8111ECCEEFCE10924603FB
:10391000EECE10924603F0CD80919F0A882309F4E1
:103920006BCD1F910F91EF900C94461932135ECD21
:10393000892B09F061CD83E79AE00E947C7E81119A
:103940000FC08091DF039091E0030197029708F088
:1039500053CD8FE599E00E947C7E882309F44CCDFD
:1039600080917C08811148CD9091130A80910E0AB4
:10397000981342CD9091CE098091C90998133CCDFE
:1039800080911302882319F089EC0E94D3428EE5BE
:1039900091E00E947609EE24E39410E000E020E03C
:1039A0004091A70560E08EE591E00E94B1091F916A
:1039B0000F91EF900C94D6038091E9039091EA0364
:1039C000019709F046C08091EB039091EC032091A0
:1039D0007A038330910511F5211104C08091790398
:1039E000882361F08091E2039091E303892BC9F56C
:1039F00080917C03811135C08EE020C080915303FB
:103A0000882321F080917C038823B1F38091E20325
:103A10009091E303019739F580E110C0211121C095
:103A20002091790321111DC02091E2033091E3031D
:103A300021303105C1F4019779F784E04FEF61E05F
:103A400070E00E948F0F609323047093240480938E
:103A500025048091E2039091E303019709F0129A03
:103A600008958CE0EBCF81E0E9CF8091E8038823D3
:103A700009F403C3E0917403EE3008F0A8C3F0E04A
:103A8000909101028827E85BF24E8F4F0C94BC8F17
:103A9000561D871DC41D041E391E6E1EA31ED81E72
:103AA0000D1F421F771FAC1FE01F15208EE6890FE8
:103AB0000E948A438DE00E94C3440E94B7738EE047
:103AC0000E94C3440E94B77381E080936503809392
:103AD0006603809174038F5F809374038091570312
:103AE00081110EC08CE00E94C3440E94D4738FE009
:103AF0000E94C3440E94D47310926403109267031F
:103B000081E0809357030E9486770C94DC1C8EE63C
:103B1000890F0E948A438CE00E94C3440E94B773BD
:103B20008FE00E94C3440E94B77381E080936403D6
:103B30008093670380915703882391F08DE00E9462
:103B4000C3440E94D4738EE00E94C3440E94D47385
:103B50001092650310926603809174038F5F11C009
:103B60008BE00E94C3440E94D47380E10E94C3444E
:103B70000E94D473109263031092680380917403BF
:103B8000815080937403BFCF8EE6890F0E948A43D1
:103B90008BE00E94C3440E94B77380E10E94C3443B
:103BA0000E94B77381E080936303809368038091E0
:103BB0005703882391F08CE00E94C3440E94D47381
:103BC0008FE00E94C3440E94D47310926403109249
:103BD0006703809174038F5F11C08AE00E94C34421
:103BE0000E94D47381E10E94C3440E94D473109256
:103BF000620310926903809174038150809374036F
:103C00000E9486770C949C108EE6890F0E948A434E
:103C10008AE00E94C3440E94B77381E10E94C344BA
:103C20000E94B77381E0809362038093690380915F
:103C30005703882379F08BE00E94C3440E94D47319
:103C400080E10E94C3440E94D473109263031092D7
:103C50006803BFCF89E00E94C3440E94D47382E10D
:103C60000E94C3440E94D4731092610310926A03AD
:103C7000C2CF8EE6890F0E948A4389E00E94C34426
:103C80000E94B77382E10E94C3440E94B77381E02F
:103C90008093610380936A0380915703882379F0AE
:103CA0008AE00E94C3440E94D47381E10E94C3440D
:103CB0000E94D47310926203109269034DCF88E082
:103CC0000E94C3440E94D47383E10E94C3440E94B3
:103CD000D4731092600310926B0350CF8EE6890F5D
:103CE0000E948A4388E00E94C3440E94B77383E124
:103CF0000E94C3440E94B77381E080936003809365
:103D00006B0380915703882379F089E00E94C344B4
:103D10000E94D47382E10E94C3440E94D473109223
:103D2000610310926A0318CF87E00E94C3440E9487
:103D3000D47384E10E94C3440E94D47310925F0341
:103D400010926C031BCF80E7890F0E948A4387E0A3
:103D50000E94C3440E94B77384E10E94C3440E943E
:103D6000B77381E080935F0380936C038091570366
:103D7000882379F088E00E94C3440E94D47383E1D1
:103D80000E94C3440E94D4731092600310926B038C
:103D900020CF86E00E94C3440E94D47385E10E9434
:103DA000C3440E94D47310925E0310926D0323CF1C
:103DB00080E7890F0E948A4386E00E94C3440E94E4
:103DC000B77385E10E94C3440E94B77381E080937A
:103DD0005E0380936D0380915703882379F087E019
:103DE0000E94C3440E94D47384E10E94C3440E9491
:103DF000D47310925F0310926C03EBCE85E00E94A7
:103E0000C3440E94D47386E10E94C3440E94D473C9
:103E100010925D0310926E03EECE80E7890F0E9430
:103E20008A4385E00E94C3440E94B77386E10E94E2
:103E3000C3440E94B77381E080935D0380936E0357
:103E400080915703882379F086E00E94C3440E9442
:103E5000D47385E10E94C3440E94D47310925E0320
:103E600010926D0379CE84E00E94C3440E94D47303
:103E700087E10E94C3440E94D47310925C031092A5
:103E80006F037CCE80E7890F0E948A4384E00E9402
:103E9000C3440E94B77387E10E94C3440E94B77372
:103EA00081E080935C0380936F03809157038823A4
:103EB00079F085E00E94C3440E94D47386E10E9499
:103EC000C3440E94D47310925D0310926E0344CEDB
:103ED00083E00E94C3440E94D47388E10E94C344DB
:103EE0000E94D47310925B031092700347CE80E758
:103EF000890F0E948A4383E00E94C3440E94B773E3
:103F000088E10E94C3440E94B77381E080935B0301
:103F10008093700380915703882379F084E00E9496
:103F2000C3440E94D47387E10E94C3440E94D473A7
:103F300010925C0310926F034CCE82E00E94C34447
:103F40000E94D47389E10E94C3440E94D4731092EA
:103F50005A03109271034FCE83E7890F0E948A4360
:103F600082E00E94C3440E94B77389E10E94C34467
:103F70000E94B77310925A031092710380915703F5
:103F8000882379F083E00E94C3440E94D47388E1BF
:103F90000E94C3440E94D47310925B03109270037A
:103FA00018CE81E00E94C3440E94D4738AE10E942B
:103FB000C3440E94D47310925903109272031BCE13
:103FC00083E7890F0E948A4381E00E94C3440E94D4
:103FD000B7738AE10E94C3440E94B77381E0809363
:103FE00059038093720380915703882379F082E00C
:103FF0000E94C3440E94D47389E10E94C3440E947A
:10400000D47310925A0310927103A6CD80E00E94DF
:10401000C3440E94D4738BE10E94C3440E94D473B2
:104020001092580310927303A9CD83E7890F0E9461
:104030008A4380E00E94C3440E94B7738BE10E94D0
:10404000C3440E94B77381E0809358038093730345
:104050000E94C3440E94D4738AE10E94C3440E9418
:10406000D47310925903109272038091740381509B
:10407000809374031092570346CD8091750383306B
:1040800009F45EC028F4813049F0823081F108954E
:10409000843069F1853009F475C00895809101027A
:1040A00082590E948A4380E00E94C34460E00E94DB
:1040B000CE7481E00E94C34461E00E94CE7482E02D
:1040C0000E94C34461E00E94CE7483E00E94C34416
:1040D00061E00E94CE7484E00E94C34460E00E94CC
:1040E000CE74809175038F5F809375030ECD8091A0
:1040F000010280590E948A4380E00E94C34461E02B
:104100000E94CE7481E00E94C34460E00E94CE749D
:1041100082E00E94C34461E00E94CE7483E00E946A
:10412000C34460E00E94CE7484E00E94C34461E016
:104130000E94CE74809175038F5F8093750362CD6A
:10414000809101028D580E948A4380E00E94C344FE
:1041500061E00E94CE7481E00E94C34461E00E944D
:10416000CE7482E00E94C34460E00E94CE7483E07B
:104170000E94C34461E00E94CE7484E00E94C34464
:1041800061E0ADCF8091010282590E948A4380E0B4
:104190000E94C34460E00E94CE7481E00E94C34448
:1041A00061E00E94CE7482E00E94C34461E00E94FC
:1041B000CE7483E00E94C34461E00E94CE7484E028
:1041C0000E94C34460E00E94CE7481E08DCF0895C8
:1041D000CF92DF92EF92CF93DF936B01E82E809125
:1041E000E9039091EA03019709F071C28CE498E029
:1041F0000E94D680882309F45DC2E0915603EE2325
:1042000009F441C080910B028E1708F43CC0609104
:10421000E9037091EA03E150FF0BE65CFA4F8091ED
:10422000E2039091E3038630910508F04EC083309D
:10423000910508F0E5C08130910509F4B7C00297F7
:1042400009F4D2C02091EB033091EC038091530329
:10425000882309F455C02330310509F045C0809109
:104260007C03811141C0E491F0E0EF01CC0FDD1F30
:10427000CE0FDF1FC150DC4F4FEF8EE00E948F0F3B
:10428000688379838A838091560320910B0282137D
:10429000C3C0109256038091E2039091E303039709
:1042A00009F408C2E0911702E25085E0E43020F4FE
:1042B000F0E0E05BFD4F80814AE050E0481B51098F
:1042C000052E000C660B770BE6C2069709F0BACFF5
:1042D000E491F0E0EF01CC0FDD1FCE0FDF1FC150E6
:1042E000DC4F4FEF8CE1CACFE491F0E0EF01CC0F4F
:1042F000DD1FCE0FDF1FC150DC4F4FEF81E0BECF7F
:10430000809117022130310519F5833009F436C048
:1043100078F4823009F43EC0E491F0E0EF01CC0F74
:10432000DD1FCE0FDF1FC150DC4F4FEF8AE0A6CF5D
:10433000843099F0853081F7E491F0E0EF01CC0F03
:10434000DD1FCE0FDF1FC150DC4F4FEF85E096CF52
:104350008330A1F070F4823079F7E491F0E0EF015E
:10436000CC0FDD1FCE0FDF1FC150DC4F4FEF87E0BA
:1043700085CF843079F0853079F2DECFE491F0E0BA
:10438000EF01CC0FDD1FCE0FDF1FC150DC4F4FEF11
:1043900088E074CFE491F0E0EF01CC0FDD1FCE0F89
:1043A000DF1FC150DC4F4FEF89E068CF8091EB03F6
:1043B0009091EC03019761F4E491F0E0EF01CC0FF0
:1043C000DD1FCE0FDF1FC150DC4F4FEF84E056CF13
:1043D000E491F0E0EF01CC0FDD1FCE0FDF1FC150E5
:1043E000DC4F4FEF80E14ACFE491F0E0EF01CC0FDA
:1043F000DD1FCE0FDF1FC150DC4F4FEF86E13ECFF8
:10440000E491F0E0EF01CC0FDD1FCE0FDF1FC150B4
:10441000DC4F4FEF80E032CF821708F04BC190E0C5
:10442000FC01E65CFA4FE491F0E0AF01440F551F48
:10443000E40FF51FE150FC4FC082D182E28240912F
:10444000E2035091E3034115510509F463C0433081
:10445000510509F0A2C0FC01319630E0E217F307E4
:1044600074F4E65CFA4FE491F0E0AF01440F551F9D
:10447000E40FF51FE150FC4FC082D182E282FC01C3
:104480003296E217F30774F4E65CFA4FE491F0E039
:10449000AF01440F551FE40FF51FE150FC4FC082E0
:1044A000D182E28203968217930714F5865C9A4FB5
:1044B000FC018491E82FF0E0CF01880F991FE80FED
:1044C000F91FE150FC4FC082D182E2822091E203C9
:1044D0003091E3032130310509F4C1C08091170206
:1044E0002130310508F4A2C02330310509F0BFC0E6
:1044F00080911702833009F495C008F07AC08230A9
:1045000009F484C083E08093160244E050E060E048
:1045100070E083C08BEA289F212D11242695622FFD
:1045200070E090E080E059F00E94427C8091170298
:10453000833079F130F4823071F16E5F07C060E052
:10454000F5CF843021F18530C1F7665F20915603A5
:1045500041E0420F260F3327331FE42FF0E0E2172C
:10456000F3070CF0B3CF80910B02481770F4E65CB0
:10457000FA4FE491F0E0CF01880F991FE80FF91F7F
:10458000E150FC4FC082D182E2824F5FE6CF685F8C
:10459000DDCF6A5FDBCF6D5FD9CF26952695622F81
:1045A00070E090E080E019F10E94427C2091560377
:1045B00041E0420F260F3327331FE42FF0E0E217CC
:1045C000F3070CF083CF80910B02481770F4E65C80
:1045D000FA4FE491F0E0CF01880F991FE80FF91F1F
:1045E000E150FC4FC082D182E2824F5FE6CF60E0B3
:1045F000DDCF8430C9F0853009F084CF87E0809327
:10460000160242E050E060E070E007C083E0809373
:10461000160243E050E060E070E08CE498E00E9415
:10462000068143C084E0F3CF86E0F1CF833029F1E7
:1046300058F447E050E060E070E0823071F348E009
:1046400050E060E070E0E9CF843021F0853009F47B
:104650005CCFF5CF45E050E060E070E0DECF8091C8
:10466000E4039091E503039769F480911702833086
:1046700009F44BCF28F5823069F346E050E060E062
:1046800070E0CBCF41E050E060E070E08CE498E077
:104690000E9406818091560390E0049620910B02BF
:1046A0002817190611F40E94DC1C809156038F5FB5
:1046B00080935603DF91CF91EF90DF90CF900895D4
:1046C000843009F4A6CF853009F49BCFD6CF8CE493
:1046D00098E00E94D680882369F3C0915603CC23CA
:1046E000E1F180910B028C17C0F1C150DD0B2091DC
:1046F000E2033091E3036091E9037091EA03CE0194
:10470000880F991F2630310508F04DC02330310540
:1047100008F0ADC02130310509F492C022303105D6
:1047200009F49EC0209153034091EB035091EC0398
:10473000222309F44AC04330510521F420917C031F
:104740002223E1F1C80FD91FC150DC4F4FEF81E0A8
:104750000E948F0F688379838A838091560390919A
:104760000B028913A1C0109256038091E20390912D
:10477000E303039709F49ECF8091170246E450E0CB
:1047800060E070E0833009F486C008F077C045E54A
:1047900050E060E070E0823009F47DC044E650E013
:1047A00060E070E078C02630310509F0BBCFC80F5B
:1047B000D91FC150DC4F4FEF8CE1CACFC80FD91FB2
:1047C000C150DC4F4FEF8EE0C3CF20911702413034
:1047D0005105B9F4233031F148F4223051F1C80FBA
:1047E000D91FC150DC4F4FEF8AE0B2CF243071F0B7
:1047F0002530A9F7C80FD91FC150DC4F4FEF85E016
:10480000A7CF233079F048F42230A1F7C80FD91F81
:10481000C150DC4F4FEF87E09BCF243051F0253063
:10482000F1F2E8CFC80FD91FC150DC4F4FEF88E03D
:104830008FCFC80FD91FC150DC4F4FEF89E088CF11
:104840002091EB033091EC03C80FD91FC150DC4F0E
:104850004FEF84E02130310509F47ACF80E178CF41
:10486000C80FD91FC150DC4F4FEF86E171CFC80F81
:10487000D91FC150DC4F4FEF80E06ACF47E350E0D3
:1048800060E070E0843039F048E250E060E070E0D1
:10489000853009F083CF8CE498E0DF91CF91EF90E1
:1048A000DF90CF900C940681891708F003CF90E039
:1048B000FC01EE0FFF1FE80FF91FE150FC4FC08213
:1048C000D182E282809117024AE150E060E070E01C
:1048D000833009F4A2CE60F44CE150E060E070E077
:1048E000823009F49ACE4EE150E060E070E095CE5F
:1048F00049E150E060E070E0843009F48ECE48E198
:1049000050E060E070E0853009F487CEECCF809114
:10491000550381111BC08091170281502091FB0328
:104920003091FC038093750310927403213031059C
:1049300009F059C08091F7039091F803019709F0AD
:1049400047C00E9456490E943348109A8091E20362
:104950009091E303019711F540E050E0BA018CE437
:1049600098E00E9406818091EB039091EC036091A6
:10497000E9037091EA034FEF019709F039C081E034
:104980000E948F0F0E94E82040E050E0BA0186E5C7
:1049900098E00E9406818EE080935503E0915503D4
:1049A000EE3008F035C0F0E08827E652FB4D8F4F1F
:1049B0000C94BC8FFA24282543256E259E25E125DD
:1049C0001F2658268726B626E726012716272227E0
:1049D0000E941B4A85E090E09093080280930702B2
:1049E0000E943F45B2CF0E941B4A83E090E0F4CF83
:1049F0008FE0C6CF8091E2039091E303823091056E
:104A0000F1F08330910509F165E070E0892BC9F080
:104A1000809155038F5F809355038E3008F015C247
:104A20008091E2039091E30342E1892B09F444E28F
:104A300050E070E060E082E498E00C94068165E16B
:104A400070E080E00E94C10FE3CF6DE070E0F9CF2D
:104A50008091E2039091E3038230910571F08330FD
:104A6000910571F0892BA1F667E070E080E00E946B
:104A7000C10F65E070E081E0E5CF64E170E0E1CF77
:104A80006BE070E0DECF8091E2039091E30382302F
:104A90009105A1F083309105C9F0892B09F0B8CFB9
:104AA00061E070E080E00E94C10F67E070E081E0AB
:104AB0000E94C10F65E070E082E0C4CF63E170E066
:104AC00080E00E94C10F65E170E0D5CF69E070E041
:104AD00080E00E94C10F6DE070E0CDCF8091E203D5
:104AE0009091E30382309105C9F083309105F1F094
:104AF000892B09F08DCF67E070E080E00E94C10F44
:104B000061E070E081E00E94C10F67E070E082E048
:104B10000E94C10F65E070E083E094CF66E170E031
:104B200080E00E94C10F64E170E0A5CF67E070E013
:104B300080E00E94C10F6BE070E09DCF8091E203A6
:104B40009091E3038230910511F18330910561F179
:104B5000892B09F05DCF65E070E080E00E94C10F15
:104B600067E070E081E00E94C10F61E070E082E0E8
:104B70000E94C10F67E070E083E00E94C10F65E012
:104B800070E084E00E94C10F0E94DC1C41CF61E014
:104B900070E080E00E94C10F63E170E081E00E945C
:104BA000C10F65E170E088CF65E070E080E00E94B1
:104BB000C10F69E070E081E00E94C10F6DE070E01C
:104BC0007BCF8091E2039091E30382309105E9F07D
:104BD0008330910539F1892B09F01ACF70E060E03C
:104BE00080E00E94C10F65E070E081E00E94C10F8B
:104BF00067E070E082E00E94C10F61E070E083E056
:104C00000E94C10F67E070E0D3C070E060E080E018
:104C10000E94C10F66E170E081E00E94C10F64E173
:104C200070E04ACF70E060E080E00E94C10F67E072
:104C300070E081E00E94C10F6BE070E03DCF809199
:104C4000E2039091E30382309105C1F08330910536
:104C500011F1892B09F0DCCE70E060E081E00E9468
:104C6000C10F65E070E082E00E94C10F67E070E074
:104C700083E00E94C10F61E070E09AC061E070E0E3
:104C800081E00E94C10F63E170E082E00E94C10FE9
:104C900065E170E041CF65E070E081E00E94C10F06
:104CA00069E070E082E00E94C10F6DE070E034CFF7
:104CB0008091E2039091E3038230910571F083309B
:104CC0009105C1F0892B09F0A3CE70E060E082E08D
:104CD0000E94C10F65E070E092CF70E060E081E07B
:104CE0000E94C10F66E170E082E00E94C10F64E1A2
:104CF00070E012CF70E060E081E00E94C10F67E0D9
:104D000070E082E00E94C10F6BE070E005CF8091FF
:104D1000E2039091E3038230910571F083309105B5
:104D2000C1F0892B09F074CE70E060E083E00E944E
:104D3000C10F65E070E03CC061E070E082E00E947D
:104D4000C10F63E170E083E00E94C10F65E170E094
:104D500018CF65E070E082E00E94C10F69E070E06A
:104D600083E00E94C10F6DE070E00BCF8091E20301
:104D70009091E3038230910579F083309105D1F071
:104D8000892B09F045CE70E060E084E00E94C10FFD
:104D90008EE0809355033CCE70E060E082E00E949C
:104DA000C10F66E170E083E00E94C10F64E170E032
:104DB00084E048CE70E060E082E00E94C10F67E0CE
:104DC00070E083E00E94C10F6BE070E0F1CF809152
:104DD000E2039091E3038230910559F0039709F0C3
:104DE00017CE65E070E083E00E94C10F69E070E0DB
:104DF000DFCF61E070E083E00E94C10F63E170E00B
:104E0000D7CF8091E2039091E3038230910531F096
:104E1000039709F0FDCD70E060E0F1CE70E060E056
:104E200083E00E94C10F66E170E0C2CF8091E2038F
:104E30009091E3038230910509F41DCF039709F4A3
:104E400078CFE6CD70E060E0B3CF0E949C10109266
:104E50004A0810924B08109255030E94064402978C
:104E600068F48091E4039091E503039739F0809111
:104E7000E2039091E303019709F010980895DF92FF
:104E8000EF92FF920F931F93CF93DF938091E903EB
:104E90009091EA03C0910B02C150019709F4C4E25A
:104EA0008091540390917A03911105C090917903F8
:104EB000992309F4D1C09091520391110BC085360A
:104EC00058F0DF91CF911F910F91FF90EF90DF90FD
:104ED0000C94F5128C34A8F784E798E00E94D680F1
:104EE000882349F0D0905203E0905403D1100BC0B6
:104EF00024E62E1558F4DF91CF911F910F91FF906A
:104F0000EF90DF9008953BE43E15A8F38091EB030A
:104F10009091EC03039761F48091E2039091E30395
:104F2000892B31F480917C039EE0F92E882311F0C7
:104F30008CE0F82E6091E9037091EA03D0E0CE0195
:104F4000880F991F6130710509F06BC08C0F9D1F90
:104F50008C0101501C4F4E2D61E070E08F2D0E949E
:104F60008F0FF801608371838283CE0147978C0194
:104F7000000F111F080F191F01501C4F6091E9030A
:104F80007091EA034E2D8F2D0E948F0FF8016083E0
:104F900071838283CE0148978C01000F111F080F87
:104FA000191F01501C4F6091E9037091EA034E2DC7
:104FB0008F2D0E948F0FF801608371838283CE0151
:104FC00049978C01000F111F080F191F01501C4F2A
:104FD0006091E9037091EA034E2D8F2D0E948F0F8F
:104FE000F801608371838283CE010196EC01CC0FBE
:104FF000DD1FC80FD91FC150DC4F6091E9037091CC
:10500000EA034E2D8F2D0E948F0F688379838A8348
:10501000C0915403D1100CC0C03561F40E94DC1C57
:1050200009C0C80FD91FC150DC4F40915403EACFCB
:10503000CC33A1F3CB5FC093540345E050E060E074
:1050400070E084E798E0DF91CF911F910F91FF907E
:10505000EF90DF900C940681853608F032CF84E71C
:1050600098E00E94D680882309F445CF009154032C
:10507000053608F040CF8091E2039091E3031DE0F4
:1050800083309105A9F048F48130910509F489C075
:1050900016E1029769F011E00BC018E18530910527
:1050A00039F01BE18530910518F01CE1069799F75E
:1050B0006091E9037091EA03D0E0CE01880F991F57
:1050C0006130710509F077C08C0F9D1F9C01215044
:1050D0003C4F7901402F61E070E0812F0E948F0FDB
:1050E000F701608371838283CE0147977C01EE0CC8
:1050F000FF1CE80EF91E970121503C4F7901609189
:10510000E9037091EA03402F812F0E948F0FF7016E
:10511000608371838283CE0148977C01EE0CFF1C73
:10512000E80EF91E970121503C4F79016091E90387
:105130007091EA03402F812F0E948F0FF701608347
:1051400071838283CE0149977C01EE0CFF1CE80E2F
:10515000F91E970121503C4F79016091E90370914C
:10516000EA03402F812F0E948F0FF7016083718324
:105170008283CE010196EC01CC0FDD1FC80FD91F31
:10518000C150DC4F6091E9037091EA03402F812FF9
:105190000E948F0F688379838A830F5F0093540383
:1051A0004CCF8091EB039091EC0314E0019709F44C
:1051B0007FCF1FE07DCFC80FD91FC150DC4FE6CF96
:1051C0004F925F926F927F929F92AF92BF92CF92D7
:1051D000DF92EF92FF920F931F93CF93DF9300D054
:1051E000CDB7DEB783E79AE00E94867E8EE29AE032
:1051F0000E94867E89EE99E00E94867E84EA99E08C
:105200000E94867E8FE599E00E94867E8AE199E081
:105210000E94867E80EE9AE00E94D680882341F02C
:1052200044EF51E060E070E080EE9AE00E94068179
:105230000E943B448091E6039091E7038130910501
:1052400009F4EFC108F46EC0029709F4D7C10E94B7
:10525000C24A88EB9AE00E94D680882309F490C263
:105260000E947F438091E4039091E5030397A9F1A5
:1052700081ED95E00E949080672B682B692B69F582
:105280001092490380917A03882339F110927A03AE
:1052900081E090E09093E7038093E6031092E503AA
:1052A0001092E4030E94F30A8BE691E00E947609D3
:1052B000EE24E39410E000E020E04091A70560E0D8
:1052C0008CE691E00E94B10980911302882319F0C5
:1052D00088ED0E94D3420E941B4A8091E603909180
:1052E000E7038130910509F474C408F45CC20297A5
:1052F00009F4F2C3E091E403F091E5033197E9305A
:10530000F10508F04AC58827E757F64D8F4F0C94F2
:10531000BC8FFD2ECA33022F6A33EC2EB63DEC2E25
:10532000CD33CD348091FD039091FE03019709F0B8
:1053300050C180917D03882309F489CF109811987A
:105340008091E4039091E503892B09F080CF90913F
:10535000580A8091530A981317C09091130A8091AC
:105360000E0A981311C09091CE098091C909981323
:105370000BC080910A028230E0F1809317020E94F4
:10538000B4430E94E91863CF809117028130B9F5C8
:105390009091130A80910E0A981340C080EE9AE013
:1053A0000E9490806A3F710581059105B8F5809152
:1053B00002018F7D809302018091140A9091CF09A0
:1053C000911130C0811130C09091130A80910E0A62
:1053D000981307C09091CE098091C909981709F4D4
:1053E000B7C08091E8038111E5C080E00E94DC44F1
:1053F000E3C082E08093170280930A02C0CF8093BB
:105400000A0281E0809317028091E803882319F053
:1054100080E00E947F4A0E94B443BACF809102018B
:105420008062C8CF882349F190910E0A8091130AB7
:10543000981323C09091CE098091C9099817E9F07B
:1054400090919D0A8091980A9817B9F08091130263
:10545000882319F080ED0E94D34280E490E00E94FE
:105460007609EE24E39410E000E020E04091A705E7
:1054700060E080E490E00E94B1099091130A80916D
:105480000E0A981306C03091CE092091C90932172F
:1054900081F02091CF09211134C08091140A882312
:1054A00009F492CF9091CE098091C90998138CCFBD
:1054B00030C080911302882331F08EEC0E94D342D9
:1054C0008DEC0E94D3428BEF90E00E9476098CEF26
:1054D00090E00E947609EE24E39410E000E020E0E2
:1054E0004091A70560E08CEF90E00E94B1098091A7
:1054F000E803882319F080E00E947F4A0E9431531C
:1055000063CF9813CACF9091CE098091C90998179B
:1055100021F280911302882331F08CEC0E94D34257
:105520008FEC0E94D3428CEF90E00E9476098BEFC3
:1055300090E00E947609EE24E39410E000E020E081
:105540004091A70560E08BEF90E00E94B1093CCF4D
:10555000809102018064809302018091100288236F
:1055600079F06CED70E08DE00E9473752E988BECF5
:1055700098E00E94D680882341F00E943F4567CE84
:1055800060E08DE00E94CE74F1CF8091D30881114C
:105590005ECE8091E4039091E5039C012350310994
:1055A0002230310508F453CE069709F450CE0E94FC
:1055B00033484DCE0E941B4A809102018F7B80931D
:1055C000020161E08DE00E94CE742E9A0E947F431A
:1055D0003ECE8EE29AE00E947C7E882361F080912C
:1055E000E4039091E503892B31F482E090E09093FD
:1055F000E5038093E4030E94830929CE8091FD0393
:105600009091FE03019709F422CE9091580A80915F
:10561000530A981709F41BCE109248030E94CC1627
:1056200016CE8091FD039091FE030197D1F49091E5
:10563000130A80910E0A98130BC09091CE098091A5
:10564000C909981305C00E94A50C0E94DE19FFCD60
:105650000E947B4481E090E09093E5038093E40313
:10566000F6CD0091E4031091E503C8010397039779
:1056700050F30130110539F3809179038111E3CFA3
:10568000E090CE09F090C909EF1008C09091130A7C
:1056900080910E0A981711F40C9445428FE599E019
:1056A0000E947C7E882341F180910202853059F668
:1056B0000630110509F448C086E090E09093E503B8
:1056C0008093E4034EE551E060E070E08BED95E0FF
:1056D0000E9406810E941B4A81E10E94D342EE246F
:1056E000E39410E000E020E04091A70560E088E24C
:1056F00090E00E94B109A7CF0630110509F0A3CFB1
:105700009091130A80910E0A98139DCFEF109BCFB2
:105710000E94BD0B1092E5031092E4031092E30582
:105720001092E4050E941B4A8091E803882309F443
:105730008ACF8091FB039091FC03019709F083CFFE
:1057400081E00E947F4A7FCF0E94BD0B1092E5034B
:105750001092E4031092E3051092E4050E941B4AA4
:105760008091E803882309F4BACF8091FB039091DC
:10577000FC03019709F0B3CF81E00E947F4AAFCFCD
:105780008091C00A882309F46DCD8091E603909141
:10579000E70366E970E0892B11F06FEF70E08BE0B2
:1057A0000E9473755FCD0091E4031091E503C80179
:1057B0000897029708F44BC08FE599E00E947C7E21
:1057C00081110DC08091790381111EC10630110530
:1057D00009F03DC080917B038823C9F125C10630C3
:1057E000110509F411C18091790381110DC18091D6
:1057F0007B03811109C1EE24E39410E000E020E076
:105800004091A70560E088E290E00E94B10986E03F
:1058100090E09093E5038093E4031092F2031092DA
:10582000F10385E0809302024EE551E060E070E014
:105830008BED95E00E9406811092D3081092D40857
:105840000E941B4A0E94EC4381E10E94D3423091A6
:105850009D0A2091980A321721F010927703109236
:1058600076038091E4039091E5038630910509F475
:105870004CC08830910509F4DAC0099709F445C095
:1058800080917B03811141C032133FC08091770327
:105890008530D8F184E490E00E947609EE24E39408
:1058A00010E000E020E04091A70560E084E490E093
:1058B0000E94B10984EF90E00E94760920E04091B7
:1058C000A70560E084EF90E00E94B10989E50E949D
:1058D000D34283E70E94D34285E08093020288E0AE
:1058E00090E09093E5038093E4031092F20310920A
:1058F000F1034EE551E060E070E08BED95E00E9431
:1059000006810E94CA430E94EC438091E403909177
:10591000E5038630910509F44BC08830910509F400
:1059200047C020917B03099709F489C0211140C029
:1059300090919D0A8091980A98133AC080917603BD
:105940008530B0F184E490E00E947609EE24E3947F
:1059500010E000E020E04091A70560E084E490E0E2
:105960000E94B10983EF90E00E94760920E0409107
:10597000A70560E083EF90E00E94B1098AE50E94EC
:10598000D34285E08093020289E090E09093E503A2
:105990008093E4031092F2031092F1034EE551E07C
:1059A00060E070E08BED95E00E9406810E94EC4380
:1059B00080917903882371F088E898E00E94D6806E
:1059C000882341F040E951E060E070E088E898E029
:1059D0000E9406818091E4039091E503892B09F0F0
:1059E00089CC80917B038111D8C18091BB05811145
:1059F0002CC08091FD039091FE03892B09F07ACC95
:105A0000809102018F7B4CC080910202853009F0A9
:105A10001ECF8091F1039091F203892B09F017CFEB
:105A20000630110509F013CF0E94785310CF8091F2
:105A30007B03882309F469CF0E94524A66CF222350
:105A400009F4B6CF0E94524AB3CF83EB95E00E948F
:105A50009080672B682B692B61F68091B1058111CD
:105A600022C048EE53E060E070E089EA95E00E94D1
:105A700006818091FD039091FE03019719F58091B5
:105A80007D03811117C089EA95E00E949080643FF0
:105A900071408105910508F4B3CF809102018064C3
:105AA0008093020127CC89EA95E00E94D68081117B
:105AB000D8CFDFCF9091CE098091C909981709F40A
:105AC00019CC9ECF89EA95E00E949080643F714096
:105AD0008105910510F794CF88E898E00E949080A6
