:100000000C94DD040C940E050C940E050C940E0556
:100010000C940E050C940E050C940E050C940E0514
:100020000C940E050C940E050C940E050C940E0504
:100030000C940E050C940E050C940E050C940E05F4
:100040000C940E050C940E050C940E050C940E05E4
:100050000C940E050C940E050C940E050C949B8BC1
:100060000C940E050C94EF8C0C94C58C0C940E051E
:100070000C940E050C940E050C940E050C940E05B4
:100080000C940E050C940E050C940E050C940E05A4
:100090000C949B8C0C94718C0C940E050C94938F87
:1000A0000C940E050C940E050C940E050C940E0584
:1000B0000C940E050C940E050C940E050C940E0574
:1000C0000C940E050C940E050C940E050C940E0564
:1000D0000C940E050C940E050C94478C0C941D8CFE
:1000E0000C940E050C94958A0C949A560C94CB5B48
:1000F0000C941F1C0C94A1690C942E080C94547F32
:100100000C94BF6D0C944D620C94A5550C94315B0E
:100110000C9490210C94BE5E0C9453330C94867F07
:100120000C94895B0C94AD250C9476260C9431517B
:100130000C9498570C9491550C94D2800C947A217D
:100140000C94245D0C940D570C948E690C944F5AAA
:100150000C94657F0C949D210C94BE550C94EC542A
:100160000C942E620C9472260C94F4550C94EE337D
:100170000C94B5870C94737F0C941D350C94877F79
:100180000C94057E0C94EF5A0C94A15A0C9439806F
:100190000C944C7F0C942F4C0C94DE450C94DD8A0F
:1001A0000C94E1590C947A260C9467320C94A95C57
:1001B0000C949C490C94A6210C94B0330C94D987D0
:1001C0000C9431620C9414580C94DE210C94395C1C
:1001D0000C9494870C94D7550C94A14F0C94A85D63
:1001E0000C944D560C94211C0C94C65D0C94305FFD
:1001F0000C94B3210C9499210C940A630C94E94E4D
:100200000C9406630C940B7E0C9488550C949621E8
:100210000C94E00D0C94B4490C9482340C94046357
:100220000C9478050C94F8550C94DB0D0C948421F7
:100230000C94F6320C942E880C9438320C946D5930
:100240000C946F8A0C94575F0C94FF550C94E757ED
:100250000C9481550C949F5B0C9408800C94655A07
:100260000C940E5D0C9463340C9402630C944F9CBC
:100270000C947C5D0C94587F0C940F0E0C94925D42
:100280000C94C07F0C9457550C94BC490C94171CCB
:100290000C94D9530C94235C0C944F5C0C94362230
:1002A0000C94354E0C9421570C9425410C94735B9F
:1002B0000C941F510C946B7F0C9411320C94E570CC
:1002C0000C946C550C94074E0C9442810C94C034E1
:1002D0000C94B24E0C94BF870C94340E0C949C87F3
:1002E0000C944D4C0C9441580C9491330C9427620F
:1002F0000C94835A0C944B4C0C949B570C948B5C31
:100300000C94725E0C94FC550C94FB7D0C94D732CB
:100310000C94EA0D0C940C630C94087E0C94280E3B
:100320000C9465810C94A9210C944F4C0C94954924
:100330000C94CF6D0C94357A0C9429570C941B5166
:100340000C94E45D0C94C17F0C9410880C9439518A
:100350000C9492690C949B550C944C050C9493212D
:100360000C947F210C945D5B0C94B8530C946C81BD
:100370000C943A5D0C94A98A0C9427570C941B5B3F
:100380000C940D5C0C946E580C94507F0C946F215F
:100390000C944C8A0C94617F0C9423410C948F56DE
:1003A0000C9417800C94E4810C9415330C944446FF
:1003B0000C9444620C949D1B0C94B7590C94E26EFF
:1003C0000C94665D0C94C54D0C94A1340C94395A70
:1003D0000C946E050C94DE4D0C9446050C949B58C1
:1003E0000C94E56E0C947A350C9452210C94E387AE
:1003F0000C94D5530C94C2570C940A5F0C948C4FF8
:100400000C94F75B0C94E15B0C94ED870C94DC5836
:100410000C942D510C9471520C949A210C946D5C97
:100420000C941B590C94DF340C9474260C940863C0
:100430000C94F7590C945B350C9444590C94355139
:100440000C9423A30C94758A0C94C8580C940D5AE0
:100450000C9425570C94494C0C94724F0C94817F4A
:100460000C94A0210C948B7F0C94C30D0C942357F7
:100470000C94434F0C94A3210C946F7F0C94443440
:100480000C941F570C94C27F0C94CC590C94127E80
:100490000C94E50D0C9434330C94AD210C9471053F
:1004A0000C941A880C9427340C9429510C94D1582C
:1004B0000C9485800C947D7F0C94A27E0C947233F6
:1004C0000C9478260C9499810C948D210C94764E82
:1004D0000C941B1C0C94B8490C947E6E0C94895798
:1004E0000C94205E0C942A410C94FC070C948721F8
:1004F0000C94C8810C9452810C94CA6D0C94844362
:100500000C94436C0C94F7070C9477210C9424887A
:100510000C9447620C9443810C945B7F0C942841AB
:100520000C94A2560C947C260C94FC870C94055BCE
:100530000C94505D0C94DD530C94984D0C94012256
:100540000C942B800C94F0550C94235A0C941D1C85
:100550000C94985E0C944C5E0C94A1870C94CF87FD
:100560000C944A620C9486320C94AB870C94365EE1
:100570000C941B220C94B8320C94F2580C94027E0A
:100580000C9481210C941D570C94520E0C94B64976
:100590000C94D86E0C9474050C94327D0C94BA6251
:1005A0000C94E7580C94025E0C947C210C94474CFC
:1005B0000C94AD4F0C94164F0C9474210C94658AD6
:1005C0000C94CF330C9406880C9496590C94BF5A13
:1005D0000C94B8350C949E570C94467F0C94F753AA
:1005E0000C94E45E0C94475B0C94B55B0C948A21EC
:1005F0000C94C7870C94797F0C949E530C94DD5A0D
:100600000C94284C0C94191C0C941C0E0C949935C9
:100610000C9490530C9429080C94B0210C94C75C52
:100620000C94076E0C94FE340C9420410C94BA493F
:100630000C943C350C94A87E0C94F85C0C94E05C13
:10064000450515253544342414044333231303028C
:10065000122232424131211101001020304040303D
:1006600020100001112131414232221202031323D2
:100670003343041424344435251505453738393AB5
:100680003B3B3A393837001020300111213102123A
:10069000223203132333041424340515253506169A
:1006A000263636261606352515053424140433233C
:1006B00013033222120231211101302010000005F3
:1006C0000B11171D00040B10161B0000000000008A
:1006D000000000000000010101010101010102020E
:1006E00002020202030303030404040405050505D2
:1006F0000606060707070808080909090A0A0B0B76
:100700000B0C0C0D0D0E0E0F0F10101111121213F9
:1007100013141415151617171818191A1A1B1C1C60
:100720001D1E1E1F202021222323242526262728A4
:10073000292A2A2B2C2D2E2F2F30313233343536C7
:10074000373838393A3B3C3D3E3F404142434445CF
:100750004647494A4B4C4D4E4F50515254555657AF
:1007600058595B5C5D5E5F61626364666768696B74
:100770006C6D6F70717374757778797B7C7E7F8018
:100780008283858688898B8C8E8F91929495979899
:100790009A9B9D9EA0A2A3A5A6A8AAABADAFB0B2FE
:1007A000B4B5B7B9BABCBEC0C1C3C5C7C8CACCCE40
:1007B000CFD1D3D5D7D9DADCDEE0E2E4E6E8E9EB65
:1007C000EDEFF1F3F5F7F9FBFDFF00191830011A11
:1007D000172F021B162E031C152D041D142C051E8D
:1007E000132B061F122A072011290821102809227D
:1007F0000F270A230E260B240D25000102030405F2
:10080000060708090A0B0C0D0E0F10111213141510
:10081000161718191A1B1C1D1E1F202122233130E8
:100820002F2E2D2C2B2A29282726000000006410AB
:10083000B71DC8206E3BAC30D9269041DC76F45110
:100840006B6B5861B24D3C7105502083B8ED4493F9
:100850000FF0E8A3D6D68CB361CBB0C2649BD4D2E0
:10086000D38678E20AA01CF2BDBD0000210024005E
:1008700027002A002D003000330001010000040190
:1008800007010A0100002200250028002B002E008D
:100890003100340002010000050108010B010000D5
:1008A00020002300260029002C002F003200000128
:1008B00000000301060109010505050507050808F3
:1008C0000808020202020A0A0808040404040101DA
:1008D00001010101010103030303030303030407EF
:1008E00007070C0C0C0C0C0C0C0C02020202060686
:1008F0000606060606060B0B0B0B0B0B0B0B010279
:100900001020200808102040102040800201020121
:1009100008040201010204081020408080402010D9
:100920000804020180040201804020100804020132
:10093000080402010102040810204080010204089A
:100940001020408000000A0B02090C0D0E0807035E
:100950000401000000000000000000000000000092
:100960000000000000000000000000000000000087
:100970001211100000000000000000000000000044
:10098000000000000000000000004552524F523AA3
:10099000204E6F2063616C6C6261636B20617661D5
:1009A000696C61626C6520666F72207061636B6553
:1009B0007420494420004F9C23A311241FBECFEF75
:1009C000D1E2DEBFCDBF00E00CBF13E0A0E0B2E09B
:1009D000E4E9FDE401E00BBF02C007900D92AC35E5
:1009E000B107D9F72DE0ACE5B3E001C01D92A43802
:1009F000B207E1F714E0CCEDD4E000E006C02197A7
:100A00000109802FFE010E948EA4CB3DD10780E01A
:100A10000807A9F70E94369F0C94B8A60C94000012
:100A20009091E1039C3131F4E82FF0E0EC53F94F61
:100A3000849108959E3129F4E82FF0E0E254F94FB3
:100A4000F7CF81E008952091E10390917403E82F9E
:100A5000F0E02C3149F4992321F0EE55F94F8491BF
:100A60000895EA57F94FFBCF2E3141F4992319F03D
:100A7000E25AF94FF4CFE05CF94FF1CF992319F026
:100A8000EF57F94FECCFE458F94FE9CF80917B0352
:100A90008F5F80937B03089580917A038F5F8093AB
:100AA0007A0308952091ED03222399F09C01275A9F
:100AB000314030938F0420938E04885A91408115E1
:100AC000904138F484EF91E09093910480939004E6
:100AD000089510928F0410928E04089590E080E0A3
:100AE0000895FC0164870895FC01848590E00895D1
:100AF000FC018685978508951092650384E68093AE
:100B000002021092660345E050E060E070E08BE87E
:100B100098E00C944F8F0F931F93CF93DF9300D0E7
:100B200000D0CDB7DEB78FEF9FEFDC0189839A83CA
:100B3000AB83BC8310E000E01E830D83BE016B5FBE
:100B40007F4FCE0101960E94198DBE016A5F7F4FD3
:100B5000CE0101960E94198D0F5F1F4F03321105C0
:100B600059F78EE190E09E838D83BE016B5F7F4FCE
:100B7000CE0101960E94198DBE016A5F7F4FCE01A2
:100B800001960E94198D85E090E09E838D83BE01C1
:100B90006B5F7F4FCE0101960E94198DBE016A5F87
:100BA0007F4FCE0101960E94198D69817A818B81D8
:100BB0009C81609570958095909526960FB6F894D7
:100BC000DEBF0FBECDBFDF91CF911F910F91089572
:100BD000FF920F931F93CF93DF93EC01F62E0881C2
:100BE0001981C8010E94D3A3F81621F06F2DC80106
:100BF0000E94DBA3CE01DF91CF911F910F91FF9057
:100C00000895E2E0F1E080818F7D808380818F7B99
:100C100080831098119880E00E94545180E00E94D7
:100C2000DD50E1EEF7E01086118608958091130201
:100C3000833071F020F4823069F087E105C08430A0
:100C400029F08530D1F78BE10C9416508AE1FCCF66
:100C500089E1FACF88E1F8CF2091DD033091DE03FE
:100C6000A901435051094230510518F02630310591
:100C700011F4882399F1909113022091120292139A
:100C800003C0811118C008952917A8F481E080934A
:100C9000640344E250E060E070E09330D9F070F417
:100CA0004EE150E060E070E09230A1F049E150E0A8
:100CB00060E070E00FC010926403EBCF4DE250E0B3
:100CC00060E070E0943031F04CE350E060E070E0C0
:100CD000953061F783EB98E00C944F8F0895CF9394
:100CE000C82F84E0C530F0F00E94230560E00E9428
:100CF000B78683E00E94230560E00E94B78682E009
:100D00000E94230560E00E94B78681E00E942305CF
:100D100060E00E94B78680E00E94230560E0CF91EA
:100D20000C94B7860E94230561E00E94B786C43008
:100D300001F383E00E94230561E00E94B786C3307F
:100D4000F1F282E00E94230561E00E94B786C23082
:100D5000E1F281E00E94230561E00E94B786C111A3
:100D6000DACF80E00E94230561E0D9CFEF92FF92B5
:100D70000F931F93CF93DF9389E098E00E941F8F1A
:100D8000882341F040E951E060E070E089E098E0BC
:100D90000E944F8F8091E10310E08E3109F012E044
:100DA00089E098E00E94D98E683C71058105910523
:100DB00008F0CEC0C0919304CC2391F08091DD0364
:100DC0009091DE03069759F480911602853039F42C
:100DD000C1E08091E9039091EA03892B09F0C0E01A
:100DE0008091D8039091D9030197029788F480915C
:100DF000DD039091DE03069759F480911602853049
:100E000039F48091E9039091EA03019709F4C1E074
:100E10008091CB078A3B69F48091DD039091DE03DA
:100E2000069739F4D1E08091E9039091EA03892B88
:100E300009F0D0E08091E1038C3169F105E08E3159
:100E400059F180E0DD2309F47BC00E94230560E0B6
:100E50000E94B78681E00E94230561E00E94B78668
:100E600082E00E94230561E00E94B78683E00E9431
:100E7000230561E00E94B78684E0CC2309F464C0B6
:100E80000E94230560E0DF91CF911F910F91FF90A9
:100E9000EF900C94B78604E0CC2379F1C0E08EE1AA
:100EA00090E07C01E11AF108CE151F04ACF4CC23CC
:100EB00069F0DD2311F0C01710F0C93138F08C2F24
:100EC0000E9423050E945185CF5FEECF8C2F0E9498
:100ED00023050E943385F8CF8091E1038E3129F4F8
:100EE0008DE10E9423050E943385DF91CF911F91F0
:100EF0000F91FF90EF900C947989DD23C9F0C1E048
:100F00008EE190E07C01E11AF108CE151F046CF728
:100F10008C2FCC2341F0C01730F40E9423050E948F
:100F20005185CF5FF2CF0E9423050E943385F9CF10
:100F3000DF91CF911F910F91FF90EF900C946F89EB
:100F40000E94230561E084CF0E94230561E09BCFCE
:100F500080911602833009F4BDC068F4813009F431
:100F60000BC1823009F4E3C0DF91CF911F910F9143
:100F7000FF90EF900895843009F47BC08530A1F78D
:100F80008091E1038C3109F439C08E3109F068C0D9
:100F9000C1E08EE190E09C01211B31098901C0175D
:100FA00011060CF0A2CFEBEFEC0FE93100F5F0E009
:100FB0008827E252F84F8F4F0C948EA4FC07FC0751
:100FC000F707F707F707F707FC07FC07F707F70727
:100FD000F707F707FC07FC07F707F707F707F70717
:100FE000FC07FC07F707F707F707F707FC078C2F45
:100FF0000E9423050E945185CF5FD1CFC1E08EE1D1
:1010000090E09C01211B31098901C01711060CF0E9
:101010006CCFECEFEC0FE531E0F4F0E08827EC5E0C
:10102000F74F8F4F0C948EA42E082E082E082908F7
:10103000290829082E082E082E0829082908290819
:101040002E082E082E082908290829082E082E08FF
:101050002E088C2F0E9423050E945185CF5FD5CF8B
:1010600085E0DF91CF911F910F91FF90EF900C944D
:101070006F068091E1038C3149F18E3149F5C1E071
:10108000CD3038F48BEFCB3028F0CF5FC731C1F7CC
:101090002CCF8FEE8C0F8230C0F38C2F0E94230553
:1010A0000E945185F2CFCD3038F48CEFCA3028F051
:1010B000CF5FC631C1F719CF80EF8C0F8330C0F3FB
:1010C0008C2F0E9423050E945185F2CFC1E0F8CFFA
:1010D00084E0C7CF8091E1038C3129F18E3129F56D
:1010E000C1E0C53030F0C73048F085EF8C0F82305A
:1010F00028F08C2F0E9423050E945185CF5FC131BB
:1011000081F7F3CEC43030F0C73048F086EF8C0F53
:10111000833028F08C2F0E9423050E945185CF5FD9
:10112000C03181F7E2CEC1E0F5CF83E09ACF809164
:10113000E1038C31E9F08E31E9F4C1E08BEF8C0FE3
:10114000823028F08C2F0E9423050E945185CF5FAA
:10115000CB30A1F7CACE8CEF8C0F833028F08C2FC8
:101160000E9423050E945185CF5FCA30A1F7BDCEF2
:10117000C1E0F5CF82E075CF8091E1038C3161F061
:101180008E31A1F4C1E08C2F0E9423050E9451856D
:10119000CF5FC530C1F7A9CEC1E08C2F0E942305D7
:1011A0000E945185CF5FC430C1F79FCE81E059CFF7
:1011B0000F931F93CF938091E1038C3191F08E3187
:1011C000B9F480E0C0E00EE110E0081B1109C0177F
:1011D00011064CF48C2F0E9423050E945185CF5F8D
:1011E000F6CF82E0EFCFCF911F910F910C947989C8
:1011F00085E0CF911F910F910C946F06EF92FF92B3
:101200000F931F93CF93DF9300D01F921F92CDB700
:10121000DEB78091E1038D7F8C3109F0E1C083EB73
:1012200098E00E941F8F882309F457C08091E10342
:1012300012E08E3109F410E085E0E1E3F2E0DE0136
:10124000119601900D928A95E1F78091F6039091A5
:10125000F703019731F48AE089838A838B838C8337
:101260008D8380916703282F30E04EE150E07A01B2
:10127000E11AF10890916403992309F458C02E15DE
:101280003F0524F40E9423050E9484898091130263
:101290008530E9F5809167038E151F0451F14CF1FB
:1012A000109264038EE1811B809367038091F603A3
:1012B0009091F7034AE550E060E070E0019711F586
:1012C0001092BB081092BC0880916403882329F017
:1012D000809167038F5F809367030F900F900F904B
:1012E0000F900F90DF91CF911F910F91FF90EF9092
:1012F00008954D8184E0489FA0011124052E000C23
:10130000660B770B83EB98E00E944F8FDDCF0E9436
:10131000100590916703981718F010926403C6CFD8
:10132000E0911302EC0FFD2FF11D4081E3CF2E154C
:101330003F0524F40E9423050E947D8910916703D4
:10134000111116C081E0809364034AE550E060E02B
:1013500070E083EB98E00F900F900F900F900F903C
:10136000DF91CF911F910F91FF90EF900C944F8FD1
:1013700011501093670301E08091E1038E3109F46D
:1013800000E0809113022091F6033091F70385303D
:10139000A9F42130310541F41E151F042CF41092DC
:1013A000BB081092BC0899CF4D8184E0489FA001F2
:1013B0001124052E000C660B770BCBCF21303105A5
:1013C00041F40E941005800F9927991F18171906DC
:1013D00034F3E0911302EC0FFD2FF11D4081E5CFB6
:1013E000809113028330C9F080F48230A1F081E053
:1013F0000F900F900F900F900F90DF91CF911F9152
:101400000F91FF90EF900C946F06843041F085307F
:1014100071F785E0EDCF82E0EBCF83E0E9CF84E0A8
:10142000E7CFEF92FF920F931F93CF939091E10339
:10143000809113029C3199F010E09E3189F0833045
:1014400009F458C008F04DC0823009F451C081E061
:10145000CF911F910F91FF90EF900C946F0612E0C7
:10146000212F30E0C0E08530D9F48EE190E07C019E
:10147000E21AF30ACE151F043CF48C2F0E942305B8
:101480000E945185CF5FF6CF0E9479898EE1811B42
:1014900080936703CF911F910F91FF90EF90089574
:1014A0000EE110E0021B130BC01711069CF4809193
:1014B00013020E9410058C1738F08C2F0E94230510
:1014C0000E945185CF5FF0CF8C2F0E9423050E9490
:1014D0003385F8CF0E947989809113020E9410050C
:1014E000D7CF843049F0853009F0B1CF85E0B0CF57
:1014F00082E0AECF83E0ACCF84E0AACF8091F60348
:101500009091F703019739F480E190E09093040201
:1015100080930302089583E090E090930402809307
:1015200003028091DD039091DE03049761F08091C6
:10153000D2039091D303019769F78091DF039091D3
:10154000E003892B39F786E090E0E0CF8091E1035A
:101550008D7F8C3121F40E946F891092670308956A
:101560001092D3031092D2031092D9031092D80391
:1015700010926C0310926B030895E5ECFAE010866C
:10158000118610926E0370E060E08BE00C945C8733
:101590004091EB035091EC034330510551F1909190
:1015A0000C02992331F12091DD033091DE032430C8
:1015B0003105F9F09091D50391111BC09091D7039B
:1015C0009923B9F090912F0842305105A1F42330AE
:1015D000310511F0992369F020916E0391110FC02C
:1015E0008217F9F080936E03682F70E08BE00C9403
:1015F0005C870C94BD0A20916E03992381F0682FBB
:1016000070E0660F771F6F3F710519F014F06FEFF0
:1016100070E02617170629F060936E03E7CF2813B2
:10162000E1CF0895CF938091E1038C3109F03FC160
:10163000809167038C3128F1883308F049C0C7E3F3
:10164000C81B8091DD039091DE03049729F08091FF
:10165000D503882309F44EC00E94BD0A8C2F0E9436
:1016600023050E947D8980916703873309F042C179
:101670001092EA081092EB0810926403109267032C
:1016800027C00E9423050E948489809167038731C7
:1016900008F181E40E94C80A809167038F5F8093FC
:1016A00067038C3109F047C14AE550E060E070E023
:1016B00082EE98E00E944F8F8091F6039091F7039D
:1016C000019731F488E090E0909304028093030244
:1016D000CF910895813110F087E3DCCF8C3010F08A
:1016E0008DE2D8CF853010F083E2D4CF8823A1F2E9
:1016F00089E1D0CF8091F6039091F70320911302F6
:10170000253018F48130910511F0892B29F48C2FA4
:101710000E9423050E947D898091F6039091F70332
:101720000097F9F00197A1F680911302833009F434
:1017300075C098F5823009F48FC08FE00E94C80A06
:1017400090916703923309F0A5C01092EA081092B5
:10175000EB081092640384E080936703CF910C94AC
:101760007E0A80916703873309F03DC144E050E071
:1017700060E070E083EB98E00E944F8F1092EA08DF
:101780001092EB0881E080936403109267030E943B
:101790007E0A8FE0CF910C94C80A843009F185301D
:1017A00061F690916703973389F41092BB08109209
:1017B000BC081092EA081092EB08109264038BE1C7
:1017C000809367030E947E0A88E2E4CF1092EA08C1
:1017D0001092EB0881E08093640387E3891BF0CFCC
:1017E00090916703903269F41092EA081092EB0826
:1017F0001092640386E1809367030E947E0A8DE263
:10180000C9CF913208F42EC11092EA081092EB0869
:1018100081E08093640387E3891BEDCF9091670398
:10182000963269F41092EA081092EB081092640361
:1018300080E1809367030E947E0A89E1ABCF9732F3
:1018400008F43CC11092EA081092EB0881E0809302
:10185000640387E3891BEDCF909167039B3269F4A2
:101860001092EA081092EB08109264038BE08093C8
:1018700067030E947E0A84E18DCF9C3208F442C146
:101880001092EA081092EB0881E08093640387E3EA
:10189000891BEDCF933308F4A6C01092EA0810928A
:1018A000EB0881E08093640387E3891B55CF8E3179
:1018B00009F048C1809167038E3150F18C3308F0F4
:1018C00007CFCBE3C81B8091DD039091DE03049723
:1018D00029F08091D503882309F44CC00E94BD0AE9
:1018E0008C2F0E9423050E947D89809167038B3392
:1018F00009F4BECE40E550E060E070E082EE98E092
:101900000E944F8F809167038F5F80936703E0CEC3
:101910000E9423050E948489809167038831D0F05A
:1019200081E40E94C80A809167038F5F80936703F8
:101930008E3109F4B9CE4091030250910402440F54
:10194000551F440F551F70E060E082EE98E0CF9184
:101950000C944F8F823110F087E3E3CF8C3010F07E
:101960008DE2DFCF863010F083E2DBCF8823D9F21F
:1019700089E1D7CF8091F6039091F703209113026C
:10198000253018F48130910511F0892B29F48C2F22
:101990000E9423050E947D898091F6039091F703B0
:1019A0000097E1F0019709F093CE80911302833004
:1019B00009F46DC018F5823009F495C08FE00E94DB
:1019C000C80A90916703953309F0B0C01092EA08F5
:1019D0001092EB081092640385E0BECE80916703FD
:1019E0008B3309F4C3CE4091030250910402440F9B
:1019F000551F440F551F70E060E080CF8430D9F050
:101A00008530E1F6909167039B3361F41092BB0837
:101A10001092BC081092EA081092EB08109264032E
:101A20008DE1CECE1092EA081092EB0881E080930F
:101A300064038BE3D3CE90916703933241F4109209
:101A4000EA081092EB081092640387E1D4CE943236
:101A500048F01092EA081092EB0881E0809364034A
:101A60008BE3DACE4091030250910402440F551FDC
:101A7000440F551F70E060E082EE98E00E944F8FA7
:101A8000809167038F5F809367038BE183CE909192
:101A90006703993241F41092EA081092EB08109211
:101AA000640381E1C6CE9A3248F01092EA0810929F
:101AB000EB0881E0809364038BE3CCCE409103027A
:101AC00050910402440F551F440F551F70E060E011
:101AD00082EE98E00E944F8F809167038F5F809322
:101AE000670383E257CE909167039F3209F4B8CE23
:101AF00048F01092EA081092EB0881E080936403AA
:101B00008BE3C6CE4091030250910402440F551F4F
:101B1000440F551F70E060E082EE98E00E944F8F06
:101B2000809167038F5F8093670387CE963308F4B5
:101B30005ACF1092EA081092EB0881E08093640378
:101B40008BE3B3CE8091DD039091DE03049721F007
:101B50008091D503C1E08111C2E0E0916803EA30D1
:101B600008F0B6CDF0E08827E754F24F8F4F0C9481
:101B70008EA4C30DDB0DE00DE50DEA0D0F0E1C0E5E
:101B8000280E340E520E89E10E94C80A81E00E949C
:101B90006F0688E7C89FA0011124052E000C660B74
:101BA000770B82EE98E00E944F8F809168038F5FE1
:101BB000809368038DCD83E20E94C80A82E0E7CF5C
:101BC0008DE20E94C80A83E0E2CF87E30E94C80A40
:101BD00084E0DDCF81E40E94C80A85E00E946F06A0
:101BE00080916803282F30E02F5F3F4F90911302C0
:101BF0009217130641F42091DD033091DE03243067
:101C0000310509F048C08F5F8093680388E7C89F5B
:101C1000A0011124052E000C660B770B96CE87E3EE
:101C20000E94C80A84E00E946F0680916803482FD2
:101C30004150550B9A01DACF8DE20E94C80A83E029
:101C40000E946F0680916803482F4350550BF2CFD6
:101C500083E20E94C80A82E00E946F0680916803B6
:101C6000482F4550550BE6CF89E10E94C80A81E014
:101C70000E946F06809168038750990B2091130290
:101C80002817190609F085CF8091DD039091DE03B6
:101C9000049709F47ECF1092EA081092EB08109294
:101CA000680316CD80E00E946F06F5CF8091DF03B8
:101CB0009091E0038130910539F48091DD0390919A
:101CC000DE03892B79F00895892B51F58091DD038E
:101CD0009091DE03892B21F58091D2039091D3035B
:101CE0000197F1F40E94A60A1092110810921208AE
:101CF00080917603811114C00E947E0A8091E103D5
:101D00008D7F8C3149F48091F6039091F703019710
:101D100019F480E00E942C060E9416060C94120B07
:101D200008958091E7039091E8038230910581F056
:101D300038F4019799F08091E3039091E4030895BA
:101D40008330910541F00497B1F783E090E0089566
:101D500081E090E0089582E090E0089590E080E0D6
:101D600008951092B1081092B2081092A70810922C
:101D7000A8088091D10381110BC00E94910E029797
:101D80000297A0F48091DF039091E003019771F432
:101D9000109A0E94910E0297029730F48091DF030F
:101DA0009091E003019721F0119808951098F1CFD8
:101DB000119A08958091ED0381110C94910E8091F8
:101DC000E3039091E4030895EF92FF920F931F9322
:101DD000CF93DF9300D000D0CDB7DEB70E948B0544
:101DE00069837A838B839C83CE0101967C010CEFFF
:101DF0001FE01E830D83F70161917F01CE010596DF
:101E00000E94E8050F5F1F4F0115F0E11F0789F7DA
:101E100026960FB6F894DEBF0FBECDBFDF91CF91EF
:101E20001F910F91FF90EF9008952F923F924F9244
:101E30005F926F927F928F929F92AF92BF92CF925A
:101E4000DF92EF92FF920F931F93CF93DF93CDB763
:101E5000DEB7A4970FB6F894DEBF0FBECDBF80915A
:101E6000CA076DED7FEF9B01281B310987FD339574
:101E700044E6429FC001439F900D11240E947AA422
:101E8000D62E162F80911C0290911D0228EE33E071
:101E9000B9010E9466A4E62E80911E0290911F0255
:101EA000B9010E9466A4F62E809120029091210231
:101EB000B9010E9466A4B62E80912202909123025D
:101EC000B9010E9466A4C62E809124029091250239
:101ED000B9010E9466A48091D8039091D9039C0116
:101EE0002150310951E02230310520F452E042E026
:101EF000029709F041E080910902A1E08111A2E07E
:101F000080910A02811163C081E08BA3809111024C
:101F1000811160C0E1E0ECA38091D00372E08111F7
:101F200001C071E080910D02B1E08111B2E08091B9
:101F30007503882309F451C082E089A380910802C7
:101F400081114EC0E1E0EAA380917403F2E0AF2E6C
:101F5000811102C0AA24A3948091F4039091F50307
:101F600032E08130910521F033E0029709F031E051
:101F70008091F0039091F10322E08130910521F0EE
:101F800023E0029709F021E080917603E2E09E2EA3
:101F9000811102C0992493948091E7039091E80302
:101FA0000197772473948430910520F4835B9D4FCF
:101FB000FC0170808091E5039091E60381309105EA
:101FC00091F0029709F4ACC0882483940EC092E08B
:101FD0009BA39CCFF2E0FCA39FCF91E099A3AECF4F
:101FE000F2E0FAA3B1CF92E0892E8091D2039091D2
:101FF000D30302E0602E019711F066246394552408
:1020000053945D0C153610F015E6512E80910B029D
:10201000DD24D394882311F0F2E0DF2E8091260294
:10202000E2E04E2E811102C0442443948091F608D0
:1020300092E0392E811102C0332433948091F70845
:1020400022242394882311F082E0282E8091F8081E
:1020500002E0811101C001E08091FE0812E08111CF
:1020600001C011E08091EE039091EF03019783305E
:10207000910508F058C0865B9D4FFC018081188651
:102080001F8259834A83AB83FBA1FC839CA19D8360
:102090007E83B887E9A1E987FAA1FA87AB863C87F6
:1020A0002D879E867F86888A698ADA8A5B8AEC8A8F
:1020B000FD8ABE8ACF8A688F498E3A8E2B8E0C8F0E
:1020C0001D8F8E8FCE0101967C0110E000E018A3D9
:1020D0000F8FF70161917F01CE014F960E94E805B5
:1020E0000F5F1F4F0E31110591F70E94E40EA49669
:1020F0000FB6F894DEBF0FBECDBFDF91CF911F9119
:102100000F91FF90EF90DF90CF90BF90AF909F9096
:102110008F907F906F905F904F903F902F90089599
:1021200084E0882E62CF84E0AACF0F931F93CF93D1
:10213000DF931F921F92CDB7DEB710E000E01A8345
:1021400009836FEFCE0101960E94E8050F5F1F4FD4
:102150000E311105A1F70E94E40E0F900F90DF9150
:10216000CF911F910F910895EF92FF920F931F93BC
:10217000CF93DF9300D000D01F92CDB7DEB7209170
:10218000E20390910E0280919704882361F182E02E
:10219000309115023983309114023A832B839C834A
:1021A0008D83CE0101967C010EE110E01F830E832A
:1021B000F70161917F01CE0106960E94E8050F5F4D
:1021C0001F4F0332110591F70E94E40E27960FB6B8
:1021D000F894DEBF0FBECDBFDF91CF911F910F915D
:1021E000FF90EF90089581E0D3CF8091A504909166
:1021F000A6040197039710F40C94E08208959F922F
:10220000AF92BF92CF92DF92EF92FF920F931F9304
:10221000CF93DF93CDB7DEB76C970FB6F894DEBFE0
:102220000FBECDBF40E051EE60E070E089E095E088
:102230000E942F841092020510920305109204054B
:1022400089E095E09093A8048093A7041092FF047E
:102250001092000510920105E9EAF4E08FEF9FEF7C
:102260008193919324E0E53CF207D1F78091A70494
:102270009091A804DC01ED91FC910084F185E02DA2
:102280001995892B61F08091A7049091A804DC0135
:10229000ED91FC910284F385E02D1995E7CF0E9422
:1022A000D38968517C4F6B01F12CE12C40EF942EC7
:1022B0005AEAA52E65E0B62E01E115E50E94E082FE
:1022C0008091040581111FC00E94D3896C157D0582
:1022D0008E059F05C0F49982AA82BB820C831D8360
:1022E0008091A7049091A804DC01ED91FC910280FB
:1022F000F381E02D45E050E0BE016F5F7F4F1995FF
:102300000E949E89DBCF0E94E082F0900405FF20AE
:1023100009F466C08091FC049091FD04892B09F4B6
:102320005CC082E090E09093A6048093A504809125
:10233000ED03811103C08AE08093CC078091CC0724
:102340002DED3FEF281B310987FD339540911B028E
:10235000429FC001439F900D11246CE97FEF0E94C2
:102360007AA463526093CB076093CA076093C9074E
:102370000E94E0828091FA049091FB040E94520531
:1023800080EF89838AEA8A8385E08B8383E18C836B
:1023900085E58D838091A7049091A804DC01ED91DF
:1023A000FC910280F381E02D45E050E0BE016F5FBB
:1023B0007F4F19958F2D6C960FB6F894DEBF0FBE28
:1023C000CDBFDF91CF911F910F91FF90EF90DF90E4
:1023D000CF90BF90AF909F90089581E090E0A3CF01
:1023E0008AEB9FEF0E94078520EFE22EE9823AEA0E
:1023F000F32EFA8205E00B8384E08C8315E51D83C0
:102400008091A7049091A804DC01ED91FC910280D9
:10241000F381E02D45E050E0BE016F5F7F4F1995DD
:10242000E982FA820B8381E08C831D838091A7046B
:102430009091A804DC01ED91FC910280F381E02DE4
:1024400045E050E0BE016F5F7F4F1995E982FA8247
:102450000B8382E08C831D838091A7049091A80454
:10246000DC01ED91FC910280F381E02D45E050E02C
:10247000BE016F5F7F4F19950E949E890E94E08286
:10248000F0900205FF2009F470C0A5EEB4E0FE0153
:102490003196CE0145962D9121938E179F07D9F73E
:1024A0000E94E08280910305882341F00E94E0822F
:1024B0008091FA049091FB040E94520580EFE82E6F
:1024C000EE8A0AEA0F8B87E0888F8CE0898F1A8E5C
:1024D0001B8E15E51C8F8091A7049091A804DC0148
:1024E000ED91FC910280F381E02D47E050E0BE01C8
:1024F0006A5E7F4F1995EE8A0F8B96E0D92ED88EA3
:1025000089E0898F81E08A8F1B8F8091A704909149
:10251000A804DC01ED91FC910280F381E02D46E0FE
:1025200050E0BE016A5E7F4F19958091ED03EE8AFF
:102530000F8BD88E9EE0998F8A8F1B8F8091A70476
:102540009091A804DC01ED91FC910280F381E02DD3
:1025500046E050E0BE016A5E7F4F199583E090E04F
:102560009093A6048093A50425CF1092A604109200
:10257000A50489E095E00E94D280E0911B05F091CE
:102580001C0580818F7E8083E0911B05F0911C05E6
:102590008081877F8083E0911B05F0911C058081FD
:1025A0008F778083E0911B05F0911C0580818F7DE2
:1025B00080838091230580932205FCCE8091A50421
:1025C0009091A6040197039708F021C16091C80774
:1025D000062E000C770B8CE390E00E9483826091C2
:1025E000C807062E000C770B8AE691E00E948382D2
:1025F0006091C807062E000C770B8BE691E00E94D5
:1026000083826091C807062E000C770B81E290E070
:102610000E9483826091C807062E000C770B8DE123
:1026200090E00E9483826091C807062E000C770B11
:102630008EE190E00E9483826091C807062E000C14
:10264000770B8FE190E00E9483826091C807062E8D
:10265000000C770B80E290E00E9483828091ED0372
:102660008823D9F06091C807062E000C770B83E908
:1026700091E00E9483826091C807062E000C770BC0
:1026800084E991E00E9483826091C807062E000CC5
:10269000770B87E491E00E9483828091D1038823A5
:1026A000D9F16091C807062E000C770B8091DB03EF
:1026B0009091DC038230910509F4A3C08330910529
:1026C00059F1019709F4A0C08EE791E00E9483823E
:1026D0006091C807062E000C770B89E891E00E94F4
:1026E00083826091C807062E000C770B83E690E08A
:1026F0000E9483826091C807062E000C770B88E445
:1027000090E00E9483826091C807062E000C770B30
:1027100082E690E00E9483826091C807062E000C3A
:10272000770B8EE890E00E9483826091C807062EA6
:10273000000C770B80E990E00E9483826091C807CB
:10274000062E000C770B8DE890E00E94838260914A
:10275000C807062E000C770B8FE890E00E9483825A
:102760006091C807062E000C770B83E990E00E9469
:1027700083826091C807062E000C770B81E990E0F8
:102780000E9483826091C807062E000C770B82E9B5
:1027900090E00E9483826091C807062E000C770BA0
:1027A00084E990E00E9483826091C807062E000CA5
:1027B000770B82E190E00E9483826091C807062E29
:1027C000000C770B83E190E00E9483826091C80740
:1027D000062E000C770B84E190E00E9483826091CA
:1027E000C807062E000C770B85E190E00E948382DB
:1027F0006091C807062E000C770B86E190E00C94E0
:10280000838284E390E086CF8AE390E083CF0895CB
:1028100080918E0490918F04892B09F467C0809178
:10282000900490919104843F21E0920708F45EC0E7
:1028300021E0209394044091ED032091A504309170
:10284000A6042230310599F12330310519F02130E9
:10285000310509F54423F9F02091930465E0211135
:1028600001C066E00E9455826091C707062E000CE9
:10287000770B80919004909191040E94838261E093
:1028800080919004909191040E94B1820E94E08214
:1028900081E0809308058091ED03882339F140E1C0
:1028A00057E260E070E08DEC97E00C944F8F44238A
:1028B00091F32091930465E0211101C066E00E942C
:1028C00055826091C707062E000C770B809190040B
:1028D000909191040E94838250E040E061E08091F9
:1028E0009004909191040E94FC83D0CF0895209190
:1028F000A5043091A604215031092330310518F484
:1029000064E00C94558208950E94DA0E029720F03C
:102910008AE691E00C9477148CE390E0FBCF8DE88D
:1029200090E00E9477148EE890E00E9477148FE880
:1029300090E00E94771480E990E00E94771481E98A
:1029400090E00E94771482E990E00E94771483E976
:1029500090E00E94771484E990E00C947714CF9370
:10296000C82F80911302823020F08430D8F0863056
:1029700000F181E290E00E947714CC2349F180912C
:10298000ED03882329F18091DB039091DC038230F1
:102990009105B1F083309105C1F00197C9F484E944
:1029A00091E010C081E290E00E9477148DE190E008
:1029B000E2CF8DE190E00E94771480E290E0DBCFDF
:1029C00083E991E0CF910C94771487E491E0FACFFA
:1029D000CF9108959091DB098091D60998131AC080
:1029E0009091200A80911B0A981314C09091650A57
:1029F0008091600A98130EC08091DF039091E003EC
:102A0000019741F448EE53E060E070E085E998E01A
:102A10000E944F8F80916103882309F45CC010925B
:102A200061039091DB098091D609981312C09091AF
:102A3000200A80911B0A98130CC09091650A80911E
:102A4000600A981306C08091DF039091E00301971C
:102A500011F182E190E00E94771483E190E00E94FE
:102A6000771484E190E00E94771485E190E00E9461
:102A7000771486E190E00E947714809111028823F8
:102A800019F085EC0E94165040E050E0BA0185E94B
:102A900098E00C944F8F66E082E190E00E945582AE
:102AA00066E083E190E00E94558266E084E190E078
:102AB0000E94558266E085E190E00E94558266E0C2
:102AC00086E190E00E94558280911102882319F0DE
:102AD00086EC0C9416500895CF92DF92EF92FF92FD
:102AE0000F931F93CF93DF936C01F62EC42F141610
:102AF0000CF4C0E0CA3B0CF4CAEB8091A5049091A1
:102B0000A6048230910589F18330910519F001976F
:102B100009F047C00C2E000CDD0B222379F06AEB84
:102B20007FEFC6010E9483826E2DC6010E94B18292
:102B3000A801BE01C6010E94738408C0BE01C6017F
:102B40000E9483826E2DC6010E94B18265E0F11061
:102B500001C066E0C601DF91CF911F910F91FF90F8
:102B6000EF90DF90CF900C9455820C2E000CDD0B73
:102B7000222361F06AEB7FEFC6010E94838250E05E
:102B800040E06E2DC6010E94FC83D2CFBE01C6017B
:102B90000E94838250E040E06E2DC6010E94FC83BB
:102BA000D5CFDF91CF911F910F91FF90EF90DF90E4
:102BB000CF900895EF920F931F939091070298176B
:102BC00059F18430D9F486E10E9416500E94DA0E41
:102BD000EE24E39410E000E020E04091C80761E0BB
:102BE0000297B8F08AE691E00E946C1544E650E046
:102BF00060E070E089EA98E00E944F8F80910702C0
:102C00008F5F8093070285E11F910F91EF900C94E5
:102C100016508CE390E0E8CF1F910F91EF9008954C
:102C2000EF920F931F9380910F0220915109909181
:102C30004C09291320C08823C1F0809111028823F8
:102C400019F089EB0E941650EE24E39410E000E0A6
:102C500020E04091C80760E086E991E00E946C1591
:102C600088E70E94165010920F0280910F021F9168
:102C70000F91EF9008958111F8CF0E94910E20914D
:102C8000110202970297C0F4222319F088EB0E94E8
:102C90001650EE24E39410E000E020E04091C807D5
:102CA00060E081EB90E00E946C1587E70E9416506F
:102CB00081E080930F02D9CF222319F087EB0E9485
:102CC0001650EE24E39410E000E020E04091C807A5
:102CD00060E08DE891E0E7CFEF920F931F93809132
:102CE000ED03882381F1109207091092080987E506
:102CF00091E00E947714EE24E39410E000E020E0DD
:102D00004091C80760E088E591E00E946C158091D1
:102D1000DB039091DC030297B1F48091DF03909183
:102D2000E003019781F49091200A80911B0A981387
:102D30000AC004E813E021E04091C80761E083E99C
:102D400091E00E946C151092DE031092DD031F913A
:102D50000F91EF900895EF920F931F9380916A0364
:102D60008823A1F10E94910E0297B0F589E491E0C9
:102D70000E9477148CE491E00E9477148DE491E036
:102D80000E94771481E00E94AF148091DD0390913E
:102D9000DE030497D9F08091D403811117C080918C
:102DA0001102882319F08CEB0E94165081E190E00B
:102DB0000E947714EE24E39410E000E020E04091BC
:102DC000C80760E081E190E00E946C1510926A03F0
:102DD0001F910F91EF900895809111022091DD03D2
:102DE0003091DE032430310551F09091D5039111DB
:102DF00006C02091DF033091E003232B91F4882358
:102E000019F08AE50E941650EE24E39410E000E0E9
:102E100020E04091C80760E084E990E00E946C15D2
:102E200023C09091D40391111FC0882319F088E525
:102E30000E94165049E557E060E070E08DE199E0AE
:102E40000E944F8F10921B0910921C098091A504BB
:102E50009091A6040297C1F44091C8076EE870E013
:102E600082E990E00E94A78480911102882319F0E2
:102E700085E50E9416508FE890E00E94771480E963
:102E800090E00E947714A2CFEE24E39410E000E0DB
:102E900020E04091C80760E082E990E0BFCF8091D8
:102EA000DF039091E0038130910539F48091DD03D7
:102EB0009091DE03892B79F00895892B61F580913B
:102EC000DD039091DE03892B31F58091D20390913F
:102ED000D303019701F50E94EA140E94AB1681E02A
:102EE0000E94AF148091E10390E08E3109F092E0EE
:102EF0008EE1891B8093670385E0809368030E94BD
:102F0000D80848E750E060E070E082EE98E00E9468
:102F10004F8F0C94120B0895EF920F931F930E9402
:102F20008F1480911102882319F083E50E941650B6
:102F300048EE56E060E070E08DE199E00E944F8F2E
:102F40008091A5049091A604029771F44091C8075E
:102F50006EE870E08DE890E00E94A7841092010274
:102F60001F910F91EF900895EE24E39410E000E09C
:102F700020E04091C80760E08DE890E00E946C1569
:102F8000EDCFEF920F931F93CF93C82F4091C807B7
:102F900080911302833020F0853048F1853081F133
:102FA000EE24E39408EE13E02C2F61E081E290E040
:102FB0000E946C158091ED038823B9F1CC23A9F10F
:102FC0008091DB039091DC038230910511F1833015
:102FD000910581F1019749F5EE24E39404E813E0AB
:102FE00021E04091C80761E084E991E01CC0EE2433
:102FF000E39408EE13E02C2F61E08DE190E0D8CF50
:10300000EE24E39408EE13E02C2F61E080E290E0E0
:10301000CFCFEE24E39404E813E021E04091C80709
:1030200061E083E991E00E946C15CF911F910F91AF
:10303000EF900895EE24E39404E813E021E040913A
:10304000C80761E087E491E0EECFEF920F931F9302
:10305000CF938091DD039091DE038430910509F4D4
:10306000D2C02091D5032111CEC03091200A2091E9
:103070001B0A32139EC1209108022223A9F020913D
:10308000DB033091DC032230310509F4C1C0039722
:1030900059F080912F08882309F4BAC087E298E09C
:1030A0000E941F8F8111B4C08FEF0E94DD50C0912C
:1030B0006A030E94910EC11135C0029708F0D4C076
:1030C00080916003811128C089E491E00E94771407
:1030D0008CE491E00E9477140E94910E019709F010
:1030E000ACC08DE491E00E947714EE24E39410E0EC
:1030F00000E020E04091C80760E08DE491E00E948C
:103100006C1580911102882339F080915F03811141
:1031100003C081ED0E94165081E00E94C11781E03A
:1031200080936A030E94910E02970297F8F483E15C
:1031300099E00E941F8F8823C9F080911102882393
:1031400019F087E50E9416508091A5049091A6047D
:10315000029761F0EE24E39410E000E020E040915B
:10316000C80761E080E990E00E946C15109260034E
:1031700010925F039091DB098091D609981313C1D7
:103180008091610381113FC085E998E00E941F8F03
:103190008823C9F18091DD039091DE03049799F1B2
:1031A0008091610381112FC00E94910E02970297B6
:1031B00008F0E4C080910B02882309F4DFC08091FD
:1031C0001102882319F087EC0E9416504091C8071D
:1031D00080911302833009F4BFC008F0A6C082308A
:1031E00009F4B1C0EE24E39410E000E020E061E0D7
:1031F00082E190E00E946C1581E08093610310925F
:103200009D0810929E08CF911F910F91EF90089505
:1032100080911302833069F020F4823061F086E6F9
:1032200044CF843021F08530D1F78CEC3ECF82EB57
:103230003CCF89E93ACF80E838CFEE24E39410E020
:1032400000E020E04091C80760E089E491E00E943E
:103250006C1580911102882309F45ECF80915F0381
:1032600081115ACF8AEB56CF80911102882339F011
:10327000809101028823C1F18BE50E9416501092C3
:1032800025091092260949E557E060E070E083E1E6
:1032900099E00E944F8F209101024091C8078091D0
:1032A000A5049091A604222361F10297F9F460E944
:1032B00070E083E990E00E94A784109201028DE8FB
:1032C00090E00E9477148EE890E00E94771481E9E4
:1032D00090E00E94771482E990E00E94771484E9DC
:1032E00090E00E9477141BCF84E5C7CFEE24E394CF
:1032F00010E000E020E060E083E990E00E946C15BF
:10330000DCCF029739F460E970E08FE890E00E942A
:10331000A784D5CFEE24E39410E000E020E060E045
:103320008FE890E00E946C15CACF8430F1F08530B0
:1033300009F058CFEE24E39410E000E020E061E0D3
:1033400086E190E057CFEE24E39410E000E020E027
:1033500061E083E190E04ECFEE24E39410E000E0E2
:1033600020E061E084E190E045CFEE24E39410E0BA
:1033700000E020E061E085E190E03CCF8091DC0955
:10338000882309F439CF80911102882319F088EC41
:103390000E941650EE24E39410E000E020E04091FB
:1033A000C80760E0CDCFCF911F910F91EF900C94A3
:1033B000EA1480E00E94DD500E94EA14CF911F9130
:1033C0000F91EF900C94AB16EF920F931F930E9406
:1033D000A60A10920709109208091092110810927B
:1033E0001208119880917603811102C00E947E0A12
:1033F0000E94910E029748F58CE491E00E947714A8
:10340000EE24E39410E000E020E04091C80760E083
:103410008CE491E00E946C159091200A80911B0A27
:10342000981739F00E94910E0297029710F40E94AB
:103430008C171092DE031092DD0381E080935F030E
:103440001F910F91EF900C94120B89E491E00E9470
:103450007714EE24E39410E000E020E04091C807E8
:1034600060E089E491E00E946C1581E00E94C11740
:10347000D3CFEF920F931F93CF93C82F8091F60372
:103480009091F703019709F077C080E190E0909365
:103490000402809303028BEF90E00E9477148091E6
:1034A000DF039091E003029709F4A4C08091D50353
:1034B00081110FC08091D2039091D303009709F43A
:1034C0005EC0019731F48091EA08811102C00E9428
:1034D000120B8091020180628093020180910201AF
:1034E000806480930201409105025091060270E0D1
:1034F00060E089ED9AE00E944F8F81E00E94545174
:103500001092B1081092B2081092A7081092A80861
:103510008091D50381116EC00E94910E0097D9F160
:10352000019709F46CC08091ED03882309F493C0DE
:1035300089E491E00E947714EE24E39410E000E027
:1035400020E04091C80760E089E491E00E946C159A
:1035500081E00E94C1179091200A80911B0A981760
:1035600009F448C08091D503811144C0CF911F91C7
:103570000F91EF900C948C1786E090E088CF0E941A
:10358000120B9091200A80911B0A9813A2CF81E020
:10359000809360039ECF8CE491E00E94771489E4CD
:1035A00091E00E9477148091D703EE24E39410E019
:1035B00000E020E04091C80760E08823B9F08CE487
:1035C00091E00E946C1580911102882399F08091FE
:1035D000D703882379F08091D40381110BC08BEB42
:1035E000CF911F910F91EF900C94165089E491E0C8
:1035F0000E946C15CF911F910F91EF9008958CE46C
:1036000091E00E9477148DE491E00E9477148091FC
:10361000D703EE24E39410E000E020E04091C807D7
:1036200060E0882331F09091200A80911B0A981362
:10363000C6CF8DE491E00E946C1580911102882321
:10364000C9F28091D7038823A9F28091D403811114
:10365000D1CF81EDC5CF9091200A80911B0A98139C
:1036600077CFCC2309F474CF89E491E00E947714DA
:10367000EE24E39410E000E020E04091C80760E011
:1036800089E491E00E946C158AEB0E94165060CF8D
:10369000EF920F931F93809109028823E1F010921B
:1036A00009028DE590E00E9477148CE590E00E947D
:1036B0007714EE24E39410E000E020E04091C80786
:1036C00060E08DE590E00E946C1585E31F910F91FD
:1036D000EF900C94165081E0809309028DE590E004
:1036E0000E9477148CE590E00E947714EE24E39416
:1036F00010E000E020E04091C80760E08CE590E039
:103700000E946C1586E3E2CFEF920F931F93E09136
:10371000DB03F091DC03319789E0E730F10570F4C9
:103720008827EA56F44E8F4F0C948EA41F1C211C40
:103730001D1C191C9D1B171C1B1C8EE00E94165083
:103740008091DD039091DE038630910509F456C027
:103750000897029708F452C086E090E00E94771420
:1037600080E390E00E94771485E490E00E94771453
:1037700086E490E00E9477148CE290E00E94771437
:103780008EE390E00E9477148091ED03882361F02E
:1037900083E991E00E94771484E991E00E94771414
:1037A00087E491E00E9477148091DB039091DC0321
:1037B0008330910509F4ABC008F045C08130910514
:1037C00009F457C0029709F47BC0EE24E39410E09B
:1037D00000E020E04091C80760E086E090E00E94B1
:1037E0006C151092650384E68093020245E050E078
:1037F00060E070E08BE898E00E944F8F8091A50414
:103800009091A6040197029750F48091DB03909168
:10381000DC03039709F0B2C080E00E944186109259
:10382000390810923A081F910F91EF9008958FE098
:1038300085CF8DE083CF80E181CF8CE07FCF8BE09F
:103840007DCF8AE07BCF8530910509F487C006974C
:1038500009F0BBCF8091ED03882319F2EE24E394A5
:1038600010E000E020E04091C80760E088E991E0C6
:10387000B6CFEE24E39410E000E020E04091C807CA
:1038800060E085E490E00E946C158091ED03882350
:1038900009F4A7CF8091DF039091E003019709F02D
:1038A000A0CF9091200A80911B0A98139ACF00ED27
:1038B00017E021E04091C80761E084E991E08FCFF3
:1038C000EE24E39410E000E020E04091C80760E0BF
:1038D00080E390E00E946C158091ED03882309F449
:1038E00080CF8091DF039091E003019709F079CFB9
:1038F0009091200A80911B0A981373CF0CEB12E071
:1039000021E04091C80761E083E991E068CFEE24AF
:10391000E39410E000E020E04091C80760E086E416
:1039200090E00E946C158091ED03882309F459CF33
:103930008091DF039091E003019709F052CF9091BD
:10394000200A80911B0A98134CCF02EE14E021E06C
:103950004091C80761E087E491E041CF8091ED0399
:10396000882309F43ECFEE24E39410E000E020E049
:103970004091C80760E087E991E031CF81E04DCF09
:10398000EF920F931F9388E290E00E947714EE2449
:10399000E39410E000E020E04091C80760E088E296
:1039A00090E00E946C1588E590E00E94771485E60F
:1039B00090E00E94771489E590E00E9477142091AE
:1039C000D2033091D3038091D8039091D903213051
:1039D0003105C9F082309105B1F40E94B00A20E0AF
:1039E0004091C80760E089E590E00E946C1582E391
:1039F0000E9416501092DC031092DB031F910F916E
:103A0000EF900C94841B4091C8070197B1F482E0B9
:103A100090E09093D9038093D80390936C038093A4
:103A20006B03EE24E39410E000E020E060E085E624
:103A300090E00E946C158AE2DBCF81E090E09093E9
:103A4000D9038093D80390936C0380936B03EE2487
:103A5000E39410E000E020E060E088E590E00E9460
:103A60006C1589E2C5CF2091D8033091D90380919C
:103A7000D2039091D30381309105F1F421153105E2
:103A8000B1F410926C0310926B039093D90380935E
:103A9000D8038091DB039091DC03892B31F01092E5
:103AA000DC031092DB030E94841B80E025C030936E
:103AB0006C0320936B03EDCF80916B0390916C03AB
:103AC0008217930791F081309105B9F0823091050A
:103AD000A1F01092D9031092D8038091D80390914D
:103AE000D90390936C0380936B0381E02091D803FA
:103AF0003091D903232BC9F608959093D90380936D
:103B0000D803EBCFEF92FF920F931F93CF93DF93E6
:103B1000CDB7DEB7A7970FB6F894DEBF0FBECDBF07
:103B20008CEF9FE00E94D3A38CA38DEF9FE00E94B7
:103B3000D3A38DA38EEF9FE00E94D3A38EA38FEF1C
:103B40009FE00E94D3A38FA30E948B050CA11DA10F
:103B50002EA13FA1601771078207930709F0C4C225
:103B6000CE0101967C0110E000E0C8010E94D3A3C1
:103B7000F70181937F010F5F1F4F0E311105A9F7E8
:103B800089818230B9F481E090E09093D9038093E9
:103B9000D8038A81823031F482E090E09093D90397
:103BA0008093D8038091D8039091D90390936C03AC
:103BB00080936B038B819FEF980F923030F48230AB
:103BC00009F0F7C181E0809309028C819FEF980F83
:103BD000923030F4823009F0EFC181E080930A0224
:103BE0008D819FEF980F923030F4823009F0E7C159
:103BF00081E0809311028E819FEF980F923050F4F4
:103C0000823009F0DFC181E08093D0038093CE033E
:103C10008093CF0388859FEF980F923030F48230E5
:103C200009F0D7C181E080930D0289859FEF980F3D
:103C3000923030F4823009F0CFC181E08093750377
:103C40008A859FEF980F923030F4823009F0C7C117
:103C500081E0809308028B859FEF980F923030F4BB
:103C6000823009F0BFC181E0809374038C859FEF9F
:103C7000980F933050F4823009F4B7C1833009F4BF
:103C8000BFC11092F5031092F4038D859FEF980F3A
:103C9000933050F4823009F4BCC1833009F4C4C1BC
:103CA0001092F1031092F0038E859FEF980F9230DF
:103CB00030F4823009F0C1C181E0809376038F85B2
:103CC0009FEF980F953060F4833009F4C8C108F075
:103CD000B7C1823009F4BCC11092E8031092E70327
:103CE00088899FEF980F953050F4823009F4BDC158
:103CF000843009F4C1C11092E6031092E50389896A
:103D00009FEF980F923068F49091ED03992349F05A
:103D1000823009F0B4C181E090E09093D3038093A6
:103D2000D2038A899FEF980F923030F4823009F0E5
:103D3000ABC181E080930B029B8991509536F8F4DA
:103D40008091ED038823D9F090931B028091CC07DA
:103D50002DED3FEF281B310987FD3395929FA00180
:103D6000939F500D1124CA016CE97FEF0E947AA441
:103D700063526093CA076093C9076093CB072C898D
:103D80008FEF820F8C3378F448EE53E0249FC0010C
:103D9000259F900D112490931D0280931C029093F7
:103DA000F5088093F4082D898FEF820F8C3378F417
:103DB00048EE53E0249FC001259F900D112490935D
:103DC0001F0280931E029093F3088093F2082E89BD
:103DD0008FEF820F8C3378F448EE53E0249FC001BC
:103DE000259F900D1124909321028093200290939F
:103DF000F1088093F0082F898FEF820F8C3378F4CD
:103E000048EE53E0249FC001259F900D112490930C
:103E10002302809322029093EF088093EE08288D6E
:103E20008FEF820F8C3378F448EE53E0249FC0016B
:103E3000259F900D11249093250280932402909346
:103E4000ED088093EC08898D9FEF980F923030F445
:103E5000823009F01CC181E0809326028A8D9FEF99
:103E6000980F923030F4823009F014C181E08093D1
:103E7000F6088B8D9FEF980F923030F4823009F066
:103E80000CC181E08093F7088C8D9FEF980F9230E2
:103E900030F4823009F004C181E08093F8088D8D00
:103EA0009FEF980F923030F4823009F0FCC081E02F
:103EB0008093FE088E8D9FEF980F9430D0F482305F
:103EC00009F4FEC0833009F4F4C0813009F4FEC067
:103ED00084E090E09093EF038093EE038091ED03F4
:103EE000882309F4E3C083E090E09093EC0380938F
:103EF000EB030E94B6500E94C8507E01FFE1EF0E16
:103F0000F11C0EE110E0C8010E94D3A3F7018193D8
:103F10007F010F5F1F4F03321105A9F78F8D9FEFB0
:103F2000980F9E3F10F48093150288A19FEF980F81
:103F30009E3F10F48093140289A1823031F08530C5
:103F400021F0982F9D7F903361F48093100280338D
:103F500031F0823309F4BFC0823009F085E08093EC
:103F6000E2038AA18C3111F08E3159F480930E0254
:103F70008091E1038D7F8C3121F480910E0280933A
:103F8000E1038BA19FEF980F923030F4823009F05B
:103F9000A8C081E080939704A7960FB6F894DEBF7F
:103FA0000FBECDBFDF91CF911F910F91FF90EF908A
:103FB00008951092090209CE10920A0211CE1092B1
:103FC000110219CE1092D0031092CE031092CF039B
:103FD00021CE10920D0229CE1092750331CE10928F
:103FE000080239CE1092740341CE1092F70310925A
:103FF000F60381E090E09093F5038093F40345CEBF
:1040000081E090E09093F7038093F60382E090E0E4
:10401000F2CF1092F3031092F20381E090E09093BC
:10402000F1038093F00340CE81E090E09093F3039E
:104030008093F20382E090E0F2CF109276033FCEBD
:10404000843081F0853009F047CE84E090E002C0F2
:1040500081E090E09093E8038093E70341CE82E013
:1040600090E0F8CF83E090E0F5CF81E090E090938E
:10407000E6038093E50343CE82E090E0F8CF109210
:10408000D3031092D2034DCE10920B0255CE109254
:104090002602E4CE1092F608ECCE1092F708F4CE89
:1040A0001092F808FCCE1092FE0804CF82E090E057
:1040B0001CCF83E090E09093EF038093EE0315CF45
:1040C00081E080930C0282E090E0F5CF80930C02B7
:1040D00081E090E0F0CF8093E20380E380931002D0
:1040E00040CF1092970458CFEE24E39410E000E004
:1040F00020E04091C80760E08FE591E00E946C15D8
:104100000E949510A7960FB6F894DEBF0FBECDBFE4
:10411000DF91CF911F910F91FF90EF900C94E40EDF
:10412000EF920F931F9380911A02853020F5109221
:104130001A0280E490E00E947714EE24E39410E0E9
:1041400000E020E04091CB0760E080E490E00E9436
:104150006C1580911A0226E4829FC001112464E646
:1041600070E00E947AA466546093C8071F910F9173
:10417000EF900C94DE12855080931A02EACFEF92F2
:104180000F931F9380911A02803628F184E6809362
:104190001A0280E490E00E947714EE24E39410E089
:1041A00000E020E04091C80760E080E490E00E94D9
:1041B0006C1580911A0226E4829FC001112464E6E6
:1041C00070E00E947AA466546093C8071F910F9113
:1041D000EF900C94DE128B5F80931A02EACFEF927D
:1041E0000F931F93CF93C82F8091A5049091A6049D
:1041F0000197039738F48091CB07082E000C990B98
:104200000E940785C11116C08091DF039091E003E1
:10421000892B81F480E490E00E947714EE24E394EB
:1042200010E000E020E04091C80760E080E490E00A
:104230000E946C15CF911F910F91EF900895CF932D
:10424000982FC62F2091E203322F3D7F62E030335A
:1042500009F46FEF9D3108F025C0E92FF0E08827C1
:10426000EB5CFE4D8F4F0C948EA4362252217421AC
:1042700077217A217C217F218121842187218A2134
:104280008D219021932196219A2199219D21A02170
:10429000A321A621A921AD21B021B321DE21012234
:1042A0001B226F2120E094E6392F330F330F330F99
:1042B00085E5732F789F070E70E0711D1124692F1B
:1042C0006074592F507297FD2AC1611116C15111A6
:1042D000D0C0872F8095972F782F80E0CEC0209177
:1042E000140290911502E0CF27EB94E2DDCF2FEF7F
:1042F00094EFDACF20E8FCCF2FEF90E0D5CF20EC81
:10430000FCCF2FEF95E0D0CF2FEF9AE0CDCF2FEF5E
:104310009FE0CACF2FEF94E1C7CF2FEF90E2C4CF39
:1043200020E89BE2C1CF2FEF90E4BECF2FEF90E5C6
:10433000BBCFC0E82FEF90E6B7CF28E790E7B4CF28
:104340002FEF90E8B1CF2FEF91E9AECF2FEF90EAAA
:10435000ABCFC0E728EC9AEAA7CF2FEF94EBA4CF1E
:104360002FEF90ECA1CF80915E03882321F080365F
:1043700011F010925E038091DD039091DE03892B92
:1043800019F4253009F462E3809100028F5F809375
:1043900000020E944CA491110DC080915E03811116
:1043A00004C080E680935E0302C010925E0381E049
:1043B0008093000290915E032FEF76CF80915E0391
:1043C0008F3029F0823D19F08FE080935E03809159
:1043D000DD039091DE03892B19F4253009F462E3A3
:1043E000809100028F5F809300020E944CA4911183
:1043F000E1CF80915E038F3011F482EDD3CF8FE057
:10440000D1CF809100028F5F809300020E944CA464
:1044100091110DC080915E0390E005966FEF70E002
:104420000E947AA480935E0381E0809300029091C1
:104430005E0320E839CF8091DD039091DE03892B64
:1044400019F4303309F464E1809100028F5F8093A6
:1044500000020E944CA49111ADCF80915E0390E0C8
:1044600005966FEF70E00E947AA49CCFC92F292F88
:104470001BCF95E5970F80E07BEA2F3FF1F02223D9
:1044800009F46CC0209530E0222329F0229F312DC1
:10449000112421113F5F232F2095729F070E70E09A
:1044A000711D929F090E90E0911D829F080E80E081
:1044B000811D1124730F930F830FCF3FB9F020E0BC
:1044C000CC2321F0CC9F212D09F02F5F222309F46A
:1044D00049C0729F070E70E0711D929F090E90E017
:1044E000911D829F080E80E0811D1124692F4111CA
:1044F00002C0672F792FCF91089551110AC09AEA0F
:10450000399F030E30E0311D11248BEA831B970F76
:10451000E3CE80E0972F9095872F70E0AECF6111AA
:1045200011C051110BC0832F9AEA899F080E80E0B9
:10453000811D11249BEA981B8B5AEFCF872F809502
:1045400090E09BCF511106C095E5970F8BEA871B32
:10455000792FF6CF9AEA970F30E0F9CF8FEF9FEFE0
:104560007FEFABCF80E090E070E0C0CF962F642F5C
:10457000903329F0923319F041E0923009F440E091
:104580000C941F211F93CF93DF9310E080911002B2
:10459000181750F56091E203E12FF0E0603379F0F5
:1045A000623321F4E650F84FE491F0E0EF01CC0FD4
:1045B000DD1FCE0FDF1FC850DC4F4FEF0DC0E6539D
:1045C000F84FE491F0E0EF01CC0FDD1FCE0FDF1FBD
:1045D000C850DC4F4FEF60E380E00E94B622688352
:1045E00079838A831F5FD2CFDF91CF911F91089586
:1045F0008091E2038033D1F0823319F54FEF62E30B
:1046000080E00E94B62260936404709365048093F6
:1046100066044FEF6091E20380E00E94B62260934F
:10462000670470936804809369040BC04FEF60E3E4
:1046300080E00E94B62260931C0470931D04809356
:104640001E04129808958091E1038D7F8C31D1F47E
:104650000E94A60A0E9401060E94F8221092680396
:104660001092670380919404882321F08091920432
:10467000882361F040E65AEE60E070E081EE97E05A
:104680000C944F8F80E00E946F06E4CF0895E9E517
:10469000F8E010861186E1E8F8E010861186E3E67E
:1046A000F8E010861186EDE6F8E010861186E7E75F
:1046B000F8E010861186EBE8F8E01086118610927B
:1046C0007903109269031092650384E680930202D5
:1046D0000E94C2220C94F822EF920F931F93CF9363
:1046E000DF93109211091092120987E00E94165070
:1046F0001092DE031092DD031092D1031092730327
:10470000109271031092E0081092E1081092BB0819
:104710001092BC08109264032091F6033091F703C5
:1047200080911302815080936803109267032130B7
:10473000310509F06BC08091F2039091F30301976A
:1047400009F059C00E94110A0E94FE088091D50309
:1047500081110E944F171092890810928A081092B6
:10476000570810925808109243081092440840E0ED
:1047700050E0BA018DE698E00E944F8F0E94F82227
:104780000E94B10E0E948414109272031092700362
:1047900010926F031092EB0A1092EC0A8091DB03E7
:1047A0009091DC038230910509F400C183309105BA
:1047B00009F468C0019709F403C10E94DA0E813040
:1047C000910509F4AEC088F1039709F4EBC085E4C4
:1047D00098E00E94D98E683873418105910508F0F0
:1047E000C7C0E12C10E000E020E04091C80760E085
:1047F00083E891E045C00E94A60A85E090E090938E
:104800000402809303020E94120BA0CF0E94A60A0A
:1048100083E090E090930402809303028091D5039B
:10482000811197CF0E94120B96CF80911302853091
:1048300009F44AC085E498E00E94D98EE12C10E08A
:1048400000E0683873418105910508F48AC085E469
:1048500098E00E94D98EE12C10E000E060317742B0
:104860008105910538F420E04091C80760E08AE0B6
:1048700090E006C020E04091C80760E080E891E049
:104880000E946C158091DB039091DC0382309105CE
:1048900009F41CC18330910509F4CFC0019709F4D4
:1048A0001CC1C09113020E94DA0EC53009F4F8C091
:1048B0008130910509F495C008F48CC0039709F480
:1048C000ECC080E690E088C085E498E00E94D98E34
:1048D000683873418105910550F4E12C10E000E047
:1048E00020E04091C80760E088E891E0C9CF85E406
:1048F00098E00E94D98EE12C10E000E06031774210
:104900008105910538F420E04091C80760E08BE80C
:1049100091E0B6CF20E04091C80760E08AE891E0DE
:10492000AFCF85E498E00E94D98E68387341810545
:10493000910550F4E12C10E000E020E04091C80720
:1049400060E08BE090E09CCF85E498E00E94D98EF7
:10495000E12C10E000E0603177428105910508F01C
:1049600082CF20E04091C80760E087E490E088CFE4
:1049700085E498E00E94D98EE12C10E000E06031DF
:1049800077428105910538F420E04091C80760E046
:1049900082E891E075CF20E04091C80760E081E8AF
:1049A00091E06ECFE12C10E000E0EECFE12C10E0C2
:1049B00000E020E04091C80760E085E390E060CF30
:1049C000E12C10E000E020E04091C80760E08BE3BC
:1049D00090E056CF8DE791E00E9477148EE791E04A
:1049E00006C084E690E00E94771483E690E00E947F
:1049F000771480910A02882321F089E090E00E94D8
:104A0000771488E490E00E94771482E690E00E9498
:104A100077148091DB039091DC03059721F483EAFE
:104A200091E00E9477148091DB039091DC0306975C
:104A300021F484EA91E00E9477148091780388231E
:104A400031F1C091A504D091A6048091E503909125
:104A5000E6038130910509F44CC0029709F044C087
:104A6000239741F48EE690E00E9477148FE690E061
:104A70000E947714E12C10E000E020E04091C8078C
:104A800060E08FE690E00E946C1510927803DF9151
:104A9000CF911F910F91EF9008958FE491E09CCFFB
:104AA0008130910569F028F0039769F08BE990E077
:104AB0009ECF87E891E00E94771489E891E097CF34
:104AC00081E690E094CF8FE491E091CF83E390E092
:104AD0000E94771484E390E0AECF89E390E00E94D7
:104AE00077148AE390E0A7CF0E94DA0E029708F0CD
:104AF000B7CF239741F48AE490E00E94771489E4C9
:104B000090E00E947714E12C10E000E020E040915A
:104B1000C80760E089E490E0B6CFEF920F931F934F
:104B2000CF938091DD039091DE030697C9F4E09165
:104B3000DB03F091DC03319789E0E730F10570F495
:104B40008827EA55FA4D8F4F0C948EA4722674264E
:104B5000AD25762678267A267C268CE00E94165093
:104B60000E94910E029708F4C9C00E948F14809190
:104B7000DD039091DE03049721F080916D0388237B
:104B800061F083E490E00E9477148FE390E00E944C
:104B9000771484E490E00E94771489E491E00E9405
:104BA00077148CE691E00E9477148091DD03909158
:104BB000DE03C0916D03079709F0A9C0C111ADC014
:104BC000C091D403C111A9C01092E0031092DF0379
:104BD0001092DE031092DD038091D10381110E94B7
:104BE0006C2380911102882359F082E50E941650AF
:104BF000CC2319F089E50E94165085EC0E941650CE
:104C00000E94EA140E94AB1681E00E94AF140E9439
:104C1000BD0A8EE390E00E9477148091DB039091AF
:104C2000DC038230910509F412C18330910509F447
:104C300014C1019709F40EC186E090E00E94771438
:104C40008091DD039091DE030797B9F08091D40342
:104C5000882399F080911102882319F08DEB0E942E
:104C60001650EE24E39410E000E020E04091C807E5
:104C700060E08EE591E00E946C1510927C0381E06B
:104C800080930102109207091092080910921108EE
:104C9000109212081092390810923A0810922F08B8
:104CA000109230081092B1081092B2081092A70822
:104CB0001092A8088091DF039091E003892B69F49A
:104CC0008091D2039091D303019709F0C9C00E944B
:104CD0007E0A10927B0310927A03CF911F910F915D
:104CE000EF9008958BE03ACF8AE038CF8DE036CF51
:104CF0008EE034CF8FE032CF80E130CF80916A03F5
:104D0000811135CF8CE491E00E94771430CFC1112E
:104D10009CC08091D40381115FCF9091200A809133
:104D20001B0A61E0981307C08091D2039091D303CE
:104D3000892B09F460E070E085E00E94CA4F109270
:104D4000E0031092DF031092DE031092DD038091E6
:104D5000D403882341F084E991E00E9477148BE624
:104D600091E00E9477148091D403811103C0809157
:104D7000D50381110E944723C091D503C11128C0DA
:104D80000E94910E029730F58091D2039091D30347
:104D9000892B09F055C080916A03811151C080911F
:104DA000D40381114DC0C091ED03CC2309F448C058
:104DB0008BEF90E00E947714EE24E39410E000E083
:104DC00020E04091C80760E08BEF90E00E946C15F6
:104DD000C0E036C080916A03811117C0C091D4032E
:104DE000C11131C08091DD039091DE03049769F019
:104DF000EE24E39410E000E020E04091C80760E07A
:104E000081E990E00E946C15C1E08091D40381118A
:104E100017C080911102882319F08CEB0E94165064
:104E200081E190E00E947714EE24E39410E000E02A
:104E300020E04091C80760E081E190E00E946C159D
:104E40001092D403C9CEC0E0E0CFC0E0C5CE80E36D
:104E500090E0F4CE85E490E0F1CE86E490E0EECEF2
:104E60001092EA081092EB081092BB081092BC084E
:104E70000E9423232CCFEF920F931F930E948D2526
:104E800082E090E09093E0038093DF0387E090E07E
:104E90009093DE038093DD038091D403811141C0A0
:104EA00040E456E060E070E089EA98E00E944F8FAD
:104EB00040E951E060E070E08FE998E00E944F8F98
:104EC00040E951E060E070E089E098E00E944F8F97
:104ED00080911102882331F08FEB0E9416508EEBE7
:104EE0000E941650E12C10E000E020E04091C8073D
:104EF00060E083E490E00E946C1520E04091C807D8
:104F000060E08FE390E00E946C1520E04091C807BC
:104F100060E084E490E00E946C151F910F91EF9087
:104F200008950E94910E4091C807EE24E3940397E0
:104F300091F410E000E020E060E084E991E00E945C
:104F40006C1580911102882341F389EC1F910F9118
:104F5000EF900C94165004EC19E021E061E08BE630
:104F600091E0EDCFEF920F931F93CF9310927C03BC
:104F70001092D40381E0809301021092E90710920D
:104F8000EA072091D2033091D3032130310569F52E
:104F90003093E0032093DF031092DE031092DD03D1
:104FA0008091660A811117C080911102882319F03F
:104FB00081EC0E9416508CEF90E00E947714EE2452
:104FC000E39410E000E020E04091C80760E08CEF3F
:104FD00090E00E946C1584E00E94165080E0CF9112
:104FE0001F910F91EF900C94391A2091DB09909149
:104FF000D60929130BC090917503992339F080933A
:105000006D030E943B27C0E08C2FE9CF81E090E048
:105010009093E0038093DF031092DE031092DD0390
:10502000C091D70384E00E941650EECFEF920F9309
:105030001F938091DD039091DE03039729F4809103
:10504000D10381110E946C2384E090E09093DE03F1
:105050008093DD038091ED03882341F04CEA5DE00D
:1050600060E070E08FEF98E00E944F8F0E94EA149A
:105070000E94AB1681E00E94AF14809176038823D2
:1050800009F460C01092EA081092EB080E94A60A88
:1050900080911102882331F08EEB0E9416508FEB25
:1050A0000E94165040E951E060E070E089E098E02D
:1050B0000E944F8FE12C10E000E020E04091C807F3
:1050C00060E083E490E00E946C1520E04091C80706
:1050D00060E08FE390E00E946C1520E04091C807EB
:1050E00060E084E490E00E946C1540E951E060E0EB
:1050F00070E085EF97E00E944F8F40E456E060E05B
:1051000070E08BEE97E00E944F8F80911102882310
:1051100019F08CEB0E94165081E190E00E94771408
:10512000EE24E39410E000E020E04091C80760E046
:1051300081E190E00E946C1582E11F910F91EF9048
:105140000C9416508091E10390E08E3109F092E0CA
:105150008EE1891B8093670385E0809368030E943A
:10516000D80848E750E060E070E082EE98E0CBCFEE
:10517000EF920F931F93CF93DF938091DD03909174
:10518000DE03AC01445051093091650A2091600A58
:105190004330510508F4B1C24091D5034111ADC26D
:1051A000321761F081E090E09093DE038093DD039D
:1051B000DF91CF911F910F91EF90089580917C0323
:1051C000833008F495C081E08093D4030E943B278C
:1051D0000E947C050E94910EC8EBDBE0039711F45E
:1051E000C8E8D3E180911302833009F47BC008F052
:1051F0006EC0823009F479C0AE0170E060E08FEFDC
:1052000097E00E944F8FBE0188E00E94CA4F8091B4
:105210000D02882369F28091D2039091D303892BE8
:1052200039F69091DB098091D609981709F290918F
:10523000200A80911B0A9813BBCF80910902882312
:1052400009F4B6CF8091AF0A882309F44AC285E0F9
:1052500090E09093DE038093DD038091ED0388233B
:1052600071F140ED57E060E070E08FEF98E00E9450
:105270004F8F83E591E00E94771483E991E00E94CB
:10528000771488E591E00E947714EE24E39410E00F
:1052900000E020E04091C80760E087E591E00E94CF
:1052A0006C158091DB039091DC03029741F420E0C0
:1052B0004091C80760E083E591E00E946C1583E1AE
:1052C000DF91CF911F910F91EF900C941650843085
:1052D00031F0853009F090CFC053D84F8DCFC452F4
:1052E000DA4F8ACFC851DC4F87CFCC50DE4F84CF06
:1052F000809163038823A9F081E398E00E94D98E0E
:10530000672B682B692B69F4109263030E94910E3E
:10531000029738F48091DD039091DE03039709F042
:1053200010989091AA0A8091A50A981349C090916B
:10533000DB098091D609981343C09091200A80918F
:105340001B0A98133DC080910F028823C9F18091F8
:10535000DB039091DC038130910509F4CFC0039702
:1053600009F4EEC08FEF97E00E94D98E672B682B6F
:10537000692B51F410927C0348EE53E060E070E03A
:105380008FEF97E00E944F8F80917303811105C0CA
:1053900080917C038F5F80937C0380917C038330BA
:1053A00078F48091DD039091DE03039731F083E080
:1053B00090E09093DE038093DD0381E0809373039C
:1053C00020919609309191098091D8039091D90349
:1053D0000197029708F0DEC03213CBC09091DB0931
:1053E0008091D609981338C09091200A80911B0AA9
:1053F000981332C080910F02882371F18FEF97E0EC
:105400000E94D98E672B682B692B51F410927C0374
:1054100048EE53E060E070E08FEF97E00E944F8F1E
:1054200080917103811105C080917C038F5F80930F
:105430007C0380917C03833078F48091DD0390912C
:10544000DE03039731F083E090E09093DE038093D6
:10545000DD0381E0809371039091AA0A8091A50AEF
:105460009817E9F08091DB039091DC03813091057E
:1054700009F431C1039709F42EC18091D103882327
:1054800071F080917303882351F080917103811131
:105490001DC11092DE031092DD03109273039091F0
:1054A000960980919109981709F4B1CE8091D8039B
:1054B0009091D903892B09F0AACE8091DB039091BA
:1054C000DC038130910549F008F408C18230910570
:1054D00009F404C1039709F09ACE8091D10388237F
:1054E00009F495CE80917303882309F490CE10922D
:1054F000DE031092DD031092730389CE8091620364
:1055000081115ECF81E398E00E94D98E672B682BD2
:10551000692B09F055CF8091DD039091DE0348E5BA
:1055200052E060E070E0039709F44ACF81E398E02D
:105530000E944F8F0E94669A81E08093620340CF61
:105540008091620381113CCF81E398E00E94D98E63
:10555000672B682B692B09F033CF8091DD03909185
:10556000DE03039709F42CCF4AEF50E060E070E0CF
:10557000DDCF8091730381110AC08091DD0390918A
:10558000DE03039721F41092DE031092DD031092E4
:10559000710362CF8091DB039091DC03009759F493
:1055A0004091DD035091DE034330510521F4321761
:1055B00009F44FCF51CF32134FCF3091DB092091F7
:1055C000D609321349CF3091200A20911B0A321399
:1055D00043CF20910F02222309F43ECF8130910561
:1055E00041F0B8F18230910509F44EC0039709F0FB
:1055F00033CF8FEF97E00E94D98E672B682B692BF2
:1056000051F410927C0348EE53E060E070E08FEFBD
:1056100097E00E944F8F80917303811105C08091A4
:105620007C038F5F80937C0380917C03833008F040
:1056300013CF8091DD039091DE03039731F083E077
:1056400090E09093DE038093DD0381E08093730309
:1056500003CF809162038111FFCE81E398E00E9425
:10566000D98E672B682B692B09F0F6CE40ED57E0F9
:1056700060E070E081E398E00E944F8F0E94669A9C
:1056800081E080936203E8CE809162038111E4CED1
:105690008091DD039091DE03039709F4DDCE8091C4
:1056A0006303811110C04EEE52E060E070E081E3D0
:1056B00098E00E944F8F0E94669A809163038F5FEB
:1056C00080936303DDCF8230D8F6F5CF0E94331D7F
:1056D0008111DFCEE2CE10926203E1CE109262031E
:1056E00096CD8091AC0A882309F462CDDF91CF91E9
:1056F0001F910F91EF900C941628321353CD892BE4
:1057000009F056CD80E89AE00E94658D81110FC0A6
:105710008091D8039091D9030197029708F048CD62
:105720008CE699E00E94658D882309F441CD809133
:10573000930881113DCD9091200A80911B0A981306
:1057400037CD9091DB098091D609981331CD8091A6
:105750001102882319F08DEB0E9416508EE591E01E
:105760000E947714EE24E39410E000E020E04091E2
:10577000C80760E08EE591E00E946C15DF91CF9143
:105780001F910F91EF900C947C05CF93DF93D091F4
:10579000E203D03319F0D23309F046C00E94DA0E8A
:1057A0002091D4038330910511F5211104C080911B
:1057B000D503882361F08091DB039091DC03892B72
:1057C000E9F580917703811139C0CEE020C0809146
:1057D0007803882321F0809177038823B1F38091A7
:1057E000DB039091DC03029759F5C0E110C0211151
:1057F00025C02091D503211121C02091DB033091D8
:10580000DC0322303105E1F4C4E0019771F7D033B5
:10581000C9F44FEF60E38C2F0E94B62260931C0402
:1058200070931D0480931E048091DB039091DC0330
:10583000029709F0129ADF91CF910895CCE0E7CF5B
:10584000C1E0E5CFD23381F74FEF62E38C2F0E94A6
:10585000B6226093640470936504809366044FEFEE
:105860006091E2038C2F0E94B622609367047093CC
:10587000680480936904D8CFCF92DF92EF920F93A0
:105880001F93CF93DF936B01E82E8091E203803367
:1058900009F435C2823309F079C483E698E00E94A6
:1058A0001F8F882309F464C4C0917903CC2309F4C1
:1058B00040C0809110028C1708F43BC01091E203A5
:1058C000C150DD0BC650D84F8091DB039091DC03B3
:1058D0008730910508F04FC08330910508F000C172
:1058E0008130910509F4EDC0029709F4C9C0009117
:1058F00078030E94DA0E9C01002309F45BC0FE01CC
:10590000039709F049C080917703811145C0C49184
:105910008C2F90E0EC01CC0FDD1FC80FD91FC850B1
:10592000DC4F4FEF612F8EE00E94B62268837983AF
:105930008A8380917903209110028213E0C0109233
:1059400079038091DB039091DC03039709F410C481
:10595000E0911302E250E43008F03EC5F0E0EF5A67
:10596000FD4F80814AE050E0481B5109052E000C94
:10597000660B770BF3C4079709F0B9CFFE01C4910A
:10598000D0E0CE01880F991FC80FD91FC850DC4F37
:105990004FEF612F8CE1C8CFC4918C2F90E0EC01C8
:1059A000CC0FDD1FC80FD91FC850DC4F4FEF612F40
:1059B00081E0BACF909113022130310549F593303F
:1059C00009F440C090F4923009F44BC0FE01C49138
:1059D0008C2F90E0EC01CC0FDD1FC80FD91FC850F1
:1059E000DC4F4FEF612F8AE09FCF9430B1F09530BC
:1059F00069F7FE01C4918C2F90E0EC01CC0FDD1F04
:105A0000C80FD91FC850DC4F4FEF612F85E08CCFF6
:105A10009330C1F088F4923061F7FE01C4918C2F6D
:105A200090E0EC01CC0FDD1FC80FD91FC850DC4F30
:105A30004FEF612F87E078CF943099F0953009F4DB
:105A4000C5CFD7CFFE01C4918C2F90E0EC01CC0FD5
:105A5000DD1FC80FD91FC850DC4F4FEF612F88E002
:105A600063CFFE01C4918C2F90E0EC01CC0FDD1FC1
:105A7000C80FD91FC850DC4F4FEF612F89E054CFBA
:105A80000E94DA0EFE01019771F4C4918C2F90E010
:105A9000EC01CC0FDD1FC80FD91FC850DC4F4FEFF2
:105AA000612F84E041CFC4918C2F90E0EC01CC0FAA
:105AB000DD1FC80FD91FC850DC4F4FEF612F80E1A9
:105AC00033CFFE01C4918C2F90E0EC01CC0FDD1F91
:105AD000C80FD91FC850DC4F4FEF612F86E124CF8C
