:100000000C947A000C946F140C9448140C94A20075
:100010000C94A2000C94A2000C94A2000C949614D0
:100020000C94A2000C94A2000C94A2000C94A200C8
:100030000C94A2000C94A2000C94A2000C94A200B8
:100040000C94FE130C94A2000C9418150C94F2144A
:100050000C94A2000C94A2000C94A2000C94A20098
:100060000C944A150C94A200020000000024002702
:10007000002A0000000000250028002B00000000DE
:1000800000230026002900040404040404040402DC
:100090000202020202030303030303010204081025
:1000A00020408001020408102001020408102000F2
:1000B0000000080002010000030407000000000027
:1000C0000000004552524F523A204E6F2063616C3F
:1000D0006C6261636B20617661696C61626C652042
:1000E000666F72207061636B657420494420000064
:1000F000CC16BF2011241FBECFEFD8E0DEBFCDBF8E
:1001000027E0A4E0B2E001C01D92AF34B207E1F7EE
:1001100012E0A0E0B1E0EAEDF9E402C005900D9232
:10012000A430B107D9F710E0C9E7D0E004C02197A7
:10013000FE010E94DC22C837D107C9F70E946D1862
:100140000C94E0240C940000FC01DB019C91915084
:10015000492F4F3FC9F0242F30E0DF01A20FB31F1A
:100160008C918E3711F04150F4CF9F3F69F0492FA9
:1001700050E0DF01A40FB51F8C918E3719F4291BB5
:100180002C93292F9150F1CF08950F931F93CF9364
:10019000DF931F92CDB7DEB721E02093F902809361
:1001A000FA021092FC021092FB0297E99093FD0272
:1001B0002093490480934A0410924B0410924C04FB
:1001C00090934D048FEF8093580609E414E0F801F2
:1001D00080E091919E3709F05BC08093580685E0DE
:1001E0008983BE016F5F7F4F89E494E00E94A40081
:1001F0008091F9039091FA03E0E0D8012D918D01EF
:10020000E227E80FF92FF11DE081B4E00E341B075F
:10021000A1F781E0809346068091580680934706B7
:1002200085E080934806E0934906809164069091AA
:100230006506DC01ED91FC910280F381E02D44E044
:1002400050E065E476E0099580916406909165063A
:10025000DC01ED91FC910280F381E02D45E050E05E
:1002600069E474E009958091640690916506DC016B
:10027000ED91FC910280F381E02D42E050E069E4D1
:1002800076E009950F90DF91CF911F910F9108951E
:100290008F5F853009F09DCFA2CF833081F028F4A5
:1002A000813099F08230A9F008958730A9F0883024
:1002B000C9F08430B1F4809180008F7D03C08091BB
:1002C00080008F7780938000089584B58F7784BDF8
:1002D000089584B58F7DFBCF8091B0008F77809398
:1002E000B00008958091B0008F7DF9CFCF93DF9358
:1002F000282F30E0F901E155FF4F8491F901E556CF
:10030000FF4FD491F901E957FF4FC491CC23A1F0DD
:1003100081110E944D01EC2FF0E0EE0FFF1FE3581A
:10032000FF4FA591B491EC91ED2381E090E009F4A9
:1003300080E0DF91CF91089580E090E0FACF1F93A5
:10034000CF93DF93282F30E0F901E155FF4F8491DF
:10035000F901E556FF4FD491F901E957FF4FC491D8
:10036000CC23A9F0162F81110E944D01EC2FF0E053
:10037000EE0FFF1FED58FF4FA591B4918FB7F89482
:10038000EC91111108C0D095DE23DC938FBFDF9173
:10039000CF911F910895DE2BF8CFCF93DF9390E09C
:1003A000FC01E556FF4F249189579F4FFC01849132
:1003B0008823C9F090E0880F991FFC01E759FF4F8F
:1003C000A591B491FC01ED58FF4FC591D4916111F5
:1003D0000DC09FB7F8948C91209582238C938881CF
:1003E000282328839FBFDF91CF910895623051F475
:1003F0009FB7F8943C91822F809583238C93E8815A
:100400002E2BEFCF8FB7F894EC912E2B2C938FBF20
:10041000EACF3FB7F8948091F4029091F502A09151
:10042000F602B091F70226B5A89B05C02F3F19F040
:100430000196A11DB11D3FBFBA2FA92F982F882764
:10044000BC01CD01620F711D811D911D42E0660F3F
:10045000771F881F991F4A95D1F708958F929F9211
:10046000AF92BF92CF92DF92EF92FF924B015C016D
:100470000E9409026B017C010E9409026C197D092E
:100480008E099F09683E734081059105A8F321E01C
:10049000821A9108A108B10888EEC80E83E0D81E20
:1004A000E11CF11C81149104A104B10429F7FF900F
:1004B000EF90DF90CF90BF90AF909F908F90089576
:1004C0002FB7F8946091F0027091F1028091F202DE
:1004D0009091F3022FBF0895CF93DF9382E00E94A3
:1004E0007601EC0183E00E94760120912202309196
:1004F0002302C817D907F9F42F5F3F4F3093230227
:10050000209322026091220270912302072E000C98
:10051000880B990B0E94D22020E030E040E250E4AA
:100520000E94E1210E9453227093C2026093C10293
:10053000DF91CF91089521503109E0CF08950895BA
:1005400080E991E0089508959091000189130BC00E
:10055000E8E6F0E0E4919FEF90930001E13049F08C
:1005600028F0E23061F060E00C949F0110926E0080
:10057000FACF90916F009D7F90936F00F4CF909190
:1005800070009D7F9093700091E09093B0009091E7
:10059000B100987F94609093B1001092B300E3CFC4
:1005A000AF92BF92CF92DF92EF92FF920F931F9381
:1005B000CF93DF936C017B018B01040F151FEB01BF
:1005C0005E01AE18BF08C017D10759F06991D60176
:1005D000ED91FC910190F081E02DC6010995892BE8
:1005E00079F7C501DF91CF911F910F91FF90EF90A7
:1005F000DF90CF90BF90AF900895FC01538D448D54
:10060000252F30E0842F90E0821B930B541710F0BD
:10061000CF96089501970895FC01918D828D9817CA
:1006200061F0A28DAE0FBF2FB11D5D968C91928DA2
:100630009F5F9F73928F90E008958FEF9FEF0895D3
:10064000FC01918D828D981731F0828DE80FF11D9C
:10065000858D90E008958FEF9FEF0895FC01918DB7
:10066000228D892F90E0805C9F4F821B91098F73B0
:100670009927089588E593E00E942E0321E0892BB5
:1006800009F420E0822F089580E090E0892B29F082
:100690000E943A0381110C9400000895FC01A48D7E
:1006A000A80FB92FB11DA35ABF4F2C91848D90E094
:1006B00001968F739927848FA689B7892C93A08977
:1006C000B1898C91837080648C93938D848D981301
:1006D00006C00288F389E02D80818F7D8083089594
:1006E000EF92FF920F931F93CF93DF93EC0181E082
:1006F000888F9B8D8C8D98131AC0E889F989808129
:1007000085FF15C09FB7F894EE89FF896083E8895B
:10071000F98980818370806480839FBF81E090E04D
:10072000DF91CF911F910F91FF90EF900895F62EDA
:100730000B8D10E00F5F1F4F0F731127E02E8C8D74
:100740008E110CC00FB607FCFACFE889F9898081B9
:1007500085FFF5CFCE010E944E03F1CFEB8DEC0F5C
:10076000FD2FF11DE35AFF4FF0829FB7F8940B8FD6
:10077000EA89FB8980818062CFCFCF93DF93EC0140
:10078000888D8823B9F0AA89BB89E889F9898C9179
:1007900085FD03C0808186FD0DC00FB607FCF7CF35
:1007A0008C9185FFF2CF808185FFEDCFCE010E9435
:1007B0004E03E9CFDF91CF91089520916702260F74
:1007C0003327331F21323105ECF420912E03FC0135
:1007D00090E080E0243069F082E00895A091670203
:1007E0002191AC01495B5D4FA40FB52FB11D2C9336
:1007F0000196861798F380916702680F60936702ED
:1008000080E0089581E0089510922E0381E08093A6
:100810002D031092080361E082E10E949F0161E0D4
:1008200083E10E949F01E9EBF0E080818E7F80836D
:1008300080818D7F808388E48093B80085E48093F5
:10084000BC000895CF93DF9391E0909346028823F4
:10085000B9F0C091B800D091BA008091BC008A7BF9
:100860008093BC0060E082E10E949F0160E083E130
:100870000E949F010E940404D093BA00C093B80064
:10088000DF91CF910895CF92DF92EF92FF920F9375
:100890001F93CF93DF93D091570381E0D13208F0BB
:1008A0009CC0C09156030E9409026B017C0180919B
:1008B0002E0381116CC082E080932E0381E080932F
:1008C0002D038FEF80932C0310922B03D0932A03D8
:1008D000A6E3B3E0EAE0F3E080E0D8138DC0109225
:1008E000090380910903CC0FC82BC09309038091A1
:1008F0000803813009F084C0109208030E940902A5
:100900006B017C01809109038093BB0080913003CF
:1009100090913103A0913203B0913303892B8A2B3C
:100920008B2BA1F00E94090200913003109131033A
:1009300020913203309133036C197D098E099F0990
:10094000061717072807390708F442C08091BC0032
:1009500083FDD8CF85EC8093BC000E9409026B0117
:100960007C0180912E03823009F44CC080912C03CD
:100970008F3F09F469C080912C03803209F466C06E
:1009800080912C03803309F463C084E026C08091F9
:10099000300390913103A0913203B0913303892B3E
:1009A0008A2B8B2B09F483CF0E940902009130031C
:1009B0001091310320913203309133036C197D097A
:1009C0008E099F09061717072807390708F06FCF08
:1009D00080912F030E94220485E01092350310922B
:1009E000570310923403DF91CF911F910F91FF9025
:1009F000EF90DF90CF9008959D9191938F5F6DCF91
:100A000085EEA9CF8091300390913103A0913203FC
:100A1000B0913303892B8A2B8B2B09F4A2CF0E9430
:100A2000090200913003109131032091320330917B
:100A300033036C197D098E099F09061717072807CC
:100A4000390708F08ECFC4CF80E0C7CF82E0C5CF92
:100A500083E0C3CF0895E091B1028091B002E8171E
:100A600030F4F0E0EA5DFD4F808190E008958FEF73
:100A70009FEF08959091B1028091B0022FEF3FEF68
:100A8000981748F4E92FF0E0EA5DFD4F208130E04F
:100A90009F5F9093B102C90108958091B002909137
:100AA000B102891B990B0895CF92DF92EF92FF92CA
:100AB0000F931F93CF93DF937C01CB018A01209189
:100AC0003403222389F0EB016B01C40ED51ECC1533
:100AD000DD0569F06991D701ED91FC910190F081FC
:100AE000E02DC7010995F3CF642F0E94DD03C801F3
:100AF000DF91CF911F910F91FF90EF90DF90CF90FA
:100B00000895CF93DF931F92CDB7DEB7698320910D
:100B100034032223F9F020915703203258F021E0CA
:100B200030E0FC013383228390E080E00F90DF917E
:100B3000CF91089580913503E82FF0E0EA5CFC4FF7
:100B4000998190838F5F809335038093570381E071
:100B500090E0ECCF61E0CE0101960E94DD03F7CF7B
:100B60009091080721E0209334039093560310924C
:100B7000350310925703682F8BEF93E00E94810595
:100B80000C944304CF92DF92EF92FF920F931F9346
:100B9000CF93DF93EC0188810E9476018C010E9443
:100BA0006002288939892017310731F06A8B7B8BE5
:100BB0008C8B9D8B198B088BCA88DB88EC88FD8811
:100BC0006C197D098E099F09CA80DB80EC80FD804D
:100BD0006C157D058E059F0530F08E859F859D8760
:100BE0008C871F870E872C853D858E859F852817CE
:100BF000390781F04A855B8542305105A1F48E8129
:100C00009F81A885B9850196A11DB11D8E839F8303
:100C1000A887B987DF91CF911F910F91FF90EF9037
:100C2000DF90CF9008954115510531F42130310501
:100C300089F7892B21F3EECF4130510559F7232B4A
:100C400049F7019739F7DBCF8F929F92AF92BF920E
:100C5000CF92DF92EF92FF920F931F93CF93DF9388
:100C6000FC012085211110C060E070E0CB01DF9114
:100C7000CF911F910F91FF90EF90DF90CF90BF9099
:100C8000AF909F908F900895EC010E94600229859B
:100C90002111EACF8C809D80AE80BF8008811981B0
:100CA0002A813B816B017C01C818D908EA08FB083E
:100CB000C016D106E206F306B8F6080D191D2A1D66
:100CC0003B1D68017901C61AD70AE80AF90AC7016B
:100CD000B601CDCFCF92DF92EF92FF921F93CF93C9
:100CE000DF93FC01108511110AC010E0812FDF9104
:100CF000CF911F91FF90EF90DF90CF900895EC017E
:100D00008185882319F018861986F0CF0E94600229
:100D1000CC80DD80EE80FF806C197D098E099F09F3
:100D2000C880D980EA80FB806C157D058E059F0503
:100D300050F7DBCFCF93DF93EC01488359836A836D
:100D40007B830E9460026C837D838E839F8381E01E
:100D500088871986DF91CF910895CF92DF92EF9225
:100D6000FF920F931F93CF93DF93962F142F62312F
:100D700008F083C1E62FF0E0E054F94F0C94DC2238
:100D8000D2063D08EF06D507F206F506F806FB0683
:100D9000FE060107040707070A074A079107D80755
:100DA00008083808162F462F892F880F880F880FBC
:100DB00035E5682F639F060E60E0611D1124292F21
:100DC0002074592F507297FDBAC12111A4C151113D
:100DD00057C1862F8095762F682F80E055C14FEF41
:100DE00094EFE2CF4FEF90E2DFCF4FEF90E4DCCF14
:100DF0004FEF90E6D9CF48E790E7D6CF4FEF90E896
:100E0000D3CF4FEF91E9D0CF4FEF90EACDCF4FEF57
:100E100090ECCACFE82EF12C97012B5F3C4F690173
:100E2000D9019C9194519D3010F094E19C93F7016D
:100E3000EE0FFF1FEE5EFE4F25E030E03183208392
:100E4000BAE08B9FE0011124C659D94FCE010E9410
:100E50002406672B682B692BC9F4F6018081F70102
:100E6000EE5FFC4F90819F5F90839F7141F490E013
:100E700001968F719927D6018C9384E1808345E098
:100E800050E060E070E0CE010E949A06F601908189
:100E90004FEF8ACFC82FD0E08E01000F111FF8014D
:100EA000EE5EFE4F2AE030E031832083FAE08F9F30
:100EB000C00111249C012659394F7901C9010E94B2
:100EC0002406C150DD4F672B682B692B31F58881D3
:100ED000823048F481E0888383E090E0F801E45FA9
:100EE000FE4F9183808388818E3F48F08EEF888308
:100EF0008DEF9FEFF801E45FFE4F91838083F8014F
:100F0000E45FFE4F88819081890F88834AE050E03A
:100F100060E070E0C7010E949A0618814FEF9CE1E3
:100F200043CFC82FD0E08E01000F111FF801EE5EF5
:100F3000FE4F28E030E0318320833AE0839FC001F8
:100F40001124AC014659594F7A01CA010E94240666
:100F5000C150DD4F672B682B692B31F588818230BA
:100F600048F481E0888383E090E0F801E45FFE4F7D
:100F70009183808388818E3F48F08EEF88838DEF48
:100F80009FEFF801E45FFE4F91838083F801E45FF7
:100F9000FE4F88819081890F888348E050E060E0AF
:100FA00070E0C7010E949A0618814FEF90E0FCCED6
:100FB000282F30E0D901AB5FBC4F6D019C91992384
:100FC00019F0903609F01C92220F331FF901EE5EE2
:100FD000FE4F20E233E031832083BAE08B9FE001B3
:100FE0001124C659D94FCE010E942406672B682BC5
:100FF000692B09F04BCFF6018081811107C080E693
:10100000808340E253E060E070E03DCF1082F9CF92
:10101000E82EF12CF701EE0FFF1FEE5EFE4F2AE0E7
:1010200030E031832083FAE08F9FE0011124C6591C
:10103000D94FCE010E94240697012B5F3C4F7901C6
:10104000672B682B692B89F4D9018C9190E001966C
:101050006FEF70E00E94A922F90180834AE050E01E
:1010600060E070E0CE010E949A06D7019C9110CFFB
:1010700040910B019091FE0297CE40E094E694CE11
:1010800075E5760F80E06BEA4F3F09F420C04423FA
:1010900009F476C0409520E0442329F0449F212D97
:1010A000112441112F5F322F3095639F060E60E0AF
:1010B000611D739F070E70E0711D482F439F040E42
:1010C00040E0411D842F1124620F720F820F1F3FD9
:1010D000C9F020E0112321F0119F212D09F02F5F8D
:1010E000222309F451C0629F060E60E0611D729FC9
:1010F000070E70E0711D582F529F050E50E0511DD4
:10110000852F1124DF91CF911F910F91FF90EF90C8
:10111000DF90CF90089551110CC0282F3AEA239FF9
:10112000020E20E0211D11248BEA821B7AEA760F41
:1011300053CE80E0762F7095862F60E0A5CF2111E9
:1011400012C051110CC0282F3AEA239F020E20E052
:10115000211D11247BEA721B85E5820FEECF862FBD
:10116000809570E091CF511106C095E5960F8BEAFE
:10117000861B692FF6CF9AEA960F80E0832FF8CF6F
:101180008FEF7FEF6FEFA3CF80E070E060E0BACF2A
:1011900090E080E00895089585E494E00C94D508EB
:1011A00085E494E00C94D808089590E080E00895D8
:1011B00090E080E008950F931F93CF93DF932091E9
:1011C00025022F5F322F37703093250220FF2BC06E
:1011D00020E831FD2064347009F02062205FFC01BA
:1011E000EC01239600E011E06485662329F070E0AD
:1011F000C8010E94A9226F5F6187322F369F030EBC
:1012000030E0311D1124311110C01682662311F017
:10121000615061873196EC17FD0731F7DF91CF916F
:101220001F910F91089520E0D4CF31503683EECF37
:101230004F925F927F928F929F92AF92BF92CF9286
:10124000DF92EF92FF920F931F93CF93DF932C01C6
:10125000EB010E940902F20127853089621B730BA2
:101260006A307105B0F3F8948A819B8118161906CB
:101270000CF0CDC1E881F98165B1862E689481F8C2
:1012800035B13D7F35B9DA848F812D2D281B822F12
:101290002F834F85042E000C550BAA81BB817D85C1
:1012A000FC84EE847F5FF394E3949E819884B984F8
:1012B000AB841181C12C6C2D0C2D2C2D218111277B
:1012C00088942111280F08F42FEF8195889470FDE0
:1012D000120F1795889471FD120F1795889472FD5F
:1012E000120F1795889473FD120F1795889474FD4B
:1012F000120F1795889475FD120F1795889476FD37
:10130000120F1795889477FD120F17958894622F06
:101310007111612F8D0D162F002C85B800C017FF9D
:1013200035B920816627889400C000C0002C35B9EB
:101330002111290F00C0002C85B800C016FF35B957
:1013400008F42FEF9195889400C000C0002C35B9A7
:10135000F0FC620F00C0002C85B800C015FF35B945
:1013600067958894F1FC620F00C000C0002C35B96D
:101370006795889400C0002C85B800C014FF35B96B
:10138000F2FC620F6795889400C000C0002C35B94C
:10139000F3FC620F00C0002C85B800C013FF35B904
:1013A00067958894F4FC620F00C000C0002C35B92A
:1013B0006795889400C0002C85B800C012FF35B92D
:1013C000F5FC620F6795889400C000C0002C35B909
:1013D000F6FC620F00C0002C85B800C011FF35B9C3
:1013E00067958894F7FC620F00C000C0002C35B9E7
:1013F0006795889400C0002C85B800C010FF35B9EF
:10140000122FF110162F9B0D00C000C0002C35B913
:1014100000C000C0002C85B800C017FF35B922817C
:101420006627889400C000C0002C35B92111290D11
:1014300000C0002C85B800C016FF35B908F42FEFA6
:10144000E40FF51F00C000C0002C35B9E0FC620FAE
:1014500000C0002C85B800C015FF35B96795889489
:10146000E1FC620F00C000C0002C35B9679588947C
:1014700000C0002C85B800C014FF35B9E2FC620F33
:101480006795889400C000C0002C35B9E3FC620F5A
:1014900000C0002C85B800C013FF35B9679588944B
:1014A000E4FC620F00C000C0002C35B96795889439
:1014B00000C0002C85B800C012FF35B9E5FC620FF2
:1014C0006795889400C000C0002C35B9E6FC620F17
:1014D00000C0002C85B800C011FF35B9679588940D
:1014E000E7FC620F00C000C0002C35B967958894F6
:1014F00000C0002C85B800C010FF35B9122FE110D4
:10150000162F919400C000C0002C35B99A0C00C071
:1015100000C085B800C017FF35B9218166278894BF
:1015200000C000C0002C35B92111280F00C0002CCC
:1015300085B800C016FF35B908F42FEF819588945F
:1015400000C000C0002C35B970FD620F00C0002C37
:1015500085B800C015FF35B96795889471FD620F95
:1015600000C000C0002C35B96795889400C0002CDD
:1015700085B800C014FF35B972FD620F6795889475
:1015800000C000C0002C35B973FD620F00C0002CF4
:1015900085B800C013FF35B96795889474FD620F54
:1015A00000C000C0002C35B96795889400C0002C9D
:1015B00085B800C012FF35B975FD620F6795889434
:1015C00000C000C0002C35B976FD620F00C0002CB1
:1015D00085B800C011FF35B96795889477FD620F13
:1015E00000C000C0002C35B96795889400C0002C5D
:1015F00085B800C010FF35B9122F7111162F8D0D4F
:1016000000C000C0002C35B9119709F086CE4A8180
:101610005B8120EE31E0DA010E94E222DC01CB01A5
:10162000F4E0B695A79597958795FA95D1F730E0B0
:1016300020E0B901EAE94E9F040E611D5E9F600D36
:10164000711D1124650F711D860F971FA11DB11DFE
:10165000893E43E09407A105B10508F434C0885ED3
:101660009340A109B10942E0B695A7959795879552
:101670004A95D1F747E0849F080E211D949F200DC5
:10168000311D1124290F311D6091240270E0860F55
:10169000971F820F931F4091F0025091F1026091C9
:1016A000F2027091F302292F3327420F531F611D5D
:1016B000711D4093F0025093F1026093F202709317
:1016C000F3028093240278940E940902F201708B45
:1016D0006787DF91CF911F910F91FF90EF90DF907F
:1016E000CF90BF90AF909F908F907F905F904F90E2
:1016F000089581E090E00895219A08956F927F9275
:101700008F92CF92DF92EF92FF920F931F93CF931E
:10171000DF93CDB7DEB762970FB6F894DEBF0FBE8A
:10172000CDBF6C017A013801822EDC011C962C9110
:10173000CA0157FF04C088279927841B950B7A8319
:1017400069839C838B839E838D836D867E868F8643
:10175000213049F5CE0101960E94DB0883E0888B99
:101760001A8A198AF7FE02C08DEF888BD601ED9197
:10177000FC910684F785E02DBE016F5F7F4FC601A7
:10178000099562960FB6F894DEBF0FBECDBFDF910C
:10179000CF911F910F91FF90EF90DF90CF908F909E
:1017A0007F906F9008951C861B861A86198618866E
:1017B0001F82D4CFEF92FF920F931F93CF93DF93AB
:1017C000CDB7DEB762970FB6F894DEBF0FBECDBFC0
:1017D0007C01DC011C968C917A8369835C834B834A
:1017E0005E834D830D871E872F878130F9F4CE01EC
:1017F00001960E94DB08188A1A8A198AD701ED918E
:10180000FC910684F785E02DBE016F5F7F4FC70115
:10181000099562960FB6F894DEBF0FBECDBFDF917B
:10182000CF911F910F91FF90EF9008951C861B861A
:101830001A86198618861F82DECF8091210288239E
:1018400049F08AE00E94A4021092290710922A0708
:10185000109221020895CF92DF92EF92FF92CF93E0
:1018600020912102211110C06C01809100018A3069
:10187000A1F08F3F09F45AC04CE251E060E070E003
:1018800081E297E00E949A0681E080932102CF9145
:10189000FF90EF90DF90CF900895E8E6F0E0C491DC
:1018A000C7FDEACF61E08AE00E94CD01CC2319F0A8
:1018B000C23009F0D9C0F12CE12C68E478EE81E067
:1018C00090E0A70196010E94BD22BA01A9014150F2
:1018D000510961097109CC2309F406C1C23009F02C
:1018E00094C04F3F51056105710509F00CF4BAC071
:1018F00064E274EF80E090E0A70196010E94BD22AF
:10190000BA01A901415051096109710995E080911D
:10191000B100887F892B8093B100C13009F4BCC02D
:10192000C23009F4CEC0C111A7CF8AC08AE080932B
:101930000001E8E6F0E0C491CF3F09F49DCFC1304B
:1019400021F150F0C23009F43EC0C7FD95CF61E0EF
:101950008AE00E94CD01ACCF14BC15BC84B5826076
:1019600084BD85B5816085BDE1E9F0E0E491F0E0FA
:10197000EE0FFF1FED58FF4F85919491E5EAF0E0DF
:10198000E491E0931802C0E08DCF10928000109295
:101990008100809181008860809381008091810026
:1019A000816080938100E1E9F0E0E491F0E0EE0FE6
:1019B000FF1FED58FF4F85919491E5EAF0E0E49127
:1019C000E09317026FCF1092B0001092B100809197
:1019D000B00082608093B0008091B10081608093FC
:1019E000B100E1E9F0E0E491F0E0EE0FFF1FED5807
:1019F000FF4F8591949190938B0280938A02E5EA40
:101A0000F0E0E491E0938C024DCF4F3F510561052A
:101A1000710541F13CF162E17AE780E090E0A701D5
:101A200096010E94BD22BA01A901415051096109E4
:101A30007109C11162C094E085B5887F892B85BD8D
:101A400047BD8FEF9FEFDC0180931D0290931E0234
:101A5000A0931F02B093200280916E008260809359
:101A60006E000ACF94E053CF960150E040E060E072
:101A700072E18AE790E00E94BD22BA01A9014150BB
:101A8000510961097109C13009F047CF8091810086
:101A9000887F816080938100509389004093880003
:101AA0008FEF9FEFDC018093190290931A02A093AD
:101AB0001B02B0931C0280916F00826080936F00C4
:101AC000DBCE4093B3008FEF9FEFDC0180938D025C
:101AD00090938E02A0938F02B09390028091700039
:101AE000826080937000C8CE93E04F3F510561053E
:101AF000710511F00CF08FCF9FCF96E008CF90E0EA
:101B000080E00895FC018585968508950F931F93C5
:101B1000CF93DF9300D01F92CDB7DEB7AB01198210
:101B20001A821B82DC01ED91FC910190F081E02D85
:101B300000E010E020E0BE016F5F7F4F09950F903D
:101B40000F900F90DF91CF911F910F9108950F93F8
:101B50001F93CF93DF938C018091080791E09093BE
:101B6000340380935603109235031092570360E0BC
:101B70008BEF93E00E948105E801005F1F4F6991A0
:101B80008BEF93E00E9481050C171D07C1F7DF91D1
:101B9000CF911F910F910C9443042091B202222304
:101BA00009F446C09C014C9714F02BE130E037FF5C
:101BB00002C030E020E0225E3E4FF90180816623C2
:101BC000E9F087FD35C0E82FE695E695E695F0E06B
:101BD000EE50F94F282F277081E090E0A0E0B0E0B0
:101BE00004C0880F991FAA1FBB1F2A95D2F7208116
:101BF000822B808382EF96E00C94A70D87FD18C09E
:101C0000E82FE695E695E695F0E0EE50F94F282F9F
:101C1000277081E090E0A0E0B0E004C0880F991F39
:101C2000AA1FBB1F2A95D2F7809590818923E1CF07
:101C300008958091F802811110C061E08BE00E944C
:101C4000CD0161E08BE00E949F0144EF51E060E034
:101C500070E087E197E00E949A0681E08093F802A5
:101C600008958091F802882371F061E08BE00E9472
:101C7000CD0160E08BE00E949F0110921F0710923F
:101C800020071092F8020895E2EFF6E080E1DF010C
:101C90001D928A95E9F7CF010C94A70D8091B202AD
:101CA00081110E94440E1092CC021092CB0282E06D
:101CB00090E09093EC028093EB0208950E944E0E08
:101CC0001092CC021092CB021092CA02E8EEF6E01B
:101CD000108611861092EC021092EB0208958EEF9E
:101CE000E9E4F4E0DF01982F1D929A95E9F7E7E423
:101CF000F5E0DF011D928A95E9F710924B061092EC
:101D00005A0610925B0610925C0610925D060895CA
:101D10008091640690916506DC01ED91FC91008450
:101D2000F185E02D0995892B61F0809164069091F1
:101D30006506DC01ED91FC910284F385E02D0995A7
:101D4000E7CF0E946F0E80914C0680936306089542
:101D5000FB0101900020E9F73197AF01461B570BBB
:101D6000DC01ED91FC910280F381E02D09948F92CA
:101D70009F92AF92BF92EF92FF920F931F93CF93D8
:101D8000DF93CDB7DEB7A1970FB6F894DEBF0FBED5
:101D9000CDBF7C01FA01CB0119A2223008F42AE060
:101DA0008E010F5D1F4F822E912CB12CA12CBF01F3
:101DB000A50194010E946E21F901CA016A300CF557
:101DC000605DD8016E938D01232B242B252B79F791
:101DD00090E080E0109721F0BD01C7010E94A80E9D
:101DE000A1960FB6F894DEBF0FBECDBFDF91CF91A5
:101DF0001F910F91FF90EF90BF90AF909F908F90A9
:101E00000895695CDECF0F931F93CF93DF93EC01AE
:101E10000E94A80E8C0167E971E0CE010E94A80E15
:101E2000800F911FDF91CF911F910F910895CF9255
:101E3000DF92EF92FF920F931F93CF93DF93EC010A
:101E40007B0180915A0690915B06A0915C06B0914F
:101E50005D06892B8A2B8B2B41F4D7018C91811144
:101E60003EC010924B0681E063C00E946002009168
:101E70005A0610915B0620915C0630915D06601B4E
:101E8000710B820B930B00915E0610915F062091FF
:101E90006006309161066017710782079307E8F2C8
:101EA00080915406882341F06AE971E080915206DE
:101EB000909153060E94030F10924B0610924E060B
:101EC00010924D068DEF80934C0610925A06109298
:101ED0005B0610925C0610925D0680E0E4C0E09123
:101EE0004D06F0914E06E730F10508F01EC1E558A9
:101EF000F04F0C94DC22820F9B0FA50FAB0FCB0F82
:101F0000DF0F131088818E3781F481E090E0909389
:101F10004E0680934D060E94600260935A067093AD
:101F20005B0680935C0690935D0610924B0683E0FF
:101F300080934C06D2CF88818093570682E090E050
:101F400090934E0680934D06F0CF8881809359067A
:101F500083E090E0F5CF88819FEF980F9E3F38F4A3
:101F6000809355061092560684E090E0E9CF1092D7
:101F70004B0610924E0610924D068FEF80934C0642
:101F8000809154066EEA71E0811146C00E946F0E86
:101F900080914B0688C0809156069091550689170E
:101FA00020F62881E82FF0E0E95BFA4F20838F5F6D
:101FB000809356069813B9CF85E090E0C1CF409149
:101FC00055066091F9037091FA03A7E4B5E030E09B
:101FD00020E080E050E02417350748F4ED91E82731
:101FE000E60FF72FF11D80812F5F3F4FF4CF9881CF
:101FF000981303C086E090E0A3CF10924B06109296
:102000004E0610924D0610924C068091540663ECD9
:1020100071E0882309F4BACF80915206909153065B
:102020000E94030FB3CF10924E0610924D06888186
:10203000813809F06DC0809159068F3F69F02EE715
:10204000E82FF0E0E95BFA4F9081992319F02083A3
:10205000890FF6CF8EE780838091550680934B06DB
:1020600082E080934C0620914F0630915006211556
:10207000310579F080915706909151068917E0F467
:1020800090E0880F991F820F931FDC01ED91FC9166
:10209000099510925A0610925B0610925C061092F7
:1020A0005D0680915506DF91CF911F910F91FF90B2
:1020B000EF90DF90CF90089580915406882349F3E4
:1020C000E0905206F0905306C3ECD0E0FE0164911C
:1020D000662359F0D701ED91FC910190F081E02D3C
:1020E000C70109952196892B89F7C0915206D09195
:1020F00053064091570650E070E060E02AE0CE01C0
:102100000E94B70E67E971E0CE010E94A80EC1CF10
:1021100010924B068EEF80934C06809154068823D4
:1021200009F434CF64ED71E077CF809154068823B1
:1021300089F16BEE71E080915206909153060E94F6
:10214000A80EC0915206D0915306C0904D06D09073
:102150004E060D2C000CEE08FF082AE0B701A60180
:10216000F7FE10C0E881F9810190F081E02D6DE269
:10217000CE01099544275527BA014C195D096E090E
:102180007F092AE0CE010E94B70E67E971E0CE0117
:102190000E94A80E0E946F0E10924E0610924D06DD
:1021A000C4CE1F93CF93DF9300D0CDB7DEB71A8292
:1021B0008FEF89838091640690916506DC01ED9133
:1021C000FC910084F185E02D0995892BE1F181E0F6
:1021D0008A838091640690916506DC01ED91FC9103
:1021E0000084F185E02D0995892BF1F0809164063A
:1021F00090916506DC01ED91FC910284F385E02D60
:1022000009958983BE016E5F7F4FCE0101960E94C2
:10221000170F8093620680914C068093630683308B
:10222000C1F287FD0E94880E80916206882349F0E2
:1022300080915706882329F0813099F0823009F483
:1022400065C210E005C1BE016E5F7F4FCE010196F1
:102250000E94170F8093620680914C06809363065C
:10226000E0CF9091470590931202E0914805E093EA
:102270001302809149058093140280914A0580934E
:10228000150280914B0580931602EE23D1F2913016
:10229000C1F68739B1F68091140290911502E2508F
:1022A000EC3878F6F0E0E95AFE4E0C94DC22371256
:1022B000E311E9112111F211F8112A134213AA12A4
:1022C000AF12B612B912BC12BF122111C2120913F9
:1022D0001113141320132111791359132111C5124D
:1022E000CA12D112D412D712211121112111211198
:1022F000211121112111211121112111211121114E
:10230000211121112111211121112111211121113D
:10231000211121112111211121112111211121112D
:10232000211121112111211121112111211121111D
:10233000211121112111211121112111211121110D
:1023400021112111211121112111211121112111FD
:1023500021112111211121112111211121112111ED
:1023600021112111211121112111211121112111DD
:1023700021112111211121112111211121112111CD
:102380002111211121112111A01296128C127E12FD
:10239000DA12F512F211F81121112111F0112111A7
:1023A000211121115F136D134A125612641270121B
:1023B00021112F12211109120912191221122111B2
:1023C000F011F011F01181E08093060180930B026F
:1023D00038CF1092070110920B0284E00E94C500D2
:1023E00011E036C081E08093ED0284E090E00CC003
:1023F0001092ED028091EB029091EC02892B11F08A
:102400000E94A02081E090E09093E8028093E70290
:10241000E7CF009709F415CF2091090230910A0205
:102420008217930709F40DCF90930A028093090253
:10243000D7CF80910802811104CF81E080930802F8
:10244000CFCF10910802112309F4FBCE109208029D
:10245000812F0F900F90DF91CF911F9108950097DA
:1024600009F4EFCE9093070280930602EACE109112
:102470000B0280910701882349F01111E2CE81E01F
:1024800080930B0283E00E94C500E2CF1111D9CEE8
:1024900082E0F9CF8091B7029091B802892B09F4BC
:1024A000D0CE1092B8021092B7029ACF8091B702A4
:1024B0009091B802019709F4C4CE81E090E0909326
:1024C000B8028093B7028CCF8091B5029091B6028A
:1024D000892B09F4B6CE1092B6021092B50280CFC5
:1024E0008091B5029091B602019709F4AACE81E0DD
:1024F00090E09093B6028093B50272CF8091B302C0
:102500009091B402029709F49CCE82E090E09093FF
:10251000B4028093B30264CF8091B3029091B4026D
:10252000039709F48ECE83E090E0F1CF8091B3025F
:102530009091B402049709F484CE84E090E0E7CF50
:102540008091B3029091B402059709F47ACE85E0A8
:1025500090E0DDCF1092C4021092C30241CF81E01F
:1025600090E09093C4028093C3023ACF82E090E05F
:10257000F8CF83E090E0F5CF84E090E0F2CF85E003
:1025800090E0EFCF87E090E0ECCF1092CE02109277
:10259000CD0226CF81E090E09093CE028093CD02D1
:1025A0001FCF82E090E0F8CF83E090E0F5CF84E0A9
:1025B00090E0F2CF1092E50281E08093E9020E9460
:1025C000A02081E090E09093E8028093E7021091D0
:1025D000ED02112309F404CF40E253E060E070E023
:1025E0008DE097E00E949A0633CF1092E902109195
:1025F000ED02112309F4F4CE10921507109216077C
:102600000E944E0E84E090E09093E8028093E702EF
:102610001FCF81E0809306018093EA020E944E0E54
:10262000E4CE1092EA02DCCE81E08093EA0240E23E
:1026300053E060E070E08DE097E00E949A06E0CE03
:102640001092EA02109215071092160781E080930B
:102650000601E4CF81E08093E5028093ED02609172
:10266000060170E080E293E00E949522AB0170E0E9
:1026700060E08DE097E00E949A060E944E0E82E094
:1026800090E0C2CE1092E502109215071092160744
:102690008091EA02811103C081E0809306011091CC
:1026A000E902112309F4BACF0E94A02081E090E052
:1026B000ABCF809106018F5F8093060191CE809110
:1026C000040290910502019709F4BBCD81E090E0EE
:1026D000909305028093040283CE8091040290912E
:1026E0000502892B09F4ADCD109205021092040267
:1026F00077CE81E0809306011091E502112309F461
:102700008DCF0E944E0E82E090E07ECF4091470533
:1027100040930C022091480520930D0290914905A9
:1027200090930E0280914A0580930F0230914B05E1
:102730003093100230914C0530931102222309F49A
:1027400080CD413009F07DCD373909F07ACD203187
:1027500061F02A3709F075CD91119093FE0288231C
:1027600009F46FCD80930B016CCD26E030E03093FF
:10277000C4022093C30291119093FE02882309F4AE
:102780002FCE80930B012CCE0E94CB2485ED80931D
:10279000BC008091300390913103A0913203B0913D
:1027A00033030796A11DB11D23E0B695A795979514
:1027B00087952A95D1F72091BC0024FD03C0109283
:1027C0002E030895409130035091310360913203FC
:1027D00070913303452B462B472B69F30097A105D6
:1027E000B10541F02AE22A95F1F700C00197A1094D
:1027F000B109E1CF80912F030C9422041F920F9214
:102800000FB60F9211242F933F938F939F93AF9303
:10281000BF938091F0029091F102A091F202B091E9
:10282000F3023091EF0223E0230F2D3758F5019684
:10283000A11DB11D2093EF028093F0029093F1024D
:10284000A093F202B093F3028091F4029091F5020A
:10285000A091F602B091F7020196A11DB11D8093DF
:10286000F4029093F502A093F602B093F702BF91A1
:10287000AF919F918F913F912F910F900FBE0F902D
:102880001F90189526E8230F0296A11DB11DD2CFE7
:102890001F920F920FB60F9211242F933F934F93D5
:1028A0005F936F937F938F939F93AF93BF93EF93B8
:1028B000FF93E0910301F09104010995FF91EF91DD
:1028C000BF91AF919F918F917F916F915F914F9148
:1028D0003F912F910F900FBE0F901F9018951F9250
:1028E0000F920FB60F9211242F933F934F935F9344
:1028F0006F937F938F939F93AF93BF93EF93FF93C8
:10290000E0910101F09102010995FF91EF91BF91D2
:10291000AF919F918F917F916F915F914F913F9177
:102920002F910F900FBE0F901F9018951F920F922E
:102930000FB60F9211242F933F934F935F936F9392
:102940007F938F939F93AF93BF93EF93FF93809168
:102950008D0290918E02A0918F02B0919002892BEE
:102960008A2B8B2BD1F190918C02E0918A02F0910D
:102970008B0280818927808380918D0290918E02C5
:10298000A0918F02B0919002181619061A061B0624
:102990009CF480918D0290918E02A0918F02B09153
:1029A00090020197A109B10980938D0290938E0244
:1029B000A0938F02B0939002FF91EF91BF91AF91DE
:1029C0009F918F917F916F915F914F913F912F9147
:1029D0000F900FBE0F901F901895809100010E94DC
:1029E000A402EACF1F920F920FB60F9211242F93D9
:1029F0003F934F935F936F937F938F939F93AF9387
:102A0000BF93EF93FF9388E593E00E944E03FF91FD
:102A1000EF91BF91AF919F918F917F916F915F9156
:102A20004F913F912F910F900FBE0F901F901895CF
:102A30001F920F920FB60F9211242F938F939F9393
:102A4000EF93FF93E0916803F09169038081E09137
:102A50006E03F0916F0382FD1BC090818091710322
:102A60008F5F8F7320917203821741F0E0917103A1
:102A7000F0E0E85AFC4F958F80937103FF91EF913E
:102A80009F918F912F910F900FBE0F901F901895CF
:102A90008081F4CF1F920F920FB60F9211242F93C3
:102AA0003F934F935F936F937F938F939F93AF93D6
:102AB000BF93EF93FF938091B900887F803609F42C
:102AC0004AC0F0F5883209F4A7C018F5803109F43E
:102AD0009BC0B8F4882309F4F9C0883009F494C085
:102AE000FF91EF91BF91AF919F918F917F916F91E6
:102AF0005F914F913F912F910F900FBE0F901F90BC
:102B00001895883109F488C0803251F780932C03DE
:102B100014C0803409F49DC040F48033B9F3883385
:102B2000F9F680932C0385ECB0C0803509F485C09C
:102B3000883509F496C0883499F60E94C613D0CF20
:102B4000883909F48CC038F5883729F050F4883674
:102B500011F0803729F683E080932E0310928902CA
:102B600057C0883809F47BC0803919F0803809F0E3
:102B7000B7CF80918902803208F071C0E09189025C
:102B800081E08E0F809389028091BB00F0E0E759CD
:102B9000FD4F80833DC0803B39F0E0F4803A09F47A
:102BA00079C0883A09F09CCF84E080932E0310927C
:102BB000680210926702E091AE02F091AF020995AF
:102BC0008091670281110FC081E0809367021092AB
:102BD000470209C0803C09F4A6CF883C09F4A3CF82
:102BE000883B09F07DCFE091680281E08E0F8093F1
:102BF0006802F0E0E95BFD4F80818093BB0090911B
:102C000068028091670229C0809109038093BB000C
:102C100085EC8093BC0064CF90912B0380912A03B4
:102C2000981758F5E0912B0381E08E0F80932B03CA
:102C3000F0E0E65FFC4F8081E9CFE0912B0381E07B
:102C40008E0F80932B038091BB00F0E0E65FFC4F7A
:102C5000808390912B0380912A039817C8F285E80E
:102C6000D8CFE0912B0381E08E0F80932B038091CE
:102C7000BB00F0E0E65FFC4F808380912D03811163
:102C80005CCF81E08093080384EA8093BC001092BB
:102C90002E0326CF85EC8093BC0010922E038091EA
:102CA0008902803230F4E0918902F0E0E759FD4F6B
:102CB00010826091890270E0E091AC02F091AD0267
:102CC00089E692E00995109289020ACF10922C03AE
:102CD00034CFCF93DF93EC01862F688379831A82F8
:102CE0001B821C821D821E821F82188619861B86EB
:102CF0001A8662E00E94CD0188810E9476019D873C
:102D00008C879F878E87998B888B1A8A1B8A1C8A4F
:102D10001D8ADF91CF910895FC01108614821582DF
:102D200016821782118610821182128213820895F0
:102D3000CF93DF93EC01198218821B821A821D82C5
:102D40001C8261E070E090E080E00E940E24009719
:102D5000A1F0998388831B821A822C813D81232BC9
:102D600011F4FC0110821D821C8269E971E08881E6
:102D70009981DF91CF910C94D92488819981009712
:102D800011F00E948523198218821D821C821B82E9
:102D90001A82DF91CF910895CF92DF92EF92FF9246
:102DA00010925B0310925A0388EE93E0A0E0B0E02B
:102DB00080935C0390935D03A0935E03B0935F03E5
:102DC0008BE691E0909359038093580385EC90E053
:102DD000909365038093640384EC90E09093670381
:102DE0008093660380EC90E090936903809368037E
:102DF00081EC90E090936B0380936A0382EC90E007
:102E000090936D0380936C0386EC90E090936F0336
:102E100080936E03109271031092720310927303E9
:102E2000109274038BE98093F50388E08093F80394
:102E300080E091E09093F7038093F6030E94E922EB
:102E40009093FA038093F90330E020E08091F60339
:102E50009091F70328173907E0F4C9016091F50351
:102E600070E048E050E0FC01E078FF27880F991FF0
:102E7000EF2B11F08627972741505109A1F7E091D8
:102E8000F903F091FA03E20FF31F80832F5F3F4FA6
:102E9000DDCF1092FE031092FD0388EE93E0A0E0D8
:102EA000B0E08093FF0390930004A0930104B093DB
:102EB00002048DE791E09093FC038093FB038FEF76
:102EC00080930704109209041092080410921304CE
:102ED000109212048FEF9FEFDC0180930E04909309
:102EE0000F04A0931004B093110488E8C82E83E166
:102EF000D82EE12CF12CC0923704D0923804E09205
:102F00003904F0923A048BE394E00E948C161092FC
:102F100016041092150410921404109217041092C3
:102F200018041092190410921A0410921B041092A3
:102F30001C0410921D0410921E0410921F04109283
:102F40002004109221041092220410922304109263
:102F50002404109225041092260410922704109243
:102F600028041092290410922A0410922B04109223
:102F70002C0410922D0410922E0410922F04109203
:102F800030041092310410923204109233041092E3
:102F900034041092350410923604C0923704D09253
:102FA0003804E0923904F0923A0448E853E160E0D2
:102FB00070E08BE394E00E949A0681E0809316040F
:102FC00010924804109247048FE891E090934604D1
:102FD0008093450485E497E00E9498168FE397E07C
:102FE0000E94981685E397E00E948C168BE297E08A
:102FF0000E948C1681E297E00E948C1687E197E090
:103000000E948C168DE097E00E948C1688EE96E068
:103010000E948C1665E070E082ED96E00E946916D1
:1030200066E070E08CEB96E00E94691664E070E068
:1030300086EA96E00E9469168CE996E00E948C165A
:1030400082E996E00E948C1688E896E00E948C1631
:103050008AE696E00E948C1684E796E00E948C1621
:103060008EE796E00E948C168EE7809345061092BC
:10307000460610924706109248061092490681E8CB
:1030800080934A0610924B0610924C0610924E0600
:1030900010924D061092500610924F061092510653
:1030A000109254061092550610925606109257062A
:1030B000109258061092590610925A0610925B060A
:1030C00010925C0610925D061092620610926306E2
:1030D000FF90EF90DF90CF900895CF93DF9300D0D3
:1030E00000D000D0CDB7DEB7789484B5826084BDBF
:1030F00084B5816084BD85B5826085BD85B58160FC
:1031000085BD80916E00816080936E001092810079
:103110008091810082608093810080918100816034
:1031200080938100809180008160809380008091F5
:10313000B10084608093B1008091B0008160809381
:10314000B00080917A00846080937A0080917A0048
:10315000826080937A0080917A00816080937A0007
:1031600080917A00806880937A001092C10028E5EF
:1031700033E0E0916803F091690382E08083E0919D
:103180006403F09165031082E0916603F091670398
:103190008FEC808310927003E0916C03F0916D03CB
:1031A00086E08083E0916A03F0916B038081806107
:1031B0008083E0916A03F0916B0380818860808353
:1031C000E0916A03F0916B03808180688083E091D5
:1031D0006A03F0916B0380818F7D80833093650655
:1031E0002093640682E390E0A0E0B0E0809366065E
:1031F00090936706A0936806B093690630935306D0
:103200002093520621E02093540680935E0690930B
:103210005F06A0936006B09361061092B802109208
:10322000B70281E090E09093B6028093B50284E00B
:1032300090E09093B4028093B3021092C402109273
:10324000C3021092C6021092C502209107012111FB
:1032500061C19093CE028093CD021092C902109268
:10326000C8028091A402811145C01092960210926A
:1032700095028FEF8093990280939A0280939B022C
:1032800080939C0280939D0280939E0281E08093B4
:103290009F021092A1021092A00210929802109226
:1032A00097028091D5029091D602892B31F483E95F
:1032B00092E09093D6028093D502E0919102F09132
:1032C0009202309721F083E992E09583848383E929
:1032D00092E090939202809391021092A302109236
:1032E000A20280E591E0909394028093930281E0A2
:1032F0008093A402219A8BED92E0909396028093A2
:10330000950283E090E09093A1028093A0028091C7
:103310000A0490910B04A0910C04B0910D04843C1C
:1033200029E09207A105B10520F484EC99E0A0E022
:10333000B0E080930A0490930B04A0930C04B09324
:103340000D044FEF60E080E00E94AD066093DB0269
:103350007093DC028093DD024FEF60E081E00E9419
:10336000AD066093DE027093DF028093E0024FEFC0
:1033700060E082E00E94AD066093E1027093E20299
:103380008093E30282E390E0A0E0B0E08093D40673
:103390009093D506A093D606B093D7068093BE0629
:1033A0009093BF06A093C006B093C1068093A80671
:1033B0009093A906A093AA06B093AB0662E082E0C0
:1033C0000E94CD0162E083E00E94CD018CE692E094
:1033D0009093020180930101809169008C7F81604C
:1033E00080936900E89A6AE070E080E090E00E94D3
:1033F0002E021092B1021092B0020E9404048EE9D3
:1034000092E09093AF028093AE028FE992E09093A6
:10341000AD028093AC02F12CE12C11E001E00093AD
:1034200034031093560310923503109257030E94F1
:103430004304811103C03FEFE31AF30A1F5F1F37F4
:1034400071F7EF2809F46BC081E08093B20280919C
:10345000B2028823B9F080E7809308071092350301
:10346000109257030E94040481E20E94B00581E893
:103470000E94B00580EA0E94B0058FEE0E94B00560
:103480000E94440E0E945E0E61E08AE00E94CD011F
:1034900061E08BE00E94CD018AE00E94A4020E94BC
:1034A000310E64E670E080E090E00E942E0240E081
:1034B00050E0BA0185E397E00E949A060BE1802E66
:1034C000912CB2E02B2E312C13E0A12EB12C1092B6
:1034D000080111E01093090182E080930A018091B4
:1034E00007018823F9F00E94D110809107018823F9
:1034F00031F06AE070E080E090E00E942E0280E00F
:1035000090E0892B21F30E943A03882301F30E9463
:103510000000D7CF1092CE021092CD029ECE109214
:10352000B20295CF0E94D11082ED96E00E94C205B2
:103530008CEB96E00E94C20586EA96E00E94C205E6
:103540001092BD021092BC028091B2069091B30617
:103550000197E1F48091B4069091B506892BB1F4FE
:103560004CE251E060E070E082E996E00E949A0649
:1035700048E552E060E070E088E896E00E949A0634
:103580001093BB028091E6028093BA028091BB0245
:103590008823E1F18091B2069091B306892BF9F06E
:1035A00082E996E00E942406672B682B692B09F4B8
:1035B000EBC088E896E00E942406672B682B692BF5
:1035C00029F59091BA028091E602981709F4F4C0A7
:1035D0008091EE0291E089278093EE0217C08091DE
:1035E000B4069091B5060197D9F68091B902882367
:1035F00009F4BBC03092BD022092BC021092BB0203
:103600001092B90210929A0610929B068091EE02D7
:10361000811118C08091BC029091BD028230910549
:1036200009F4DBC08330910509F4E4C0019751F43B
:103630008091C8029091C902009709F4C6C0019711
:1036400009F4C9C08091EE02811172C02091C102BB
:103650003091C2028091BF029091C00282179307FD
:103660002CF58091A406811121C08091E502882368
:1036700009F4DFC080910601833008F4DAC080913C
:10368000BE028F5F8093BE0265E00E948922911185
:1036900005C086E10E94C5001092BE0244E650E0DB
:1036A00060E070E08CE996E00E949A062091C102E9
:1036B0003091C2028091BF029091C0022817390751
:1036C0002CF58091A406811121C08091E502882308
:1036D00009F4BEC080910601833008F4B9C080911E
:1036E000BE028F5F8093BE0265E00E948922911125
:1036F00005C086E10E94C5001092BE0244E650E07B
:1037000060E070E08CE996E00E949A068091C10228
:103710009091C2029093C0028093BF028CE996E020
:103720000E946A06882321F01092A4061092A50632
:103730008091DE069091DF068130910509F097C0F7
:103740008091E0069091E106892B09F099C0809163
:10375000E0069091E106892B09F0DFC187E70E941E
:10376000C50081E08093ED028BC082E996E00E9463
:103770002406672B682B692B09F412CF8091B902BC
:103780008F5F8093B90242CF8091B902813009F0F6
:1037900010CF81E090E09093BD028093BC02109224
:1037A000BB021092B90210929A0610929B061092D8
:1037B0009006109291062ACFB092BD02A092BC0250
:1037C0001092BB021092B90221CF8BE70E94C50074
:1037D0000E94190E37CF82E4F9CF8091C8029091F0
:1037E000C902009729F0019709F02CCF83E4EECFAE
:1037F0008CE7ECCF8091C8029091C902009761F0EC
:10380000019709F01FCF1092C9021092C8020E94BE
:10381000190E88EB91E00AC081E090E09093C90214
:103820008093C8020E94190E80E193E00E942B0C45
:1038300009CF8091C8029091C902009729F00197A1
:1038400009F02CCF8CE301C085E40E94C50026CF8F
:103850008091C8029091C902009729F0019709F060
:103860004DCF8DE301C084E40E94C50047CF892B72
:1038700039F48091E0069091E106019709F467CF51
:103880008091ED02882309F44EC18091EB02909162
:10389000EC02892BF1F48091EA0281111AC0809127
:1038A000E902811116C01092CC021092CB02109244
:1038B000CA0281E090E09093EC028093EB021092B8
:1038C000F0061092F10684E090E09093E802809375
:1038D000E70270900901072D10E08091CA069091CF
:1038E000CB067801EE0CFF1C892B09F036C181E074
:1038F0008093E6025090E502552021F08091060168
:10390000833048F48091EA02811105C08091E90278
:10391000882309F41FC160900601662D70E080E2E3
:1039200093E00E9495226B018DE097E00E946A0669
:10393000882339F0A60170E060E08DE097E00E94F6
:103940009A0680911507882319F1552059F092E0C5
:10395000961540F48091EA02811104C0B092E80209
:10396000A092E7028DE097E00E942406D694C794C7
:10397000960150E040E0621773078407950708F04E
:10398000E0C081E08093E4020E94310E0E941D0C91
:103990008091C8029091C902009709F425C101974E
:1039A00009F437C1D090E602DD2009F470C180919E
:1039B000E902811105C08091EA02882309F459C106
:1039C0000E0D1F1D05521D4F4FEF6EE0872D0E94FB
:1039D000AD06F8016083718382838091C302909168
:1039E000C402019763E08730910520F4805A9E4F0E
:1039F000FC01608180910A01082F10E09801220FDC
:103A0000331FDD2029F09091E402992309F45CC171
:103A1000F901E00FF11FE552FD4F9081911106C0B1
:103A20009181911103C09281992361F0020F131FBC
:103A300005521D4F4FEF60E00E94AD06D8016D9317
:103A40007D938C9381E297E00E946A06882309F4B3
:103A500047C10E941D0C87E197E00E946A068823F7
:103A600009F448C10E94310EF0900601F11002C025
:103A7000FF24F3940091EB021091EC028091E70295
:103A80009091E80204970397A8F48091CD02023048
:103A9000110509F039C126E030E03093E8022093A7
:103AA000E70291E0980F892F880F880F890F8D5FAB
:103AB000809305010115110509F437C1D090050166
:103AC00088EE96E00E942406672B682B692B09F08C
:103AD0002CC16F2D70E08CE090E00E94A922623032
:103AE000710514F462E070E06D194CE1742E760EED
:103AF000E090E702F090E802B7E0EB16F10408F07E
:103B000014C1F701EA57F24E0C94DC224C1F981FA7
:103B1000CD1FCD1F8F1EAD1F701F88E70E94C500EF
:103B20001092ED02ADCE8091E0069091E1060197F2
:103B300009F0CFCE809107018111CBCE0E945E0E9D
:103B4000C8CE1092E4020E94190E8BE092E00E940F
:103B50002B0C1ECF1092E4021BCF1092E6021092A3
:103B6000E402F701E00FF11FE552FD4F8081811162
:103B700006C08181811103C08281882381F0C70141
:103B8000800F911FDC01A552BD4F6D014FEF60E02A
:103B9000872D0E94AD06F601608371838283809138
:103BA0000A01282F30E06901CC0CDD1CF601E20F80
:103BB000F31FE552FD4F9081911107C09181911142
:103BC00004C09281992309F4E3CEC20ED31E96015C
:103BD00025523D4F69014FEF60E00E94AD06D601CE
:103BE0006D937D938C93D4CE10923307109234074B
:103BF0001092C70280910801282F30E06901CC0C97
:103C0000DD1CC20ED31EF601E552FD4F6F0140E8E8
:103C100028C08BE297E00E942406672B682B692B53
:103C200071F4D090C70240E253E060E070E08BE2B4
:103C300097E00E949A0681E0D826D092C702809130
:103C40000801282F30E09091C7026901CC0CDD1CDF
:103C5000C20ED31EF601E552FD4F6F014CE09923D1
:103C6000B1F260E00E94AD06D6016D937D938C9316
:103C700099CE8091C5029091C6020E0D1F1D05526E
:103C80001D4F4FEF6DE00197B9F06CE09FCEF7014B
:103C9000E00FF11FE552FD4F8081811107C0818146
:103CA000811104C08281882309F497CE0E0D1F1D57
:103CB00005521D4F4FEF60E0872D0E94AD06D801E1
:103CC0006D937D938C9389CE020F131F05521D4F68
:103CD0004FEF0E94AD06F801608371838283B2CEFC
:103CE00081E297E00E942406672B682B692B09F478
:103CF000B0CEB1CE87E197E00E942406672B682BF7
:103D0000692B09F4AFCEB0CE0430110509F0C9CE4D
:103D1000A5E0B0E0B093E802A093E702C2CEE6E0EF
:103D2000F0E0F093E802E093E70285E397E00E9479
:103D30006A06882309F4E3CBD090070480910A0433
:103D400090910B04A0910C04B0910D04892B8A2B47
:103D50008B2BD9F00E9409020091D7021091D80252
:103D60002091D9023091DA02601B710B820B930B08
:103D700000910A0410910B0420910C0430910D0461
:103D80006017710782079307C8F20E9409026093C7
:103D9000D7027093D8028093D9029093DA02E0910F
:103DA0001204F0911304309759F040910E04509191
:103DB0000F0460911004709111048D2D0995D82E77
:103DC000E090D502F090D6024D2C512C712C612C34
:103DD000E114F10409F468C1D7011C96BC91BC83BD
:103DE00080910804909109048436910510F4F7013C
:103DF0001486D701ED91FC91228133813E832D837E
:103E000019821A821B82DD2091F187010A5F1F4F00
:103E1000F0E0E0E0D8012D918D01222321F11296EE
:103E2000CC90CC2001F130E050E040E02F5F3F4FDC
:103E30004F4F5F4FC301B2010E945E219B01AC0155
:103E40008C2D90E0B0E0A0E0BC01CD016F5F7F4F12
:103E50008F4F9F4F0E945E21A1E0B0E0AC0FBD1FCD
:103E6000AE0FBF1F8C933196E330F10599F60981AF
:103E70001A812B81F7014585568562817381C701BF
:103E8000ED81FE810995EC81D7011C96EC931C977E
:103E90001496ED90FC909CCF0091CB021091CC0237
:103EA00061E0C8010E94CD0D0F5F1F4F1093CC023F
:103EB0000093CB020D3111052CF01092EC02109200
:103EC000EB0233CF17FF02C00F5F1F4FA8015595BC
:103ED0004795470D511D052E000C660B770B58C0FA
:103EE0000091CB021091CC0261E0C8010E94CD0D7F
:103EF0000F5F1F4F1093CC020093CB02872D90E0F1
:103F0000D01611065CF424E030E03093EC022093EC
:103F1000EB0233E0739EA0011124DDCF17FF02C036
:103F20000F5F1F4FA80155954795480F591FD3CFD5
:103F30000091CB021091CC0260E0C8010E94CD0D2F
:103F4000015011091093CC020093CB02770C770C2F
:103F500017FF1AC00E944E0EB0CF0091CB021091F5
:103F6000CC0260E0C8010E94CD0D015011091093F0
:103F7000CC020093CB0217FF07C00E944E0E83E0D5
:103F8000789EA0011124A7CF472D50E070E060E09B
:103F900088EE96E00E949A06C8CE025011090230BF
:103FA000110548F00E944E0E93E0E916F10499F5D0
:103FB0008DE08093CA026090CA0261102FC03092D7
:103FC000EC022092EB0261E090E080E00E94CD0DD7
:103FD00061E08BE190E00E94CD0DA2E0EA16F104D1
:103FE00089F460E081E090E00E94CD0D60E08AE11C
:103FF00090E00E94CD0D8091EB029091EC0203972E
:1040000009F450C063946092CA024091CA02470DFD
:104010005527551F60CF1092CA02CDCFBDE06B125D
:1040200017C0B092EC02A092EB0261E08DE090E04C
:104030000E94CD0D61E08EE090E00E94CD0D60E029
:104040008CE090E00E94CD0D60E08FE090E0D1CF59
:10405000062D10E061E0C8010E94CD0D61E0C401B1
:10406000801B910B0E94CD0D6801E1E0CE1AD108B2
:1040700060E0C6010E94CD0D60E0C4018C199D096D
:104080000E94CD0DF2E0EF16F10409F0B4CF0F5FFE
:104090001F4F60E0C8010E94CD0D60E0C401801B8D
:1040A000910BA7CF6A94AFCF8091D3029091D402A5
:1040B0008C010F5F1F4F1093D4020093D3024997D6
:1040C000B4F10E946002C090CF02D090D002E09084
:1040D000D102F090D2029B01AC012C193D094E098E
:1040E0005F0921F421E030E040E050E088EE93E009
:1040F000089FB001099F700D189F700D1124072EA5
:10410000000C880B990B0E946E21309309042093B8
:1041100008041092D4021092D3020E9460026093AD
:10412000CF027093D0028093D1029093D20243E0E9
:1041300050E060E070E085E397E00E949A06DFC9F6
:10414000CF93DF938091B202882351F0D0E0C0E09A
:1041500061E0CE010E94CD0D2196CC31D105C1F791
:104160008BE190E09093CC028093CB0284E090E0CE
:104170009093EC028093EB02DF91CF9108958091B0
:104180003F0790914007009711F00E94852380918E
:10419000450790914607009711F00C9485230895E8
:1041A000E89409C097FB3EF49095809570956195D1
:1041B0007F4F8F4F9F4F9923A9F0F92F96E9BB2787
:1041C0009395F695879577956795B795F111F8CF03
:1041D000FAF4BB0F11F460FF1BC06F5F7F4F8F4F6E
:1041E0009F4F16C0882311F096E911C0772321F064
:1041F0009EE8872F762F05C0662371F096E8862FFC
:1042000070E060E02AF09A95660F771F881FDAF752
:10421000880F9695879597F9089597F99F6780E895
:1042200070E060E008959FEF80EC089500240A9408
:104230001616170618060906089500240A94121681
:104240001306140605060895092E0394000C11F4B4
:10425000882352F0BB0F40F4BF2B11F460FF04C061
:104260006F5F7F4F8F4F9F4F089557FD9058440FBA
:10427000551F59F05F3F71F04795880F97FB991FC5
:1042800061F09F3F79F08795089512161306140682
:10429000551FF2CF4695F1DF08C01616170618060F
:1042A000991FF1CF86957105610508940895E894EA
:1042B000BB2766277727CB0197F90895DB018F93FA
:1042C0009F930E949021BF91AF91A29F800D911D5D
:1042D000A39F900DB29F900D11240895A1E21A2E74
:1042E000AA1BBB1BFD010DC0AA1FBB1FEE1FFF1F9A
:1042F000A217B307E407F50720F0A21BB30BE40BEA
:10430000F50B661F771F881F991F1A9469F7609530
:104310007095809590959B01AC01BD01CF010895EA
:104320000E94D221A59F900DB49F900DA49F800D57
:10433000911D112408952F923F924F925F926F9298
:104340007F928F929F92AF92BF92CF92DF92EF9225
:10435000FF920F931F93CF93DF93CDB7DEB7CA1BA6
:10436000DB0B0FB6F894DEBF0FBECDBF09942A88D1
:10437000398848885F846E847D848C849B84AA8479
:10438000B984C884DF80EE80FD800C811B81AA8106
:10439000B981CE0FD11D0FB6F894DEBF0FBECDBFD1
:1043A000ED010895A29FB001B39FC001A39F700DBE
:1043B000811D1124911DB29F700D811D1124911D2D
:1043C00008950E94F5210C9424210E941D2158F08B
:1043D0000E94162140F029F45F3F29F00C940D2132
:1043E00051110C9458210C9413210E94352168F32B
:1043F0009923B1F3552391F3951B550BBB27AA279E
:1044000062177307840738F09F5F5F4F220F331FD7
:10441000441FAA1FA9F335D00E2E3AF0E0E832D09F
:1044200091505040E695001CCAF72BD0FE2F29D0A2
:10443000660F771F881FBB1F261737074807AB0774
:10444000B0E809F0BB0B802DBF01FF2793585F4FE9
:104450003AF09E3F510578F00C940D210C945821B0
:104460005F3FE4F3983ED4F3869577956795B795CB
:10447000F7959F5FC9F7880F911D9695879597F9D6
:104480000895E1E0660F771F881FBB1F621773074F
:104490008407BA0720F0621B730B840BBA0BEE1F64
:1044A00088F7E09508950E945A226894B1110C94FF
:1044B000582108950E943D2188F09F5798F0B92F08
:1044C0009927B751B0F0E1F0660F771F881F991F49
:1044D0001AF0BA95C9F714C0B13091F00E94572173
:1044E000B1E008950C945721672F782F8827B85F83
:1044F00039F0B93FCCF3869577956795B395D9F7A1
:104500003EF490958095709561957F4F8F4F9F4FAA
:104510000895991B79E004C0991F961708F0961B1F
:10452000881F7A95C9F780950895AA1BBB1B51E196
:1045300007C0AA1FBB1FA617B70710F0A61BB70B13
:10454000881F991F5A95A9F780959095BC01CD01B8
:10455000089597FB072E16F4009407D077FD09D035
:104560000E94952207FC05D03EF4909581959F4FBF
:104570000895709561957F4F0895052E97FB1EF461
:1045800000940E94D42257FD07D00E946E2107FCA0
:1045900003D04EF40C94D42250954095309521953B
:1045A0003F4F4F4F5F4F089590958095709561955F
:1045B0007F4F8F4F9F4F0895EE0FFF1F0590F4918F
:1045C000E02D09940E94D221B7FF0895821B930B1E
:1045D00008950F931F93CF93DF938230910510F4CA
:1045E00082E090E0E0914D07F0914E0730E020E04E
:1045F000B0E0A0E0309799F42115310509F44AC0E4
:10460000281B390B24303105D8F58A819B8161152F
:10461000710589F1FB0193838283FE0111C0408102
:1046200051810281138148175907E0F04817590753
:1046300099F4109761F012960C93129713961C93AD
:104640003296CF01DF91CF911F910F910895009382
:104650004D0710934E07F4CF2115310551F0421745
:10466000530738F0A901DB019A01BD01DF01F80110
:10467000C1CFEF01F9CF90934E0780934D07CDCF77
:10468000FE01E20FF31F8193919322503109398388
:104690002883D7CF20914B0730914C07232B41F42F
:1046A00020911A0130911B0130934C0720934B0746
:1046B00020911801309119012115310541F42DB7D0
:1046C0003EB740911C0150911D01241B350BE09118
:1046D0004B07F0914C07E217F307A0F42E1B3F0B9A
:1046E0002817390778F0AC014E5F5F4F2417350764
:1046F00048F04E0F5F1F50934C0740934B07819338
:1047000091939FCFF0E0E0E09CCFCF93DF930097B1
:10471000E9F0FC01329713821282A0914D07B0910B
:104720004E07ED0130E020E01097A1F420813181A7
:10473000820F931F20914B0730914C0728173907A0
:1047400009F061C0F0934C07E0934B07DF91CF91E4
:104750000895EA01CE17DF07E8F54A815B819E01E3
:1047600041155105B1F7E901FB83EA83499159915C
:10477000C40FD51FEC17FD0761F48081918102966B
:10478000840F951FE90199838883828193819B839C
:104790008A83F0E0E0E012968D919C911397009748
:1047A000B9F52D913C911197CD010296820F931F7F
:1047B00020914B0730914C072817390739F630976D
:1047C00051F510924E0710924D07B0934C07A093ED
:1047D0004B07BCCFD383C28340815181840F951F87
:1047E000C817D90761F44E5F5F4F88819981480FE0
:1047F000591F518340838A819B8193838283211532
:10480000310509F0B0CFF0934E07E0934D079ECFEE
:10481000FD01DC01C0CF13821282D7CFB0E0A0E04F
:10482000E4E1F4E20C949D218C01009751F4CB015A
:104830000E94E9228C01C801CDB7DEB7E0E10C94FB
:10484000B921FC01E60FF71F9C0122503109E21744
:10485000F30708F49DC0D901CD91DC911197C617DB
:10486000D70798F0C530D10530F3CE0104978617ED
:10487000970708F3C61BD70B2297C193D1936D936B
:104880007C93CF010E948523D6CF5B01AC1ABD0A71
:104890004C018C0E9D1EA0914D07B0914E07512CDE
:1048A000412CF12CE12C109731F580914B07909120
:1048B0004C078815990509F05CC04616570608F0A4
:1048C00058C08091180190911901009741F48DB75B
:1048D0009EB740911C0150911D01841B950BE81758
:1048E000F90708F055C0F0934C07E0934B07F90126
:1048F00071836083A0CF8D919C91119712966C90DB
:10490000129713967C901397A815B90559F56C0169
:1049100042E0C40ED11CCA14DB0420F1AC014A19D8
:104920005B09DA011296159780F0628273825183D7
:104930004083D9016D937C93E114F10471F0D701A8
:104940001396FC93EE93129776CF22968C0F9D1FB1
:10495000F90191838083F301EFCFF0934E07E09349
:104960004D0769CF4816590608F42C017D01D30183
:104970009ACFCB010E94E9227C01009749F0AE0159
:10498000B8010E94D024C8010E948523870153CF1B
:1049900010E000E050CF81E090E0F8940C94E02427
:1049A000FB01DC0102C001900D9241505040D8F74C
:1049B0000895FB01DC0101900D920020E1F70895BC
:1049C00010E0C9E7D0E004C0FE010E94DC2221967D
:0A49D000CA37D107C9F7F894FFCFEA
:1049DA00FFA302A3021C0101000102FEFFFFFFFF69
:1049EA00FFFF0A000A000A0000004F0780000010BB
:1049FA00203001112131021222320313233304140D
:104A0A002434051525350616263600000000C41381
:104A1A00C413C413860D820D790B7F0D00000000AC
:104A2A00DA0B7E0B7C0B860D820D790BA00218091E
:104A3A00060904100F1101000000007003D002FDE6
:104A4A0002BD032E030C032003000000008105545D
:104A5A0005C8082A054D053A052B0500000000D8AF
:104A6A0008D508C808D4080D0A004552524F523AD0
:104A7A00205354414C45205041434B455400455224
:104A8A00524F523A205041594C4F41445F4552527D
:104A9A004F52004552524F523A204352435F4552B9
:104AAA00524F52004552524F523A2053544F505F80
:104ABA00425954455F4552524F52004552524F5245
:104ACA003A20556E646566696E6564207374617414
:044ADA006520000053
:00000001FF
