:100000000C94DB010C940C020C940C020C940C026A
:100010000C940C020C940C020C940C020C940C0228
:100020000C940C020C940C020C940C020C940C0218
:100030000C940C020C940C020C940C020C940C0208
:100040000C940C020C940C020C940C020C940C02F8
:100050000C940C020C940C020C940C020C94751D64
:100060000C940C020C94491E0C941F1E0C940C0250
:100070000C940C020C940C020C940C020C940C02C8
:100080000C940C020C940C020C940C020C940C02B8
:100090000C940C020C940C020C940C020C947F1E19
:1000A0000C940C020C940C020C940C020C940C0298
:1000B0000C940C020C940C020C940C020C940C0288
:1000C0000C940C020C940C020C940C020C940C0278
:1000D0000C940C020C940C020C94E91D0C94BF1DA2
:1000E0000C940C020C94162D0C94AE100C94B506C6
:1000F0000C948F080C9407040C943C060C94310566
:100100000C9452050C94A9100C9428060C944905E3
:100110000C9416040C940A110C94F8030C9405200A
:100120000C948D080C943B050C94190B0C94BE0D8B
:100130000C9420050C94D52C0C94F0080C943B1DC9
:100140000C9439120C94102D0C9403040C94120589
:100150000C9474060C94BA0D0C94A1060C948708A8
:100160000C94FC030C947F090C9400040C94AB06D3
:100170000C9404180C94E2080C942D050C9457056B
:100180000C9412040C94122D0C943F050C948D06C3
:100190000C9427050C94700B0C944E060C94AE0D29
:1001A0000C941A0B0C946A060C9424050C94970674
:1001B0000C9445050C948E080C94DA030C943D12B3
:1001C0000C941C050C94BB0D0C94182D0C94290B4D
:1001D0000C9437050C94D9170C9423060C94142D09
:1001E0000C944D050C9418050C9441120C94320992
:1001F0000C9433120C94430B0C9483060C94BF089C
:100200000C9456060C94CE080C940E040C94920890
:100210000C94C1170C9496170C9436120C94460645
:100220000C940A040C94AC100C9453050C943C0BE5
:100230000C9481080C9472170C941A2D0C9460067F
:100240000C9432060C941A040C941B060C94691737
:100250000C944A0E000000006410B71DC8206E3BCD
:10026000AC30D9269041DC76F4516B6B5861B24DBD
:100270003C7105502083B8ED44930FF0E8A3D6D627
:100280008CB361CBB0C2649BD4D2D38678E20AA08F
:100290001CF2BDBD00002100240027002A002D0013
:1002A0003000330001010000040107010A010000D1
:1002B0002200250028002B002E003100340002010E
:1002C0000000050108010B010000200023002600AA
:1002D00029002C002F00320000010000030106015C
:1002E00009010505050507050808080802020202BC
:1002F0000A0A0808040404040101010101010101C2
:100300000303030303030303040707070C0C0C0C8C
:100310000C0C0C0C02020202060606060606060675
:100320000B0B0B0B0B0B0B0B010210202008081002
:100330002040102040800201020108040201010255
:10034000040810204080804020100804020180042E
:100350000201804020100804020108040201010289
:100360000408102040800102040810204080000092
:100370000A0B02090C0D0E0807030401000000001F
:10038000000000000000000000000000000000006D
:10039000000000000000000000001211100000002A
:1003A000000000000000000000000000000000004D
:1003B00000000000052011241FBECFEFD1E2DEBFF8
:1003C000CDBF00E00CBF29E0A2E3B3E001C01D9265
:1003D000AF33B207E1F713E0A0E0B2E0E4EBFCE5F5
:1003E00000E00BBF02C007900D92A233B107D9F70E
:1003F00011E0CBEDD1E000E006C021970109802F8C
:10040000FE010E94302ECA3DD10780E00807A9F7FF
:100410000E94B7210C94582E0C940000CF93DF93C8
:1004200000D000D000D0CDB7DEB720EF29832AEA74
:100430002A8329E02B8328E02C838D839E836F837E
:10044000788785E589878091580490915904DC016B
:10045000ED91FC910280F381E02D49E050E0BE0176
:100460006F5F7F4F199529960FB6F894DEBF0FBEC8
:10047000CDBFDF91CF910895CF93DF9300D000D00F
:100480001F921F92CDB7DEB720EF29832AEA2A8375
:1004900028E02B8323E02C836D838E839F8385E567
:1004A00088878091580490915904DC01ED91FC916A
:1004B0000280F381E02D48E050E0BE016F5F7F4F86
:1004C000199528960FB6F894DEBF0FBECDBFDF9109
:1004D000CF910895CF93DF9300D000D000D0CDB757
:1004E000DEB720EF29832AEA2A8329E02B832DE037
:1004F0002C8321E02D838E839F83688785E5898700
:100500008091580490915904DC01ED91FC91028096
:10051000F381E02D49E050E0BE016F5F7F4F1995F8
:1005200029960FB6F894DEBF0FBECDBFDF91CF91F5
:100530000895DF92EF92FF920F931F93CF93DF9373
:100540001092B004FF24F394F3E0EF2EA2E0DA2E31
:10055000CFEFDFEF0BE814E080915804909159043D
:10056000DC01ED91FC910084F185E02D19951816C0
:1005700019060CF0D5C08091580490915904DC0103
:10058000ED91FC910284F385E02D19959091AE04D4
:1005900091111CC0803F09F040C0F092AE048091E0
:1005A000B0048823C9F280917604843809F46FC0BE
:1005B000E8F5813809F494C0823809F49DC010929E
:1005C000AE041092AF041092B004C6CF913041F443
:1005D0008A3A19F4D092AE04E2CF1092AE04DFCF83
:1005E000923041F48132C8F7E092AE04815080939A
:1005F000AF04D5CF2091AF04921778F4803F69F310
:100600008A3A59F3853549F3E92FF0E0E85AFB4F70
:10061000838F9F5F9093AE04C2CF2091AF0492135B
:10062000DCCF8535D1F6F092B004B9CF8538B1F082
:10063000863829F6809177048093AD0480917904FF
:1006400090E0982F882720917804820F911D909335
:10065000AC048093AB04F092B304B1CF80917804E2
:1006600090E0982F882720917704820F911D909316
:10067000B5048093B40480917904811105C010926F
:10068000B6041092B7049BCFF092B604FACF8091D3
:1006900079048E3008F093CF20917804422F50E0F7
:1006A000542F44272091770430E02F5F3F4F240FD1
:1006B000351F90E040917A040196880F991FFC0144
:1006C000E85AFB4F411109C08081918128173907F1
:1006D00009F075CFD183C08372CF318320836FCF70
:1006E000E7E7F4E08191868F0E171F07D9F7109284
:1006F000AA04F092B10463CF809177048093AD0493
:100700008091790490E0982F882720917804820FB7
:10071000911D9093AC048093AB04F092B2044FCF40
:10072000DF91CF911F910F91FF90EF90DF9008958F
:10073000CF93DF9300D000D01F92CDB7DEB720EF6C
:1007400029832AEA2A8327E02B8325E02C838D83C3
:100750009E8385E58F838091580490915904DC0134
:10076000ED91FC910280F381E02D47E050E0BE0165
:100770006F5F7F4F199527960FB6F894DEBF0FBEB7
:10078000CDBFDF91CF910895982F8B3098F4E82F4B
:10079000F0E08827E153FC4F8F4F0C94302E1A0461
:1007A000DA03F803FC030004030407040A040E043C
:1007B000120416044FEF20E094E6392F330F330F65
:1007C000330F85E5632F689F060E60E0611D1124DD
:1007D000E92FE074592F507297FD81C0E1116CC070
:1007E00051112BC0862F8095762F682F80E029C06D
:1007F0004FEF2BE996E1E1CF4FEF2FEF94EFDDCFF5
:100800004FEF20E8FBCF4FEF2FEF90E0D6CF4FEF29
:1008100020ECFBCF4FEF2FEF95E0CFCF4FEF2FEF37
:100820009AE0CBCF4FEF2FEF9FE0C7CF4FEF2FEFE7
:1008300094E1C3CF492F292FC0CF75E5760F80E013
:100840006BEA2F3FF1F0222309F468C0209590E075
:10085000222329F0229F912D112421119F5F292FFE
:100860002095629F060E60E0611D729F070E70E08A
:10087000711D829F080E80E0811D1124690F790F80
:10088000890F4F3F09F451C090E0992321F0999FBF
:10089000912D09F09F5F992309F444C0699F060ECA
:1008A00060E0611D799F070E70E0711D899F080E41
:1008B00080E0811D1124089551110BC09AEA399FDF
:1008C000030E30E0311D11248BEA831B7AEA760F88
:1008D0008CCF80E0762F7095862F60E0B2CFE1114B
:1008E00011C051110BC0832F9AEA899F080E80E036
:1008F000811D11247BEA781B8B5AEFCF862F8095C0
:1009000070E09FCF511106C095E5960F8BEA861BCC
:10091000692FF6CF9AEA960F30E0F9CF8FEF7FEF8D
:100920006FEFAFCF80E070E060E0089587FF2FC0E9
:1009300010924E0710924D0780915007882331F195
:1009400080914F07E0914D07F0914E07E559F94F1F
:10095000662361F1882341F1848D87FD17C0E82F5C
:10096000E695E695E695F0E0E15DF84F282F2770D3
:1009700081E090E0A0E0B0E004C0880F991FAA1FBA
:10098000BB1F2A95D2F72081822B808308958C315A
:100990003CF08BE190E090934E0780934D07CCCFD5
:1009A000082E000C990BF7CF8081D7CF8823D1F088
:1009B000248D27FDEBCFE22FE695E695E695F0E056
:1009C000E15DF84F277081E090E0A0E0B0E004C066
:1009D000880F991FAA1FBB1F2A95D2F78095908177
:1009E0008923D3CF2081E5CF8150823108F05AC0CE
:1009F000E82FF0E08827E050FB4F8F4F0C94302E0B
:100A000020052405120518051C05520527052D058E
:100A1000310537053B053F054505490552054D059F
:100A200053055705809180008F778093800008954B
:100A3000809180008F7DF9CF80918000877FF5CFF6
:100A400084B58F7784BD089584B58F7DFBCF809169
:100A5000B0008F778093B00008958091B0008F7DB3
:100A6000F9CF809190008F778093900008958091C6
:100A700090008F7DF9CF80919000877FF5CF809196
:100A8000A0008F778093A00008958091A0008F7DB3
:100A9000F9CF8091A000877FF5CF809120018F77DB
:100AA000809320010895809120018F7DF9CF80915E
:100AB0002001877FF5CFCF93DF93282F30E0F90116
:100AC000E259FC4F8491F901E85DFC4FD491F901A2
:100AD000EE51FD4FC491CC23A1F081110E94F4048A
:100AE000EC2FF0E0EE0FFF1FE853FD4FA591B491FE
:100AF000EC91ED2381E090E009F480E0DF91CF916B
:100B0000089580E090E0FACF1F93CF93DF93282FD2
:100B100030E0F901E259FC4F8491F901E85DFC4FA6
:100B2000D491F901EE51FD4FC491CC23A9F0162FB9
:100B300081110E94F404EC2FF0E0EE0FFF1FE2554C
:100B4000FD4FA591B4918FB7F894EC91111108C0A5
:100B5000D095DE23DC938FBFDF91CF911F91089555
:100B6000DE2BF8CFCF93DF9390E0FC01E85DFC4FE4
:100B700024918E519D4FFC0184918823D1F090E007
:100B8000880F991FFC01EC56FD4FA591B491FC0113
:100B9000E255FD4FC591D491623071F49FB7F8943E
:100BA0003C91822F809583238C93E8812E2B288380
:100BB0009FBFDF91CF9108958FB7F894EC912E2BC2
:100BC0002C938FBFF6CF1F93CF93DF93182FEB019A
:100BD00061E00E94B205209739F460E0812FDF9137
:100BE000CF911F910C948405CF3FD10511F461E0A2
:100BF000F5CFE12FF0E0E259FC4FE491E150E23112
:100C000008F0B3C0F0E08827E75FF94F8F4F0C94EE
:100C1000302E1B062306280632063C06B50646067D
:100C20004E06560660066A06740683068D06B506ED
:100C30009706A106AB0684B5806884BDC7BDDF9169
:100C4000CF911F91089584B5806284BDC8BDF7CF50
:100C500080918000806880938000D0938900C09349
:100C60008800EDCF80918000806280938000D093D7
:100C70008B00C0938A00E3CF8091800088608093CE
:100C80008000D0938D00C0938C00D9CF8091B000AC
:100C900080688093B000C093B300D1CF8091B00042
:100CA00080628093B000C093B400C9CF809190005F
:100CB000806880939000D0939900C0939800BFCF34
:100CC00080919000806280939000D0939B00C093AD
:100CD0009A00B5CF80919000886080939000D09367
:100CE0009D00C0939C00ABCF8091A0008068809352
:100CF000A0008091A0008F7B8093A000D093A900DA
:100D0000C093A8009CCF8091A00080628093A00037
:100D1000D093AB00C093AA0092CF8091A0008860CE
:100D20008093A000D093AD00C093AC0088CF809199
:100D30002001806880932001D0932901C09328016D
:100D40007ECF80912001806280932001D0932B017F
:100D5000C0932A0174CF8091200188608093200184
:100D6000D0932D01C0932C016ACFC038D1050CF06F
:100D70003ECF33CF3FB7F8948091F8039091F903B9
:100D8000A091FA03B091FB0326B5A89B05C02F3FA5
:100D900019F00196A11DB11D3FBFBA2FA92F982FA1
:100DA0008827BC01CD01620F711D811D911D42E09C
:100DB000660F771F881F991F4A95D1F708958F9264
:100DC0009F92AF92BF92CF92DF92EF92FF924B0130
:100DD0005C010E94BA066B017C010E94BA066C1984
:100DE0007D098E099F09683E734081059105A8F32E
:100DF00021E0821A9108A108B10888EEC80E83E0AC
:100E0000D81EE11CF11C81149104A104B10429F73E
:100E1000FF90EF90DF90CF90BF90AF909F908F901A
:100E200008952FB7F8946091F4037091F5038091C1
:100E3000F6039091F7032FBF08952F923F924F92A0
:100E40005F926F927F928F929F92AF92BF92CF925A
:100E5000DF92EF92FF920F931F93CF93DF93CDB763
:100E6000DEB7C558D1090FB6F894DEBF0FBECDBFAF
:100E7000B82E8091010690910206A0910306B091D0
:100E80000406892B8A2B8B2BD9F00E94BA0600917D
:100E90005404109155042091560430915704601B5E
:100EA000710B820B930B00910106109102062091A9
:100EB0000306309104066017710782079307C8F292
:100EC0000E94BA06609354047093550480935604AC
:100ED00090935704E0910906F0910A06309759F073
:100EE000409105065091060660910706709108062C
:100EF0008B2D1995B82EFE01319680E8DF011D92E9
:100F00008A95E9F7E0905204F09053044F016E0186
:100F1000B1E8CB0ED11C1F014B2C512C712C612C34
:100F2000E114F10409F476C02C143D0409F472C0F4
:100F3000D701ED91FC910484F585E02DC701199549
:100F4000F101819391931F018091FF05909100061B
:100F50008436910518F4D7011C961C92D701ED91A7
:100F6000FC9182819381CC57DF4F99838883C45849
:100F7000D040D6011C9211961C92119712961C9289
:100F8000BB2079F187010A5F1F4FF0E0E0E0D80154
:100F90002D918D01222309F11296AC90AA20E9F03F
:100FA00030E050E040E02F5F3F4F4F4F5F4FC301B5
:100FB000B2010E94D02D9B01AC018A2D90E0B0E0DF
:100FC000A0E0BC01CD016F5F7F4F8F4F9F4F0E940C
:100FD000D02DD601AE0FBF1F8C933196E330F105B3
:100FE000B1F6F601008111812281D7011D964D9144
:100FF0005C911E9712966D917C91C701CC57DF4F83
:10100000E881F981C458D0401995D7011496ED9024
:10101000FC9086CF009152041091530401151105E4
:1010200099F08C149D0481F0F401619171914F014C
:10103000D801ED91FC910684F785E02DC801199542
:10104000F80104811581EACF8091500490915104F8
:101050008C010F5F1F4F1093510400935004499768
:10106000B4F10E941107C0904C04D0904D04E09060
:101070004E04F0904F049B01AC012C193D094E0920
:101080005F0921F421E030E040E050E088EE93E099
:10109000089FB001099F700D189F700D1124072E35
:1010A000000C880B990B0E94E02D309300062093D2
:1010B000FF0510925104109250040E941107609392
:1010C0004C0470934D0480934E0490934F04CB577F
:1010D000DF4F0FB6F894DEBF0FBECDBFDF91CF91CB
:1010E0001F910F91FF90EF90DF90CF90BF90AF9046
:1010F0009F908F907F906F905F904F903F902F9038
:1011000008958091D4038F5F8093D40308958091D4
:10111000D5038F5F8093D50308950895089580E9DE
:1011200091E00895AF92BF92CF92DF92EF92FF923B
:101130000F931F93CF93DF936C017B018B01040FFF
:10114000151FEB015E01AE18BF08C017D10759F09B
:101150006991D601ED91FC910190F081E02DC601DD
:101160001995892B79F7C501DF91CF911F910F91C7
:10117000FF90EF90DF90CF90BF90AF900895FC016B
:10118000538D448D252F30E0842F90E0821B930BEC
:10119000541710F0CF96089501970895FC01918D92
:1011A000828D981761F0A28DAE0FBF2FB11D5D9695
:1011B0008C91928D9F5F9F73928F90E008958FEF37
:1011C0009FEF0895FC01918D828D981731F0828DEB
:1011D000E80FF11D858D90E008958FEF9FEF089542
:1011E000FC01918D228D892F90E0805C9F4F821BA6
:1011F00091098F739927089588EB94E00E94F00875
:1012000021E0892B09F420E0822F089585E595E0FF
:101210000E94F00821E0892B09F420E0822F089534
:10122000FC01A48DA80FB92FB11DA35ABF4F2C915B
:10123000848D90E001968F739927848FA689B78952
:101240002C93A089B1898C91837080648C93938D49
:10125000848D981306C00288F389E02D80818F7DEC
:1012600080830895EF92FF920F931F93CF93DF93A4
:10127000EC0181E0888F9B8D8C8D98131AC0E889D2
:10128000F989808185FF15C09FB7F894EE89FF89A1
:101290006083E889F98980818370806480839FBF3F
:1012A00081E090E0DF91CF911F910F91FF90EF903F
:1012B0000895F62E0B8D10E00F5F1F4F0F7311274F
:1012C000E02E8C8D8E110CC00FB607FCFACFE8898A
:1012D000F989808185FFF5CFCE010E941009F1CFF9
:1012E000EB8DEC0FFD2FF11DE35AFF4FF0829FB7FE
:1012F000F8940B8FEA89FB8980818062CFCFCF93EE
:10130000DF93EC01888D8823B9F0AA89BB89E8892D
:10131000F9898C9185FD03C0808186FD0DC00FB6D3
:1013200007FCF7CF8C9185FFF2CF808185FFEDCF51
:10133000CE010E941009E9CFDF91CF91089580E09E
:1013400090E0892B29F00E94060981110E9400007B
:1013500080E090E0892B49F080E090E0892B29F033
:101360000E94000081110E94000080E090E0892B23
:1013700049F080E090E0892B29F00E940000811163
:101380000E94000080E090E0892B29F00E94FC0878
:1013900081110C940000089520917803260F3327C3
:1013A000331F21323105ECF420912204FC0190E03E
:1013B00080E0243069F082E00895A09178032191C3
:1013C000AC01485A5C4FA40FB52FB11D2C93019668
:1013D000861798F380917803680F6093780380E014
:1013E000089581E008951092220481E08093210401
:1013F0001092FC0361E084E10E94840561E085E1D4
:101400000E948405E9EBF0E080818E7F80838081FB
:101410008D7F808388E48093B80085E48093BC004E
:101420000895CF93DF9391E0909357038823B9F009
:10143000C091B800D091BA008091BC008A7B8093A3
:10144000BC0060E084E10E94840560E085E10E94C8
:1014500084050E94F309D093BA00C093B800DF91CD
:10146000CF910895CF92DF92EF92FF920F931F9347
:10147000CF93DF93D0914B0481E0D13208F09CC030
:10148000C0914A040E94BA066B017C01809122043B
:1014900081116CC082E08093220481E0809321045A
:1014A0008FEF8093200410921F04D0931E04AAE2B1
:1014B000B4E0EEEFF3E080E0D8138DC01092FD03AE
:1014C0008091FD03CC0FC82BC093FD038091FC03DA
:1014D000813009F084C01092FC030E94BA066B01AF
:1014E0007C018091FD038093BB0080912404909146
:1014F0002504A0912604B0912704892B8A2B8B2BDD
:10150000A1F00E94BA0600912404109125042091B4
:101510002604309127046C197D098E099F0906174E
:1015200017072807390708F442C08091BC0083FDE3
:10153000D8CF85EC8093BC000E94BA066B017C0179
:1015400080912204823009F44CC0809120048F3FA6
:1015500009F469C080912004803209F466C080914A
:101560002004803309F463C084E026C08091240401
:1015700090912504A0912604B0912704892B8A2BF1
:101580008B2B09F483CF0E94BA060091240410919A
:10159000250420912604309127046C197D098E09B9
:1015A0009F09061717072807390708F06FCF8091A2
:1015B00023040E94110A85E01092290410924B0422
:1015C00010922804DF91CF911F910F91FF90EF901F
:1015D000DF90CF9008959D9191938F5F6DCF85EEB1
:1015E000A9CF8091240490912504A0912604B09164
:1015F0002704892B8A2B8B2B09F4A2CF0E94BA06D1
:101600000091240410912504209126043091270490
:101610006C197D098E099F090617170728073907D6
:1016200008F08ECFC4CF80E0C7CF82E0C5CF83E083
:10163000C3CF0895E091BB038091BA03E81730F45B
:10164000F0E0E95CFC4F808190E008958FEF9FEF20
:1016500008959091BB038091BA032FEF3FEF981745
:1016600048F4E92FF0E0E95CFC4F208130E09F5F17
:101670009093BB03C90108958091BA039091BB0375
:10168000891B990B0895CF92DF92EF92FF920F93EF
:101690001F93CF93DF937C01CB018A012091280413
:1016A000222389F0EB016B01C40ED51ECC15DD059C
:1016B00069F06991D701ED91FC910190F081E02DE5
:1016C000C7011995F3CF642F0E94CC09C801DF919F
:1016D000CF911F910F91FF90EF90DF90CF900895E1
:1016E000CF93DF931F92CDB7DEB769832091280493
:1016F0002223F9F020914B04203258F021E030E011
:10170000FC013383228390E080E00F90DF91CF9142
:10171000089580912904E82FF0E0E65DFB4F998160
:1017200090838F5F8093290480934B0481E090E045
:10173000ECCF61E0CE0101960E94CC09F7CF9091E9
:10174000450721E02093280490934A04109229042D
:1017500010924B04682F82EF95E00E94700B0C945E
:10176000320AFC0183A5882329F081E022A595A1F6
:10177000291380E00895CF92DF92EF92FF920F93AA
:101780001F93CF93DF93EC018CA10E945B0521E0B6
:10179000892B09F420E02EA30E94110768A379A3E6
:1017A0008AA39BA3EEA12FA1E2132DC191E098A7DC
:1017B00098A59923F1F048A159A16AA17BA10889B4
:1017C00019892A893B89DB01CA01801B910BA20B75
:1017D000B30B8C019D01C880D980EA80FB80C016C4
:1017E000D106E206F30628F4E9A7488B598B6A8BE9
:1017F0007B8BEFA31BA629A58AA52817C1F088A17A
:1018000099A1AAA1BBA14C895D896E897F89841B9E
:10181000950BA60BB70B4C815D816E817F814817BC
:1018200059076A077B0718F42AA781E08BA71FA630
:10183000CE010E94B10B8823B9F088A199A1AAA179
:10184000BBA1488D598D6A8D7B8D841B950BA60B92
:10185000B70B4C855D856E857F8584179507A60738
:10186000B70708F4D6C018AA88A91BA5811131C0F2
:1018700011112DC09AA58DA1981741F1C88CD98C52
:10188000EA8CFB8C8C8D9D8DAE8DBF8D8C199D0946
:10189000AE09BF09488559856A857B854817590770
:1018A0006A077B0708F4B8C048A159A16AA17BA1C7
:1018B0004C195D096E097F0981E0CC84DD84EE84DA
:1018C000FF844C155D056E057F0508F480E08FA749
:1018D00088ABCE010E94B10B8823B9F048A159A171
:1018E0006AA17BA1888D998DAA8DBB8D481B590B50
:1018F0006A0B7B0B81E0CC84DD84EE84FF844C1585
:101900005D056E057F0508F080E08EA71CA61123FB
:1019100021F09AA58DA198131DA68DA581111FC038
:1019200011111BC09AA58DA1981378C048A159A187
:101930006AA17BA1888D998DAA8DBB8D481B590BFF
:101940006A0B7B0B81E0C884D984EA84FB84C416CB
:10195000D506E606F70608F080E08CA78DA71123D0
:1019600091F0C8A0D9A0EAA0FBA0CC8ADD8AEE8ABB
:10197000FF8ACE010E94B10B882309F451C0C88EA2
:10198000D98EEA8EFB8EE9A8FAA8E114F10409F4D5
:101990004CC0CE010E94B10B882309F446C08BAD28
:1019A0009CADF7011995EDA9FEA9309741F08CA5E2
:1019B000882329F0DE01DF968D919C911995EFA97E
:1019C000F8AD309749F08EA5882331F0DE01AF5B8A
:1019D000BF4F8D919C911995E9ADFAAD309749F0C3
:1019E0008FA5882331F0DE01AD5BBF4F8D919C91B7
:1019F00019958BA5DF91CF911F910F91FF90EF90DB
:101A0000DF90CF90089518A6688B798B8A8B9B8B7B
:101A1000CFCE81E088AB28CF812F59CF812F9DCFAA
:101A2000CC8EDD8EEE8EFF8EAECFEBA9FCA930976B
:101A300009F4B9CF112309F4B6CF9AA58DA198174F
:101A400009F4B1CF8DAD9EADADCF8F929F92AF9285
:101A5000BF92CF92DF92EF92FF920F931F93CF939B
:101A6000DF93FC012085211110C060E070E0CB0104
:101A7000DF91CF911F910F91FF90EF90DF90CF906A
:101A8000BF90AF909F908F900895EC010E94110736
:101A900029852111EACF8C809D80AE80BF8008818E
:101AA00019812A813B816B017C01C818D908EA0899
:101AB000FB08C016D106E206F306B8F6080D191D9C
:101AC0002A1D3B1D68017901C61AD70AE80AF90ADE
:101AD000C701B601CDCFCF92DF92EF92FF921F9355
:101AE000CF93DF93FC01108511110AC010E0812F04
:101AF000DF91CF911F91FF90EF90DF90CF900895ED
:101B0000EC018185882319F018861986F0CF0E9490
:101B10001107CC80DD80EE80FF806C197D098E0975
:101B20009F09C880D980EA80FB806C157D058E05F1
:101B30009F0550F7DBCFCF93DF93EC0148835983A8
:101B40006A837B830E9411076C837D838E839F83CE
:101B500081E088871986DF91CF91089590E080E039
:101B6000089508958CE396E00C94BB0D8CE396E009
:101B70000C94BE0D089590E080E0089590E080E020
:101B800008950F931F93CF93DF93DC01EB014D91E9
:101B90005D916D917C911397E881E427EF7084E06B
:101BA000E89FF0011124EC5AFD4F05911591259104
:101BB000349184E076956795579547958A95D1F746
:101BC00040275127622773274D935D936D937C9334
:101BD0001397E881E295EF70E427EF7084E0E89FC7
:101BE000F0011124EC5AFD4F059115912591349186
:101BF00094E076956795579547959A95D1F7402744
:101C00005127622773274D935D936D937C931397B0
:101C1000DF91CF911F910F9108950F931F93CF9351
:101C2000DF93209136032F5F322F377030933603C6
:101C300020FF2BC020E831FD2064347009F02062C1
:101C4000205FFC01EC01239600E011E0648566232F
:101C500029F070E0C8010E941C2E6F5F6187822FFF
:101C6000869F080E80E0811D1124811110C016820C
:101C7000662311F0615061873196EC17FD0731F74B
:101C8000DF91CF911F910F91089520E0D4CF815023
:101C90008683EECF4F925F927F928F929F92AF9208
:101CA000BF92CF92DF92EF92FF920F931F93CF9349
:101CB000DF932C01EB010E94BA06F20127853089DF
:101CC000621B730B6A307105B0F3F8948A819B81B3
:101CD000181619060CF0CBC1E881F98105B1006135
:101CE00075B17F7E75B9BA848F812B2D281B822F09
:101CF0002F834F85042E000C550BAA81BB81ED84E8
:101D0000DC84CE84E394D394C3949E8138859984F3
:101D10008B84118120E0F32E622F322F3181112725
:101D200088943111380F08F43FEF81958894E0FCD6
:101D3000130F17958894E1FC130F17958894E2FC14
:101D4000130F17958894E3FC130F17958894E4FC00
:101D5000130F17958894E5FC130F17958894E6FCEC
:101D6000130F17958894E7FC130F17958894232F6A
:101D7000E110212F8B0D122F002C05B900C017FF89
:101D800075B930812227889400C000C0002C75B935
:101D90003111390F00C0002C05B900C016FF75B90C
:101DA00008F43FEF9195889400C000C0002C75B9ED
:101DB000D0FC230F00C0002C05B900C015FF75B979
:101DC00027958894D1FC230F00C000C0002C75B962
:101DD0002795889400C0002C05B900C014FF75B980
:101DE000D2FC230F2795889400C000C0002C75B941
:101DF000D3FC230F00C0002C05B900C013FF75B938
:101E000027958894D4FC230F00C000C0002C75B91E
:101E10002795889400C0002C05B900C012FF75B941
:101E2000D5FC230F2795889400C000C0002C75B9FD
:101E3000D6FC230F00C0002C05B900C011FF75B9F6
:101E400027958894D7FC230F00C000C0002C75B9DB
:101E50002795889400C0002C05B900C010FF75B903
:101E6000132FD110122F990D00C000C0002C75B98E
:101E700000C000C0002C05B900C017FF75B9328141
:101E80002227889400C000C0002C75B931113F0D85
:101E900000C0002C05B900C016FF75B908F43FEF6B
:101EA000E40FF51F00C000C0002C75B9C0FC230F63
:101EB00000C0002C05B900C015FF75B9279588949E
:101EC000C1FC230F00C000C0002C75B92795889471
:101ED00000C0002C05B900C014FF75B9C2FC230F67
:101EE0002795889400C000C0002C75B9C3FC230F4F
:101EF00000C0002C05B900C013FF75B92795889460
:101F0000C4FC230F00C000C0002C75B9279588942D
:101F100000C0002C05B900C012FF75B9C5FC230F25
:101F20002795889400C000C0002C75B9C6FC230F0B
:101F300000C0002C05B900C011FF75B92795889421
:101F4000C7FC230F00C000C0002C75B927958894EA
:101F500000C0002C05B900C010FF75B9132FC110C7
:101F6000122FF19400C000C0002C75B9F80C00C00D
:101F700000C005B900C017FF75B9318122278894C8
:101F800000C000C0002C75B93111380F00C0002C02
:101F900005B900C016FF75B908F43FEF8195889424
:101FA00000C000C0002C75B9E0FC230F00C0002C5D
:101FB00005B900C015FF75B927958894E1FC230F7A
:101FC00000C000C0002C75B92795889400C0002C73
:101FD00005B900C014FF75B9E2FC230F279588945A
:101FE00000C000C0002C75B9E3FC230F00C0002C1A
:101FF00005B900C013FF75B927958894E4FC230F39
:1020000000C000C0002C75B92795889400C0002C32
:1020100005B900C012FF75B9E5FC230F2795889418
:1020200000C000C0002C75B9E6FC230F00C0002CD6
:1020300005B900C011FF75B927958894E7FC230FF7
:1020400000C000C0002C75B92795889400C0002CF2
:1020500005B900C010FF75B9132FE110122F8B0DB9
:1020600000C000C0002C75B9119709F086CE4A81D6
:102070005B8120EE31E0DA010E94382EDC01CB01D9
:10208000F4E0B695A79597958795FA95D1F730E046
:1020900020E0B901EAE94E9F040E611D5E9F600DCC
:1020A000711D1124650F711D860F971FA11DB11D94
:1020B000893E43E09407A105B10508F434C0885E69
:1020C0009340A109B10942E0B695A79597958795E8
:1020D0004A95D1F747E0849F080E211D949F200D5B
:1020E000311D1124290F311D6091350370E0860FD9
:1020F000971F820F931F4091F4035091F503609155
:10210000F6037091F703292F3327420F531F611DE8
:10211000711D4093F4035093F5036093F60370939D
:10212000F7038093350378940E94BA06F201708B0E
:102130006787DF91CF911F910F91FF90EF90DF9014
:10214000CF90BF90AF909F908F907F905F904F9077
:10215000089581E090E00895249A08956F927F9207
:102160008F92CF92DF92EF92FF920F931F93CF93B4
:10217000DF93CDB7DEB762970FB6F894DEBF0FBE20
:10218000CDBF6C017A013801822EDC011C962C91A6
:10219000CA0157FF04C088279927841B950B7A83AF
:1021A00069839C838B839E838D836D867E868F86D9
:1021B000213049F5CE0101960E940D0E83E0888BF7
:1021C0001A8A198AF7FE02C08DEF888BD601ED912D
:1021D000FC910288F389E02DBE016F5F7F4FC6013D
:1021E000199562960FB6F894DEBF0FBECDBFDF9192
:1021F000CF911F910F91FF90EF90DF90CF908F9034
:102200007F906F9008951C861B861A861986188603
:102210001F82D4CFEF92FF920F931F93CF93DF9340
:10222000CDB7DEB762970FB6F894DEBF0FBECDBF55
:102230007C01DC011C968C917A8369835C834B83DF
:102240005E834D830D871E872F878130F9F4CE0181
:1022500001960E940D0E188A1A8A198AD701ED91EB
:10226000FC910288F389E02DBE016F5F7F4FC701AB
:10227000199562960FB6F894DEBF0FBECDBFDF9101
:10228000CF911F910F91FF90EF9008951C861B86B0
:102290001A86198618861F82DECFE6E2F9E01086DC
:1022A00011861092340370E060E08BE00C94E3053B
:1022B000CF9390910202992309F18823F9F0C82F56
:1022C00080910302882331F18091D2039091D3034E
:1022D000039751F480918507882399F064EB70E0AF
:1022E0008BE0CF910C94E30580918507882331F032
:1022F0008DE797E00E946B0D882361F3CF910C94DA
:102300004D1180913403C81749F0C09334036C2FEA
:1023100070E0E6CF809134038C13F7CFCF9108950E
:102320000F931F93CF93DF9300D000D0CDB7DEB7CC
:102330008FEF9FEFDC0189839A83AB83BC8310E02E
:1023400000E01E830D83BE016B5F7F4FCE010196BF
:102350000E94C10DBE016A5F7F4FCE0101960E94AF
:10236000C10D0F5F1F4F0530110559F71E830D83F7
:10237000BE016B5F7F4FCE0101960E94C10DBE0171
:102380006A5F7F4FCE0101960E94C10D69817A81FB
:102390008B819C81609570958095909526960FB65F
:1023A000F894DEBF0FBECDBFDF91CF911F910F918B
:1023B00008958091C0039091C103892B91F0809181
:1023C000C6039091C7030197029758F460914006A5
:1023D000062E000C770B8091C2039091C3030C94DE
:1023E0000E0208958091C6039091C703019702974A
:1023F00098F48091C0039091C103892B59F080918A
:10240000C2039091C303843F21E0920718F064E077
:102410000E943C020E9499021092C4031092C803C9
:1024200008958091C6039091C7030197029748F4DD
:1024300060914106062E000C770B83E090E00C942F
:102440000E0208952091C6033091C703215031092F
:102450002230310518F464E00C943C02089583E0C6
:1024600090E00C94221290E080E00895FC016487D3
:102470000895FC01848590E00895FC01858596858A
:1024800008950F931F93CF93DF9300D0CDB7DEB79E
:10249000AB0119821A821B82DC01ED91FC91019043
:1024A000F081E02D00E010E020E0BE016F5F7F4F83
:1024B00019950F900F900F90DF91CF911F910F9171
:1024C0000895FC019081929F090E90E0911D9083E8
:1024D000FB018081829F080E80E0811D8083FA01CC
:1024E0008081829F080E80E0811D808311240895E1
:1024F0007F928F929F92AF92BF92CF92DF92EF9294
:10250000FF920F931F93CF93DF9300D0CDB7DEB729
:10251000B82E81E696E00E946B0D882309F493C0E3
:102520002091F1033091F20344E1429FC001439FA7
:10253000900D112496958795969587954EE150E0DC
:10254000481B590B70E060E081E696E00E949B0D0D
:10255000809133038E3F18F4815F80933303809121
:102560000102823018F08F5080930102A090010286
:10257000E0913203F0E0EE0FFF1FE555FD4FC08004
:10258000D12C70903303E180F12C80910002860100
:10259000000F111F4701880C991C882309F464C09F
:1025A0008B2D0E94C40369837A838B83272DAE0110
:1025B0004D5F5F4FBE016E5F7F4FCE0101960E945F
:1025C00061120C0D1D1DF801E852FC4F89819A81A2
:1025D000AB8180839183A2838B2D0E94C403698386
:1025E0007A838B832A2DAE014D5F5F4FBE016E5FF4
:1025F0007F4FCE0101960E946112F401EE0DFF1D86
:10260000E852FC4F89819A81AB8180839183A283B8
:102610008FEF781218C080910102811114C080914F
:10262000000291E089278093000210923303709298
:1026300001028091320390E001966CE070E00E940C
:102640001C2E809332030F900F900F90DF91CF914B
:102650001F910F91FF90EF90DF90CF90BF90AF90C0
:102660009F908F907F9008958B2D0E94C403698363
:102670007A838B832A2DAE014D5F5F4FBE016E5F63
:102680007F4FCE0101960E9461120C0D1D1DF801B5
:10269000E852FC4F89819A81AB8180839183A28328
:1026A0008B2D0E94C40369837A838B83272D9BCF54
:1026B0000F931F93CF93DF938C018091450791E097
:1026C0009093280480934A041092290410924B049A
:1026D00060E082EF95E00E94700BE801005F1F4F01
:1026E000699182EF95E00E94700B0C171D07C1F7EE
:1026F000DF91CF911F910F910C94320A8091500776
:10270000882321F08FE297E00C945813089580916C
:10271000C0039091C103892BD9F18091C20390919C
:10272000C303843F21E0920798F121E02093C8037E
:102730002091C6033091C703215031092230310561
:10274000F8F42091C50365E0211101C066E00E9404
:102750003C0260914006062E000C770B8091C2036C
:102760009091C3030E940E0261E08091C203909198
:10277000C3030E946A020E94990281E08093B70419
:1027800040E25EE460E070E083E496E00C949B0D30
:1027900008959F92AF92BF92CF92DF92EF92FF92F5
:1027A0000F931F93CF93DF93CDB7DEB72C970FB660
:1027B000F894DEBF0FBECDBFF82ED92E962EC42EB4
:1027C0008091C6039091C7038230910509F045C0FE
:1027D0001416ECF5C12CAC2C0C2C000CBB082223DD
:1027E00009F450C06AEB7FEF8F2D9D2D0E940E02E1
:1027F0006E2D8F2D9D2D0E946A0280EF89838AEABB
:102800008A838CE08B838AE08C83FD821E82CF8258
:10281000B88609871A871B8685E58C8780915804BE
:1028200090915904DC01ED91FC910280F381E02D3F
:102830004CE050E0BE016F5F7F4F199565E091104D
:1028400001C066E08F2D9D2D0E943C0209C08AEBDD
:1028500048170CF68AEBC82EBECF019709F4BBCF00
:102860002C960FB6F894DEBF0FBECDBFDF91CF918F
:102870001F910F91FF90EF90DF90CF90BF90AF909E
:102880009F900895B5018F2D9D2D0E940E026E2DF3
:102890008F2D9D2D0E946A02D1CFEF920F931F932F
:1028A000EE24E39408E813E1282F4091410661E00B
:1028B00083E090E00E94C9131F910F91EF9008955B
:1028C000EF920F931F93809142068A3B11F1809102
:1028D0001E028530C0F510921E0280911E0226E471
:1028E000829FC001112464E670E00E941C2E8AEBD6
:1028F000860F809342062091C6033091C703215072
:1029000031092230310528F4082E000C990B0E9461
:1029100098038091D6039091D703892B81F487E0A7
:1029200090E00E942212EE24E39410E000E020E008
:102930004091420660E087E090E00E94C9131F9139
:102940000F91EF900895855080931E02C6CFEF92AD
:102950000F931F9380911E028036B8F184E6809316
:102960001E0280911E0226E4829FC001112464E6AB
:1029700070E00E941C2E6654609342068091D6033C
:102980009091D703892B81F487E090E00E94221276
:10299000EE24E39410E000E020E04091420660E085
:1029A00087E090E00E94C9138091C6039091C7030D
:1029B0000197029760F480914206082E000C990B53
:1029C0001F910F91EF900C9498038B5FC8CF1F91CC
:1029D0000F91EF900895EF920F931F9380911C0237
:1029E000853028F510921C0287E090E00E942212A8
:1029F000409142064A50EE24E39410E000E020E0CB
:102A000060E087E090E00E94C91380911C0226E4F8
:102A1000829FC001112464E670E00E941C2E66545F
:102A2000609340061F910F91EF900C94D91185503F
:102A300080931C02EACFEF920F931F9380911C02A8
:102A4000803630F184E680931C0287E090E00E949B
:102A50002212409142064A50EE24E39410E000E036
:102A600020E060E087E090E00E94C91380911C02A2
:102A700026E4829FC001112464E670E00E941C2EAF
:102A80006654609340061F910F91EF900C94D911FA
:102A90008B5F80931C02EACFEF920F931F93CF932B
:102AA000DF938091D2039091D3030597B1F4809185
:102AB000BE039091BF03019781F48091BC03909174
:102AC000BD038330910509F46AC068F48130910533
:102AD00009F402C1029709F4B5C0DF91CF911F91AB
:102AE0000F91EF90089584309105D9F10597A9F7DA
:102AF0008091C803882389F381EE98E00E94B10B8E
:102B0000882359F32091C5038091C6039091C70390
:102B100001970297E8F48091C0039091C1032111BD
:102B200011C021E02093C50365E0892BB1F28091AB
:102B3000C2039091C303DF91CF911F910F91EF904A
:102B40000C943C021092C503892B39F266E0EFCF5A
:102B5000211104C081E08093C503BFCF1092C5034B
:102B6000BCCF9091F7078091F2079813B6CF809170
:102B70003309909134098130910539F4DF91CF9177
:102B80001F910F91EF900C94A714019609F0A5CF17
:102B9000DF91CF911F910F91EF900C946014909161
:102BA000F7078091F207981398CF8091330990919D
:102BB00034098130910579F580911D02803638F114
:102BC00084E680931D0287E090E00E942212EE24AA
:102BD000E39410E000E020E04091410660E087E0EF
:102BE00090E00E94C91380911D0226E4829FC001DB
:102BF000112464E670E00E941C2E66546093410626
:102C0000DF91CF911F910F91EF900C9411128B5F78
:102C100080931D02E8CF019609F05FCF80911D02DD
:102C2000853070F410921D0287E090E00E9422121D
:102C3000EE24E39410E000E020E040914206CECF85
:102C40008550E6CF8091C8038823E9F081EE98E0B3
:102C50000E94B10B8823B9F0C091C203D091C30385
:102C60002197C43F81E0D80730F4C091C003D091D0
:102C7000C103CD50DE4F0E94F211D093C303C09325
:102C8000C2030E9487138091C803882309F425CFCB
:102C90008DEC97E00E94B10B882309F41ECFC09100
:102CA000C203D091C30321968091C0039091C103C8
:102CB0008D509E4F8C179D0710F4C4EFD1E00E94F9
:102CC000F211D093C303C093C203DF91CF911F9140
:102CD0000F91EF900C94871381EE98E00E94B10B56
:102CE000882331F08091C803811116C00E94871398
:102CF0009091F7078091F2079813EFCE80913309F6
:102D0000909134098130910551F4DF91CF911F9159
:102D10000F91EF900C941B150E94F211E9CF0196D0
:102D200009F0DBCEDF91CF911F910F91EF900C94C2
:102D3000EB14EFE2F7E080E1DF011D928A95E9F7FD
:102D4000CF010C9458138091500781110E9499165D
:102D500010924E0710924D0782E090E090935E072C
:102D600080935D0708950E94A31610924E0710925B
:102D70004D0710924C071092590710925A07109263
:102D80005E0710925D070895FF920F931F93CF93F4
:102D9000DF93D82F0E94B31610925C0710925B0746
:102DA00085E090E090935E0780935D070BE616E068
:102DB000C0E0F12CD33061F1A8F4D130E1F0D23091
:102DC00009F16C2F8F2D0E949604F3940F5F1F4F13
:102DD000FCE1FF12EFCFDF91CF911F910F91FF9098
:102DE0000C947E13D430C9F0D53059F7C1E0F80106
:102DF000E855FF4F0BC0C1E0F80180AD8111E1CF74
:102E0000C0E0DFCFC1E0F801EC5AFF4F8081F6CF80
:102E1000C1E0F801E059FF4FF9CFC1E0F801E457F4
:102E2000FF4FF4CFCF93DF93C82F811101C0C1E0D2
:102E300020915D0730915E0780915B0790915C0760
:102E400005970397B8F487E090E02230310529F028
:102E50002430310531F486E090E090935C07809354
:102E60005B079091F103892F880F880F890F8D5F81
:102E700080934A07232B99F1D0914A0781E597E087
:102E80000E94250D672B682B692B49F56C2F70E08C
:102E900088E090E00E941C2E6230710514F462E01C
:102EA00070E06D1BCCE1C60FE0915B07F0915C0711
:102EB0003197E730F10598F48827EE59F84E8F4F97
:102EC0000C94302E7217C117041804186917D917FB
:102ED000961787E090E090935C0780935B07DF9103
:102EE000CF91089561E080914D070E9496040E9461
:102EF0007E1380914D0790914E07019690934E0757
:102F000080934D078C3191052CF010925E07109242
:102F10005D07E5CF97FD019695958795AC014C0F20
:102F2000511D052E000C660B770B68C061E0809187
:102F30004D070E9496040E947E1380914D07909148
:102F40004E07019690934E0780934D072C2F30E04B
:102F500040914A074817190609F05CF484E090E0B4
:102F600090935E0780935D0723E0C29FA001112428
:102F7000D8CF97FD0196AC0155954795420F531F49
:102F8000D0CF60E080914D070E9496040E947E138E
:102F900080914D0790914E07019790934E07809333
:102FA0004D074C2F440F440F97FF25C00E94A316D6
:102FB000ACCF60E080914D070E9496040E947E1382
:102FC00080915B0790915C07029711F4CC0FCC0FB6
:102FD00080914D0790914E07019790934E078093F3
:102FE0004D074C2F97FF07C00E94A31633E0C39FE5
:102FF000A001112496CF50E070E060E081E597E0F9
:10300000DF91CF910C949B0D80915D0790915E07AD
:103010000297029768F00E94A31680915B07909137
:103020005C070497F1F580914B07815080934C0722
:1030300080914C07811138C082E090E090935E0748
:1030400080935D0761E080E00E94960461E08BE17F
:103050000E94960480915B0790915C07039751F45E
:1030600080914C0760E08F5F0E94960460E08AE1E7
:103070000E9496040E947E1390914C0720915D0758
:1030800030915E072330310509F454C09F5F90935F
:103090004C0790914C07292F2C0F3327331FA90180
:1030A00040CF10924C07C4CFD0914B079FEF9D0F9C
:1030B000891316C023E030E030935E0720935D074C
:1030C00061E00E94960461E08D2F0E94960460E00A
:1030D0008EEF8D0F0E94960460E081E08D0FC8CFC7
:1030E00061E00E94960490914C0761E08BE1891B9E
:1030F0000E94960480914C0760E081500E949604E3
:1031000090914C0760E08CE1891B0E9496048091AD
:103110005B0790915C07039709F0ACCF80914C0757
:1031200060E08F5F0E94960490914C0760E08AE116
:10313000891B9ECF9150ABCFFC01628180810C94A2
:103140008405E1E9F7E0108611861092F00380E033
:103150000E94C4036093ED037093EE038093EF032A
:1031600088E192E00C949C180E94B31685E192E0ED
:103170000E949C1889E092E00E949C188CE092E0EA
:103180000E949C1882E192E00E949C1888E192E0E3
:103190000E949C188FE092E00E949C1884E092E0CC
:1031A0000E949C18E8EDF3E010821182128233969F
:1031B00083E0E03FF807C1F780917107811108C0F3
:1031C00040E65AEE60E070E089E697E00C949B0DD3
:1031D0000895EF920F931F9381E090E09093BF03C7
:1031E0008093BE0385E090E09093BD038093BC0381
:1031F000EE24E39410E000E020E04091410660E01E
:1032000080E190E00E94C9130E94B41882E192E02C
:103210000E949C1884E092E00E949C188FE092E04B
:103220000E949C1885E192E00E949C18E9E6F7E074
:1032300010861186EFE5F7E0108611868091BC03B9
:103240001F910F91EF900C94C416FC016181808155
:103250000C948405EF920F931F9380913309909102
:103260003409009709F464C130910B0920910609D3
:10327000321709F45DC13091F7072091F207321738
:1032800009F456C18130910509F01AC18091BC033F
:103290009091BD038330910509F42BC170F4813006
:1032A000910509F452C2029709F452C28091BC03FD
:1032B0001F910F91EF900C94C4168430910509F47E
:1032C0002AC1059799F78091BE039091BF0383307F
:1032D000910509F48BC050F48130910509F428C19F
:1032E000029709F444C081E090E017C18430910551
:1032F00009F4AFC00597B9F784E090E09093BF035D
:103300008093BE0382E192E00E94251984E092E05E
:103310000E9425198FE092E00E94251985E192E034
:103320000E949C1885E090E00E942212EE24E39413
:1033300010E000E020E04091410660E085E090E090
:103340000E94C9138BE090E00E9422128CE090E072
:103350000E9422128DE090E00E94221220E0409113
:10336000410660E08EE090E00E94C9133AC081E01F
:1033700090E09093BF038093BE0382E192E00E94AD
:103380009C1884E092E00E949C188FE092E00E94DA
:103390009C1885E192E00E949C1885E090E00E94D4
:1033A0002212EE24E39410E000E020E04091410678
:1033B00060E085E090E00E94C91320E04091410662
:1033C00060E08BE090E00E94C9138CE090E00E94E6
:1033D00022128DE090E00E9422128EE090E00E9486
:1033E00022128FE090E00E9422127DCF82E090E0D6
:1033F0009093BF038093BE0382E192E00E9425195F
:1034000084E092E00E949C188FE092E00E949C1859
:1034100085E192E00E949C1885E090E00E942212D3
:10342000EE24E39410E000E020E04091410660E0EB
:1034300085E090E00E94C9138BE090E00E94221288
:1034400020E04091410660E08CE090E00E94C913CA
:10345000C0CF83E090E09093BF038093BE0382E1EE
:1034600092E00E94251984E092E00E9425198FE0E5
:1034700092E00E949C1885E192E00E949C1885E0F1
:1034800090E00E942212EE24E39410E000E020E09D
:103490004091410660E085E090E00E94C9138BE016
:1034A00090E00E9422128CE090E00E94221220E024
:1034B0004091410660E08DE090E00E94C9138DCFFD
:1034C0000196B1F58091BC039091BD0383309105C5
:1034D00009F43BC138F48130910571F0029709F489
:1034E00002CFE4CE8430910509F432C1059709F08A
:1034F000DDCE84E090E011C08091BE039091BF03C7
:103500008330910509F4A7C068F481309105A1F0DA
:10351000029709F45CC085E090E09093BD0380932E
:10352000BC03C4CE8430910509F4D0C0059799F747
:103530001F910F91EF9008958091D6039091D7033A
:10354000019731F48091D2039091D303059781F3D1
:1035500082E090E09093BF038093BE0382E192E00B
:103560000E94251984E092E00E949C188FE092E06E
:103570000E949C1885E192E00E949C1885E090E0F2
:103580000E942212EE24E39410E000E020E040913B
:10359000410660E085E090E00E94C9138BE090E076
:1035A0000E94221220E04091410660E08CE090E011
:1035B0000E94C9138DE090E00E9422128EE090E0FC
:1035C0000E9422128FE090E00E942212A4CF8091EC
:1035D000D6039091D703892B39F48091D20390912F
:1035E000D303059709F4A4CF83E090E09093BF0341
:1035F0008093BE0382E192E00E94251984E092E06C
:103600000E9425198FE092E00E949C1885E192E0CB
:103610000E949C1885E090E00E942212EE24E39420
:1036200010E000E020E04091410660E085E090E09D
:103630000E94C9138BE090E00E9422128CE090E07F
:103640000E94221220E04091410660E08DE090E06F
:103650000E94C913B3CF84E090E09093BF0380939E
:10366000BE0382E192E00E94251984E092E00E946C
:1036700025198FE092E00E94251985E192E00E94D1
:103680009C1885E090E00E942212EE24E39410E062
:1036900000E020E04091410660E085E090E00E947B
:1036A000C9138BE090E00E9422128CE090E00E940F
:1036B00022128DE090E00E94221220E0409141060B
:1036C00060E08EE090E00E94C9137CCF85E090E03E
:1036D0009093BF038093BE0382E192E00E9425197C
:1036E00084E092E00E9425198FE092E00E94251963
:1036F00085E192E00E94251985E090E00E94221267
:10370000EE24E39410E000E020E04091410660E008
:1037100085E090E00E94C9138BE090E00E942212A5
:103720008CE090E00E9422128DE090E00E94221234
:103730008EE090E00E94221220E04091410660E07D
:103740008FE090E00E94C913E6CE82E090E0E5CEE3
:1037500083E090E0E2CEEF920F931F93CF93DF933D
:10376000C091D203D091D303209729F0CE010597C1
:10377000029708F0CFC08DEC97E00E94B10B882330
:1037800009F4C8C09091810880917C08981307C003
:1037900030913C0820913708321709F4BBC09E01D4
:1037A0002550310922303105F8F030913C08209144
:1037B0003708321709F4AEC0981709F4ABC085E09A
:1037C00090E09093D3038093D2034EE551E060E004
:1037D00070E083E797E00E949B0DDF91CF911F91EE
:1037E0000F91EF900C94E918C530D10509F442C04F
:1037F000269709F08FC00091BE031091BF030130DE
:10380000110509F087C0C091BC03D091BD03C5303C
:10381000D10509F07FC01092D3031092D203109209
:103820007B0710927C070E94A3161093BF0300939E
:10383000BE03D093BD03C093BC03EE24E39410E019
:1038400000E020E04091410660E085E090E00E94C9
:10385000C9131092D3031092D2030E94B41810928D
:10386000D5031092D403DF91CF911F910F91EF9068
:103870000C944D118091BE039091BF03019709F004
:1038800049C08091BC039091BD03059709F042C0E7
:103890001092D3031092D20310927B0710927C07F0
:1038A000EE24E39410E000E020E04091410660E067
:1038B00080E190E00E94C9131092D3031092D203CA
:1038C0000E94B4188091D6039091D703813091055E
:1038D00009F520915D0730915E07232BD9F41092F2
:1038E0004E0710924D0710924C0790935E078093FD
:1038F0005D071092590710925A07D0935C07C09346
:103900005B0782E192E0DF91CF911F910F91EF90E1
:103910000C942519DF91CF911F910F91EF9008958D
:103920001092D3031092D2031092D0031092CF03BF
:103930001092CD038CE092E00E94251988E192E07C
:103940000E949C18E5EAF7E0108611861092CE03DB
:103950001092CC03E3ECF7E0108611860895EF9205
:103960000F931F938091D103882361F086E090E04C
:103970000E94221285E090E00E94221285E090E0F1
:103980000E94221281E090E00E9422122091D20334
:103990003091D3038091D1032430310509F043C025
:1039A000811143C01092D7031092D6031092D30313
:1039B0001092D2030E942F120E944D118091D003C9
:1039C00081110E94901C1092690610926A06109252
:1039D0007B0710927C0710928F071092900710922D
:1039E0008507109286071092AD071092AE071092CD
:1039F000A3071092A4078091D6039091D703892B37
:103A000071F40E94B41840E65AEE60E070E089E676
:103A100097E00E949B0D1092D5031092D4031F9142
:103A20000F91EF9008958111C5CF1092D703109296
:103A3000D6031092D3031092D20382E090E00E944A
:103A40002212EE24E39410E000E020E040914106D1
:103A500060E082E090E00E94C913ACCFCF93DF9387
:103A6000EC0161E088810E94B2056A818881DF9162
:103A7000CF910C9484050E94532E85ED8093BC0059
:103A80008091240490912504A0912604B0912704EC
:103A90000796A11DB11D23E0B695A795979587952B
:103AA0002A95D1F72091BC0024FD03C01092220476
:103AB000089540912404509125046091260470914A
:103AC0002704452B462B472B69F30097A105B10529
:103AD00041F02AE22A95F1F700C00197A109B10946
:103AE000E1CF809123040C94110A1F920F920FB61C
:103AF0000F9211242F933F938F939F93AF93BF9374
:103B00008091F4039091F503A091F603B091F7032F
:103B10003091F30323E0230F2D3758F50196A11DB3
:103B2000B11D2093F3038093F4039093F503A093C6
:103B3000F603B093F7038091F8039091F903A091F5
:103B4000FA03B091FB030196A11DB11D8093F80308
:103B50009093F903A093FA03B093FB03BF91AF9145
:103B60009F918F913F912F910F900FBE0F901F90BB
:103B7000189526E8230F0296A11DB11DD2CF1F92E2
:103B80000F920FB60F9211240BB60F922F933F9303
:103B90004F935F936F937F938F939F93AF93BF9355
:103BA000EF93FF9388EB94E00E941009FF91EF914F
:103BB000BF91AF919F918F917F916F915F914F9145
:103BC0003F912F910F900BBE0F900FBE0F901F9043
:103BD00018951F920F920FB60F9211240BB60F92E9
:103BE0002F938F939F93EF93FF93E091C804F091ED
:103BF000C9048081E091CE04F091CF0482FD1DC004
:103C000090818091D1048F5F8F732091D2048217AD
:103C100041F0E091D104F0E0E854FB4F958F8093A0
:103C2000D104FF91EF919F918F912F910F900BBE37
:103C30000F900FBE0F901F9018958081F2CF1F92AA
:103C40000F920FB60F9211240BB60F922F933F9342
:103C50004F935F936F937F938F939F93AF93BF9394
:103C6000EF93FF9385E595E00E941009FF91EF9196
:103C7000BF91AF919F918F917F916F915F914F9184
:103C80003F912F910F900BBE0F900FBE0F901F9082
:103C900018951F920F920FB60F9211240BB60F9228
:103CA0002F938F939F93EF93FF93E0916505F0918E
:103CB00066058081E0916B05F0916C0582FD1DC069
:103CC000908180916E058F5F8F7320916F058217B1
:103CD00041F0E0916E05F0E0EB5AFA4F958F80933A
:103CE0006E05FF91EF919F918F912F910F900BBED9
:103CF0000F900FBE0F901F9018958081F2CF1F92EA
:103D00000F920FB60F9211240BB60F922F933F9381
:103D10004F935F936F937F938F939F93AF93BF93D3
:103D2000EF93FF938091B900887F803609F44DC0EE
:103D300008F040C0883209F4A9C028F5803109F4A0
:103D40009DC0C8F4882309F4FBC0883009F496C0EC
:103D5000FF91EF91BF91AF919F918F917F916F9163
:103D60005F914F913F912F910F900BBE0F900FBE1F
:103D70000F901F901895883109F488C0803241F760
:103D80008093200414C0803409F49DC040F4803333
:103D9000B9F38833E9F68093200485ECB0C0803510
:103DA00009F485C0883509F496C0883489F60E94E4
:103DB0003D1DCECF883909F48CC038F5883729F0FD
:103DC00050F4883611F0803719F683E0809322048E
:103DD00010929A0357C0883809F47BC0803919F0D3
:103DE000803809F0B5CF80919A03803208F071C015
:103DF000E0919A0381E08E0F80939A038091BB003B
:103E0000F0E0E658FC4F80833DC0803B39F0E0F4A1
:103E1000803A09F479C0883A09F09ACF84E0809317
:103E200022041092790310927803E091B803F09184
:103E3000B90319958091780381110FC081E08093B7
:103E400078031092580309C0803C09F4A6CF883C3F
:103E500009F4A3CF883B09F07BCFE091790381E09F
:103E60008E0F80937903F0E0E85AFC4F80818093B5
:103E7000BB00909179038091780329C08091FD0364
:103E80008093BB0085EC8093BC0062CF90911F04AF
:103E900080911E04981758F5E0911F0481E08E0F61
:103EA00080931F04F0E0E250FC4F8081E9CFE09165
:103EB0001F0481E08E0F80931F048091BB00F0E00F
:103EC000E250FC4F808390911F0480911E0498174C
:103ED000C8F285E8D8CFE0911F0481E08E0F80936F
:103EE0001F048091BB00F0E0E250FC4F8083809182
:103EF000210481115CCF81E08093FC0384EA8093EC
:103F0000BC001092220424CF85EC8093BC00109258
:103F1000220480919A03803230F4E0919A03F0E019
:103F2000E658FC4F108260919A0370E0E091B6036E
:103F3000F091B7038AE793E0199510929A0308CF9E
:103F40001092200434CFCF93DF93EC01862F4AE008
:103F500050E060E070E0488359836A837B8342E3EA
:103F600050E060E070E04C835D836E837F834CE2C1
:103F700051E060E070E0488759876A877B874AEFA5
:103F800050E060E070E04C875D876E877F878CA390
:103F90001DA21AAA19AA1CAA1BAA1EAA1DAA18AEFB
:103FA0001FAA1AAE19AE1CAE1BAE1EAE1DAEFE0190
:103FB000FF961182108232961182108232961182FF
:103FC000108262E00E94B2050E9411076C8B7D8B0B
:103FD0008E8B9F8B8CA10E945B0521E0892B09F4BD
:103FE00020E02AA781E088ABCE01DF91CF910C942D
:103FF000BB0BFC0110861482158216821782118673
:1040000010821182128213820895CF92DF92EF9272
:10401000FF921F93CF93DF93E8EBF4E013821282B9
:1040200088EE93E0A0E0B0E084839583A683B78315
:1040300025E033E03183208345E351E05587448711
:1040400044E351E05787468740E351E0518B408B72
:1040500041E351E0538B428B42E351E0558B448B5B
:1040600046E351E0578B468B118E128E138E148EC1
:10407000E5E5F5E01382128284839583A683B783F6
:104080003183208325EC30E03587248724EC30E031
:104090003787268720EC30E0318B208B21EC30E015
:1040A000338B228B22EC30E0358B248B26EC30E0F6
:1040B000378B268B118E128E138E148EE2EFF5E065
:1040C0001382128284839583A683B78387E193E06A
:1040D00091838083EEEFF5E08FEF8083128211826F
:1040E000148613868FEF9FEFDC0187839087A1876B
:1040F000B287CBE0D6E088E8C82E83E1D82EE12C49
:10410000F12CCBA2DCA2EDA2FEA282E396E00E94FB
:10411000F91F1A82198218821B821C821D821E823C
:104120001F82188619861A861B861C861D861E8687
:104130001F86188A198A1A8A1B8A1C8A1D8A1E8A57
:104140001F8A188E198E1A8E1B8E1C8E1D8E1E8E27
:104150001F8E18A219A21AA2CBA2DCA2EDA2FEA267
:1041600048E853E160E070E082E396E00E949B0D36
:1041700011E01A83ECE3F6E01382128289E293E005
:104180009183808385E399E00E94F91FE0E3F9E0E1
:1041900010821282118286E299E00E94F91F62E089
:1041A00081EE98E00E94A31F63E08CE998E00E94F2
:1041B000A31F66E387E598E00E94A31F64E082E105
:1041C00098E00E94A31F6CE38DEC97E00E94A31F70
:1041D00083EC97E00E94F91F89EB97E00E94F91F9A
:1041E0008FEA97E00E94F91F85EA97E00E94F91F85
:1041F0008BE997E00E94F91F81E997E00E94F91F7F
:1042000087E897E00E94F91F8DE797E00E94F91F69
:1042100083E797E00E94F91F89E697E00E94F91F63
:104220008FE597E00E94F91F8CE1EFE1F2E0ABE649
:10423000B6E001900D928A95E1F78CE1EBE3F2E0B4
:10424000A7E8B6E001900D928A95E1F78AE1E5EAE8
:10425000F6E0DF01982F1D929A95E9F7EBE6F6E07C
:1042600010AF11AF12AFE1ECF6E0DF011D928A95BD
:10427000E9F71093BF061093C00610831093C5068C
:104280001093C6061093C7068CE1E7E5F2E0ABEDAC
:10429000B6E001900D928A95E1F78CE1E3E7F2E058
:1042A000A7EFB6E001900D928A95E1F78CE1EFE877
:1042B000F2E0A3E1B7E001900D928A95E1F78CE17D
:1042C00080934A078EE080934B0710924C07109220
:1042D0004E0710924D0710924F071092500781E53C
:1042E00097E00E94F91F10925C0710925B071092F2
:1042F0005E0710925D0781E696E00E94F91F87E550
:1043000096E00E94F91F8DE496E00E94F91F83E475
:1043100096E00E94F91F80911E0246E4849FC0012E
:10432000112424E630E0B9010E941C2E66546093EB
:10433000420680911D02849FC0011124B9010E9490
:104340001C2E66546093410680911C02849FC0011C
:104350001124B9010E941C2E665460934006DF911F
:10436000CF911F91FF90EF90DF90CF900895CF9362
:10437000DF93CDB7DEB769970FB6F894DEBF0FBEF7
:10438000CDBF789484B5826084BD84B5816084BDDE
:1043900085B5826085BD85B5816085BD80916E00E3
:1043A000816080936E001092810080918100826014
:1043B0008093810080918100816080938100809151
:1043C00080008160809380008091B1008460809340
:1043D000B1008091B00081608093B0008091910025
:1043E0008260809391008091910081608093910020
:1043F000809190008160809390008091A100826004
:104400008093A1008091A10081608093A1008091A0
:10441000A00081608093A000809121018260809340
:1044200021018091210181608093210180912001EF
:1044300081608093200180917A00846080937A006B
:1044400080917A00826080937A0080917A00816006
:1044500080937A0080917A00806880937A0010922D
:10446000C100E0916505F091660502E00083E091EE
:104470006105F09162051082E0916305F091640599
:104480008FEC808310926D05E0916905F0916A05CB
:1044900016E01083E0916705F091680580818061E6
:1044A0008083E0916705F091680580818860808352
:1044B000E0916705F0916805808180688083E091D4
:1044C0006705F091680580818F7D808368EE73E0D9
:1044D00080E090E00E94DF06E091C804F091C904FA
:1044E0000083E091C804F091C9041082E091C404F3
:1044F000F091C5041082E091C604F091C70480E1F8
:1045000080831092D004E091CC04F091CD0410830C
:10451000E091CA04F091CB04808180618083E091B6
:10452000CA04F091CB04808188608083E091CA0442
:10453000F091CB04808180688083E091CA04F0917F
:10454000CB0480818F7D80831092B1041092B204DD
:104550001092B30488EB94E090935904809358042C
:104560001092AE041092AF041092B004EAE5F4E0A9
:104570008FEF9FEF8193919324E0E637F207D1F715
:104580008091580490915904DC01ED91FC910084D4
:10459000F185E02D1995A0915804B0915904892B0B
:1045A00049F0ED91FC9111970284F385E02DCD0146
:1045B0001995E6CF10EFF12EF9820AEA0A8385E019
:1045C000D82EDB82CC24C394CC8215E51D83ED91DB
:1045D000FC9111970280F381E02D45E050E0BE018F
:1045E0006F5F7F4FCD011995F9820A83DB8282E0EC
:1045F0008C831D838091580490915904DC01ED91C6
:10460000FC910280F381E02D45E050E0BE016F5F38
:104610007F4F19956AE070E080E090E00E94DF062D
:10462000F9820A83DB8284E08C831D8380915804A5
:1046300090915904DC01ED91FC910280F381E02D11
:1046400045E050E0BE016F5F7F4F1995F9820A8304
:1046500087E08B838CE08C831D821E821F83809178
:10466000580490915904DC01ED91FC910280F38192
:10467000E02D47E050E0BE016F5F7F4F19958AEB58
:104680009FEF0E949803F9820A8396E0B92EBB82BD
:1046900089E08C83CD821E838091580490915904C7
:1046A000DC01ED91FC910280F381E02D46E050E0C9
:1046B000BE016F5F7F4F1995F9820A83BB828EE03E
:1046C0008C83CD821E838091580490915904DC0123
:1046D000ED91FC910280F381E02D46E050E0BE01B7
:1046E0006F5F7F4F19956EE571E080E090E00E946A
:1046F000DF060E9499028091B104882309F42DC33A
:10470000A6E9B4E0FE013196CE0145962D912193A4
:104710008E179F07D9F70E9499028091B2048823CF
:10472000C1F00E9499028091AB049091AC049C016D
:10473000225131093093C1032093C0034397873836
:10474000934108F04AC384EF91E09093C3038093B0
:10475000C20382E090E09093C7038093C6038091E8
:10476000B100887F86608093B1008091AE03811193
:1047700045C01092A00310929F038FEF8093A30374
:104780008093A4038093A5038093A6038093A7033B
:104790008093A80381E08093A9031092AB03109249
:1047A000AA031092A2031092A10380915204909147
:1047B0005304892B31F48DE993E090935304809353
:1047C0005204E0919B03F0919C03309721F08DE916
:1047D00093E0958384838DE993E090939C03809389
:1047E0009B031092AD031092AC038DED92E0909379
:1047F0009E0380939D0381E08093AE03249A88ED0D
:1048000093E09093A00380939F0388E090E09093BF
:10481000AB038093AA038091010690910206A091B8
:104820000306B0910406843CF9E09F07A105B10599
:1048300020F484EC99E0A0E0B0E08093010690932E
:104840000206A0930306B093040681E090E09093E3
:10485000BF038093BE0325E030E03093BD03209377
:10486000BC039093F2038093F10381E898E0909366
:1048700044088093430810924E0810924D0887E830
:1048800098E090938908809388081092930810927A
:10489000920880910101877F80930101809102013C
:1048A000886080930201809101018F7E80930101D5
:1048B000809102018061809302011092340910926C
:1048C00033096AE070E080E090E00E94DF06109219
:1048D000BB031092BA030E94F3098DE898E090930D
:1048E000B9038093B8038EE898E09093B703809360
:1048F000B6038CE08093B80000E011E0FF24F3944D
:10490000F092280410934A041092290410924B0448
:104910000E94320A811101C00F5F1F5F1F3781F7AC
:10492000002309F469C281E0809350078091500709
:10493000882339F180E7809345071092BB031092DA
:10494000BA031092290410924B040E94F3098DE8D7
:1049500098E09093B9038093B8038EE898E0909321
:10496000B7038093B60381E20E949F0B81E80E9407
:104970009F0B80EA0E949F0B8FEE0E949F0B0E946C
:10498000991610924F070E94B31682E192E00E949E
:104990002E1D85E192E00E942E1D8FE092E00E9484
:1049A0002E1D84E092E00E942E1D89E092E00E947C
:1049B0002E1D8CE092E00E942E1D88E192E00E9464
:1049C0002E1D61E08BE00E94B2051092D703109279
:1049D000D6031092D3031092D2031092CB031092FD
:1049E000CA038CEF9FE00E94BA2D8E8B8DEF9FE063
:1049F0000E94BA2D8F8B8EEF9FE00E94BA2D888F78
:104A00008FEF9FE00E94BA2D898F0E9490110E892E
:104A10001F89288D398D601771078207930709F068
:104A2000FCC1CE0101966C0110E000E0C8010E94BB
:104A3000BA2DD6018D936D010F5F1F4F0530110503
:104A4000A9F789819FEF980F9E3F30F4813009F4D8
:104A5000D6C181E0809308028A819FEF980F9E3F24
:104A600030F4813009F4CEC181E0809307028C815B
:104A70009FEF980F943668F480931E02B6E48B9FE4
:104A8000C001112464E670E00E941C2E66546093FD
:104A900042068D819FEF980F9E3F50F4823009F4BB
:104AA000B4C110920302833009F0B5C11092020222
:104AB00044EF51E060E070E08FEA97E00E949B0DC8
:104AC00040911B0250E070E060E085E399E00E94B5
:104AD0009B0D40ED57E060E070E087E596E00E94B6
:104AE0009B0D8091C6039091C7030197029738F4FC
:104AF00080914206082E000C990B0E9498030E9498
:104B0000B418EE24E39410E000E020E04091410668
:104B100060E082E190E00E94C91310924E0710926B
:104B20004D0710924C0781E090E090935E078093D0
:104B30005D071092590710925A0710E061E0812F2B
:104B40000E9496041F5F1C31C9F784E090E09093A7
:104B50005E0780935D070E947E1382E192E00E94CF
:104B6000251964E670E080E090E00E94DF0685E1B0
:104B700092E00E94251964E670E080E090E00E94D7
:104B8000DF068CE092E00E94251964E670E080E088
:104B900090E00E94DF0684E092E00E94251964E61E
:104BA00070E080E090E00E94DF068FE092E00E94DB
:104BB000251964E670E080E090E00E94DF0688E15D
:104BC00092E00E94251964E670E080E090E00E9487
:104BD000DF0610E000E06801CC0CDD1CC00ED11E29
:104BE000F601E852FC4F6F0185E00E94C403D60134
:104BF0006D937D938C938091FE050E941D0764E662
:104C000070E080E090E00E94DF060F5F1F4F0730EA
:104C1000110509F781E00E94C4036093ED037093CE
:104C2000EE038093EF038091FE050E941D0760E272
:104C300073E080E090E00E94DF060E94B4180E94BA
:104C40007E1322242A94322CCC24C394D12C62E0EB
:104C5000A62EB12C73E0872E912CE4E06E2E712CE1
:104C6000FEE14F2E512C8091C6039091C70301970E
:104C7000029710F40E94990287E596E00E946B0D5E
:104C8000882309F437C180915506811133C1809181
:104C9000C6039091C7030197029708F02BC140ED1E
:104CA00057E060E070E087E596E00E949B0D9091F0
:104CB000C2038091C303B0EFB983EAEAEA83F7E065
:104CC000FB8320E12C839D838E8385E58F838091F8
:104CD000580490915904DC01ED91FC910280F3811C
:104CE000E02D47E050E0BE016F5F7F4F1995809146
:104CF000C803882309F4FEC08091C5038111FAC05E
:104D00008091C4038111F6C00091C6031091C703BE
:104D1000015011090230110508F0B7C02091C203FB
:104D20003091C3038091B4049091B50428173907DA
:104D300009F0ABC08091B604882309F4A6C083E4CF
:104D400096E00E946B0D882309F4D4C040E45FE133
:104D500060E070E083E496E0CBC0F9820A83DB82F6
:104D600081E18C831D838091580490915904DC016A
:104D7000ED91FC910280F381E02D45E050E0BE0111
:104D80006F5F7F4F19956EE571E080E090E00E94C3
:104D9000DF060E9499028091B304882341F181E0EB
:104DA00090E09093C7038093C6030E94990280917C
:104DB000AB049091AC049C01225131093093C103A2
:104DC0002093C00343978738934160F484EF91E0C8
:104DD0009093C3038093C203C2CC1092C10310927C
:104DE000C003B7CC1092C1031092C003B8CC10928C
:104DF000C7031092C603B3CC1092500797CD109200
:104E000008022ACE1092070232CE81E0809303027C
:104E1000809302024DCE81E0FBCFEE24E39410E0BC
:104E200000E020E04091410660E088E090E00E94D0
:104E3000C913C8010E94BA2D882321F060E0C8017F
:104E40000E94C22D0F5F1F4F0530110591F70E9480
:104E5000901169837A838B839C83FE0131966F0165
:104E60000CEF1FE0D601FD906D01C8010E94BA2D24
:104E7000F81621F06F2DC8010E94C22D0F5F1F4F41
:104E80000115B0E11B0771F713CE83E496E00E9491
:104E90006B0D882309F453CF0230110520F4809163
:104EA000B70481114CCF10925F06109260061092E9
:104EB0004B0610924C060E94F2118091C203909111
:104EC000C30301962091C0033091C1032D503E4F82
:104ED0002817390708F0BEC0E4EFF1E0F093C303F0
:104EE000E093C20344EF51E060E070E08DE496E0AF
:104EF0000E949B0D8DE496E00E946B0D882371F05B
:104F0000109255061092560640ED57E060E070E0B2
:104F100087E596E00E949B0D0E94871381EE98E042
:104F20000E94BB0B8CE998E00E94BB0B82E198E0E9
:104F30000E94BB0B87E598E00E94BB0B8DEC97E0CD
:104F40000E94BB0B80913009880F880F8093300935
:104F50009091000194FF03C082608093300980919A
:104F6000000183FF05C08091300981608093300982
:104F7000209130092F7020933009422F50E0FA0120
:104F8000EF50FD4F8081882309F471C08091310971
:104F90009091320934E0880F991F3A95E1F7822BFE
:104FA000952B909332098093310999278B32910583
:104FB00019F0479709F05BC0273009F050C0D09234
:104FC0003409C092330980913309909134090097D4
:104FD00071F02091D6033091D7032130310509F4C7
:104FE0007EC008F449C02230310509F46CC086E265
:104FF00099E00E946B0D882309F429C10E944D118C
:105000008091D6039091D7038130910509F4F5C1C1
:1050100008F428C1029709F47DC10091D2031091D0
:10502000D3030230110509F43BC308F02CC301304F
:10503000110509F430C38091D003882309F454C5C5
:105040008091D2039091D303039709F44DC50E9438
:10505000901C4AC59093C3038093C20343CF2B3067
:1050600009F0B1CF3092340920923309ACCF1092BD
:10507000340910923309A7CF2091C803222361F08D
:105080002091D2033091D3032530310529F08130AE
:10509000910579F40E941B158091D2039091D3035E
:1050A0008530910559F0069709F0A1CF0E942A1981
:1050B0009ECF019689F70E94EB14EECF0E942A1929
:1050C0000E944C1594CF8130910519F40E94A714C9
:1050D0008ECF019609F08BCF0E94601488CF80910B
:1050E000D2039091D303059799F490910B09809185
:1050F0000609981769F090913C0880913708981735
:1051000039F09091810880917C0898130E942A19A7
:105110008091D2039091D303892B09F068CF9091AD
:10512000C6088091C10898133BC090918108809176
:105130007C08981335C090913C08809137089813EB
:105140002FC080913309909134098130910509F085
:1051500054C08091F1039091F2038330910509F4DA
:1051600067C0C8F48130910509F467C0029709F45B
:1051700069C0EE24E39410E000E020E04091410695
:1051800060E085E090E00E94C9130E942F1280E049
:105190000E944D1405C08430910541F1059749F7EF
:1051A00090910B0980910609981321CF9091C60820
:1051B0008091C10898131BCF90913C0880913708CB
:1051C000981709F414CF9091810880917C08981762
:1051D00009F40DCF80913309909134098130910504
:1051E00009F474CF019609F002CF76CF85E090E004
:1051F0009093F2038093F103BCCF019689F68091DE
:10520000F1039091F20383309105B9F058F48130A5
:10521000910531F2029709F0ACCFD092F203C0921F
:10522000F103A7CF8430910569F0059709F0A1CF6C
:105230007092F2036092F1039CCFB092F203A092BD
:10524000F10397CF9092F2038092F10392CF809175
:105250002E09882309F4D4CE66E970E08BE00E9421
:10526000E305CECE90910B0980910609981709F4B9
:1052700000C41092D5031092D4030E94AB1B9091EE
:10528000C6088091C10898130AC08091D2039091FA
:10529000D303892B21F4B092D303A092D20380913F
:1052A000D2039091D303892B09F0B7CE8091710777
:1052B000882309F4C0CE89E697E00E94250D672B6C
:1052C000682B692B09F0B7CE80916707811116C052
:1052D00048EE53E060E070E08FE597E00E949B0DA0
:1052E0008FE597E00E94250D643F7140810591058F
:1052F00060F485E192E00E949C188FCE8FE597E0E4
:105300000E946B0D8111E4CFEBCF85E192E00E940A
:10531000251983CE8BE997E00E94250D683C710525
:105320008105910508F058C085E192E00E949C1823
:1053300082E192E00E949C188FE092E00E949C180B
:105340008CE092E00E949C188BE997E00E946B0D24
:105350008823E1F040E951E060E070E08BE997E0FC
:105360000E949B0DEE24E39410E000E020E04091C9
:10537000410660E086E090E00E94C91320E0409181
:10538000410660E085E090E00E94C91385EA97E05D
:105390000E946B0D8823A1F0EE24E39410E000E05E
:1053A00020E04091410660E085E090E00E94C91352
:1053B00040E456E060E070E085EA97E00E949B0DD3
:1053C0009091C6088091C108981709F426CE1092D2
:1053D000D1030E94AF1C21CE85E192E00E942519E5
:1053E00082E192E00E9425198FE092E00E94251947
:1053F0008CE092E00E942519A7CF8091AD07811122
:1054000008C08091A307811104C08CE092E00E9443
:10541000251989EB97E00E946B0D882359F1809143
:10542000BD079091BE07A091BF07B091C007409102
:10543000B9075091BA076091BB077091BC07840F00
:10544000951FA61FB71F8093BD079093BE07A0931B
:10545000BF07B093C00781E08093C1071092C207D5
:1054600080910F020E945B05811145C08FE092E0A0
:105470000E949C188091D2039091D303039771F0FE
:105480008091F1039091F2038330910509F441C0BA
:10549000B8F50297E1F181E40E9458110E94AB1B1C
:1054A00090913C0880913708981368C0809107025A
:1054B000882309F45EC08091D2039091D3030397AF
:1054C00061F570E060E0809104020E94E305909134
:1054D000C6088091C1082091D2033091D3032530B2
:1054E000310509F4CBC0981709F44DC0D092D3030D
:1054F000C092D20392CD8FE092E00E942519BACFDC
:105500008430910541F0059731F68AE5C5CF86E4F0
:10551000C3CF8BE4C1CF8DE4BFCF809185078823B3
:1055200031F08DE797E00E946B0D882351F2809156
:1055300004022091F1033091F20360EA70E023301D
:10554000310519F248F46EEB70E02230310509F4B0
:10555000BCCF6CED70E0B9CF62E870E0243031056B
:1055600009F4B3CF64E670E02530310509F4ADCF1E
:10557000F0CF84E092E00E942519A9CF84E092E068
:105580000E949C18A4CF9091810880917C08981368
:1055900044CD90913C088091370898133ECD90916E
:1055A000F7078091F207981340C0FF24F394F0921C
:1055B000CD038091CA039091CB03892BB1F58091E3
:1055C000C903811132C087E897E00E94250D672B3F
:1055D000682B692B51F540ED57E060E070E087E8FB
:1055E00097E00E949B0DF3E0F0931B020E94A1182C
:1055F000E12C10E000E020E04091410660E084E012
:1056000090E00E94C91348E250E060E070E081E958
:1056100097E00E949B0D4EE551E060E070E08DE761
:1056200097E00E949B0DF092C90390910B09809125
:105630000609981791F08091D003882371F080912A
:10564000CF03882351F08091CD03811104C01092C3
:10565000D3031092D2031092CF039091F707809159
:10566000F207981709F4D9CC8091CA039091CB0323
:10567000892B09F0D2CC1092C903CFCC981336CF26
:105680000E944C15D8CC0330110509F4B0C0053088
:105690001105B1F3D0CC0E94AF1C0E94B316CBCC45
:1056A0009091810880917C08981398C0809108029D
:1056B000882309F493C081E08093D1030E94AF1C3A
:1056C0001093D7030093D6037092D3036092D20352
:1056D00040E456E060E070E085EA97E00E949B0DB0
:1056E00040E951E060E070E08BE997E00E949B0D9B
:1056F0004EE551E060E070E083E797E00E949B0D8B
:10570000EE24E39410E000E020E04091410660E0E8
:1057100086E090E00E94C91320E04091410660E0DD
:1057200085E090E00E94C91320E04091410660E0CE
:1057300085E090E00E94C9138091D6039091D70331
:10574000029709F478CC82E192E00E94251985E164
:1057500092E00E94251942E950E060E070E089EB98
:1057600097E00E949B0D8FE092E00E942519109215
:10577000AD071092AE071092A3071092A40781E024
:1057800090E00E942212EE24E39410E000E020E07A
:105790004091410660E081E090E00E94C91381E001
:1057A0000E944D1480915D0790915E07892B09F04E
:1057B00042CC10924E0710924D0710924C07D09297
:1057C0005E07C0925D071092590710925A0785E054
:1057D00090E090935C0780935B072DCCD092D70329
:1057E000C092D6031092D3031092D203A5CF83ECBC
:1057F00097E00E946B0D882351F10E94A1188091BF
:10580000F1039091F20348E151E060E070E08330F1
:105810009105C9F058F44CE251E060E070E0029765
:1058200091F040E451E060E070E00DC044E051E0F0
:1058300060E070E08430910531F040EF50E060E0CE
:1058400070E0059771F783EC97E00E949B0D8091C3
:10585000D003811110C081E08093D00323E0209316
:105860001B02109285071092860789E092E00E9441
:1058700025190E94A1188091AD078823D9F085EAE7
:1058800097E00E94250D6233710581059105D0F5E1
:105890008CE092E00E94251985EA97E00E946B0D4A
:1058A000882341F044E650E060E070E085EA97E04C
:1058B0000E949B0D8091CE039091CF03992309F410
:1058C0004DC1811103C081E08093CE038091CC0350
:1058D0009091CD03992309F447C1811103C081E060
:1058E0008093CC0390913C0880913708981307C0AF
:1058F0009091810880917C08981709F49CCB0E94B4
:10590000901C99CB8CE092E00E949C18C5CF81E05E
:10591000F3C089E00430110529F08AE00530110553
:1059200009F01AC10E94781281E997E00E946B0D7C
:10593000882309F451C01091F003111116C00E9480
:10594000A31610924E0710924D0710924C07D0925A
:105950005E07C0925D071092590710925A070E9485
:105960007E1390925C0780925B0788E192E010FDC5
:1059700019C00E9425191C3008F05EC0E12FF0E02C
:105980008827EA53F34D8F4F0C94302ED52C102DD1
:10599000122D142D162D142D162D142D182D1A2DF3
:1059A000D52C162D0E949C18E6CF85E00E94C403DA
:1059B0006093ED037093EE038093EF031F5F1093EA
:1059C000F0031C3008F046C048E250E060E070E0B0
:1059D00081E997E00E949B0D8FEA97E00E946B0D92
:1059E000882341F044EF51E060E070E08FEA97E0F7
:1059F0000E949B0D85E399E00E946B0D882369F05E
:105A00008091FE050E941D0740911B0250E070E04E
:105A100060E085E399E00E949B0D0E949F0923C9E5
:105A200088E0C4CF8AE0C2CF81E0C0CF80E0BECFA3
:105A300089E0BCCF87E0BACF80E00E94C4036093C6
:105A4000ED037093EE038093EF0388E192E00E94F0
:105A50009C18B4CF1092990710929A071092F003F5
:105A60000E94A31685E090E090935C0780935B070B
:105A7000B3CF8091D403853008F4FFCB8091D2035B
:105A80009091D3030597029708F4F7CB85E090E057
:105A90000E942212EE24E39410E000E020E0409106
:105AA000410660E085E090E00E94C91381E190E04A
:105AB0000E94221220E04091410660E081E190E0E6
:105AC0000E94C91386E090E09093D3038093D203A1
:105AD0001092D4034EE551E060E070E083E797E078
